:020000040800F2
:10000000A80D0020BD0100086D1C0008B51B0008EC
:1000100000000000000000000000000000000000E0
:10002000000000000000000000000000711C00083B
:1000300000000000000000006F1C0008731C000896
:10004000ED01000800000000ED010008ED010008CE
:10005000ED010008ED010008ED010008ED010008C8
:1000600000000000CD110008ED010008ED010008BE
:10007000BD110008ED01000800000000ED010008BE
:100080000000000000000000000000000000000070
:10009000ED01000800000000ED010008ED0100087E
:1000A00000000000ED01000800000000000000005A
:1000B000ED010008ED010008000000000000000054
:1000C00000F002F800F04EF80CA030C808382418F0
:1000D0002D18A246671EAB4654465D46AC4201D180
:1000E00000F040F87E460F3E0FCCB6460126334264
:1000F00000D0FB1AA246AB4633431847DC21000070
:10010000FC210000103A02D378C878C1FAD852070F
:1001100001D330C830C101D504680C6070470000BD
:100120000023002400250026103A01D378C1FBD813
:10013000520700D330C100D50B60704710B5642959
:1001400002D100F03BF910BD002010BD1FB5009892
:10015000019900F026FE00F059FB1FBD10B500F01C
:10016000C1FB10BD00F0F0FB1146FFF7EFFF02F0FE
:1001700061F800F0E7FD03B4FFF7F0FF03BC00F007
:1001800081FF000070B505460C46164602E00FCC14
:100190000FC5103E102EFAD2082E02D303CC03C591
:1001A000083E042E07D301CC01C5361F03E0217899
:1001B0002970641C6D1C761EF9D270BD0F4880F347
:1001C00008880F480168090E0E4A914205D10E4871
:1001D0000E4901600E480F4901600F4880470F48E3
:1001E0000047FEE7FEE7FEE7FEE7FEE7FEE700006A
:1001F0000B480C490C4A0D4B70470000A80D00201D
:10020000040000001F000000341002400100000044
:1002100000000140000000007B1C0008C100000835
:10022000A8070020A80D0020A8090020A809002088
:10023000FEB5054610460C46184373D0AE468C46B4
:100240000020AD1A01469C4167D366460027012471
:100250003D46B61A9D4102D313463A4621246546CF
:1002600076462F04360C3E432D0CB61A9D4104D31E
:10027000150C1B042B4312041034654676462F06DA
:10028000360A3E432D0AB61A9D4104D3150E1B02B1
:100290002B4312020834654676462F0736093E4343
:1002A0002D09B61A9D4104D3150F1B012B431201D2
:1002B000241D65467646AF07B6083E43AD08B61A1C
:1002C0009D4104D3950F9B002B439200A41C6546CF
:1002D0007646EF0776083E436D08B61A9D411AD35D
:1002E00092185B41641C16E0001876466546494149
:1002F000B71A9D410191009009D36046B11A984107
:100300008E468446009801990025401C6941DD070E
:1003100052082A435B08641EE6D57246634603B062
:10032000F0BDFFE700200146C046C0462A462346EE
:10033000F5E700000FB4054910B503AA029800F0D4
:1003400021FA10BC08BC04B018470000AC01002022
:10035000F8B50E460446002020622046E168884732
:10036000002829D0252802D06268A16820E0E16831
:1003700020460027884705001ED028464138192806
:1003800002D80127FF022035324620462760294641
:10039000FFF7D4FE002808D0012804D0F61DF60887
:1003A000F6000836D9E7361DD7E762682846A16807
:1003B0009047206A401CCFE7206AF8BDF7B50025BA
:1003C00075291068009914A611D0C046C0460028AF
:1003D00002DA404211A608E0009909688A0701D5AF
:1003E0000FA602E0490704D50EA6012501E0C0468C
:1003F000C046009F0024243704E000F0D7F93031D4
:100400003955641C0028F8D12B4632462146009805
:1004100000F060F9FEBD0000000000002D000000AB
:100420002B00000020000000F8B5042A2CD383071D
:1004300012D00B78491C0370401C521E83070BD04E
:100440000B78491C0370401C521E830704D00B78A4
:10045000491C0370401C521E8B079B0F05D0C91A04
:10046000DF002023DE1B08C90AE0FFF78BFEF8BD82
:100470001D4608C9FD401C46B4402C4310C0121F45
:10048000042AF5D2F308C91A521EF0D40B78491C7D
:100490000370401C521EEAD40B78491C0370401CA8
:1004A000012AE4D409780170F8BD01E004C0091FF5
:1004B0000429FBD28B0701D50280801CC90700D01C
:1004C0000270704700290BD0C30702D00270401C95
:1004D000491E022904D3830702D50280801C891E8D
:1004E000E3E70022EEE70022DFE70000024670B5F6
:1004F0000A4392072AD11E4DEE0104C808C9541BB5
:100500009443344017D0D0B2D9B2401A21060143E7
:1005100010D190B299B2401A210401430AD11002BD
:100520001902000A090A401A2102014302D1100EE1
:10053000190E401A70BD9A42DFD010BA19BA88421B
:1005400001D9012070BD0020C04370BD02780B7836
:10055000401C491C002A09D09A4207D102780B7826
:10056000401C491C002A01D09A42EFD0D01A70BD1D
:1005700001010101002203098B422CD3030A8B42A3
:1005800011D300239C464EE003460B433CD400228B
:1005900043088B4231D303098B421CD3030A8B429D
:1005A00001D394463FE0C3098B4201D3CB01C01A6B
:1005B000524183098B4201D38B01C01A5241430936
:1005C0008B4201D34B01C01A524103098B4201D324
:1005D0000B01C01A5241C3088B4201D3CB00C01A91
:1005E000524183088B4201D38B00C01A5241430809
:1005F0008B4201D34B00C01A5241411A00D201462E
:100600005241104670475DE0CA0F00D049420310C6
:1006100000D34042534000229C4603098B422DD315
:10062000030A8B4212D3FC22890112BA030A8B42BD
:100630000CD3890192118B4208D3890192118B420C
:1006400004D389013AD0921100E08909C3098B4291
:1006500001D3CB01C01A524183098B4201D38B01D4
:10066000C01A524143098B4201D34B01C01A524177
:1006700003098B4201D30B01C01A5241C3088B42BC
:1006800001D3CB00C01A524183088B4201D38B00A7
:10069000C01A5241D9D243088B4201D34B00C01A31
:1006A0005241411A00D20146634652415B10104646
:1006B00001D34042002B00D54942704763465B108E
:1006C00000D3404201B50020C046C04602BD70477D
:1006D00070477047FFB504460D4681B02430009046
:1006E0002168880604D51022E0699143216000E06A
:1006F0000120A84201DD471B00E000270498A16902
:100700007A191018081AA0612078C00602D4204671
:10071000C046C046002608E003986268A168805D74
:100720009047206A401C761C206204988642F3DBC6
:100730002078C0060AD52046C046C04606E062685A
:10074000A16830209047206A401C206238467F1EF6
:100750000028F4DC07E000986268A168405D9047DB
:10076000206A401C206228466D1E0028F3DC2046CB
:10077000C046C0462078000602D5022005B0F0BD74
:100780000120FBE7084B70B50D467B4400F027F8CD
:100790000446284600F036F8002802D00020C04366
:1007A00070BD204670BD0000891A00000146800817
:1007B000081A02091018020A1018020C1018C008B2
:1007C000820012185200891A01E0401C0A390A29D5
:1007D000FBD2704701694A1C02610878704700B576
:1007E0008FB002910021059105490193794403914D
:1007F000114604906846FFF7ABFD0FB000BD000046
:10080000E5FFFFFFC06880210840704710B54348EE
:100810005421FFF768FE42485421FFF764FE414827
:100820005421FFF760FE40483C493D4B404A01607F
:100830003E4803603B4810605A1C0A65411C19651C
:10084000012101653C48354A3AA1784400F0E0F9BD
:10085000002804D1384878440C3800F07BFA384836
:100860002F4A36A1784400F0D3F9002804D1344847
:1008700078440C3800F06EFA32482A4A2FA17844A6
:1008800000F0C6F9002804D12E4878440C3800F056
:1008900061FA40232148DC000021224600F092F951
:1008A000002804D0244878445C3800F053FA1C48EF
:1008B00022464023002100F085F9002804D020487A
:1008C00078445C3800F046FA16482246102300218E
:1008D00000F078F9002804D01A4878445C3800F019
:1008E00039FA10BD0F4870B5006D44080B4864001C
:1008F00000F002FA0A4800F0FFF90A4800F0FCF99B
:1009000009E0206D450820466D0000F0F5F920460D
:1009100000F039F82C46002CF3D170BD58010020AE
:10092000AC0100200002002024000020280000204C
:100930002C00002072000000721A000077000000F6
:100940005F1A00004D1A0000754600F009FAAE4625
:10095000050069465346C008C000854618B020B55A
:10096000FFF746FC60BC00274908B6460026C0C514
:10097000C0C5C0C5C0C5C0C5C0C5C0C5C0C5403D57
:1009800049008D46704770B50446051F00F0ECF92C
:100990000068002C1AD0446801E020466468002CEE
:1009A00001D0AC42F9D301680A18AA4204D12A68DE
:1009B00005468918016000E0456028684119A14298
:1009C00005D16168696021684018286070BD6C605D
:1009D00070BD0000F8B505460C46C8680521C9047D
:1009E0008843012189050843E060800602D520463E
:1009F00000F006FB7149E0680140022903D020465F
:100A000000F0A8FABCE00521012249030140D2030D
:100A100091420FD1C00306D56168E06A884200D8D0
:100A20000846606006E02069E0626060606901F08D
:100A30006BFBA061A1680022EEB200290EDAE0682B
:100A400083050BD4C943A1600921226049030843EF
:100A5000E0606068411C61600670ACE0E068012104
:100A600049030843E060002020602069002831D15C
:100A7000606901F051FB012527462437ED0200286B
:100A800016D0A0898005800F08D0E06900F0B6F983
:100A90000028206102D0E068284318E00120276187
:100AA000E061E068032109028843012189020DE029
:100AB000E06900F0A3F900282061EFD0E068284346
:100AC000E0608105890F03D1FF2101310843E06017
:100AD00020696060E2683A4F2569D0051FD56168DA
:100AE000E06A884200D80846411B05D022462846C5
:100AF00000F03AFA002843D1E068010204D5E5622B
:100B000000206560A06053E0691CE1626160E169FA
:100B1000491E3843A160E06030462E70F8BD1002D7
:100B200001D53A4009E06068411C61600670E068E8
:100B300038430A2EE06006D00022E16A60688142F4
:100B400003D90B4602E00122F7E70346A7895B1BA6
:100B50007F0504D4E7699F4201DD002A1ED081424F
:100B600000D801460F1A0020E5626560002BA060E6
:100B700009DD22461946284600F0F6F9002802D081
:100B80000020C043F8BD002F08D0A069E562656071
:100B9000C01BA061E06810210843E060E06800022B
:100BA00009D56168A069E562491B40186560A061CC
:100BB0000120C043F8BD3046F8BD0000821000009F
:100BC0000000010070B5C468A50713D0650211D4F8
:100BD000D51FF93D0AD0FF3D6D1E07D0FF3DFF3DFB
:100BE000022D07D101462431012305E0074E5D1E89
:100BF000B54201D3012070BD0161C36141600F2185
:100C000009028C431443C460002070BDFFFFFF0045
:100C1000F7B516460C46104600F06EF82078611CB9
:100C200061280AD0722802D0772839D102E0012544
:100C3000002404E00225042401E02D4D08240222B2
:100C4000032301270878491C2B2806D0622807D0E7
:100C50002039C87F742807D008E01D431443F1E70A
:100C6000042005433C43EDE710200443009821464F
:100C700001F060FA411C13D0002131617160012143
:100C8000F5604902F1617061200704D53046022207
:100C9000002100F0E5F8306D384330653046FEBD88
:100CA0000020FEBDF8B50D460646124C206DC1076A
:100CB00004D0410804D044086400F7E7224610E05D
:100CC000542000F09BF8070010D07908206D4900EF
:100CD000012211430843542120653846FFF703FCE5
:100CE0003A4629463046FFF793FFF8BD0020F8BD8D
:100CF0000280000058010020FEB5044646690069E4
:100D00000F4F0190E56800200090A80707D020460B
:100D100000F050F9304601F0E9F9002801DA3846D0
:100D2000FEBD280502D50198FFF72DFE4C21204677
:100D3000FFF7D9FB206D4008400020650098FEBDFC
:100D4000FFFFFFFF10B50446C046C0462046FFF730
:100D500012FA10BD10B500F07BF900F073F910BD68
:100D60000048704754020020004870475C02002091
:100D7000704770477047704738B504460A460020F0
:100D80006946C046C046002805D002462046009964
:100D900000F085F9012038BD10B5012000F0D4F92C
:100DA00010BDF8B5C046C046054600200C461020D0
:100DB000C0460646A819A0420DD932466946002011
:100DC000C046C046070001D100F0BEF90098A0421D
:100DD00000D00546C419FFF7C7FFF61D074605609A
:100DE000F008C0004619284600F052F9B44204D079
:100DF00031463868A21B00F052F9F8BD70B50646BE
:100E0000FFF7B2FF056830460B30C408E400B44277
:100E100001D8002070BD68682A46002818D00168F3
:100E2000A14211D30B46214608318B4208D34368B7
:100E300001194B6003681B1B0B605160046001E0EB
:100E400041685160001D70BD024640680028E6D12F
:100E500021462846FFF790FF0028DCD170BD000036
:100E6000F8B5044616460D464769007B800730D02A
:100E7000384601F051F900282BD132461026002ABD
:100E800025D0012A02D0022A23D104E0204600F016
:100E900020F945191BE0384601F036F9E168314385
:100EA0000028E16004DA204600F054F80120F8BD83
:100EB000C9030BD56268E16A914200D81146A26964
:100EC00089182269891A814200DD08462D18002DF3
:100ED00001DA0220F8BDE16A6068E268814206D268
:100EE0009103E06203D5012149048A433243A66994
:100EF000AE4211DCE16A814201D90B4600E00346B3
:100F00009F192369FF1AAF4206DD814201D90F46BE
:100F100000E007469F4206D1202002430020A06047
:100F2000A56220600DE0AD1BE669AE1B8142A660A4
:100F300000D90846C01A281A20605819606020207D
:100F40008243034802400020E26040342072F8BD32
:100F5000BFCFD7FFC1688022114392039143C16084
:100F60000021816001607047F7B514460E46334892
:100F7000D5685769054209D03846A16901F00EF9D4
:100F8000002811DB2D48C0430540E5602B46324662
:100F90003846009901F006F94200A1695208B21AD8
:100FA00089180028A16104D02046FFF7D3FF002054
:100FB000C043FEBD70B504460569C06A61688842D9
:100FC00000D80846E1680522D2049143E160C903D4
:100FD00014D5A84209D02246411B2846FFF7C4FF7A
:100FE000002802D00020C04370BDE562002065608B
:100FF000A060E068012109048843E060002070BD22
:1010000010B50446C06820218843E060A16AA06949
:1010100088420ED02046FFF7CDFFE0680321090388
:10102000884310210843E060A06AA0612069E06263
:1010300060600349E0680840E06010BD10000200F5
:10104000BFBFFFFF10B5002801D000F01BF810BD96
:1010500010B5014602A000F05DF8012010BD0000AF
:1010600053494752545245443A2052656469726567
:1010700063743A2063616E2774206F70656E3A2046
:101080000000000001491820ABBEFEE72600020068
:10109000002101604160806070471020704710B5EA
:1010A0000346406801E003464068002801D08842BA
:1010B000F9D31868C3188B4206D0CB1CD808C000DF
:1010C000001D411A521A0146081D0A60FFF75BFC19
:1010D00010BD10B50146C268900703D0900607D531
:1010E000886A0AE000F03EF801210160881E10BD08
:1010F0008B694868C0180B69C01A40310B7A002B05
:1011000002D0497A401A10BD1103FCD50028FADD3F
:10111000401E10BD70B505460C460A2000E06D1C4F
:1011200000F018F8002D06D028780028F7D102E04A
:10113000641C00F00FF8002C02D020780028F7D1B2
:101140000A2000F007F870BD10B500F00FF8FFF7A7
:1011500079FF10BD08B5694608700320ABBE08BD15
:1011600070470000004870475402002010B5012865
:1011700005D0002103A0FFF7CDFF012010BD09A17C
:10118000F8E7000053494752544D454D3A204F75FA
:1011900074206F662068656170206D656D6F72796F
:1011A000000000003A2048656170206D656D6F7227
:1011B0007920636F727275707465640010B50248AF
:1011C00000F026FA10BD00003000002010B50248E3
:1011D00000F08BFA10BD00008C00002072B6FEE714
:1011E0000849097800290AD08103064A490EB03A15
:1011F000515C4005400FC140C807C00F7047002038
:101200007047000080070020F8B50C4E35461835B1
:10121000B76900F0B9F90446EFF3108272B6296895
:101220002860002A00D162B6B942F1D18C4203D2C3
:101230000248103000F0E4FF2046F8BD800700208F
:10124000FEB514460E00054601D0802C01D90020C1
:10125000FEBDFFF7C5FF00280AD0FFF7D5FF0090BD
:10126000A8B2EFF30581002904D00125ED0402E0C6
:101270000120FEBD00250543002C0FD0082C12D8FC
:101280000020019002902246314601A8FFF7CCF8D9
:101290006007400B2843032109063EE000231A465D
:1012A000284600993CE000F081F94007470B0822EE
:1012B000314601A8FFF7B8F828460121384309064E
:1012C000084369460EC9083C083600F02FF800288C
:1012D000CFD015483D4605430EE00822314601A80F
:1012E000FFF7A2F86F460ECF2846083C083600F0FC
:1012F0001DF86D1C0028BCD0082CEED800200190F1
:1013000002902246314601A8FFF78EF8FF20000226
:101310008543200228430121490608436F460ECF2A
:1013200000F004F8FEBD000001FF0000FFB581B031
:1013300002980724C008000F000700900398800857
:10134000460F049876074008850FAD072B4800F03C
:1013500057FF81068A0D2A49800952180007019912
:10136000000A0143009801433143032029438006CA
:101370000143EFF3108372B6D068470104D4C00F65
:10138000C0070843D06000E00020002B00D162B607
:1013900041012BD5012189064840029B4901484063
:1013A0005B0001405B080B431360039B5B005B0821
:1013B0000B435360049B5B005B080B43EFF310810E
:1013C000936072B6D3685B0103D5D060002903D067
:1013D00003E0002908D00BE062B60848001D00F0C9
:1013E0000FFF012005B0F0BD62B601E0641EADD173
:1013F0000248083000F004FF0020F3E784070020D3
:10140000D0020020F0B58C468646FF2901D2FF2A83
:1014100001D30020F0BD00252C460121A1407346D8
:1014200019420FD063460BE0D8084019084E5907FF
:10143000365C490F01278F403E43054F5B1C3E54ED
:101440009342F1D9641C2035042CE6D30120F0BD71
:10145000D0060020F3B53A4C81B000252046257017
:101460008021B038FFF73FF8364B3748374E182207
:1014700019780902484008215B1C070403D5400481
:10148000000C704001E04004000C491EF5D1521ED2
:10149000EED12F4A236A0121934201D0226202E059
:1014A0006288824202D06080E16134E0E069401CE1
:1014B000E06101282FD00020264B0326B60601014B
:1014C000C918CA68570101D5B243CA60401C4028F8
:1014D000F5D3E069012827D00126FE2200210198DA
:1014E000FFF790FFEF2211460F20FFF78BFFFE2240
:1014F00011460420FFF786FFFFF786FE0146002312
:101500001548E269FFF712FF0298002801D000F0A9
:1015100025F83046FEBD65706560A5600121890231
:101520000C48E560FEF7DFFF00F038F8061E01D03A
:1015300000F032F8A56125616061002ECDD1E8E7A9
:1015400080070020A8220008FFFF000021100000F3
:101550006B27A5E1D002002000FF000310B508486A
:101560000178002901D0012010BD01210170FFF791
:101570004BFE014600231A460248FFF7D7FEF2E76A
:101580008007002001FF000302490868421C0A602E
:1015900070470000C0020020002070470249002070
:1015A0000860012070470000C00200200549EFF3E9
:1015B000108272B64878431C4B70002A00D162B684
:1015C000704700008007002010B5044600F01BF8AB
:1015D000204600F01AF8054AE1210901106048434D
:1015E000010B03A05160FEF7A5FE10BD0000002016
:1015F000566F6C746167655F76616C75653A2564DA
:101600000D0A00007047406D70470068006C70471D
:1016100070B5044600680168490702D5416849076A
:1016200005D40168090734D54168090731D5616DD2
:10163000C90604D4616D0122520211436165C1687B
:101640000C250905890F00291BD12021095D0029DE
:1016500017D10168090714D581684A070121002ABA
:1016600008DB4268AA434260606D0A029043084367
:10167000606506E0606D202210436065A06D084340
:10168000A0652046FFF7A0FFA069012801D02068CF
:1016900005602068016809060DD5406800060AD576
:1016A000606D0121090408436065204600F01CF8C4
:1016B00021688020086020680168C90613D5416848
:1016C000C90610D5216B1025002902D0C168C907B1
:1016D00007D0A16D02221143A16505602046FFF7E6
:1016E00091FF2068056070BD7047F0B4016C0D6813
:1016F00001680C68466C1C2304221E401746B74044
:101700002F420ED067070CD50C68A40602D40C68D3
:1017100094430C60416C19408A40016C4A60016B33
:101720001AE00227B74002462F402032002F17D080
:10173000A70715D50C68A40605D40C680A25AC4388
:101740000C6001215171446C02211C40036CA140CA
:10175000596000211171C16A002918D0F0BC0847F6
:101760000827B7402F4212D0240710D50C680E2549
:10177000AC430C60446C01211C400B46A340046C3C
:101780006360C163517100211171416BE4E7F0BCEA
:1017900070470000F8B5002303240125C2E032465B
:1017A0002E469E40B446324079D00E79B607B60F29
:1017B000012E01D0022E17D186682746B6465E005C
:1017C000B74000967646BE43B646CF68009EB74007
:1017D00076463743876046686746BE430F79FF0603
:1017E000FF0F9F40374347600E79F643B6070ED090
:1017F000C6682746B4465E00B646B7406646BE4356
:10180000B4468F687646B74066463743C7600E7960
:10181000B607B60F022E14D1DE08B60036180096B1
:10182000366A5F07B446FE0E0F27B646B7406646D7
:10183000BE43B4460F697646B74066463743009EBE
:10184000376206682746B4465E00B646B74066462D
:10185000BE430F79B446BF07BF0F7646B740664612
:10186000374307604E68B603B60F5AD0304F7E6BD1
:101870002E437E639F082F4EBF00BE190096B668A8
:101880000F27B4469E07360FB646B7406646BE439E
:1018900005273F07B446B84202D100271AE040E0CE
:1018A000254FB84201D1012714E0244FB84201D19D
:1018B00002270FE0224FB84201D103270AE0214F4F
:1018C000B84201D1042705E01F4FB84201D10527D6
:1018D00000E006277646B74066463743009EB7606D
:1018E0001A4E36684F689643FF0300D51643174FCC
:1018F0003E607E684F689643BF0300D51643134F82
:101900007E60BE684F689643FF0200D516430F4FB6
:10191000BE60FE684F689643BF0200D516430B4A6F
:10192000D6605B1C0A681646DA4000D037E7F8BD7F
:101930000010024000000140000400500008005068
:10194000000C005000100050001C0050000401402A
:10195000002A01D081617047816270470148806828
:10196000704700000800002002488168027889184A
:10197000816070470800002010B508480024016805
:10198000402211430160204600F00AF8002801D0EF
:10199000012401E000F026F8204610BD002002409E
:1019A00070B504460D4D7D202978C000FEF7E2FD9C
:1019B00001460B480068FEF7DDFD00F07FF80028C7
:1019C00009D1042C07D200222146401E00F016F84F
:1019D00000206C6070BD012070BD00000800002078
:1019E000140000200448416B012211434163816BC4
:1019F00002041143816370470010024010B500F0EB
:101A000053FB10BD044805490068C968044A4905EC
:101A1000490F515CC840704714000020001002407C
:101A20009D220008044805490068C968044A8904E1
:101A3000490F515CC840704714000020001002405C
:101A40009D22000870B51A4AD3681A490C20184024
:101A50008D0004280CD04E00082810D00C2810D07F
:101A600050680004410F0120C003491C884070BD2C
:101A70001068C00601D5084670BD284670BD3046C6
:101A800070BD98020C4C000F205C1B029C0FD368A9
:101A9000641CDB0301D5314603E01268D20600D492
:101AA000294600F0DBFA22460023FEF7C1FB70BD99
:101AB0000010024000093D0094220008094910B5B9
:101AC000401E884201D9012010BD074C60610321EE
:101AD000081F00F0E9FA0020A06107202061002023
:101AE00010BD0000FFFFFF0000E000E010B50400A3
:101AF00003D0A06F002802D007E0012010BD002114
:101B000074200155204600F027F82420A0672068A3
:101B10000168490849000160204600F047F90128A2
:101B2000ECD0606A002802D0204600F0A7F82068B8
:101B300041680922D20291434160206881682A22CB
:101B400091438160206801680122114301602046B1
:101B500000F0FAF810BD000010B586B0044614215C
:101B60006846FEF7C0FC1149206888421BD1104826
:101B7000816B0122520411438163C16A0122114326
:101B8000C162C06A6946104005900C200090022096
:101B9000019000200290032003900420049005206F
:101BA0000007FFF7F7FD06B010BD0000004400403D
:101BB00000100240FEE7000070B586B014216846B0
:101BC000FEF791FC1948C26A04210A43C262C26A44
:101BD0000A400592C26A80210A43C262C26A0A4070
:101BE0000592C16A01252943C162C06A05262840C1
:101BF00036070590002220213046FFF7A9FE680332
:101C000000902120000400240190694602940848B5
:101C1000FFF7C0FD202000900294694601950394CF
:101C20003046FFF7B7FD06B070BD0000001002405F
:101C30000008005010B50C480A490160E121490232
:101C4000416000218160C16001618161C1610C223C
:101C5000016242614162FFF749FF002801D0FFF7AE
:101C6000BDFA10BD00440040D4000020FEE77047DC
:101C7000704710B5FFF778FE10BD704710B5818C26
:101C8000C90707D001684A6801235B049A43836A45
:101C90001A434A60818C890707D501684A68012385
:101CA0001B049A43C36A1A434A60818C490707D5CB
:101CB00001684A6801239B049A43036B1A434A60F4
:101CC000818C090707D501684A680123DB039A4321
:101CD000436B1A434A60818CC90607D50268916834
:101CE00001231B039943836B19439160818C8906FF
:101CF00007D501688A6801235B039A43C36B1A43C3
:101D00008A60818C490612D503685A680121090549
:101D1000046C8A4322435A60026C8A4207D10268EB
:101D2000516803235B059943436C19435160818CCF
:101D3000090607D501684A680123DB04806C9A43D1
:101D400002434A6010BD0000F8B50446002680300A
:101D50000660FFF703FE054620680068124F000783
:101D600009D501212B46002249052046009700F0A5
:101D70000BF900280DD12068006840070BD5012120
:101D80002B46002289052046009700F0FDF8002828
:101D900001D00320F8BD2020A067E06726666034EC
:101DA00026750020F8BD0000FFFFFF01F8B50446CE
:101DB000016880682369E669184363690025334335
:101DC00018436A4A0B686A4E334003430B6020682D
:101DD000416803231B039943E36819434160216869
:101DE000A069914201D0236A18438B680B26360202
:101DF000B34303438B605F4923685F488B420AD13A
:101E0000C0680C21084027D0042829D0082825D0F4
:101E10000C2811D10EE093420ED1C168032080023C
:101E2000014019D001208002091A19D0091A15D0D1
:101E3000814201D1082700E010274F494F4840391F
:101E40008600934232D1002F0CD0022F0DD0042FE8
:101E500010D0082F7FD126E00027EEE70227ECE71D
:101E60000427EAE7FFF7CEFD06E00968C90605D4B6
:101E7000304603E0FFF7E6FD002872D062685100AB
:101E80005118814267D81103814264D3010E0602C2
:101E90005008002330185941FEF7CAF903210902FE
:101EA000411A374A55E00120C003E7E70122E36900
:101EB000D20393422BD13B0000F0E8F80906090C4D
:101EC0004D114D4D4D274D00FFF79CFD09E0FFF7EB
:101ED000A9FD06E00968C90605D4304603E0FFF70E
:101EE000B1FD00283DD0616840004A088018FEF727
:101EF00041FB80B20146234A103991422BD8511C34
:101F000001400007400F084329E01046EBE73B0083
:101F100000F0BCF80906090C21122121212321001F
:101F2000FFF770FD0AE0FFF77DFD07E00968C906CD
:101F300006D4304604E00EE0FFF784FD002810D000
:101F400061684A081018FEF715FB80B201460D4A79
:101F50001039914203D9012503E01046F0E72168CA
:101F6000C86000206066A0662846F8BD00480040B2
:101F7000F369FFEF004400404010024000093D00BB
:101F8000FFFC0F00EFFF0000FFB581B005461746CC
:101F9000044660350A9E55E0701C53D0FFF7DEFC06
:101FA0000499401AB04230D8002E2ED02068016823
:101FB000490747D5C069C043000543D401202168C3
:101FC000C0020862EFF31080012181F310882168BC
:101FD0000B68FF22A13293430B6080F31088EFF36C
:101FE0001080012181F3108821688A68520852000C
:101FF0008A6080F310882020A067E067803420602A
:1020000000202875032005B0F0BDEFF310800121FA
:1020100081F3108821680B68FF22A13293430B6083
:1020200080F31088EFF31080012181F3108821687C
:102030008A68520852008A6080F310882020A067C6
:10204000E067DDE72068C1690298884304D000207A
:10205000B842A1D00020D6E70120F9E7F8B5040C7A
:102060008BB2264682B25E430D0C1046370C5843A5
:10207000360480190021794116466E43370C360428
:102080008019794126466E438919F8BD30B47446EB
:10209000641E2578641CAB4200D21D46635D5B0064
:1020A000E31830BC184700008307FF22DB0E9A407C
:1020B0008907090E9940002808DB830809489B001E
:1020C0001B18186890430843186070470007000FFA
:1020D0000838830804489B001B18D86990430843BC
:1020E000D861704700E400E000ED00E005494018C9
:1020F00004D0012803D0022801D008147047002022
:1021000070470000FF7FFFFF0249401800D0002009
:1021100070470000FF7FFFFF0549401805D00128E8
:1021200002D0022801D00020704701207047000033
:10213000FF7FFFFF70B5114D040014D020783A28BE
:1021400011D10FA12046FEF7D1F900280DD00EA124
:102150002046FEF7CBF9002809D00DA12046FEF756
:10216000C5F9002806D0284670BD0B4870BD0A4846
:10217000401C70BD0848801C70BD0000FFFFFFFFC1
:102180003A535444494E00003A5354444F55540076
:102190003A53544445525200018000000020C0438D
:1021A00070470000F8B50E46114914464118114811
:1021B0001DD0012902D0022919D117E0002C15D019
:1021C0000D4F3D1F30782A68761C082A0CD2B8546F
:1021D000521C2A60082A01D00A2805D1064907485E
:1021E000FFF72EF800202860641EEBD10020F8BD18
:1021F000FF7FFFFFFFFFFFFF1C00002000FE02002B
:10220000EFF3108172B60268531C0360002900D1FD
:1022100062B61046704710B58A68002A02DCFEF7E5
:10222000D9FB10BD521E8A604A68C0B2531C4B6075
:10223000107010BD86B0142208496846FDF7A2FF51
:10224000FFF79AFBFFF7B8FCFFF7F4FC0121002031
:10225000FFF700F902A0FEF76DF8FEE77022000814
:1022600072756E6E696E67206F6B0D0A000000005C
:1022700070726F6772616D2072756E6E696E670D38
:102280000A0000000000000000000000010203043A
:1022900006070809030406080C1018203000000087
:1022A00000010203040000000100010140000000E1
:1022B000D0020020D006002080070020000000008F
:1022C0003A535444494E003A5354444F5554003AFB
:1022D0005354444552520000F822000800000020E8
:1022E000300000000401000828230008300000200E
:1022F000780D000020010008000000000000000030
:1023000001000000040000000000000000002000A8
:1023100000000000000000000000000000000000BD
:082320000000000000000000B5
:04000005080000C12E
:00000001FF
