:020000040800F2
:1000000000050020450100082319000851130008CD
:100010002119000853020008E11B0008000000003D
:100020000000000000000000000000002719000888
:1000300061020008000000002519000829190008C5
:100040005F0100085F0100085F0100085F01000810
:100050005F0100085F0100085F0100085F01000800
:100060005F0100085F0100085F0100085F010008F0
:100070005F0100085F0100085F01000855020008E9
:100080005F0100085F0100085F0100085F010008D0
:100090005F0100085F0100085F0100085F010008C0
:1000A0005F0100085F0100085F0100085F010008B0
:1000B0005F0100085F0100085F0100085F010008A0
:1000C0005F0100085F0100085F0100085F01000890
:1000D0005F010008B51B00085F0100085F01000810
:1000E0005F0100085F0100085F0100085F01000870
:1000F0005F0100085F0100085F0100085F01000860
:100100005F0100085F0100085F0100085F0100084F
:100110005F0100085F0100085F0100085F0100083F
:100120005F0100085F0100085F0100085F0100082F
:10013000DFF80CD000F06CF800480047491F0008B9
:10014000000500200648804706480047FEE7FEE716
:10015000FEE7FEE7FEE7FEE7FEE7FEE7FEE7FEE777
:100160007D19000831010008202A04DB203A21FA19
:1001700002F00021704721FA02F3D040C2F12002C0
:100180009140084319467047D2B201E000F8012BB4
:10019000491EFBD270470022F6E710B513460A4607
:1001A00004461946FFF7F0FF204610BD2DE9F05F29
:1001B0000546002092469B468846064681464024D6
:1001C0001BE02846414647462246FFF7CDFF5346EF
:1001D0005A46C01A914110D311461846224600F0E3
:1001E00029F82D1A67EB01084F462246012000210D
:1001F00000F020F817EB00094E41201EA4F1010485
:10020000DFDC484631462A464346BDE8F09F000001
:10021000064C074D06E0E06840F0010394E8070053
:1002200098471034AC42F6D3FFF786FFE837000852
:1002300008380008202A04DB203A00FA02F10020E6
:1002400070479140C2F1200320FA03F31943904014
:100250007047FEE7014800F035B90000B800002003
:100260007047704730B5B3F5804F05D06FF07041DF
:1002700040F82210002030BD8C690B688D68234344
:100280004C688989240144EA0524234343EA014157
:1002900050F82230014C23401943E9E70000F0CF29
:1002A00010B50A6850F8223023F0010340F82230DC
:1002B0008C68082C23D000234A682243CC681C4356
:1002C0000B6922431A434B691A438B691A43CB6962
:1002D0001A430B6A1A434B6A1A438B6A1A43CB6A56
:1002E0001A430B6B1A434B6B09681A4350F82130C1
:1002F000044C23401A4340F82120002010BD402325
:10030000DAE700008000F0FF30B5D1E9003443EABD
:1003100004138C688D89240244EA054423430C8A23
:10032000094D00EB820005EB045423430C7D6D0165
:1003300005EB0464896923430B43416801F04041A4
:100340000B434360002030BD0000F0FF10B590F873
:1003500021100022022905D00421816380F8202089
:10036000012010BD01680B6823F00E030B600168CB
:100370000B6823F001030B6090F84030C46B01213F
:1003800001FA03F3636080F8211080F82020104602
:1003900010BD00002DE9F05F90F821100024022923
:1003A00003D004218163012485E001680A6822F0FA
:1003B0000E020A6001680A6822F001020A603F4EDC
:1003C0003E4FB215DFF8F4C0DFF8F090DFF8ECA094
:1003D000DFF8E8B0DFF8E4E00168783F13011502C8
:1003E000ACF1640CA9F15009AAF13C0AABF1280B5D
:1003F000AEF1140E4FF48018B14227D9B9420ED095
:10040000614512D049451DD0514518D0594518D0E5
:10041000714501D1424615E0294EB14201D1012278
:1004200010E0274E1436B14201D110220AE0244ECA
:100430002836B14206D0224A3C32914201D11A46B6
:1004400000E02A461E49091F0A602BE0B94213D07A
:10045000614517D0494522D051451DD059451DD081
:10046000714501D142461AE0B14202D14FF080728B
:1004700015E0134EB14201D1012210E0104E1436A6
:10048000B14201D110220AE00D4E2836B14206D009
:100490000B4A3C32914201D11A4600E02A460749F4
:1004A00080394A60012180F82110002180F8201055
:1004B000416B01B188472046BDE8F09F80000240B3
:1004C000080402402DE9F05FC16B0A6801680B68FF
:1004D000046C4FF0040808FA04F8844D844E854FEC
:1004E000DFF814C2DFF81492DFF814A2DFF814B2B8
:1004F000DFF814E218EA020F65D05FEA437862D5AC
:100500000A68920603D40A6822F004020A60DFF83F
:10051000F0814FF48062016808F11408130114029D
:10052000414524D9A9420DD0B1420FD0B9421AD0C9
:10053000614515D0494515D0514501D1120312E04E
:10054000594501D104220EE0714501D140220AE053
:100550006D4D1435A94206D06B4A2832914201D123
:100560001A4600E022466749091F0A6029E0A942AD
:1005700013D0B14215D0B94220D061451BD04945B6
:100580001BD0514502D14FF4800217E0414502D102
:100590004FF0806212E0594501D104220EE071450E
:1005A00001D140220AE0584D1435A94206D0564ADE
:1005B0002832914201D11A4600E022464B490839BF
:1005C0004A60C16A71E04FF0020808FA04F818EABC
:1005D000020F70D05FEA83786DD50A68920606D460
:1005E0000A6822F00A020A60012180F82110DFF86F
:1005F00010814FF40072016808F11408130114020D
:10060000414524D9A9420DD0B1420FD0B9421AD0E8
:10061000614515D0494515D0514501D1120312E06D
:10062000594501D102220EE0714501D120220AE094
:10063000354D1435A94206D0334A2832914201D1B2
:100640001A4600E022462F49091F0A6029E0A94204
:1006500013D0B14215D0B94220D061451BD04945D5
:100660001BD0514502D14FF4001217E0414502D191
:100670004FF0007212E0594501D102220EE071459F
:1006800001D120220AE0204D1435A94206D01E4A8D
:100690002832914201D11A4600E022461349083916
:1006A0004A60002180F82010816A00291CD0BDE832
:1006B000F05F0847FFE70825A540154214D01A0748
:1006C00012D50A6822F00E020A6090F84020C36B2F
:1006D000012101FA02F25A60816380F821100021A1
:1006E00080F82010016BE0E7BDE8F09F08000240B1
:1006F0001C0002403000024044000240580002400A
:100700006C000240080402401C04024030B560B195
:100710001A4B026814219A4209D2194B1344B3FBB5
:10072000F1F18900016417490AE0012030BD134B43
:100730005B421344B3FBF1F1890001640F490839AE
:10074000C163022180F82110136843F6F0718B43D6
:10075000F0E901142143D0E902452C432143046907
:1007600021434469214384692143194311600021D5
:100770004163012242770177084630BD08040240F8
:10078000F8FFFDBF0000024030B585B000200090AA
:1007900001900290039017480168002927D1012198
:1007A00001601548416941F480714161406902244A
:1007B00000F48070049041F20100CDE900040325AB
:1007C000694603950D4800F01FF84FF68070CDE99B
:1007D0000004694603950A4800F016F84CF233709D
:1007E000CDE9000469460395064800F00DF805B010
:1007F00030BD000004000020001002400020014035
:1008000000180140001401402DE9F84FDFF8C891AD
:10081000002409F1040A0AF1040B23460F270BF107
:10082000040ED1E00125A54006EA0502AA4276D1D0
:10083000DFF8A8C14E68A6EB0C0866452BD00DDC8E
:10084000032E34D005DC36B3012E19D0022E2FD161
:100850001BE0112E16D0122E2AD119E0B8F5881FF0
:1008600019D006DCB8F5803F15D0B8F5801F1FD130
:1008700011E0B8F5001F0ED0B8F5041F18D10AE03A
:10088000CB6815E0CB681B1D12E0CB6808330FE086
:10089000CB680C330CE08B682BB1012B4FF00803B5
:1008A00003D0456104E0042302E0056100E0002379
:1008B000FF2A01D8064601E000F104064FEA84054C
:1008C00001D9A5F12005D6F8008007FA05FC28EA31
:1008D0000C0803FA05F548EA0508C6F800804D68DB
:1008E000ED0070D53E4DAE6946F00106AE61AD69D2
:1008F00024F0030605F0010500953A4D06EB050CC2
:10090000DCF80850A607360F07FA06F825EA0805AE
:10091000DFF8D480404503D14FF0000825E052E0D5
:10092000DFF8C880404502D14FF001081DE0DFF834
:10093000C080404502D14FF0020816E0DFF8B480D5
:10094000404502D14FF003080FE0DFF8AC8040458E
:1009500002D14FF0040808E0DFF8A080404502D142
:100960004FF0050801E04FF0060808FA06F848EADB
:100970000508CCF808804D68D9F80060ED034D46B5
:1009800001D5164300E096432E604D68DAF800600A
:10099000AD03554601D5164300E096432E604D68E1
:1009A000DBF80060ED025D4601D5164300E096439A
:1009B0002E604D68DEF80060AD02754601D5164325
:1009C00000E096432E60641C0A681646E2407FF4FD
:1009D00029AFBDE8F88F00000004014000001110AD
:1009E000001002400000014000080140000C0140DE
:1009F000001001400014014000180140001C01409B
:100A00000AB1016170470904FBE7000001488068F2
:100A100070470000100000200248816802781144ED
:100A20008160704710000020074810B5016841F050
:100A300010010160032000F077F8002000F006F8B4
:100A400000F024F8002010BD0020024070B50D4DCC
:100A500004464FF47A712878B1FBF0F00A4909682E
:100A6000B1FBF0F000F01EFB48B9102C07D20022B9
:100A70002146501E00F038F800206C6070BD012047
:100A800070BD0000100000201C0000200D4808B5BB
:100A9000816941F001018161816901F001010091E9
:100AA000C16941F08051C161C06900F0805000907F
:100AB000052000F039F80448416821F0E061416008
:100AC00008BD00000010024000000140002809DBC2
:100AD00000F01F02012191404009800000F1E02058
:100AE000C0F8001170470000F0B40E4B1B680C46B4
:100AF000C3F30223C3F10705042D00D90425191DF2
:100B0000072901D2002300E0DB1E012606FA05F1C9
:100B1000491E214099409E40761E16403143F0BC4C
:100B200001F070B80CED00E0064900F0070208681B
:100B30004FF6FF03184040EA0220034A10430860C2
:100B4000704700000CED00E00000FA052DE9F047C9
:100B50000F46050061D0434E306800F00700B842F0
:100B600009D2306820F0070038433060306800F068
:100B70000700B84251D128683B4C810712D5400785
:100B800003D5606840F4E06060602878000703D512
:100B9000606840F4605060606068A96820F0F00010
:100BA000084360602878C00728D06868012810D002
:100BB0002168022810D0890700292EDA616821F007
:100BC000030101436160FFF721FF804641F288394C
:100BD0000DE021688903EFE78901EDE7FFF716FFD4
:100BE000A0EB0801494502D90320BDE8F087606801
:100BF000696800F00C00B0EB810FEFD1306800F0B5
:100C00000700B8420BD9306820F007003843306045
:100C1000306800F00700B84201D00120E5E72878ED
:100C2000400705D56068E96820F4E060084360602B
:100C30002878000706D56068296920F4605040EAEA
:100C4000C100606000F038F86168084AC1F3031120
:100C5000515CC8400649086006480068FFF7F6FE88
:100C60000020C2E70020024000100240D0370008F8
:100C70001C00002014000020044805490068496851
:100C8000044AC1F30221515CC84070471C00002097
:100C900000100240E0370008044805490068496830
:100CA000044AC1F3C221515CC84070471C000020B7
:100CB00000100240E037000812A185B00FC98DE88E
:100CC0000F0014A0144A006804905168134801F002
:100CD0000C03042B10D0082B0ED1C1F38343C9039E
:100CE0001DF803000AD5516804AAC1F34041515CC4
:100CF0000A4A5043B0FBF1F005B070470849484339
:100D0000FAE7000002030405060708090A0B0C0DA8
:100D10000E0F1010010200000010024000127A00B5
:100D200000093D002DE9F84F040070D02078C04D37
:100D3000C00749D06868C0F38100012807D06868FF
:100D4000C0F38100022809D16868C00306D528686D
:100D5000800339D560680028E7D035E06068B0F5D9
:100D6000803F0BD010B1B0F5A02F11D0286820F42F
:100D700080302860286820F4802002E0286840F451
:100D800080302860606890B1FFF740FE06460AE0B8
:100D9000286840F480202860F0E700BFFFF736FEA7
:100DA000801B642873D828688003F7D50CE0FFF710
:100DB0002DFE064605E000BFFFF728FE801B6428D5
:100DC000F0D828688003F7D420789A4E80074FF037
:100DD00001094FF0000839D5686810F00C0F07D0F2
:100DE0006868C0F38100022809D16868C00306D48E
:100DF0002868800714D52069012808D110E02069EF
:100E0000B0B1C6F80090FFF701FE074605E00AE121
:100E1000FFF7FCFDC01B0228C4D828688007F7D55F
:100E20002868616920F0F80040EAC10028600DE000
:100E3000C6F80080FFF7EAFD074604E0FFF7E6FD8D
:100E4000C01B022823D828688007F7D42078000721
:100E50002CD57948A169D9B1C0F80090FFF7D6FD2B
:100E6000074604E0FFF7D2FDC01B02280FD8686ACE
:100E70008007F7D571484FF4FA510068B0FBF1F0E4
:100E8000009000BF0098411E0091FAD20EE080E071
:100E9000C0F80080FFF7BAFD074604E0FFF7B6FD93
:100EA000C01B022875D8686A8007F7D420784007ED
:100EB00060D5E8690027C00008D4E86940F0805098
:100EC000E861E869012700F0805000905C48016803
:100ED000C90513D40168834641F480710160FFF7AE
:100EE00095FD824606E000BFFFF790FDA0EB0A00EB
:100EF00064284ED8DBF80000C005F5D5E06801286D
:100F00000AD008B1052813D0286A20F00100286211
:100F1000286A20F0040002E0286A40F001002862FC
:100F2000E06841F2883B98B1FFF770FD82460BE024
:100F3000286A40F004002862EEE700BFFFF766FD74
:100F4000A0EB0A0159455AD8286A8007F6D50CE06B
:100F5000FFF75CFD824605E0FFF758FDA0EB0A01B4
:100F600059454CD8286A8007F6D41FB1E86920F0AB
:100F70008050E861E06988B36968C1F381010229A2
:100F800044D00228C6F8608004D0FFF73FFD044635
:100F900038E034E0FFF73AFD074604E0FFF736FD9E
:100FA000C01B02282BD828688001F7D4206AB0F52E
:100FB000803F05D16868A16820F40030084368606C
:100FC000D4E908010843696821F474110843686092
:100FD000C6F86090FFF71AFD044606E025E000BF62
:100FE000FFF714FD001B022809D828688001F7D5F7
:100FF0001BE000BFFFF70AFD001B022802D90320F7
:10100000BDE8F88F28688001F4D40EE00128F7D0FD
:101010006868226A00F48031914204D1616A00F468
:101020007010884201D00120EAE70020E8E70000C4
:101030000010024000004242800442421C00002096
:101040000070004070B515460E46040003D094F8B9
:10105000410010B107E0012070BD002084F840007D
:10106000204600F01DF804F108012068FFF718F988
:101070003146A2682068FFF747F9D4E90102294602
:10108000236BFFF7EFF82168A06851F8202042F0A9
:10109000010241F82020012084F84100002070BDA9
:1010A000FFF772BB10B5401EB0F1807F01D3012065
:1010B00010BD4FF0E02460610F21601700F0A2FD29
:1010C0000020A06107202061002010BD10B504465B
:1010D0000068416994F83920C1F3C011212A0BD16D
:1010E00051B1416921F080014161206B08B1FFF7E6
:1010F0002DF9204600F07CFC2068416994F83A20E4
:10110000C1F38011222A0BD151B1416921F0400174
:101110004161606B08B1FFF719F9204600F05AFCF5
:10112000002010BD7047000070B5026804461068CA
:10113000D168536910F00F0F50D003F0010501F48E
:10114000907635435DD0C20705D0CA0503D5E26B62
:1011500042F00102E263420705D5DA0703D0E26BF1
:1011600042F00202E263820705D5DA0703D0E26BA0
:1011700042F00402E263020705D5DA0703D0E26B0E
:1011800042F00802E263E26B002A33D0800604D505
:10119000880602D5204600F034FC20684069E16BE7
:1011A000C0F38010090700D428B3204600F012FCD9
:1011B0002068416949061AD5416921F04001416121
:1011C000606BA0B11B494163606BFFF7E3F8002837
:1011D00010D0606B416BBDE870400847830610D5A6
:1011E0008B060ED52046BDE8704000F00ABC2046B4
:1011F000FFF798FF70BD2046FFF794FF0020E063E3
:1012000070BD030606D50B0604D52046BDE8704028
:1012100000F09EBC4006F3D54806F1D5D1682046C3
:1012200021F04001D160202184F8391000F08FF8BE
:1012300070BD0000C519000870B5040004D094F812
:101240003900002510B106E0012070BD84F8385047
:10125000204600F023F8242084F839002068C16873
:1012600021F40051C160204600F016FC206801699D
:1012700021F4904101612068416921F02A01416116
:101280002068C16841F40051C160E563202084F802
:10129000390084F83A00002070BD000070B586B0B7
:1012A00000250646009501950295039500682249A0
:1012B00088423ED12149886940F48040886188692C
:1012C00000F480400490886940F0040088618869D7
:1012D0001B4C00F00400049048150090022001907F
:1012E0000320039069462046FFF78EFA2015CDE9CA
:1012F0000005694620460295FFF786FA124C114810
:10130000C4E900058020C4E9025025616561A5613A
:101310002046E561FFF7FAF908B1FEF7A2FF746312
:101320000022022125206662FFF7DEFB2520FFF761
:10133000CDFB06B070BD0000003801400010024037
:101340000008014058000240B80000207047704774
:10135000FEE7000070B509490646002408884D885C
:1013600021464543204600F01FF900F0C1F904482A
:1013700001E00680641CAC42FBD370BD200000205D
:101380000008006C68B9084800218171F0210180D3
:101390004FF4A0714180222101812021418121212E
:1013A0008181002000F0F8B82000002030B5084B03
:1013B0000D4601461446588900F0A4F9988929463B
:1013C00000F0A0F9034918890880881C048030BD0A
:1013D00020000020FE07006C10B5002000F0D0F8BF
:1013E000614C0146A08061A000F0FCFBA088A0F544
:1013F000134120397ED1084600F084F94FF4807102
:10140000012000F07FF94FF4E061022000F07AF94A
:1014100041F23001032000F075F90021042000F0B2
:1014200071F940F20221082000F06CF90021092036
:1014300000F068F900210A2000F064F901210C2075
:1014400000F060F900210D2000F05CF900210F2070
:1014500000F058F9322000F055FD40F2011107204C
:1014600000F050F9322000F04DFD4FF4865110206D
:1014700000F048F90721112000F044F94FF4887377
:101480001946122000F03EF94FF43061132000F0AD
:1014900039F90021292000F035F944F210012B2000
:1014A00000F030F90021502000F02CF9EF215120FC
:1014B00000F028F90021522000F024F940F23F11F9
:1014C000532000F01FF94FF41C51602000F01AF96E
:1014D0000121612000F016F900216A2000F012F9C4
:1014E0000021802000F00EF90021812000F00AF98F
:1014F000002100E02BE0822000F004F9002183208D
:1015000000F000F90021842000F0FCF80021852083
:1015100000F0F8F81021902000F0F4F8002192205B
:1015200000F0F0F80121932000F0ECF81946952026
:1015300000F0E8F80021972000F0E4F8002198205E
:1015400000F0E0F840F27311072000F0DBF8002013
:10155000FFF718FF09490120C1F88001BDE81040DC
:101560004FF6FF70FFF7F6BE20000020204C4344EA
:101570002049443A25780D0A0000000000802142ED
:10158000044910B50880052000F0C8FC0148801C03
:10159000008810BDFE07006C002100B93021032037
:1015A00041F4805100F0AEB810B5064B0C46014630
:1015B000588900F0A7F898892146BDE8104000F04E
:1015C000A1B80000200000202DE9FF4F1D460C4669
:1015D0008A46580700D0012000EBD500690848432F
:1015E000203A00F0FF09D0B20026DFF89CB002904C
:1015F00045E00C2D12D0102D15D0182D41D1029898
:10160000224900EBC00000BF01EB80004FF0000852
:10161000875D38060CD51E4802880DE002981D49EA
:1016200000EB4000F0E71C49029801EB0010EDE7E9
:101630000D9828B91648428821460098FFF7B6FE53
:101640007806070E641CBBF80200A4B2A04218D9A9
:10165000A4EB0A00A84209D100985446401C80B26D
:101660000090BBF8001081420BD906E008F10100A0
:1016700000F0FF08B8F1080FCBD3761CF6B24E4548
:10168000B7D3BDE8FF8F000020000020742A0008B7
:101690000000002010200008842400082DE9F84FE5
:1016A000044600F0FF0A10190E461FFA80F9981937
:1016B0001D4600F0FF084FF0000B0A9F11E04C455B
:1016C00002D37019544686B246450FD22B46314696
:1016D0002046CDF800B0FFF777FF04EB550084B249
:1016E0007F1C3A78A2F120005E28E8D9BDE8F88F87
:1016F000024803490089088070470000200000204C
:10170000FE07006C024A1080901C018070470000A8
:10171000FE07006C2DE9F047FF27DFF86C80DFF84B
:101720006C900C46824600260025380614D5B8F881
:10173000002021465046FFF739FE0AF1010080B231
:10174000B8F800202146FFF731FE0AF1020080B20E
:10175000B8F80020214603E0B8F8022021465046A0
:10176000FFF724FE7806070E641CB9F80200A4B245
:10177000A04207D96D1CEDB2082DD6D3761C16F009
:10178000FF06D1D0BDE8F087000000202000002037
:10179000094808B5416941F00101416140690022F1
:1017A00000F00100009003210F20FFF79DF9BDE834
:1017B00008400F20FFF78AB90010024000B58FB033
:1017C0001C216846FEF7E7FC1C2107A8FEF7E3FC96
:1017D0001B494FF02040102208601A48486006203C
:1017E00088600020C860C1E904028861C8611202F3
:1017F0000862C1E909029200C1E90B0248638863EB
:101800000121CDE900100F21CDE902100490032140
:10181000CDE908010590069007900A900B900C9076
:101820000D9007AA69460648FFF70CFC08B1FEF7C1
:1018300018FD0548C16941F48061C1610FB000BD68
:1018400030000020040100A00000014030B585B048
:10185000002423480094019402940394816941F088
:1018600010018161816901F010010491816941F0E9
:1018700004018161816901F004010491816941F0F1
:1018800008018161816901F008010491816941F4D5
:1018900080718161816901F480710491816941F0F5
:1018A00040018161816901F040010491816941F049
:1018B0002001816180690B4D00F02000049000221E
:1018C00001212846FFF79CF8032001210390009195
:1018D000CDE9011469462846FEF796FF05B030BDF4
:1018E00000100240000C01400C4810B50A4901608C
:1018F0004FF4E1314160002181600C22C160C0E9F8
:1019000004128161C161FFF797FC002803D0BDE894
:101910001040FEF7A6BC10BD003801407800002042
:10192000FEE7704770477047FFF776B830B58FB065
:1019300028216846FEF72FFC14210AA8FEF72BFC8D
:1019400001210804CDE9001000240294022504912D
:10195000CDE907504FF4E01009906846FFF7E2F92F
:101960000F20CDE90A056802CDE90C4002210AA842
:101970000E94FFF7EBF80FB030BD00000D48016882
:1019800041F00101016041680B4A1140416001686A
:101990000A4A11400160016821F480210160416818
:1019A00021F4FE0141604FF41F0181600449C0032E
:1019B00008607047001002400000FFF8FFFFF6FECD
:1019C00008ED00E010B5406A0021C185C184FFF731
:1019D000A9FB10BD0168CA6822F49072CA60016850
:1019E0004A6922F001024A61202180F83A107047CA
:1019F0000168CA6822F0C002CA60202180F839104C
:101A0000704710B590F83A10222901D0022010BD7D
:101A10008168B1F5805F11D00169002901681FD08C
:101A2000496801F07F03816A4A1C82620B70C18D94
:101A3000491E0904090CC18518D02BE00269816A8E
:101A4000002A0268526805D0D2B20A80816A491C15
:101A50008162ECE7C2F308020A80816A891CF7E719
:101A60004A68816A4B1C83620A70E0E70168CA68B1
:101A700022F02002CA600168CA6822F48072CA603B
:101A800001684A6922F001024A61202180F83A1077
:101A9000FFF75CFC002010BD2DE9F0410446006812
:101AA0000169E26821F44051114301612169A06894
:101AB0000843616908432168CA6841F20C639A438C
:101AC0000243CA6020684169A26921F44071114350
:101AD00041611E49206864253226884202D1FFF701
:101AE000DBF801E0FFF7C8F800EBC00101EB0011E3
:101AF00060686FF018078000B1FBF0F2B2FBF5F2FE
:101B0000B1FBF0F37A4303EB8202B1FBF0F306EB97
:101B10000212B2FBF5F2B3FBF5F302F0F00202EBB6
:101B20000312B1FBF0F3B1FBF0F0B0FBF5F078433A
:101B300003EB800006EB0010B0FBF5F0216800F02D
:101B40000F0010448860BDE8F081000000380140BB
:101B500090F83910212901D0022070478168B1F531
:101B6000805F016A0BD04A1C0262026809785160EA
:101B7000C18C491E0904090CC1840ED017E00988E4
:101B80000268C1F30801516001690029016A02D0AD
:101B9000491C0162ECE7891CFBE70168CA6822F076
:101BA0008002CA600068C16841F04001C160002045
:101BB0007047000008B50948FFF7B6FA0748006803
:101BC0000168C943C90607D4016840680090BDE8B0
:101BD00008400248FFF77ABA08BD000078000020EC
:101BE000FEE700000FB4054B10B503A9044A0298A4
:101BF00000F028F810BC5DF814FB0000351F000849
:101C00000C0000200907090E002804DB00F1E02089
:101C100080F80014704700F00F0000F1E02080F819
:101C2000141D704702E008C8121F08C1002AFAD12B
:101C300070477047002001E001C1121F002AFBD14C
:101C4000704700002DE9FF4F8DB09B460F460446BC
:101C5000002606E025280BD05A460F999047641CB1
:101C6000761C20780028F5D111B03046BDE8F08F01
:101C70000025A8460122984900E0054314F8013FD9
:101C8000203B02FA03F00842F7D120782E2817D122
:101C900014F8010F45F004052A280ED06FF02F022A
:101CA0002078A0F1300109290AD808EB880102EB5D
:101CB000410100EB0108641CF2E757F8048B641C37
:101CC00020786C280DD004DC4C2812D06A2811D161
:101CD00004E074280DD07A280CD10AE045F40015F0
:101CE00007E0617845F48015814202D1641C05F556
:101CF0008015641C2278692A45D008DC002AB3D0FC
:101D0000582A69D0632A10D0642A08D13BE0702A8F
:101D100067D0732A13D0752A5CD0782A5CD010461D
:101D20005A460F999047761CD3E017F8040B8DF8AC
:101D3000000000208DF80100E946012003E057F87B
:101D4000049B4FF0FF3069074FF0000501D40AE013
:101D50006D1C45450DDA8542FADB19F8051000299E
:101D6000F6D106E06D1C8542FCDB19F80510002950
:101D7000F8D12E4404E019F8010B5A460F99904708
:101D80006D1EF8D2A5E00A200021CDE90801C5F3B7
:101D9000025002280DD001CFC117031E71F10003BC
:101DA0000DDA4FF0000CD0EB0C006CEB01012D2391
:101DB00008E0FF1D27F00707F7E80201EDE72B0514
:101DC00004D52B238DF8283001233BE0EB0739D0D5
:101DD0002023F7E70A2000E010200021CDE90801C8
:101DE00007E01020002145F00405CDE908014FF07F
:101DF0000808C5F3025002280FD001CF00214FF090
:101E0000000A2B071FD5702A0DD0DDE908C38CF01E
:101E1000100C5CEA030C0CD015E0FF1D27F007073F
:101E2000F7E80201EBE740228DF828204FF0010A85
:101E30000BE050EA010306D030238DF828308DF8EE
:101E4000292002239A46582A04D024A20DF1200901
:101E50000B9209E026A2F9E7DDE90823FEF7A6F9CF
:101E60000B9B9B5C09F8013D50EA0102F4D1ADEBFC
:101E7000090020300890680701D44FF00108089944
:101E8000884502DDA8EB010000E000208046002527
:101E900006E00AA85A46405D0F9990476D1C761CD3
:101EA0005545F6DB04E030205A460F999047761CE2
:101EB000B8F10001A8F10108F5DC05E019F8010B03
:101EC0005A460F999047761C0899481E0890002999
:101ED000F4DC641CC5E6000009280100303132330F
:101EE0003435363738396162636465660000000056
:101EF0003031323334353637383941424344454640
:101F00000000000070B50546FEF780FD4FEA0004B2
:101F1000FEF77CFD001BA842FAD370BD70B50546E4
:101F2000FEF774FD4FEA0004FEF770FD001BA842A7
:101F3000FAD370BD034909680A685206FCD5C2B2DB
:101F40004A6070477800002008B5FEF76DFDFFF786
:101F5000EDFCFFF77BFCFFF71BFCFFF72FFCFFF707
:101F6000C3FCFFF739FA1A4D4FF478444FF6FF7669
:101F70002C804FF47A773046FFF7ECF92C8015A0CF
:101F800000901823CC2228211E20FFF787FB16A0E3
:101F900000901023582246211E20FFF77FFB15A03A
:101FA00000901023C8225A211E20FFF777FB15A0AE
:101FB00000900C23C82282211E20FFF76FFBC8214E
:101FC0003220FFF7A7FB3846FFF79CFFD3E700005E
:101FD00000000020576172536869702053544D33DC
:101FE00032205E5F5E0000005446544C434420544F
:101FF0004553540041544F4D40414C49454E544582
:102000004B000000323031342F352F3400000000F7
:1020100000000000000000000000000000000000C0
:102020003F40000000000000000030004000300091
:102030004000000009000BC03D000BC03D0009003E
:1020400018C024407FE0224031800000180024C0E6
:102050001B000D803240018003801C4027401C8003
:102060000740004010006000000000000000000079
:102070000000000000001F802040402000004020A1
:1020800020401F8000000000090006001F8006009D
:1020900009000000040004003F8004000400000068
:1020A00000100060000000000000000004000400B8
:1020B00004000400040000000000004000000000D4
:1020C00000000000002001C00600380040000000B1
:1020D0001F802040204020401F8000000000104052
:1020E0003FC000400000000018C0214022402440B2
:1020F0001840000010802040244024401B80000035
:1021000002000D0011003FC0014000003C8024404F
:1021100024402440238000001F8024402440344079
:10212000038000003000200027C03800200000009D
:102130001B802440244024401B8000001C0022C03F
:10214000224022401F8000000000000008400000E4
:10215000000000000000000004600000000000001B
:10216000000004000A00110020804040090009001E
:102170000900090009000000000040402080110013
:102180000A0004001800200023402400180000006A
:102190001F802040274029401F400000004007C00A
:1021A00039000F0001C0004020403FC024402440BF
:1021B0001B8000001F802040204020403080000015
:1021C00020403FC0204020401F80000020403FC0F2
:1021D00024402E4030C0000020403FC024402E004C
:1021E000300000000F0010802040224033800200A9
:1021F00020403FC0040004003FC020402040204059
:102200003FC02040204000000060202020203FC030
:102210002000200020403FC024400B0030C0204060
:1022200020403FC020400040004000C03FC03C0074
:1022300003C03C003FC0000020403FC00C402300D2
:102240003FC020001F802040204020401F80000011
:1022500020403FC024402400180000001F8021407F
:10226000214020E01FA0000020403FC02440260065
:1022700019C0004018C02440244022403180000092
:10228000300020403FC020403000000020003F8050
:10229000004000403F80200020003E0001C00700B9
:1022A00038002000380007C03C0007C0380000009C
:1022B000204039C0060039C02040000020003840CE
:1022C00007C0384020000000304021C02640384080
:1022D00020C00000000000007FE0402040200000FF
:1022E000000070000C00038000400000000040204F
:1022F00040207FE00000000000002000400020009F
:10230000000000000010001000100010001000106D
:1023100000000000400000000000000000000280FB
:102320000540054003C0004020003FC00440044079
:1023300003800000000003800440044006400000C9
:1023400000000380044024403FC0004000000380A0
:102350000540054003400000000004401FC0244029
:1023600024402000000002E00550055006500420E3
:1023700020403FC00440040003C00040000004406F
:1023800027C000400000000000100010041027E0EB
:102390000000000020403FC00140070004C004408E
:1023A000204020403FC000400040000007C0040023
:1023B00007C0040003C00000044007C0044004003C
:1023C00003C000400000038004400440038000007C
:1023D000041007F004500440038000000000038054
:1023E0000440045007F00010044007C002400400FD
:1023F00004000000000006400540054004C0000045
:10240000000004001F80044000400000040007801A
:102410000040044007C000400400070004C00180E1
:1024200006000400060001C0070001C0060000000D
:10243000044006C0010006C004400000041007105C
:1024400004E00180060004000000044005C00640CE
:10245000044000000000000004007BE04020000079
:10246000000000000000FFF000000000000040201D
:102470007BE00400000000004000800040002000DD
:1024800020004000000000000000000000000000EC
:10249000000000000000000000001FCC000C000045
:1024A000000000000000080030006000080030005C
:1024B00060000000022003FC1E20022003FC1E20FE
:1024C0000220000000000E1811043FFF10840C7859
:1024D000000000000F0010840F3800C00778188437
:1024E0000078000000780F8410C411240E9800E4D6
:1024F0000084000808006800700000000000000070
:102500000000000000000000000007E01818200490
:1025100040020000000040022004181807E00000FC
:10252000000000000240024001800FF001800240E4
:10253000024000000080008000800FF800800080D2
:10254000008000000001000D000E000000000000EF
:1025500000000000000000800080008000800080FB
:10256000008000800000000C000C00000000000053
:102570000000000000000006001800600180060056
:1025800018002000000007F00808100410040808D4
:1025900007F000000000080408041FFC0004000409
:1025A0000000000000000E0C1014102410441184D0
:1025B0000E0C000000000C18100411041104128805
:1025C0000C700000000000E00320042408241FFC1D
:1025D0000024000000001F981084110411041088CA
:1025E00010700000000007F008881104110418881A
:1025F0000070000000001C00100010FC13001C0004
:102600001000000000000E381144108410841144A2
:102610000E38000000000700088C104410440888A1
:1026200007F00000000000000000030C030C000095
:102630000000000000000000000101060000000092
:102640000000000000000080014002200410080883
:10265000100400000220022002200220022002209A
:1026600002200000000010040808041002200140AD
:102670000080000000000E001200100C106C108092
:102680000F00000003E00C1813E4142417C40828FA
:1026900007D000000004003C03C41C40074000E4D5
:1026A000001C000410041FFC1104110411040E8806
:1026B0000070000003E00C1810041004100410084F
:1026C0001C10000010041FFC100410041004080863
:1026D00007F0000010041FFC1104110417C41004BB
:1026E0000818000010041FFC1104110017C010008E
:1026F0000800000003E00C181004100410441C78BB
:102700000040000010041FFC108400800080108432
:102710001FFC10040000100410041FFC100410041F
:102720000000000000030001100110011FFE100056
:102730001000000010041FFC110403801464181C16
:102740001004000010041FFC100400040004000426
:10275000000C000010041FFC1F0000FC1F001FFCE9
:102760001004000010041FFC0C04030000E010180B
:102770001FFC100007F008081004100410040808DB
:1027800007F0000010041FFC1084108010801080DF
:102790000F00000007F0081810241024101C080A6D
:1027A00007F2000010041FFC1104110011C01130C9
:1027B0000E0C000400000E1C110410841084104440
:1027C0001C3800001800100010041FFC100410003A
:1027D0001800000010001FF810040004000410048A
:1027E0001FF8100010001E0011E0001C0070138084
:1027F0001C0010001FC0103C00E01F0000E0103C57
:102800001FC000001004180C163401C001C016349B
:10281000180C100410001C00130400FC13041C000E
:10282000100000000804101C1064108413041C0421
:10283000101800000000000000007FFE400240026F
:1028400040020000000030000C0003800060001C0B
:102850000003000000004002400240027FFE000032
:102860000000000000000000200040004000400088
:102870002000000000010001000100010001000132
:1028800000010001000040004000200000000000A6
:1028900000000000000000980124014401440144AC
:1028A00000FC000410001FFC0088010401040088E3
:1028B00000700000000000700088010401040104A1
:1028C0000088000000000070008801040104110865
:1028D0001FFC0004000000F80144014401440144CD
:1028E00000C800000000010401040FFC11041104E1
:1028F00011001800000000D601290129012901C991
:102900000106000010041FFC008401000100010406
:1029100000FC000400000104190419FC0004000478
:10292000000000000000000300010101190119FE70
:102930000000000010041FFC0024004001B4010C42
:10294000010400000000100410041FFC0004000437
:1029500000000000010401FC0104010001FC01046D
:10296000010000FC010401FC0084010001000104DD
:1029700000FC0004000000F801040104010401044B
:1029800000F80000010101FF008501040104008836
:1029900000700000000000700088010401040105BF
:1029A00001FF00010104010401FC00840104010095
:1029B00001800000000000CC012401240124012436
:1029C0000198000000000100010007F80104010463
:1029D00000000000010001F80004000400040108E8
:1029E00001FC0004010001800170000C0010016076
:1029F0000180010001F0010C003001C00030010C29
:102A000001F0010000000104018C00740170018CD0
:102A100001040000010101810171000E0018016034
:102A20000180010000000184010C01340144018493
:102A3000010C0000000000000000000001003EFC4E
:102A4000400240020000000000000000FFFF000004
:102A5000000000000000400240023EFC01000000B7
:102A60000000000000006000800080004000400086
:102A70002000200000000000000000000000000016
:102A80000000000000000000000000000000000046
:102A90000000000000000000000000000000000036
:102AA000000000000000000F80380FFE380F803853
:102AB0000000000000000000000000000000000016
:102AC00000000100000600000C000038000031008A
:102AD000000600000C00003800003000000000007C
:102AE0000000000061800067F807F9800061800045
:102AF00061800061800061800067F807F9800061F3
:102B00008000000000000000000001C0E003E0F0D1
:102B10000630080418081FFFFE040E080787F0039C
:102B200081E000000000000001F000060C00040439
:102B300008060C7001F9C0000E00003BE000EC1824
:102B4000070808040C180003E00000000001E00082
:102B500007F003F818041C0804170807E1D003C0A5
:102B6000E00023B0003C0800200800001000000036
:102B70000000000100003100003200001C000000D5
:102B80000000000000000000000000000000000045
:102B90000000000000000000000000000000000035
:102BA000000000007F0001FFC00780F00C0018103B
:102BB00000042000020000000000002000021000BD
:102BC000040C00180780F001FFC0007F0000000027
:102BD00000000000000000000000000000000000F5
:102BE0004200006600006600003C0000180003FF81
:102BF000C0001800003C00006600006600004200B3
:102C000000000000080000080000080000080000A4
:102C1000080001FFC00008000008000008000008CC
:102C20000000080000000000000100003100003238
:102C300000001C0000000000000000000000000078
:102C40000000000000000000000000000800000874
:102C5000000008000008000008000008000008004C
:102C6000000800000800000800000000000000004C
:102C700000000000380000380000380000000000AC
:102C80000000000000000000000000000000000044
:102C900000000000000600001C0000700001800021
:102CA0000E0000380000C0000700001C00003000CB
:102CB00000000000000000007F8001FFE003807042
:102CC00006001804000804000806001803807001BC
:102CD000FFE0007F80000000000000000000010015
:102CE0000801000801000803FFF807FFF8000008CA
:102CF00000000800000800000000000000000001C3
:102D0000C03802C0580400980401180402180404D2
:102D100018061C1803F81801E0F800000000000075
:102D200000000001C0E003C0F0040008040808042B
:102D3000080806180803F41801E7F00001E0000095
:102D400000000000000000000300000D0000110062
:102D500000610000810803010807FFF80FFFF80079
:102D600001080001080000000000000000E007FC6E
:102D7000D0060808061008061008061008061838BD
:102D8000060FF00607C00000000000000000000071
:102D90003F8001FFE003843002081804100804108B
:102DA00008041008071810030FF00007C000000007
:102DB00000000000000003C000070000060000063D
:102DC00000F80607F806180006E0000700000600F5
:102DD0000000000000000001E1E003F7F0063410FD
:102DE000041808041808040C08040C080616180334
:102DF000F3F001C1E000000000000000F80003FC57
:102E0000300306380402080402080402080404100F
:102E10000308F001FFC0007F000000000000000078
:102E2000000000000000000000000000703800708A
:102E300038007038000000000000000000000000B2
:102E40000000000000000000000000000000000082
:102E5000301A00301C0000000000000000000000DC
:102E60000000000000000000000000080000140046
:102E70000022000041000080800100400200200488
:102E800000100800080000000000000021000021E0
:102E9000000021000021000021000021000021008D
:102EA00000210000210000210000000000000000BF
:102EB000000008000804001002002001004000800B
:102EC0008000410000220000140000080000000003
:102ED00000000003C00004C000040000080038081F
:102EE0000F380808380810000C300007E00003C055
:102EF00000000000000000003F8000FFE003807041
:102F0000020F1006708804C088048308047F8802BA
:102F1000C09003012000FE400000080000180001DE
:102F2000F8003E0801C20007020007E20000FE00B0
:102F3000001FC80001F8000038000008040008075E
:102F4000FFF807FFF8040808040808040808040844
:102F50000806180803F41801E7F00001E00000007B
:102F6000000000003F8001FFE003807002001804B1
:102F70000008040008040008040010060020078070
:102F8000C000000004000807FFF807FFF80400086D
:102F900004000804000804001802001003807001F7
:102FA000FFE0007F8000000004000807FFF807FF33
:102FB000F8040808040808040808040808043E087F
:102FC0000400080600180100600000000400080763
:102FD000FFF807FFF80408080408000408000408C4
:102FE00000043E0006000006000001800000000012
:102FF000000000003F8001FFE0038070060018041D
:1030000000080402080402080203F00783F000022B
:103010000000020004000807FFF807FFF804080892
:103020000008000008000008000008000408080765
:10303000FFF807FFF804000800000000000004008B
:103040000804000804000807FFF807FFF804000858
:103050000400080400080000000000000000000058
:103060000006000007000001040001040001040044
:103070000307FFFE07FFFC0400000400000400003B
:1030800004000807FFF807FFF8040C080018000008
:103090003E0004C7800503C80600F8040038040099
:1030A0001800000804000807FFF807FFF8040008EC
:1030B00000000800000800000800000800000800E8
:1030C000001800006000000004000807FFF80780F7
:1030D0000807FC00007FC00003F80007C00078006C
:1030E00007800807FFF807FFF80400080400080736
:1030F000FFF807000803C00000E000003800001ED1
:10310000000007000001C00400F007FFF804000001
:10311000000000007F8001FFE003807006001804BB
:10312000000804000806001803003001FFE0007FDB
:103130008000000004000807FFF807FFF8040408F7
:10314000040400040400040400040400060C00034A
:10315000F80001F000000000000000007F8001FF87
:10316000E00380700600880400880400C806003C64
:1031700003003E01FFE6007F840000000400080712
:10318000FFF807FFF8040808040800040C00040F07
:1031900000040BC00610F003F03801E0080000083E
:1031A00000000001E0F803F03006301004180804B5
:1031B0001808040C08040C080206180207F007811E
:1031C000E000000001800006000004000004000090
:1031D00004000807FFF807FFF804000804000004D3
:1031E000000006000001800004000007FFE007FF68
:1031F000F0040018000008000008000008000008A3
:1032000000000804001007FFE004000004000006AE
:10321000000007E00007FE00041FE00001F80000C6
:10322000380001E0043E0007C00006000004000072
:1032300004000007E00007FFC0041FF80007C007F4
:10324000F80007FF80043FF80007C004F8000700FB
:103250000004000000000004000806001807C07801
:1032600005F1C8003E00001F800463E80780F806EF
:103270000018040008000000040000060000078099
:103280000007E008047C08001FF80007F800180891
:1032900004E0080700000600000400000000000130
:1032A00000080600380400F80403E8040F08047C52
:1032B0000805F00807C008070018040060000000B7
:1032C0000000000000000000000000000000003FBF
:1032D000FFFE200002200002200002200002200049
:1032E00002000000000000000000080000070000CD
:1032F00000C0000038000006000001C000003000DF
:10330000000E00000100000000000000000020008E
:10331000022000022000022000022000023FFFFEE7
:10332000000000000000000000000000000000009D
:103330000000000000080000100000300000200025
:103340000030000010000008000000000000000035
:103350000000010000010000010000010000010068
:103360000001000001000001000001000001000058
:10337000010000010000000000000000002000002B
:1033800020000010000010000000000000000000FD
:1033900000000000000000000000000000F0001924
:1033A000F8001B180022080026080024080024103A
:1033B000003FF8001FF8000008000018000000049B
:1033C000000007FFF80FFFF0001818001008002099
:1033D00008002008003018001FF0000FC000000097
:1033E0000000000007C0001FF00018300020080097
:1033F0002008002008003C08001C100000600000AD
:10340000000000000000000007C0001FF000381896
:1034100000200800200800200804101007FFF80F03
:10342000FFF0000010000000000000000000000796
:10343000C0001FF0001230002218002208002208ED
:10344000003208001E10000E2000000000000000E6
:10345000200000200800200801FFF803FFF80620E4
:1034600008042008042008072000030000000000D2
:1034700000000000000E000E6E001FF30031B100CE
:1034800020B10020B1003191001F13002E1E00203A
:103490000E00300000000004000807FFF80FFFF8DE
:1034A000001008002000002000002008003FF80065
:1034B0001FF80000080000000000000000000020CD
:1034C00008002008002008063FF8063FF800000822
:1034D00000000800000800000000000000000000DC
:1034E0000000000003000003002001002001002074
:1034F00003063FFE063FFC00000000000000000045
:1035000000000004000807FFF80FFFF80001880022
:103510000300002FC00038F8002038002008000009
:10352000080000000000000000000400080400087B
:1035300004000807FFF80FFFF8000008000008006B
:103540000008000000000000002008003FF8003FD5
:10355000F8001008002000003FF8003FF8001008B5
:10356000002000003FF8003FF800000800000000C5
:103570002008003FF8003FF800100800100000206D
:1035800000002008003FF8001FF8000008000000BD
:103590000000000007C0000FF000183000300800E5
:1035A0002008002008003008001830000FF0000745
:1035B000C0000000000000002001003FFF003FFFAE
:1035C00000101100200900200800200800303800F9
:1035D0001FF0000FC00000000000000007C0001F27
:1035E000F000381800200800200800200900101101
:1035F000001FFF003FFF0000010000000020080046
:103600002008002008003FF8003FF80008080010DC
:1036100008002008002000003000003000000000FA
:10362000000000000000000C78001E1800330800A5
:1036300023080021080021880021980030F000387C
:1036400060000000000000002000002000002000BA
:1036500000FFF003FFF80020080020080020080009
:103660000030000000000000000000002000003FCB
:10367000F0007FF80000180000080000080020108B
:10368000003FF8007FF00000100000000000000084
:103690002000003000003C00003F800023F00000CC
:1036A00078000070002380003C0000300000200003
:1036B000002000003C00003FE00023F80000E00094
:1036C0002700003E00003FE00021F80001E0003E3E
:1036D000000020000000000020080020080038380A
:1036E000003E680027800003C8002CF8003838002E
:1036F000201800200800000000000000200000301A
:1037000003003C01003F830023EC00007000238095
:10371000003C00002000002000000000000000002D
:1037200000000038080020380020F80023E8002FAF
:1037300088003E08003808002018000070000000D3
:103740000000000000000000000000000000000079
:1037500008000014001FF7FC3000062000020000E3
:103760000000000000000000000000000000000059
:10377000000000000000FFFFFF000000000000004C
:103780000000000000000000000000000000200019
:10379000023000061FF7FC001400000800000000C3
:1037A0000000000000000000000000000000001801
:1037B00000006000004000004000002000001000F9
:1037C000000800000400000400000C0000100000CD
:1037D00000000000000000000102030406070809C1
:1037E0000000000001020304083800080000002067
:1037F00020000000241C00082838000820000020B9
:10380000E0040000341C00080000FFFF000000007E
:103810000000000000000000010000001000000097
:08382000000000000024F40088
:0400000508000131BD
:00000001FF
