:020000040800F2
:10900000F010002045910008C3A6000811A5000833
:10901000C1A60008B1910008CDAA00080000000018
:109020000000000000000000000000002BA8000865
:10903000CD91000800000000D9A600082DA8000866
:109040005F9100085F9100085F9100085F91000840
:109050005F9100085F9100085F9100085F91000830
:109060005F9100085F9100085F9100085F91000820
:109070005F9100085F910008B5910008C191000858
:109080005F9100085F9100085F9100085F91000800
:109090005F9100085F9100085F9100085F910008F0
:1090A0005F9100085F9100085F9100085F910008E0
:1090B0005F9100085F9100085F9100085F910008D0
:1090C0005F9100085F9100085F9100085F910008C0
:1090D0005F910008C1AA00085F9100085F91000835
:1090E0005F9100085F9100085F9100085F910008A0
:1090F0005F9100085F9100085F9100085F91000890
:109100005F9100085F9100085F9100085F9100087F
:109110005F9100085F9100085F9100085F9100086F
:109120005F9100085F9100085F9100085F9100085F
:10913000DFF80CD000F02AF8004800470DAB00081B
:10914000F01000200648804706480047FEE7FEE78B
:10915000FEE7FEE7FEE7FEE7FEE7FEE7FEE7FEE7E7
:1091600099A8000831910008D2B201E000F8012B63
:10917000491EFBD270470022F6E710B513460A4697
:1091800004461946FFF7F0FF204610BD064C074D78
:1091900006E0E06840F0010394E8070098471034C7
:1091A000AC42F6D3FFF7C8FF84AB0008A4AB0008BD
:1091B000FEE70000014800F0A3B80000A80000206E
:1091C000014800F09DB8000064000020704770471F
:1091D0002DE9F05F90F821100024022903D004212A
:1091E0008163012485E001680A6822F00E020A60AA
:1091F00001680A6822F001020A603F4E3E4FB21534
:10920000DFF8F4C0DFF8F090DFF8ECA0DFF8E8B0AA
:10921000DFF8E4E00168783F13011502ACF1640C5B
:10922000A9F15009AAF13C0AABF1280BAEF1140EDA
:109230004FF48018B14227D9B9420ED0614512D0FF
:1092400049451DD0514518D0594518D0714501D117
:10925000424615E0294EB14201D1012210E0274ECD
:109260001436B14201D110220AE0244E2836B14210
:1092700006D0224A3C32914201D11A4600E02A46E9
:109280001E49091F0A602BE0B94213D0614517D06F
:10929000494522D051451DD059451DD0714501D1B8
:1092A00042461AE0B14202D14FF0807215E0134EEF
:1092B000B14201D1012210E0104E1436B14201D169
:1092C00010220AE00D4E2836B14206D00B4A3C323D
:1092D000914201D11A4600E02A46074980394A6086
:1092E000012180F82110002180F82010416B01B18C
:1092F00088472046BDE8F09F8000024008040240F5
:109300002DE9F05FC16B0A6801680B68046C4FF0CF
:10931000040808FA04F8844D844E854FDFF814C21F
:10932000DFF81492DFF814A2DFF814B2DFF814E2C9
:1093300018EA020F65D05FEA437862D50A689206A0
:1093400003D40A6822F004020A60DFF8F0814FF4C7
:109350008062016808F1140813011402414524D900
:10936000A9420DD0B1420FD0B9421AD0614515D0F3
:10937000494515D0514501D1120312E0594501D19B
:1093800004220EE0714501D140220AE06D4D1435F2
:10939000A94206D06B4A2832914201D11A4600E018
:1093A00022466749091F0A6029E0A94213D0B14249
:1093B00015D0B94220D061451BD049451BD051453D
:1093C00002D14FF4800217E0414502D14FF0806294
:1093D00012E0594501D104220EE0714501D140222D
:1093E0000AE0584D1435A94206D0564A2832914217
:1093F00001D11A4600E022464B4908394A60C16A49
:1094000071E04FF0020808FA04F818EA020F70D071
:109410005FEA83786DD50A68920606D40A6822F05E
:109420000A020A60012180F82110DFF810814FF450
:109430000072016808F1140813011402414524D98F
:10944000A9420DD0B1420FD0B9421AD0614515D012
:10945000494515D0514501D1120312E0594501D1BA
:1094600002220EE0714501D120220AE0354D14356B
:10947000A94206D0334A2832914201D11A4600E06F
:1094800022462F49091F0A6029E0A94213D0B142A0
:1094900015D0B94220D061451BD049451BD051455C
:1094A00002D14FF4001217E0414502D14FF0007293
:1094B00012E0594501D102220EE0714501D120226E
:1094C0000AE0204D1435A94206D01E4A28329142A6
:1094D00001D11A4600E02246134908394A600021AA
:1094E00080F82010816A00291CD0BDE8F05F084791
:1094F000FFE70825A540154214D01A0712D50A68BF
:1095000022F00E020A6090F84020C36B012101FA9C
:1095100002F25A60816380F82110002180F8201047
:10952000016BE0E7BDE8F09F080002401C0002402C
:109530003000024044000240580002406C000240EB
:10954000080402401C04024030B560B11A4B0268A6
:1095500014219A4209D2194B1344B3FBF1F189004B
:10956000016417490AE0012030BD134B5B421344EC
:10957000B3FBF1F1890001640F490839C16302218D
:1095800080F82110136843F6F0718B43F0E9011461
:109590002143D0E902452C43214304692143446916
:1095A0002143846921431943116000214163012251
:1095B00042770177084630BD08040240F8FFFDBF3E
:1095C0000000024070B5044600F014F90546601C26
:1095D00002D004480078044400F00CF9401BA0427B
:1095E000FAD370BD000000202DE9F84FDFF8C891D4
:1095F000002409F1040A0AF1040B23460F270BF19A
:10960000040ED1E00125A54006EA0502AA4276D162
:10961000DFF8A8C14E68A6EB0C0866452BD00DDC20
:10962000032E34D005DC36B3012E19D0022E2FD1F3
:109630001BE0112E16D0122E2AD119E0B8F5881F82
:1096400019D006DCB8F5803F15D0B8F5801F1FD1C2
:1096500011E0B8F5001F0ED0B8F5041F18D10AE0CC
:10966000CB6815E0CB681B1D12E0CB6808330FE018
:10967000CB680C330CE08B682BB1012B4FF0080347
:1096800003D0456104E0042302E0056100E000230B
:10969000FF2A01D8064601E000F104064FEA8405DE
:1096A00001D9A5F12005D6F8008007FA05FC28EAC3
:1096B0000C0803FA05F548EA0508C6F800804D686D
:1096C000ED0070D53E4DAE6946F00106AE61AD6964
:1096D00024F0030605F0010500953A4D06EB050C54
:1096E000DCF80850A607360F07FA06F825EA080541
:1096F000DFF8D480404503D14FF0000825E052E068
:10970000DFF8C880404502D14FF001081DE0DFF8C6
:10971000C080404502D14FF0020816E0DFF8B48067
:10972000404502D14FF003080FE0DFF8AC80404520
:1097300002D14FF0040808E0DFF8A080404502D1D4
:109740004FF0050801E04FF0060808FA06F848EA6D
:109750000508CCF808804D68D9F80060ED034D4647
:1097600001D5164300E096432E604D68DAF800609C
:10977000AD03554601D5164300E096432E604D6873
:10978000DBF80060ED025D4601D5164300E096432C
:109790002E604D68DEF80060AD02754601D51643B7
:1097A00000E096432E60641C0A681646E2407FF48F
:1097B00029AFBDE8F88F000000040140000011103F
:1097C000001002400000014000080140000C014070
:1097D000001001400014014000180140001C01402D
:1097E0008068084000D0012070470AB101617047CD
:1097F0000904FBE701488068704700000000002072
:10980000024881680278114481607047000000209E
:10981000074810B5016841F010010160032000F015
:1098200073F8002000F006F800F024F8002010BDC6
:109830000020024070B50D4D04464FF47A7128782F
:10984000B1FBF0F00A490968B1FBF0F000F021FD2E
:1098500048B9102C07D200222146501E00F034F8DF
:1098600000206C6070BD012070BD00000000002071
:109870000C0000200B4808B5816941F001018161AD
:10988000816901F001010091C16941F08051C1611C
:10989000C06900F0805000900348416821F0E06109
:1098A000416008BD0010024000000140002809DBB3
:1098B00000F01F02012191404009800000F1E020EA
:1098C000C0F8001170470000F0B40E4B1B680C4646
:1098D000C3F30223C3F10705042D00D90425191D84
:1098E000072901D2002300E0DB1E012606FA05F15C
:1098F000491E214099409E40761E16403143F0BCDF
:1099000001F0E5B80CED00E0064900F00702086838
:109910004FF6FF03184040EA0220034A1043086054
:10992000704700000CED00E00000FA05BFF34F8F18
:1099300005480168054A01F4E06111430160BFF385
:109940004F8F00BFFDE700000CED00E00400FA05BA
:10995000014901200862704700000E4210B52CA496
:1099600001461DCC86B08DE81D002DA02D4C006851
:109970000490002004292FD00BDC01292FD00229CC
:1099800028D100F071F96168C1F38131491C4900A7
:109990001EE0082920D010291CD161682268D2015C
:1099A00018D5C1F38342C9031DF8020009D56168C7
:1099B00004AAC1F34041515C1B4AB2FBF1F1484398
:1099C00001E01A4948436168490203D44000032179
:1099D000B0FBF1F006B010BD00F056F9FAE7226ACC
:1099E000C2F30121012903D1920701D5C803F1E790
:1099F000022905D1626A920702D549F64040E9E79B
:109A00000329E7D121688903E4D54FF22440E1E737
:109A100002030405060708090A0B0C0D0E0F1010AF
:109A2000010200000010024000127A0000093D000F
:109A30002DE9F84305460078354CC00754D0E0695D
:109A40000026C00008D4E06940F08050E061E06981
:109A5000012600F0805000902E480168C90512D4FC
:109A60000168804641F480710160FFF7C3FE07463C
:109A700005E000BFFFF7BEFEC01B642823D8D8F85E
:109A80000000C005F6D5206A10F4407021D0A988E6
:109A900001F4407181421CD0206A1F49012220F448
:109AA00040700A6000220A602062C00711D0FFF7F0
:109AB000A1FE074641F2883808E000BFFFF79AFE92
:109AC000C11B414502D90320BDE8F883206A800705
:109AD000F4D5206A696820F44070084320621EB102
:109AE000E06920F08050E0612878800705D5606843
:109AF000A96820F44040084360602878C00605D576
:109B00006068696920F48000084360600020DBE73A
:109B10000010024000700040400442422DE9F0472E
:109B20000F46050061D0434E306800F00700B84290
:109B300009D2306820F0070038433060306800F008
:109B40000700B84251D128683B4C810712D5400725
:109B500003D5606840F4E06060602878000703D5B2
:109B6000606840F4605060606068A96820F0F000B0
:109B7000084360602878C00728D06868012810D0A2
:109B80002168022810D0890700292EDA616821F0A7
:109B9000030101436160FFF72DFE804641F28839E1
:109BA0000DE021688903EFE78901EDE7FFF722FE69
:109BB000A0EB0801494502D90320BDE8F0876068A1
:109BC000696800F00C00B0EB810FEFD1306800F055
:109BD0000700B8420BD9306820F0070038433060E6
:109BE000306800F00700B84201D00120E5E728788E
:109BF000400705D56068E96820F4E06008436060CC
:109C00002878000706D56068296920F4605040EA8A
:109C1000C100606000F038F86168084AC1F30311C0
:109C2000515CC8400649086006480068FFF702FE1C
:109C30000020C2E700200240001002406CAB000888
:109C40000C00002004000020044805490068496811
:109C5000044AC1F30221515CC84070470C00002047
:109C6000001002407CAB00080448054900684968C0
:109C7000044AC1F3C221515CC84070470C00002067
:109C8000001002407CAB000812A185B00FC98DE81E
:109C90000F0014A0144A006804905168134801F0A2
:109CA0000C03042B10D0082B0ED1C1F38343C9033E
:109CB0001DF803000AD5516804AAC1F34041515C64
:109CC0000A4A5043B0FBF1F005B0704708494843D9
:109CD000FAE7000002030405060708090A0B0C0D49
:109CE0000E0F1010010200000010024000127A0056
:109CF00000093D002DE9F84F040070D02078C04DD8
:109D0000C00749D06868C0F38100012807D068689F
:109D1000C0F38100022809D16868C00306D528680D
:109D2000800339D560680028E7D035E06068B0F579
:109D3000803F0BD010B1B0F5A02F11D0286820F4CF
:109D400080302860286820F4802002E0286840F4F1
:109D500080302860606890B1FFF74CFD06460AE04D
:109D6000286840F480202860F0E700BFFFF742FD3C
:109D7000801B642873D828688003F7D50CE0FFF7B0
:109D800039FD064605E000BFFFF734FD801B64285F
:109D9000F0D828688003F7D420789A4E80074FF0D7
:109DA00001094FF0000839D5686810F00C0F07D092
:109DB0006868C0F38100022809D16868C00306D42E
:109DC0002868800714D52069012808D110E020698F
:109DD000B0B1C6F80090FFF70DFD074605E00AE1B7
:109DE000FFF708FDC01B0228C4D828688007F7D5F4
:109DF0002868616920F0F80040EAC10028600DE0A1
:109E0000C6F80080FFF7F6FC074604E0FFF7F2FC17
:109E1000C01B022823D828688007F7D420780007C1
:109E20002CD57948A169D9B1C0F80090FFF7E2FCC0
:109E3000074604E0FFF7DEFCC01B02280FD8686A63
:109E40008007F7D571484FF4FA510068B0FBF1F084
:109E5000009000BF0098411E0091FAD20EE080E011
:109E6000C0F80080FFF7C6FC074604E0FFF7C2FC1D
:109E7000C01B022875D8686A8007F7D4207840078D
:109E800060D5E8690027C00008D4E86940F0805038
:109E9000E861E869012700F0805000905C480168A3
:109EA000C90513D40168834641F480710160FFF74E
:109EB000A1FC824606E000BFFFF79CFCA0EB0A0075
:109EC00064284ED8DBF80000C005F5D5E06801280D
:109ED0000AD008B1052813D0286A20F001002862B2
:109EE000286A20F0040002E0286A40F0010028629D
:109EF000E06841F2883B98B1FFF77CFC82460BE0BA
:109F0000286A40F004002862EEE700BFFFF772FC09
:109F1000A0EB0A0159455AD8286A8007F6D50CE00B
:109F2000FFF768FC824605E0FFF764FCA0EB0A013E
:109F300059454CD8286A8007F6D41FB1E86920F04B
:109F40008050E861E06988B36968C1F38101022942
:109F500044D00228C6F8608004D0FFF74BFC0446CA
:109F600038E034E0FFF746FC074604E0FFF742FC28
:109F7000C01B02282BD828688001F7D4206AB0F5CE
:109F8000803F05D16868A16820F40030084368600C
:109F9000D4E908010843696821F474110843686032
:109FA000C6F86090FFF726FC044606E025E000BFF7
:109FB000FFF720FC001B022809D828688001F7D58C
:109FC0001BE000BFFFF716FC001B022802D903208C
:109FD000BDE8F88F28688001F4D40EE00128F7D09E
:109FE0006868226A00F48031914204D1616A00F409
:109FF0007010884201D00120EAE70020E8E7000065
:10A000000010024000004242800442420C00002046
:10A010000070004070B5040003D0607C002610B1D1
:10A0200005E0012070BD2674204600F043F80220B0
:10A030006074204600F010F9042578BB204600F03B
:10A0400055FB58BB2068416821F007014160A068BA
:10A0500020B11748016821F0010101601448001F78
:10A060000168A26821F46071114301606068411CBD
:10A0700004D10120FFF772FC80B1401E21688A687C
:10A0800022F00F0242EA10428A602168CA6860F337
:10A090000F02CA60204600F043FB08B16574C0E7B8
:10A0A000E67301206073A0736074002070BD00002F
:10A0B000306C004008B50068084988420DD1FFF7B0
:10A0C00047FC0748C16941F00061C161C0690549A9
:10A0D00000F0006000900120086008BD00280040EA
:10A0E000001002403C0442422DE9F0410D460400BC
:10A0F0003BD0C5B3207C01283AD04FF0010884F84A
:10A10000108002206074E87872B300F0E6FAE07321
:10A11000687800F0E2FA6073A87800F0DEFAA073C5
:10A12000C2B2617BE07B00F02DFB207328702046DB
:10A1300000F018FB4FF46161B0FBF1F10025182924
:10A140002DD91822B1FBF2F1A1EB011101EB410174
:10A15000C1EB011100EBC1163146204600F051FB66
:10A160000427C8B90BE000E004E00120BDE8F0815D
:10A170000220FBE7E07368786073A878CFE7204699
:10A1800000F0E9FA411C0AD0B04208D20649014465
:10A19000204600F022FB10B167742574E5E784F8CF
:10A1A000118025740020E1E7805101002DE9F04184
:10A1B0000D46040024D01DB3207C012823D04FF08D
:10A1C000010884F81080022060742878EAB100F059
:10A1D00084FA4FF4616100FB01F6687800F07DFAC3
:10A1E000C0EB001006EB8006A87800F076FA351870
:10A1F0002946204600F005FB0026042710BB0FE08F
:10A200000120BDE8F0810220FBE74FF46161484383
:10A210006978C1EB011100EB8100A9784518E7E7E7
:10A220002068416821F005014160204600F093FA62
:10A23000411C0AD0A84208D206490144204600F039
:10A24000CCFA10B167742674DAE784F811802674AA
:10A250000020D6E78051010070B504000AD02068C4
:10A26000416821F008014160FFF7C4FA05464FF448
:10A270007A7608E0012070BDFFF7BCFA401BB042BF
:10A2800001D9032070BD206840680007F4D5002084
:10A2900070BD10B5401EB0F1807F01D3012010BD0C
:10A2A0004FF0E02460610F21601700F010FC0020E7
:10A2B000A06107202061002010BD704770B50268C2
:10A2C00004461068D168536910F00F0F50D003F0A6
:10A2D000010501F4907635435DD0C20705D0CA056B
:10A2E00003D5E26B42F00102E263420705D5DA07CB
:10A2F00003D0E26B42F00202E263820705D5DA077F
:10A3000003D0E26B42F00402E263020705D5DA07EC
:10A3100003D0E26B42F00802E263E26B002A33D022
:10A32000800604D5880602D5204600F0EFFA2068A2
:10A330004069E16BC0F38010090700D428B32046C0
:10A3400000F0D6FA2068416949061AD5416921F022
:10A3500040014161606BA0B11B494163606BFEF736
:10A3600037FF002810D0606B416BBDE87040084794
:10A37000830610D58B060ED52046BDE8704000F050
:10A38000C5BA2046FFF799FF70BD2046FFF795FF3D
:10A390000020E06370BD030606D50B0604D52046F9
:10A3A000BDE8704000F05ABB4006F3D54806F1D531
:10A3B000D168204621F04001D160202184F8391075
:10A3C00000F0A5F870BD0000E1A8000870B5040019
:10A3D00004D094F83900002510B106E0012070BDCA
:10A3E00084F83850204600F023F8242084F83900FF
:10A3F0002068C16821F40051C160204600F0D2FA03
:10A400002068016921F4904101612068416921F0CF
:10A410002A0141612068C16841F40051C160E563CF
:10A42000202084F8390084F83A00002070BD000034
:10A43000F0B585B00024064600940194029403947C
:10A4400000682D49884255D12C48816941F48041EA
:10A450008161816901F480410491816941F00401C5
:10A4600081618069264D00F0040004904FF4007073
:10A470000090022001900320039069462846FFF7D0
:10A48000B3F82815CDE90004694628460294FFF781
:10A49000ABF81D4D1B488027C5E90004C5E90247FC
:10A4A0002C6180146C61C5E906402846FFF74CF822
:10A4B00008B1FEF78CFE75636E62134D114844358A
:10A4C000143801C5102091C50F4845F81049443093
:10A4D0006C61AC61EC61FFF737F808B1FEF777FE0D
:10A4E00035630022012125206E62FFF7EDF925205A
:10A4F000FFF7DCF905B0F0BD003801400010024064
:10A500000008014058000240640000207047704776
:10A51000FEE700000D4808B5416941F001014161C5
:10A520004069002200F00100009002210E20FFF798
:10A53000CBF90E20FFF7BAF9002203210F20FFF715
:10A54000C3F9BDE808400F20FFF7B0B90010024082
:10A550002DE9F04186B000242A4800940194029429
:10A560000394816941F040018161816901F04001FA
:10A570000491816941F010018161816901F010014C
:10A580000491816941F004018161816901F0040154
:10A590000491816941F00801816180691A4F00F0DE
:10A5A00008000490012220213846FFF71EF90022FE
:10A5B00040213846FFF719F9DFF8508001222021A9
:10A5C0004046FFF712F91C20CDE9000469463846E1
:10A5D0000294FFF709F8602001250226CDE9000565
:10A5E000CDE9024669463846FEF7FEFF2020CDE958
:10A5F0000005CDE9024669464046FEF7F5FF06B084
:10A60000BDE8F0810010024000180140000C01403C
:10A610001CB500241B480194194900940160611E77
:10A6200041604FF480718160FFF7F4FC08B1FEF7E0
:10A63000CEFD11208DF8040015208DF805008DF851
:10A640000640012201A90F48FFF7B0FD08B1FEF74F
:10A65000BEFD02208DF8000012208DF801001020B0
:10A660008DF8020019208DF8030001226946054883
:10A67000FFF73AFD002801D0FEF7A9FD1CBD000040
:10A6800000280040100000200C4810B50A49016065
:10A690004FF4E1314160002181600C22C160C0E9CA
:10A6A00004128161C161FFF791FE002803D0BDE86B
:10A6B0001040FEF78CBD10BD003801402400002082
:10A6C000FEE77047024A11400143024801607047AB
:10A6D00080FFFF1F08ED00E07047010901EB8101D9
:10A6E00000F00F0000EB4100C0B2704770B50446A7
:10A6F000FFF780F805464FF47A7606E0FFF77AF820
:10A70000401BB04201D9032070BD2068406880061C
:10A71000F4D52068416841F010014160002070BD0F
:10A7200070B504460068416821F010014160FFF7F0
:10A7300061F805464FF47A7607E000BFFFF75AF854
:10A74000401BB04201D9032070BD206840688006DC
:10A75000F4D5002070BD0168086A496A89B241EAEF
:10A7600000407047006881698AB2C1698BB2816913
:10A7700089B28A4203D0C06961F31F40704743EA3F
:10A7800002407047F0B56424C1EBC1030927A5005E
:10A79000072603EB01130329B3FBF7F100F5FA6079
:10A7A000114401440AD2401EB0FBF4F201EB9001C7
:10A7B000B0FBF5F0891A0844001D08E0B0FBF4F284
:10A7C00001EB9001B0FBF5F0891A0844801CB0FB46
:10A7D000F6F106FB1100C0B2F0BD70B50D4606469D
:10A7E0000024FFF783FF48B93168280C08623168FC
:10A7F000A8B248623046FFF793FF00B1012420461B
:10A8000070BD70B50D4606460024FFF76FFF48B9CE
:10A810003168280C88613168A8B2C8613046FFF7FA
:10A820007FFF00B10124204670BD7047FEF7E8BFEE
:10A8300070B596B028216846FEF79DFC14210AA841
:10A84000FEF799FC18210FA8FEF795FC0520009053
:10A8500001A94FF480300024012581E8310002264F
:10A860000495CDE907604FF4E01009906846FFF7C2
:10A8700041FA0F20CDE90A06A802CDE90C400221D9
:10A880000AA80E94FFF74AF92802CDE90F500FA845
:10A89000FFF7CEF816B070BD0D48016841F0010118
:10A8A000016041680B4A1140416001680A4A114049
:10A8B0000160016821F480210160416821F4FE01FA
:10A8C00041604FF41F0181600449C0030860704774
:10A8D000001002400000FFF8FFFFF6FE08ED00E068
:10A8E00010B5406A0021C185C184FFF7E6FC10BDA8
:10A8F0000168CA6822F49072CA6001684A6922F04D
:10A9000001024A61202180F83A10704710B590F892
:10A910003A10222901D0022010BD8168B1F5805F74
:10A9200011D00169002901681FD0496801F07F0337
:10A93000816A4A1C82620B70C18D491E0904090C90
:10A94000C18518D02BE00269816A002A026852682A
:10A9500005D0D2B20A80816A491C8162ECE7C2F359
:10A9600008020A80816A891CF7E74A68816A4B1CE1
:10A9700083620A70E0E70168CA6822F02002CA60B8
:10A980000168CA6822F48072CA6001684A6922F0CC
:10A9900001024A61202180F83A10FFF7B7FD00203C
:10A9A00010BD00002DE9F041044600680169E2682D
:10A9B00021F44051114301612169A0680843616994
:10A9C00008432168CA6841F20C639A430243CA6093
:10A9D00020684169A26921F44071114341611E4917
:10A9E000206864253226884202D1FFF73DF901E054
:10A9F000FFF72AF900EBC00101EB001160686FF06E
:10AA000018078000B1FBF0F2B2FBF5F2B1FBF0F3F6
:10AA10007A4303EB8202B1FBF0F306EB0212B2FBC6
:10AA2000F5F2B3FBF5F302F0F00202EB0312B1FB17
:10AA3000F0F3B1FBF0F0B0FBF5F0784303EB8000EE
:10AA400006EB0010B0FBF5F0216800F00F00104499
:10AA50008860BDE8F08100000038014090F83910AE
:10AA6000212901D0022070478168B1F5805F016A19
:10AA70000BD04A1C0262026809785160C18C491EE1
:10AA80000904090CC1840ED017E009880268C1F3DB
:10AA90000801516001690029016A02D0491C016264
:10AAA000ECE7891CFBE70168CA6822F08002CA60F3
:10AAB0000068C16841F04001C1600020704700009B
:10AAC0000148FFF7FBBB000024000020FEE7090758
:10AAD000090E002804DB00F1E02080F80014704724
:10AAE00000F00F0000F1E02080F8141D704702E034
:10AAF00008C8121F08C1002AFAD170477047002009
:10AB000001E001C1121F002AFBD17047FEF780FE51
:10AB1000FFF78EFE4FF410414FF00060FFF7D2FDBB
:10AB2000FFF716FDFFF7F6FCFFF7AEFDFFF770FD30
:10AB30000D4D4FF4FA74012240212846FEF755FED0
:10AB40002046FEF73FFD002240212846FEF74DFE3D
:10AB50002046FEF737FD08212846FEF741FE002873
:10AB6000E9D1FEF7E3FEE6E700180140000000002F
:10AB700000000000010203040607080900000000AD
:10AB800001020304A4AB0008000000201000000034
:10AB9000EEAA0008B4AB000810000020E01000008E
:10ABA000FEAA0008010000001000000000000000E4
:04ABB0000024F40089
:04000005080091312D
:00000001FF
