:020000040800F2
:1000000078050020E11A0008C5190008C719000882
:10001000C9190008CB190008CD190008000000001C
:10002000000000000000000000000000CF190008E0
:10003000D119000800000000D3190008D5190008E4
:10004000151B0008191B00081D1B0008211B0008B8
:10005000251B0008291B00082D1B0008311B000868
:10006000351B0008391B00083D1B0008411B000818
:10007000451B0008D9190008491B0008DF190008B2
:100080004D1B0008511B0008551B0008591B000898
:100090005D1B0008611B0008651B0008691B000848
:1000A0006D1B0008711B0008751B0008791B0008F8
:1000B0007D1B0008811B0008851B0008891B0008A8
:1000C0008D1B0008911B0008951B0008991B000858
:1000D0009D1B0008E5190008A11B0008EB1900088A
:1000E000A51B0008A91B0008AD1B000838B50400BB
:1000F00001D1012032BD00F021F808B900F022F84A
:1001000000F012F800F023F8FFE7416100F001F879
:1001100032BD2068C16841F40051C16000206860B0
:1001200020216970A9707047242068702068C16818
:1001300021F40051C160204600F06BBA04F138058B
:100140006878704700212970204600F0D0BA2068F6
:10015000016921F4904101612068416921F02A017F
:1001600070472DE9F843054605F138070C467878C5
:100170002028164698463DD1002C14BF002E0120A1
:1001800039D03878012835D00121397000207860C5
:1001900021227A7000F0D2FBAE848146EE8403E027
:1001A000296814F8010B4860E88C30B3E88C411ED4
:1001B000E9844B46A868CDF80080B0F5805F0DD18A
:1001C00000F025F870B920882968C0F3080048605D
:1001D0002869002814BF641CA41CE5E700F017F888
:1001E0000028DDD0032006E020207870002139703F
:1001F000002000E00220BDE8F283CDF800804B46ED
:100200000022402100F005F80028EDD0EAE70022A6
:100210008021284665E17CB5044604F13805134683
:10022000A87820283ED109B1180001D1012076BD5F
:100230002878012836D001202870A162A3850022E9
:100240006A602220A8700026606B0FF20D22826285
:10025000606B0FF23D22C262606B0FF23D220263BF
:100260000A46606B46632668606B311D00F099FB9F
:100270000020009021680A68009200224B680093D9
:1002800000982A70CB6843F48073CB602068416982
:1002900041F0010141612068416941F04001416143
:1002A000002076BD022076BD38B5044604F139053C
:1002B000206841692A78212A0CD109060AD54269A9
:1002C00022F080024261206B08B100F0A4FB2046BE
:1002D00000F039F9206841696A78222A0CD1490670
:1002E0000AD5426922F040024261606B08B100F019
:1002F00092FB204600F030F9002032BD416921F028
:1003000040014161606B704738B504462568296833
:10031000EA686B6911F00F0007D188065DD5930676
:100320005BD52046BDE832402AE1D80702D412F45A
:10033000907F52D0C80705D5D50503D5E06B40F0B6
:100340000100E063480705D5DD0703D5E06B40F009
:100350000200E063880705D5DD0703D5E06B40F0B8
:100360000400E063080705D5DB0703D5E06B40F028
:100370000800E063E06B00286CD0880604D5910685
:1003800044BF204600F0FCF820684069E16B0A0792
:1003900001D440061BD5204600F0DEF820684169F4
:1003A0004A060FD5FFF7AAFF60B10FF2C9114163EA
:1003B000606B00F055FB00284CD0606B416BBDE8D2
:1003C000344008472046BDE8324000F05EBC20467D
:1003D00000F05BFC0020E06331BD08062AD513065F
:1003E00028D594F83900212834D1A068B0F5805F71
:1003F000206A0BD10188C1F30801696020690028D7
:10040000206A0CBF811C411C216203E0411C216257
:1004100000786860E08C401EE08480B2D0B920682B
:10042000C16821F08001C1602068C16841F04001CD
:10043000C16031BD48060DD551060BD5E86820F0E6
:100440004000E860202184F839102046BDE83240A1
:1004500000F01CBC31BD0000416A006802689306D0
:1004600013D40020C8850868C26822F48072C26074
:10047000086842695208520042610868426922F0E5
:1004800040024261202081F83A00084600F0CEB9CF
:10049000406A00F0FCBB000038B5446A206840693F
:1004A00004F139052978212906D1010604D5002255
:1004B000E284204600F047F82168486969782229DB
:1004C00006D1400604D50021E185204600F044F81D
:1004D000E06B40F01000E0632046BDE8324000F0E1
:1004E000D4BB2DE9F041069C05460E4690461F46BA
:1004F000286801683140B1420CBF0120002040450E
:1005000017D114F1010FF3D024B100F017FAC01B7A
:100510008442EDD22868C16821F4D07100F00CF853
:1005200005F1380020214170817000210170032005
:1005300000E00020BDE8F081C160286841694908F9
:100540004900416170470168CA6822F0C002CA6070
:10055000202180F8391070470168CA6822F490722F
:10056000CA6001684A69520852004A61202180F835
:100570003A107047406A0021C185C18400F085BBF4
:1005800080B590F83A10222941D18168B1F5805F99
:1005900012D101690368826A0029596805D1C1F343
:1005A00008011180826A911C04E001F0FF011180B2
:1005B000826A511C81620FE001690029816A04D1BD
:1005C0004A1C826203685A6805E04A1C826203681A
:1005D0005A6802F07F020A70C18D491EC18589B236
:1005E00099B90168CA6822F02002CA600168CA6825
:1005F00022F48072CA6001684A69520852004A6156
:10060000202180F83A1000F011F9002002BD0220EC
:1006100002BD70B50446642522681169E06821F4C2
:100620004051014311611926D3681849A0680B4055
:100630002169034360690B430343D3605169A06997
:1006400021F44071014312485161824202D100F00D
:1006500058FD01E000F04DFD464360688000B6FBA8
:10066000F0F06421B0FBF1F105FB11052D013235ED
:100670006420B5FBF0F000F0F00202EB01122168FB
:1006800000F00F008018886070BD0000F3E9FFFFE4
:100690000038014080B59E489E4901624FF41642E1
:1006A000426200210C228162C16201634263816364
:1006B000C1632030FFF71AFD00B114E001BD80B521
:1006C0009548964901604FF4164200230C21426080
:1006D0008360C360036141618361C361FFF706FD0D
:1006E00000B100E001BDBDE8014000F0B3BD2DE95F
:1006F000F84185B004466846102100F0ADFD216840
:10070000844A874D874E884891424FF4806741D193
:100710000168DFF8188241F480410160026802F448
:10072000804204920499026842F0040202604FF48D
:100730000071006800F00400049002220498009107
:100740000192032103914046694600F089FD002192
:100750000191029100976946404600F081FD05F144
:100760002800306000218020F0607160B16031614C
:100770007161B161F161304600F0E6F808B100F056
:1007800069FD6663746200220121252000F06EFE7F
:10079000252046E0614A914245D1416841F48021DB
:1007A0004160416801F4802104910499026842F09B
:1007B000080202600222036803F00803049304990C
:1007C00000970321039101926946594F384600F082
:1007D00047FD4FF4006000210090019102913846DE
:1007E000694600F03DFD0020B064002180203065A6
:1007F000F1644FF4805030667165B165F1657564E0
:1008000006F1440000F0A0F808B100F023FD06F165
:1008100044006063B46600220021272000F026FE19
:10082000272000F040FE06B0BDE8F081704738B5E3
:10083000044621680868C2062BD5002300930A6885
:1008400000924968009100982046FFF72DFD20682E
:10085000304A90422DA102D1606B364D04E02F4A00
:10086000904216D1606B344D02685068C0F11E0092
:10087000A8770222C0B22844801E00F03FFE08B9CB
:100880000120E87729462046BDE838401E22FFF7C0
:10089000C2BC31BD70B50446E07FB0B1A57F1C4E2F
:1008A0002A462146304600F03DFEC8232A463146FE
:1008B0001948FFF756FC40B9E07700212046A177A0
:1008C0001E21BDE8704000F065BE70BD38B504461D
:1008D000E07FA8B1A27F0E4DAA772146284600F0FE
:1008E0005DFEAA7FC823294605F12000FFF739FCE9
:1008F00030B9E0771E21204600F04CFE0020A077A2
:1009000031BD0C4870470C48704700000D0A0000CC
:100910009800002000380140F80000200048004006
:100920003000024010000020181002400008014072
:10093000000C0140380100205801002001484068A7
:10094000704700BF0000002030B508B9012030BD5D
:100950000468DFF8F0120919142200F13803B1FB22
:10096000F2F292009A600222DFF8DC12596080F8FD
:1009700021202568416882686FF30D150D43C16819
:10098000154302690D434169154382690D43C169ED
:1009900015430D43256000241C6000F0ABF80020D7
:1009A00030BDF8B50446002594F82000012801D197
:1009B0000220F2BD94F821600120012E84F820006D
:1009C00024D1022004F12C0684F82100F56020686F
:1009D00007687F087F000760204600F045F921681E
:1009E000306820B10A6842F00E020A6008E0086828
:1009F00020F0040008602068016841F00A010160ED
:100A00002068016841F00101016002E084F8205093
:100A100002252846F2BD10B590F82110022900F1F8
:100A2000380206D004231360002180F82010012032
:100A300010BD01680B6823F00E030B6001230168F1
:100A40000C68640864000C60916852688B405360C5
:100A50000121002280F8211080F82020002010BD04
:100A600038B590F821200024022A00F1340103D087
:100A70000420486001243BE00268136823F00E0361
:100A800013600268DFF8C43115686D086D001560E9
:100A900002689A4208BF012222D0DFF8B4319A429C
:100AA00008BF10221CD0DFF8AC319A4208BF4FF4C7
:100AB000807215D0DFF8A0319A4208BF4FF48052FF
:100AC0000ED0DFF898319A4208BF4FF4803207D039
:100AD000DFF88C319A420CBF4FF480124FF08072D5
:100AE000DFF880311A6000F005F8096801B1884725
:100AF000204632BD012280F8212080F82040704736
:100B00002DE9F84F00F1280204275169544BD1F820
:100B100000E0056853492E68D2F818A04F4CDFF862
:100B20003881DFF83091DFF828B1DFF820C107FA0B
:100B30000AF71EEA070F2DD077072BD52E68B606C9
:100B400003D42E6826F004062E600568654508BFAC
:100B5000042318D05D4508BF402314D04D4508BF7D
:100B60004FF480630FD0454508BF4FF480430AD04F
:100B7000A54208BF4FF4802305D09D420CBF4FF41F
:100B800080034FF080630B605168002958D0BDE8A6
:100B9000F44F0847022707FA0AF71EEA070F32D078
:100BA000B70730D52E68B60606D42E6826F00A069A
:100BB0002E60012580F821500568654508BF022395
:100BC00018D05D4508BF202314D04D4508BF4FF411
:100BD00000730FD0454508BF4FF400530AD0A5421B
:100BE00008BF4FF4003305D09D420CBF4FF40013F3
:100BF0004FF000730B60002180F820101168F9B1EC
:100C0000BDE8F44F0847082101FA0AF11EEA010F76
:100C100016D0310714D52B6823F00E032B60012466
:100C2000916953698C405C600121116180F8211049
:100C3000002180F82010916811B1BDE8F44F0847F9
:100C4000BDE8F18FF8FFFDBF000002400800024040
:100C50001C000240300002404400024058000240A4
:100C60006C0002400400024070B5046CC66B0125A4
:100C7000A5407560046863604068102802D1A260D6
:100C8000E16070BDA160E26070BD70477047704761
:100C90002DE9F843040016D02078DFF87C64C10702
:100CA00013D5706800F00C00042807D0706800F0BD
:100CB0000C00082840D17068C1033DD5306881031D
:100CC00003D56068002800F0F4802078DFF85874BD
:100CD000810719D5706810F00C0F07D0706800F00C
:100CE0000C00082860D17068C1035DD430688107AA
:100CF00003D52069012840F0DC803168606921F06B
:100D0000F80141EAC00131602178080770D5A06977
:100D1000DFF81814002865D001220A60FFF70EFEE4
:100D20000546706A810700F1C680FFF707FE401B89
:100D30000228F6D9032035E16068B0F5803F04D180
:100D4000306840F48030306014E008B930680AE060
:100D5000B0F5A02F306806D140F4802030603168B3
:100D600041F4803105E020F480303060316821F4B6
:100D700080213160606858B1FFF7E0FD05463068BA
:100D80008103A2D4FFF7DAFD401B6528F7D3D1E732
:100D9000FFF7D4FD05463068810396D5FFF7CEFDF9
:100DA000401B6528F7D3C5E7206970B10121396080
:100DB000FFF7C4FD05463068810700F1B680FFF7F4
:100DC000BDFD401B0228F6D9B4E73860FFF7B6FD39
:100DD00005463168880797D5FFF7B0FD401B02280C
:100DE000F7D9A7E70860FFF7A9FD0546706A8107F4
:100DF00070D5FFF7A3FD401B0228F7D99AE708B981
:100E0000306A09E00528306A06D140F004003062FB
:100E1000306A40F0010005E0400840003062306A6E
:100E200020F00400306241F28938E06868B1FFF7D1
:100E300085FD8146306A810700F18480FFF77EFDE1
:100E4000A0EB09004045F5D374E7FFF777FD814635
:100E5000306A810776D5FFF771FDA0EB09004045A8
:100E6000F6D367E7FFF76AFD401B02287BD961E7ED
:100E7000FFF764FD001B022840F28F805AE700F064
:100E800093F804463068810140F18B80FFF756FDEE
:100E9000001B0228F6D94DE701280AD07068226AA3
:100EA00000F48031914202BF00F47010616A884200
:100EB00077D0012076E0DFF864020168C9084FF4BA
:100EC0007A72B1FBF2F2009200BF0098411E002836
:100ED0000091F9D12078410739D5F0690025C1008A
:100EE00009D4F06940F08050F0610125F06900F00C
:100EF000805000900098DFF83882D8F80000C105D3
:100F00001BD4D8F8000040F48070C8F80000FFF748
:100F100015FD8146D8F80000C1050ED4FFF70EFD7F
:100F2000A0EB09006528F5D304E73068616920F07B
:100F3000F80040EAC1003060E6E6E06801287FF48E
:100F40005EAF65E71DB1F06920F08050F061E069A7
:100F500038B3716801F00C0108299DD002288ED1A8
:100F600000F022F80546306881013FF57BAF206A2A
:100F7000B0F5803F05D17168A06821F400310143CC
:100F800071607268206A616A22F4741202430A4333
:100F90007260012000F009F80446306881017FF595
:100FA00067AF0020BDE8F28300203866FFF7C6BCBB
:100FB0002DE9F0410400884672D05E4E00F077F8CB
:100FC00002D200F06FF86BD12068534D810712D523
:100FD000400703D5696841F4E06169602078010742
:100FE00003D5686840F4605068606968A06821F0C3
:100FF000F001014369602178C80749D5606801287C
:1010000002D129688A0303E00228296802D18A01F3
:1010100002D445E08A0743D56968890840EA81001F
:101020006860FFF78BFC07466868616800F00C0099
:10103000B0EB810F2CD0FFF781FCC01B41F289314E
:101040008842F1D3032021E02078410705D56A6862
:10105000E06822F4E06202436A602178080706D55E
:101060006968206921F4605141EAC001696000F0BB
:1010700023F86A683049294BC2F30312895CC840DF
:1010800018602848006800F0D5FA0020BDE8F0811B
:10109000306800F007008045D6D200F003F8D3D0C6
:1010A0000120F3E73168C90848EAC10131603068BE
:1010B00000F0070040457047204919480A6802F0CF
:1010C0000C03082B00D0704710B500BF1EA4C2F35C
:1010D0008343D203E35C08D5096858431EA3C1F3D8
:1010E00040415A5CB0FBF2F010BD18461449484329
:1010F00010BD0A48114A006813681249C3F302225E
:1011000006E006480D4A006813680E49C3F3C22280
:10111000895CC84070470000001002400C000020AD
:1011200000127A000800002000004242800442427F
:101130000070004000200240B41900080410024072
:1011400000093D000C1B00080203040506070809FE
:101150000A0B0C0D0E0F1010010230B4002513E025
:1011600050F8042BD30744BFA9F101039A18091FB3
:10117000042942F8045BFAD213468C0744BF158059
:101180009B1CC90748BF1D7050F8041B0029E7D1FC
:1011900030BC704710B500F06DFA00F02CF800F08C
:1011A0007BFA00F0EDFAFFF78AFAFFF773FAFFF720
:1011B000A8FB264C00F01AF82068254CC16841F0C5
:1011C0001001C160FFF79FFB00F010F82068C168B4
:1011D00041F01001C160FFF796FBFFF777FBFFF7C7
:1011E00090FBFFF757FB00F0A1FAF4E701461E223F
:1011F0002046FFF710B800B58FB005A8282100F0F1
:101200002BF86846142100F027F84FF480310022B3
:10121000069107920D9101200590099002224FF44A
:10122000E0110C920E9105A8FFF732FD0221019109
:101230000F204FF4806100900022039102920492EB
:1012400002216846FFF7B4FE0FB000BDB8000020D1
:10125000F800002070470000002200F0B1BA000042
:101260002DE9F8470027BE46664A674B4FF00F0846
:1012700082460BE0D6683040D06006E094604C684F
:10128000A402F7D5D0680643D6607F1C0E6836FAF4
:1012900007F000F0A380012000FA07F52E40AE42CF
:1012A000F3D1486858B301281AD002281FD0032868
:1012B00033D0112817D012281DD0544CA0421CBF87
:1012C000534CA0421BD0534CA0421CBF524CA042D6
:1012D00015D0524CA0421CBF514CA0420FD01EE072
:1012E000D1F80CE01BE0C86800F1040E17E0C868F4
:1012F00000F1080E13E0C86800F10C0E0FE08868DA
:1013000010B94FF0040E0AE001284FF0080E14BF88
:10131000CAF81450CAF8105001E04FF0000EB6F5AC
:10132000807F03D250464FEA870C05E0A7F10804FE
:101330000AF104004FEA840C046808FA0CF5AC4387
:101340000EFA0CF52C4304604868C0009DD518685F
:10135000DFF8D0C040F0010018601C6804F0010400
:101360000094BC000098B8085CF8205004F00C040D
:1013700008FA04F925EA09092B4DAA4508BF0025FA
:101380000ED02A4DAA4508BF012509D0284DAA45EF
:1013900008BF022504D0274DAA450CBF032504250C
:1013A00005FA04F444EA09044CF82040F0434C6880
:1013B000E40314684CBF3443044014604C68A40335
:1013C00054684CBF3443044054604C689568E40250
:1013D0004CBF46EA050400EA05044FE7BDE8F18783
:1013E0008068084018BF0120C0B2704702B90904E4
:1013F00001617047C2680A4201D0416170470161D2
:101400007047000000040140181002400000111055
:101410000000121000002110000022100000311006
:10142000000032100800014000080140000C01409B
:1014300000100140001401400901020002D42948B3
:1014400081547047284B02F00F021A4402F8041C22
:101450007047264B19684FF6FF020002114000F456
:10146000E0600843224908431860704738B51F4BB5
:101470001C68C4F30223C3F10704052C28BF04240D
:101480001D1D072D34BF0023DB1E012505FA04F4C2
:10149000641E2140994005FA03F35B1E1A40114374
:1014A000BDE83440C8E7010007D4012200F01F0165
:1014B000104B8A40400943F82020704710B5401E69
:1014C000B0F1807F01D3012010BD0B4C60600F2173
:1014D0004FF0FF30FFF7B0FF0021A1600720206030
:1014E000002010BD00E400E018ED00E00CED00E08D
:1014F0000000FA0500E100E010E000E004E010F870
:10150000013B6BB1491C521E52B10B7890F800C0E0
:101510009C45F4D002D24FF0FF3070470120704755
:101520000020704701B58B071AD1830724D1121F01
:1015300021D351F8043BA3F1013C2CEA030C1CF02D
:10154000803C04BF40F8043BF1E79CFA8CFCBCFAF9
:101550008CF1C1F118018B40CB4040F8043B13E003
:10156000042A09D311F8013B521E00F8013B5BB17C
:101570008B07F7D1D9E7121D5AB111F8013B521E62
:1015800000F8013B03B1F8D111001CBF002200F0AC
:1015900031F901BD002200F02DB9000081423ABFAF
:1015A0005318984200F056B98018990707D0521E78
:1015B00024BF13F8011D00F8011DF6D870478107FC
:1015C0001BD1103A07D330B433E93210103A20E976
:1015D0003210F9D230BC1032121F24BF53F8041D50
:1015E00040F8041DF8D838BF121D521E24BF13F84E
:1015F000011D00F8011DF8D87047121FF3D3C10771
:1016000009D153F8041D121F20F8041D4FEA31417F
:101610004180F6D2E7E753F8041D121F00F8041DBD
:101620004FEA3121A0F801104FEA3141C170F2D2E6
:10163000D9E7000038B50D4D0D4B2A7804464FF41C
:101640007A711868B1FBF2F2B0FBF2F0FFF736FFE7
:1016500050B9102C08D2002221464FF0FF30FFF77E
:1016600005FFAC60002032BD012032BD000000202B
:101670000C00002080B50748016841F010010160AE
:101680000320FFF7E6FE0020FFF7D4FF00F036F955
:10169000002002BD0020024018B585B06846102128
:1016A000FFF7DAFD3048046844F010040460016874
:1016B0002E4C01F0100104910499026842F02002BE
:1016C0000260036803F0200304930499026842F067
:1016D00004020260036803F004030493049902689F
:1016E00042F0080202600022006800F00800049046
:1016F000182104982046FFF779FE0620002100906B
:1017000001910122029269462046FFF7A9FD1821A6
:101710000091012201920021029102220392694666
:101720002046FFF79DFD06B010BD000010B50F4C20
:1017300002212046FFF754FEA0B9C82000F000F9AE
:1017400002212046FFF74CFE60B9C8235FF0090272
:1017500008A10748FEF705FD2046BDE81040082116
:10176000FFF748BE10BD00001810024000080140FD
:10177000F800002041542B524F4C450D0A00000048
:1017800080B50E48016841F0010101600022006847
:1017900000F001000090022100980D20FFF766FE86
:1017A0000D20FFF780FE002202210F20FFF75EFED2
:1017B000BDE802400F20FFF776BE00BF14100240C4
:1017C00000B500BF130096469446103928BFA0E824
:1017D0000C50FAD85FEA417C28BF0CC048BF40F8E3
:1017E000042BC90728BF20F8022B48BF00F8012BA3
:1017F00000BD0000401810F0030308D0C91A1FD321
:10180000DB0748BF00F8012D28BF20F8022D130088
:1018100030B414461546103928BF20E93C00FAD8E8
:10182000490728BF20E90C0048BF40F8042D890073
:1018300028BF20F8022D48BF00F8012D30BC7047AA
:10184000C91818BF00F8012DCB0728BF00F8012DDB
:101850007047000062B38B0708D0521E11F8013B9D
:1018600000F8013B00F024808B07F6D1830740F09D
:10187000208000BF103A07D330B4B1E83810103AD6
:10188000A0E83810F9D230BC530724BFB1E80810E3
:10189000A0E8081044BF51F8043B40F8043BD207CD
:1018A00024BF31F8022B20F8022B44BF0B780370C1
:1018B0007047121F17D35B0009D151F8043B20F881
:1018C000023B1B0C121F20F8023BF6D20BE051F832
:1018D000043B00F8013B1B0A20F8023B1B0C121FC3
:1018E00000F8013BF3D238BF121D521E24BF11F87D
:1018F000013B00F8013BF8D8704700000E4881B06A
:10190000016841F001010160026802F001020092E9
:101910000099426842F080524260406800F0805076
:10192000009000980548016821F0E06141F00071E5
:10193000016001B0704700BF181002400400014070
:1019400038B50446FEF7FAFF14F1010F054602D040
:10195000044908780419FEF7F1FF401BA042FAD3AE
:1019600031BD00BF0000002010B50E4A0E491068BE
:1019700040F00100106053680C480B40536014683D
:1019800004401460116821F4802111604FF41F019C
:10199000506820F4FE00506091604FF00060044AEF
:1019A000106010BD001002400000FFF8FFFFF6FEBF
:1019B00008ED00E000000000000000000102030448
:1019C000060708097047FEE7FEE7FEE7FEE77047F7
:1019D0007047704700F01CB80948FFF791B80948F4
:1019E000FFF78EB810B5084C01E010B5074C204643
:1019F000FEF71DFF2046BDE81040FEF785BC000045
:101A00005400002010000020B8000020F800002042
:101A100002494A68087882184A607047000000202E
:101A200030B450F8041B79B10268436802440830AE
:101A3000DC0744BFA9F10104E31852F8045B43F842
:101A4000045B091FF9D1ECE730BC704710B50749BA
:101A500079441831064C7C44163404E00A68081DA9
:101A6000114488470146A142F8D110BD080000008A
:101A700028000000E7F6FFFF6801000010000020CA
:101A8000000000009DFFFFFF100000006400000048
:101A9000000000200000000000F00DF8002801D038
:101AA000FFF7D4FFAFF300800020AFF30080FFF713
:101AB00071FB00F002F80120704700F001B800004F
:101AC0000746384600F002F8FBE7000080B5AFF3A8
:101AD0000080024A11001820ABBEFBE7260002007E
:101AE000014880470148004769190008011B0008A8
:101AF0000100000000000000100000000024F400BD
:101B0000AFF30080AFF30080FFF7C6FF00000000D6
:101B100001020304FFF7FEBFFFF7FEBFFFF7FEBFA2
:101B2000FFF7FEBFFFF7FEBFFFF7FEBFFFF7FEBFE9
:101B3000FFF7FEBFFFF7FEBFFFF7FEBFFFF7FEBFD9
:101B4000FFF7FEBFFFF7FEBFFFF7FEBFFFF7FEBFC9
:101B5000FFF7FEBFFFF7FEBFFFF7FEBFFFF7FEBFB9
:101B6000FFF7FEBFFFF7FEBFFFF7FEBFFFF7FEBFA9
:101B7000FFF7FEBFFFF7FEBFFFF7FEBFFFF7FEBF99
:101B8000FFF7FEBFFFF7FEBFFFF7FEBFFFF7FEBF89
:101B9000FFF7FEBFFFF7FEBFFFF7FEBFFFF7FEBF79
:101BA000FFF7FEBFFFF7FEBFFFF7FEBFFFF7FEBF69
:0400000508001B01D3
:00000001FF
