:020000040800F2
:1000000040160020A54900084D4700084F4700084A
:1000100000000000000000000000000000000000E0
:100020000000000000000000000000005147000830
:10003000000000000000000053470008554700087A
:1000400047470008000000004B4700087F480008B1
:10005000834900089547000897470008C1470008F2
:10006000000000007D4800088F490008C9490008C9
:10007000CB490008CD490008CF4900080000000026
:10008000D14900089347000800000000D349000848
:100090008F470008D549000891470008D749000854
:1000A000D9490008DB490008DD4900081348000869
:1000B000DB470008FFB581B05648868A564C80253C
:1000C0002D022561442000F005FE8A4F08E0B6B2FB
:1000D000002E0CD025602561442000F0FBFDF619B0
:1000E000C02000F0F7FDFF28F1D1360404D12560CF
:1000F00002207F49087000E025602561202000F083
:10010000E9FD6846007A00F0E5FD6846007B00F0F6
:10011000E1FD6846007C00F0DDFD25603D48868AF3
:100120002561442000F0D6FD08E0B6B2002E0CD0C8
:1001300025602561442000F0CDFDF619C02000F0B7
:10014000C9FDFF28F1D1360403D12560022068499A
:100150000870AA2000F0BEFD01990870AA2000F0E6
:10016000B9FD01994870AA2000F0B4FD019988708A
:10017000AA2000F0AFFD0199C870AA2000F0AAFDE6
:1001800001990871AA2000F0A5FD01994871AA20E3
:1001900000F0A0FD01998871AA2000F09BFD019953
:1001A000C871256005B0F0BDF1B500241948858AF5
:1001B000194F802636023E61442000F08BFD08E096
:1001C000ADB2002D0CD03E603E61442000F082FDB7
:1001D0006D1EC02000F07EFDFF28F1D12D0404D15A
:1001E0003E6002204249087000E03E603E61009897
:1001F0008078001D01280ADB0098005D00F06AFD90
:10020000641CE4B200988078001D8442F4DB3E60F8
:1002100001B0F0BD8C00002018000048F0B581B09E
:10022000694FBE8A694C80252D022561442000F06B
:1002300051FD08E0B6B2002E0CD0256025614420A7
:1002400000F048FD761EC02000F044FDFF28F1D1EB
:10025000360404D1256002202549087000E025609D
:100260002561012000F036FD2560BE8A256144200D
:1002700000F030FD08E0B6B2002E0CD025602561FC
:10028000442000F027FD761EC02000F023FDFF284B
:10029000F1D1360403D12560022015490870AA2047
:1002A00000F018FD3870AA2000F014FD00027880DC
:1002B000AA2000F00FFD798801437980AA2000F080
:1002C00009FD3871AA2000F005FD0002F880AA207F
:1002D00000F000FDF9880143F980AA2000F0FAFC43
:1002E0003872AA2000F0F6FC7872256001B0F0BDEB
:1002F0001C0E0020FFFF0000F0B581B0324FBE8A17
:10030000324C80252D022561442000F0E3FC08E0FA
:10031000B6B2002E0CD025602561442000F0DAFC36
:10032000761EC02000F0D6FCFF28F1D1360404D19F
:10033000256002203D49087000E0256025612220EB
:1003400000F0C8FC2560BE8A2561442000F0C2FC94
:1003500008E0B6B2002E0CD025602561442000F0E4
:10036000B9FC761EC02000F0B5FCFF28F1D13604A0
:1003700003D1256002202D490870AA2000F0AAFCB4
:100380003870AA2000F0A6FC7870AA2000F0A2FC29
:10039000B870AA2000F09EFCF870AA2000F09AFC29
:1003A0003871AA2000F096FC7871AA2000F092FC27
:1003B0000002F880AA2000F08DFCF9880143F98042
:1003C000256001B0F0BD00008C000020180000483E
:1003D000F1B55748848A574D802636022E61442055
:1003E00000F078FC2F4F08E0A4B2002C0CD02E6057
:1003F0002E61442000F06EFCE419C02000F06AFC7D
:10040000FF28F1D1240404D12E600220074908708E
:1004100000E02E602E61342000F05CFC684600781D
:1004200000F058FC2E6001B0F0BD00001C0E002052
:10043000F7B53F48848A3F4D802636022E6144201E
:1004400000F048FC174F08E0A4B2002C0CD02E603E
:100450002E61442000F03EFCE419C02000F03AFC7C
:10046000FF28F1D1240404D12E60022068490870CD
:1004700000E02E602E61312000F02CFC68460078F0
:1004800000F028FC6846007900F024FC002000F011
:1004900021FC68460089C0B200F01CFC2E6003B04D
:1004A000F0BD0000FFFF0000FFB581B02048848A46
:1004B000204D802636022E61442000F00BFC554F63
:1004C00008E0A4B2002C0CD02E602E61442000F075
:1004D00001FCE419C02000F0FDFBFF28F1D1240449
:1004E00004D12E6002204A49087000E02E602E617F
:1004F000322000F0EFFB6846007900F0EBFB684625
:10050000007A00F0E7FB002000F0E4FB68468089F9
:10051000C0B200F0DFFB6846007C00F0DBFB0A980D
:1005200000F0D8FB0B9800F0D5FB2E6005B0F0BDB5
:100530008C00002018000048F2B504003648868A76
:10054000364F80252D023D61442000F0C3FB08E0BA
:10055000B6B2002E0CD03D603D61442000F0BAFBE5
:10056000761EC02000F0B6FBFF28F1D1360404D17E
:100570003D6002202649087000E03D603D61662034
:1005800000F0A8FB68460078002807D06846067887
:10059000207800F09FFB641C761EF9D13D6001B00D
:1005A000F0BDF2B504001C48868A1C4F80252D0240
:1005B0003D61442000F08EFB08E0B6B2002E0CD066
:1005C0003D603D61442000F085FB761EC02000F0B8
:1005D00081FBFF28F1D1360404D13D6002200C4993
:1005E000087000E03D603D61772000F073FB6846D5
:1005F0000078002808D068460678AA2000F06AFB38
:100600002070641C761EF8D13D6001B0F0BD000082
:100610001C0E0020FFFF00008C0000201800004886
:10062000F1B52948868A764C80252D022561442023
:1006300000F050FB224F08E0B6B2002E0CD025602F
:100640002561442000F046FBF619C02000F042FB73
:10065000FF28F1D1360404D1256002201949087021
:1006600000E025602561152000F034FB6846007825
:1006700000F030FB25601448868A2561442000F094
:1006800029FB08E0B6B2002E0CD02560256144207D
:1006900000F020FBF619C02000F01CFBFF28F1D170
:1006A000360403D12560022006490870AA2000F014
:1006B00011FBAA2000F00EFB256001B0F0BD000088
:1006C000FFFF00001C0E00208C000020F0B581B060
:1006D00080204001BB498882BB4C802525600220D8
:1006E00000F035FB25610A2000F031FB444C2D025F
:1006F0002561022000F0EEFA012000F0EBFA002064
:1007000000F0E8FA012000F0E5FAC92000F0E2FA72
:10071000C32000F0DFFA802000F0DCFA2560022020
:1007200000F015FBA748868A2561442000F0D2FA24
:10073000A64F08E0B6B2002E0CD0256025614420FB
:1007400000F0C8FAF619C02000F0C4FAFF28F1D171
:10075000360404D1256002209D49087000E0256020
:100760002561202000F0B6FA002000F0B3FA002046
:1007700000F0B0FA002000F0ADFA25609148868ABA
:100780002561442000F0A6FA08E0B6B2002E0CD095
:1007900025602561442000F09DFAF619C02000F084
:1007A00099FAFF28F1D1360403D125600220884947
:1007B0000870AA2000F08EFAAA2000F08BFAAA2076
:1007C00000F088FAAA2000F085FAAA2000F082FA48
:1007D000AA2000F07FFAAA2000F07CFAAA2000F0FC
:1007E00079FA2560FFF71AFD20207649888248882B
:1007F0007849884201D0012000E0002001B0F0BD1E
:1008000018000048F0B581B074A0FFF7CDFC00BF20
:1008100074A0FFF7C9FC00BF74A0FFF7C5FC00BFC0
:1008200074A0FFF7C1FC00BF74A0FFF7BDFC00BFC0
:1008300075A0FFF7B9FC00BF75A0FFF7B5FC00BFBE
:1008400075A0FFF7B1FC00BF77A0FFF7ADFC00BFBC
:100850007EA0FFF7A9FC00BF80A0FFF7A5FC00BFAA
:1008600082A0FFF7A1FC00BF82A0FFF79DFC00BFA4
:1008700082A0FFF799FC00BF82A0FFF795FC00BFA4
:1008800082A0FFF791FC00BF69A0FFF78DFC00BFBD
:1008900081A0FFF789FC00BF81A0FFF785FC00BFA6
:1008A00081A0FFF781FC00BF81A0FFF77DFC00BFA6
:1008B00082A0FFF779FC00BF84A0FFF775FC00BFA2
:1008C00086A0FFF771FC00BF5EA0FFF76DFC00BFC4
:1008D00086A0FFF769FC00BF57A0FFF765FC394C05
:1008E00020001830FFF760FC83A0FFF75DFC00BF1D
:1008F00085A0FFF759FC00BF87A0FFF755FC00BF9C
:1009000089A0FFF751FC00BF8BA0FFF74DFC00BF93
:100910008CA0FFF749FC20002830FFF745FC2000A1
:100920003030FFF741FC20003830FFF73DFC20005D
:100930004030FFF739FC00BF84A0FFF735FC00BF53
:1009400084A0FFF731FC00BF84A0FFF72DFCA58A2F
:10095000214F802636023E61442000F0BBF908E0BA
:10096000ADB2002D0CD03E603E61442000F0B2F9E3
:100970006D1EC02000F0AEF9FF28F1D12D0404D186
:100980003E6002201249087000E03E603E61207B1C
:1009900000F0A0F9607B00F09DF9A07B00F09AF9CF
:1009A000E07B00F097F9207C00F094F9607C00F087
:1009B00091F9A07C00F08EF9E07C00F08BF93E60AC
:1009C00001B0F0BD8C00002018040048FFFF0000BB
:1009D0001C0E0020384400001800004811000200DE
:1009E000520000001100010360000000110103002B
:1009F000033B0900110204000305000A1110050061
:100A0000640A000A12000000111103000198F300AB
:100A1000111201068100000011200C000300070CD8
:100A2000350009C9C38000051120030A00067600BD
:100A30001120034C31002000114008003D0EEEEE65
:100A4000369D20FE112203017F001D0011200C188D
:100A5000010008038000202000E8005E11200C2423
:100A600005761A05720200000012815E1120033023
:100A700001CDA00011200135E00000001120033855
:100A800011151500112004402A0CA422112005453F
:100A90000300DE010000000011200250840A000063
:100AA000112002540307000011200157000000002C
:100AB0001120055B400406782000000011210C0085
:100AC000A28126AF3FEEC8C7DBF2020811210C0C51
:100AD000070315FC0F00A28126AF3FEE11210C1871
:100AE000C8C7DBF20208070315FC0F00112307003B
:100AF0002C0E0B040C73030011500C0CFFFFFFFFB6
:100B0000FFFFFFFFFFFFFFFF11500C18FFFFFFFF6C
:100B1000FFFFFFFFFFFFFFFF11500C24FFFFFFFF50
:100B2000FFFFFFFFFFFFFFFF11500C30FFFFFFFF34
:100B3000FFFFFFFFFFFFFFFF1150063CFFFFFFFF1E
:100B4000FFFF0000111203080A0100001112020B3E
:100B5000303000001120014A3F0000001112010056
:100B60000400000030B46149880C4A6802434A60BE
:100B70000A68430113430B6082010B6813430B6047
:100B80000B6813430B600B681A430A609021C90578
:100B90000A68920092080A6082040B6813430B6093
:100BA0004B68534C1C404C604B684B608B689B00FF
:100BB0009B088B608B681A438A60CA68920092080F
:100BC000CA60CA68CA604B490A6A4B4B13400B6241
:100BD0000A6A0A62C022D2430B6813400B600B689A
:100BE00080241C430C604B680824A3434B604B6873
:100BF0004B608B6813408B608B68C0241C438C60F7
:100C0000CB681A40CA60CA68CA600A6A3B4B134084
:100C10000B620A6A0A623A4A0B6813400B600B685F
:100C200044081C430C604B682024A3434B604B6872
:100C30004B608B6813408B608B68D4431C438C6083
:100C4000CB681A40CA60CA68CA600A6A2D4B134052
:100C50000B620A6A0A622C4B0A681A400A60C208D0
:100C60000C6814430C60CC682340CB60CB68CB602D
:100C7000264900230B600C680C600C681025254386
:100C80000D600C68042525430D600C680C600C6831
:100C90000C604B604B68184348604868E023DB00F9
:100CA00003434B60086802430A6008688A0D0243E8
:100CB0000A600868402202430A6002208A680240F3
:100CC000FCD0FF20087301208A680240FCD0087B1A
:100CD00030BC704702210E4A13680B40FCD01071E3
:100CE000012011680140FCD01079704714100240B7
:100CF000FF7FFFFF00040048FF0FFFFFFFFF0FFF14
:100D0000FFF3FFFFFFFFF0FFFFFCFFFF003001409C
:100D10000830014030B581B0144C1548606020683F
:100D20000421014321600020A0606846FF2101707A
:100D3000032141700125857000F01EF82068022112
:100D40000143216020680543256001B030BD094999
:100D50004A684B689B1A8342FBD370470548416839
:100D6000490701D1012101707047000010E000E047
:100D700080BB0000280E002070B401000C781F22F8
:100D800001238878002815D00D4D20000326B0439C
:100D900028180568A407E40EFF26A640B5434E7840
:100DA000B607360EA6402E430660087802409340F0
:100DB000044802E0224093400348036070BC70473F
:100DC00000E400E000E100E080E100E050B4020057
:100DD000002008231B24CE0701D55040C0B2802636
:100DE00016405200002E00D0624049085B1EF2D12E
:100DF00050BC70471201891802780B785340037079
:100E000002794B7853400371027A8B785340037216
:100E1000027BCB785340037342780B795340437085
:100E200042794B7953404371427A8B7953404372F4
:100E3000427BCB795340437382780B7A5340837063
:100E400082794B7A53408371827A8B7A53408372D2
:100E5000827BCB7A53408373C2780B7B5340C37041
:100E6000C2794B7B5340C371C27A8B7B5340C372B0
:100E7000C27BC97B5140C173704710B40121001D72
:100E800001E001290ADB0A000378447804708478C1
:100E90004470C4788470C370521EF5D1491C001D83
:100EA0000429EEDB10BC704710B40121001D01E0E5
:100EB00001290ADB0A00C3788478C47044788470FE
:100EC000047844700370521EF5D1491C001D04299A
:100ED000EEDB10BC704770B404210F22804B0F264C
:100EE00004782500B54314402C191C5D0470447827
:100EF0002500B54314402C191C5D447084782500EE
:100F0000B54314402C191C5D8470C4782500B5438A
:100F100014402C191C5DC470001D491EE0D170BC2A
:100F2000704770B404210F226E4B0F260478250001
:100F3000B54314402C191C5D047044782500B5435A
:100F400014402C191C5D447084782500B54314406E
:100F50002C191C5D8470C4782500B54314402C19ED
:100F60001C5DC470001D491EE0D170BC7047F0B418
:100F700082B002780A7042784A7082788A70C278A9
:100F8000CA7002790A7142794A7182798A71C2798A
:100F9000CA71027A0A72427A4A72827A8A72C27A72
:100FA000CA72027B0A73427B4A73827B8A73C07B5C
:100FB000C873042001901031081F0378C81E0678FA
:100FC000881E0478481E057801984210920F101868
:100FD000821001989700C01B63D1414884463000BD
:100FE0000F27B8433607360F86196046805D6E4678
:100FF000F07066462000B8432407240F0019305CC7
:101000006C46A0702C00BC432D072D0F6419305D79
:101010006C46607060461C00BC431B071B0FE31846
:10102000C05C6B461870D2B21000012A02D12E4A61
:10103000107025E0022A23DB02202B4C2070521E68
:10104000D2B2531E012B1BDB0223274C2478002530
:10105000082603E0DF0701D56540EDB28027274071
:101060006400002F02D027001B247C405B08761E02
:10107000F0D11D4B1D70521ED2B2531E012BE3DA6C
:101080006846C078184A1378434068468078567896
:101090004640684640789478444068460078D57861
:1010A000454008001038007843400B7008000F38A6
:1010B000007846404E7008000E38007844408C702E
:1010C00008000D3800784540CD700198401C019013
:1010D000091D2C2800DA6FE702B0F0BC7047000051
:1010E000A013000858170008DC000020F6B589B0EE
:1010F00002A9042203780B7003794B70037A8B707A
:10110000037BCB70091D401C521EF3D10A9902A823
:10111000FFF770FE0A98103001900920079002A88E
:10112000042104780F2200BF9DA325000F26B5439C
:101130002640AC191B5D0370447800BF98A32500BE
:101140000F26B5432640AC191B5D4370847800BF61
:1011500093A325000F26B5432640AC191B5D837071
:10116000C37800BF8EA41D0095431A40AA18A25C44
:10117000C270001D491ED4D102A8FFF77EFE02AE48
:10118000042006903078694608703079C870307A4B
:101190008870307B4870684601780220FFF716FEA1
:1011A00004006846C1780320FFF710FE050068467A
:1011B00081780120FFF70AFE0100654069400C00BC
:1011C000684641780120FFF701FE604008A90870D9
:1011D000684601780120FFF7F9FD04006846C178F0
:1011E0000220FFF7F3FD0500684681780320FFF732
:1011F000EDFD0100654069400C0068464178012022
:10120000FFF7E4FD60400700684601780120FFF722
:10121000DDFD04006846C1780120FFF7D7FD050019
:10122000684681780220FFF7D1FD010065406940E2
:101230000C00684641780320FFF7C8FD60400400B9
:10124000684601780320FFF7C1FD05006846C178B4
:101250000120FFF7BBFD69460870684681780120D0
:10126000FFF7B4FD694609786940484005006846C3
:1012700041780220FFF7AAFD0100694008A8007824
:101280003070377134723173761C0698401E0690A8
:1012900000D077E76846007A0199097841406846AE
:1012A000017202A8007901994978414002A80171B0
:1012B000007A01998978414002A80172007B019966
:1012C000C978414002A801734078019909794140E9
:1012D00002A84170407901994979414002A84171C1
:1012E000407A01998979414002A84172407B019975
:1012F000C979414002A8417380780199097A414037
:1013000002A8817080790199497A414002A88171CF
:10131000807A0199897A414002A88172807B019983
:10132000C97A414002A88173C0780199097B414084
:1013300002A8C170C0790199497B414002A8C171DE
:10134000C07A0199897B414002A8C172C07B019992
:10135000C97B414002A8C1730198103001900798E1
:10136000401E079000D0DAE602A8FFF7B4FD02A8FD
:10137000FFF783FD0A220A9902A8FFF73BFD0998AF
:1013800002A904220B7803704B7803718B780372E7
:10139000CB780373091D401C521EF3D10BB0F0BD76
:1013A000637C777BF26B6FC53001672BFED7AB7622
:1013B000CA82C97DFA5947F0ADD4A2AF9CA472C0CD
:1013C000B7FD9326363FF7CC34A5E5F171D831153A
:1013D00004C723C31896059A071280E2EB27B2755B
:1013E00009832C1A1B6E5AA0523BD6B329E32F84D3
:1013F00053D100ED20FCB15B6ACBBE394A4C58CFCB
:10140000D0EFAAFB434D338545F9027F503C9FA89E
:1014100051A3408F929D38F5BCB6DA2110FFF3D26C
:10142000CD0C13EC5F974417C4A77E3D645D197320
:1014300060814FDC222A908846EEB814DE5E0BDB1A
:10144000E0323A0A4906245CC2D3AC629195E47951
:10145000E7C8376D8DD54EA96C56F4EA657AAE08AB
:10146000BA78252E1CA6B4C6E8DD741F4BBD8B8A46
:10147000703EB5664803F60E613557B986C11D9EAC
:10148000E1F8981169D98E949B1E87E9CE5528DF23
:101490008CA1890DBFE6426841992D0FB054BB164F
:1014A000F6B589B002A9042203780B7003794B705A
:1014B000037A8B70037BCB70091D401C521EF3D145
:1014C0000A220A9902A8FFF795FC0A989030019029
:1014D0000920079002A8FFF7E7FC02A8042104787E
:1014E0000F2200BF9CA325000F26B5432640AC1950
:1014F0001B5D0370447800BF97A325000F26B543FA
:101500002640AC191B5D4370847800BF92A3250070
:101510000F26B5432640AC191B5D8370C37800BF0E
:101520008DA41D0095431A40AA18A25CC270001D2C
:10153000491ED4D16846007A01990978414068462D
:10154000017202A8007901994978414002A801710D
:10155000007A01998978414002A80172007B0199C3
:10156000C978414002A80173407801990979414046
:1015700002A84170407901994979414002A841711E
:10158000407A01998979414002A84172407B0199D2
:10159000C979414002A8417380780199097A414094
:1015A00002A8817080790199497A414002A881712D
:1015B000807A0199897A414002A88172807B0199E1
:1015C000C97A414002A88173C0780199097B4140E2
:1015D00002A8C170C0790199497B414002A8C1713C
:1015E000C07A0199897B414002A8C172C07B0199F0
:1015F000C97B414002A8C17302AE04200690307836
:10160000694608703079C870307A8870307B4870CD
:10161000684601780E20FFF7D9FB04006846C178C0
:101620000B20FFF7D3FB0500684681780D20FFF7FC
:10163000CDFB0100654069400C00684641780920F7
:10164000FFF7C4FB604008A90870684601780920CC
:10165000FFF7BCFB04006846C1780E20FFF7B6FB1D
:101660000500684681780B20FFF7B0FB010065405C
:1016700069400C00684641780D20FFF7A7FB6040E9
:101680000700684601780D20FFF7A0FB04006846BC
:10169000C1780920FFF79AFB0500684681780E2083
:1016A000FFF794FB0100654069400C0068464178F3
:1016B0000B20FFF78BFB60400400684601780B208D
:1016C000FFF784FB05006846C1780D20FFF77EFB1D
:1016D00069460870684681780920FFF777FB6946FC
:1016E0000978694048400500684641780E20FFF7B8
:1016F0006DFB0100694008A80078307037713472C2
:101700003173761C0698401E069000D077E701984A
:10171000103801900798401E079000D0DAE602A822
:10172000FFF7C2FB02A8FFF7FCFB00220A9902A800
:10173000FFF760FB099802A904220B7803704B782D
:1017400003718B780372CB780373091D401C521E02
:10175000F3D10BB0F0BD000052096AD53036A53880
:10176000BF40A39E81F3D7FB7CE339829B2FFF8789
:10177000348E4344C4DEE9CB547B9432A6C2233D6D
:10178000EE4C950B42FAC34E082EA16628D924B21E
:10179000765BA2496D8BD12572F8F664866898163F
:1017A000D4A45CCC5D65B6926C704850FDEDB9DA9E
:1017B0005E154657A78D9D8490D8AB008CBCD30A8C
:1017C000F7E45805B8B34506D02C1E8FCA3F0F0268
:1017D000C1AFBD0301138A6B3A9111414F67DCEA37
:1017E00097F2CFCEF0B4E67396AC7422E7AD3585B0
:1017F000E2F937E81C75DF6E47F11A711D29C589BA
:101800006FB7620EAA18BE1BFC563E4BC6D279209B
:101810009ADBC0FE78CD5AF41FDDA8338807C731A4
:10182000B11210592780EC5F60517FA919B54A0D9C
:101830002DE57A9F93C99CEFA0E03B4DAE2AF5B011
:10184000C8EBBB3C83539961172B047EBA77D6262D
:10185000E169146355210C7D30B581B00500834CDE
:1018600010212000213000F057FD1021200000F051
:1018700053FD11212000103000F04EFD11212000F9
:10188000343000F049FD102212A1200000F048FD84
:10189000102200BF13A12000113000F041FD1322DF
:1018A00073492000213000F03BFD200010300090F3
:1018B00023003433220021002131280000F024FFCE
:1018C00031342078E8706078E871A078E87201B06F
:1018D00030BD00000000000000000000000000001B
:1018E00000083399A4D9B2E8347FBEF714FA7432F1
:1018F000A357C6AD70B50C005E490978002903D026
:10190000B2206070002015E05B4E2022C11C300028
:1019100000F006FD66203421705480252D0128003A
:1019200001F094F81B223100280001F0B3F8B12037
:101930006070FF20E070682020700120A0700421FA
:10194000200001F003F9010A21716071BE4A0621ED
:10195000200001F0FFFA70BDF0B581B007000C0067
:101960007878202837D1B94D0D223900280001F0B0
:101970005DFB00281DD0002600207873B873F87333
:101980003874787401F062F809223900002001F0FF
:1019900081F807222900002001F0A1F80D2239006A
:1019A000280001F043FB002803D022206070E6707D
:1019B00003E021206070FF20E0706820207001208B
:1019C000A0700421200001F0C1F8010A21716071AA
:1019D0009D4A06213FE0302841D19C4D0722290035
:1019E000002001F07CF82878AC281ED068280DD1A2
:1019F0000B263100280001F0A9F8A919020A0B787A
:101A00009A4203D1C0B24978884210D02220607037
:101A10000120A0700020E0700421200001F096F861
:101A2000010A21716071062112E00A26E1E73120E6
:101A300060700820A0700822E91CE01C00F070FC17
:101A40000B21200001F082F8010AE17220730D21C0
:101A5000682020707C4A200001F07CFA04E0B02865
:101A600002D13800FFF746FF01B0F0BD140D002091
:101A7000E40D0020360E0020C40D002030B581B0EA
:101A800004002078AC2802D0682802D010E0CD1ED7
:101A900000E08D1EEDB22900200001F057F8611919
:101AA000020A0B789A4203D1C0B24978884201D029
:101AB000012000E0002001B030BD30B581B005004C
:101AC0000C00AC202870A879DF210140A971210009
:101AD000280001F03BF8010A2955641CE4B228559E
:101AE000641C5320E4B22855641CE0B201B030BD40
:101AF00030B581B00500AC202870EC790834E4B230
:101B00002100280001F022F8010A2955641CE4B2E2
:101B10002855641C5320E4B22855641CE0B201B07F
:101B200030BD70B581B006B481B00025002182229D
:101B3000D200835C01220226134217D18A401A4345
:101B40008223DB00C2548A01521892008418A170CB
:101B50006846007A60706846027A0199E01C00F0DD
:101B6000DFFB812040002552267008E0012133422E
:101B7000E4D002215C07E1D503211C07DED504B0C7
:101B800070BDFCB583B007000E00F879002109187C
:101B90000905090E01910901401AC0B2009001988F
:101BA000012813DB3D00083504466846007C002808
:101BB000B44A04D029002800FFF798FA03E029006E
:101BC0002800FFF76DFC1035641EEED10098002848
:101BD00027D0019804016846007C002817D0102007
:101BE0000099401A012807DB1020411A009820189C
:101BF0003818083000F090FB3819A24A010008316B
:101C00000830FFF773FA10360098361A09E03819D1
:101C10009C4A010008310830FFF742FC0098361852
:101C2000103EF6B2F11E89B2380000F08FFFB919EC
:101C3000C91E020A0A704870532088700398067003
:101C4000002005B0F0BD0000100C0020FC0D0020AD
:101C5000FCB583B007000E00F879002109180905CA
:101C6000090E01910901401AC0B2009001980128A3
:101C700013DB3D00083504466846007C0028814A95
:101C800004D029002800FFF731FA03E029002800DA
:101C9000FFF706FC1035641EEED10098002827D00F
:101CA000019804016846007C002817D01020009994
:101CB000401A012807DB1020411A00982018381814
:101CC000083000F029FB38196E4A0100083108304D
:101CD000FFF70CFA10360098361A09E03819694AED
:101CE000010008310830FFF7DBFB00983618103E82
:101CF000F6B2F11E89B2380000F028FFB919C91EEA
:101D0000020A0A70487053208870039806700020F9
:101D100005B0F0BDF0B581B004000D00FFF7E8FE9E
:101D20000700594E022200BF10A120000C3001F024
:101D30007DF9002810D132003900200001F022F98D
:101D40006420FFF704F832003900200001F01AF98E
:101D50006420FEF7FCFF04E032003900200001F0AF
:101D600011F90020E87101B0F0BD00000001F0B5EC
:101D700081B004000F00454D0822E91C0C3001F031
:101D800055F900287AD142480090042229000D31EB
:101D9000601C01F04BF900280ED103220099A01C11
:101DA00001F044F9002807D11022BA49200014306C
:101DB00001F03CF900284ED00422611C28000D30AF
:101DC00000F0AEFA0322A11C009800F0A9FA6620E8
:101DD0006874002000F03AFE09222900002000F07B
:101DE00059FE0126BC490E70BC490E70BC4D1B2229
:101DF0002900F00200F073FE1022210014312800A7
:101E0000203000F08DFA032200992800303000F0D5
:101E100087FA662035216854F00200F017FE1B2275
:101E20002900F00200F036FE2800FFF715FD1549E5
:101E30002800FFF79CF8AB48067060792021014329
:101E40006171A94D280001F005F901F08BFC28789B
:101E500001F070FD03E060792021014361710620EB
:101E6000F8710422083421003800083000F058FAD4
:101E70000220387318207873012000E0002001B0A0
:101E8000F0BD0000140D0020080A0020FC0D002009
:101E9000F8050020F0B581B005000E000F273400D2
:101EA0002078002818D0207A384069793940884253
:101EB00012D10422691C201D01F0B8F800280BD1B2
:101EC000002020708220C000301801780122A37801
:101ED0009A409143017038E0822040003418207805
:101EE00000280CD0207A384069793940884206D1E0
:101EF0000422691C201D01F099F80028E0D08220FE
:101F000080003418207800280CD0207A3840697975
:101F10003940884206D10422691C201D01F086F850
:101F20000028CDD0C32080003418207800280CD0A1
:101F3000207A384069790F40B84206D10422691CE2
:101F4000201D01F073F80028BAD001B0F0BDF0B543
:101F500083B007001400A2480D1800950322A14980
:101F60003800093001F062F8002804D12900380057
:101F7000FFF7FDFE19E004229B49781C01F056F89A
:101F8000002800D084E0032298493800093001F08D
:101F90004DF8002804D129003800FFF7BBFE04E00B
:101FA00022000099380001F095FE002870D004222C
:101FB0008D490098401C00F0B3F978790099487178
:101FC000B87980210143009881710098FFF790FD56
:101FD000060000984079800644D50098C079002119
:101FE00009180905090E02910901401AC0B20190B1
:101FF000029801280ADB009D083504463B4A290067
:102000002800FFF773F81035641EF7D101980028F7
:102010001AD00298040110200199401A012808DB07
:102020001020411A0098019AA2188018083000F078
:1020300073F9009800192D4A010008310830FFF7A4
:1020400055F810360198361AF6B2F11E89B200988A
:1020500000F07CFD00998919C91E020A0A704870B7
:1020600053208870964D974C03225E4909373800FB
:1020700000F0DCFF002803D13300009A0A2103E0BE
:102080003300009A90480178200001F081FC28700C
:1020900003B0F0BDE40D002030B581B004001500A0
:1020A0001A00A07998210140102902D0182905D0E2
:1020B0000FE029002000FFF74AFF0AE004224A4906
:1020C000601C00F0B3FF002803D129002000FFF7B7
:1020D000E1FE01B030BD0000D5000020F204002078
:1020E000C40D0020370E0020340E0020140D0020F7
:1020F000F1B582B03A4A8718921F84182078FF28D9
:102100006BD0380001F010FE002866D16078401CCA
:10211000C0B2102800DB0020607004223249781C15
:1021200000F0FEF860784006400E202101437971EE
:102130009820B8713800FFF7DBFC0600F879002121
:1021400009180905090E01910901401AC0B2009051
:10215000019801280ADB3D00083504465B4A290046
:102160002800FEF7C3FF1035641EF7D10098002841
:1021700018D00198040110200099401A012807DBAB
:102180001020411A009820183818083000F0C4F8C0
:1021900038194E4A010008310830FEF7A7FF103603
:1021A0000098361AF6B2F11E89B2380000F0CEFC63
:1021B000B919C91E020A0A7048705320887032008B
:1021C00039000298FFF7ADFC33003A003E48017831
:1021D0003C4801F0DDFB3A49087003B0F0BD000057
:1021E00016040000C0490008090E0020C449000878
:1021F00030B581B005003648007805285DD02C0048
:102200002078002826D08120400020180188491C11
:10221000018089B2BC20400081421BDB002081216B
:10222000490060526378E21C27480178254801F094
:10223000AFFB234908702078401E207000063CD177
:102240008220C000281801780122A3789A40914387
:10225000017032E0822040002C18207800280AD03B
:102260008120400020180188491C018089B2BC20CF
:1022700040008142D2DA822080002C182078002889
:102280000AD08120400020180188491C018089B2B1
:10229000BC2040008142C1DAC32080002C18207885
:1022A00000280AD08120400020180188491C0180A4
:1022B00089B2BC2040008142B0DA01B030BD0000DC
:1022C0001C0E0020FC050020340E0020140D002000
:1022D0001D0E0020094205D0830705D00270401C66
:1022E000491EF9D170470000130030B414001500E6
:1022F000103902D310393CC0FCD2490700D30CC0BE
:1023000000D504C0890002D30280801C002900D5BA
:10231000027030BC704700000022DBE70022E3E7D8
:1023200012420FD0814202D25318984203D310B503
:1023300001F068FE08BD80185B1E1978401E017010
:10234000521EF9D1704730B4012100220368001DEC
:10235000002B0BD00468001D0C4202D04D466D1EB0
:1023600064192260241D1B1FF0D0FAE730BC7047AF
:1023700077B482B001926846007C00900021039AF5
:10238000029B03E0491CC9B25B1C521C009CA14289
:1023900008DA1C781578A54204D3AC42F2D205B015
:1023A00070BC70470021019A6B461B7C002BE5D066
:1023B000029B9B185B1E039CA418641E1E78257844
:1023C000AE4206D1002902D0761E751B0AE0002518
:1023D00008E0B54203D2711A4D1B002102E0711AC8
:1023E0004D1B01211D70521ED2B2641E5B1E002ABD
:1023F000C4D0E3E7F0B581B00500002408780028D8
:1024000016D10124481C0278002A11D1641C42789C
:10241000002A0DD1641C8278002A09D1641CC2787C
:10242000002A05D1641C001DE4B2112CEBD3112449
:10243000E4B20E191120021BD2B231002800FFF7BE
:1024400097FF012C0ADB771E12210E1BF2B2390016
:102450002800FFF78DFF6D1C641EF7D101B0F0BDA1
:1024600070B4040000251020012B1CD1131826186D
:10247000761E36784E4375191E78AD19ADB21D70B3
:10248000401E13182618761E36784E432D0A7519ED
:102490001E78AD19ADB21D702D0A401EE6D1107820
:1024A0004019107025E023185B1E1B784B435D1903
:1024B000ADB21554401E23185B1E1B784B432D0AEA
:1024C0005B199BB21354401E25186D1E2D784D4389
:1024D0001B0AEB189BB21354401E25186D1E2D7855
:1024E0004D431B0AEB189BB213541D0A401EDAD150
:1024F000157070BC7047F9B585B0160000200A0051
:102500001378002B00D0FCE0401C5378002B00D047
:10251000F7E0401C9378002B00D0F2E0401CD37809
:10252000002B00D0EDE0401C121DC0B21028E7D3F4
:102530000024E4B2081B1030049011213000FFF792
:10254000EBFE002069460871641E0394039801287D
:1025500000DAACE004980290029801780023102081
:102560003218059C2418641E24784C43E318147810
:102570001B199BB21370401E3218059C2418641E50
:1025800024784C431B0AE31814781B199BB2137070
:102590001B0A401EE4D13078C01830700024069821
:1025A0000078002817D101240698401C01780029E2
:1025B00011D1641C417800290DD1641C8178002957
:1025C00009D1641CC178002905D1641C001DE4B246
:1025D000112CEBD31124E4B20698001900901120BD
:1025E000021BD2B200993000FFF7C2FE012C0BDBB8
:1025F000350012210F1BFAB20099491E2800FFF77F
:10260000B7FE6D1C641EF6D13000042142780270C2
:1026100082784270C27882700279C270001D491EB1
:10262000F4D100203074002406980078002817D1D7
:1026300001240698401C0178002911D1641C4178BE
:1026400000290DD1641C8178002909D1641CC1784E
:10265000002905D1641C001DE4B2112CEBD3112418
:10266000E4B20698001900901120021BD2B2009922
:102670003000FFF77DFE012C0BDB350012210F1B14
:10268000FAB20099491E2800FFF772FE6D1C641E05
:10269000F6D168460079401C694608710298401CD2
:1026A0000290684600790399884200DA54E704985A
:1026B00069460979415C002310203218059C2418D2
:1026C000641E24784C43E31814781B199BB21370D2
:1026D000401E3218059C2418641E24784C431B0AA3
:1026E000E31814781B199BB213701B0A401EE4D127
:1026F0003078C018307006993000FFF77BFE07B0C5
:10270000F0BD1022141A14E7F3B587B016001C00B0
:102710000825002130000278002A15D1491C427892
:10272000002A11D1491C8278002A0DD1491CC27897
:10273000002A09D1491C001DC9B21029EBD300277A
:10274000FFB2002F03D173E11020471AF8E71022DF
:1027500008990798FFF7E4FDF61B1036307801065C
:102760001CD440000725010618D4400006250106A8
:1027700014D440000525010610D4400004250106AC
:102780000CD440000325010608D4400002250106B0
:1027900004D440060125000E00D100254000694602
:1027A00008706D1EEDB2002D23D0A548A549086024
:1027B0000E9B220007990846FFF79DFE1022611C20
:1027C0000798FFF7ADFD6846007800060AD50E9B16
:1027D000220007990898FFF78EFE1022611C0798C7
:1027E000FFF79EFD684600784000694608706D1E40
:1027F000DBD1761C05960020934908707F1E049754
:102800000498012800DA13E105988F490978405CA3
:10281000694608700820039089488A4908600020AA
:1028200007990A78002A00D004E1401C4A78002A5F
:1028300000D0FFE0401C8A78002A00D0FAE0401C5B
:10284000CA78002A00D0F5E0401C091DC0B210284B
:10285000E7D30025EDB20798401B103002901121FC
:102860002000FFF759FD00266D1E019501980128F3
:102870003EDB029D2878002210216718079B5B1819
:102880005B1E1B7843439A183B78D3189BB23B706E
:10289000491E6218079F7F187F1E3F7847431B0A17
:1028A000FB181778DB199BB213701A0A491EE4D182
:1028B0002078801820700E992000FFF79BFD2000E3
:1028C00004214278027082784270C2788270027964
:1028D000C270001D491EF4D1002020740E99200002
:1028E000FFF788FD761C6D1CF6B201988642C1DBAD
:1028F000012322000298815D0798FFF7B1FD0E9930
:102900002000FFF777FD1022611C0798FFF708FDF4
:1029100068460078000677D5002007990A78002AD3
:1029200000D08AE0401C4A78002A00D085E0401C94
:102930008A78002A00D080E0401CCA78002A7CD126
:10294000401C091DC0B21028E8D30025EDB207983D
:10295000401B1030029011212000FFF7DDFC002603
:102960006D1E0195019801283EDB029D287800220A
:1029700010216718089B5B185B1E1B7843439A184D
:102980003B78D3189BB23B70491E6218089F7F1892
:102990007F1E3F7847431B0AFB181778DB199BB251
:1029A00013701A0A491EE4D12078801820700E99FD
:1029B0002000FFF71FFD200004214278027082787A
:1029C0004270C27882700279C270001D491EF4D133
:1029D000002020740E992000FFF70CFD761C6D1C62
:1029E000F6B201988642C1DB012322000298815D84
:1029F0000898FFF735FD0E992000FFF7FBFC102229
:102A0000611C0798FFF78CFC684600784000694617
:102A100008700398401E039000D0FDE60A48007835
:102A2000401C09490870C0B20499884200DAEBE6FC
:102A300009B0F0BD10210D1A0CE710210D1A85E721
:102A4000AAAA000000300040330E002010B43B4919
:102A50003B4A0A603B4A0A6000228A6001228B6876
:102A60001340FCD1CB6802241C43CC60364BC01809
:102A70000861C86840230343CB6088681040FCD1DC
:102A8000C86802229043C860C86880220243CA60B6
:102A900010BC7047F0B4294B294C1C60294C1C60B9
:102AA00000249C60002A14D001240D88264E86192B
:102AB0009F682740FCD1DF682743DF6035809D6831
:102AC0002540FCD1DD68A543DD60801C891C521EB9
:102AD000EBD1D86880210143D960F0BC7047F0B4D5
:102AE0000024002A28D09507AD0F174B002D07D0E2
:102AF000C65AA4B26700CE53801C641C6D1EF7D169
:102B0000920819D0C55AA4B266008D53801C641C6B
:102B1000C55AA4B266008D53801C641CC55AA4B269
:102B200066008D53801C641CC55AA4B266008D5388
:102B3000801C641C521EE5D1F0BC7047042002408A
:102B400023016745AB89EFCD00C0000802000E48A5
:102B5000002900D1704770B40F2300BF0BA4157873
:102B6000521C06006E401E407600A65B00117040AD
:102B700080B22D0945401D406D00655B000968402D
:102B8000491EECD170BC7047FFFF0000000001CC73
:102B900001D8001401F0003C002801E401A0006C01
:102BA000007801B40050019C01880044F0B581B068
:102BB00080208002A1490A6802430A608A681043A3
:102BC00088609020C005016A9D4A0A400262016A3D
:102BD000802252000A4302623021C94302680A403F
:102BE00002600268202313430360426804239A436F
:102BF0004260042742683A43426082680A40826029
:102C00001022836813438360C3681940C160C168A0
:102C10000A43C260016A8B4A0A400262016ABA0230
:102C20000A430262C021C94302680A400260026886
:102C3000802313430360426808239A4342600824B8
:102C400042682243426082680A4082604022836870
:102C500013438360C3681940C160C1680A43C260FE
:102C6000BB4D00202860686028682860686868603C
:102C7000D048E86068461C210170012646708670C5
:102C8000FEF77AF828682021014329602868044368
:102C90002C60286807432F60286806432E6001B027
:102CA000F0BD30B581B065480168802292020A43C8
:102CB000026041688022D2010A4342609020C00530
:102CC000416AF02291434162416A10220A43426202
:102CD000B94902680A400260802212030368134364
:102CE00003604368C04C1C40446043684360836891
:102CF0000B408360836854081C438460C368194098
:102D0000C160C1680A43C260416A4D4A0A404262DA
:102D1000416A802252000A434262BF4902680A4067
:102D20000260802292030368134303604368BB4C34
:102D30001C4044604368436083680B408360836841
:102D400054081C438460C3681940C160C1680A43C9
:102D5000C260B34C00202060606020682060606822
:102D600060609448E06068461B2101700125457051
:102D70008570FEF701F8206820210143216020685A
:102D8000082101432160206804210143216020685B
:102D90000543256001B030BD0A780C2A4DD801A347
:102DA0009B5C9F440C949494949494941E24486245
:102DB0007200682841D188700120FF22921C88543B
:102DC000082039E0C870092036E0002802D10871D7
:102DD0000B2008E0212804DB0020FF22921C8854ED
:102DE0002AE008710A2008700320487070474A786A
:102DF0008A1890704878401C4870C0B20A79D21C7A
:102E000090421ADB0B2017E04A788A1890704878B5
:102E1000401C48700C200FE04A788A18907048785F
:102E2000401C48704A48026820239A4302600020F0
:102E3000FF22921C88540D20087070471410024025
:102E4000FFF0FFFFFF0FFFFF0A78072A00D9704746
:102E500010B401A39B5C9F44061E3C4C5C7EA2C048
:102E6000AC2872D188700120487000226D4B1A7016
:102E7000FF239B1CC85467E04A788A1890704878F2
:102E8000401C487067480278521C0270D2B2042A73
:102E90005BDB022058E04A788A1890704878401C22
:102EA0004870032050E04A788A1890704878401C97
:102EB0004870042048E0F52842DA4A788A18907071
:102EC0004A78521C4A700022564B1A70002801D1D1
:102ED000062039E0052037E04A788A189070487853
:102EE000401C48704F480278521C02704B7AD2B294
:102EF0009A422AD300220270062025E04A788A18D6
:102F000090704878401C487046480278521C027005
:102F1000D2B2022A19DB072016E0532810D1404A0A
:102F200013682024A34313604A788A189070487865
:102F3000401C48700020FF22921C88540D2003E0A2
:102F40000020FF22921C8854087010BC70470000BB
:102F50000044004010B514002278002A01D001205E
:102F600010BD61700A000100E01CFFF7D9F90020D4
:102F7000A070012020702C48016880220A43026062
:102F8000002010BD10B514002278002A01D00120C5
:102F900010BD61700A000100E01CFFF7C1F90020BC
:102FA000A070012020701E48016880220A43026040
:102FB000002010BDE2040000FFFFF3FF01000A78CB
:102FC000012A0FD18A788818C078521C8A704B78F1
:102FD000D2B29A4206D302220A7013490A688023A9
:102FE0009A430A60C0B27047FFFDFFFF01000A78F4
:102FF000012A0FD18A788818C078521C8A704B78C1
:10300000D2B29A4206D300220A7005490A68802388
:103010009A430A60C0B27047FFFFCFFFFFFBFFFF7C
:1030200000380140380E00200044004010B402E097
:10303000401C491C521E002A09D00B7804789C427F
:10304000F6D002D20020C04302E0012000E00020C0
:1030500010BC70477C490A784B78D218897851188F
:1030600002D10A21017003E0C906890E0170491CD2
:103070004170A749A74A0378D35CCB714078105CB4
:1030800008727047F2B582B007006E4801780229D5
:103090000BD100210170A0498978491C9E4A91708A
:1030A000C9B20B2901DB012101709C4D0178042973
:1030B00006D100242C7004706148007800F03AFCBE
:1030C0002878062804D100242C7093488470B0E03E
:1030D0002878042807D100242C708F48847002209F
:1030E000FDF79EFAA9E02878032800D0A5E0002487
:1030F0002C7089498C70B978F81DFEF7BFFC002848
:1031000043D1B87B642835DA0825B8780938C10F6F
:103110000818C605360E19D07819C1796A4611808B
:10312000694609880902118069460988007A0143C5
:1031300068460180008800F0FCFFE4B23919784A43
:103140008854641CAD1CEDB2761EE5D1B978380008
:103150000F30FFF7E1F872483D18E4B22200290071
:1031600038000F30FFF7DCF821002800FFF7D4F813
:103170000834BC70797B982008400121664A1170A0
:1031800010284ED0182854D14FE0F879AC2850D1EF
:10319000B87B65284DDA642835DA0825B87809380F
:1031A000C10F0818C605360E19D07819C1796A46BC
:1031B0001180694609880902118069460988007AE8
:1031C000014368460180008800F0B3FFE4B239197A
:1031D000534A8854641CAD1CEDB2761EE5D1B97813
:1031E00038000F30FFF798F8E4B24D483D18220040
:1031F000290038000F30FFF793F821002800FFF76F
:103200008BF80834BC70B978F81DFEF737FC00283D
:103210000FD1797B9820084001213F4A1170102876
:1032200001D1102002E0182803D120200299087053
:1032300003E00348007800F07DFB03B0F0BD000020
:10324000340E00201C0E0020F8050020F1B50E0001
:1032500030780F25284215D02840012809D1894807
:10326000007800284FD10098874941188748FEF719
:1032700073FB3078F021014031702448016820222E
:103280000A4302603078F02108423CD08048077839
:10329000804C002F0CD003227F4920000930FFF71B
:1032A000C5FE002804D17D48012101700021418024
:1032B00003227B4920001030FFF7B8FE002811D010
:1032C000002F0BD0207B602108420BD00023A21CD2
:1032D000A178E01DFEF7BCFC002803D03078054043
:1032E00035700CE03300009AA178E01DFEF7D4FEA3
:1032F00030780540357009480078052803D08A48A1
:10330000007800F017FB01B0F0BD00000044004061
:10331000A4000020983B0008300E00201D0E002065
:1033200005020000F0B581B00400804F3878012814
:1033300007D17F480068400603D47B48007800F03E
:10334000F9FA7C4D7C480026017803290FD1697871
:1033500000290BD0491C6970C9B2132907DB6E70B4
:1033600006707148007800F0E5FA00E006707348D6
:10337000018800290BD00188491C018089B21329DA
:1033800005DB06803E706848007800F0D3FA2978A3
:10339000002906D0491CC9B2132902DB00210620EE
:1033A0003870297066484178364A1378022B05D167
:1033B000491CC9B2072901DB0021167041708C49F4
:1033C000FF22921C8A181378002B08D013785B1CFC
:1033D0001370DBB20A2B02DB16700D220A708549CE
:1033E000FF22921C8A181378002B08D013785B1CDC
:1033F0001370DBB20A2B02DB16700D220A70E17823
:10340000002905D0491CE170C9B2332900DBE67000
:103410002179002905D0491C2171C9B2332900DB6B
:1034200026716179002905D0491C6171C9B233291F
:1034300000DB6671017800290ED0491CC9B24A0729
:10344000520F012A04D16C4A1468022565401560A8
:10345000302913DB002111E0104B674A02241D784C
:10346000012D0AD154605A88521C5A8092B2A64C3F
:10347000A24203DB5E801E7000E05461017001B067
:10348000F0BD0000100C0020160400000E0B002000
:10349000D5000020FC0500200A0E0020F2040020C8
:1034A000C0490008F0B581B0544D554F554E504CB1
:1034B00020780D2812D1002020706178A01CFEF722
:1034C000DDFA002806D1A078682803D101208F49B1
:1034D000087003E030682021014331608B493800D7
:1034E000FFF7B4FE092229000020FFF7F8FA0D21AA
:1034F0002800FEF7C3FA0028DAD1A87A0007000FE7
:1035000083490870687C662804D101210120814A22
:10351000B95405E0002100206973A973E973297487
:103520007D49087001B0F0BD340E00201D0E002052
:1035300010040048000900201C0E0020220E00206C
:10354000300E002030B583B00400012200A9891C90
:10355000D0208001FFF7C3FA68464088C00709D52C
:10356000802073490860000272490860A078012138
:10357000014302E0A078FE210140A170644D28784B
:10358000022833DB01226946E0208001FFF7A7FA19
:10359000022069460988014209D04021644A11602D
:1035A0000421644A1160A1780843A07003E0A07868
:1035B000FD210140A1702878032817DB012201A911
:1035C000F0208001FFF78BFA042069460988014248
:1035D00008D0584902030A6042020A60A1780843F1
:1035E000A07003E0A078FB210140A17003B030BDC2
:1035F0000C0B00200409002014000048FC0D0020E2
:10360000E000002000440040F0B581B000F0A0FDD3
:103610000227494E3760FFF745FF404C1B2221002F
:10362000B802FFF75CFA01253D490D703520205C9A
:1036300066280ED10322210030313A48FEF770FE91
:103640002000FEF709F938492000FDF790FC3748C3
:103650000570376100F0DCFD00F03AFE00F09EFEE0
:103660003648FFF7F7FC00F07DF83448007800F0AA
:1036700061F9264D2800FFF765FF00F0EDFE304FA1
:10368000304C314E31483249086030780028FCD047
:10369000002030702800FFF745FE20780D281BD150
:1036A00000202070E079800607D50123621C617834
:1036B000A01CFEF766FA00280ED16378A21C1F48F2
:1036C0000178244800F064F9234908702348006811
:1036D000202101432148016029001E48FFF7D2FC48
:1036E00029003800FFF7B2FD280000F083FC1C48D9
:1036F0000078052803D029003800FEF7F9FC3800CF
:10370000FEF776FDBEE700004D1D0000100E002004
:10371000D400002012040000D5000020C40D0020B9
:10372000360E0020F8050020140D0020370E002072
:10373000181400481804004818000048340E0020EF
:10374000E000002004090020280E0020AAAA0000A2
:1037500000300040FC0500201C0E00200038014015
:103760001D0E002010B50324FDF7FCF900F02FFD1D
:1037700000F08AFE03E0E4B2002C06D0641EFCF7E1
:10378000A5FF0028F7D1240607D101207D49087044
:1037900080207D490860012010BDFDF733F800202E
:1037A00010BD000030B583B004006846002100223F
:1037B00006C000236846FCF77DFC694688780A79D4
:1037C000704DD10701D50121E98008210A4201D0BD
:1037D00003222A70084201D0042031E0C10633D50B
:1037E000287900280AD10421E01CFCF7DAFEE078F1
:1037F00004280DDBC11EC9B2E01D07E0697900296C
:1038000006D04200101800012018C01CFCF7C9FEA9
:10381000FCF772FD5D48C17861704178212905DBB4
:103820004178272906DB4178482903DA2FA140781F
:10383000085C2070E078C01EA07020792070032002
:1038400068700020E8804EE0C1071ED52879002866
:103850000CD10421E01CFCF7A4FE2C21E01DFCF798
:10386000A0FEE0782F38687101200CE03021420082
:10387000101800012018C01CFCF793FE687930383E
:1038800068712879401C28712DE0810607D5002039
:10389000A87006216970C1218900605423E0800767
:1038A00021D5A978312910DB3021E87842001018A1
:1038B00000012018A12252008018FCF73DFEE87894
:1038C000401CE870A87830380CE000290BD0E8786C
:1038D0004200101800012018A12252008018FCF7A5
:1038E0002BFE0020A87003B030BD000002040608C3
:1038F0000A0C0E10121416181A1C1E202224262838
:103900002A2C2E3000323436383A3C3E4058585833
:10391000585858030507090B0D0F11131517191BDC
:103920001D1F21232527292B2D2F31333537013911
:103930003B3D3F4130B585B0050002A80021002283
:1039400006C0002302A8FCF7B5FB0E4C2078012826
:1039500015D0422D00DB41250220FCF761FE082036
:103960000190032000900023002200218848405D40
:10397000FCF79AFD0120607000202071607105B095
:1039800030BD00001C0E0020180400488C000020F0
:10399000F3B589B015001C000020009069468882AC
:1039A00006A80021002206C07A480078012800D12C
:1039B000ECE0FC2C00DBFB240AA80078422802DBA8
:1039C00041200AA908700AA80078FFF7B3FF7148E0
:1039D000806800F0ABFD00F0B9FD152100F032FE6B
:1039E00008000A30C0B2FDF7B2F96A48007803282F
:1039F00009D100200999C1229200891848706549AF
:103A000048700420C2E00020002C25D0A207920FAD
:103A100008D02B5C099E361883277F00F355401C85
:103A2000521EF6D1A10817D02A5C099B1B188326C9
:103A300076009A55401C2A5C099B1B189A55401C1D
:103A40002A5C099B1B189A55401C2A5C099B1B1871
:103A50009A55401C491EE7D10998C1218900401898
:103A600004900120049948700998FF210C314018F6
:103A70000390007800063ED40998FA31401802906D
:103A80000998F739401801902700781E092815DB9E
:103A9000019D029E093F287800F006FB6946888256
:103AA0006846808A898A000A307071700098801C8C
:103AB000C0B20090B61C6D1C7F1EECD12100019895
:103AC000FEF72AFC009A02990198FEF729FC039858
:103AD0004078F82101400398417000990298FEF760
:103AE0001BFC00990831C9B2099883225200801842
:103AF000FDF7E3FF0400099DED1CE01C28700AA8F7
:103B0000007868700120A870287869784140012009
:103B10004840E8700020049948700320FCF758FCE6
:103B200000230022002106A8FCF7C4FA0120FCF7BC
:103B300077FD09988321490046183D2C09DB2000B8
:103B40003C381449887004212800FCF7F5FC3C211E
:103B500007E000200F49887004212800FCF7ECFCE6
:103B600021003000FCF7E8FC05200A4948700120DC
:103B700004990870241DA2B2302105480AAB1B78B5
:103B8000C05CFCF755FC00200249C8700BB0F0BDCA
:103B9000983B00081C0E002018420027012802292B
:103BA000032A042B052C062D072E082F09300A3175
:103BB0000B320C330D340E350F36103711381239E5
:103BC000133A143B153C163D173E193F1A401B4152
:103BD0001C431D441E451F462047000030B581B0E0
:103BE0000C00017ACB0701D4002903D19178CD07CD
:103BF000ED0F12E08B0707D535490978022918DB4C
:103C000091788D07ED0F08E0490712D53049097802
:103C100003290EDB91784D07ED0F0521E171042298
:103C20000830010020000830FEF77AFB25730120E0
:103C300000E0002001B030BDF0B581B00B000021E4
:103C40000024057B002D00D00121057AEE0701D468
:103C5000802D09D19478E507ED0FA94203D054785F
:103C60001025254355700124057AAD070DD5184C54
:103C70002478022C27DB9478A507ED0FA94203D006
:103C8000547820252543557001240425077A2F42B6
:103C90000DD00F4C2478032C15DB94786607F60FB3
:103CA000B14206D0517840240C43547001E0002CFE
:103CB00009D0DD7104220830010008331800FEF736
:103CC0002FFB012000E0002001B0F0BD000000004B
:103CD000D4000020F4B505000E00002700240322C4
:103CE0002BA10930FFF7A2F900280ED1287A00068F
:103CF000009A04D531002800FFF79EFF03E0310051
:103D00002800FFF76BFF040009E0032205A1093535
:103D10002800FFF78BF9002801D1F771012420005A
:103D200001B0F0BD00000100F0B581B004000D004D
:103D3000002700200026AA6804210A4225D08A43D1
:103D4000AA60AA786B461A706A461278D20702D522
:103D5000012001260CE06A461278920702D501265E
:103D6000022005E06A4613780B4201D001260420A8
:103D70000521E1712072032205A120000930FEF720
:103D8000CFFA26736F70002000E0012001B0F0BD73
:103D900000002100042182680A4000D0704730B43E
:103DA0008F4AD378C478002C1ED18E4C2468250607
:103DB000EC0F09D09578AC4215D05B1CDBB2152B0B
:103DC00012D3002394700FE09478002C0BD05B1C6E
:103DD000DBB2152B08D3002400239470447801250E
:103DE0002543457000E00023D3701378022B49DB94
:103DF00053790479002C1ED17A4C2468A506EC0F67
:103E000009D01579AC4215D05B1CDBB2152B12D34F
:103E1000002314710FE01479002C0BD05B1CDBB273
:103E2000152B08D300240023147144780225254360
:103E3000457000E0002353711378032B22DBD37904
:103E40004479002C1DD1684C2468A504EC0F09D0DE
:103E50009079844214D05B1CDBB2152B11D3002364
:103E600094710EE09479002C0AD05B1CDBB2152B08
:103E700007D300240023947144782143417000E06B
:103E80000023D37130BC7047F0B581B00400A06846
:103E90000425284200D0A1E06178112211422ED0E1
:103EA000E278002A2BD1CA0707D54D4A5278002A5A
:103EB00001D0284300E0A843A060EE2008406070D5
:103EC0000126A07801224240A270E67047486B03A9
:103ED00047498027D20702D50F60036001E00F61D8
:103EE0000361D027BF013800FEF7B0FDA07806407F
:103EF00068460680012269463800FEF7CBFD384847
:103F0000007802286ADB6078222108422FD02179CC
:103F100000292CD10226304208D0A168304A5278BC
:103F2000002A01D0294300E0A943A160DD2101401E
:103F30006170A07802224240A270012020714023CB
:103F40002A482B49324202D00B60056001E00B6128
:103F50000561E027BF013800FEF778FDA078064034
:103F600068460680012269463800FEF793FD1C482A
:103F70000078032832DB6078442108422ED0617932
:103F800000292BD1284208D0A168154A5278002A6E
:103F900001D0294300E0A943A160BB210140617029
:103FA000A07804214140A17001206071C202830306
:103FB0000E48294202D00360026001E00361026101
:103FC000F026B6013000FEF741FDA07805406846B6
:103FD0000580012269463000FEF75CFD01B0F0BDAE
:103FE000D4000020100000481008004818040048C1
:103FF0001814004810B50400FFF7CCFE2000FFF7AE
:1040000043FF10BD124207D08B0706D00B78491C26
:104010000370401C521EF7D87047830706D00B78F8
:10402000491C0370401C521EF9D1704770B4103AFD
:1040300003D378C9103A78C0FBD2530701D318C90B
:1040400018C001D508C908C0D20704D30B88038063
:10405000891C801C002A01D50B78037070BC704746
:104060000121F02202400120104302094309D21825
:104070008309D2180A4002D0020008201043020926
:104080004309D218C309D2180A4002D00200042002
:10409000104302098309D218C309D218114002D073
:1040A000010002200843704730B581B00500FFF7DA
:1040B000D7FF04022801C0B2FFF7D2FF01002000A1
:1040C000084301B030BD30B4C20981090409631846
:1040D0009B1845085B1945096419A21885085219EF
:1040E00001256118C4080919294011D02A4007D0B8
:1040F0001D4002D00100102018E00100202015E032
:104100001D4002D00100402010E0010008200DE019
:104110002A4007D01D4002D00100802006E00100A7
:10412000042003E01D4002D001000220484030BCC2
:10413000704730B581B00400000AFFF7C4FFF025D6
:104140000540E0B2FFF7BFFF0009284301B030BDD2
:1041500000B581B000F0D0FA72B600F009F8FCF7B3
:10416000D9FDFEF723FDFEF79CFD62B601B000BD50
:1041700010B480208002AA490A6802430A60902293
:10418000D20513680324A343136013681C4314600F
:104190000B68184308600C20C0431168014011608F
:1041A000116804230B431360516802239943516043
:1041B0005168516091680140916091689160D16847
:1041C0000840D060D068D060936210BC70479448BB
:1041D00001688022D2020A430260924892490A682A
:1041E00002400A600A688023DB0113430B604A68BF
:1041F00080239A434A604A684A608A6802408A601B
:104200008A688A60CA681040C860C868C860704719
:1042100030B48021C903824802680A430260814B9E
:10422000824A14681C40146014680D0A2543156006
:1042300054688025AC4354605468546094681C40B2
:10424000946094689460D4682340D360D368D3604A
:10425000774B1B78022B39DB0468214301607549D9
:1042600014680C4014601468850C2543156054686C
:104270004025AC4354605468546094680C4094608A
:1042800094689460D4682140D160D168D160032BD8
:104290001CDB01682A030A430260674862490A6816
:1042A00002400A600A68AB0513430B604A68634B1F
:1042B00013404B604A684A608A6802408A608A6894
:1042C0008A60CA681040C860C868C86030BC70475F
:1042D00070B48020C00252490A6802430A60524A00
:1042E00013689B009B081360136804031C4314604D
:1042F0005368534C1C4054605368536093689B0050
:104300009B08936093689360D3689B009B08D3607D
:10431000D368D360C3089362454B1B78022B3BDB09
:104320000C6804430C603024E44315682540156094
:10433000156810262E43166055680426B54355604F
:104340005568556095682540956095689560D56875
:104350002C40D460D468D4609662032B1CDB0B68BD
:10436000184308603748116801401160116833052F
:104370000B4313605168344B0B40536051685160DC
:1043800091680140916091689160D1680840D06067
:10439000D068D0607002906270BC704710B4802109
:1043A00089021F4802680A4302601E4B9022D20510
:1043B00014681C40146014681460D4682340D360EF
:1043C000D368CC081C43D460194B1B78022B25DB27
:1043D0000468214301601D4914680C40146014688E
:1043E0001460D4682140D160D168040D0C43D460BE
:1043F000032B13DB0168802212030A430260144876
:1044000014490A6802400A600A680A60CA681040D3
:10441000C860C8688022D2040243CA6010BC7047DA
:1044200014100240FF3FFFFF000400480014004842
:10443000D4000020FFCFFFFFFFFFFFCFFFBFFFFF34
:10444000FF7FFFFFFFFF3FFFFFF7FFFFFFF3FFFFD0
:10445000FFFFFFF3000800480748084901600849CA
:10446000016000214160FA2109018160C1680029D1
:10447000FCD104490160704700300040CCCC000002
:1044800055550000AAAA0000F0B581B02148016886
:104490008022D2020A4302601F49204A13680B405F
:1044A000136013681360D3681940D160D168830C1E
:1044B0000B43D360012441682143416018480168DF
:1044C000184A0A4002600168820D0A430260164DD4
:1044D0004027E8683843E860A868A8606E4607206F
:1044E00030707470B4706846FCF746FC2868074367
:1044F0002F60062030707470B4706846FCF73CFC86
:10450000082029680143296069680843686001B090
:10451000F0BD000014100240FFCFFFFF0004004870
:104520000C000140FFF0FFFF0004014010B5040043
:10453000044800F007F900210170034800F002F977
:10454000046010BD0000002004000020F8B52F4ECC
:10455000300000F0F7F80090301D00F0F3F8040090
:104560003000083000F0EEF805000C36300000F0A6
:10457000E9F82749274A009B1B78002B36D123688E
:1045800053435B18236053435B18236053435B180A
:10459000236053435B18236053435B1823605343EA
:1045A0005B18236053435B18236053435B182360FD
:1045B00003000826276857437F1827601F60276875
:1045C00057437F1827605F60276857437F1827602D
:1045D0009F60276857437F182760DF601033761E7F
:1045E000E8D1C36F2B600123009E337023685343CF
:1045F000591821602978C906490E401801682960B8
:1046000021680160286880008008F2BD0000002059
:104610005FF36E3C0D661900F446002804D449424D
:1046200000F013F8404260474042002905D45FD0B3
:1046300000F00BF8404249426047494200F005F85B
:104640004942604703460B43E6D40022030A8B42EB
:104650000BD203098B4219D243088B422ED2411A46
:1046600000D20146524110467047FF2209023FD056
:1046700012068B4205D3121209028B4201D3121289
:10468000090203098B4219D300E0090AC3098B42CE
:1046900001D3CB01C01A524183098B4201D38B0154
:1046A000C01A524143098B4201D34B01C01A5241F7
:1046B00003098B4201D30B01C01A5241C3088B423C
:1046C00001D3CB00C01A524183088B4201D38B0027
:1046D000C01A524143088B4201D34B00C01A5241C9
:1046E000884200D3401A5241CFD20146104670474B
:1046F00008B500F029F808BD114841684160002163
:10470000C1624168A02292030A43426002214268CA
:104710000A43426042684260426842600268012384
:104720001343036002680A40FCD0016880225204EF
:104730000A4302608021890402680A40FCD0704765
:10474000001002407047FEE77047FEE77047FEE743
:10475000704770473D480168C90300D4704710B5E1
:1047600000683B4C2068401C2060FCF7F7FA246886
:104770002000FA218900FFF768FFFA2189004843E9
:10478000201A03D133480168491C016010BD7047ED
:1047900070477047704730B581B02F4C08252069AD
:1047A00028400BD02069284320612068A84320605E
:1047B0002A48FEF7F7FF20680543256001B030BDA9
:1047C0002748402142680A4006D002680823134364
:1047D0000360426811434160704710B5214C0820C6
:1047E000E169014002D0216A08432062E069800645
:1047F00004D51D49A08CC0B2FEF7CEFAE069400690
:1048000006D52068000603D51848FEF7D7FB20859B
:1048100010BD10B5164C0820E169014002D0216A94
:1048200008432062E069800604D51249A08CC0B21A
:10483000FEF70AFBE069400606D52068000603D5AE
:104840000D48FEF7D3FB208510BD000010E000E00E
:104850002C0E0020240E002004040140FC05002042
:1048600010040140004400400C0B0020100C0020FC
:104870000038014004090020080A00207047FEE7C4
:104880001148016801220A43026041680F4A0A4048
:10489000426001680E4A0A40026001680D4A0A40FF
:1048A000026041680C4A0A404260C16A0F2291438B
:1048B000C162016B094A0A400263416B01229143C4
:1048C0004163002181607047001002400CB8FF086E
:1048D000FFFFF6FEFFFFFBFFFFFFC0FFECFEFFFF49
:1048E00030B401210268001D002A0FD00368C318EC
:1048F000446808300C4202D04D466D1E64191D6894
:1049000025601B1D241D121FECD0F8E730BC70473A
:1049100010B5074979441831064C7C44163404E03C
:10492000081D0A68891888470100A142F8D110BD06
:1049300008000000280000000FDAFFFF5C0D0000F7
:10494000E00000200000000099FFFFFFE0000000F1
:1049500090000000000000200000000000F00BF8B4
:10496000002801D0FFF7D4FF0020C046C046FEF764
:104970004BFE00F002F80120704780B500F002F80D
:1049800001BDFEE70746384600F002F8FBE7FEE708
:1049900080B5C046C046024A11001820ABBEFBE7F6
:1049A000260002000148804701480047814800086E
:1049B000B5490008C046C046C046C046FFF7CEFF16
:1049C000FFFFFF00FFFFFB00FEE7FEE7FEE7FEE75D
:1049D000FEE7FEE7FEE7FEE7FEE7FEE7FEE7000094
:1049E00000000000010000000000000000000000C6
:1049F00000000000000000000000000000000000B7
:104A000000000000000000000000000000000000A6
:104A10000000000000000000000000000000000096
:104A20000000000000000000000000000000000086
:104A30000000000000000000000000000000000076
:104A40000000000000000000000000000000000066
:104A50000000000000000000000000000000000056
:104A60000000000000000000000000000000000046
:104A70000000000000000000130021000000000002
:104A80000000000011500C001003040404FFFFFF9D
:104A9000FFFFFFFF1112040D000106A21112041105
:104AA00001000222111204210001068211120425C4
:104AB0000100020A010001000100010002000000E3
:04000005080049B5F1
:00000001FF
