:020000040800F2
:10000000F0140020695B000881580008835800083C
:1000100000000000000000000000000000000000E0
:1000200000000000000000000000000087580008E9
:100030000000000000000000895800088B580008EC
:10004000335B000800000000A55B0008A75B000808
:10005000A95B0008C1580008C3580008C55800082B
:100060000000000055590008AB5B0008AD5B0008BC
:10007000AF5B0008B15B0008B35B00080000000044
:10008000B55B0008BF58000800000000B75B00081F
:10009000BB580008B95B0008BD580008BB5B0008EE
:1000A000BD5B0008BF5B0008C15B0008C35B0008C4
:1000B000E15800081A300178FE220A4002700178E7
:1000C000FD220A4002700178FB220A40027001788A
:1000D000F7220A4002700178C906C90E017000209B
:1000E0007047F0B5007801231C002500EDB2022610
:1000F00075434D196D7A002D1AD1994D994E2F786F
:10010000F4552E78761C2E70974E33702300DBB298
:1001100002267343CB185A72E4B2022254430919DF
:1001200088722878142801DB00202870F0BD641C38
:100130002500EDB2142D1CDA2500EDB20226754320
:100140004D196D7A002D14D015002600F6B2022745
:100150007E438E19767AEDB2B542E8D12500EDB234
:10016000022675434D19AD7A0600F6B2B542C4D1E8
:10017000DCE72500EDB2142DBFDB601ED6E7F3B53A
:1001800081B00899099C002738002500EDB2002DA8
:1001900022D01A00D2B2C9B28A4215D22100C9B205
:1001A000012904D10198DBB2C018807C06E0E4B2DA
:1001B000022C03D10198DBB2C018407E0200D2B2FB
:1001C00002990198FFF78DFF68480078022801D155
:1001D000012043E00B2041E0E4B2002C3DD13D0082
:1001E0001C000E00E4B2F6B2B44202D10198C07B0A
:1001F00008E01C00E4B2C9B28C4203D20198DBB221
:10020000C018807C01265A4C80214900615CC9B22B
:10021000890933000B40DBB2002B0BD1554909781B
:10022000002907D091780300DBB2994202D1310056
:10023000517035000200D2B202990198FFF751FFC8
:10024000EDB2002D04D0812040002654012005E0AD
:10025000812040002754042000E00B20FEBDF4B5AF
:1002600005000E0003242200291DEF1D380001F0B7
:100270003BFD2200691C2F1D380001F035FD009860
:100280000078C0B200090100C907C90F002907D1D1
:10029000220031000F316C1C200001F025FD06E02A
:1002A0002200310008316C1C200001F01DFD0020EF
:1002B000A872F1BD00B50023D2B2002A03D0807825
:1002C0000007000F02E040780007000F0200D2B2E2
:1002D000002A06D1012009E0C0B240080A78521C69
:1002E0000A700200D2B2D207F6D5002000BDF8B5E0
:1002F00006000D0014001F0000206946087001224E
:100300006946C448FFF7D6FF002801D0012025E048
:100310000698694609780622514371188B1C694674
:100320000978062251437118CD711C71B17EC9063E
:10033000C90E6A010A43B27601216A4612789140D9
:1003400071703900C0B2002802D10878187004E03A
:1003500003225C1C200001F0C7FC0020F2BD00005D
:10036000E30C00204C0C0020E40C0020FE0A0020CE
:10037000FC090020E20C0020F8B50D00441D280007
:100380001A30297800290AD001294DD0022976D0C7
:10039000032900D198E0072900D1A7E036E12179AF
:1003A0000A00D2B281231340812B0CD1027808239A
:1003B000134303700278FD23134003700278FB237C
:1003C0001340037003E00278F723134003700A0020
:1003D000D2B2120704D5027801231343037003E05D
:1003E0000278FE231340037001220378DBB2DB089E
:1003F00014001C40E4B2002C13D1C9B2C90608D5C0
:10040000017804230B4303700178FD230B40037034
:1004100007E00178FB230B400370017802230B43B4
:1004200003702A700120F2BD012102780B001340F5
:10043000DBB2002B0AD00222611D774801F064FC78
:10044000002819D02800FFF735FEECE70078C0B28D
:10045000C0080140C9B200290AD00222611D6E48BD
:1004600001F052FC002807D02800FFF723FEDAE74E
:100470002800FFF71FFED6E702202870D2E7007899
:10048000C0B240080100C907C90F002919D163484B
:10049000007800280AD001226149E01D01F034FCF7
:1004A00000280ED02800FFF705FEBCE703225D49B7
:1004B000E01D01F029FC002803D02800FFF7FAFD19
:1004C000B1E703202870ADE754480078002803D036
:1004D000207A5549087006E0032221000A31534C66
:1004E000200001F001FC072028709BE7012601781D
:1004F000C9B2490832000A40D2B2002A36D00020E0
:1005000069460870012269464248FFF7D3FE002879
:1005100003D02800FFF7CEFD85E74048007800288B
:100520000FD041480078694609780622514369187E
:100530008870E07A69460978062251436918C871C3
:1005400011E00322394968460078062358432818E9
:10055000C61C300001F0C8FBE07B69460978062222
:1005600051436918C871092028705BE70178C9B246
:10057000890832000A40D2B2002A22D027480078E7
:1005800000280DD000200090274B227BE17A280024
:10059000FFF7ADFE002811D02800FFF78BFD42E7E2
:1005A00001200090214B227CE17B2800FFF79FFE79
:1005B000002803D02800FFF77DFD34E70A202870CB
:1005C000D3E70078C0B2C00831000140C9B20029A9
:1005D000CBD0AF1C0322791C144801F095FB0028F6
:1005E00010D17879E17B88420CD1E07BA97EC906E5
:1005F000C90E40010843A8766E70207C38710A202D
:100600002870B2E72800FFF755FD0CE72800FFF738
:1006100051FD08E7A80C0020B50C0020D20C0020EA
:10062000450C0020400C0020E50C0020C00C0020F0
:10063000F6B583B007000E007C1D80204000351801
:100640003078002810D002285ED049D3042800D189
:10065000CBE000D2ADE0062800D196E100D23FE128
:10066000072800D11CE274E2207901210200D2B2F5
:100670000A40002A04D02A78102313432B7003E089
:100680002A78EF2313402B7002220300DBB21340C1
:10069000002B03D02B781A432A7003E02A78FD231D
:1006A00013402B700200D2B2520704D52A7840239F
:1006B00013432B7003E02A78BF2313402B70802252
:1006C000C0B21040002803D0287802432A7003E00B
:1006D00028784006400E28703170012005B0F0BD2A
:1006E0002878C0B200090100C907C90F002908D045
:1006F00002229049601D01F007FB002801D006206E
:10070000ECE702203070E8E72878C0B2C009C0B238
:10071000002847D101272878C0B2000939000140DC
:10072000C9B200290FD10822BC49E01D01F0ECFA42
:10073000002803D1287807432F7037E02878FE215E
:100740000140297032E02878C0B200093900014028
:10075000C9B200292AD00122B149E01D01F0D4FA22
:10076000002803D1287807432F701FE02878C0B2F3
:10077000800939000140C9B200290ED1BE48007875
:1007800000280AD004988078E179884205D104983D
:10079000477002208121490070542878FE210140D1
:1007A000297003E02878FE21014029700320307071
:1007B00093E72878C0B2C009C0B2002812D12878C7
:1007C0000100C907C90F00290CD0032221000831FC
:1007D000701C01F099FA002804D02A002100300092
:1007E000FFF73DFD0420307077E7002001002978F5
:1007F000C9B2C909C9B200293FD101212A78D2B2B0
:1008000012090B001340DBB2002B01D1A27C00E0E7
:10081000E27A9A4B1400E4B224091C701C78032C71
:1008200029DA1C78002C04D12C78FB2727402F7064
:1008300003E02C78042727432F702C78E4B2A40817
:100840000F002740FFB2002F12D0D2B21B780C004D
:100850009C4014402207120F002A01D00800FFE735
:100860002978F7220A40C000082108401043287068
:100870000520307031E7082030E7E27A207B7F499D
:10088000D2B212090A700A78032A27DA2A78D2B279
:1008900052081300DB07DB0F002B06D00A78030099
:1008A000DBB29A4201D1082018E7052232700A789B
:1008B000002A0ED12A78FB2313402B7000220192CC
:1008C000C0B200900B78049AC5493800FFF757FC76
:1008D00004E72878042101432970CBE70820FDE6CE
:1008E0002878C0B2C009C0B200284BD101202978B5
:1008F000C9B2090902000A40D2B2002A01D1E17C42
:1009000000E0217B0A00D2B2032A11DA0A00D2B237
:10091000002A07D12A78D2B2920803001340DBB232
:10092000002B05D10A00554B1B78D2B29A4203D254
:100930000920D3E6B50C00200A00D2B2002A0FD15C
:100940002A7803001340DBB2002B09D1812040003C
:10095000305C022802D106203070BEE60920BDE6D8
:10096000C9B2002906D12878DF210140297007206B
:100970003070B2E629780840C0B2002802D00720C3
:100980003070AAE606203070A7E62878C0B2C00909
:10099000C0B200285BD1072030702878C0B20009AF
:1009A0000100C907C90F002926D0207B69460872BB
:1009B000324E01221A49307820180C3001F0A4F987
:1009C000002804D1287820210143297003E02878E9
:1009D000DF2101402970287821210140002949D1D7
:1009E000012001906846007A00903378049A7C498F
:1009F0003800FFF7C4FB71E6E07C694608721F4EC1
:100A00000122074930782018133001F07DF90028C1
:100A100008D1287820210143297007E03B0C0020F1
:100A2000450C00202878DF210140297028782121F9
:100A3000014000291ED1022001906846007A0090F2
:100A40003378049A66493800FFF799FB46E6207B25
:100A50006946087207203070084E012284493078B8
:100A600020180C3001F050F9002809D128782021F5
:100A70000143297031E600BFE20C0020E60C0020A3
:100A80002878DF2101402970002001906846007A13
:100A900000903378049A52493800FFF770FB1DE646
:100AA00000202878C0B2C009C0B2002831D101208E
:100AB0002978C9B2090902000A40D2B2002A0FD12E
:100AC000E07C1430A1781439E27C891AF172F27A50
:100AD000C0B2211834000C34200001F005F915E0F3
:100AE0002978C9B209090840C0B200280ED0207B7D
:100AF0000D30A1780D39227B891AF172F27AC0B2D9
:100B0000211834000C34200001F0EEF80A20307077
:100B100010E0207B0D30A1780D39227B891AF1720B
:100B2000F27AC0B2211834000C34200001F0DCF855
:100B30000A20307081204000305C012801D1022061
:100B4000CCE581204000305C022801D10320C5E5BE
:100B5000C3E50A20C2E538B504000D002900C9B27A
:100B600089B2601D01F0E4F8010089B2090A89B276
:100B70002A00D2B2A2185279914201D0012009E094
:100B800080B2C0B2EDB261198979884201D00120EA
:100B900000E0002032BD38B504000D00A57028002B
:100BA000C0B2C143E1702900C9B289B2200001F08E
:100BB000BFF8010089B2090A2A00D2B2A1546D1C03
:100BC0002900C9B260546D1C0222C1492800C0B27C
:100BD0002418200001F088F8AD1C2800C0B232BDF6
:100BE000E80B002070B504000D0002229D49200092
:100BF00001F08AF8002808D00222B649200001F04E
:100C000083F8002801D0012030E0A078E178401876
:100C1000FF2801D0012029E00222AD492800C0B2FE
:100C20002018801E01F070F8002801D001201DE07E
:100C30002E1FA94D3100C9B289B2200001F078F809
:100C40002880288880B2000A80B23100C9B2615C75
:100C5000884201D0022009E02878C0B2F6B2A1197A
:100C60004978884201D0022000E0002070BD0000D9
:100C7000450C002010B50C00411C601C00F0D5FC98
:100C8000207010BDF8B50F2381781C000C40F021B6
:100C900082780A402500EDB2002D33D08F4D2E888A
:100CA000761C2E802E888E4FBE4211D22B780526C0
:100CB0001E40012E1CD1E4B2012C05D1894B1C68C9
:100CC000022666401E6013E083780B4083700FE0BD
:100CD0002E883340012B0BD1E4B2012C05D1814B7E
:100CE0001C68022666401E6002E083780B40837019
:100CF0002B88AC4CA34208DB00232B80837819405F
:100D0000817002E00021754B1980D2B2002A28D0F0
:100D100000252C00694600220A6029008170A24843
:100D2000A2490978002904D00078002809D10124BB
:100D300007E00322411C684600F0E6FF002800D1CE
:100D40000124E4B2002C0CD0280099490870994C79
:100D5000E574002001F01AF80A222100002001F0B9
:100D600058F8F1BDF8B584B00400A07E0200D2B2FC
:100D700052096578002002AB00260027C0C3083B5B
:100D8000D2B2002A6BD02A00D2B2012A05D1C0B259
:100D9000062250432018801C019000912800C0B208
:100DA0000028012817D801980079002809D0802050
:100DB0000002814908600098C07828430099C870F3
:100DC00008E0802000027D4908600098C078A843B0
:100DD0000099C870FFE702AE019800787070032296
:100DE0000198411C02A8871C380000F07DFF019883
:100DF0000079707101984079B071EDB2012D0FD179
:100E00000098C0780100C907C90F3170D025AD0125
:100E1000280000F0BBFF042202A9280000F0F9FF1F
:100E20006348017800290ED0D34DE87C99280CD076
:100E30009920E874002000F0A9FF0A222900002070
:100E400000F0E7FF01E00121017000988078F021B7
:100E5000014000988170A07EC006C00EA07605B04B
:100E6000F0BD0000E629000838B50D0004000C3480
:100E70000322C249A01C00F047FF002825D198207A
:100E8000A179014090291ED0A179084018281AD0D4
:100E9000207A0007000FA91C0A7863789A4210D1C3
:100EA0004A790300DBB29A420BD1AA7ED206D20E57
:100EB00040011043A87601206870207B0871002053
:100EC00004E0012002E0012000E0012032BD00002A
:100ED000B6510008265B0008CE0C0020D00C002084
:100EE0007202000014000048FEB5150004000C3426
:100EF00001A8A3490A6802600F26A87831000842B9
:100F00004FD002273A009F490094009800F0ECFE71
:100F100000988820207125480078002817D03A00D2
:100F20009949671D380000F0DFFE00200100E171E3
:100F30002049497B217231006172A072A878064075
:100F4000E6720C212000FFF726FE030021E03A00A4
:100F50008E49671D380000F0C7FE03273A0001A93B
:100F6000E01D0090009800F0BFFE00983A0088490C
:100F700027000A37380000F0B7FE30006073002009
:100F8000A073A8780640E67310212000FFF703FE47
:100F90000300DBB222000A217E4801F0E5F8C249D5
:100FA0000870F7BDA70E00001E0C0020D20C002018
:100FB000E20C0020380C00201804004828040048E7
:100FC000F7B582B006000C360F250498807829000A
:100FD00001406846417000242000694608702000E6
:100FE000012269460498FFF765F9002801D0002026
:100FF00070E002273A0063490196019800F074FE00
:10100000019898203071A9480078002821D03A0032
:101010005D49771D380000F067FE0398694609783E
:101020000622514340188078F0715348407B30725B
:101030007572B47268464078F0720498C078694658
:101040004978014031730D213000FFF7A4FD030002
:101050002BE03A004D49771D380000F045FE03278C
:101060003A00039869460978062359434018C11C81
:10107000F01D0190019800F037FE01983A004449B4
:1010800037000A37380000F02FFE7573B4736846D6
:101090004078F0730498C07869464978014031740B
:1010A00011213000FFF777FD0300012097490870F8
:1010B00004988078F021014004988170DBB23200FE
:1010C0000A21344801F050F877490870322001F0C5
:1010D0000AF9012005B0F0BDFEB5070008001600B2
:1010E0001D000024210021006A461170002269467B
:1010F000FFF7E0F800283DD16846457035000197BC
:10110000022632001F492F00380000F0EDFD81203B
:10111000287132001D496E1D300000F0E5FD0326E8
:101120003200019869460978062359434018C11CCA
:10113000EF1D380000F0D8FD320015492E000A36A8
:10114000300000F0D1FD0F206873AC736846407822
:10115000E87308A80078287411212800FFF71BFD08
:101160000300DBB22A006A4801780A4800F0FCFF5D
:101170004D490870F7BD0000380C0020B40C002069
:101180009C5B0008265B0008B50C0020565900083F
:10119000400C0020F4060020F7B507000D000126E2
:1011A00034008020400028180090F9793800FFF7BB
:1011B000D2FC002844D15748385C00281CD02000BD
:1011C000C0B201280CD102993800FFF7D5F804000D
:1011D00002980078092809D0029800780A28EED1F0
:1011E0000020029908702000C0B25BE0D74A029943
:1011F0002800FFF7E5FEF3E72000C0B2012808D180
:10120000029A29003800FFF713FA040028780A2808
:10121000F2D1002028702000C0B2012806D02000A2
:10122000C0B2042802D02000C0B23BE021200099C7
:101230000978014207D1FF20801C2E54042031E0A0
:101240000020C0B22EE00521009A12780A40D2B2E6
:10125000052A05D10220FF21891C6854002021E0C5
:10126000009A12781140C9B2012903D10421FF224A
:10127000921CA954009909780840C0B2202803D1D3
:101280000820FF21891C6854009800784121014002
:10129000412905D11020FF21891C6854012001E05B
:1012A0002000C0B2FEBD0000DF0C0020D20C0020E8
:1012B000F8B504000D00160002273A00C04900945A
:1012C000009800F011FD0098812020713A00BD497E
:1012D000671D380000F008FD0322691CE51D280089
:1012E00000F002FDB848407BA0723078E072E07AEE
:1012F000C0B200092073207B002805D0227B711C1E
:101300000D34200000F0F0FCF1BD0000E20C0020E4
:10131000CC0C002003030000F0B500210A000A00F5
:1013200001220B0001240B0023E02E00F6B28619E7
:1013300076782F00FFB2C75DBE420ED22C00E4B219
:10134000041964782E00F6B2865D2F00FFB2C7192B
:101350007E702E00F6B2845501246D1C2F00FFB262
:10136000BC4613271E00F6B2BE1B6746B742DCDB45
:101370005B1C1D00EDB2132D05DAE4B2002C02D087
:101380000C000D00EAE7012111E01300DBB2C318E5
:101390005B1E1B780C00E4B2045DA34206D00B0078
:1013A000DBB2C35C1400E4B20355521C491C0B00B1
:1013B000DBB2142BE9DBF0BDF2B596B01700834C1D
:1013C0000194834909684A79411D200000F08CFC92
:1013D00000252800694608700198007B69468870DE
:1013E0000198C07A0007000F694648700224220065
:1013F0007349019E300000F077FC8120019908714B
:1014000001980079042101430198017122006D497E
:101410000198441D200000F067FC03221698411C2F
:101420000198C41D200000F05FFC6748407B0199D3
:1014300088726846807800016946497801430198BE
:10144000C1726448007800286FD00CA8282100F0F1
:1014500079FF02A8282100F075FF012630005E4CBC
:101460002000FFF759FF11E002A83100C9B20222A3
:10147000514340183100C9B2615C022251437918CE
:1014800009310A7802704A784270761C3000C0B286
:1014900014280ADA3000C0B22018401E007831004B
:1014A000C9B2615C8842DFD3761E02A83100C9B29E
:1014B00002225143415C00291BD0694609780A0089
:1014C000521C6B461A700CAA3300DBB202277B4316
:1014D000C35CC9B25354694609780B005B1C6F4664
:1014E0003B703300DBB202277B43C0184078C9B29F
:1014F00050543000461EC0B20028D6D1684602784B
:101500000CA90198019B1B7BC01806000D3630000A
:1015100000F0EAFB28002F49087028002F490870C6
:1015200014212A00200000F0FDFE1698FF21891CDE
:101530004554684600780199097B41180D31C9B2BC
:101540000198FFF728FB17B0F0BD0000A80C0020A1
:1015500038B514000022FF22921CA25C102A12D17E
:1015600005001F4A21002800FFF726FF030018008E
:10157000C0B200281BD0DBB2144A1A4801782800F8
:1015800000F0F2FD13E080204000205CC0B2400972
:101590000200D207D20F002A09D080204000205C30
:1015A000DF2202408020400022544020087080202A
:1015B0004000205CBF21014080204000215431BD0B
:1015C000E6290008B50C0020380C0020F2050020A8
:1015D000D4010020E40C00204C0C0020E30C00207F
:1015E000E80B0020CC0C00207FB505000E00140095
:1015F00068460C2100F0A6FE69460D7030784870F0
:10160000701C00788870032221006846C41C2000EA
:1016100000F06AFB8024E400200000F0B7FB062203
:101620006946200000F0F5FB7FBDFEB504000D000B
:1016300068460C2100F086FE062269468020C00024
:1016400000F00AFC68460678417821708078607066
:10165000032422006846C11C2F00380000F044FB20
:1016600022006846811DEF1C380000F03DFB22007F
:10167000684601000931AC1D200000F035FB300048
:10168000C0B2FEBDFFB583B006000C9C049880215B
:101690004900405CC0B2C00969468870142501A8A1
:1016A000D3490A680260049880214900405CC0B2B6
:1016B00000090100C907C90FC9B2002900D1A5E07E
:1016C000307B69460870F07A0700FFB23F09F07A74
:1016D0000007000F694648700498FF21891C405C90
:1016E00004283ED103220498411CF01D0290029868
:1016F00000F0FAFA0298BF48407BB072307980213E
:101700000143317168460078000169464978014318
:10171000059801706846007800280BD0684602786A
:1017200031000D310598401C0290029800F0DCFA5F
:10173000029808E0022100220598401C02900298BD
:1017400000F0F0FD02980498421C0598411C059891
:101750000078FFF749FF05980078F0726846007836
:1017600030730498FF21891C405C082839D1380067
:1017700069460978C0B2884201D27F1C06E06846FB
:1017800000783900C9B2884200D1002768468078C5
:10179000002821D1049880214900405CC0B2400853
:1017A0000100C907C90FC9B2002915D03800C0B25D
:1017B000002811D10CE0032301AACD480178CD48BF
:1017C00000F022FDCC4908706D1E192000F08BFD41
:1017D0002800C0B20028EED138016946497801439B
:1017E000F1722200D2B206996846007830180500DE
:1017F0000D35280000F078FA6846007821180D3180
:10180000C9B23000FFF7C7F90400ECE06846807801
:1018100000280CD0307B69460870F07A0700FFB2D0
:101820003F09F07A0007000F694648700BE0F07C32
:1018300069460870B07C0700FFB23F09B07C000722
:10184000000F694648700498FF21891C405C0428F9
:101850005ED103220498411CF01D0290029800F012
:1018600043FA02986348407BB0723079802101438B
:10187000317168460078000169464978014305984E
:1018800001706846007800280BD068460278310065
:1018900014310598401C0290029800F025FA029835
:1018A00008E0022100220598401C0290029800F0F6
:1018B00039FD02980498421C0598411C059800784F
:1018C000FFF792FE05980078F07268460078307352
:1018D000684602780598411C30000D30029002984D
:1018E00000F002FA02982200D2B206996846007807
:1018F00030180D300290029800F0F6F90298684610
:10190000007821180D31C9B23000FFF744F9040006
:101910000498FF21891C405C082864D1380069467E
:101920000978C0B2884201D27F1C06E06846007880
:101930003900C9B2884200D1002768468078002863
:1019400019D03801694649780143F1722200D2B2B8
:10195000069968460078301805000D35280000F01B
:10196000C3F96846007821180D31C9B23000FFF77D
:1019700012F9040037E0049880214900405CC0B2AD
:1019800040080100C907C90FC9B2002914D03800A6
:10199000C0B2002810D10BE0032301AA0A21554848
:1019A00000F032FC544908706D1E192000F09BFCB9
:1019B0002800C0B20028EFD13801694649780143B8
:1019C000B1742200D2B20699F07C301805001435AB
:1019D000280000F089F9F07C21181431C9B23000D8
:1019E000FFF7D9F804002000C0B207B0F0BD000036
:1019F000A05B0008380C0020F4B505000E001C00A8
:101A000037000C3700993000FFF734F9009A3100A5
:101A10003800FFF74DFC2200D2B22900387B38187D
:101A200005000D35280000F05FF9387B21180D31D5
:101A3000C9B23800FFF7AFF8C0B2F2BDFEB5A34C93
:101A4000A3490978052952D0217800294FD0812156
:101A50004900615A491C81225200A152812149004A
:101A6000615A4C2943DB07000026300081214900E0
:101A70006052E01C0090B87A401CB87203252A001E
:101A8000B87A032148433818411C0098C01D0190C2
:101A9000019800F029F901986078011F89B2009837
:101AA00000F046F9010089B2090A009A6378D21859
:101AB000121F1170009962788918C91E0870637826
:101AC000009A0B4801780B4800F04EFB0A49087059
:101AD0002078401E2070C0B2002808D1B87A401C7F
:101AE000B872B87A032801DBBE7200E02570F7BD3A
:101AF000CC0C0020F4060020DF0C0020F1B582B0F1
:101B00000298471D73480068407969468870022230
:101B10007149380000F0F8F8002804D1012002993A
:101B20006E4A885403E0002002996C4A8854B878C1
:101B30008D285EDA05250024684680780938022160
:101B400000F02FFC06001EE02800C0B2385C694699
:101B50000880684600880002694608806846008858
:101B60002900C9B27918497808436946088068464F
:101B7000008800F07DFD02992200D2B28918584AEF
:101B80008854641CAD1C3000461EC0B20028DBD156
:101B90006846817800252A007E1D300000F0C2FBD7
:101BA0002200D2B202984E4941187E1D300000F04A
:101BB0009BF82100C9B22A000298494BC518280099
:101BC00000F0B0FB2000C01D4249096848712000A8
:101BD000C01CB8702000C0B2C01CC143F970022202
:101BE0004049E4B23819441D200000F07DF801207E
:101BF00000E00020FEBDF1B582B0150002988078AB
:101C0000472860DA00273C0038006A46108000A8A8
:101C1000801C002202800526019122E002983100FA
:101C2000C9B2405C00F05BFC6946088000A8801CDB
:101C30006946098889B2090A0170694609884170B4
:101C4000037801992200D2B28918254A8B54407832
:101C500001992200D2B28918812292008854A41CD2
:101C6000761C3000C0B22900C9B2891E8842D5DB7B
:101C7000EDB20220454329003A000198FF230A33C0
:101C8000C518280000F04EFB2200D2B2019814497A
:101C900041180198FF230A33C518280000F024F8E2
:101CA0002100C9B23A0001980D4BC518280000F078
:101CB00039FB2100491D0198822252008018C9B2C7
:101CC000FEF769FF05002800C0B2FEBDE403002056
:101CD000DE0C0020D4010020265B00080303000076
:101CE00003020000B6510008814202D25318984204
:101CF00003D300B500F0D0FC00BD521E03D38B5CB3
:101D00008354521EFBD2704710B402E0401C491CA1
:101D1000521E002A09D00B7804789C42F6D002D2D9
:101D20000020C04302E0012000E0002010BC70470A
:101D3000F2B5144900221CE00378401C0F24124D18
:101D40001E00F6B20F00BFB27E40264002277E433F
:101D5000AE5B89B209097140DBB21B110E00B6B24D
:101D600073401C4002235C432B5B89B20909594034
:101D7000521C13006C4624889BB2A342DCD308009B
:101D800080B2F2BDFFFF0000DC5A000830B53E49CA
:101D90003E4A0A603E4A0A603E4900220A60012229
:101DA0000B681340002BFAD13B4B1C6802252543DE
:101DB0001D603A4C00193A4C2060186840240443D6
:101DC0001C60086810400028FBD118680221884375
:101DD0001860186880210143196030BD30B52F4A62
:101DE000821801232B4C206818400028F9D12A487A
:101DF00005681D4305601180216819400029FBD149
:101E0000016801229143016030BD244940180088D7
:101E10007047F8B504000E0017001B481B4901600D
:101E20001B49016000251B48056009E0280080B2BD
:101E300002214143715A2000FFF7D0FFA41C6D1C02
:101E40002800390080B289B28842EFD31248016875
:101E500080220A430260F1BDF8B504000F001500AE
:101E6000002609E02000FFF7D0FF310089B20222EE
:101E70004A43B852A41C761C3000290080B289B2B3
:101E80008842EFD3F1BD00000420024023016745E2
:101E9000AB89EFCD0C2002401020024000C00008AA
:101EA0001420024010B5002400F031FC00F05AFC70
:101EB00000E0641C2000D0490968098980B288428A
:101EC000F7D310BD38B50024250002E06D1C00F0EA
:101ED0000EF8CA480178002903D02900C9B20629A2
:101EE000F4DB047031BD0120C4490870704780B52F
:101EF000FFF7D8FF00F07BFC994840889949884259
:101F000001D0FFF7F0FFBC480068006800F038FC23
:101F1000002801D0FFF7E7FF00220021002000F099
:101F2000B2FC01BDF8B50400002000220021002011
:101F300000F0A9FC8A4DA878000702D50420D149F9
:101F4000087027002879C00703D50120C121890026
:101F50007854A878800725D5A94C2078312811DB42
:101F6000A84E3078302148433818A0214900411844
:101F7000302000F0C1FC3078401C307020783038C0
:101F800020700FE0207800280CD09E480078302187
:101F900048433818A02149004118207800F0ACFCD3
:101FA00000202070A878800608D500209449087089
:101FB0000620B44908700020B3497854A878C007B7
:101FC0002BD5B24E3078002811D1791C042000F0B6
:101FD0009CFC002000F07FFC2C78791D2000C0B212
:101FE00000F093FCAA4804700120307015E0002036
:101FF00000F071FC287869460870A54C20783818E4
:10200000411D6846007800F080FC20786946097818
:10201000401820703078401C3070A878C0062DD54C
:102020009A48007800280BD1791C042000F06DFC40
:10203000002000F050FC791D287800F066FC0EE0CE
:10204000934C207800280AD0002000F044FC20782F
:102050003818411D287800F058FC00202070664890
:102060007978091F02685171B978006801710320FD
:10207000844908700020C12189007854F1BD3EB523
:1020800005000C00032000F01DFC002200210020B0
:1020900000F0F9FB022000F01EFC08200190032054
:1020A00000900023E4B2220092B200212800C0B2C6
:1020B00000F0D4FB37BD80B580214900754A11601E
:1020C00080218900744A11600100C9B2422900DBF5
:1020D0004120DC21714AC0B2105CFFF7D0FF012023
:1020E0006849087000206949087069490870002033
:1020F00002BD70B505000E001400032000F0E2FBE5
:1021000000220021002000F0BEFB012000F0E3FBD4
:102110002000C0B23D280CDB20003C383849087054
:102120005F49042000F0E8FB31003C2000F0E4FBB4
:102130000BE00020324908705949042000F0DCFB14
:1021400031002000C0B200F0D7FB2800E4B222002A
:1021500092B28021C0B200F06EFB70BD00000000A2
:10216000880C002038440000F8B51C002300DBB2C6
:10217000FC2B00DBFB240E003100C9B2422900DB3E
:102180004126009205002200D2B200998220400030
:102190002F183800FFF7A8FD2200D2B229000098BE
:1021A000FFF729FD0100091D6970AE7001242100AF
:1021B000E9706978AA784A40E9785140297180210C
:1021C0004900354A116080218900324A1160001DA2
:1021D0000200D2B28220400029183048F6B2805D59
:1021E000FFF787FF05202749087027482C54002057
:1021F000044908700020F2BDD4010020DD0C00204D
:10220000D90C0020DA0C0020F8B50E0011001D00DA
:102210002A00D2B2FC2A00DBFB253200D2B2422ACD
:1022200000DB412604002A00D2B282204000271899
:102230003800FFF759FD2800001D6070A6700120CE
:10224000E0706078A1784140E078484020718020BB
:10225000400011490860802080000E4908602D1D53
:102260002A00D2B28220400021180C48F6B2805DCC
:10227000FFF73FFF05200349087000200949087057
:102280000020F2BDDE0C002002030000DB0C002069
:10229000DC0C00202804004818040048D859000825
:1022A000F5060020DA0C002038B5184818490860F7
:1022B000184C206804210143216000201649086061
:1022C0006846FF21017003214170012529008170BA
:1022D000684600F04FFB206802210143216020681E
:1022E0000543256031BD00B50C4A116813685B1ABF
:1022F0008342FBD300BD00B5084800684007400F8B
:10230000002802D101200649087000BD80BB0000F2
:1023100014E000E010E000E018E000E0B80C00205D
:10232000D50C00201206130A1A43130C1A4300BFDF
:10233000094205D0830707D00270401C491EF9D11D
:10234000704700000022FFE71300103906D330B4B5
:102350001400150010393CC0FCD230BC490700D332
:102360000CC000D504C0890002D30280801C002963
:1023700000D502707047F446002804D4494200F0AA
:1023800013F8404260474042002905D45FD000F076
:102390000BF8404249426047494200F005F8494283
:1023A000604703460B43E6D40022030A8B420BD25C
:1023B00003098B4219D243088B422ED2411A00D214
:1023C0000146524110467047FF2209023FD01206D3
:1023D0008B4205D3121209028B4201D31212090259
:1023E00003098B4219D300E0090AC3098B4201D3C8
:1023F000CB01C01A524183098B4201D38B01C01A11
:10240000524143098B4201D34B01C01A5241030987
:102410008B4201D30B01C01A5241C3088B4201D336
:10242000CB00C01A524183088B4201D38B00C01AE3
:10243000524143088B4201D34B00C01A524188429B
:1024400000D3401A5241CFD201461046704708B51A
:1024500000F0C8FA08BD00B5F022024001210800D2
:1024600010430200D2B21209D2B20300DBB25B0900
:10247000DBB2D2180300DBB29B09DBB2D2180A40F0
:10248000002A02D00200082010430200D2B2120932
:10249000D2B20300DBB25B09DBB2D2180300DBB2BD
:1024A000DB09DBB2D2180A40002A02D00200042065
:1024B00010430200D2B21209D2B20300DBB29B0970
:1024C000DBB2D2180300DBB2DB09DBB2D218114059
:1024D000002902D0010002200843C0B200BD38B577
:1024E000040000202000C0B2FFF7B5FF0502200164
:1024F000C0B2FFF7B0FF0543280080B232BD00B57F
:1025000001210200D2B21209D2B20300DBB25B0990
:10251000DBB2D2180300DBB29B09DBB2D218030096
:10252000DBB2DB08DBB2D2180A40002A51D002002D
:10253000D2B21209D2B20300DBB25B09DBB2D2180D
:102540000300DBB2DB09DBB2D2180300DBB29B086D
:10255000DBB2D2180A40002A1DD00200D2B2120902
:10256000D2B20300DBB29B09DBB2D2180300DBB2AC
:10257000DB09DBB2D2180300DBB25B08DBB2D21896
:102580001140002903D00100102048406EE00100F6
:10259000202048406AE00200D2B21209D2B2030001
:1025A000DBB29B09DBB2D2180300DBB2DB09DBB282
:1025B000D2180300DBB25B08DBB2D218114000294D
:1025C00003D001004020484050E00100082048406E
:1025D0004CE00200D2B21209D2B20300DBB25B09B6
:1025E000DBB2D2180300DBB2DB09DBB2D218030086
:1025F000DBB29B08DBB2D2180A40002A1DD00200D1
:10260000D2B21209D2B20300DBB29B09DBB2D218FC
:102610000300DBB2DB09DBB2D2180300DBB25B08DC
:10262000DBB2D2181140002903D0010080204840BD
:102630001CE001000420484018E00200D2B2120958
:10264000D2B20300DBB29B09DBB2D2180300DBB2CB
:10265000DB09DBB2D2180300DBB25B08DBB2D218B5
:102660001140002902D0010002204840C0B200BD44
:1026700038B50400200080B2000AC0B2FFF73FFF67
:10268000F02505402000C0B2FFF739FFC0B20009B5
:102690002843C0B232BDABCD124207D08B0706D063
:1026A0000B78491C0370401C521EF7D870478307F3
:1026B00006D00B78491C0370401C521EF9D170479C
:1026C00070B4103A03D378C9103A78C0FBD25307DC
:1026D00001D318C918C001D508C908C0D20704D34E
:1026E0000B880380891C801C002A01D50B7803709D
:1026F00070BC704780200C490860704780200B49EF
:1027000008607047802000020949086070478020F7
:1027100000020849086070470748006881090800FE
:10272000C007C00F70470000180400482804004884
:1027300028000048180000481004004880B5C0B2C6
:1027400000F020FA01BD80B5FF2000F01BFA02BDA9
:1027500080B5C0B200F05CFA01BD80B5C0B200F037
:1027600045FA01BD80B5FFF7C5FF0420FFF7BBFDAB
:10277000FFF7C4FF0520FFF7B6FD00F0E9FA01BD41
:1027800038B50400207800282FD02078641C010080
:10279000C9B2112901D3042028E0002106E02278E3
:1027A0005E4B0D00EDB25A55641C491C0A00030033
:1027B000D2B2DBB29A42F2D3002300225749C0B210
:1027C00000F0CEFAFF2801D002200FE0FFF7A4FFAF
:1027D0000028D7D100220021002000F054F85048F2
:1027E00080790007CED5042000E0002032BD10B56E
:1027F0004A4C01202070230008222100012000F013
:10280000AFFA474821780170811C627812020A8071
:102810004288A3781A430A80E1780171811D2279E8
:1028200012020A80C28863791A430A80A179017270
:10283000E179417210BD10B50B00384931240C709C
:1028400048708B70100080B2000AC8700A710020B6
:1028500048718871072000F021FA10BDF8B5069D77
:10286000079E2E4C322727706070A170100080B236
:10287000000AE07022716371A571E67121000820E1
:1028800000F00CFAF1BD10B5244C202323706070C9
:10289000A170E270230008222100042000F060FAF9
:1028A0001F482178017061784170A1788170E178CA
:1028B000C1702179017161794171A1798171E179E9
:1028C000C17110BD80B5154934220A7048700220CC
:1028D00000F0E4F901BD10B5104C152121706070B5
:1028E000230002222100022000F03AFA0D4821784C
:1028F00001706178417010BD80B502000B00D2B24A
:102900000021662000F0FFF901BD80B502000B0038
:10291000D2B20021772000F0D7F901BD980C002039
:10292000880C0020880C002010B5104C222121704A
:102930006070230008222100022000F011FA0C48E8
:102940002178017061784170A1788170E178C1705F
:102950002179017161794171811DA27912020A8088
:10296000C088E2791043088010BD0000980C002058
:10297000880C002070B500218178002923D01649E9
:102980000278921004235A438B580322FF240578BF
:10299000154008267543AC40A3434478A401E4B233
:1029A00005782A4008256A4394401C430278921017
:1029B00004235A438C5001210078C006C00E814088
:1029C0000648016006E001210078C006C00E814083
:1029D0000348016070BD00BF00E400E000E100E0DA
:1029E00080E100E070476969F8B56C4801688022B1
:1029F00052010A4302606A480168802292020A4337
:102A000002608021C90202680A43026002680A4328
:102A100002600268114301609021C90508688000C6
:102A2000800808608020C0050A6802430A605D498A
:102A30000A685D4B13400B600A680A605B490A68CC
:102A4000920092080A600A681043086058480168BA
:102A500089008908016001680160564B1868564971
:102A60000140196018681860C022D24353480168B9
:102A700011400160016880240C43046050490968DA
:102A80000824A1434E4C21604D4909684C4C2160FB
:102A90004C4C2168114021602168C0250D43256000
:102AA00049490D682A400A6040220D6815430D60AF
:102AB0001D68464E2E401E601D681D60444D066810
:102AC0002E400660066880273F01374307603C4E72
:102AD00036682027BE433A4F3E60394E3668384F3D
:102AE0003E6026682E4026602668C0273F01374397
:102AF00027600C6825400D600C688025ED0025439B
:102B00000D601C68334D25401D601C681C60324CF4
:102B100003682340036080239B0005681D43056014
:102B2000086804400C60802040000C6804430C607E
:102B30002A4900240C600D680D600D6810262E4394
:102B40000E600D6804262E430E600D680D600D6842
:102B50000D60234D2C602C688026760126432E6064
:102B60002C68E026F60026432E600C6823430B6099
:102B70000B6818430860086802430A60FF2000F0F1
:102B800001F8F1BD00B5174A11688907FBD5164950
:102B900008701068C007FCD5087800BD1810024006
:102BA0001410024004000048FF7FFFFF08000048A7
:102BB0000C00004820040048FF0FFFFF00040048FD
:102BC00004040048080400480C040048FFFF0FFFFD
:102BD000FFF3FFFFFFFFF0FFFFFCFFFF00300140AE
:102BE00004300140083001400C30014070B5050050
:102BF0000C00002605E0FF20FFF7C4FF2070641CD6
:102C0000761C30002900C0B2C9B28842F3D370BD2F
:102C100070B505000C00002605E03000C0B2205C55
:102C2000FFF7B0FF761C30002900C0B2C9B288425D
:102C3000F3D370BDF8B507000E000024464D03E045
:102C400000BFFFF764FD6D1E280080B2002817D07A
:102C5000FFF758FD4420FFF771FDFFF774FD0400F6
:102C60002000C0B2FF28EBD138000100C9B2002912
:102C700003D03100C0B2FFF770FD00BFFFF747FD82
:102C8000ADB2002D00D1FEE72000C0B2FF2802D176
:102C90000120324908702000C0B2F2BD70B50500B5
:102CA0000E0001E000F04EF82C4C20780028F9D0FE
:102CB000FFF728FD31002800C0B2FFF749FDFFF7FC
:102CC00026FD0020207070BD70B5040015001E00A8
:102CD000C9B2002902D105E000F034F81F4800789D
:102CE0000028F9D0FFF70EFD2000C0B2FFF726FD47
:102CF00031002800C0B2FFF730FDFFF708FD0020CB
:102D00001649087070BD70B5040015001E00C9B2E8
:102D1000002902D105E000F015F8104800780028DD
:102D2000F9D0FFF7EFFC2000C0B2FFF707FD31003C
:102D30002800C0B2FFF70CFDFFF7E9FC00200749AF
:102D4000087070BD80B500210020FFF773FF02BD41
:102D5000002002490870704730750000E00C002028
:102D600038B514001D00C0B2FFF798FF29002000FD
:102D7000C0B2FFF75FFF32BD38B504000D006846F2
:102D800034490A78027020780D2819D1002020706B
:102D90006178A01C00F0F0FD00280BD1A078682815
:102DA00002D10120287017E02B48016820220A4335
:102DB000026011E02848016820220A4302600BE00B
:102DC00026480168264A914206D3002101609F4AA5
:102DD0000121684601F055FA31BD38B504009E481E
:102DE00001784278891880780D189C499C48FDF735
:102DF00041FF002D14D19B480100C9B2890800078A
:102E0000000F484020702078401C607020780A280D
:102E100019D12078801C20702078401C607012E04E
:102E20002800C0B280082907090F4140217020788E
:102E3000401C607020780A2805D12078801C207002
:102E40002078401C607088482178405C8749087071
:102E500031BD0000C45B000800440040B80C0020F5
:102E6000E9030000FFB581B0040081480088401CE0
:102E70007F4908807E4800887E49884222DB684678
:102E80007D490A88028000200100794A11807B492F
:102E90000A78022A08DB08706D48FFF79EFFFFF7EB
:102EA00026F8FFF70FF8CEE00878401C0870744849
:102EB0000078052806D002236A46654801787148E3
:102EC000FFF7A2F96348017802290AD100252900F9
:102ED0006B4A1170290001700A20FFF7ECF8644872
:102EE0000580674D2878032819D0042802D00628C9
:102EF00009D0A8E00220FFF7EEFC0020624908801C
:102F0000012028709FE000200100297001005E4A26
:102F10001180574908800A20FFF7CDF893E000940C
:102F2000002420002870012738005849087020002C
:102F30005549088020004E4908800020FFF7F4FC26
:102F40005348C07800990870524800684179009849
:102F5000401DFDF747FEC0B2012805D14B48047063
:102F60000A20FFF7A8F86EE0039E0098FEF7C6FD62
:102F7000494800798007800F484908703800049A52
:102F800031000098FEF708F9029D0100C9B201293D
:102F90000BD00100C9B2022902D10220287052E0F0
:102FA000C0B2032812D10220287080204000305C7B
:102FB000C0B280090740FFB2002F0BD03348047025
:102FC000320029000098FEF7C3FA3CE00A20FFF720
:102FD00072F838E029000498FDF7C4FEF17A300059
:102FE0000C3000F0C9FC002829D1B17C98200840A1
:102FF0000100C9B2102904D1287810210143297099
:1030000020E00100C9B2182904D128782021014309
:10301000297017E00100C9B2902904D12878402115
:10302000014329700EE0C0B2982804D1287880218D
:103030000143297006E00A20FFF73DF802E00A206C
:10304000FFF739F8FFE705B0F0BD0000740C002071
:10305000CC0C0020DF0C0020B40C0020E80B00207A
:10306000FC090020FD020000D85900086D01002075
:10307000CA0C0020993A000096260008D80C0020BF
:10308000DE0C0020F4060020C80C0020D60C002026
:10309000880C0020D4010020380C0020E10C002016
:1030A000F3B581B014000F2702980078384000264D
:1030B00035000299097839424FD00100C9B201297F
:1030C0000BD18E480078002800D015E101988C497A
:1030D00041188C4800F0AEFB1DE0C0B202281AD1A6
:1030E000607C6021014000290AD0002322000B32BD
:1030F000E17A20000C3000F0B7FC002800D0012558
:1031000008992000FDF7B0FE002800D001250299A3
:103110000898FDF727FE02980078F02101400298F8
:1031200001702800C0B2002806D08120400026543B
:103130000A20FEF7C0FFDFE081204000205C01286C
:1031400002D10A20FEF7B7FF300081214900605408
:103150008848016820220A43026002980078F02122
:103160000140002900D1C7E08348007800280ED034
:103170000322824920000E30FEF7C6FD002806D14A
:103180007F4801217F4A815431007F4A81520322C6
:103190007E4920001530FEF7B7FD00285CD0FF20E7
:1031A000801C205C082835D179480068427979492B
:1031B0000198794BC5182800FEF796FD01987649CD
:1031C00045186420FFF78FF8E07A009023000C3355
:1031D000724A21002800FEF755FA03007048714931
:1031E0000860DBB22A00704801787048FEF7BCFF27
:1031F0006F49087002980078074002980770FF2016
:10320000801C2654AA480078052802D00A20FEF720
:1032100052FF71E05848007800280CD10125EDB22A
:10322000002D53D0029800780740029807700A20BA
:10323000FEF741FF60E0607C602101400029EED094
:10324000002322000B32E17A20000C3000F00CFC4D
:103250000028E4D00125E2E7FF20801C205C08283C
:10326000DDD14B48006842794A4901984A4BC5185C
:103270002800FEF739FD0198474945186420FFF7FB
:1032800032F8E07A009023000C33444A21002800F1
:10329000FEF7F8F94249434A11600300DBB22A0005
:1032A0000A214248FEF760FF414908700298007801
:1032B000074002980770FF20801C26547C48007845
:1032C000052802D00A20FEF7F6FE15E0029B019ABF
:1032D000E17A20000C3000F0D3FD0298007807401E
:1032E00002980770FF20801C26547148007805283A
:1032F00002D00A20FEF7DFFEF7BD0000740C0020AC
:1033000016040000620C002000B58078002830D13F
:103310008F480178002912D00178491C017001788A
:1033200005220A40012A04D18A490A68022353402F
:103330000B60017830291CDB0021017019E0104975
:10334000104808180278012A10D10222924B1A6004
:103350000D4A89180A88521C0A800A888F4B9A42A3
:1033600007DB002213000B80027002E00220A54957
:10337000086000BD00440040D20C0020460C002034
:10338000DC01002012040000140400008C5B000823
:10339000D4010020F90600200F030000E80B0020F4
:1033A000AAAA000000300040CC0C0020F406002047
:1033B000DF0C002070B504003D4D2878012811D1A4
:1033C0009148006840060DD4904801880A00521CBC
:1033D000028089B27E2916DB002101800A20FEF7D7
:1033E0006AFE10E0287801280DD0884801880A007C
:1033F000521C028089B2864A914204DB002101807E
:103400000A20FEF758FE834EC12080003018017854
:1034100000290CD00178491C01700178FB2906DBDA
:1034200000210A00027029700A20FEF744FE7A4843
:1034300030180178002909D00178491C0170017801
:103440003F2903DB002101700620287073490878AA
:1034500002280AD1724A1078401C10701078072890
:1034600003DB00200300137008709648817C00295C
:103470000BD0827C521C010012310A70D2B20A2A8F
:1034800003DB00220A700D2101702079002807D08B
:103490002079401C20712079332801DB0020207125
:1034A0002000FFF731FF2000FDF7ECFB70BD0000AE
:1034B000DE0C002038B55948017802290AD1584954
:1034C0000A78521C0A700A78072A03DB00221300CC
:1034D0000B7002707C4C21007A48FFF74DFC7B4D4D
:1034E0007B4800907B4B7C4A21002800FFF7D8FDE9
:1034F0007A4C0A2221000020FEF7AEFC0D212000AC
:1035000000F03AFA0028D6D1A07A0007000F7449DB
:103510000870607C662805D10120724908707249E4
:1035200068540AE0002001006E4A117001006173C6
:103530000100A1730100E1732074E07C992803D19C
:1035400001206A49087002E000206849087031BD16
:10355000D60C00201400004870B5654D1B222900D0
:1035600080200001FEF778FC0124624804703520B9
:10357000285C66280FD10322290030315E4E3000CE
:10358000FEF7B2FB280000F0CFF85C49280001F0FC
:1035900059F95B48047070BD180000484D1D0000CB
:1035A0007CB504000D0068460021002206C00838E2
:1035B00004226946D0208001FEF74EFC6E4630782A
:1035C000C00708D5802000024E490860E07801213C
:1035D0000143E17003E0E078FE210140E1704348DF
:1035E000007800280DD0AC1C70782070032268464B
:1035F000811C651C2800FEF777FB70792071B0797B
:10360000607173BD2800004810040048C80C0020F9
:1036100072020000F406002002030000740C002077
:10362000D70C0020F8B501F0ADFA0224364804604A
:10363000FFF740FFFFF790FF3448046001F045FBBF
:1036400001F069FB3248FFF7C8FBFEF750FCFEF7BC
:1036500039FC0A20FEF72FFD1B4E1D4F39003000AC
:10366000FFF79EFF01F08EFB2A482B4908602B488C
:1036700001780029FBD0002101703000FFF79AFE8D
:10368000154D3B002A0031002548FFF7EBFB0F4C9E
:103690000097104B2A0031002000FFF701FD300099
:1036A00001F080FD1F480078052803D0310020007C
:1036B00000F032FC200000F0ABFC2800FEF7BEF961
:1036C000D2E70000600C0020A80C0020DC010020E4
:1036D0001C0C0020E80B0020FC090020380C002006
:1036E000D8010020D20C002012040000E20C0020BF
:1036F000B00B0020E80C0020B40C0020000B0020D0
:10370000E90C002018040048180000482800004870
:10371000CC0C0020AAAA000000300040D50C0020EC
:10372000F4060020DE0C0020F0B585B004008A48C5
:1037300003900100103102910100213101913430D8
:1037400004901025290000263200019F3800FEF762
:10375000E9FD29003200039F3800FEF7E3FD112741
:1037600039003200029800900098FEF7DBFD0098C7
:1037700039003200049E3000FEF7D4FD2A0077495C
:10378000039E3000FEF7B0FA2A0075490298451CE6
:103790002800FEF7A9FA13227249019D2800FEF7BE
:1037A000A3FA02980090049B039A0199200001F06B
:1037B00048FE0198007CE0700198407CE07101981F
:1037C000807CE07205B0F0BD70B50C0066490978E8
:1037D000002904D0B22060700020E07017E02022A1
:1037E000C11C624E35002800FEF77EFA66203421A7
:1037F000705480252D012800FEF7C8FA1B223100E5
:103800002800FEF706FBB1206070FF20E070682002
:1038100020700120A07004212000FEF789FA010029
:1038200089B2090A21716071514A0621200000F015
:1038300028FD70BDF8B505000C006878202846D139
:103840004C4F0D2229003800FEF75EFA002827D0E1
:103850000026300068733000A8733000E873300031
:103860002874300068740020FEF790FA0A222900BC
:103870000020FEF7CEFA072239000020FEF7ECFA0E
:103880000D2229003800FEF73FFA002804D121203C
:103890006070FF20E07007E022206070E67003E0B7
:1038A00021206070FF20E070682020700120A0704F
:1038B00004212000FEF73CFA010089B2090A2171B7
:1038C00060712B4A0621200000F0DBFC42E06878A2
:1038D000302838D1274D072229000020FEF7BCFAF6
:1038E0000D21280000F048F8002814D13120607024
:1038F00008221000A070E91CE51C2800FEF7F4F96E
:103900000B212000FEF714FA010089B2090AE172C6
:1039100020730D210FE0222060700120A070002094
:10392000E07004212000FEF703FA010089B2090AC1
:10393000217160710621682020700D4AC9B22000F3
:1039400000F09FFC06E06878B02803D12100280031
:10395000FFF73AFFF1BD0000000B0020485B0008B4
:10396000585B0008D00B0020E80C0020B00B0020B2
:10397000740C0020380C002038B504002078AC28E6
:1039800004D02078682801D0012020E02078AC28DD
:1039900001D1CD1E00E08D1E2900C9B289B22000E0
:1039A000FEF7C6F9010089B2090A89B22A00D2B22B
:1039B000A25C914201D0012009E080B2C0B2EDB218
:1039C00061194978884201D0012000E0002032BD11
:1039D00038B50400AC202070E57908352900C9B25B
:1039E00089B22000FEF7A4F90100080080B2000AA5
:1039F0002A00D2B2A0546D1C28000200D2B2A154F9
:103A0000401C53210200D2B2A154401CC0B232BDAE
:103A1000F8B50024230000E05B1C1D00EDB2022D70
:103A200021DA01258226F600875D2E009E4037426E
:103A3000F2D18226F600865D9D4035438226F6004F
:103A400085551D00EDB28226760075434519AB7091
:103A50006A70D2B2EE1C3000FEF746F981204000B9
:103A60002C5203202870F1BDF7B505001F00E8793E
:103A7000694608701024684600782100FEF791FC22
:103A80000600684600782100FEF78BFC684601704E
:103A9000002425E04C4A2000C0B2102148432818D9
:103AA000010008312000C0B2102358432818083004
:103AB00000F0F6FF13E03800C0B20028EAD0424A16
:103AC0002000C0B21021484328180100083120000E
:103AD000C0B2102358432818083000F06FFF641C50
:103AE00020003100C0B2C9B28842E4D368460479EC
:103AF00068460078002843D0FFB2002F2CD0002069
:103B000001000DE03200D2B210235A436B461B78FD
:103B1000D2180B00DBB2D218AA1803001372491C8A
:103B20000B00DBB210226F463F78D21B9342E9DBD9
:103B3000254A3000C0B2102148432818010008313E
:103B4000F6B210204643A819083000F037FF1034B1
:103B500068460078241A13E01B4A3000C0B21021D6
:103B60004843281801000831F6B210204643A8192E
:103B7000083000F095FF684600782418103CFFE7F5
:103B80002000C0B2032801DA01201CE0029E2000C0
:103B9000C0B2C11E89B22800FEF7CAF8010089B27E
:103BA000090A2200D2B2AA18D21E11702100C9B28D
:103BB0006918891E087053202100C9B26918491E6E
:103BC000087034700020FEBD000B0020F3B581B0FA
:103BD00005000024A94E0822F11C28000C30FEF735
:103BE00093F8002876D134000D3404222100681C9B
:103BF000FEF78AF800280ED10322B149A81CFEF76F
:103C000083F8002807D11022AE4928001430FEF7AF
:103C10007BF8002859D00422691C2000FEF764F8C4
:103C20000322A91CA64C2000FEF75EF866277774D5
:103C30000020FEF7ABF80A2231000020FEF7E9F879
:103C400001263000A04908703000A0490870A04C3F
:103C50001B22210080200001FEF7FEF8102229001F
:103C600014312000203000900098FEF73DF80098B5
:103C7000032293492000303000900098FEF734F87A
:103C800000983520275480200001FEF77FF81B2282
:103C9000210080200001FEF7BCF82000FFF744FD62
:103CA0008C49200000F0CEFD8B48067068792021F9
:103CB00001436971C448FFF790F8FEF718F9FEF761
:103CC00001F90A20FEF7F7F903E0687920210143A2
:103CD00069710124E4B2002C12D0029C0720E0712B
:103CE000042229000831250008352800FDF7FCFFD3
:103CF00000202073012060730220A073012000E0E7
:103D00000020FEBDF1B50D0000273C0000E0641C62
:103D10002000C0B2032828DA2000C0B28221490066
:103D200048432E1830780028F1D0F01C0F21027B78
:103D30008218927C0A40009B5B7919408A42E6D146
:103D400004220099491C037BC0180E30FDF7DCFFEC
:103D50000028DCD137708220C000285C0121B278B5
:103D6000914088438221C9006854F1BDF8B584B000
:103D700005000E0017000024944830180290944863
:103D80000068427993499448301800900098FDF7F4
:103D9000ABFF009890483018039003228F49280009
:103DA0000930FDF7B1FF002806D1884831182800F6
:103DB000FFF70CFF040014E004228949681CFDF79A
:103DC000A3FF00280DD10322B44928000930FDF7D4
:103DD0009BFF002805D03A000299280001F0D9F88D
:103DE0000400E4B2002C47D004227D490298441C10
:103DF0002000FDF779FF687902994871A879802140
:103E00000143029881710298FFF7E2FD694608714B
:103E100002984079800608D5012301AA68460179F5
:103E20000298FFF721FE002826D16846007900900D
:103E3000029B9B4A9B490398FDF724FC6946087145
:103E40000322664928000930FDF75EFF002809D1EA
:103E500068460379039A0A219348FEF785F9934946
:103E6000087009E068460379039A574801788E483C
:103E7000FEF77AF98D49087005B0F0BD380C0020C6
:103E800038B5040015001A00A17998200840C0B286
:103E9000102802D0182805D010E029002000FFF7D4
:103EA00065FF0BE004224E49601CFDF72DFF002842
:103EB00003D129002000FFF725FFFFE731BD0000F7
:103EC000B40C0020D00B0020D20C0020EE05002006
:103ED000B00B0020000B0020E90C002010B50021E1
:103EE0000A000A008223DB00C2540A000FE013001C
:103EF000DBB2822464006343C3180C009C700C0086
:103F00005C708124640019530C001C70521C130057
:103F1000DBB2032BEBDB10BD7CB504002B4826186D
:103F20008220C000205CFF284DD0300001F05CF8FA
:103F3000002848D12000FFF7D1FF5D48205C401CDD
:103F40005B4960545A48205C102802DB0020584925
:103F5000605404222249751C2800FDF7C5FE544810
:103F6000205C20210143717170794006400E707110
:103F70009820B0713000FFF72BFD694608700123CF
:103F80006A46684601783000FFF76EFD00281AD1B6
:103F9000444D68460378424A29003000FDF72CFD65
:103FA000694608700C356846027829002000FFF742
:103FB0002FFD684603782A00034801783A48FEF747
:103FC000D3F83A49087073BDCC0C002016040000E9
:103FD000D4010020F90600200B0200008C5B0008D1
:103FE000450C0020F8B50C00150082218900461808
:103FF0006A78E91CF71C3800FDF776FE6878707067
:10400000B470002081214900705203203070F1BD4E
:1040100070B52849097805293FD000210C00060019
:1040200000E0641C2000C0B2022836DA2000C0B2D2
:10403000822252005043351828780028F1D0812080
:104040004000285A401C81225200A8528120400082
:10405000285A4C28E5DB8120400029526B78EA1C65
:10406000154801781048FEF77FF810490870287845
:10407000401E2870C0B200280FD18220C000305CE2
:104080000121AA78914088438221C90070542A00F6
:104090002100C9B23000FFF7A5FF70BD945B000896
:1040A000E80B0020FC090020F4060020DF0C0020B3
:1040B00011040000DE0C0020CC0C0020F8B580209C
:1040C000800289490A6802430A6088490A681043E5
:1040D0000860874B1868874901401960186880217B
:1040E0004900014319603025ED439024E405206820
:1040F0002840206020682021014321607E4801681B
:1041000004229143016004270168394301607B491F
:104110000A682A400A600A68102616430E60784A28
:10412000166835401560156810262E4316601D6808
:10413000744E2E401E601D68802676012E431E6040
:10414000C023DB4325681D402560256880262E435B
:10415000266004680825AC430460082405682543EC
:10416000056008681840086040200D6805430D6030
:1041700011680B401360116808431060624D002005
:1041800028606249086028682860086808606048FC
:104190006049086068461C210170012631004170A9
:1041A000310081706846FEF7E5FB28682021014355
:1041B0002960286804432C60286807432F6028681A
:1041C00006432E60F1BD00B50A78002A0AD0082AFD
:1041D00012D0092A14D00A2A2BD00B2A37D00C2A45
:1041E0003ED04DE00200D2B2682A04D1887001208E
:1041F00088740820087043E0C870092008703FE008
:104200000200D2B2002A06D1002008710B200870EB
:10421000032048700CE00200D2B2212A03DB002008
:104220008874087004E008710A2008700320487040
:1042300026E04A788A1890704878401C4870487880
:104240000A79D21C904201DB0B20087018E04A78F2
:104250008A1890704878401C48700C2008700FE055
:104260004A788A1890704878401C4870264802683E
:1042700020239A430260002088740D200870FFE715
:1042800000BD38B514002278002A01D0012011E0C9
:104290006170C9B2E51C0A0001002800FDF724FD89
:1042A0000020A070012020701748016880220A4376
:1042B0000260002032BD00B501000A78012A10D149
:1042C00088780818C0788A78521C8A708A784B7867
:1042D0009A4206D302220A700B490A6880239A4345
:1042E0000A60C0B200BD0000141002401C10024061
:1042F00020000048FFF0FFFF0400004808000048CD
:104300000C000048FF0FFFFF004400400444004041
:10431000E20400000C44004010B502000023180025
:104320001C001C000EE0CC0700D550408024144037
:104330005200E4B2002C02D014001B226240C9B229
:1043400049085B1C1C00E4B2082CECDBC0B210BDB9
:1043500010B403780C785C40147043784C785C405F
:10436000547083788C785C409470C078C9784140F0
:10437000D17010BC7047F4B507000E003178387862
:10438000FFF7CAFF04007178F878FFF7C5FF050052
:10439000B178B878FFF7C0FF0100654069400C00B4
:1043A000F1787878FFF7B8FF21004840009908704D
:1043B00031787878FFF7B0FF040071783878FFF72C
:1043C000ABFF0500B178F878FFF7A6FF0100654064
:1043D00069400C00F178B878FFF79EFF2100484053
:1043E000009948703178B878FFF796FF040071782B
:1043F0007878FFF791FF0500B1783878FFF78CFFE8
:104400000100654069400C00F178F878FFF784FFFF
:1044100021004840009988703178F878FFF77CFFD8
:1044200004007178B878FFF777FF0500B1787878E5
:10443000FFF772FF0100654069400C00F1783878A1
:10444000FFF76AFF210048400099C870F1BD38B5F8
:104450000100C9B2012903D10120C349087013E04A
:104460000100C9B202290FDBBF4C02212170451E99
:1044700005E002212078FFF74FFF20706D1E280015
:10448000C0B2401E0128F4DAB74832BDF0B50023AF
:104490004DE01C00E4B2045D1500EDB2102675433A
:1044A0001E00F6B204277E43AD194D5D65401C0029
:1044B000E4B205551C00E4B2041924791500EDB2EC
:1044C000102675431E00F6B204277E43AD194D1920
:1044D0006D7865401C00E4B2041925711C00E4B23B
:1044E0000419247A1500EDB2102675431E00F6B2A9
:1044F00004277E43AD194D19AD7865401C00E4B228
:10450000041925721C00E4B20419247B1500EDB2D5
:10451000102675431E00F6B204277E43AD194D19CF
:10452000ED7865401C00E4B2041925735B1C1C0087
:10453000E4B2042CADDBF0BD7FB5050002A8B449A0
:104540000A6802600026340011E00100C9B20422AA
:1045500051432200D2B289186A460300DBB2D25C12
:104560006A54401C0100C9B20429EEDB641C20001F
:10457000C0B2042819DA30000CE00100C9B20422EC
:1045800051432200D2B28918695C01AA0300DBB250
:10459000D154401C0100C9B20429EEDB6A4601A9CE
:1045A00002A8FFF7E8FE3000DCE77FBD7FB505001D
:1045B00002A898490A6802600026340011E0010050
:1045C000C9B2042251432200D2B289186A460300BC
:1045D000DBB2D25C6A54401C0100C9B20429EEDB94
:1045E000641C2000C0B2042819DA30000CE001007D
:1045F000C9B2042251432200D2B28918695C01AACF
:104600000300DBB2D154401C0100C9B20429EEDB27
:104610006A4601A902A8FFF7AEFE3000DCE77FBDC5
:10462000F0B5012100E0491C0A00D2B2042A2CDABC
:1046300000221DE00D00EDB2042675431E00F6B207
:10464000AD1945196D1E0E00F6B204277E431F00FA
:10465000FFB2F619865D2E705B1C1D00EDB2042DB5
:10466000E8DB0B00DBB204256B43C318DC70521C83
:1046700013000C00DBB2E4B2A342D4D20B00DBB2D5
:1046800004246343C45C0123E7E7F0BDF0B50121D6
:1046900000E0491C0A00D2B2042A2CDA00221CE0F5
:1046A0000D00EDB2042675431E00F6B2AD190E00E2
:1046B000F6B204277E431F00FFB2F6198619761E54
:1046C000367846555B1E1D00EDB2002DE8D10B007B
:1046D000DBB204256B43C454521C13000C00DBB244
:1046E000E4B2A342D5D20B00DBB204246343C31867
:1046F000DC780323E7E7F0BDF0B500210A002BE0EA
:104700001400E4B204256C431D00EDB26419045D8D
:104710002600F6B236091400E4B204256C431D00ED
:10472000EDB26419045D2407240F1500EDB20427CF
:104730007D431F00FFB2EF19374DAC46F6B210258E
:104740006E43E4B2341965462C5DC4555B1C1C00F5
:10475000E4B2042CD4DB521C1300DBB2042B01DACC
:104760000B00F4E7F0BD000000000020F0B50021D0
:104770000A002BE01400E4B204256C431D00EDB2E6
:104780006419045D2600F6B236091400E4B204256B
:104790006C431D00EDB26419045D2407240F15005D
:1047A000EDB204277D431F00FFB2EF191B4DAC464D
:1047B000F6B210256E43E4B2341965462C5DC4553B
:1047C0005B1C1C00E4B2042CD4DB521C1300DBB2D3
:1047D000042B01DA0B00F4E7F0BD10B5002111E065
:1047E0000D4A0B00DBB2C35C1B11102463430C00A9
:1047F000E4B2045D2407240F1B19D25C0B00DBB26A
:10480000C254491C0A00D2B2042AE9DB10BD0000E0
:10481000845B0008885B0008805600088057000809
:1048200010B50178002207E01300DBB2C3185B78F3
:104830001400E4B20355521C1300DBB2032BF3DB6C
:10484000C17010BDFEB50E002C216A46117000210A
:104850002EE00A00D2B204235A43825C0B00DBB282
:1048600004246343F2540A00D2B204235A43821848
:1048700052780B00DBB204246343F3185A700A0029
:10488000D2B204235A43821892780B00DBB204247C
:104890006343F3189A700A00D2B204235A43821871
:1048A000D2780B00DBB204246343F318DA70491C9E
:1048B0000A00D2B2042ACCDB04273C0077E03AE0BD
:1048C00001AD2000C0B2042148433018001F007819
:1048D00028702000C0B2042148433018C01E007860
:1048E00068702000C0B2042148433018801E007850
:1048F000A8702000C0B2042148433018401E007840
:10490000E8702000C0B23900FDF74BFD0029D6D178
:1049100001A8FFF785FF01A8FFF75FFF2000C0B2E5
:104920003900FDF73EFDC0B2FFF791FD01AA01007D
:1049300001A8FFF70DFD2000C0B204214843301844
:1049400010380078297841402000C0B2042250433A
:1049500031542000C0B20421484330180F38017888
:10496000687848402100C9B2042251437118487048
:104970002000C0B20421484330180E380178A878CE
:1049800048402100C9B204225143711888702000A8
:10499000C0B20421484330180D380078E97841400E
:1049A0002000C0B2042250433018C170641C2000A3
:1049B00069460978C0B2884282D3F7BDF1B586B0A6
:1049C0000D00002630001DE002AC0300DBB204271E
:1049D0007B430F00FFB2DF1900970194069F03008D
:1049E000DBB29C460C00E4B204235C4363461B1913
:1049F000FB5C019C009FE355491C0B00DBB2042BC0
:104A0000E2DB401C0100C9B2042901DA3100F4E7FD
:104A100017000022390002A8FFF738FD01240FE03B
:104A200002A8FFF769FE02A8FFF7FAFD02A8FFF748
:104A300083FD2200D2B2390002A8FFF727FD641CD3
:104A40002000C0B20A28EBDB02A8FFF755FE02A83F
:104A5000FFF7E6FD0A22390002A8FFF717FD300034
:104A600016E00200D2B20B00DBB204246343D2187A
:104A700002AB0400E4B204277C430F00FFB2E41948
:104A80001B5DAB54491C0A00D2B2042AE9DB401C6E
:104A90000100C9B2042901DA3100F4E707B0F0BD22
:104AA000F1B586B00D00002630001DE002AC030019
:104AB000DBB204277B430F00FFB2DF19009701949C
:104AC000069F0300DBB29C460C00E4B204235C4367
:104AD00063461B19FB5C019C009FE355491C0B00BE
:104AE000DBB2042BE2DB401C0100C9B2042901DA6D
:104AF0003100F4E717000A22390002A8FFF7C6FCCC
:104B000009240FE002A8FFF7C1FD02A8FFF72EFE5F
:104B10002200D2B2390002A8FFF7B8FC02A8FFF7C2
:104B200045FD641E2000C0B20028EBD102A8FFF7AB
:104B3000ADFD02A8FFF71AFE0022390002A8FFF718
:104B4000A5FC300016E00200D2B20B00DBB2042458
:104B50006343D21802AB0400E4B204277C430F0085
:104B6000FFB2E4191B5DAB54491C0A00D2B2042AFF
:104B7000E9DB401C0100C9B2042901DA3100F4E785
:104B800007B0F0BD80B500F0FFFC72B600F00EF883
:104B9000FDF78AFBFDF728FF00F030F800F052F82F
:104BA00000F01EFDFFF78AFA62B601BD6648016893
:104BB000802292020A4302600C20C0439021C90562
:104BC0000A6802400A600A68042313430B605F49C5
:104BD0000A6802239A430A600A680A605C490A6804
:104BE00002400A600A680A605A490A681040086070
:104BF00008680860022058490860704752480168F8
:104C00008022D2020A430260544855490A68024091
:104C10000A600A688023DB0113430B6051490A686C
:104C200080239A430A600A680A604F490A68024072
:104C30000A600A680A604D490A68104008600868FE
:104C400008607047F0B48020C0023F490A68024300
:104C50000A60474B424A14681C401460146880255F
:104C60006D02254315603F4C2568424E2E4026605C
:104C7000256825603C4D2E681E402E602E68C0279A
:104C8000BF0237432F60394E37683B40336033688B
:104C900033600B6803430B60374913680B401360A4
:104CA0001368184310602068344A0240226020686C
:104CB0002060286808402860286828603068014023
:104CC000316030683060F0BC70471F480168802256
:104CD000D2020A4302602248016889008908016003
:104CE00001688022D2050A4302601E480168244AF6
:104CF0000A400260016801601B4801688900890858
:104D00000160016801601948016889008908016033
:104D10000168016070470C480168802292020A43D2
:104D200002600E489021C9050A6802400A600A68BC
:104D30000A6008490A681040086008688022D201A9
:104D400002430A607047000014100240040000484B
:104D5000080000480C00004828000048FF3FFFFF03
:104D60000004004804040048080400480C040048FB
:104D7000FFFFFCFFFFFEFFFFFFFFF3FFFFFDFFFF55
:104D8000FF7FFFFF00B5094809490160094901603B
:104D90000021094A1160FA210901084A11600849F5
:104DA00009680029FBD10749016000BD00300040BF
:104DB000CCCC0000555500000430004008300040C5
:104DC0000C300040AAAA0000F8B504004048006872
:104DD00080210840C0090100C9B2002926D03D4900
:104DE00002000B78D2B29A420ED03B4A13885B1C69
:104DF00013801388152B05D300231C001480374A19
:104E0000137008700020F2BDA078C0070AD5394899
:104E10000188491C018000883149884202D3012061
:104E20003049087000202C490880EBE7294902002E
:104E30000B78D2B29A420BD0274A13885B1C13809E
:104E40001388152BDED30023138008700120DAE7C6
:104E5000224E30780028D5D11F4D2888401C28804C
:104E600028881F498842CDD3A078C00727D51D4880
:104E7000017800290BD000210170A0781021014396
:104E8000A17001203070184828800320BBE7174F1D
:104E900017480078002802D00020387007E003216E
:104EA0000022781C00900098FDF73CFA0098002042
:104EB000010039717871A07810210143A17001209F
:104EC00030700948288000200A49088002209AE7AB
:104ED00010000048D9010020C40C0020D30C002091
:104EE00072020000D40C0020710200001E0C002091
:104EF000D20C0020C60C002070B500231C00067ADE
:104F0000F60702D4067A002E06D1D278D20701D550
:104F1000012500E01D000124E4B2002C0DD00C009E
:104F20000521E17104220100083126000836300015
:104F3000FCF7DAFE2573012000E0002070BD38B5D3
:104F400000231C00057B002D00D00124057AED070D
:104F500002D4057A802D0BD1D3781D00ED07ED0F1B
:104F6000E4B2AC4203D0537810241C4354700123A4
:104F7000DBB2002B0BD004221300CB7108300C00E5
:104F8000083401002000FCF7AFFE012000E0002003
:104F900032BDF4B505000E0000273C00032279491C
:104FA00028000930FCF7B0FE00280FD1009A287ABB
:104FB000000605D531002800FFF7C1FF04000FE00F
:104FC00031002800FFF798FF040009E003226E4932
:104FD00028000930FCF798FE002801D1F771012460
:104FE0002000C0B2F2BD0000F1B584B00C00002575
:104FF0002F002E0002A800210160207A40071FD553
:10500000A06804218843A0606078C00706D5E078D6
:10501000C00700D501263800012707430520049961
:10502000C87104980772032256490498070009378B
:105030003800FCF759FE049806736570002039E0CB
:10504000207A400635D5280069460871002201A95A
:105050002000FBF72FF9002801D001202AE0A068EA
:1050600040218843A060032202A94848844668463C
:105070000379062043436046C018C01CFCF744FE79
:10508000002802D16570012014E06078C00706D5C1
:10509000E078C00700D50126380001270743F6B2A3
:1050A00000963B00DBB2049A21003848FCF714F864
:1050B0006570012005B0F0BD10B50400207A4007EE
:1050C00011D4207900280ED12000FFF77DFEC0B258
:1050D000022808D1A07801210143A17022002B49A8
:1050E0002B48FBF701FF10BDFEB5040001A800210D
:1050F000002206C00838207A400741D46078112188
:10510000014000293CD02079002839D16078EF2176
:10511000014061700125E07829004140E1702800DC
:105120002071E078C00704D580200002194908608A
:1051300003E0802000021849086018480078002821
:1051400010D0174E01AF307878700322711C01A87F
:10515000801C00900098FCF7C7FD009830797871AA
:105160007079B871E078054068460571D024A401D3
:105170002000FCF70BFE042201A92000FCF749FEE9
:10518000F7BD0000985B0008905B00081C0C002035
:10519000FC0900201804004828040048E20C002004
:1051A0001E0C002010B504002000FFF785FF200032
:1051B000FFF79AFF10BD969630B5002308E01C005B
:1051C000E4B2045D1D00EDB24D5DAC4210D35B1C3A
:1051D0001C001500E4B2EDB2AC420BD21C00E4B2EC
:1051E0000C5D1D00EDB2455DAC42E8D2012002E04D
:1051F000022000E0002030BD10B5002200E0521C6B
:1052000013000C00DBB2E4B2A34207D21300DBB2FE
:10521000C35C002BF3D0881AC0B200E0002010BDA0
:1052200010B50022110007E00B00DBB2C3185B7859
:105230000C00E4B20355491C0B00DBB2102BF3DB6E
:10524000027410BDF4B505000C0068460278210018
:105250002800FFF7B1FF022847D00020010002001C
:105260006A46127820E0591A1300DBB2E3185B1E7D
:105270001B78CB1A012111E01600F6B2A619761E92
:1052800036781F00B6B2BFB2BE42ECD2591A130034
:10529000DBB2E3185B1E1B78CB1A01001600F6B2D6
:1052A000AE19761E3370521E1300DBB2002BCCD029
:1052B0001300DBB2EB185B1E1B781E001700FFB259
:1052C000E7197F1E3F78B6B2BFB2BE42D4D10E00FE
:1052D000F6B2012E07D15B1E1600F6B2A619761E95
:1052E00036789B1BDAE70300D8E7F1BDF8B5070075
:1052F0000E00112411213000FFF77EFF251A112026
:10530000421BD2B22800C0B231183800FFF79AFF12
:1053100000240CE01220421BD2B22800C0B2311887
:10532000491E2000C0B23818FFF78CFF641C200013
:105330002900C0B2C9B28842ECD3F1BD70B50024D7
:10534000DBB2012B1ED1102314E01D00EDB2451974
:105350006D1E2D780E00F6B27543E4B22C191D00B7
:10536000EDB2555D641925001E00F6B29555A4B244
:10537000240A5B1E1D00EDB2002DE6D11078001945
:10538000107017E0102310E01D00EDB245196D1EDE
:105390002D780E00F6B27543E4B22C1925001E00DC
:1053A000F6B29555A4B2240A5B1E1D00EDB2002D85
:1053B000EAD1147070BDFEB507000C0015001E0088
:1053C00010212000FFF718FF694608706846007832
:1053D00041426018103001900024200003E00100D9
:1053E000C9B26C54401C0100C9B21129F7DB14E0AA
:1053F00001232A0001982100C9B2415C3800FFF75F
:105400009DFF31002800FFF771FF2800FFF708FF1C
:1054100031002800FFF76AFF641C2000C0B2694613
:105420000978491E8842E3DB01232A000198E4B28F
:10543000015D3800FFF782FF31002800FFF756FFBB
:10544000F7BDF6B585B006000D001F000824102139
:105450000698FFF7D1FE6946087068460078002874
:1054600000D188E00495019610220499019D28003E
:10547000FCF73AFC0698694609784A4280181030D1
:10548000039003980178002002E04900641E401C4C
:105490000200D2B2082A01DA0A06F6D54D00601ED3
:1054A000694648700024029721E034483449086076
:1054B0000C9B029A01990198FFF77DFF102632009C
:1054C0000298411C019F3800FCF70EFC28060CD501
:1054D0000C9B029A01990498FFF76DFF3200029825
:1054E000411C019E3000FCF7FFFB6D00641C200096
:1054F00069464978C0B28842D7D30398401C0390CC
:1055000000202049087029E01C481D4908600C9BB8
:10551000029A01990198FFF74EFF10263200029877
:10552000411C019F3800FCF7DFFB28060CD50C9BC3
:10553000029A01990498FFF73EFF32000298411C3D
:10554000019E3000FCF7D0FB6D00641C2000C0B24F
:105550000828D9DB0B480178491C017009480078FC
:1055600069460978491E884205DA03980549097891
:10557000455C0024EAE707B0F0BD0000AAAA0000DD
:1055800000300040E70C002000B5124801680160BF
:105590000021114A11600168A02292030A430260AF
:1055A000022102680A430260026802600268026027
:1055B0000A48026801231343036002680A40002A74
:1055C000FBD00168802252040A430260016889010D
:1055D000FCD500BD041002402C1002400010024017
:1055E0001CB51D4801688022D2020A4302601B4894
:1055F0001B490A6802400A600A680A6019490A6879
:105600001040086008688022520102430A600120AD
:1056100015490A6802430A6014490A68144B13408A
:105620000B600A6880235B0013430B604024114920
:105630000A6822430A6010490A680A60694607221C
:105640000A7002004A7088706846FDF793F90B48AB
:1056500001680C43046013BD14100240FFCFFFFF2C
:10566000000400480C040048181002400C000140DF
:10567000FFF0FFFF0C04014008040140000401405A
:10568000637C777BF26B6FC53001672BFED7AB76FF
:10569000CA82C97DFA5947F0ADD4A2AF9CA472C0AA
:1056A000B7FD9326363FF7CC34A5E5F171D8311517
:1056B00004C723C31896059A071280E2EB27B27538
:1056C00009832C1A1B6E5AA0523BD6B329E32F84B0
:1056D00053D100ED20FCB15B6ACBBE394A4C58CFA8
:1056E000D0EFAAFB434D338545F9027F503C9FA87C
:1056F00051A3408F929D38F5BCB6DA2110FFF3D24A
:10570000CD0C13EC5F974417C4A77E3D645D1973FD
:1057100060814FDC222A908846EEB814DE5E0BDBF7
:10572000E0323A0A4906245CC2D3AC629195E4792E
:10573000E7C8376D8DD54EA96C56F4EA657AAE0888
:10574000BA78252E1CA6B4C6E8DD741F4BBD8B8A23
:10575000703EB5664803F60E613557B986C11D9E89
:10576000E1F8981169D98E949B1E87E9CE5528DF00
:105770008CA1890DBFE6426841992D0FB054BB162C
:1057800052096AD53036A538BF40A39E81F3D7FBB6
:105790007CE339829B2FFF87348E4344C4DEE9CB00
:1057A000547B9432A6C2233DEE4C950B42FAC34E75
:1057B000082EA16628D924B2765BA2496D8BD1252B
:1057C00072F8F66486689816D4A45CCC5D65B692CF
:1057D0006C704850FDEDB9DA5E154657A78D9D8473
:1057E00090D8AB008CBCD30AF7E45805B8B3450693
:1057F000D02C1E8FCA3F0F02C1AFBD0301138A6BAD
:105800003A9111414F67DCEA97F2CFCEF0B4E673DC
:1058100096AC7422E7AD3585E2F937E81C75DF6E8A
:1058200047F11A711D29C5896FB7620EAA18BE1BF0
:10583000FC563E4BC6D279209ADBC0FE78CD5AF496
:105840001FDDA8338807C731B11210592780EC5FDC
:1058500060517FA919B54A0D2DE57A9F93C99CEF38
:10586000A0E03B4DAE2AF5B0C8EBBB3C8353996139
:10587000172B047EBA77D626E169146355210C7D77
:10588000704700B5FEE77047704710B525480168BE
:10589000C90311D50068244C2068401C2060FCF727
:1058A0002AFD2068FA218900FCF77EFD002903D13A
:1058B0001E480168491C016010BD70477047704761
:1058C0007047704738B54024194D2868204000289B
:1058D00005D01848FCF726FB286804432C6031BD2E
:1058E00010B50820144C21680140002903D0134949
:1058F0000A68104308602068800605D510491148E1
:105900000088C0B2FEF75FFC2068400608D50E484C
:105910000068000604D50D48FEF7CDFC0C49088050
:1059200010BD000010E000E0B80C0020BC0C00200E
:1059300014040140F40600201C44004020440040B0
:10594000600C00202444004000440040740C0020FF
:1059500028440040704700001448016801220A43AF
:10596000026013490A68134B13400B600268124B24
:10597000134003600268114B134003600868104A2B
:1059800002400A600F4801680F22914301600E48EF
:1059900001680E4A0A4002600D48016801229143E5
:1059A000016000200B4908607047000000100240B1
:1059B000041002400CB8FF08FFFFF6FEFFFFFBFFDC
:1059C000FFFFC0FF2C10024030100240ECFEFFFF32
:1059D0003410024008100240184200270128022912
:1059E000032A042B052C062D072E082F09300A3117
:1059F0000B320C330D340E350F3610371138123987
:105A0000133A143B153C163D173E193F1A401B41F3
:105A10001C431D441E451F462047000070B401234F
:105A2000002413E00168001D194202D04D466D1E8E
:105A300049190C60091D121F042AFAD20D0096079D
:105A400001D50C80AD1C1A4000D02C700268001DDE
:105A5000002AE7D170BC704730B50168411844682E
:105A600062088A188368E4070DD54C461B190AE0C2
:105A70000C7864B2491C0D78491C1D705B1C002C0D
:105A800005D5641CF9D19142F2D10C3030BD641EB1
:105A9000F1D5F8E710B5074979441831064C7C4434
:105AA000163404E0081D0A68891888470100A142DD
:105AB000F8D110BD080000002400000061FFFFFFC6
:105AC000100B0000DC010020000000008DFFFFFF34
:105AD000F50000002803000000000020000001CCB9
