:020000040800F2
:10000000781500205D5200087D4F00087F4F0008E2
:1000100000000000000000000000000000000000E0
:10002000000000000000000000000000834F0008F6
:100030000000000000000000854F0008874F000806
:10004000FF17000800000000571F0008A333000836
:10005000FF3700089F4F0008A14F0008A34F00087A
:1000600000000000295000082B500008FB51000838
:10007000075200088552000887520008000000005F
:10008000895200089D4F0008000000008B520008B4
:10009000994F00088D5200089B4F00088F520008AE
:1000A0009152000893520008955200089752000898
:1000B000C14F000800487047000A002010B5040036
:1000C000FFF7F8FFFF211031445410BD80B5FFF752
:1000D000F1FF0E3002BDF8B505000E000424220029
:1000E000691D2F000937380000F068FC2200691CE8
:1000F0006F1D380000F062FC220031000B316C1CD7
:10010000200000F05BFCF1BDF8B504000E00872074
:10011000400035183078012812D000D2CFE10328F2
:100120005FD047D3052800D1BBE000D29EE007286E
:1001300000D166E100D21BE1082800D1A0E1BEE1B8
:1001400020790100C9B2C90704D5297810220A43D1
:100150002A7003E02978EF220A402A700221020067
:10016000D2B20A40002A04D02A780B0013432B7025
:1001700003E02A78FD2313402B700200D2B252070D
:1001800004D52A78402313432B7003E02A78BF2339
:1001900013402B708022C0B21040002803D0287872
:1001A00002432A7003E028784006400E2870317020
:1001B0000120F2BD2878C0B200090100C907C90FAB
:1001C00000290BD000F00CFC022201001131601D4F
:1001D00000F024FD002801D00520EAE7032030705C
:1001E000E6E72878C0B2C009C0B2002837D100F0D5
:1001F000F5FB0422C11CE01D00F010FD002804D115
:1002000028780121014329702DE02878FE21014042
:10021000297001272878C0B2000939000140C9B20D
:10022000002920D02878C0B2800939000140C9B225
:10023000002918D100F008FD002814D000F002FDBC
:100240000422E11D801C00F0E9FC00280BD100F025
:10025000F9FC4770022088214900705403E0287897
:10026000FE210140297004203070A1E72878C0B237
:10027000C009C0B2002811D128780100C907C90FF0
:1002800000290BD0042221000B31701C00F0C6FCA9
:10029000002803D021003000FFF71DFF052030703B
:1002A00086E7002001002978C9B2C909C9B200292E
:1002B00034D1E17B834A0B00DBB21B091370137846
:1002C000032B29DA1378002B04D12B78FB241C4054
:1002D0002C7003E02B7804241C432C7001232C7811
:1002E000E4B2A4081F002740FFB2002F11D0C9B20A
:1002F00012781C0094400C402107090F002900D1FE
:1003000003002878F7210140D80008221040084354
:100310002870062030704BE707204AE7E27B207CFC
:100320006849D2B212090A700A78032A1EDA2A78BA
:10033000D2B252081300DB07DB0F002B05D00A787E
:10034000C0B2824201D1072033E70620307008781E
:10035000002806D12878FB21014029700A20C0B26C
:1003600027E72878042101432970D4E7072020E7F4
:100370002878C0B2C009C0B200283FD1207C01005B
:10038000C9B2032911DA0100C9B2002907D12978BD
:10039000C9B289080A00D207D20F002A05D101008C
:1003A000484A1278C9B2914201D2082001E70100FF
:1003B000C9B200290FD129780A00D207D20F002A2A
:1003C00009D188204000305C022802D1072030701B
:1003D000EEE60820EDE6C0B2002806D12878DF213D
:1003E0000140297008203070E2E628780100C90732
:1003F000C90F002902D008203070D9E607203070DC
:10040000D6E62878C0B2C009C0B200281ED10820A4
:10041000307000F0E3FA0122C11C2A48007820184D
:10042000103000F0FBFB002804D128782021014384
:10043000297003E02878DF210140297028782121E4
:100440000140002914D10A20C0B2B2E60820307061
:1004500000F0C4FA0122C11C1A480078201810309C
:1004600000F0DCFB002804D128782021014329700A
:100470009EE62878DF21014029700A20C0B298E664
:10048000A0781138217C401A7073FFF71FFE050019
:10049000727B21001131280000F090FA0B2030709F
:1004A00088204000305C012801D1022081E68820AC
:1004B0004000305C022801D103207AE678E609206A
:1004C00077E60000690D002038B504000D00290012
:1004D000C9B289B2200000F0ABFF010089B2090A5D
:1004E00089B22A00D2B2A25C914201D0012009E077
:1004F00080B2C0B2EDB261194978884201D00120C2
:1005000000E0002032BD38B504000D000020A570C9
:100510000420E0702900C9B289B2200000F088FFF1
:10052000010089B2090A2A00D2B2A1546D1C290027
:10053000C9B260546D1C022196222800C0B2241852
:10054000200000F0A3FFAD1C2800C0B232BDF8B5FA
:1005500007000E000124250087204000301800907D
:10056000B9783800FFF7B0FF002841D100F078FBE0
:1005700000281BD02800C0B201280ED100F062FB79
:100580000100380000F007FC050000F063FB0A28BA
:1005900009D000F05FFB0B28ECD1012000F05DFBDF
:1005A0002800C0B252E000F05BFEF6E72800C0B2BF
:1005B000012807D131003800FFF7A6FD050030788B
:1005C0000B28F3D134702800C0B2012806D02800CF
:1005D000C0B2042802D02800C0B237E0212400981D
:1005E0000078204207D10120FFF768FD04202DE0AC
:1005F0000020C0B22AE00520009909780140C9B264
:10060000052904D10220FFF759FD00201EE00099C2
:1006100009780840C0B2012802D10420FFF74EFD3E
:10062000009800780440E4B2202C02D10820FFF7A3
:1006300045FD0098007841210140412904D1102056
:10064000FFF73CFD012001E02800C0B2F2BD70B50B
:1006500004000225290069222600300000F016FF60
:100660008120207100F0BCF92A0001001131651DC4
:10067000280000F0A3F9FFF71DFD04252A00411C06
:10068000E61D300000F09AF900F0A8F92A00C11C1C
:1006900025000B35280000F091F90F20E073E07B76
:1006A000C0B20009207470BDFEB5040017001E0022
:1006B000207C69460870E07BC0B20009E07B00073F
:1006C000000FFFF7F7FC87214900405CC0B2C0096A
:1006D000FFF7F0FCFF211031405C042817D1FFF731
:1006E000E9FC04252A00411CE01D0190019800F05E
:1006F00065F9019800F072F92A00C11C25000B353C
:10070000280000F05BF92079802101432171390034
:100710003200D2B268460078201805001135280052
:1007200000F04CF96846007831181131C9B2200048
:10073000FFF7E9FEC0B2FEBD70B505000C00FFF783
:10074000C5FC060000213000FFF781FF2200D2B275
:100750002900307C301805001135280000F02EF9F2
:10076000307C21181131C9B23000FFF7CCFEC0B285
:1007700070BDF1B582B00298471D6D4800684079A0
:10078000694688703878982806D17878982803D1F7
:10079000012000F068FA02E0002000F064FAB87866
:1007A000A12859DA0525002468468078C01F022157
:1007B00000F0ABFE06001EE02800C0B2385C6946BF
:1007C00008806846008800026946088068460088FC
:1007D0002900C9B2791849780843694608806846F3
:1007E000008800F0F9FF02992200D2B28918514A1C
:1007F0008854641CAD1C3000461EC0B20028DBD1FA
:100800006846817800252A007E1D300000F03EFEFB
:100810002200D2B20298474941187E1D300000F0F4
:10082000CDF82100C9B22A000298424BC518280011
:1008300000F02CFE2000C01D3D49096848712000D1
:10084000C01CB87002219622E4B23819441D200061
:1008500000F01CFE012000E00020FEBDF1B582B0DA
:1008600015000298807851285FDA00273C00380094
:100870006A46108000A8801C002202800526019193
:1008800021E002983100C9B2405C00F0DCFE69460C
:10089000088000A8801C6946098889B2090A01708D
:1008A000694609884170037801992200D2B28918FB
:1008B000204A8B54407801992200D2B289181E4AEE
:1008C0008854A41C761C3000C0B22900C9B2891E0D
:1008D0008842D6DBEDB20220454329003A00019858
:1008E00085235B00C518280000F0D0FD2200D2B29D
:1008F000019810494118019885235B00C51828000C
:1009000000F05CF82100C9B23A000198094BC51803
:10091000280000F0BBFD2100491D0198FF22921D17
:100920008018C9B2FFF7EFFD05002800C0B2FEBD78
:10093000D4010020050200000602000038B50400C2
:10094000002210002078692802D16078692807D039
:100950002078982802D16078982801D001202BE0D7
:100960000800C0B22018801E0078962806D1080022
:10097000C0B22018401E0078962801D001201BE04C
:100980000D1F2900C9B289B2200000F051FD0100FD
:1009900089B2090A89B22A00D2B2A25C914201D07E
:1009A000022009E080B2C0B2EDB2611949788842F4
:1009B00001D0022000E0002032BDABCD814202D246
:1009C0005318984203D300B500F01AFF00BD521E21
:1009D00003D38B5C8354521EFBD27047854870470B
:1009E000854870478548007870478449087070478B
:1009F00080B50F227F49002000F096FF01BD80B531
:100A0000002000F02BFF0F227A49002000F069FF40
:100A100001BD00B50100002002E0C9B24908401C38
:100A20000A00D2B2D207F8D5C0B200BD7CB505002D
:100A300068460021002206C008382800C0B20128FC
:100A400033D104226946D020800100F06DFF6C464E
:100A50002078284209D080200002694908602900D6
:100A6000C9B2032000F09DFF04E02900C9B20420B0
:100A700000F097FF00F0E8F8002815D000F0E2F849
:100A800006002800C0B2FFF7C4FF06214843301813
:100A9000851C04226846411C2E003000FFF78EFFA3
:100AA00060792871A079687173BDFDE780B5012078
:100AB000FFF7BCFF01BD38B5002425006846514949
:100AC0000A68026050480178022907D16D1C29008C
:100AD000C9B2072902DB2500210001704B4801F053
:100AE0003BFA01F075FCFFF783FFFFF777FF007813
:100AF0006828E7D1FFF774FF03226946103000F041
:100B00008DF8002808D00120FFF76FFF01F0ECFA04
:100B10003F490122425402E00020FFF766FFFFF741
:100B20005DFF407A992803D1012000F090F802E09F
:100B3000002000F08CF831BD38B5FFF751FF0100FF
:100B40001022344C250020352800FFF737FFFFF72F
:100B500047FF032201001031250030352800FFF740
:100B60002DFF200001F05CFE2B49200002F046F929
:100B700031BD1CB504006846002101606078202862
:100B800037D1FFF72BFF0922210000F047F800289A
:100B900024D0002000F062FE05222100002000F099
:100BA000A0FEFFF71BFF01000522002000F0BCFEA5
:100BB000FFF714FF0922210000F030F8002806D1C9
:100BC0000421CC226C46200000F060FC0CE00421E3
:100BD000AA226C46200000F059FC05E00421BB224B
:100BE0006C46200000F052FC074A0421684601F0E0
:100BF0003CFA13BDC80C0020D20C0020640D00206C
:100C00001804004880520008340D0020240D0020F4
:100C100019040000900C0020E00B002010B402E04A
:100C2000401C491C521E002A09D00B7804789C42B3
:100C3000F6D002D20020C04302E0012000E00020F4
:100C400010BC70470E4870470E48007870470D4939
:100C5000087070470A480078704709490870704763
:100C600009480078704700B5C0B2002803D00120C1
:100C70000549087002E000200349087000BD00002B
:100C8000E80C0020620D0020630D002010B5040068
:100C90000020C9B2002903D00F2000F0BBFE02E003
:100CA0000F2000F0D5FE0100C9B2002906D10120B5
:100CB00009E0C0B240082178491C21700100C9B286
:100CC000C907F6D5002010BD1A300178FE220A406F
:100CD00002700178FD220A4002700178FB220A406E
:100CE00002700178F7220A4002700178C906C90E25
:100CF00001700020704710B504000A00002311782D
:100D0000200001F0DFFC002801D0012012E0FFF7F5
:100D100099FF0100200000F023FA002801D00120F3
:100D200008E000F033FE0400FFF78CFFE11C00F048
:100D3000A0F9002010BDF8B506000C0017001D003A
:100D400000206946087001216846FFF79FFF0028D0
:100D500001D001201EE02000694609780622514397
:100D600071188C1C69460978062251437118C871A4
:100D70002771B17EC906C90E40010843B076012033
:100D80006946097888407070042229002000FFF726
:100D900015FE0020F2BDF8B504000D0028001A3041
:100DA000297801290AD002294DD0032964D00429C9
:100DB00000D18AE0082900D191E0F3E021790A000E
:100DC000D2B281231340812B0CD102780823134324
:100DD00003700278FD23134003700278FB23134055
:100DE000037003E00278F723134003700A00D2B2C5
:100DF000120704D5027801231343037003E002783D
:100E0000FE23134003700278D2B2D2081300DB072E
:100E1000DB0F002B13D1C9B2C90608D50178042213
:100E20000A4302700178FD220A40027007E001784F
:100E3000FB220A400270017802220A43027002205B
:100E400028700120F2BD00780921014000290FD04F
:100E5000FFF7C6FD0222611D1130FFF7DFFE0028FB
:100E600003D02800FFF730FFECE703202870E8E705
:100E70002800FFF729FFE5E70078C0B2400801002D
:100E8000C907C90F00291DD1FFF7ACFD00280CD000
:100E9000FFF7A4FD0422C11CE01DFFF7BFFE0028E0
:100EA00010D02800FFF710FFCCE7FFF797FD0422D2
:100EB000C11CE01DFFF7B2FE002803D02800FFF799
:100EC00003FFBFE704202870BBE7042221000B3199
:100ED000A04C2000FFF772FD08202870B1E7012622
:100EE0000178C9B2490832000A40D2B2002A21D0A2
:100EF00000206946087001216846FFF7C7FE0028F8
:100F000003D02800FFF7E0FE9CE7042291496846E1
:100F10000078062358432818861C3000FFF74EFD42
:100F2000207C69460978062251436918C8710A2055
:100F3000287036E00178C9B2890832000A40D2B27E
:100F4000002A0ED0834B227CE17B2800FFF7F3FEC2
:100F5000002803D02800FFF7B7FE73E70B202870A6
:100F60001FE00078C0B2C00831000140C9B20029BA
:100F700017D0AF1C042239007648FFF74FFE002837
:100F80000DD17879E17B884209D1E07BA97EC90641
:100F9000C90E40010843A8766E70207C38710B2082
:100FA00028704EE72800FFF78FFE4BE77CB50F2037
:100FB00000F030FD0600F02000F02CFD04003000B1
:100FC000C0B2002837D0644D2888401C288028886B
:100FD0006249884212D228780521014001291FD197
:100FE000F6B2012E05D1D448016802224A400260BF
:100FF00016E00F21062000F016FD11E0287800070A
:10100000000F01280CD1F6B2012E05D1CA480168A3
:1010100002224A40026003E00F21062000F003FD97
:101020002888C649884209DB002028800F21062035
:1010300000F0F9FC02E0002047490880E4B2002CEF
:1010400016D0684600210160FF21062000F0EBFC6D
:10105000BB4904226846FFF7E1FD002808D10020C3
:10106000FFF7F5FDFFF7BAFC00214172FFF7C7FC5F
:1010700073BDFEB50400A07E0200D2B252096678AC
:10108000002001AB00250027A0C3083BD2B2002AF4
:101090005ED03200D2B2012A05D1C0B2062250433E
:1010A0002018801C00900D003000C0B200280128DC
:1010B00013D800980079002807D080200002D94971
:1010C000086028783043287006E080200002D64966
:1010D00008602878B0432870FFE70422009901A82F
:1010E000471C3800FFF76AFC01A800990979417193
:1010F000009949798171F6B2012E0ED129780A0042
:10110000D207D20F0270D025AD01280000F0A6FB57
:10111000042201A9280000F0E4FBFFF795FD002858
:101120000BD0FFF75BFC407A992809D0FFF756FCFB
:1011300099214172FFF763FC02E00120FFF787FD70
:101140000F21062000F06FFCA07EC006C00EA07626
:10115000F7BD00004C0D0020540D0020720200006D
:10116000F8B504000E000321200002F0D9F8012890
:1011700005D00521200002F0D3F8802821D12000DD
:1011800002F0E4F8007807073F0FB51C200002F0DA
:10119000C5F8042201002800FFF740FD002810D107
:1011A00068793900C9B288420BD1B07EC006C00E42
:1011B00079010143B17601207070A07A2871002076
:1011C00000E00120F2BDF8B5FEF780FF0500002623
:1011D00030000F2000F01EFC002840D00224210027
:1011E00098222F00380000F051F988202871FFF76D
:1011F000F9FB002809D0FFF7F3FB220001001131B1
:101200006C1D2000FFF7DAFB05E0210032006C1DA9
:10121000200000F03BF9042421003200EF1D3800CB
:1012200000F034F9FFF7DAFB2200C11C2C000B346C
:101230002000FFF7C3FB0F20E8732E740F2000F08F
:10124000E9FB687412212800FFF75DF9040002F041
:10125000A9F82300DBB22A000A2102F023F9F1BD2C
:10126000FEB5FEF733FF05000F2000F0D3FB694603
:1012700048700026300069460870300030480290FF
:1012800001216846FFF702FD002853D10224210006
:1012900098273A000195019800F0F8F801982F710D
:1012A000FFF7A0FB002809D0FFF79AFB22000100FE
:1012B00011316C1D2000FFF781FB10E0210032008E
:1012C0006C1D200000F0E2F80422029869460978BB
:1012D000062359434118EC1D2000FFF76FFBFFF771
:1012E0007DFB0422C11C2C000B342000FFF766FBA1
:1012F0000F20E8732E74684640786874684640781A
:1013000000F046FBA87413212800FFF7FCF8040046
:101310000120FFF79CFC0F21062000F084FB02F067
:1013200041F82300DBB22A000A2102F0BBF8322088
:1013300002F038FAF7BD000014000048A70E0000C4
:10134000EA0C0020F1B582B00E0014001D00002749
:10135000380038006946087000216846FFF796FC9F
:10136000002843D1684645706846847035000224E1
:10137000210098222E00300000F088F8812028718A
:1013800021003A006C1D200000F080F804242200A7
:10139000029869460978062359434018811CEE1DBE
:1013A0003000FFF70BFBFFF719FB2200C11C2C00DC
:1013B0000B342000FFF702FB0F20E8732F74684600
:1013C0008078687468464078A87413212800FFF775
:1013D0009AF8060001F0E8FF040001F0E3FF330093
:1013E000DBB22A002100C9B202F05CF8F7BD70B58B
:1013F00004000D00FFF728FC002812D02800C0B21E
:10140000FFF707FB0621484308490818851C0422FA
:101410002900661C3000FFF7D1FA287960716879DD
:10142000A07170BD1804004828040048E80C002092
:10143000F2B5144900221CE00378401C0F24124D21
:101440001E00F6B20F00BFB27E40264002277E4348
:10145000AE5B89B209097140DBB21B110E00B6B256
:1014600073401C4002235C432B5B89B2090959403D
:10147000521C13006C4624889BB2A342DCD30800A4
:1014800080B2F2BDFFFF0000B05100081206130A3F
:101490001A43130C1A4300BF094205D0830707D033
:1014A0000270401C491EF9D1704700000022FFE77E
:1014B0001300103906D330B41400150010393CC0A5
:1014C000FCD230BC490700D30CC000D504C0890051
:1014D00002D30280801C002900D502707047F446B8
:1014E000002804D4494200F013F8404260474042CB
:1014F000002905D45FD000F00BF840424942604714
:10150000494200F005F84942604703460B43E6D4E0
:101510000022030A8B420BD203098B4219D24308E3
:101520008B422ED2411A00D20146524110467047DA
:10153000FF2209023FD012068B4205D31212090284
:101540008B4201D31212090203098B4219D300E026
:10155000090AC3098B4201D3CB01C01A5241830946
:101560008B4201D38B01C01A524143098B4201D3F4
:101570004B01C01A524103098B4201D30B01C01A1F
:101580005241C3088B4201D3CB00C01A5241830899
:101590008B4201D38B00C01A524143088B4201D3C6
:1015A0004B00C01A5241884200D3401A5241CFD258
:1015B00001461046704708B502F020F908BD00B595
:1015C000F02202400121080010430200D2B21209A9
:1015D000D2B20300DBB25B09DBB2D2180300DBB28C
:1015E0009B09DBB2D2180A40002A02D00200082070
:1015F00010430200D2B21209D2B20300DBB25B097F
:10160000DBB2D2180300DBB2DB09DBB2D2180A402E
:10161000002A02D00200042010430200D2B21209B4
:10162000D2B20300DBB29B09DBB2D2180300DBB2FB
:10163000DB09DBB2D2181140002902D001000220E0
:101640000843C0B200BD38B5040000202000C0B27D
:10165000FFF7B5FF05022001C0B2FFF7B0FF054359
:10166000280080B232BD00B501210200D2B21209B9
:10167000D2B20300DBB25B09DBB2D2180300DBB2EB
:101680009B09DBB2D2180300DBB2DB08DBB2D21855
:101690000A40002A51D00200D2B21209D2B203008D
:1016A000DBB25B09DBB2D2180300DBB2DB09DBB2D1
:1016B000D2180300DBB29B08DBB2D2180A40002A22
:1016C0001DD00200D2B21209D2B20300DBB29B09D4
:1016D000DBB2D2180300DBB2DB09DBB2D2180300A5
:1016E000DBB25B08DBB2D2181140002903D0010045
:1016F000102048406EE00100202048406AE00200CF
:10170000D2B21209D2B20300DBB29B09DBB2D2180B
:101710000300DBB2DB09DBB2D2180300DBB25B08EB
:10172000DBB2D2181140002903D00100402048400C
:1017300050E00100082048404CE00200D2B21209FB
:10174000D2B20300DBB25B09DBB2D2180300DBB21A
:10175000DB09DBB2D2180300DBB29B08DBB2D21884
:101760000A40002A1DD00200D2B21209D2B20300F0
:10177000DBB29B09DBB2D2180300DBB2DB09DBB2C0
:10178000D2180300DBB25B08DBB2D218114000298B
:1017900003D00100802048401CE0010004204840A4
:1017A00018E00200D2B21209D2B20300DBB29B09E8
:1017B000DBB2D2180300DBB2DB09DBB2D2180300C4
:1017C000DBB25B08DBB2D2181140002902D0010065
:1017D00002204840C0B200BD38B50400200080B2ED
:1017E000000AC0B2FFF73FFFF02505402000C0B25D
:1017F000FFF739FFC0B200092843C0B232BDFEE78F
:10180000124207D08B0706D00B78491C0370401C8E
:10181000521EF7D87047830706D00B78491C037017
:10182000401C521EF9D1704770B4103A03D378C9E6
:10183000103A78C0FBD2530701D318C918C001D59C
:1018400008C908C0D20704D30B880380891C801CF8
:10185000002A01D50B78037070BC704730B53E4943
:101860003E4A0A603E4A0A603E4900220A6001225E
:101870000B681340002BFAD13B4B1C680225254313
:101880001D603A4C00193A4C20601868402404430B
:101890001C60086810400028FBD1186802218843AA
:1018A0001860186880210143196030BD30B52F4A97
:1018B000821801232B4C206818400028F9D12A48AF
:1018C00005681D4305601180216819400029FBD17E
:1018D000016801229143016030BD2449401800880D
:1018E0007047F8B504000E0017001B481B49016043
:1018F0001B49016000251B48056009E0280080B2F3
:1019000002214143715A2000FFF7D0FFA41C6D1C37
:101910002800390080B289B28842EFD312480168AA
:1019200080220A430260F1BDF8B504000F001500E3
:10193000002609E02000FFF7D0FF310089B2022223
:101940004A43B852A41C761C3000290080B289B2E8
:101950008842EFD3F1BD0000042002402301674517
:10196000AB89EFCD0C2002401020024000C00008DF
:10197000142002408649C0B2022250430818704722
:101980008449C0B202225043081870478248704709
:1019900010B50400FFF7FAFFC07804402000C0B281
:1019A00010BD10B50C00C0B2022804D015D3042815
:1019B0000DD006D311E0FFF7E9FFC1784C40C470A9
:1019C0000BE0FFF7E3FFC1780C43C47005E0FFF7BD
:1019D000DDFFC178A143C170FFE710BD10B5040061
:1019E000FFF7D4FF007804402000C0B210BD10B54E
:1019F0000C00C0B2002802D0012804D009E0FFF793
:101A0000C5FF047005E0FFF7C1FF0178A143017035
:101A1000FFE710BD10B50400FFF7B8FF8078044061
:101A20002000C0B210BD10B50C00C0B2052802D015
:101A3000062806D00BE0FFF7A9FF81780C438470DD
:101A400005E0FFF7A3FF8178A1438170FFE710BD98
:101A500010B50400FFF79AFF407804402000C0B2A0
:101A600010BD10B50C00C0B2072802D0082806D05F
:101A70000BE0FFF78BFF41780C43447005E0FFF764
:101A800085FF4178A1434170FFE710BDF8B50124FF
:101A900020004248006880210840C0090100C9B206
:101AA000002927D03E4902000B78D2B29A420ED0CC
:101AB0003C4A13885B1C13801388152B05D3002325
:101AC0001C001480384A137008700020F2BD0120F9
:101AD000FFF7A0FF002809D034480188491C018085
:101AE00000883349884201D33248047000202D49D0
:101AF0000880EAE72A4902000B78D2B29A420BD05A
:101B0000284A13885B1C13801388152BDDD3002310
:101B1000138008700120D9E7234800780028D4D129
:101B2000204D2888401C2880288821498842CCD311
:101B30000120FFF76FFF002821D01E4801780029FF
:101B40000BD00021017010210520FFF76CFF164813
:101B50000470B54828800320B8E7FFF773F8861CA7
:101B6000042100273A0000960098FFF78FFC0098A8
:101B700038003071777110210520FFF754FF0A48B3
:101B80000470A948288000200849088002209DE7A9
:101B90003C5200084C520008440D00201000004840
:101BA000D8010020560D0020650D0020580D0020A2
:101BB00072020000660D0020F0B585B005000C0033
:101BC000280001F0CFFB007807073F0F684614217B
:101BD000FFF76CFCFFB23E00F607F60F0120FFF79F
:101BE000D7FE864203D010210720FFF73AFF2600D8
:101BF000280001F0ADFB0100300001F0F3FA0022F3
:101C00000021300001F0F5FA02220121300001F03C
:101C1000F0FA280001F0B8FB112422006D46010003
:101C20002800FEF7CBFE002300220021300001F047
:101C300014FB0500220069462800C0B23418E41ED7
:101C40002000FEF7BBFE01220A212800C0B2301896
:101C500001F043FB2C1801220B212000C0B23018E8
:101C600001F03BFB241801220C212000C0B23018E7
:101C700001F033FB2018C11FC9B2300001F0EBFAAC
:101C800005B0F0BD38B505000C00280001F06AFB76
:101C90000078000605D421002800FFF78DFF012001
:101CA00000E0002032BDFEB506000C0001A80021B6
:101CB000016000252F0002A800210160A0794007E3
:101CC0003CD5A5710120FFF763FE002805D06846CA
:101CD000007901210143684601710420FFF750FE9D
:101CE000022201A94C1C01002000FEF767FEFEF74E
:101CF000E1F9411C300001F075FA022201213000A7
:101D000001F077FA00220121300001F072FA01237C
:101D1000032201A9300001F0A0FA0A380100C9B27B
:101D2000300001F098FA300001F034FA0400FF218D
:101D30000820FFF796FE2000C0B23CE0A0794006E4
:101D400038D528006946087000216846FEF79EFFD6
:101D5000002801D001202EE0A571FEF773FF0422B8
:101D600002A96B461B7806246343C018801CFEF74B
:101D700055FF002805D1FF210820FFF772FE012042
:101D800019E00120FFF764FE002807D00120FFF7CB
:101D9000FFFD002802D0380001270743FEF752FF5D
:101DA00000233A00D2B23100FFF7CCFAFF2108201D
:101DB000FFF757FE0020FEBD10B5040000202000F4
:101DC000C0B2012811D1FFF7E1FDFFF75FFEC0B2FD
:101DD000022809D10120611E88400100C9B20520F6
:101DE000FFF721FEFFF7EFF910BDFDE780B5817920
:101DF000490705D44079002802D10120FFF7DCFF14
:101E000001BD00B5C0B201280CD1C9B2002904D06F
:101E1000802000020549086003E080200002044998
:101E20000860FFE700BD00007102000018040048D0
:101E3000280400487CB506000C00684600210022FA
:101E400006C008382000C0B2FFF702FE00280BD100
:101E50002000C0B2FEF7DDFD102181400800C0B2B5
:101E6000FFF7F6FD002843D02000C0B2FEF7D1FDF9
:101E70000100102528008840C0B2FFF7E9FD0028C6
:101E800005D0FEF7AFFD002801D001203071210000
:101E9000C9B20220FFF785FD2000C0B2FFF778FD30
:101EA000694608702100C9B26846FFF7A0FA200011
:101EB000C0B2FEF7AEFD85402900C9B20820FFF789
:101EC000D0FD012070712000C0B2012810D16846F9
:101ED00001782000C0B2FFF794FFD024A4012000B5
:101EE000FFF7BCFC042269462000FFF7FAFCFFE77D
:101EF00073BD80B58179490702D40121FFF79AFFAC
:101F000001BD10B504006079002807D06079401C3D
:101F1000607160790D2801DB002060712079002854
:101F20000FD02079401C207120797E2809DB002009
:101F30002071FEF757FD002803D0A079042101434A
:101F4000A17110BD10B504002000FFF74FFF200065
:101F5000FFF7CFFF10BDFEE71CB5040068465049EF
:101F60000A78027020780D281BD10020207061783B
:101F7000A01C01F0E3F800280DD1A078682804D156
:101F800001210020FFF733FD18E0534801682022AB
:101F90000A43026012E05048016820220A430260AE
:101FA0000CE001F0DAFB4D49884207D3002001F034
:101FB000D7FB4B4A0121684600F057F813BD00B526
:101FC0000A78002A0AD0082A12D0092A14D00A2A2C
:101FD00023D00B2A2FD00C2A36D045E00200D2B2F3
:101FE000682A04D1887001208873082008703BE0BB
:101FF000C8700920087037E00200D2B2002A06D16A
:10200000002008710B2008700320487004E008715C
:102010000A2008700320487026E04A788A189070D9
:102020004878401C487048780A79D21C904201DBFD
:102030000B20087018E04A788A1890704878401C85
:1020400048700C2008700FE04A788A189070487821
:10205000401C48702048026820239A4302600020F8
:1020600088730D200870FFE700BD38B51400227892
:10207000002A01D0012011E06170C9B2E51C0A00FC
:1020800001002800FEF79AFC0020A07001202070BB
:102090001148016880220A430260002032BD00001E
:1020A0009852000800B5010000200A78012A10D1DA
:1020B00088780818C0788A78521C8A708A784B7899
:1020C0009A4206D302220A7006490A6880239A437C
:1020D0000A60C0B200BD000000440040E9030000F7
:1020E000340D002000440040B8487047F8B5002483
:1020F000230000E05B1C1D00EDB2022D21DA01255A
:102100008326F600875D2E009E403742F2D183265B
:10211000F600865D9D4035438326F60085551D00FB
:10212000EDB28326760075434519AB706A70D2B262
:10213000EE1C3000FEF742FC822040002C520220B0
:102140002870F1BDF0B587B007000E00380001F02F
:1021500009F9040002A81421FFF7A8F96846002134
:10216000002206C008380020FEF738FC05003800C1
:1021700001F0D4F80422E91CFEF750FD002800D03D
:1021800080E0FEF72DFC13220100E01CFEF746FD67
:10219000002822D0FEF724FC1022E11C05002800B4
:1021A000FEF70CFCFEF71CFC032221001331050096
:1021B00010352800FEF702FCFEF721FC0120FEF797
:1021C00014FCFFF791FFD24901224254FEF7B4FC00
:1021D00001F042F90A2001F048F9032221006C467F
:1021E0002000FEF7EBFB01206946C87008714871BA
:1021F000380001F0ADF80100300000F0F3FF0022DC
:102200000021300000F0F5FF02220121300000F033
:10221000F0FF380001F0B8F81124220002AD0100EF
:102220002800FEF7CBFB012306226946300001F0AF
:1022300014F80500300001F095F8220002A9841D71
:102240002000FEF7BBFB01220A212800C0B2301893
:1022500001F043F82C1801220B212000C0B23018E5
:1022600001F03BF8241801220C212000C0B23018E4
:1022700001F033F82018C11FC9B2300000F0EBFFA5
:10228000012000E0002007B0F0BD10B500231800C9
:1022900000E0401C0200D2B2022A13DA0200D2B2DD
:1022A0008324640062438A181478002CF1D01370E0
:1022B0008320C000085C01239278934098438322D6
:1022C000D200885410BDFEB5060000252C009148B0
:1022D0000818019090480818029000A8801C00215E
:1022E0000180280001F05EF8CE4909684A79411D55
:1022F000029F3800FEF762FB01212A00019D2800A1
:10230000FFF7C4F8300001F02DF80222411C00ADA7
:10231000AD1C2800FEF752FB0420FFF731FB022220
:10232000010000A8801CFEF779FC002805D1019966
:102330003000FFF7A7FC04000FE00020FFF71AFBB6
:102340000222010000A8801CFEF768FC002804D1CE
:1023500001993000FFF7F6FE0400E4B2002C32D001
:10236000019800F017FF694608700020FFF702FB94
:102370000400300000F0F6FF02222100401CFEF7AE
:102380004DFC00280CD001236A466846017801986C
:1023900000F098F9002816D101F006F8040000E0DA
:1023A0000A2468460378019A00210298FEF77CF916
:1023B0006946087000F0F6FF69460B78029A210022
:1023C000C9B201F06FF8F7BD00000000DC01002089
:1023D000F8B50F20FFF702FB060000252C00FDF7E3
:1023E00075FE0700FDF766FE0D3000903000C0B2AC
:1023F00000283AD03000C0B2012808D1AB4800789C
:10240000002800D082E0AA48FEF7B3FB07E0F6B24E
:10241000022E04D100993800FEF76DFC04000F2154
:102420000120FFF7E4FA2000C0B2002808D0FDF731
:1024300041FE8821490045540A2001F016F865E064
:10244000FDF738FE88214900405C012802D10A20AE
:1024500001F00BF8FDF72EFE882149002A004254B6
:102460009448016820220A430260F020FFF7B6FA80
:1024700000284BD00020FFF77DFA0600380000F05E
:1024800071FF02223100401CFEF7C8FB002821D05A
:10249000FEF7A8FA002812D0FEF7A0FA0422C11C09
:1024A000781CFEF7BBFB00280AD1FFF71DFE184978
:1024B00001224254FFF718FE7F49455200E00124F3
:1024C0000023009A00980178380000F0FBF80028FB
:1024D00000D00124E4B2002C07D0F0210120FFF746
:1024E00086FA0A2000F0C1FF10E0380000F016F86C
:1024F000F0210120FFF77BFA0020FDF7DFFD6F4898
:102500000078052802D00A2000F0AFFFF1BD0000DE
:10251000190400001C0400000F02000010B50400A4
:102520000521200000F0FCFE002818D10321200026
:1025300000F0F6FE002806D1FFF7D6FD01002000CE
:10254000FFF7C1FE0BE00321200000F0E9FE0128A7
:1025500005D1FFF7C9FD01002000FFF796FE10BD71
:1025600010B500210A000A008323DB00C2540A00D0
:102570000FE01300DBB2832464006343C3180C0034
:102580009C700C005C708224640019530C001C7059
:10259000521C1300DBB2022BEBDB10BD7CB5040038
:1025A00047482518002069460870FDF78FFD010097
:1025B00001222E003000FEF701FAFFF7E7F90100D3
:1025C0002800FFF770FB694608706846007800280D
:1025D00027D02000FFF7C4FF01236A466846017830
:1025E000280000F06FF800281BD168460178280009
:1025F000FEF7A2F869460870FDF768FD0500684619
:10260000027829002000FFF771FD00F0CDFE0400E4
:1026100000F0C8FE69460B782A002100C9B200F01C
:1026200041FF73BDD401002070B524490978052904
:102630003BD000210A00050000E0521C1000C0B28F
:10264000022832DA1000C0B283235B0058432C18F2
:1026500020780028F1D082204000205A401C82239C
:102660005B00E05282204000205A3328E5DB8220C4
:102670004000215200F098FE060000F093FE6378BF
:10268000E21C3100C9B200F00DFF2078401E20701E
:10269000C0B2002809D18320C000285C0121A278A3
:1026A000914088438321C900685470BD340D0020D7
:1026B000260D0020004400401A040000710D002087
:1026C0001C040000F7B505001F00280000F03CFEC8
:1026D000694608701024684600782100FEF715FF4F
:1026E0000600684600782100FEF70FFF684601707B
:1026F000002423E0724A2000C0B210214843281869
:10270000C11D2000C0B2102358432818C01D00F07E
:10271000A3FC12E03800C0B20028EBD0684A2000C9
:10272000C0B2102148432818C11D2000C0B2102398
:1027300058432818C01D00F01DFC641C2000310007
:10274000C0B2C9B28842E5D36846047968460078C9
:10275000002841D0FFB2002F2BD0002001000DE057
:102760003200D2B210235A436B461B78D2180B00AA
:10277000DBB2D218AA180300D371491C0B00DBB2DC
:1027800010226F463F78D21B9342E9DB4C4A30005F
:10279000C0B2102148432818C11DF6B2102046438C
:1027A000A819C01D00F0E6FB103468460078241A12
:1027B00012E0434A3000C0B2102148432818C11D1E
:1027C000F6B210204643A819C01D00F045FC68462B
:1027D00000782418103CFFE72000C0B2032801DA7B
:1027E00001201CE0029E2000C0B2C11E89B2280058
:1027F000FEF71EFE010089B2090A2200D2B2AA1811
:10280000D21E11702100C9B26918891E08705320A8
:102810002100C9B26918491E087034700020FEBD3D
:10282000F0B585B0040026480390010010310291F4
:102830000100213101913430049010252900002637
:102840003200019F3800FEF721FE29003200039F6D
:102850003800FEF71BFE1127390032000298009065
:102860000098FEF713FE009839003200049E3000F5
:10287000FEF70CFE2A001349039E3000FEF79EF877
:102880002A0011490298451C2800FEF797F81322E8
:102890000E49019D2800FEF791F802980090049BD4
:1028A000039A0199200001F0F0F80198007CE07093
:1028B0000198407CE0710198807CE07205B0F0BD29
:1028C000E00B00201C5200082C520008B00C002025
:1028D00010B50200002318001C001C000EE0CC07FD
:1028E00000D55040802414405200E4B2002C02D0A5
:1028F00014001B226240C9B249085B1C1C00E4B2F0
:10290000082CECDBC0B210BD10B403780C785C402E
:10291000147043784C785C40547083788C785C40B9
:102920009470C078C9784140D17010BC7047F4B53C
:1029300007000E0031783878FFF7CAFF040071787D
:10294000F878FFF7C5FF0500B178B878FFF7C0FF4A
:102950000100654069400C00F1787878FFF7B8FF16
:10296000210048400099087031787878FFF7B0FF6F
:10297000040071783878FFF7ABFF0500B178F8787C
:10298000FFF7A6FF0100654069400C00F178B878B8
:10299000FFF79EFF21004840009948703178B878D1
:1029A000FFF796FF040071787878FFF791FF050034
:1029B000B1783878FFF78CFF0100654069400C0062
:1029C000F178F878FFF784FF21004840009988707B
:1029D0003178F878FFF77CFF04007178B878FFF75A
:1029E00077FF0500B1787878FFF772FF0100654046
:1029F00069400C00F1783878FFF76AFF2100484001
:102A00000099C870F1BD38B50100C9B2012903D1E0
:102A10000120C349087013E00100C9B202290FDB8D
:102A2000BF4C02212170451E05E002212078FFF7EE
:102A30004FFF20706D1E2800C0B2401E0128F4DA3E
:102A4000B74832BDF0B500234DE01C00E4B2045D90
:102A50001500EDB2102675431E00F6B204277E4322
:102A6000AD194D5D65401C00E4B205551C00E4B293
:102A7000041924791500EDB2102675431E00F6B234
:102A800004277E43AD194D196D7865401C00E4B2F2
:102A9000041925711C00E4B20419247A1500EDB262
:102AA000102675431E00F6B204277E43AD194D195A
:102AB000AD7865401C00E4B2041925721C00E4B234
:102AC0000419247B1500EDB2102675431E00F6B2E2
:102AD00004277E43AD194D19ED7865401C00E4B222
:102AE000041925735B1C1C00E4B2042CADDBF0BDA3
:102AF0007FB5050002A8B4490A68026000263400C8
:102B000011E00100C9B2042251432200D2B2891857
:102B10006A460300DBB2D25C6A54401C0100C9B2B1
:102B20000429EEDB641C2000C0B2042819DA30004E
:102B30000CE00100C9B2042251432200D2B289182C
:102B4000695C01AA0300DBB2D154401C0100C9B288
:102B50000429EEDB6A4601A902A8FFF7E8FE30006F
:102B6000DCE77FBD7FB5050002A898490A680260CE
:102B70000026340011E00100C9B2042251432200B2
:102B8000D2B289186A460300DBB2D25C6A54401C98
:102B90000100C9B20429EEDB641C2000C0B2042885
:102BA00019DA30000CE00100C9B2042251432200BE
:102BB000D2B28918695C01AA0300DBB2D154401C6F
:102BC0000100C9B20429EEDB6A4601A902A8FFF799
:102BD000AEFE3000DCE77FBDF0B5012100E0491C0E
:102BE0000A00D2B2042A2CDA00221DE00D00EDB258
:102BF000042675431E00F6B2AD1945196D1E0E0070
:102C0000F6B204277E431F00FFB2F619865D2E70D0
:102C10005B1C1D00EDB2042DE8DB0B00DBB20425CC
:102C20006B43C318DC70521C13000C00DBB2E4B21F
:102C3000A342D4D20B00DBB204246343C45C01235F
:102C4000E7E7F0BDF0B5012100E0491C0A00D2B26F
:102C5000042A2CDA00221CE00D00EDB20426754394
:102C60001E00F6B2AD190E00F6B204277E431F0017
:102C7000FFB2F6198619761E367846555B1E1D0082
:102C8000EDB2002DE8D10B00DBB204256B43C45438
:102C9000521C13000C00DBB2E4B2A342D5D20B00ED
:102CA000DBB204246343C318DC780323E7E7F0BDF9
:102CB000F0B500210A002BE01400E4B204256C43B7
:102CC0001D00EDB26419045D2600F6B23609140049
:102CD000E4B204256C431D00EDB26419045D2407C1
:102CE000240F1500EDB204277D431F00FFB2EF193A
:102CF000374DAC46F6B210256E43E4B23419654642
:102D00002C5DC4555B1C1C00E4B2042CD4DB521CAB
:102D10001300DBB2042B01DA0B00F4E7F0BD000076
:102D200000000020F0B500210A002BE01400E4B2FE
:102D300004256C431D00EDB26419045D2600F6B253
:102D400036091400E4B204256C431D00EDB2641989
:102D5000045D2407240F1500EDB204277D431F00F6
:102D6000FFB2EF191B4DAC46F6B210256E43E4B22C
:102D7000341965462C5DC4555B1C1C00E4B2042C60
:102D8000D4DB521C1300DBB2042B01DA0B00F4E796
:102D9000F0BD10B5002111E00D4A0B00DBB2C35CA1
:102DA0001B11102463430C00E4B2045D2407240FBC
:102DB0001B19D25C0B00DBB2C254491C0A00D2B210
:102DC000042AE9DB10BD0000785200087C5200089C
:102DD0007C4D00087C4E000810B50178002207E009
:102DE0001300DBB2C3185B781400E4B20355521C25
:102DF0001300DBB2032BF3DBC17010BDFEB50E0078
:102E00002C216A46117000212EE00A00D2B2042360
:102E10005A43825C0B00DBB204246343F2540A0081
:102E2000D2B204235A43821852780B00DBB2042436
:102E30006343F3185A700A00D2B204235A4382182B
:102E400092780B00DBB204246343F3189A700A00F3
:102E5000D2B204235A438218D2780B00DBB2042486
:102E60006343F318DA70491C0A00D2B2042ACCDB9F
:102E700004273C0077E03AE001AD2000C0B2042115
:102E800048433018001F007828702000C0B2042189
:102E900048433018C01E007868702000C0B204217A
:102EA00048433018801E0078A8702000C0B204216A
:102EB00048433018401E0078E8702000C0B2390046
:102EC000FEF723FB0029D6D101A8FFF785FF01A853
:102ED000FFF75FFF2000C0B23900FEF716FBC0B25B
:102EE000FFF791FD01AA010001A8FFF70DFD2000E9
:102EF000C0B2042148433018103800782978414086
:102F00002000C0B20422504331542000C0B204213A
:102F1000484330180F380178687848402100C9B21A
:102F200004225143711848702000C0B20421484364
:102F300030180E380178A87848402100C9B2042220
:102F40005143711888702000C0B2042148433018E2
:102F50000D380078E97841402000C0B20422504387
:102F60003018C170641C200069460978C0B28842DC
:102F700082D3F7BDF1B586B00D00002630001DE00C
:102F800002AC0300DBB204277B430F00FFB2DF1962
:102F900000970194069F0300DBB29C460C00E4B24C
:102FA00004235C4363461B19FB5C019C009FE355B3
:102FB000491C0B00DBB2042BE2DB401C0100C9B250
:102FC000042901DA3100F4E717000022390002A8D1
:102FD000FFF738FD01240FE002A8FFF769FE02A801
:102FE000FFF7FAFD02A8FFF783FD2200D2B23900F5
:102FF00002A8FFF727FD641C2000C0B20A28EBDB03
:1030000002A8FFF755FE02A8FFF7E6FD0A223900E5
:1030100002A8FFF717FD300016E00200D2B20B0045
:10302000DBB204246343D21802AB0400E4B20427E9
:103030007C430F00FFB2E4191B5DAB54491C0A002E
:10304000D2B2042AE9DB401C0100C9B2042901DA2A
:103050003100F4E707B0F0BDF1B586B00D000026F1
:1030600030001DE002AC0300DBB204277B430F00FD
:10307000FFB2DF1900970194069F0300DBB29C4664
:103080000C00E4B204235C4363461B19FB5C019C07
:10309000009FE355491C0B00DBB2042BE2DB401C14
:1030A0000100C9B2042901DA3100F4E717000A224D
:1030B000390002A8FFF7C6FC09240FE002A8FFF7B9
:1030C000C1FD02A8FFF72EFE2200D2B2390002A8ED
:1030D000FFF7B8FC02A8FFF745FD641E2000C0B250
:1030E0000028EBD102A8FFF7ADFD02A8FFF71AFEFA
:1030F0000022390002A8FFF7A5FC300016E002000C
:10310000D2B20B00DBB204246343D21802AB04003A
:10311000E4B204277C430F00FFB2E4191B5DAB54FB
:10312000491C0A00D2B2042AE9DB401C0100C9B2E2
:10313000042901DA3100F4E707B0F0BD38B5040026
:103140002078AC2804D02078682801D0012020E025
:103150002078AC2801D1CD1E00E08D1E2900C9B217
:1031600089B22000FEF764F9010089B2090A89B228
:103170002A00D2B2A25C914201D0012009E080B2C3
:10318000C0B2EDB261194978884201D0012000E057
:10319000002032BD38B5040000210800200000F0F6
:1031A0001EF8200000F0D0F80500ED1D2900C9B27E
:1031B00089B22000FEF73CF9010089B2090A2A0011
:1031C000D2B2A1542900C9B2611848705320290015
:1031D000C9B261188870ED1C2800C0B232BDAC21A4
:1031E0000170704710B50422441C2000FDF7E6FB77
:1031F00010BD00B5D2B2002A03D0022A1DD00FD3D1
:1032000028E00A00D2B2002A05D042794907490FC6
:103210001143417103E04179F8220A40427119E0FB
:10322000C9B2002904D0417940220A43427103E027
:103230004179BF220A4042710CE0C9B2002904D092
:10324000417980220A43427103E041794906490EDF
:103250004171FFE700BD81717047F2B582B0150082
:103260001E0000F073F8040002202070FDF7B6FB8A
:1032700004273A00C11C601C01900198FDF79EFBD9
:1032800001982800C0B2002821D0684600210160C2
:103290006846C5702078390001432170F6B2002ECF
:1032A00003D02078082101432170029E3A0069462C
:1032B000671D3800FDF782FB2A00D2B231000934C5
:1032C0002000FDF77BFB13352800C0B204E0207816
:1032D000F321014021700F20FEBD00B5C9B20A29BB
:1032E00006D019D30C290FD008D30D2913D013E021
:1032F0000078012801D106200FE00DE000780228B7
:1033000001D1122009E007E00178032902D182707F
:103310000E2002E000E0FFE7002000BD401C7047E7
:1033200000B502000020C9B2C91E03D0491E012900
:1033300004D907E050794007400F03E0507980211D
:103340000840FFE7C0B200BD80797047C01D7047DC
:1033500080B5FFF7FBFF401C02BD80B5FFF7F6FF0D
:10336000007A02BD80B5FFF7F1FF062102780A401E
:10337000D2B2042A01D1401D05E002780A4201D0F0
:10338000093000E0002002BD38B504002000FFF73E
:10339000DDFF05002000FFF7E0FFC0B2281809306C
:1033A00032BDFEE781487047814800787047C0B25F
:1033B00080490880704700207E49088070477D481A
:1033C0000088C0B2704710B5002402E0641C00F011
:1033D00020FC78480088002803D02000C0B20628CE
:1033E000F4DBFFF7E8FF10BD38B5040068460021A4
:1033F0000160FDF7F5FA0322010010316D46280047
:10340000FDF7DCFA68460178427889188078081858
:1034100000280ED168480100C9B289080007000FD2
:103420004840207020780A2810D12078801C207015
:103430000CE00100C9B289080007000F4840207065
:1034400020780A2802D12078801C20705B482178DF
:10345000405CB549087031BD80B55548FFF7C4FFE1
:1034600000F0D7FBFFF7AFFF01BD80B58021490019
:10347000534A116080218900524A11600100C9B28B
:10348000422900DB4120DC214C4AC0B2105C00F034
:1034900090FC0120A549087000F09EFB00F0A0FB05
:1034A000002002BDF8B51C002300DBB2FC2B00DBC2
:1034B000FB240E003100C9B2422900DB41260092F4
:1034C00005002200D2B20099FF20801D2F1838007D
:1034D000FDF774FA2200D2B229000098FDF7BEF978
:1034E0000100091D6970AE7001242100E97069783E
:1034F000AA784A40E9785140297180214900314A2F
:103500001160802189002E4A1160001D0200D2B294
:10351000FF20801D29182948F6B2805D00F065FC67
:1035200005208249087082482C5400F051FB00208D
:10353000F2BDF8B50E0011001D002A00D2B2FC2A1F
:1035400000DBFB253200D2B2422A00DB4126040018
:103550002A00D2B2FF20801D27183800FDF72EFA6E
:103560002800001D6070A6700120E0706078A178CE
:103570004140E078484020718020400011490860B7
:10358000802080000E4908602D1D2A00D2B2FF2045
:10359000801D21180948F6B2805D00F026FC052048
:1035A0006249087000F014FB0020F2BDF80600200C
:1035B000700D00205E0D0020FD020000AC500008E0
:1035C000280400481804004880B50521FFF7A8FE2C
:1035D000002804D110210020FEF709FA03E0202181
:1035E0000020FEF704FA01BDF8B50400514F3888F9
:1035F000401C388038885049884223DB68464F4950
:103600000A8802800020010039804D490A78022A88
:1036100008DB08700120FFF7CAFE8020C00149497D
:10362000086080E00878401C087040480078052851
:1036300008D0FFF7B9FE010002236A46C9B2200094
:10364000FFF777FF394D2878032816D0042802D0D9
:10365000062808D067E0022000F0CDFC00F079F8E1
:10366000012028705FE000242000287000F071F82D
:103670003C800A20FFF7F9FE55E000263000287054
:10368000012000F00AFD00F064F83E802E4800683A
:103690004179601DFDF752F9C0B2012806D1002022
:1036A00000F0FBFC0A20FFF7E0FE3CE02000FDF705
:1036B00060F80120FCF7FEFC0100601DFCF747FFED
:1036C0000100C9B201290FD00100C9B2022904D1F9
:1036D00002210020FEF78BF925E0C0B203281AD1A1
:1036E00002210020FEF783F9FEF750F90400FDF7F0
:1036F000A9FAE11CFDF7BDFCFCF7DCFC0400FCF7BB
:10370000E5FC617BFFF71AFD002808D1FCF7DEFC21
:10371000FFF75AFF06E00A20FFF7A7FE03E00A20A2
:10372000FFF7A3FEFFE7F1BD6D010020710D002042
:1037300005030000600D0020993A0000BA09000856
:10374000720D002018080048D40100202448008889
:10375000704700202249088070472248006870475F
:1037600020490860704738B51F4820490860204C40
:10377000206804210143216000201E49086068463A
:10378000FF210170012529004170290081706846E0
:1037900000F0B0FD2068022101432160206805434C
:1037A000256031BD00B50F4A116813685B1A83426A
:1037B000FBD300BD00B50B480168491C01600849F6
:1037C0000A88002A02D00A88521C0A800068400732
:1037D000400F002802D101200749087000BD0000F9
:1037E0005A0D0020500D002080BB000014E000E0C6
:1037F00010E000E018E000E0670D00207047FEE7F1
:1038000030B5002308E01C00E4B2045D1D00EDB2F9
:103810004D5DAC4210D35B1C1C001500E4B2EDB250
:10382000AC420BD21C00E4B20C5D1D00EDB2455D54
:10383000AC42E8D2012002E0022000E0002030BDCE
:1038400010B5002200E0521C13000C00DBB2E4B201
:10385000A34207D21300DBB2C35C002BF3D0881A5B
:10386000C0B200E0002010BD10B50022110007E03A
:103870000B00DBB2C3185B780C00E4B20355491CA3
:103880000B00DBB2102BF3DB027410BDF4B50500A6
:103890000C006846027821002800FFF7B1FF0228DB
:1038A00047D00020010002006A46127820E0591A31
:1038B0001300DBB2E3185B1E1B78CB1A012111E069
:1038C0001600F6B2A619761E36781F00B6B2BFB241
:1038D000BE42ECD2591A1300DBB2E3185B1E1B7810
:1038E000CB1A01001600F6B2AE19761E3370521EC6
:1038F0001300DBB2002BCCD01300DBB2EB185B1E45
:103900001B781E001700FFB2E7197F1E3F78B6B282
:10391000BFB2BE42D4D10E00F6B2012E07D15B1E5B
:103920001600F6B2A619761E36789B1BDAE703005E
:10393000D8E7F1BDF8B507000E00112411213000C1
:10394000FFF77EFF251A1120421BD2B22800C0B219
:1039500031183800FFF79AFF00240CE01220421BB8
:10396000D2B22800C0B23118491E2000C0B23818A7
:10397000FFF78CFF641C20002900C0B2C9B2884246
:10398000ECD3F1BD70B50024DBB2012B1ED11023A6
:1039900014E01D00EDB245196D1E2D780E00F6B233
:1039A0007543E4B22C191D00EDB2555D6419250074
:1039B0001E00F6B29555A4B2240A5B1E1D00EDB29E
:1039C000002DE6D110780019107017E0102310E0D8
:1039D0001D00EDB245196D1E2D780E00F6B275432F
:1039E000E4B22C1925001E00F6B29555A4B2240AA3
:1039F0005B1E1D00EDB2002DEAD1147070BDFEB546
:103A000007000C0015001E0010212000FFF718FF12
:103A1000694608706846007841426018103001908D
:103A20000024200003E00100C9B26C54401C0100D6
:103A3000C9B21129F7DB14E001232A000198210003
:103A4000C9B2415C3800FFF79DFF31002800FFF745
:103A500071FF2800FFF708FF31002800FFF76AFF19
:103A6000641C2000C0B269460978491E8842E3DB25
:103A700001232A000198E4B2015D3800FFF782FFBC
:103A800031002800FFF756FFF7BDF6B585B00600F8
:103A90000D001F00082410210698FFF7D1FE69468B
:103AA000087068460078002800D188E004950196E7
:103AB00010220499019D2800FCF780FF06986946B2
:103AC00009784A428018103003900398017800204A
:103AD00002E04900641E401C0200D2B2082A01DA4A
:103AE0000A06F6D54D00601E69464870002402970C
:103AF00021E03448344908600C9B029A01990198EE
:103B0000FFF77DFF102632000298411C019F38000C
:103B1000FCF754FF28060CD50C9B029A01990498D7
:103B2000FFF76DFF32000298411C019E3000FCF748
:103B300045FF6D00641C200069464978C0B2884288
:103B4000D7D30398401C039000202049087029E037
:103B50001C481D4908600C9B029A01990198FFF7C7
:103B60004EFF102632000298411C019F3800FCF7DE
:103B700025FF28060CD50C9B029A01990498FFF7A3
:103B80003EFF32000298411C019E3000FCF716FFF8
:103B90006D00641C2000C0B20828D9DB0B480178F6
:103BA000491C01700948007869460978491E884215
:103BB00005DA039805490978455C0024EAE707B06F
:103BC000F0BD0000AAAA000000300040730D0020E4
:103BD0000020A249087070470020A1490870704772
:103BE0000020A0490870704780B50120FFF7DFFB77
:103BF00001BD10B5002400F0C2FB00F043F900E065
:103C0000641C200098490968098980B28842F7D36A
:103C100010BD80B5FFF7CFFBFFF7EBFF00F077F9A2
:103C2000924840889249884201D0FFF7DDFF8E48D4
:103C30000068006800F034F9002801D0FFF7D4FFD5
:103C400000220021002000F0AEF901BDF8B5070008
:103C50000024200000220021002000F0A4F9834D60
:103C6000A878000702D50420824908702879C00787
:103C700002D5012080497854A878800727D57F4E47
:103C80003078312813DB75480078302148433818E4
:103C9000FF2142314118302000F0BEF96F48007812
:103CA000401C6E4908703078303830700FE0307842
:103CB00000280CD069480078302148433818FF218B
:103CC00042314118307800F0A7F920003070A87810
:103CD000800608D5200069490870062065490870EB
:103CE000200067497854A878C0072DD55C48007833
:103CF000002812D1791C042000F097F9002000F070
:103D00007AF92E78791D3000C0B200F08EF955484E
:103D1000067001205249087016E0002000F06BF98F
:103D20002878694608704F4E30783818411D68462B
:103D3000007800F07AF930786946097840183070D8
:103D400047480178491C0170A878C00630D544481E
:103D5000007800280BD1791C042000F066F90020BF
:103D600000F049F9791D287800F05FF90EE03D4E2A
:103D7000307800280AD0002000F03DF9307838185B
:103D8000411D287800F051F92000307036487978CC
:103D9000091F02685171B97800680171002000F0B4
:103DA00053F9E878387003203249087032483C549F
:103DB000F1BD3EB505000C00032000F013F9002210
:103DC0000021002000F0EFF8022000F014F9082094
:103DD0000190032000900023E4B2220092B200215F
:103DE0002800C0B200F0CAF837BD70B505000E005B
:103DF0001400032000F0F6F800220021002000F05B
:103E0000D2F8012000F0F7F82000C0B23D280EDB08
:103E100020003C3819490870FFF7C4FA411C0420FF
:103E200000F0FAF831003C2000F0F6F80DE0002038
:103E300012490870FFF7B6FA411C042000F0ECF8B4
:103E400031002000C0B200F0E7F82800E4B2220000
:103E500092B28021C0B200F07EF870BD6C0D0020DF
:103E60006D0D00206E0D0020D4010020040D0020F7
:103E700038440000710D0020060300006B0D002087
:103E80000503000080B500F06DFA0420FFF78AFCFE
:103E900000F06CFA0520FFF785FC00F029FB01BD5E
:103EA00038B50400207800282FD02078641C010049
:103EB000C9B2112901D3042028E0002106E02278AC
:103EC0005E4B0D00EDB25A55641C491C0A000300FC
:103ED000D2B2DBB29A42F2D3002300225749C0B2D9
:103EE00000F00EFBFF2801D002200FE000F04CFA9A
:103EF0000028D7D100220021002000F054F85048BB
:103F000080790007CED5042000E0002032BD10B536
:103F10004A4C01202070230008222100012000F0DB
:103F2000EFFA474821780170811C627812020A80FA
:103F30004288A3781A430A80E1780171811D2279B1
:103F400012020A80C28863791A430A80A179017239
:103F5000E179417210BD10B50B00384931240C7065
:103F600048708B70100080B2000AC8700A7100207F
:103F700048718871072000F061FA10BDF8B5069D00
:103F8000079E2E4C322727706070A170100080B2FF
:103F9000000AE07022716371A571E67121000820AA
:103FA00000F04CFAF1BD10B5244C20232370607052
:103FB000A170E270230008222100042000F0A0FA82
:103FC0001F482178017061784170A1788170E17893
:103FD000C1702179017161794171A1798171E179B2
:103FE000C17110BD80B5154934220A704870022095
:103FF00000F024FA01BD10B5104C1521217060703D
:10400000230002222100022000F07AFA0D482178D4
:1040100001706178417010BD80B502000B00D2B212
:104020000021662000F03FFA01BD80B502000B00C0
:10403000D2B20021772000F017FA01BD140D002044
:10404000040D0020040D002010B5104C2221217019
:104050006070230008222100022000F051FA0C4871
:104060002178017061784170A1788170E178C17028
:104070002179017161794171811DA27912020A8051
:10408000C088E2791043088010BD0000140D0020A4
:10409000040D00207F48007870477E490870704703
:1040A0007D480168802292020A4302600C20C043CE
:1040B0009021C9050A6802400A600A680423134374
:1040C0000B6076490A6802239A430A600A680A600C
:1040D00073490A6802400A600A680A6071490A68FE
:1040E000104008600868086002206F490860704747
:1040F00069480168802212030A4302606B486C49D8
:104100000A6802400A600A6880235B0513430B605B
:1041100068490A68684B13400B600A680A6067497F
:104120000A6802400A600A680A6065490A68104025
:104130000860086808608020C00162490860704714
:10414000554801688022D2020A4302605E485F49F6
:104150000A6802400A600A688023DB0113430B608F
:104160005B490A6880239A430A600A680A605949D1
:104170000A6802400A600A680A6057490A681040E3
:104180000860086808607047F0B48020C0024249A7
:104190000A6802430A60514B4C4A14681C40146080
:1041A000146880256D0225431560494C25684C4EE6
:1041B0002E40266025682560464D2E681E402E60E4
:1041C0002E68C027BF0237432F60434E37683B40FD
:1041D0003360336833600B6803430B6041491368F5
:1041E0000B40136013681843106020683E4A024079
:1041F00022602068206028680840286028682860BD
:1042000030680140316030683060F0BC704722484F
:1042100001688022D2020A4302602C4801688900AA
:104220008908016001688022D2050A43026028489B
:1042300001682E4A0A400260016801602548016851
:1042400089008908016001680160234801688900CC
:10425000890801600168016080200002244908602B
:1042600070470D480168802292020A430260164896
:104270009021C9050A6802400A600A680A60094973
:104280000A681040086008688022D20102430A6070
:1042900070470000740D0020141002400400004814
:1042A000080000480C00004828000048FFFFFFCF2E
:1042B0000008004804080048FFBFFFFF0808004846
:1042C0000C08004828080048FF3FFFFF0004004892
:1042D00004040048080400480C040048FFFFFCFFE9
:1042E000FFFEFFFFFFFFF3FFFFFDFFFFFF7FFFFF6D
:1042F0001804004870B500218178002923D01649A0
:104300000278921004235A438B580322FF24057825
:10431000154008267543AC40A3434478A401E4B299
:1043200005782A4008256A4394401C43027892107D
:1043300004235A438C5001210078C006C00E8140EE
:104340000648016006E001210078C006C00E8140E9
:104350000348016070BD00BF00E400E000E100E040
:1043600080E100E080200C490860704780200B4904
:10437000086070478020000209490860704780206B
:104380000002084908607047074800688109080072
:10439000C007C00F704700001804004828040048F8
:1043A00028000048180000481004004880B5C0B23A
:1043B00000F080F901BD80B5FF2000F07BF902BD5F
:1043C00080B5C0B200F0BCF901BD80B5C0B200F04C
:1043D000A5F901BDF8B507000E000024464D03E025
:1043E00000BFFFF7CCFF6D1E280080B2002817D059
:1043F000FFF7C0FF4420FFF7D9FFFFF7DCFF040001
:104400002000C0B2FF28EBD138000100C9B200295A
:1044100003D03100C0B2FFF7D8FF00BFFFF7AFFFF6
:10442000ADB2002D00D1FEE72000C0B2FF2802D1BE
:104430000120324908702000C0B2F2BD70B50500FD
:104440000E0001E000F04EF82C4C20780028F9D046
:10445000FFF790FF31002800C0B2FFF7B1FFFFF770
:104460008EFF0020207070BD70B5040015001E0086
:10447000C9B2002902D105E000F034F81F480078E5
:104480000028F9D0FFF776FF2000C0B2FFF78EFFBB
:1044900031002800C0B2FFF798FFFFF770FF00203F
:1044A0001649087070BD70B5040015001E00C9B231
:1044B000002902D105E000F015F810480078002826
:1044C000F9D0FFF757FF2000C0B2FFF76FFF3100B0
:1044D0002800C0B2FFF774FFFFF751FF0020074923
:1044E000087070BD80B500210020FFF773FF02BD8A
:1044F0000020024908707047307500006F0D0020E1
:1045000038B514001D00C0B2FFF798FF2900200045
:10451000C0B2FFF75FFF32BDF8B56C48016880227A
:1045200052010A4302606A480168802292020A43EB
:1045300002608021C90202680A43026002680A43DD
:1045400002600268114301609021C905086880007B
:10455000800808608020C0050A6802430A605D493F
:104560000A685D4B13400B600A680A605B490A6881
:10457000920092080A600A6810430860584801686F
:1045800089008908016001680160564B1868564926
:104590000140196018681860C022D243534801686E
:1045A00011400160016880240C430460504909688F
:1045B0000824A1434E4C21604D4909684C4C2160B0
:1045C0004C4C2168114021602168C0250D432560B5
:1045D00049490D682A400A6040220D6815430D6064
:1045E0001D68464E2E401E601D681D60444D0668C5
:1045F0002E400660066880273F01374307603C4E27
:1046000036682027BE433A4F3E60394E3668384FF1
:104610003E6026682E4026602668C0273F0137434B
:1046200027600C6825400D600C688025ED0025434F
:104630000D601C68334D25401D601C681C60324CA9
:1046400003682340036080239B0005681D430560C9
:10465000086804400C60802040000C6804430C6033
:104660002A4900240C600D680D600D6810262E4349
:104670000E600D6804262E430E600D680D600D68F7
:104680000D60234D2C602C688026760126432E6019
:104690002C68E026F60026432E600C6823430B604E
:1046A0000B6818430860086802430A60FF2000F0A6
:1046B00001F8F1BD00B5174A11688907FBD5164905
:1046C00008701068C007FCD5087800BD18100240BB
:1046D0001410024004000048FF7FFFFF080000485C
:1046E0000C00004820040048FF0FFFFF00040048B2
:1046F00004040048080400480C040048FFFF0FFFB2
:10470000FFF3FFFFFFFFF0FFFFFCFFFF0030014062
:1047100004300140083001400C30014070B5050004
:104720000C00002605E0FF20FFF7C4FF2070641C8A
:10473000761C30002900C0B2C9B28842F3D370BDE4
:1047400070B505000C00002605E03000C0B2205C0A
:10475000FFF7B0FF761C30002900C0B2C9B2884212
:10476000F3D370BD10B5FFF795FC002818D0FFF704
:1047700091FC401CC0B2FFF790FCFFF78BFC0521B9
:104780000140012904D18E48016802224A4002609A
:10479000FFF780FC332826DB0020FFF77EFC22E0B9
:1047A000FDF7A2FC8749405C012819D10220864907
:1047B0000860FDF799FC8549415A491C834A81529A
:1047C0008249405A824988420DDB0024FDF78CFC67
:1047D0007E4922004252FDF787FC7A49445402E0A8
:1047E00002207C49086010BD38B57B4DFEF7E7FD1F
:1047F00028807A4C207801280FD17948006840063B
:104800000BD4FEF7A3FF7E2814DBFEF7A2FFFEF712
:1048100023FE0A20FEF729FE0CE02078012809D0AB
:10482000FEF794FF6F49884204DBFEF792FF0A20EF
:10483000FEF71BFE2888002819D02888401C2880F5
:104840002888C0B2FEF7B3FD2888BC214900884201
:104850000DDBFEF7B0FD8020C00163490860322007
:10486000FEF7A0FFFEF7F8FD0A20FEF7FEFDFEF7BB
:1048700099FD5E49405C002814D0FEF793FD5B492A
:10488000415C491C594A81545849405CFB2809DB6A
:104890000025FEF787FD55492A00425425700A205D
:1048A000FEF7E3FDFEF77EFD5149405C002811D084
:1048B000FEF778FD4E49415C491C4D4A81544C49F4
:1048C000405C3F2806DBFEF76DFD4949002242545B
:1048D000062020704749087802280AD1464A1078F5
:1048E000401C10701078072803DB002003001370B1
:1048F00008704248817B00290BD0827B521C01004A
:104900000E310A70D2B20A2A03DB00220A700D218E
:1049100001703B480100CA310A78002A09D00A78A0
:10492000521C0A70D2B20A2A03DB00220A700D213F
:104930000170FDF72BF8FDF7E4FAFFF713FFFCF722
:1049400035FB31BD10B500F063F802241E48046049
:10495000FCF7B1F8FCF7F0F81E480460FFF757FCCD
:10496000FFF77FFCFEF778FD0A20FEF77EFDFCF7DF
:104970009DF800F063F82348234908602348017834
:104980000029FBD000210170FFF72EFFFEF70AFD82
:10499000FEF72AFEFDF71CFDFCF7F8FFFDF7D2FA43
:1049A0000E480078052803D0FDF79EFBFDF7F6FDC5
:1049B000FDF79AFBFDF738FE00F062F8DBE7000038
:1049C0001400004819040000180000481A040000F0
:1049D0004D1D0000280000485C0D0020710D0020D6
:1049E0001004004872020000280800480603000076
:1049F00005030000340D0020680D0020240D002068
:104A0000140B0020AAAA000000300040670D00200F
:104A100080B500F099F872B6FFF742FBFEF7A3FEEF
:104A2000FFF766FBFFF778FDFFF78AFBFFF7ACFBAC
:104A300000F0B6F800F004F962B601BD00B509480F
:104A400009490160094901600021094A1160FA2100
:104A50000901084A1160084909680029FBD1074982
:104A6000016000BD00300040CCCC00005555000076
:104A700004300040083000400C300040AAAA00007A
:104A8000F8B5FDF731FB8321890044182C480078E4
:104A9000052854D02078002851D082204000205A88
:104AA000401C82214900605282204000205A4C283C
:104AB00045DB00263000822149006052E01C009056
:104AC000FBF7F8FA1F4D2978491C29700422297830
:104AD000042359434018411C0098C71D3800FBF7B8
:104AE0006DFF6078011F89B20098FCF7A1FC0100FE
:104AF00089B2090A009A6378D218121F11700099BE
:104B000062788918C91E0870FEF74EFC0700FEF790
:104B100049FC6378009A3900C9B2FEF7C3FC2078DB
:104B2000401E2070C0B2002809D12878401C28708F
:104B30002878032801DB2E7001E003202070F1BDEE
:104B4000710D00206A0D002000B512480168016057
:104B50000021114A11600168A02292030A430260F9
:104B6000022102680A430260026802600268026071
:104B70000A48026801231343036002680A40002ABE
:104B8000FBD00168802252040A4302600168890157
:104B9000FCD500BD041002402C1002400010024061
:104BA0001CB51D4801688022D2020A4302601B48DE
:104BB0001B490A6802400A600A680A6019490A68C3
:104BC0001040086008688022520102430A600120F8
:104BD00015490A6802430A6014490A68144B1340D5
:104BE0000B600A6880235B0013430B60402411496B
:104BF0000A6822430A6010490A680A606946072267
:104C00000A7002224A7088706846FFF773FB0B48EF
:104C100001680C43046013BD14100240FFCFFFFF76
:104C2000000400480C040048181002400C00014029
:104C3000FFF0FFFF0C0401400804014000040140A4
:104C4000F8B58020800241490A6802430A60404961
:104C50000A68104308603F4B18683F4901401960DB
:104C6000186880214900014319603025ED439024E4
:104C7000E40520682840206020682021014321604D
:104C800036480168042291430160042701683943D2
:104C9000016033490A682A400A600A6810261643F0
:104CA0000E60304A166835401560156810262E4390
:104CB00016601D682C4E2E401E601D6880267601F1
:104CC0002E431E60C023DB4325681D4025602568F8
:104CD00080262E43266004680825AC43046008241F
:104CE00005682543056008681840086040200D6885
:104CF00005430D6011680B40136011680843106094
:104D00001A4D002028601A49086028682860086841
:104D1000086018481849086068461C210170032182
:104D200041700126310081706846FFF7E3FA286878
:104D3000202101432960286804432C602868074328
:104D40002F60286806432E60F1BD00001410024059
:104D50001C10024020000048FFF0FFFF0400004844
:104D6000080000480C000048FF0FFFFF004400400F
:104D700004440040E20400000C440040637C777B64
:104D8000F26B6FC53001672BFED7AB76CA82C97D47
:104D9000FA5947F0ADD4A2AF9CA472C0B7FD9326D8
:104DA000363FF7CC34A5E5F171D8311504C723C3DC
:104DB0001896059A071280E2EB27B27509832C1A20
:104DC0001B6E5AA0523BD6B329E32F8453D100ED7A
:104DD00020FCB15B6ACBBE394A4C58CFD0EFAAFB5E
:104DE000434D338545F9027F503C9FA851A3408F26
:104DF000929D38F5BCB6DA2110FFF3D2CD0C13EC3E
:104E00005F974417C4A77E3D645D197360814FDCD2
:104E1000222A908846EEB814DE5E0BDBE0323A0AB6
:104E20004906245CC2D3AC629195E479E7C8376D3A
:104E30008DD54EA96C56F4EA657AAE08BA78252E5F
:104E40001CA6B4C6E8DD741F4BBD8B8A703EB566E8
:104E50004803F60E613557B986C11D9EE1F89811D9
:104E600069D98E949B1E87E9CE5528DF8CA1890DC8
:104E7000BFE6426841992D0FB054BB1652096AD55E
:104E80003036A538BF40A39E81F3D7FB7CE339823F
:104E90009B2FFF87348E4344C4DEE9CB547B94328E
:104EA000A6C2233DEE4C950B42FAC34E082EA166D6
:104EB00028D924B2765BA2496D8BD12572F8F664AD
:104EC00086689816D4A45CCC5D65B6926C70485028
:104ED000FDEDB9DA5E154657A78D9D8490D8AB00DD
:104EE0008CBCD30AF7E45805B8B34506D02C1E8F06
:104EF000CA3F0F02C1AFBD0301138A6B3A91114142
:104F00004F67DCEA97F2CFCEF0B4E67396AC74222A
:104F1000E7AD3585E2F937E81C75DF6E47F11A71A8
:104F20001D29C5896FB7620EAA18BE1BFC563E4BE1
:104F3000C6D279209ADBC0FE78CD5AF41FDDA833A3
:104F40008807C731B11210592780EC5F60517FA9E3
:104F500019B54A0D2DE57A9F93C99CEFA0E03B4D12
:104F6000AE2AF5B0C8EBBB3C83539961172B047E86
:104F7000BA77D626E169146355210C7D704700B5D8
:104F8000FEE77047704780B51E480168C90302D527
:104F90000068FEF70FFC01BD70477047704770470F
:104FA000704738B54024184D28682040002806D0A6
:104FB000FEF7F8F9FEF74AFE286804432C6031BD7D
:104FC00010B50820114C21680140002903D0104978
:104FD0000A68104308602068800605D50D490E4810
:104FE0000088C0B2FCF7EBFF2068400608D50B48EC
:104FF0000068000604D50A48FDF754F809490880FE
:1050000010BD000010E000E0140401401C4400400A
:1050100020440040240D002024440040004400406F
:10502000340D0020284400407047FEE71448016812
:1050300001220A43026013490A68134B13400B60B4
:105040000268124B134003600268114B1340036067
:105050000868104A02400A600F4801680F22914315
:1050600001600E4801680E4A0A4002600D4801685E
:1050700001229143016000200B4908607047000045
:1050800000100240041002400CB8FF08FFFFF6FEBB
:10509000FFFFFBFFFFFFC0FF2C100240301002405B
:1050A000ECFEFFFF341002400810024018420027B7
:1050B00001280229032A042B052C062D072E082F70
:1050C00009300A310B320C330D340E350F361037E0
:1050D00011381239133A143B153C163D173E193F4F
:1050E0001A401B411C431D441E451F46204700001B
:1050F00070B40123002413E00168001D194202D09E
:105100004D466D1E49190C60091D121F042AFAD262
:105110000D00960701D50C80AD1C1A4000D02C70F4
:105120000268001D002AE7D170BC704730B50168E5
:105130004118446862088A188368E4070DD54C4614
:105140001B190AE00C7864B2491C0D78491C1D70CB
:105150005B1C002C05D5641CF9D19142F2D10C30B6
:1051600030BD641EF1D5F8E710B507497944183110
:10517000064C7C44163404E0081D0A6889188847E8
:105180000100A142F8D110BD080000002400000079
:1051900061FFFFFF9C0B0000DC010020000000000D
:1051A0008DFFFFFFF5000000260300000000002037
:1051B000000001CC01D8001401F0003C002801E4FB
:1051C00001A0006C007801B40050019C01880044EB
:1051D00000F00DF8002801D0FFF7C6FF00BF00BFA8
:1051E000002000BF00BFFFF7ADFB00F002F8012078
:1051F000704780B500F002F801BDFEE7074638466B
:1052000000F002F8FBE7FEE780B500BF00BF024AEE
:1052100011001820ABBEFBE72600020000000000D2
:10522000000000000000000000083399A4D9B2E893
:10523000347FBEF714FA7432A357C6AD0F0F0F0EAA
:105240000F0D0F0C0F0B0F0A0F020F0100010002D0
:105250000003000400050006000700000148804725
:10526000014800472D5000086D52000800BF00BFE4
:1052700000BF00BFFFF7ACFF020101030E090D0BD9
:10528000FFFFFF00FEE7FEE7FEE7FEE7FEE7FEE7C3
:10529000FEE7FEE7FEE7FEE7AA0002FD00200702A8
:1052A000010001C9C380061100020052000511006F
:1052B0000103200711010300033B0108110204FB55
:1052C00000090D11100900320A000A12FC002A0719
:1052D000111103000198F30B11120700040108FFDC
:1052E000FF00011011120C080A01FF303000010606
:1052F000A200DC021011120C1422F5000D10111284
:105300000C20000001068200DC020AFD00040D11E1
:1053100012092CF7007E1011200C000300070C3539
:105320000009C9C3800005051120010C760C11206D
:10533000081801000803800020200D112009220018
:105340005E05761A057202000B1120072C001281EF
:105350005E01CDA00511200135E2071120033811AF
:1053600015150511200140280D11200942A403D66E
:105370000300CC0180FF051120014C010511200123
:105380004E4005112001510A1011210C00A2812666
:10539000AF3FEEC8C73EDBF202081011210C0C072C
:1053A0000315FC0F00A28126AF3FEE1011210C184F
:1053B000C8C7DBF20208070315FC0F00081122041E
:1053C00000087F003D0B112307002C0E0B040C730B
:1053D000031011300CF300150C11400800400AAA0C
:1053E000AA369D20FE1011500C0010020404F8FF94
:1053F000041011500C0CF4FF041011500C18F4FFA1
:10540000041011500C24F4FF041011500C30F4FF60
:10541000040A1150063CFAFFFD00100400002000B1
:0C54200040030000F00000C80100200163
:040000050800526D30
:00000001FF
