:020000040800F2
:10000000901500204D730008116E0008136E000853
:1000100000000000000000000000000000000000E0
:10002000000000000000000000000000176E000843
:100030000000000000000000196E00081B6E0008A0
:100040001310000800000000FF330008E757000805
:100050004F630008336E0008356E0008376E0008E5
:1000600000000000196F00081B6F0008EB72000809
:10007000F77200087573000877730008000000002D
:1000800079730008316E0008000000007B730008DF
:100090002D6E00087D7300082F6E00087F73000826
:1000A000817300088373000885730008556E00088B
:1000B000976E000800000000F8B58EB004000D0037
:1000C0001498002802D000201499086002A80CC0DF
:1000D00002A803C89EA20CCA02400B4001D1002A0C
:1000E00013D00020994922002B0000F0A1FD0CD074
:1000F000954900F09DFD0BD102A803C808004100FE
:100100004915491C04D1000302D100208F4937E36F
:1001100068004015401C0DD08DA003C82040294028
:1001200001D1002806D002A803C848004015401C91
:1001300000D0F1E069004915491C04D1280302D020
:10014000200029001CE302A803C80800410049154B
:10015000491C04D1000302D002A803C810E3012601
:1001600002A803C848004015401C00D184E002A842
:1001700003C80B0002185B4104D1002A02D102A877
:1001800003C817E0AB4F5A0DBA1A352A05DB0B002E
:1001900000208021090619400CE0202A03DD203AC6
:1001A000D140914000E001D1002003E0002A01DDB0
:1001B000D04090406A4603C202A803C8002907DA6B
:1001C000002280231B06121A8B4104A80CC001E0F8
:1001D00004AA03C2684603C8002906DA0022802365
:1001E0001B06121A8B411000190004AA0CCA8B427C
:1001F00001D1824200D00026684603C80B000218D5
:100200005B4104D1002A02D1684603C817E0844F3D
:100210005A0DBA1A352A05DB0B0000208021090689
:1002200019400CE0202A03DD203AD140914000E043
:1002300001D1002003E0002A01DDD0409040002ED3
:100240001AD06A460CCA002B06DA002680273F0621
:10025000B61A9F4132003B00002906DA00268027AB
:100260003F06361A8F41300039008B4203D182425B
:1002700001D1002600E0012669004915491C08D17A
:10028000280306D1EC0F02A803C814D1C80F41D02F
:1002900033E002A803C8080041004915491C13D1E6
:1002A000000311D12AA6C0CE2F40802149038F42DE
:1002B00016D2002218E0C80F02D1002E2AD026E064
:1002C000002E1AD0002008E0002E19D1002402A828
:1002D00003C8C80F18D1002C14D0802109064FE2A2
:1002E0003E0D50A003C8821902A803C8C80F02D14E
:1002F000002A0FDC06E0002A0BDD002000213FE28F
:10030000EC0FE4E700213BE2002C02D0002047493B
:1003100036E20020464933E202A803C80B00021867
:100320005B4104D1002A02D102A803C821E0414E5A
:100330005A0DB61A352E0FDB002280231B060B4008
:1003400004A80CC017E000BF0000F0BF0000F03FA1
:10035000FFFFFFFFFFFFFF7F202E03DD203EF14068
:10036000B14000E001D1002003E0002E01DDF040AB
:10037000B04004AA03C2E80F1FD002A803C8002996
:1003800005DA002280231B06121A8B4101E00200CD
:100390000B0004A803C8002906DA002680273F06C0
:1003A000361A8F41300039008B4201D1824204D08D
:1003B00000BF00BFBEA003C8E2E120002900BCA42A
:1003C00030CC0D40002280235B039D4203D200927B
:1003D00000244D400CE02C0DB74A0023DB431219DA
:1003E00000921A46B14B02400B40AF4D14001D4322
:1003F000E80F4AD06D006D0804A80CC819009018C9
:10040000494101D1002824D0054E480D361A352E19
:1004100012DB80210906194000220B0019E000BF01
:100420003404000002FCFFFFFFFFFFFF0000F0FFAD
:100430000000F07F33040000202E03DD203EF34057
:10044000B34000E001D1002203E0002E01DDF240C4
:10045000B24004A803C8002905DA002680273F0619
:10046000361A8F4101E006000F00002B06DA00204B
:1004700080210906801A994102000B009F4203D196
:10048000964201D1002000E001200490009801284C
:100490002AD120002900D1A20CCA00F0DBFB23D214
:1004A00000200190D24906AA03C269004A0D511CDE
:1004B000002A12D0002910DDC24A914207DB100544
:1004C0002900802212061140014300240AE0774AE5
:1004D0002A4008051043050023E029008022120667
:1004E000114000240D001CE00020A64922002B0032
:1004F00000F0C9FB00226C4B00F087FC00F060FDAF
:100500002038019000F096FD00229F4B00F0BBFBCD
:100510000022654B00F079FC06AA03C20198400155
:1005200001902000290006AA0CCA00F0D1FC0600A8
:100530000F0006A803C822002B0000F066FC020092
:100540000B003000390000F07FFD08AA03C208A8A4
:100550000CC808A803C800F096FB06000F00200096
:10056000290006AA0CCA00F0B3FC0AAA03C287A09D
:1005700003C832003B0000F086FB86A20CCA00F0E4
:1005800044FC32003B0000F07EFB84A20CCA00F069
:100590003CFC32003B0000F076FB82A20CCA00F06B
:1005A00034FC32003B0000F06EFB80A20CCA00F06D
:1005B0002CFC32003B0000F066FB7EA20CCA00F06F
:1005C00024FC32003B0000F05EFB7CA20CCA00F071
:1005D0001CFC0CAA03C20020854906AA0CCA00F024
:1005E00077FC4B005C0D631C002C12D0002B10DD3F
:1005F000744CA34206DB230508008021090608404D
:1006000018430AE0294C0C401A0522430400150047
:1006100005E00800802109060840002405000CA818
:1006200003C832003B0000F02EFB0AAA0CCA00F0FF
:100630004FFC22002B0000F0E8FB08AA0CCA00F0D7
:1006400022FB02000B0000BF71A0019945180AA807
:1006500003C800F0DAFB06AA03C2009800F0EAFC27
:100660000CCD083D00F0D1FB06000F0006A80CC819
:1006700055A003C800F007FB32003B0000F0C5FBAB
:1006800002AA0CCA00F0FFFA0022514B00F0E2FA75
:1006900073D301224F4B00F038FD65D9CA0F0DD03E
:1006A00000224D4B0BE000BF0000E03FFFFF0F803A
:1006B000FFFFFFFFFFFFFF7F02FCFFFF494B00F042
:1006C000A4FB00F07DFC040002A803C832003B003C
:1006D00000F0D9FA06000F00200000F0ABFC020089
:1006E0000B003000390000F0F3FB3FA20CCA00F011
:1006F000CAFA0090019106A80CC802A803C800F02D
:10070000C2FA06000F002800083003C82A00103281
:100710000CCA00F07AFB02000B0002A803C800F02C
:10072000B2FA31A20CCA00F0AEFA32003B0000F07F
:100730006CFB009A019B00F068FB149A002A01D020
:100740001460002400940022294B00F0F7FC29A239
:100750000CCA02400B4001D1002A0ED04B005B15A1
:100760005B1C03D10A0301D100202449049A002A0A
:1007700006D080221206514002E000200021F5E759
:100780000FB0F0BD000050400000903FF7DE29BFE1
:10079000D8F8C23FF4B3FECC1A99C33F62CB68D9F4
:1007A0006F46C73FC6C912DAC471CC3F4AE98A9482
:1007B0002449D23FF75F97999999D93FBC55555530
:1007C0005555E53FFF070000FE822B654715F73FB3
:1007D0000000E0C00000E0400000E0BFCD3B7F66CD
:1007E0009EA0E63F0000E03FEF39FAFE422EE63FD2
:1007F0000000F03FFFFFFFFFFFFFFF7F0000F07FE3
:100800001CB500240094FFF757FC1CBD000000003D
:10081000000000000000F0BF0000000000000080A9
:100820000000000000000080000000000000000048
:10083000000000C05294EEBF00000048204E51BEA0
:10084000000000F86467BCBC00000000000000006D
:10085000000000208133EDBF00000080B3DB14BE38
:10086000000000506706A3BC00000000000000006C
:10087000000000D0E9DCEBBF00000008C39259BEC5
:1008800000000080B0D3B8BC0000000000000000F1
:1008900000000070F98FEABF000000C0A51028BE5C
:1008A000000000E8BFC0B0BC000000000000000075
:1008B00000000070284CE9BF00000060134B42BEEE
:1008C000000000C03D20B8BC000000000000000097
:1008D00000000050FA10E8BF000000C05FF62BBE19
:1008E000000000905C71A7BC000000000000000048
:1008F00000000020FCDDE6BF000000C0F8F154BE9F
:1009000000000018E9F6B9BC00000000000000007B
:10091000000000D0C3B2E5BF00000070E43254BE56
:1009200000000050DB06B4BC000000000000000026
:1009300000000010EF8EE4BF00000020F36252BE02
:10094000000000C02A879ABC0000000000000000E0
:10095000000000B02272E3BF000000F0E8E056BEE5
:1009600000000028352DBDBC000000000000000084
:10097000000000000A5CE2BF000000B0FA8E41BE39
:1009800000000040AE6FBDBC000000000000000091
:1009900000000000564CE1BF000000F015CD5FBE26
:1009A00000000000141C90BC0000000000000000CB
:1009B00000000040BD42E0BF00000030F93457BEE7
:1009C000000000E06C1E93BC00000000000000006E
:1009D000000000E0F57DDEBF000000B08A535EBE7F
:1009E00000000080DA77AABC0000000000000000D0
:1009F000000000C09D81DCBF00000000FFA226BEF9
:100A00000000006057E2B0BC0000000000000000E1
:100A100000000060F98FDABF000000580A8151BE63
:100A2000000000F05F60B8BC0000000000000000A3
:100A30000000000098A8D8BF000000607A7F45BE83
:100A4000000000D05433A3BC0000000000000000F0
:100A5000000000600FCBD6BF000000D091CB40BE9D
:100A6000000000406D1BA0BC000000000000000062
:100A7000000000A0FBF6D4BF00000098C5CE52BE17
:100A8000000000003A397EBC0000000000000000B9
:100A9000000000E0FE2BD3BF0000004073872BBE98
:100AA00000000000926879BC000000000000000017
:100AB00000000040C069D1BF00000058F16353BE80
:100AC00000000080438D7CBC00000000000000009E
:100AD00000000080D85FCFBF000000181F8354BE05
:100AE000000000B03F42A2BC000000000000000077
:100AF0000000008067FCCBBF00000060FAFF53BE1F
:100B000000000050E00DB8BC000000000000000034
:100B10000000000098A8C8BF000000607A7F35BEC2
:100B2000000000C0543393BC00000000000000002F
:100B300000000000DC63C5BF00000058D6FF54BEB3
:100B400000000000396490BC0000000000000000BC
:100B5000000000C0AD2DC2BF00000080A45915BE2A
:100B6000000000E0484BABBC0000000000000000AB
:100B7000000000801A0BBEBF00000050BF3C5ABEF0
:100B8000000000A0B364B6BC00000000000000003C
:100B90000000008004D6B7BF00000040BBCF36BEC7
:100BA0000000008076CEA8BC00000000000000001D
:100BB0000000008032BBB1BF000000402A0043BEED
:100BC00000000028C60CBDBC0000000000000000B2
:100BD000000000009473A7BF000000182B3B59BE13
:100BE000000000C0E55DA5BC0000000000000000A2
:100BF00000000000EE4397BF000000A0E6C340BE27
:100C000000000020958DB5BC000000000000000031
:100C100000000000000000800000000000000080D4
:100C20000000000000000080000000000000000044
:100C300090420ED1A4460C001C430128644107D009
:100C4000994205D14C006415641C644000D30C0328
:100C50006446704730B4012464054D00EC420BD863
:100C60005D00EC4208D80C001C43640004431443AC
:100C700004D2994200D1904230BC7047FCD08B42E4
:100C8000FAD18242F8E7F0B50E005E400125ED078B
:100C90002E40B446AE0ADF184C18F44208D2F74290
:100CA0000ED2640D01D07F0D12D100206146F0BD3F
:100CB00005D1F74201D87F0D05D10020C143F0BD19
:100CC000FBD1640DF9D00020C143490549088FE0EC
:100CD000E419C902DB0229432B43DB0A460DC0029B
:100CE00031438E4630B487B295B27D432E0CADB2FF
:100CF000140C7C43A419260C240425439CB27C4389
:100D0000A419190C7943270CC919A4B20F043C4348
:100D1000090C000C97B247432E0CBE193543ADB2F7
:100D2000170C4743360CBF19A6B2BF193E04354312
:100D3000240C3E0C36199FB24743BF19BCB23E0C7F
:100D400089191F0C47437F183E043443390C704601
:100D500080B297B247432E0CBE193543ADB2170C83
:100D60004743360CBF19A6B2BF193E043543240CC5
:100D70003E0C36199FB24743BF19BCB23E0C8919CD
:100D80001F0C47437F183E043443390C77463F0C11
:100D900090B278432E0C80190604ADB22E43050C98
:100DA000A0B22D18120C7A435019020C80B2240CF8
:100DB000A4189AB27A43121914042043120C891809
:100DC0001B0C7B43C91830BCEF0A394203D1B6195A
:100DD00040414941641E6F12BF0DE41B0BDBFF193C
:100DE000BC4211DA240500274208AE417841614136
:100DF00066463143F0BD641C05D1401C6141CF0201
:100E000001D34908F4E750E75DE7F0B40125ED07A9
:100E10000F005F404FD48B4200D1824205D98446F7
:100E2000100062468C4619006346DF184C18640DAA
:100E30007F0D3AD0661C760537D0E61B352E34DCA4
:100E4000DB022B43DB0A0C0DC9022943C912202EF9
:100E50000DDB1700203E06D01F00F741F3405F4036
:100E60000026012A7741C01871410DD217E0170002
:100E7000F741F2405740F3415A40B340F3405A40E3
:100E80000026801859410AD3A21C52050FD0C20770
:100E9000012F724117004008CB0718434908641C12
:100EA00024054208AF4170416141F0BC7047641CA9
:100EB00021050020F9E76B4010E06B40ABE7F742FB
:100EC000F3D1E943F1E72442EFD100200021ECE720
:100ED000F0B40125ED070F005F40EED40C00871A37
:100EE0009C4105D2C01BA141D219634169406B40AE
:100EF000AE0ADF184C18F442E1D2640D7F0DE2D047
:100F0000E61B362ED1DCDB022B43DB0AA4460C0D9C
:100F1000C9022943C90A012E28DC04D1D607520888
:100F2000DF073A435B08EF0A76429041994114D0BB
:100F300039423BD1B61940414941761C394204D16E
:100F4000761C001849413942FAD0B9436746B74286
:100F500008D9A41B24052143A7E70042EAD1364261
:100F6000E8D1A2E7E40AE10700209EE7202E0BDD8E
:100F7000203E1F00F340F7415F40012A0022574105
:100F80007E42984191410BE01700F741F2405740F3
:100F9000F3415A40B340F3405A407E429041994158
:100FA0000A0303D2641EB619404149410027641E5A
:100FB00024054208AE4178416141F0BC7047ABCD99
:100FC000F4464A1805D200F00FF801D58017400802
:100FD000604700F009F80121C907884200D90800DC
:100FE000404260474A1812D2400DC902084301210D
:100FF000C9070843520D40210901521A521C06D458
:1010000052421F3201D4D0407047C01770470020B1
:101010007047FEE7010042221201D21E004207D0B3
:1010200002D4521E0018FCD5C10A400512058918C9
:10103000704700000100EED54042F446FFF7EBFF99
:101040000122D20711436047F0B40E005E40012533
:10105000ED072E40B446AE0ADF184C18F4423BD2DE
:10106000F74241D2640D43D07F0D38D0E41BC90252
:10107000DB0229432B43CF0ADB0A0600B61A9F4145
:1010800004D2641EB6197F41B6185F416812800D04
:1010900024180018844222DAE80C0021B6197F4196
:1010A000B61A9F4102D2B6185F413F1C40414941E8
:1010B000F4D3241C21DD2405B6197F41B61A9F41C3
:1010C00005D33743C60737430026012F70416141DE
:1010D00066463143F0BC7047FCD1F74205D2002090
:1010E000C14349054908F3E704D00020C143F1E7B3
:1010F0007F0DFAD000206146ECE72442FAD1401C73
:1011000061410F03F6D30020E2E730B40124640507
:101110004D00EC420BD85D00EC4208D80C001C439B
:1011200064000443144304D28B4200D1824230BC99
:101130007047FCD09942FAD19042F8E7F0B585B0FB
:1011400006000F0014001D0078004015401C1DD043
:101150008DA003C83040394001D1002816D0680066
:101160004015401C12D088A003C82040294001D15E
:1011700000280BD03000390000297BDA00228023C0
:101180001B06121A8B4168460CC075E079004915A0
:10119000491C02D1380300D079E169004915491C86
:1011A00001D1280340D178A003C82040294008D1AC
:1011B000002806D179004915491C35D1380333D1AF
:1011C0000BE069004915491C0CD128030AD17900AC
:1011D0004915491C28D1380326D100BF00BF6AA099
:1011E00003C856E168A003C8304039401FD1002829
:1011F0001DD169004A0D0A995118002A22D12900EF
:1012000080221206114000240D005FA003C8204078
:10121000294001D1002805D069004915491C03D196
:10122000280301D100BF00BF2000290031E179006F
:101230004915491C18D1380316D130003900FFF781
:1012400022FD26E10029DADDA94A914206DB1005DC
:1012500029008022120611400143D4E7A54A2A4002
:10126000080510430500D0E700202A008021090668
:101270000A403CE06A4603C20022894B002B04DA94
:1012800080210906901A99410B00684603C89942CB
:10129000104604DA2A00802109060A4027E0814925
:1012A000002906DA80231B06121A8B4168460CC0FF
:1012B00001E06A4603C232003B00002B06DA002040
:1012C00080210906801A994102000B00684603C874
:1012D00099420EDC01DB90420BD200BF00BF724985
:1012E00008002A00802109060A400243002011005C
:1012F000CFE06EA003C832003B00FFF7C4FC02AA97
:1013000003C27949080002A90CC900920193430065
:101310005B0802A803C80A008020000602401A43A6
:1013200000201100009A019BFFF76FFDFFF748FEB8
:101330000490FFF77FFE02AA03C202A80CC85DA0BA
:1013400003C8FFF7A0FC02000B0030003900FFF7D4
:10135000BFFD06000F0002A80CC858A003C8FFF785
:1013600092FC02000B0030003900FFF7B1FD0600CF
:101370000F00790049080022524BFFF76BFC07D29F
:101380002000290053E000BFFFFFFFFFFFFFFF7FAA
:1013900032003B003900FFF776FC6A4603C268461C
:1013A0000CC849A003C8FFF76EFC49A20CCAFFF79E
:1013B0002CFD6A460CCAFFF766FC02AA03C2684607
:1013C0000CC845A003C8FFF75EFC45A20CCAFFF796
:1013D0001CFD6A460CCAFFF756FC0022424BFFF781
:1013E00014FD32003B00FFF74EFC06000F0002A880
:1013F00003C832003B00FFF708FD00223B4BFFF71C
:1014000004FD0090019102A803C832003B00FFF7E1
:101410005FFD0022354BFFF7F8FC02000B0000983F
:101420000199FFF711FE22002B00FFF72CFC4B0067
:101430005C0D049BE3180A9D5B19002C12D0002B55
:1014400010DD2B4CA34206DB230508008021090692
:10145000084018430AE0274C0C401A0522430600B6
:10146000170005E008008021090608400026070053
:1014700009A003C83040394001D1002805D07900C7
:101480004915491C03D1380301D100BF00BF30000A
:10149000390005B0F0BD00BFFFFFFFFFFFFFFF7F7A
:1014A00000C89CC000C89C400000F07FFE822B65F5
:1014B0004715F73F000000F8422EE63FF2E4D5BCA6
:1014C000E7E84B3E0000903C112E5781A03F503F73
:1014D0005843128C8F71BC3F4BE8A541B752013F76
:1014E0000BBDF3DAE8708C3F0000E03F0000F03FF6
:1014F000FF070000FFFF0F80004870470009002031
:1015000010B50400FFF7F8FFFF211031445410BD5F
:1015100080B5FFF7F1FF0E3002BD80B5FFF7ECFF9D
:10152000007802BD10B50400FFF7E6FF047010BD9F
:10153000F8B505000E0004242200691D2F000937AC
:10154000380000F01FFC2200691C6F1D380000F0FD
:1015500019FC220031000B316C1C200000F012FC41
:10156000F1BDF8B505000E00872040003418307832
:10157000002810D0012849D002285ED0032800D1CD
:1015800098E0042800D1B0E0062800D105E1072842
:1015900000D132E150E1287901210200D2B20A40A3
:1015A000002A04D0227810231343237003E022780A
:1015B000EF231340237002220300DBB21340002B01
:1015C00003D023781A43227003E02278FD231340CE
:1015D00023700200D2B2520704D52278402313436D
:1015E000237003E02278BF23134023708022C0B20F
:1015F0001040002803D020780243227003E02078B6
:101600004006400E207031700120F2BD2078C0B23B
:1016100000090100C907C90F00290BD000F0C4FB65
:10162000022201001131681D00F0F0FC002801D0F9
:101630000520EAE702203070E6E72078C0B2C00952
:10164000C0B200282FD100F0ADFB0422011DE81D1F
:1016500000F0DCFC002804D1207801210143217036
:1016600025E02078FE2101402170207850210140A2
:1016700010291CD100F0E0FC002818D0032128001C
:10168000123001F0BDF9012811D000F0D3FC042282
:10169000E91D801C00F0BAFC002808D10220882136
:1016A0004900705403E02078FE210140217003209E
:1016B0003070A9E72078C0B2C009C0B2002811D1AB
:1016C00020780100C907C90F00290BD00422290086
:1016D0000B31701C00F09AFC002803D02900300068
:1016E000FFF726FF042030708EE7E97B2A7C544800
:1016F000C9B20909017001212378DBB25B080F0030
:101700001F40FFB2002F06D003781700FFB2BB4284
:1017100001D1072079E70378032B3CDA130007781F
:10172000DBB2BB4237D31300DBB2002B0FD02178E2
:1017300004230B43237021780B00DBB2DB09D2B208
:101740000178280001F0F8F9062030705CE7237872
:10175000FB271F40277023781940C9B2002913D1F5
:10176000002121780B00DBB2DB09D2B2017828001E
:1017700001F0E2F988214900715C002902D00720BC
:10178000307041E7C0B240E72078DF21014021708E
:101790000720307038E7072037E7072030702078BF
:1017A000C0B2C009C0B2002813D100F0FDFA24492C
:1017B00009786918897CC07C814204D12078202175
:1017C0000143217020E72078DF21014021700A20A9
:1017D0001BE700F0E9FA1A4909786918497CC07CCE
:1017E000814204D12078202101432170EAE720784A
:1017F000DF21014021700A2007E7A8781238297CF0
:10180000401A7073FFF784FE0400727B29001231C6
:10181000200000F0B7FA0A20307088204000305CC9
:10182000012801D10220F0E688204000305C022827
:1018300001D10320E9E6E7E60920E6E60000000022
:101840007D0D002038B504000D0000202078982878
:1018500006D16078982803D1012000F0FCFB02E05B
:10186000002000F0F8FB2900C9B289B2200001F085
:10187000DFFB010089B2090A89B22A00D2B2A25C58
:10188000914201D0012009E080B2C0B2EDB26119ED
:101890004978884201D0012000E0002032BD38B5EF
:1018A00004000D000020A5700420E0702900C9B2DA
:1018B00089B2200001F0BCFB010089B2090A2A00AC
:1018C000D2B2A1546D1C2900C9B260546D1C022112
:1018D00096222800C0B22418200001F0D7FBAD1CCE
:1018E0002800C0B232BD70B506000124FFF704FE27
:1018F000872149004518B1783000FFF7A3FF002881
:1019000045D100F0A5FB00281BD02000C0B2012863
:101910000ED100F08FFB0100300000F077FC0400D6
:1019200000F090FB092809D000F08CFB0A28ECD1CC
:10193000002000F08AFB2000C0B252E000F088FED8
:10194000F6E72000C0B201280AD1FFF7D5FD01005B
:101950003000FFF706FE0400FFF7DFFD0A28F0D194
:101960000020FFF7DFFD2000C0B2012806D02000D4
:10197000C0B2042802D02000C0B232E0212628786C
:10198000304207D10120FFF7BBFD042029E00020F1
:10199000C0B226E0052029780140C9B2052904D14A
:1019A0000220FFF7ADFD00201BE029780840C0B2FF
:1019B000012802D10420FFF7A3FD28780640F6B2E3
:1019C000202E02D10820FFF79BFD287841210140FD
:1019D000412904D11020FFF793FD012001E02000F0
:1019E000C0B270BDF8B504000E00022529006922BE
:1019F0002700380001F04AFB8120207100F0D4F963
:101A00002A0001001131651D280000F0BBF9FFF725
:101A100073FD04252A00411CE71D380000F0B2F9CF
:101A200000F0C0F92A00011D25000B35280000F048
:101A3000A9F93078E073E07BC0B200092074227C01
:101A4000521C711C1134200000F09CF9F1BDF6B558
:101A500083B005000E001F00287C69460870FFF760
:101A60004BFD87214900405CC0B2C00969468870BF
:101A7000E87B0400E4B22409E87B0007000F694614
:101A800048700196FFF738FDFF211031405C0428B3
:101A900039D1FFF731FD04263200411CE81D0290C8
:101AA000029800F06FF9029800F07CF93200011DF5
:101AB0002E000B36300000F065F9287980210143B3
:101AC0002971684600780001694649780143019808
:101AD000017068460278521C290011310198461C99
:101AE000300000F04FF9FFF707FD421C0198411C40
:101AF0000198007801F0E7F801980078E87300F0A9
:101B000053F9C07C6874FFF7F7FCFF211031405C8B
:101B100008281FD168468078002807D068460078DA
:101B20002100C9B2884210D3641E0EE0200069462D
:101B30000978C0B2884201D2641C06E06846007889
:101B40002100C9B2884200D10024200169464978A9
:101B50000143E97304993A00D2B268460078281824
:101B600004001234200000F00DF96846007839189E
:101B70001231C9B22800FFF792FEC0B205B0F0BD25
:101B800070B505000C00FFF7C3FC060000F07EFFF7
:101B900001F03FF800F07AFF01003000FFF722FF6C
:101BA0002200D2B22900307C3018050012352800FE
:101BB00000F0E8F8307C21181231C9B23000FFF78C
:101BC0006EFEC0B270BDF0B5C1B007002D48006810
:101BD00040796946887001A88021490001F066FAC1
:101BE000B878A1284BDA0525002468468078C01F04
:101BF000022101F08AFA06001CE02800C0B2385C1D
:101C00006946088068460088000269460880684680
:101C100000882900C9B279184978084369460880C4
:101C20006846008801F0D8FB01A92200D2B288548E
:101C3000641CAD1C3000461EC0B20028DDD16846D1
:101C4000817800227D1D280001F020FA2200D2B206
:101C500001A97D1D280000F095F82000C01D09494C
:101C6000096848712000C01CB87002219622E4B2B5
:101C70003819441D200001F009FA012000E000207D
:101C800041B0F0BDD4010020F3B5C1B014004198BB
:101C90008078512851DA00273D00380069460880D5
:101CA00000A8801C0021018001A88021490001F0CA
:101CB000FDF905261DE041983100C9B2405C01F0F4
:101CC000C2FA6946088000A8801C6946098889B262
:101CD000090A017069460988417001A902782B0040
:101CE000DBB2CA5440782A00D2B289184870AD1CC1
:101CF000761C3000C0B22100C9B2891E8842DADBEE
:101D0000429EE4B20220444321003A00741D2000A8
:101D100001F0BCF92A00D2B201A9741D200000F024
:101D200031F82C00E41CB470022196222000C0B2CD
:101D30003018851C280001F0A9F9241D2000C0B22C
:101D400043B0F0BD00B50278692A02D14278692A11
:101D500007D00278982A02D14278982A01D001202F
:101D60000FE00A00D2B28218921E1278962A05D18C
:101D7000C9B24018401E0078962801D0012000E02A
:101D8000002000BD814202D25318984203D300B50F
:101D900001F036FB00BD521E03D38B5C8354521EF0
:101DA000FBD270478D4870478D4870478D4800784A
:101DB00070478C49087070478B48007870478A4993
:101DC0000870704780B510228449002001F0ACFBF8
:101DD00001BD80B5002001F041FB10227F490020A9
:101DE00001F07FFB01BD00B50100002002E0C9B297
:101DF0004908401C0A00D2B2D207F8D5C0B200BDD3
:101E00003EB5040068460C2101F050F92000C0B234
:101E100001282ED105226946D020800101F084FBE3
:101E200068460078204209D0802000026F4908608F
:101E30002100C9B2032001F0B4FB04E02100C9B2C3
:101E4000042001F0AEFB00F0F7F8002810D000F0FD
:101E5000F1F805002000C0B2FFF7C5FF0821484394
:101E60002818841C08226846411C2000FFF78AFFBE
:101E700037BDFDE780B5FFF795FF001D01F022FF9C
:101E80000120FFF7BDFF01BD38B5002425006846DD
:101E900057490A68026057480178022907D16D1C2A
:101EA0002900C9B2072902DB250021000170524830
:101EB00001F058FF02F0BAFAFFF784FFFFF772FF54
:101EC00000786828E7D14D480168012291430160FC
:101ED000FFF76AFF03226946103000F097F80028E8
:101EE00008D00120FFF765FF02F008F944490122FC
:101EF000425402E00020FFF75CFFFFF753FFC07879
:101F0000FFF75DFFFFF74EFF807A992803D101208C
:101F100000F095F802E0002000F091F831BD38B5EE
:101F2000FFF742FF01001022364C25002035280023
:101F3000FFF728FFFFF738FF0322010010312500CB
:101F400030352800FFF71EFF200002F0D1FC2E499B
:101F5000200002F0BBFF31BD1CB504006846002123
:101F600001606078202837D1FFF71CFF0A2221008A
:101F700000F04CF8002824D0002001F06FFA052270
:101F80002100002001F0ADFAFFF70CFF010005224F
:101F9000002001F0C9FAFFF705FF0A22210000F036
:101FA00035F8002806D10421CC226C46200001F02F
:101FB0006DF80CE00421AA226C46200001F066F8BE
:101FC00005E00421BB226C46200001F05FF8094ABD
:101FD0000421684601F04FFF13BD0000D40C00201F
:101FE000E00C0020780D0020790D00201804004836
:101FF00070730008480D0020380D00200044004098
:1020000019040000440C0020940B002010B402E0DE
:10201000401C491C521E002A09D00B7804789C42AF
:10202000F6D002D20020C04302E0012000E00020F0
:1020300010BC70470E4870470E48007870470D4935
:10204000087070470A48007870470949087070475F
:1020500009480078704700B5C0B2002803D00120BD
:102060000549087002E000200349087000BD000027
:10207000B00C0020760D0020770D002010B5040074
:102080000020C9B2002903D00F2001F0C3FA02E0FA
:102090000F2001F0DDFA0100C9B2002906D10120AC
:1020A00009E0C0B240082178491C21700100C9B282
:1020B000C907F6D5002010BD22300178FE220A4063
:1020C00002700178FD220A4002700178FB220A406A
:1020D00002700178F7220A4002700020704710B5A4
:1020E00004000A0000231178200002F053FB0028AE
:1020F00001D001200FE0200000F030FA002801D0CC
:10210000012008E001F042FA0400FFF793FFE11C10
:1021100000F0D0F9002010BDF3B581B000273E00DB
:1021200038001CE038000DE03C0004220299280031
:10213000FFF76CFF002811D1E87901F029FA002897
:10214000F0D001202100C9B2C0B2814206D0FFF711
:1021500071FF4178EA790A4342706C71761C300055
:10216000C0B200280ED1FFF765FF3100C9B20822C6
:1021700051434018851C68460079A9790842D3D09C
:102180000124D2E7F7BDF7B506000C0000252800B2
:102190006946087001216846FFF770FF002801D0EA
:1021A000012032E0270068460078082148433018B3
:1021B000841C387820717878694609780822514360
:1021C000711808720F2001F025FA69460978082273
:1021D0005143711848720F2001F01CFA71780843BE
:1021E0007070B878002801D00125FFE70299657169
:1021F00004222000FFF7C6FD01F0C8F90400FFF734
:1022000019FFE11C00F056F90020FEBD7CB504006A
:102210000D0028002230297800290AD001294CD04D
:10222000022963D0032900D189E0072900D190E079
:10223000D9E021790A00D2B281231340812B0CD13D
:1022400002780823134303700278FD2313400370C0
:102250000278FB231340037003E00278F723134056
:1022600003700A00D2B2120704D502780123134387
:10227000037003E00278FE23134003700122037809
:10228000DBB2DB081340DBB2002B13D1C9B2C906A5
:1022900008D5017804230B4303700178FD230B401C
:1022A000037007E00178FB230B40037001780223E1
:1022B0000B4303702A70012076BD0078092101408C
:1022C00000290FD0FFF770FD0222611D1130FFF7CA
:1022D0009DFE002803D02800FFF7EEFEECE7022069
:1022E0002870E8E72800FFF7E7FEE5E70078C0B2CE
:1022F00040080100C907C90F00291DD1FFF756FD8D
:1023000000280CD0FFF74EFD0422011DE01DFFF751
:102310007DFE002810D02800FFF7CEFECCE7FFF7A7
:1023200041FD0422011DE01DFFF770FE002803D0CF
:102330002800FFF7C1FEBFE703202870BBE7042297
:1023400021000B31844C2000FFF71CFD0720287072
:10235000B1E701210278D2B252080A40D2B2002A73
:102360001DD000206946087001216846FFF786FEEF
:10237000002803D02800FFF79FFE9DE7607CA8712E
:1023800004227549AE1C3000FFF7FCFCA07C2872CB
:102390000F2001F03FF968720920287022E00278CE
:1023A000D2B292080A40D2B2002A0ED06A4A210064
:1023B00011312800FFF7E7FE002803D02800FFF7BF
:1023C0007BFE79E70A2028700CE00078C0B2C008D4
:1023D0000140C9B2002905D05F49A07CFFF79CFEEF
:1023E0000A20287067E72800FFF766FE64E77CB5DF
:1023F0000F2001F00FF90600F02001F00BF90400A6
:102400003000C0B2002837D0C94D2888401C288031
:102410002888C849884212D228780521014001291C
:102420001FD1F6B2012E05D1C348016802224A40ED
:10243000026016E00F21062001F0F5F811E028787F
:102440000007000F01280CD1F6B2012E05D1BA48C1
:10245000016802224A40026003E00F21062001F0D9
:10246000E2F82888B549884209DB002028800F213E
:10247000062001F0D8F802E00020AD490880E4B25F
:10248000002C16D0684600210160FF21062001F0D3
:10249000CAF8DD4904226846FFF7B8FD002808D1D4
:1024A0000020FFF7CCFDFFF77DFC00218172FFF7D4
:1024B00090FC73BD7FB504000D00667868460C2162
:1024C00000F0F4FD3000C0B2002843D0F00728D55A
:1024D000A11C4879002807D080200002CB4A106058
:1024E000287806432E7006E080200002C84A10605B
:1024F0002878B043287008226846461C3000FFF751
:1025000041FC28780100C907C90F68460170D02531
:10251000AD01280000F0A2FF05226946280000F066
:10252000E0FFFFF789FD00280BD0FFF73BFC807A26
:10253000992809D0FFF736FC99218172FFF749FCF1
:1025400002E00120FFF77BFD002060700F210620D4
:1025500001F069F87FBD0000600D002038B505006E
:102560000321280000F04CFA012805D1052128009C
:1025700000F046FA80280BD00321280000F040FA32
:10258000002812D10521280000F03AFA00280CD1C9
:10259000280000F052FA0400280000F058FA210048
:1025A0000078FFF7B9FD002000E0012032BDF8B54A
:1025B000FEF7AEFF0500002630000F2001F02AF8DC
:1025C000002844D00224210098222F00380000F077
:1025D0005DFD88202871FFF7E9FB002809D0FFF78F
:1025E000E3FB2200010011316C1D2000FFF7CAFB44
:1025F00005E0210032006C1D200000F047FD04249E
:1026000021003200EF1D380000F040FDFFF7CAFB4B
:102610002200011D2C000B342000FFF7B3FB0F201C
:10262000E8732E74FFF7C0FBC07C68740F2000F0C5
:10263000F1FFA87413212800FFF731F9040002F01C
:10264000E5FD2300DBB22A000A2102F063FEF1BDA2
:10265000FEB5FEF75DFF05000F2000F0DBFF6946C9
:1026600048700026300069460870300066480290C5
:1026700001216846FFF702FD002858D102242100FD
:1026800098273A000195019800F000FD01982F71FC
:10269000FFF78CFB002809D0FFF786FB2200010022
:1026A00011316C1D2000FFF76DFB05E021003200A9
:1026B0006C1D200000F0EAFC042422000298694608
:1026C0000978082359434118EF1D3800FFF75AFBDA
:1026D000FFF768FB2200011D2C000B342000FFF7E0
:1026E00051FB0F20E8732E74FFF75EFBC07C68740B
:1026F00068464078A8746846407800F049FFE8745E
:1027000014212800FFF7CBF804000120FFF797FC05
:102710000F21062000F087FF02F078FD2300DBB2D6
:102720002A000A2102F0F6FD322002F087FFF7BDF1
:10273000680D00207202000014000048A70E00007F
:10274000FEB506000C001500002738003800694669
:10275000087000216846FFF791FC00283DD16846CB
:102760004570250001960224210098222E00300099
:1027700000F08CFC8120287121003A006C1D2000A3
:1027800000F084FC042422000199EE1D3000FFF7C4
:10279000F9FAFFF707FB2200011D2C000B34200083
:1027A000FFF7F0FA0F20E8732F74FFF7FDFAC07CF3
:1027B000687468464078A87413212800FFF76FF802
:1027C000060002F025FD040002F020FD3300DBB21C
:1027D0002A002100C9B202F09DFDF7BD38B5050001
:1027E0000C00FFF729FC00280DD02000C0B2FFF735
:1027F000FAFA0821484307490818811C08226C1C72
:102800002000FFF7BFFA31BDB20C002018040048C9
:1028100028040048B00C002038B504000022100045
:102820002078AC2804D02078682801D0012020E04E
:102830002078AC2801D1CD1E00E08D1E2900C9B240
:1028400089B2200000F0F4FB010089B2090A89B2C4
:102850002A00D2B2A25C914201D0012009E080B2EC
:10286000C0B2EDB261194978884201D0012000E080
:10287000002032BD38B5040000210800200000F01F
:102880001EF8200000F0D5F80500ED1D2900C9B2A2
:1028900089B2200000F0CCFB010089B2090A2A00AD
:1028A000D2B2A1542900C9B261184870532029003E
:1028B000C9B261188870ED1C2800C0B232BDAC21CD
:1028C0000170704710B50422441C2000FFF75AFA2B
:1028D00010BD00B5D2B2002A03D0022A1DD00FD3FA
:1028E00028E00A00D2B2002A05D042794907490FF0
:1028F0001143417103E04179F8220A40427119E025
:10290000C9B2002904D0417940220A43427103E050
:102910004179BF220A4042710CE0C9B2002904D0BB
:10292000417980220A43427103E041794906490E08
:102930004171FFE700BD81717047F2B582B01500AB
:102940001E0000F078F8040002202070FFF72AFA39
:1029500004273A00011D601C01900198FFF712FA4C
:1029600001982800C0B2002821D0684600210160EB
:102970006846C5702078390001432170F6B2002EF8
:1029800003D02078082101432170029E3A00694655
:10299000671D3800FFF7F6F92A00D2B2310009347A
:1029A0002000FFF7EFF913352800C0B204E02078CB
:1029B000F321014021700F20FEBD00B5C9B20A29E4
:1029C00006D019D30C290FD008D30D2913D013E04A
:1029D0000078012801D106200FE00DE000780228E0
:1029E00001D1122009E007E00178032902D18270A9
:1029F0000E2002E000E0FFE7002000BD401C704711
:102A000000B502000020C9B2032904D00FD3052964
:102A100009D004D30BE050794007400F07E050790C
:102A20004021084003E0507980210840FFE7C0B210
:102A300000BD80797047C01D704780B5FFF7FBFF70
:102A4000401C02BD80B5FFF7F6FF007A02BD80B5DD
:102A5000FFF7F1FF062102780A40D2B2042A01D121
:102A6000401D05E002780A4201D0093000E0002054
:102A700002BD38B504002000FFF7DDFF050020008F
:102A8000FFF7E0FFC0B22818093032BD2648704772
:102A9000F0B501231C002500EDB2022675434D1947
:102AA0002D7B002D1AD1214D214E2F78F4552E78F3
:102AB000761C2E701F4E33702300DBB20226734348
:102AC000CB181A73E4B202225443091948732878C8
:102AD000142801DB00202870F0BD641C2500EDB235
:102AE000142D1CDA2500EDB2022675434D192D7BFD
:102AF000002D14D015002600F6B202277E438E1951
:102B0000367BEDB2B542E8D12500EDB20226754321
:102B10004D196D7B0600F6B2B542C4D1DCE7250045
:102B2000EDB2142DBFDBD7E77C0C00207F0D002019
:102B3000F40C00207E0D0020F8B500252C00DBB23F
:102B4000002B21D10B00DBB2002B60D00B00D2B2E6
:102B5000DBB29A420DD3C9B24018457CFFF796FF0D
:102B6000040002F053FB2A00D2B221000078FFF7E4
:102B70008FFFFEF7C1FC88214900405C022801D18B
:102B8000012045E00A2043E02C000B00D2B2DBB26A
:102B90009A4201D1477C02E0C9B24018877CFFF716
:102BA00075FF060002F032FB3A00D2B23100007825
:102BB000FFF76EFFFEF7A0FC012687214900405C6D
:102BC000C0B280093040C0B200280FD1FFF734FAFC
:102BD00000280BD00F2000F01DFD002806D1FFF7C4
:102BE00029FA8079FFB2B84200D13400E4B2002C57
:102BF00006D0FEF781FC882149004654012007E0F9
:102C0000FEF77AFC882149004554042000E00A20A0
:102C1000F2BD10B50400FEF76FFC411C601C00F013
:102C200076F8207010BDF0B500210A000A000122DC
:102C30000B0001240B0023E02E00F6B286197678F3
:102C40002F00FFB2C75DBE420ED22C00E4B20419C1
:102C500064782E00F6B2865D2F00FFB2C7197E7031
:102C60002E00F6B2845501246D1C2F00FFB2BC4625
:102C700013271E00F6B2BE1B6746B742DCDB5B1CA7
:102C80001D00EDB2132D05DAE4B2002C02D00C00C9
:102C90000D00EAE7012111E01300DBB2C3185B1E4F
:102CA0001B780C00E4B2045DA34206D00B00DBB23B
:102CB000C35C1400E4B20355521C491C0B00DBB288
:102CC000142BE9DBF0BD7FB504000D00160068464B
:102CD000102100F0EBF96846047029784170691CF6
:102CE0000A788270491C0978C1700C22310068464C
:102CF000041D2000FFF746F88024E400200000F0C7
:102D0000ADFB08226946200000F0EBFB7FBDF8B563
:102D100084B004000D006846102100F0C7F90822B5
:102D200069468020C00000F0FFFB684606784178C5
:102D3000217081786170C078A070042422006846F8
:102D4000011D2F003800FFF71DF822006846010022
:102D500008312F1D3800FFF715F8220068460100E2
:102D60000C312C0008342000FFF70CF83000C0B202
:102D700005B0F0BDF0B595B004000F0001F0BEF94C
:102D80008049451801F0BAF97F4909684A7921005C
:102D90007C4BC4182000FEF7F5FF00206946087040
:102DA000287C69468870E87B0007000F69464870F8
:102DB0000226310069222C00200000F067F98120F2
:102DC000287104242879210001432971FEF7ECFFC2
:102DD0003200010011316E1D3000FEF7D3FFFEF707
:102DE0008BFB2200411CEE1D3000FEF7CBFFFEF7EF
:102DF000D9FF2200011D2C000B342000FEF7C2FF7A
:102E0000684680780001694649780143E973824841
:102E1000007800286DD00BA8282100F047F901A800
:102E2000282100F043F9012630007C4C2000FFF7F8
:102E3000FAFE11E001A83100C9B202225143401844
:102E40003100C9B2615C0222514379180C310A7811
:102E500002704A784270761C3000C0B214280ADA38
:102E60003000C0B22018401E00783100C9B2615C49
:102E70008842DFD3761E01A83100C9B20222514335
:102E8000415C00291BD0694609780A00521C6B4638
:102E90001A700BAA3300DBB202277B43C35CC9B2B2
:102EA0005354694609780B005B1C6F463B70330036
:102EB000DBB202277B43C0184078C9B250543000BF
:102EC000461EC0B20028D6D1684602780BA9287CDD
:102ED0002818060011363000FEF754FF00221000BB
:102EE0004D49087010004E4908701421200000F070
:102EF000CDF80020FEF704FB68460078297C4118D5
:102F00001131C9B22800FEF7CAFC15B0F0BDF8B502
:102F100000220F00C0B210281ED1FFF7B7FD040039
:102F200002F074F92100401DFFF724FF0600300075
:102F3000C0B2002820D001F0E1F8050002F068F9E5
:102F4000040002F063F93300DBB20E496A18210075
:102F5000C9B202F0DFF90FE03878C0B240090100D1
:102F6000C907C90F002907D03878DF21014039701F
:102F70004021002000F03BFB3878BF210140397030
:102F8000F1BD00001C040000D4010020F8B50500CC
:102F90000E001700FEF7B0FAFF211031405C082840
:102FA00037D102F033F9040001F0A8F81E4909688E
:102FB0004A79611D1D4BC4182000FEF7E3FE01F0A5
:102FC0009DF81A494418642002F038FBFFF75EFDB3
:102FD0003B00DBB22A0001002000FEF738FD0500AF
:102FE00002F014F92B00DBB222003100C9B202F06A
:102FF00091F9F021012000F0FAFA0020FEF780FAA2
:1030000008480078052802D00A2002F066F901205D
:1030100000E00020F2BD00007E0D0020F40C002036
:103020007F0D0020860D0020D40100201503000034
:10303000F2B5144900221CE00378401C0F24124D05
:103040001E00F6B20F00BFB27E40264002277E432C
:10305000AE5B89B209097140DBB21B110E00B6B23A
:1030600073401C4002235C432B5B89B20909594021
:10307000521C13006C4624889BB2A342DCD3080088
:1030800080B2F2BDFFFF0000A07200081206130A12
:103090001A43130C1A4300BF094205D0830707D017
:1030A0000270401C491EF9D1704700000022FFE762
:1030B0001300103906D330B41400150010393CC089
:1030C000FCD230BC490700D30CC000D504C0890035
:1030D00002D30280801C002900D502707047F4469C
:1030E000002804D4494200F013F8404260474042AF
:1030F000002905D45FD000F00BF8404249426047F8
:10310000494200F005F84942604703460B43E6D4C4
:103110000022030A8B420BD203098B4219D24308C7
:103120008B422ED2411A00D20146524110467047BE
:10313000FF2209023FD012068B4205D31212090268
:103140008B4201D31212090203098B4219D300E00A
:10315000090AC3098B4201D3CB01C01A524183092A
:103160008B4201D38B01C01A524143098B4201D3D8
:103170004B01C01A524103098B4201D30B01C01A03
:103180005241C3088B4201D3CB00C01A524183087D
:103190008B4201D38B00C01A524143088B4201D3AA
:1031A0004B00C01A5241884200D3401A5241CFD23C
:1031B00001461046704708B502F06CFA08BD00B52C
:1031C000F02202400121080010430200D2B212098D
:1031D000D2B20300DBB25B09DBB2D2180300DBB270
:1031E0009B09DBB2D2180A40002A02D00200082054
:1031F00010430200D2B21209D2B20300DBB25B0963
:10320000DBB2D2180300DBB2DB09DBB2D2180A4012
:10321000002A02D00200042010430200D2B2120998
:10322000D2B20300DBB29B09DBB2D2180300DBB2DF
:10323000DB09DBB2D2181140002902D001000220C4
:103240000843C0B200BD38B5040000202000C0B261
:10325000FFF7B5FF05022001C0B2FFF7B0FF05433D
:10326000280080B232BD00B501210200D2B212099D
:10327000D2B20300DBB25B09DBB2D2180300DBB2CF
:103280009B09DBB2D2180300DBB2DB08DBB2D21839
:103290000A40002A51D00200D2B21209D2B2030071
:1032A000DBB25B09DBB2D2180300DBB2DB09DBB2B5
:1032B000D2180300DBB29B08DBB2D2180A40002A06
:1032C0001DD00200D2B21209D2B20300DBB29B09B8
:1032D000DBB2D2180300DBB2DB09DBB2D218030089
:1032E000DBB25B08DBB2D2181140002903D0010029
:1032F000102048406EE00100202048406AE00200B3
:10330000D2B21209D2B20300DBB29B09DBB2D218EF
:103310000300DBB2DB09DBB2D2180300DBB25B08CF
:10332000DBB2D2181140002903D0010040204840F0
:1033300050E00100082048404CE00200D2B21209DF
:10334000D2B20300DBB25B09DBB2D2180300DBB2FE
:10335000DB09DBB2D2180300DBB29B08DBB2D21868
:103360000A40002A1DD00200D2B21209D2B20300D4
:10337000DBB29B09DBB2D2180300DBB2DB09DBB2A4
:10338000D2180300DBB25B08DBB2D218114000296F
:1033900003D00100802048401CE001000420484088
:1033A00018E00200D2B21209D2B20300DBB29B09CC
:1033B000DBB2D2180300DBB2DB09DBB2D2180300A8
:1033C000DBB25B08DBB2D2181140002902D0010049
:1033D00002204840C0B200BD38B50400200080B2D1
:1033E000000AC0B2FFF73FFFF02505402000C0B241
:1033F000FFF739FFC0B200092843C0B232BDFEE773
:10340000124207D08B0706D00B78491C0370401C72
:10341000521EF7D87047830706D00B78491C0370FB
:10342000401C521EF9D1704770B4103A03D378C9CA
:10343000103A78C0FBD2530701D318C918C001D580
:1034400008C908C0D20704D30B880380891C801CDC
:10345000002A01D50B78037070BC704730B53E4927
:103460003E4A0A603E4A0A603E4900220A60012242
:103470000B681340002BFAD13B4B1C6802252543F7
:103480001D603A4C00193A4C2060186840240443EF
:103490001C60086810400028FBD11868022188438E
:1034A0001860186880210143196030BD30B52F4A7B
:1034B000821801232B4C206818400028F9D12A4893
:1034C00005681D4305601180216819400029FBD162
:1034D000016801229143016030BD244940180088F1
:1034E0007047F8B504000E0017001B481B49016027
:1034F0001B49016000251B48056009E0280080B2D7
:1035000002214143715A2000FFF7D0FFA41C6D1C1B
:103510002800390080B289B28842EFD3124801688E
:1035200080220A430260F1BDF8B504000F001500C7
:10353000002609E02000FFF7D0FF310089B2022207
:103540004A43B852A41C761C3000290080B289B2CC
:103550008842EFD3F1BD00000420024023016745FB
:10356000AB89EFCD0C2002401020024000C00008C3
:10357000142002408149C0B202225043081870470B
:103580007F49C0B202225043081870477D487047F7
:1035900010B50400FFF7FAFFC07804402000C0B265
:1035A00010BD10B50C00C0B2022804D015D30428F9
:1035B0000DD006D311E0FFF7E9FFC1784C40C4708D
:1035C0000BE0FFF7E3FFC1780C43C47005E0FFF7A1
:1035D000DDFFC178A143C170FFE710BD10B5040045
:1035E000FFF7D4FF007804402000C0B210BD10B532
:1035F0000C00C0B2002802D0012804D009E0FFF777
:10360000C5FF047005E0FFF7C1FF0178A143017019
:10361000FFE710BD10B50400FFF7B8FF8078044045
:103620002000C0B210BD10B50C00C0B2052802D0F9
:10363000062806D00BE0FFF7A9FF81780C438470C1
:1036400005E0FFF7A3FF8178A1438170FFE710BD7C
:1036500010B50400FFF79AFF407804402000C0B284
:1036600010BD10B50C00C0B2072802D0082806D043
:103670000BE0FFF78BFF41780C43447005E0FFF748
:1036800085FF4178A1434170FFE710BD38B50124A3
:1036900020003D48006880210840C0090100C9B2EF
:1036A000002927D0394902000B78D2B29A420ED0B5
:1036B000374A13885B1C13801388152B05D300230E
:1036C0001C001480334A13700870002032BD0120A2
:1036D000FFF7A0FF002809D02F480188491C01806E
:1036E00000882E49884201D32D48047000202849C3
:1036F0000880EAE7254902000B78D2B29A420BD043
:10370000234A13885B1C13801388152BDDD30023F9
:10371000138008700120D9E71E4908780028D4D109
:103720001B480288521C028002881C4B9A42CCD350
:103730000C70D04901800024200017490880012026
:10374000FFF768FF002817D015480178002905D039
:10375000047010210520FFF766FF0BE0FEF76AFCFE
:10376000851C082122002800FFF790FC102105206D
:10377000FFF759FF0320A9E70220A7E72C730008F1
:103780003C730008580D002010000048D8010020AC
:103790006A0D00207A0D00206C0D002072020000DE
:1037A0007B0D0020F0B587B007000D003800FFF753
:1037B0004EF9060030780007000F6946087002A82D
:1037C0001421FFF773FC0024FEF7F6FAFF2108220C
:1037D000101A014130784006400E814200DA01247F
:1037E0003800FFF72AF901002800FFF76BF80022E4
:1037F00000212800FFF76DF8022201212800FFF7C1
:1038000068F8E4B2002C23D068460021002206C0EC
:103810000838012201212800FFF75BF80521280064
:10382000FFF789F8FEF7BEFA0422011D6C4620005E
:10383000FEF7A8FA05242000694608712800FFF762
:10384000FAF80500220069462800FEF79BFA44E0DA
:10385000684600780400E407E40F0120FFF798FEB3
:10386000844203D010210720FFF7FBFE3800FFF74A
:1038700000F91124220002AE01003000FEF782FAA6
:103880000023002200212800FFF757F8060022003D
:1038900002A93000C0B22C18E41E2000FEF772FA14
:1038A00001220A213000C0B22818FFF786F8341828
:1038B00001220B212000C0B22818FFF77EF824183F
:1038C00001220C212000C0B22818FFF776F820183A
:1038D000C11FC9B22800FFF72EF807B0F0BD38B5F8
:1038E00005000C002800FFF7B2F80078000605D4A8
:1038F00021002800FFF756FF012000E0002032BD24
:103900007FB5040001A8002202600020050002AA81
:10391000002313608A7952073CD588710120FFF794
:1039200037FE002805D0684600790121014368462A
:1039300001710420FFF724FE022201A94D1C0100A1
:103940002800FEF71FFAFDF7D7FD411C2000FEF707
:10395000B9FF022201212000FEF7BBFF0022012156
:103960002000FEF7B6FF0123032201A92000FEF785
:10397000E4FF0A380100C9B22000FEF7DCFF200096
:10398000FEF778FF0400FF210820FFF76AFE200001
:10399000C0B23BE08A79520637D502006B461A70F6
:1039A000887100216846FEF769FB002801D00120DC
:1039B0002CE0FEF73FFB6946097808225143401886
:1039C000861C042202A93000FEF720FB002805D146
:1039D000FF210820FFF745FE012017E00120FFF737
:1039E00037FE002807D00120FFF7D2FD002802D0C3
:1039F0002800012505432A00D2B221003000FEF73D
:103A00009FFEFF210820FFF72CFE002004B070BDB0
:103A100010B5040000202000C0B201280CD1FFF72F
:103A200035FEC0B2022806D12100C9B20520FFF739
:103A3000FAFDFEF7BCFD10BDFDE780B581794907B1
:103A400005D44079002802D10120FFF7E1FF01BD34
:103A500000B5C0B201280CD1C9B2002904D0802021
:103A600000020549086003E0802000020349086065
:103A7000FFE700BD71020000180400482804004858
:103A80007FB506000C0068460C21FFF70FFB2000F5
:103A9000C0B2FFF7DDFD00280BD12000C0B2FEF759
:103AA000A2F9102181400800C0B2FFF7D1FD002823
:103AB00043D02000C0B2FEF796F90100102528007F
:103AC0008840C0B2FFF7C4FD002805D0FEF76EF9AC
:103AD000002801D0012030712100C9B20220FFF777
:103AE00060FD2000C0B2FFF753FD69460870210059
:103AF000C9B26846FEF772FE2000C0B2FEF773F945
:103B000085402900C9B20820FFF7ABFD0120707184
:103B10002000C0B2012810D1684601782000C0B250
:103B2000FFF796FFD024A4012000FFF797FC0522A1
:103B300069462000FFF7D5FCFFE77FBD80B581799E
:103B4000490702D40121FFF79BFF01BD10B5040016
:103B50006079002807D06079401C607160790D2879
:103B600001DB00206071207900280FD02079401CF3
:103B7000207120797E2809DB00202071FEF716F9DC
:103B8000002803D0A07904210143A17110BD10B514
:103B900004002000FFF751FF2000FFF7CFFF10BD0A
:103BA0006C48704710B5002404E00A22002301F09D
:103BB00072FD641C0029F8D10028F6D12000C0B2A3
:103BC00010BDF2B588B0030000220292002000214F
:103BD00004000D0004000D0004AC03C4083C0422E2
:103BE00002AC19002000FEF7CDF802980021FFF783
:103BF000D9FF04005AE00298FDF70CFA06000F0006
:103C00002000C0B2401EFDF715FA02000B00002094
:103C10005149FCF7F5FD02000B0030003900FDF7BB
:103C200013FAFDF7CDF905002000C0B2401EFDF7E4
:103C300001FA02000B0000204549FCF7E1FD01F00C
:103C40005FFD06AA03C2083A2000C0B2401EFDF77D
:103C5000F1F902000B0000203F49FCF7D1FD01F013
:103C60004FFD06000F0004A803C800900191280032
:103C7000C0B2002106AA0CCA01F06CFD009A019B9B
:103C80008018594104AA03C2083A02980021009002
:103C900001912800C0B2002132003B0001F05AFD22
:103CA000009A019B121A8B410292641E2000C0B23E
:103CB0000028A0D1089C062204A92000FEF762F883
:103CC00009B0F0BD1CB56946002200230CC10839BB
:103CD0006946FFF776FFFFF763FF04000622694697
:103CE0002000FEF74FF81D48016801220A430260D8
:103CF00013BD78B5AFB006000D0014006846BC21B6
:103D0000FFF7D4F9684601F03EFD3100684601F046
:103D10003DFD684601F041FD1121684601F040FD7E
:103D20002100C9B2684601F03DFD2200D2B229004F
:103D3000684601F039FD684601F03EFD084A0C3442
:103D40002100C9B2684600F091F930B070BD0000A2
:103D500000003040080D00200000244000380140E1
:103D6000D40A00201CB5040068465C490A78027039
:103D700020780D281BD1002020706178A01CFEF750
:103D80004BFD00280DD1A078682804D10121002026
:103D9000FFF72DFC18E0B448016820220A430260B6
:103DA00012E0B148016820220A4302600CE001F0F1
:103DB00020FCBB49884207D3002001F01DFCB94A12
:103DC0000121684600F057F813BD00B50A78002AB3
:103DD0000AD0082A12D0092A14D00A2A23D00B2A82
:103DE0002FD00C2A36D045E00200D2B2682A04D186
:103DF000887001208873082008703BE0C870092093
:103E0000087037E00200D2B2002A06D10020087103
:103E10000B2008700320487004E008710A20087025
:103E20000320487026E04A788A1890704878401C31
:103E3000487048780A79D21C904201DB0B20087048
:103E400018E04A788A1890704878401C48700C2016
:103E500008700FE04A788A1890704878401C4870C3
:103E60008148026820239A430260002088730D2055
:103E70000870FFE700BD38B514002278002A01D091
:103E8000012011E06170C9B2E51C0A0001002800A0
:103E9000FDF778FF0020A0700120207072480168B3
:103EA00080220A430260002032BD00B501000020DC
:103EB0000A78012A10D188780818C0788A78521CAC
:103EC0008A708A784B789A4206D302220A7088490F
:103ED0000A6880239A430A60C0B200BD8673000856
:103EE00038B5040020780A2825D100202070617898
:103EF0000C39C9B220000C30FEF78EFC002818D116
:103F0000FDF7FAFA62780C3A21000C3105000E3503
:103F10002800FDF737FFFDF7EFFA61780C394173A0
:103F2000FFF73EFE01210173FDF7F2FA01F082FA7C
:103F300001E000F0D1F831BD10B50A78002A0ED0AA
:103F4000022A31D023D3042A36D031D3062A49D0CD
:103F500039D3082A64D04FD3092A6ED083E00200F7
:103F6000D2B2682A08D1887001221300BE240B55F2
:103F700013000B705F4B1A700200D2B2FE2A05D1FB
:103F8000887001205B4A1070082008706BE0594A65
:103F90001378CB1898701078401C10701078072890
:103FA00001DB022008705EE04872032008705AE0CE
:103FB00088720420087056E0C872052008700A2034
:103FC0004C4908704FE04B4A1378CB189870107822
:103FD000401C10701078CA7A0A32904201DB062029
:103FE000087040E0434A1378CB1898701078401C52
:103FF00010700720087036E03E4A1378CB1898708E
:104000001078401C1070107848700020BE22885430
:104010000A2008703848016820229143016022E09C
:10402000344A1378CB1898701078401C10701078B0
:10403000052801DB0920087015E00200D2B2AA2A87
:104040000CD12C4A1378CB1898701078401C107043
:104050000020BE2288540A20087003E00020BE22FF
:1040600088540870FFE710BD0044004038B51400C4
:104070002278002A01D0012011E06170C9B2E51C4C
:104080000A0001002800FDF77DFE0020A07001203D
:1040900020701948016880220A430260002032BD66
:1040A000E9030000480D002000B501000A78012A4C
:1040B00010D188780818C0788A78521C8A708A785B
:1040C0004B789A4206D300220A700B490A68802373
:1040D0009A430A60C0B200BD80B5FFF761FD0021C0
:1040E00001730548016820220A43026001BD0000F7
:1040F000004400408A0D002000380140C948704744
:10410000F8B50024230000E05B1C1D00EDB2022D79
:1041100021DA01258326F600875D2E009E40374276
:10412000F2D18326F600865D9D4035438326F60056
:1041300085551D00EDB28326760075434519AB7099
:104140006A70D2B2EE1C3000FDF71CFE82204000E7
:104150002C5202202870F1BDF0B587B007000E0088
:104160003800FEF774FC040002A81421FEF79EFF3D
:1041700068460021002206C008380020FDF712FE24
:1041800005003800FEF73AFC0422291DFDF73EFF2A
:10419000002800D08EE0FDF707FE14220100E01C8D
:1041A000FDF734FF00282ED0FDF7FEFD1022E11CA4
:1041B00005002800FDF7E6FDFDF7F6FD03222100CE
:1041C0001331050010352800FDF7DCFDA57D280022
:1041D000C0B2002803D12800C0B2FF2802D0FDF7EA
:1041E000E3FDC574FDF7F5FD0120FDF7E2FDFFF7E6
:1041F00085FF8D4901224254FDF791FE01F064F8DC
:104200000A2001F06AF8032221006C462000FDF725
:10421000B9FD68460121C170022101710621417179
:104220003800FEF70AFC01003000FEF74BFB0022CD
:1042300000213000FEF74DFB022201213000FEF785
:1042400048FB3800FEF715FC1124220002AD0100E6
:104250002800FDF797FD0123062269463000FEF78E
:104260006CFB05003000FEF7F2FB220002A9841D62
:104270002000FDF787FD01220A212800C0B2301876
:10428000FEF79BFB2C1801220B212000C0B2301836
:10429000FEF793FB241801220C212000C0B2301835
:1042A000FEF78BFB2018C11FC9B23000FEF743FB9D
:1042B000012000E0002007B0F0BD10B50023180079
:1042C00000E0401C0200D2B2022A13DA0200D2B28D
:1042D0008324640062438A181478002CF1D0137090
:1042E0008320C000085C0123927893409843832286
:1042F000D200885410BDFEB5060000252C00A84849
:1043000008180190A7480818029000A8801C0021F6
:104310000180280000F07AFFA34909684A79411D0D
:10432000029F3800FDF72EFD01212A00019D280083
:10433000FEF7ACFE3000FEF78AFB0222411C00AD06
:10434000AD1C2800FDF71EFD0420FFF719F902221D
:10435000010000A8801CFDF759FE002805D1019935
:104360003000FFF7BCFA04000FE00020FFF702F96D
:104370000222010000A8801CFDF748FE002804D19D
:1043800001993000FFF7E8FE0400E4B2002C48D0A9
:104390000198FEF76FFA69460870FFF701FC007B91
:1043A000002808D0FFF7FCFB69460A7892B2019911
:1043B000801DFFF79EFC0020FFF7DCF804003000B2
:1043C000FEF745FB02222100401CFDF71FFE0028DE
:1043D00012D004213000FEF713FB002808D101237E
:1043E0006A4668460178019800F0D4F9002818D18F
:1043F00000F00EFF040000E00A24FEF747FB6946C8
:104400000B78019A01000298FDF721FB69460870BC
:1044100000F0FCFE69460B78029A2100C9B200F058
:1044200079FFF7BDDC01002019040000F8B50F206A
:10443000FFF7D4F8060000273C00FDF769F80500F7
:10444000FDF75AF80D3000903000C0B200283CD083
:104450003000C0B2012808D1C7480078002800D039
:104460009CE0C648FDF778FD07E0F6B2022E04D1C5
:1044700000992800FDF733FE04000F210120FFF70B
:10448000B6F82000C0B200280AD0FDF735F8882120
:10449000490047540A2000F020FFFFF71DFE7DE091
:1044A000FDF72AF888214900405C012802D10A2042
:1044B00000F013FFFDF720F8882149003A0042542C
:1044C000AF48016820220A430260F020FFF786F817
:1044D000002863D00020FFF74DF806002800FEF703
:1044E000B6FA02223100401CFDF790FD002839D0B9
:1044F00000F08EFE010000980278C9B22800FEF795
:1045000045FD00284AD1FDF751FC002812D0FDF7E7
:1045100049FC0422011D681CFDF778FD00280AD122
:10452000FFF7ECFD974901224254FFF7E7FD96495A
:10453000475200E001240023009A009801782800E7
:1045400000F028F9002800D00124E4B2002C12D099
:10455000F0210120FFF74BF80A2000F0BEFEFFF724
:10456000BBFD1BE0009802780A212800FEF70EFD33
:104570000028EAD012E0280000F018F8F02101200D
:10458000FFF735F80020FCF7BBFF804800780528CE
:1045900002D00A2000F0A1FEFFF79EFDF1BD000051
:1045A0001C0400000F020000D401002038B50400F4
:1045B00005212000FEF724FA002826D1032120003F
:1045C000FEF71EFA002814D1FFF7EAFA007B002854
:1045D00008D0FFF7E5FA05002000FEF72EFAA91D26
:1045E000FFF7EFFAFFF78AFD01002000FFF783FED7
:1045F0000BE003212000FEF703FA012805D1FFF7A5
:104600007DFD01002000FFF758FE31BD10B50021EF
:104610000A000A008323DB00C2540A000FE01300E3
:10462000DBB2832464006343C3180C009C700C004D
:104630005C708224640019530C001C70521C13001F
:10464000DBB2022BEBDB10BD38B504005048251857
:10465000002069460870FEF799FF01002800FFF767
:104660004FF96946087068460078002827D0200076
:10467000FFF7CCFF01236A4668460178280000F066
:1046800089F800281BD1684601782800FDF778FAE0
:1046900069460870FCF73CFF05006846027829006F
:1046A0002000FFF72DFD00F0B3FD040000F0AEFD8B
:1046B00069460B782A002100C9B200F02BFE31BDFB
:1046C000F8B532490978052954D00025290006009B
:1046D00000E0491C0800C0B202284BDA0800C0B252
:1046E000832252005043341820780028F1D08220D1
:1046F0004000205A401C82225200A05282204000DA
:10470000205A3F28E5DB280082214900605200F052
:104710007FFD070000F07AFD6378E21C3900C9B222
:1047200000F0F8FD2078401E2070C0B2002821D192
:104730008320C000305C0121A2789140884383210E
:10474000C90070546846057000236A4660781238C4
:10475000E17C401A011FC9B20D48301800F01AF868
:10476000FFF71EFA69460A7892B209497118801D4E
:10477000FFF7BFFAF1BD0000480D00203A0D002000
:1047800000440040190400001A040000860D0020B7
:104790001C040000F7B505001F002800FEF749F9CA
:1047A000694608701024684600782100FEF7ADFCC9
:1047B0000600684600782100FEF7A7FC68460170F5
:1047C000002423E0724A2000C0B210214843281878
:1047D000C11D2000C0B2102358432818C01D00F08E
:1047E000A3FC12E03800C0B20028EBD0684A2000D9
:1047F000C0B2102148432818C11D2000C0B21023A8
:1048000058432818C01D00F01DFC641C2000310016
:10481000C0B2C9B28842E5D36846047968460078D8
:10482000002841D0FFB2002F2BD0002001000DE066
:104830003200D2B210235A436B461B78D2180B00B9
:10484000DBB2D218AA180300D371491C0B00DBB2EB
:1048500010226F463F78D21B9342E9DB4C4A30006E
:10486000C0B2102148432818C11DF6B2102046439B
:10487000A819C01D00F0E6FB103468460078241A21
:1048800012E0434A3000C0B2102148432818C11D2D
:10489000F6B210204643A819C01D00F045FC68463A
:1048A00000782418103CFFE72000C0B2032801DA8A
:1048B00001201CE0029E2000C0B2C11E89B2280067
:1048C000FEF7B6FB010089B2090A2200D2B2AA188B
:1048D000D21E11702100C9B26918891E08705320B8
:1048E0002100C9B26918491E087034700020FEBD4D
:1048F000F0B585B004002648039001001031029104
:104900000100213101913430049010252900002646
:104910003200019F3800FEF7B9FB29003200039FE7
:104920003800FEF7B3FB11273900320002980090DF
:104930000098FEF7ABFB009839003200049E30006F
:10494000FEF7A4FB2A001349039E3000FDF71AFA74
:104950002A0011490298451C2800FDF713FA13227A
:104960000E49019D2800FDF70DFA02980090049B66
:10497000039A0199200001F07CF80198007CE07016
:104980000198407CE0710198807CE07205B0F0BD38
:10499000940B00200C7300081C730008640C0020AA
:1049A00010B50200002318001C001C000EE0CC070C
:1049B00000D55040802414405200E4B2002C02D0B4
:1049C00014001B226240C9B249085B1C1C00E4B2FF
:1049D000082CECDBC0B210BD10B403780C785C403E
:1049E000147043784C785C40547083788C785C40C9
:1049F0009470C078C9784140D17010BC7047F4B54C
:104A000007000E0031783878FFF7CAFF040071788C
:104A1000F878FFF7C5FF0500B178B878FFF7C0FF59
:104A20000100654069400C00F1787878FFF7B8FF25
:104A3000210048400099087031787878FFF7B0FF7E
:104A4000040071783878FFF7ABFF0500B178F8788B
:104A5000FFF7A6FF0100654069400C00F178B878C7
:104A6000FFF79EFF21004840009948703178B878E0
:104A7000FFF796FF040071787878FFF791FF050043
:104A8000B1783878FFF78CFF0100654069400C0071
:104A9000F178F878FFF784FF21004840009988708A
:104AA0003178F878FFF77CFF04007178B878FFF769
:104AB00077FF0500B1787878FFF772FF0100654055
:104AC00069400C00F1783878FFF76AFF2100484010
:104AD0000099C870F1BD38B50100C9B2012903D1F0
:104AE0000120C349087013E00100C9B202290FDB9D
:104AF000BF4C02212170451E05E002212078FFF7FE
:104B00004FFF20706D1E2800C0B2401E0128F4DA4D
:104B1000B74832BDF0B500234DE01C00E4B2045D9F
:104B20001500EDB2102675431E00F6B204277E4331
:104B3000AD194D5D65401C00E4B205551C00E4B2A2
:104B4000041924791500EDB2102675431E00F6B243
:104B500004277E43AD194D196D7865401C00E4B201
:104B6000041925711C00E4B20419247A1500EDB271
:104B7000102675431E00F6B204277E43AD194D1969
:104B8000AD7865401C00E4B2041925721C00E4B243
:104B90000419247B1500EDB2102675431E00F6B2F1
:104BA00004277E43AD194D19ED7865401C00E4B231
:104BB000041925735B1C1C00E4B2042CADDBF0BDB2
:104BC0007FB5050002A8B4490A68026000263400D7
:104BD00011E00100C9B2042251432200D2B2891867
:104BE0006A460300DBB2D25C6A54401C0100C9B2C1
:104BF0000429EEDB641C2000C0B2042819DA30005E
:104C00000CE00100C9B2042251432200D2B289183B
:104C1000695C01AA0300DBB2D154401C0100C9B297
:104C20000429EEDB6A4601A902A8FFF7E8FE30007E
:104C3000DCE77FBD7FB5050002A898490A680260DD
:104C40000026340011E00100C9B2042251432200C1
:104C5000D2B289186A460300DBB2D25C6A54401CA7
:104C60000100C9B20429EEDB641C2000C0B2042894
:104C700019DA30000CE00100C9B2042251432200CD
:104C8000D2B28918695C01AA0300DBB2D154401C7E
:104C90000100C9B20429EEDB6A4601A902A8FFF7A8
:104CA000AEFE3000DCE77FBDF0B5012100E0491C1D
:104CB0000A00D2B2042A2CDA00221DE00D00EDB267
:104CC000042675431E00F6B2AD1945196D1E0E007F
:104CD000F6B204277E431F00FFB2F619865D2E70E0
:104CE0005B1C1D00EDB2042DE8DB0B00DBB20425DC
:104CF0006B43C318DC70521C13000C00DBB2E4B22F
:104D0000A342D4D20B00DBB204246343C45C01236E
:104D1000E7E7F0BDF0B5012100E0491C0A00D2B27E
:104D2000042A2CDA00221CE00D00EDB204267543A3
:104D30001E00F6B2AD190E00F6B204277E431F0026
:104D4000FFB2F6198619761E367846555B1E1D0091
:104D5000EDB2002DE8D10B00DBB204256B43C45447
:104D6000521C13000C00DBB2E4B2A342D5D20B00FC
:104D7000DBB204246343C318DC780323E7E7F0BD08
:104D8000F0B500210A002BE01400E4B204256C43C6
:104D90001D00EDB26419045D2600F6B23609140058
:104DA000E4B204256C431D00EDB26419045D2407D0
:104DB000240F1500EDB204277D431F00FFB2EF1949
:104DC000374DAC46F6B210256E43E4B23419654651
:104DD0002C5DC4555B1C1C00E4B2042CD4DB521CBB
:104DE0001300DBB2042B01DA0B00F4E7F0BD000086
:104DF00000000020F0B500210A002BE01400E4B20E
:104E000004256C431D00EDB26419045D2600F6B262
:104E100036091400E4B204256C431D00EDB2641998
:104E2000045D2407240F1500EDB204277D431F0005
:104E3000FFB2EF191B4DAC46F6B210256E43E4B23B
:104E4000341965462C5DC4555B1C1C00E4B2042C6F
:104E5000D4DB521C1300DBB2042B01DA0B00F4E7A5
:104E6000F0BD10B5002111E00D4A0B00DBB2C35CB0
:104E70001B11102463430C00E4B2045D2407240FCB
:104E80001B19D25C0B00DBB2C254491C0A00D2B21F
:104E9000042AE9DB10BD0000687300086C73000889
:104EA0001C6F00081C70000810B50178002207E094
:104EB0001300DBB2C3185B781400E4B20355521C34
:104EC0001300DBB2032BF3DBC17010BDFEB50E0087
:104ED0002C216A46117000212EE00A00D2B2042370
:104EE0005A43825C0B00DBB204246343F2540A0091
:104EF000D2B204235A43821852780B00DBB2042446
:104F00006343F3185A700A00D2B204235A4382183A
:104F100092780B00DBB204246343F3189A700A0002
:104F2000D2B204235A438218D2780B00DBB2042495
:104F30006343F318DA70491C0A00D2B2042ACCDBAE
:104F400004273C0077E03AE001AD2000C0B2042124
:104F500048433018001F007828702000C0B2042198
:104F600048433018C01E007868702000C0B2042189
:104F700048433018801E0078A8702000C0B2042179
:104F800048433018401E0078E8702000C0B2390055
:104F9000FEF7BBF80029D6D101A8FFF785FF01A8CD
:104FA000FFF75FFF2000C0B23900FEF7AEF8C0B2D5
:104FB000FFF791FD01AA010001A8FFF70DFD2000F8
:104FC000C0B2042148433018103800782978414095
:104FD0002000C0B20422504331542000C0B204214A
:104FE000484330180F380178687848402100C9B22A
:104FF00004225143711848702000C0B20421484374
:1050000030180E380178A87848402100C9B204222F
:105010005143711888702000C0B2042148433018F1
:105020000D380078E97841402000C0B20422504396
:105030003018C170641C200069460978C0B28842EB
:1050400082D3F7BDF1B586B00D00002630001DE01B
:1050500002AC0300DBB204277B430F00FFB2DF1971
:1050600000970194069F0300DBB29C460C00E4B25B
:1050700004235C4363461B19FB5C019C009FE355C2
:10508000491C0B00DBB2042BE2DB401C0100C9B25F
:10509000042901DA3100F4E717000022390002A8E0
:1050A000FFF738FD01240FE002A8FFF769FE02A810
:1050B000FFF7FAFD02A8FFF783FD2200D2B2390004
:1050C00002A8FFF727FD641C2000C0B20A28EBDB12
:1050D00002A8FFF755FE02A8FFF7E6FD0A223900F5
:1050E00002A8FFF717FD300016E00200D2B20B0055
:1050F000DBB204246343D21802AB0400E4B20427F9
:105100007C430F00FFB2E4191B5DAB54491C0A003D
:10511000D2B2042AE9DB401C0100C9B2042901DA39
:105120003100F4E707B0F0BDF1B586B00D00002600
:1051300030001DE002AC0300DBB204277B430F000C
:10514000FFB2DF1900970194069F0300DBB29C4673
:105150000C00E4B204235C4363461B19FB5C019C16
:10516000009FE355491C0B00DBB2042BE2DB401C23
:105170000100C9B2042901DA3100F4E717000A225C
:10518000390002A8FFF7C6FC09240FE002A8FFF7C8
:10519000C1FD02A8FFF72EFE2200D2B2390002A8FC
:1051A000FFF7B8FC02A8FFF745FD641E2000C0B25F
:1051B0000028EBD102A8FFF7ADFD02A8FFF71AFE09
:1051C0000022390002A8FFF7A5FC300016E002001B
:1051D000D2B20B00DBB204246343D21802AB04004A
:1051E000E4B204277C430F00FFB2E4191B5DAB540B
:1051F000491C0A00D2B2042AE9DB401C0100C9B2F2
:10520000042901DA3100F4E707B0F0BD84487047A3
:10521000844800787047C0B28349088070470020F6
:1052200081490880704780480088C0B2704710B537
:10523000002402E0641C00F0E0FC7B4800880028A9
:1052400003D02000C0B20628F4DBFFF7E8FF10BD52
:1052500038B50400684600210160FCF7A5FD032273
:10526000010010316D462800FCF78CFD684601787E
:105270004278891880780D18FDF708FCFDF7C9FC05
:10528000002D0ED169480100C9B289080007000F3E
:105290004840207020780A2810D12078801C207087
:1052A0000CE02800C0B280082907090F4140217096
:1052B00020780A2802D12078801C20705C48217850
:1052C000405CBD49087031BD80B55648FFF7C0FF4E
:1052D00000F093FCFFF7ABFF01BD80B580214900D2
:1052E000B64A116080218900B54A11600100C9B237
:1052F000422900DB4120DC214D4AC0B2105C00F0A5
:105300004CFD0120AF49087000F05AFC00F05CFC35
:10531000002002BDF8B51C002300DBB2FC2B00DB33
:10532000FB240E003100C9B2422900DB4126009265
:1053300005002200D2B20099FF20801D2F183800EE
:10534000FCF720FD2200D2B2FF20801D2918009812
:10535000FCF79AFC0100091D6970AE700124210060
:10536000E9706978AA784A40E9785140297180212A
:105370004900934A116080218900904A1160001D04
:105380000200D2B2FF20801D29182948F6B2805DA4
:1053900000F01FFD05208B4908708B482C5400F04D
:1053A0000BFC0020F2BDF8B50E0011001D002A0014
:1053B000D2B2FC2A00DBFB253200D2B2422A00DB4B
:1053C000412604002A00D2B2FF20801D2718380091
:1053D000FCF7D8FC2800001D6070A6700120E0706A
:1053E0006078A1784140E0784840207180204000FA
:1053F0007349086080208000704908602D1D2A00D4
:10540000D2B2FF20801D21180948F6B2805D00F05D
:10541000E0FC05206B49087000F0CEFB0020F2BDD7
:10542000F8060020850D0020720D0020FD0200000E
:105430009C71000880B50521FDF7E2FA002804D12F
:1054400010210020FEF7D3F803E020210020FEF712
:10545000CEF801BDF8B504005C4F3888401C388098
:1054600038885B49884223DB68465A490A880280AB
:1054700000200100398058490A78022A08DB0870A8
:105480000120FFF7C8FE8020C0015449086092E067
:105490000878401C08704B480078052808D0FFF7B2
:1054A000B7FE010002236A46C9B22000FFF77BFF66
:1054B000444D2878032816D0042802D0062808D0A6
:1054C00079E0022000F08BFD00F08FF801202870B9
:1054D00071E000242000287000F087F83C800A204A
:1054E000FFF7FBFE67E0002630002870012000F087
:1054F000C8FD00F07AF83E80394800684179601DA7
:10550000FCF720FCC0B2012806D1002000F0B9FD54
:105510000A20FFF7E2FE4EE0601DFCF754FB012578
:105520002800601DFCF7DFF90100C9B201290FD086
:105530000100C9B2022904D102210020FEF757F868
:1055400039E0C0B203281FD102210020FEF74FF836
:10555000FBF7D2FF87214900405CC0B280090540BB
:10556000EDB2002D14D0002000F08BFDFBF7C4FF3E
:105570000400FBF7C1FF872149006118FF221032A8
:10558000805CFDF7C4FC16E00A20FFF7A6FE12E0DF
:10559000FBF7B2FF0400FBF7BBFF617BFDF73CF9B3
:1055A000002804D1FBF7B4FFFFF744FF02E00A2014
:1055B000FFF793FEFFE7F1BD6D01002028040048CE
:1055C00018040048860D002005020000740D00201C
:1055D000993A0000BE0F0008870D00201808004807
:1055E000D401002024480088704700202249088008
:1055F000704722480068704720490860704738B5F6
:105600001F4820490860204C206804210143216084
:1056100000201E4908606846FF210170012529000D
:10562000417029008170684600F058FE2068022110
:105630000143216020680543256031BD00B50F4A54
:10564000116813685B1A8342FBD300BD00B50B4899
:105650000168491C016008490A88002A02D00A88AA
:10566000521C0A8000684007400F002802D1012028
:105670000749087000BD00006E0D0020640D002079
:1056800080BB000014E000E010E000E018E000E063
:105690007C0D00207047124224D0994228D970B561
:1056A00000251B4202D00C00002109E00024012645
:1056B00049186441944200D3A41A7641F8D33100CA
:1056C000012601E0764109D2001864416D41A41A17
:1056D0009D41F7D2A4185D41B619F5D330002200E0
:1056E0002B0070BD1B42D8D108B500F02FFE08BDBD
:1056F00001D19042D3D202000B000021002070475C
:10570000491824D24A0D40231B01D21A0123DB077A
:105710001E3A09DC5242202A19DA8902400D084358
:1057200018430021D0407047524220320CD48902E5
:105730001943430D1943C002D0400B00D341D1405F
:105740004840584009427047D817D9177047002081
:105750000021704730B4434351435D18010C0C00E5
:10576000130C5C432D1980B2434392B25143002481
:10577000C918644124040B04090C09195043C018CA
:10578000694130BC704768210170704710B506222E
:10579000441C2000FCF7F6FA10BD6821C171704767
:1057A000017270474172704710B5D2B204000A34DA
:1057B0002000FCF7E7FA10BD10B50022110004E04C
:1057C0001300DBB2C35CC918521C1300DBB2447A6D
:1057D0000A34A342F4DB427A821891721621427A8B
:1057E0008018C17210BDFEE730B5002308E01C0030
:1057F000E4B2045D1D00EDB24D5DAC4210D35B1C04
:105800001C001500E4B2EDB2AC420BD21C00E4B2B5
:105810000C5D1D00EDB2455DAC42E8D2012002E016
:10582000022000E0002030BD10B5002200E0521C34
:1058300013000C00DBB2E4B2A34207D21300DBB2C8
:10584000C35C002BF3D0881AC0B200E0002010BD6A
:1058500010B50022110007E00B00DBB2C3185B7823
:105860000C00E4B20355491C0B00DBB2102BF3DB38
:10587000027410BDF4B505000C00684602782100E2
:105880002800FFF7B1FF022847D0002001000200E6
:105890006A46127820E0591A1300DBB2E3185B1E47
:1058A0001B78CB1A012111E01600F6B2A619761E5C
:1058B00036781F00B6B2BFB2BE42ECD2591A1300FE
:1058C000DBB2E3185B1E1B78CB1A01001600F6B2A0
:1058D000AE19761E3370521E1300DBB2002BCCD0F3
:1058E0001300DBB2EB185B1E1B781E001700FFB223
:1058F000E7197F1E3F78B6B2BFB2BE42D4D10E00C8
:10590000F6B2012E07D15B1E1600F6B2A619761E5E
:1059100036789B1BDAE70300D8E7F1BDF8B507003E
:105920000E00112411213000FFF77EFF251A1120EF
:10593000421BD2B22800C0B231183800FFF79AFFDC
:1059400000240CE01220421BD2B22800C0B2311851
:10595000491E2000C0B23818FFF78CFF641C2000DD
:105960002900C0B2C9B28842ECD3F1BD70B50024A1
:10597000DBB2012B1ED1102314E01D00EDB245193E
:105980006D1E2D780E00F6B27543E4B22C191D0081
:10599000EDB2555D641925001E00F6B29555A4B20E
:1059A000240A5B1E1D00EDB2002DE6D1107800190F
:1059B000107017E0102310E01D00EDB245196D1EA8
:1059C0002D780E00F6B27543E4B22C1925001E00A6
:1059D000F6B29555A4B2240A5B1E1D00EDB2002D4F
:1059E000EAD1147070BDFEB507000C0015001E0052
:1059F00010212000FFF718FF6946087068460078FC
:105A000041426018103001900024200003E00100A2
:105A1000C9B26C54401C0100C9B21129F7DB14E073
:105A200001232A0001982100C9B2415C3800FFF728
:105A30009DFF31002800FFF771FF2800FFF708FFE6
:105A400031002800FFF76AFF641C2000C0B26946DD
:105A50000978491E8842E3DB01232A000198E4B259
:105A6000015D3800FFF782FF31002800FFF756FF85
:105A7000F7BDF6B585B006000D001F000824102103
:105A80000698FFF7D1FE694608706846007800283E
:105A900000D188E00495019610220499019D280008
:105AA000FCF770F90698694609784A428018103068
:105AB000039003980178002002E04900641E401C16
:105AC0000200D2B2082A01DA0A06F6D54D00601E9D
:105AD000694648700024029721E034483449086040
