:020000040800F2
:10000000C8140020D1580008F1550008F355000825
:1000100000000000000000000000000000000000E0
:10002000000000000000000000000000F75500087C
:100030000000000000000000F9550008FB55000812
:100040008F250008000000005B3A0008FB3E000816
:100050009F5600081356000815560008175600084A
:10006000000000009D5600086F5800087B580008EB
:10007000F9580008FB580008FD580008000000006F
:10008000FF58000811560008000000000159000840
:100090000D560008035900080F56000805590008BE
:1000A00007590008095900080B5900080D590008A4
:1000B00035560008004870470009002010B50400BC
:1000C000FFF7F8FFFF211031445410BD80B5FFF752
:1000D000F1FF0E3002BD80B5FFF7ECFF007802BDE6
:1000E00010B50400FFF7E6FF047010BDF8B5050079
:1000F0000E0004242200691D2F000937380000F08B
:100100005DFC2200691C6F1D380000F057FC2200C6
:1001100031000B316C1C200000F050FCF1BDF8B533
:1001200005000E008720400034183078002810D0D9
:10013000022860D048D3042800D1B1E000D294E076
:10014000062800D149E100D2FEE0072800D164E191
:1001500082E1287901210200D2B20A40002A04D0AB
:10016000227810231343237003E02278EF231340F7
:10017000237002220300DBB21340002B03D023784C
:100180001A43227003E02278FD23134023700200FB
:10019000D2B2520704D5227840231343237003E0E0
:1001A0002278BF23134023708022C0B21040002861
:1001B00003D020780243227003E020784006400EEE
:1001C000207031700120F2BD2078C0B2000901001A
:1001D000C907C90F00290BD000F002FC0222010060
:1001E0001131681D00F01AFD002801D00520EAE752
:1001F00002203070E6E72078C0B2C009C0B2002803
:100200002CD100F0EBFB0422C11CE81D00F006FD20
:10021000002804D1207801210143217022E02078B8
:10022000FE2101402170207850210140102919D170
:1002300000F00AFD002815D000F004FD0422E91D9D
:10024000801C00F0EBFC00280CD100F0FBFC01212D
:100250004170022088214900705403E02078FE217B
:100260000140217003203070ACE72078C0B2C00993
:10027000C0B2002811D120780100C907C90F002998
:100280000BD0042229000B31701C00F0C7FC0028A1
:1002900003D029003000FFF729FF0420307091E7D8
:1002A000E97B2A7C6E480B00DBB21B0903700378E4
:1002B000032B47DA2378DBB2DB09DBB2002B0ED04D
:1002C0002378DBB25B081F00FF07FF0F002F06D06B
:1002D00003781700FFB2BB4201D1072073E7052363
:1002E00033700378002B15D12178FB230B4023704A
:1002F0002178C9B2C909C9B2002922D00A212178BE
:100300000B00DBB2DB09D2B20178280001F0DCF887
:10031000C0B258E722780423134323700122C9B2E4
:100320000078130083400B401807000F002800D10D
:1003300000222078F7210140D00008221040084315
:1003400020703FE707203EE72078C0B2C009C0B266
:1003500000283FD1287C0100C9B2032911DA01002D
:10036000C9B2002907D12178C9B289080A00D20789
:10037000D20F002A05D10100394A1278C9B2914240
:1003800001D208201FE70100C9B200290FD121784E
:100390000A00D207D20F002A09D188204000305C21
:1003A000022802D1062030700CE708200BE7C0B20B
:1003B000002806D12078DF2101402170072030700D
:1003C00000E720780100C907C90F002902D00720E3
:1003D0003070F7E606203070F4E60720307000F049
:1003E000FFFA1F490A78AA18927CC07C824204D185
:1003F0002078202101432170E4E62078DF220240AA
:1004000022700A2020780300DBB2DB092A7C0978FD
:10041000280001F059F8C0B2D5E6A8781238297C36
:10042000401A7073FFF752FE0400727B29001231EC
:10043000200000F0C3FA0A20307088204000305CB1
:10044000012801D10220BEE688204000305C02284D
:1004500001D10320B7E6B5E60920B4E600000000AC
:10046000B50C002038B504000D0000202078982835
:1004700006D16078982803D1012000F0F4FB02E057
:10048000002000F0F0FB2900C9B289B2200001F081
:10049000EBFA010089B2090A89B22A00D2B2A25C41
:1004A000914201D0012009E080B2C0B2EDB26119E1
:1004B0004978884201D0012000E0002032BD38B5E3
:1004C00004000D000020A5700420E0702900C9B2CE
:1004D00089B2200001F0C8FA010089B2090A2A0095
:1004E000D2B2A1546D1C2900C9B260546D1C022106
:1004F00096222800C0B22418200001F0E3FAAD1CB7
:100500002800C0B232BD70B506000124FFF7D2FD4D
:10051000872149004518B1783000FFF7A3FF002874
:1005200045D100F09DFB00281BD02000C0B201285F
:100530000ED100F087FB0100300000F02CFC04001D
:1005400000F088FB092809D000F084FB0A28ECD1D0
:10055000002000F082FB2000C0B252E000F080FEDC
:10056000F6E72000C0B201280AD1FFF7A3FD010081
:100570003000FFF7D4FD0400FFF7ADFD0A28F0D1ED
:100580000020FFF7ADFD2000C0B2012806D02000FA
:10059000C0B2042802D02000C0B232E02126287860
:1005A000304207D10120FFF789FD042029E0002017
:1005B000C0B226E0052029780140C9B2052904D13E
:1005C0000220FFF77BFD00201BE029780840C0B225
:1005D000012802D10420FFF771FD28780640F6B209
:1005E000202E02D10820FFF769FD28784121014023
:1005F000412904D11020FFF761FD012001E0200016
:10060000C0B270BDF8B504000E00022529006922B1
:100610002700380001F056FA8120207100F0E0F93F
:100620002A0001001131651D280000F0C7F9FFF70D
:1006300041FD04252A00411CE71D380000F0BEF9E9
:1006400000F0CCF92A00C11C25000B35280000F071
:10065000B5F93078E073E07BC0B200092074227CE9
:10066000521C711C1134200000F0A8F9F1BDF6B540
:1006700083B005000E001F00287C69460870E87BE7
:100680000400E4B22409E87B0007000F69464870C3
:10069000FFF710FD87214900405CC0B2C0096946E0
:1006A00088700196FFF706FDFF211031405C042899
:1006B00045D1FFF7FFFC04263200411CE81D0290E3
:1006C000029800F07BF9029800F088F93200C11C12
:1006D0002E000B36300000F071F92879802101439B
:1006E00029716846007800016946497801430198FC
:1006F00001706846007800280AD068460278521CCB
:10070000290011310198461C300000F057F906E02D
:10071000032100220198461C300001F0D3F9FFF7B5
:10072000C9FC421C0198411C0198007800F086FF2A
:1007300001980078E87300F053F9C07C6874FFF703
:10074000B9FCFF211031405C08281FD16846807831
:10075000002807D0684600782100C9B2884210D32B
:10076000641E0EE0200069460978C0B2884201D2BA
:10077000641C06E0684600782100C9B2884200D1B6
:1007800000242001694649780143E97304993A003D
:10079000D2B268460078281804001234200000F015
:1007A0000DF96846007839181231C9B22800FFF7F0
:1007B00086FEC0B205B0F0BDF8B505000C00FFF72D
:1007C00085FC07003C4E300000F0DEFE31003800B2
:1007D000FFF718FF2200D2B22900387C3818050034
:1007E0001235280000F0EAF8387C21181231C9B21D
:1007F0003800FFF764FEC0B2F2BDF0B5C1B007002B
:100800002E48006840796946887001A88021490017
:1008100001F068F9B878A1284BDA0525002468466C
:100820008078C01F022101F08CF906001CE028002E
:10083000C0B2385C69460880684600880002694694
:100840000880684600882900C9B2791849780843A9
:10085000694608806846008801F0DAFA01A922009A
:10086000D2B28854641CAD1C3000461EC0B20028B1
:10087000DDD16846817800227D1D280001F022F933
:100880002200D2B201A97D1D280000F097F82000B7
:10089000C01D0A49096848712000C01CB8700221B7
:1008A0009622E4B23819441D200001F00BF9012012
:1008B00000E0002041B0F0BDC80B0020D4010020B2
:1008C000F3B5C1B0140041988078512851DA00275F
:1008D0003D0038006946088000A8801C0021018086
:1008E00001A88021490001F0FDF805261DE041988E
:1008F0003100C9B2405C01F0C2F96946088000A825
:10090000801C6946098889B2090A0170694609880C
:10091000417001A902782B00DBB2CA5440782A004A
:10092000D2B289184870AD1C761C3000C0B22100CC
:10093000C9B2891E8842DADB429EE4B202204443F7
:1009400021003A00741D200001F0BCF82A00D2B248
:1009500001A9741D200000F031F82C00E41CB470D3
:10096000022196222000C0B23018851C280001F018
:10097000A9F8241D2000C0B243B0F0BD00B5027834
:10098000692A02D14278692A07D00278982A02D1CE
:100990004278982A01D001200FE00A00D2B28218D2
:1009A000921E1278962A05D1C9B24018401E0078CE
:1009B000962801D0012000E0002000BD814202D233
:1009C0005318984203D300B501F036FA00BD521E09
:1009D00003D38B5C8354521EFBD27047854870470B
:1009E000854870478548007870478449087070478B
:1009F00080B50F227F49002001F0B2FA01BD80B519
:100A0000002001F047FA0F227A49002001F085FA10
:100A100001BD00B50100002002E0C9B24908401C38
:100A20000A00D2B2D207F8D5C0B200BD7CB505002D
:100A300068460021002206C008382800C0B20128FC
:100A400033D104226946D020800101F089FA6C4636
:100A50002078284209D080200002694908602900D6
:100A6000C9B2032001F0B9FA04E02900C9B2042098
:100A700001F0B3FA00F0E8F8002815D000F0E2F831
:100A800006002800C0B2FFF7C4FF07214843301812
:100A9000851C04226846411C2E003000FFF78EFFA3
:100AA00060796871A079A87173BDFDE780B50120F8
:100AB000FFF7BCFF01BD38B5002425006846514949
:100AC0000A68026050480178022907D16D1C29008C
:100AD000C9B2072902DB2500210001704B4801F053
:100AE00057FD01F09FFFFFF783FFFFF777FF0078C7
:100AF0006828E7D1FFF774FF03226946103000F041
:100B00008DF8002808D00120FFF76FFF01F008FEE4
:100B10003F490122425402E00020FFF766FFFFF741
:100B20005DFF407A992803D1012000F090F802E09F
:100B3000002000F08CF831BD38B5FFF751FF0100FF
:100B40001022344C250020352800FFF737FFFFF72F
:100B500047FF032201001031250030352800FFF740
:100B60002DFF200002F0B8F92B49200002F0A2FC72
:100B700031BD1CB504006846002101606078202862
:100B800037D1FFF72BFF0922210000F047F800289A
:100B900024D0002001F07EF905222100002001F080
:100BA000BCF9FFF71BFF01000522002001F0D8F976
:100BB000FFF714FF0922210000F030F8002806D1C9
:100BC0000421CC226C46200000F07CFF0CE00421C4
:100BD000AA226C46200000F075FF05E00421BB222C
:100BE0006C46200000F06EFF074A0421684601F0C1
:100BF00058FD13BD1C0C0020260C0020B00C00205A
:100C000018040048F4580008800C0020700C0020E4
:100C100019040000900B0020E00A002010B402E04C
:100C2000401C491C521E002A09D00B7804789C42B3
:100C3000F6D002D20020C04302E0012000E00020F4
:100C400010BC70470E4870470E48007870470D4939
:100C5000087070470A480078704709490870704763
:100C600009480078704700B5C0B2002803D00120C1
:100C70000549087002E000200349087000BD00002B
:100C8000FC0B0020AE0C0020AF0C002010B50400BF
:100C90000020C9B2002903D00F2001F0D7F902E0EB
:100CA0000F2001F0F1F90100C9B2002906D101209D
:100CB00009E0C0B240082178491C21700100C9B286
:100CC000C907F6D5002010BD1E300178FE220A406B
:100CD00002700178FD220A4002700178FB220A406E
:100CE00002700178F7220A4002700178C906C90E25
:100CF00001700020704710B504000A00002311782D
:100D0000200002F03BF8002801D0012012E0FFF79C
:100D100099FF0100200000F023FA002801D00120F3
:100D200008E001F04FF90400FFF78CFFE11C00F030
:100D3000A0F9002010BDF8B506000C0017001D003A
:100D400000206946087001216846FFF79FFF0028D0
:100D500001D001201EE02000694609780722514396
:100D600071188C1C69460978072251437118087262
:100D70006771B17FC906C90E40010843B0770120F1
:100D80006946097888407070042229002000FFF726
:100D900015FE0020F2BDF8B504000D0028001E303D
:100DA000297800290AD001294DD0022964D00329CD
:100DB00000D18AE0072900D191E0F3E021790A000F
:100DC000D2B281231340812B0CD102780823134324
:100DD00003700278FD23134003700278FB23134055
:100DE000037003E00278F723134003700A00D2B2C5
:100DF000120704D5027801231343037003E002783D
:100E0000FE231340037001220378DBB2DB081400D9
:100E10001C40E4B2002C13D1C9B2C90608D5017830
:100E200004230B4303700178FD230B40037007E09C
:100E30000178FB230B400370017802230B430370FE
:100E40002A700120F2BD00780921014000290FD04D
:100E5000FFF7C6FD0222611D1130FFF7DFFE0028FB
:100E600003D02800FFF730FFECE702202870E8E706
:100E70002800FFF729FFE5E70078C0B2400801002D
:100E8000C907C90F00291DD1FFF7ACFD00280CD000
:100E9000FFF7A4FD0422C11CE01DFFF7BFFE0028E0
:100EA00010D02800FFF710FFCCE7FFF797FD0422D2
:100EB000C11CE01DFFF7B2FE002803D02800FFF799
:100EC00003FFBFE703202870BBE7042221000B319A
:100ED000A04C2000FFF772FD07202870B1E7012623
:100EE0000178C9B2490832000A40D2B2002A21D0A2
:100EF00000206946087001216846FFF7C7FE0028F8
:100F000003D02800FFF7E0FE9CE7042291496846E1
:100F10000078072358432818861C3000FFF74EFD41
:100F2000207C694609780722514369180872092014
:100F3000287036E00178C9B2890832000A40D2B27E
:100F4000002A0ED0834B227CE17B2800FFF7F3FEC2
:100F5000002803D02800FFF7B7FE73E70A202870A7
:100F60001FE00078C0B2C00831000140C9B20029BA
:100F700017D0AF1C042239007648FFF74FFE002837
:100F80000DD1B879E17B884209D1E07BA97FC90600
:100F9000C90E40010843A8776E70207C78710A2042
:100FA00028704EE72800FFF78FFE4BE77CB50F2037
:100FB00001F04CF80600F02001F048F80400300081
:100FC000C0B2002837D0644D2888401C288028886B
:100FD0006249884212D228780521014001291FD197
:100FE000F6B2012E05D1D448016802224A400260BF
:100FF00016E00F21062001F032F811E028780007F2
:10100000000F01280CD1F6B2012E05D1CA480168A3
:1010100002224A40026003E00F21062001F01FF87F
:101020002888C649884209DB002028800F21062035
:1010300001F015F802E0002047490880E4B2002CD6
:1010400016D0684600210160FF21062001F007F854
:10105000BB4904226846FFF7E1FD002808D10020C3
:10106000FFF7F5FDFFF7BAFC00214172FFF7C7FC5F
:1010700073BDFEB50400A07F0200D2B252096678AB
:10108000002001AB00250027A0C3083BD2B2002AF4
:101090005ED03200D2B2012A05D1C0B2072250433D
:1010A0002018801C00900D003000C0B200280128DC
:1010B00013D800984079002807D080200002D94931
:1010C000086028783043287006E080200002D64966
:1010D00008602878B0432870FFE70422009901A82F
:1010E000471C3800FFF76AFC01A800994979417153
:1010F000009989798171F6B2012E0ED129780A0002
:10110000D207D20F0270D025AD01280000F0C2FE38
:10111000042201A9280000F000FFFFF795FD002838
:101120000BD0FFF75BFC407A992809D0FFF756FCFB
:1011300099214172FFF763FC02E00120FFF787FD70
:101140000F21062000F08BFFA07FC006C00EA07705
:10115000F7BD0000980C0020A00C002072020000D7
:10116000F8B504000E000321200002F035FC012830
:1011700005D00521200002F02FFC802821D120007D
:1011800002F040FC007807073F0FB51C200002F07A
:1011900021FC042201002800FFF740FD002810D1A7
:1011A000A8793900C9B288420BD1B07FC006C00E01
:1011B00079010143B17701207070A07A6871002035
:1011C00000E00120F2BDF8B5FEF780FF0500002623
:1011D00030000F2000F03AFF002840D00224210008
:1011E00098222F00380000F06DFC88202871FFF74E
:1011F000F9FB002809D0FFF7F3FB220001001131B1
:101200006C1D2000FFF7DAFB05E0210032006C1DA9
:10121000200000F057FC042421003200EF1D3800AC
:1012200000F050FCFFF7DAFB2200C11C2C000B344D
:101230002000FFF7C3FB0F20E8732E740F2000F08F
:1012400005FF687412212800FFF739F9040002F045
:1012500005FC2300DBB22A000A2102F082FCF1BD6A
:10126000FEB5FEF733FF05000F2000F0EFFE6946E4
:1012700048700026300069460870300030480290FF
:1012800001216846FFF702FD002853D10224210006
:1012900098273A000195019800F014FC01982F71ED
:1012A000FFF7A0FB002809D0FFF79AFB22000100FE
:1012B00011316C1D2000FFF781FB10E0210032008E
:1012C0006C1D200000F0FEFB04220298694609789C
:1012D000072359434118EC1D2000FFF76FFBFFF770
:1012E0007DFB0422C11C2C000B342000FFF766FBA1
:1012F0000F20E8732E74684640786874684640781A
:1013000000F062FEA87413212800FFF7D8F804004B
:101310000120FFF79CFC0F21062000F0A0FE02F048
:101320009DFB2300DBB22A000A2102F01AFC3220C6
:1013300002F0B6FDF7BD000014000048A70E000043
:10134000FE0B0020F1B582B00E0014001D00002736
:10135000380038006946087000216846FFF796FC9F
:10136000002843D1684645706846847035000224E1
:10137000210098222E00300000F0A4FB812028716B
:1013800021003A006C1D200000F09CFB0424220088
:10139000029869460978072359434018811CEE1DBD
:1013A0003000FFF70BFBFFF719FB2200C11C2C00DC
:1013B0000B342000FFF702FB0F20E8732F74684600
:1013C0008078687468464078A87413212800FFF775
:1013D00076F8060002F044FB040002F03FFB330005
:1013E000DBB22A002100C9B202F0BBFBF7BD70B529
:1013F00004000D00FFF728FC002812D02800C0B21E
:10140000FFF707FB0721484308490818851C0422F9
:101410002900661C3000FFF7D1FA68796071A8795D
:10142000A07170BD1804004828040048FC0B00207F
:10143000F0B501231C002500EDB2022675434D19BD
:101440002D7B002D1AD14B4D4B4E2F78F4552E7815
:10145000761C2E70494E33702300DBB20226734394
:10146000CB181A73E4B2022254430919487328783E
:10147000142801DB00202870F0BD641C2500EDB2AB
:10148000142D1CDA2500EDB2022675434D192D7B73
:10149000002D14D015002600F6B202277E438E19C7
:1014A000367BEDB2B542E8D12500EDB20226754398
:1014B0004D196D7B0600F6B2B542C4D1DCE72500BC
:1014C000EDB2142DBFDBD7E7F8B500273C00DBB247
:1014D000002B17D10B00DBB2D2B293420AD2C9B2B1
:1014E0004018447C02F0BAFA2200D2B224490078B3
:1014F000FFF79EFF23480078022801D1012037E042
:101500000A2035E03C00C9B24018407C69460870AA
:1015100002F0A4FA69460A7819490078FFF788FFB3
:101520000125D84E87204000305CC0B280092900D8
:101530000140C9B200290FD1FFF786FB00280BD06C
:10154000FFF780FB807969460978884204D1FFF76C
:1015500079FB290041702C00E4B2002C04D08820D3
:1015600040003554012003E0882040003754042017
:10157000F2BD0000B70C00203C0C0020B60C00208F
:10158000C80B0020100A002010B50400FEF792FDE1
:10159000411C601C00F076F8207010BDF0B50021F1
:1015A0000A000A0001220B0001240B0023E02E0098
:1015B000F6B2861976782F00FFB2C75DBE420ED212
:1015C0002C00E4B2041964782E00F6B2865D2F0078
:1015D000FFB2C7197E702E00F6B2845501246D1C2F
:1015E0002F00FFB2BC4613271E00F6B2BE1B674693
:1015F000B742DCDB5B1C1D00EDB2132D05DAE4B253
:10160000002C02D00C000D00EAE7012111E01300CC
:10161000DBB2C3185B1E1B780C00E4B2045DA3426E
:1016200006D00B00DBB2C35C1400E4B20355521CBD
:10163000491C0B00DBB2142BE9DBF0BD7FB50400C5
:101640000D0016006846102100F04CFA6846047040
:1016500029784170691C0A788270491C0978C17028
:101660000C2231006846041D2000FFF7A7F98024F2
:10167000E400200000F00EFC08226946200000F083
:101680004CFC7FBDF8B584B004000D006846102105
:1016900000F028FA082269468020C00000F060FCB3
:1016A000684606784178217081786170C078A070B2
:1016B000042422006846011D2F003800FFF77EF940
:1016C00022006846010008312F1D3800FFF776F927
:1016D0002200684601000C312C0008342000FFF77E
:1016E0006DF93000C0B205B0F0BDF0B595B00400A2
:1016F0000F0001F015F8B049451801F011F8AF4995
:1017000009684A792100AC4BC4182000FFF756F94C
:10171000002069460870287C69468870E87B0007CD
:10172000000F694648700226310069222C00200013
:1017300000F0C8F981202871042428792100014390
:101740002971FFF74DF93200010011316E1D300093
:10175000FFF734F9FEF7AEFC2200411CEE1D30000D
:10176000FFF72CF9FFF73AF92200C11C2C000B34CB
:101770002000FFF723F96846807800016946497820
:101780000143E973B048007800286DD00BA82821E8
:1017900000F0A8F901A8282100F0A4F901263000E2
:1017A000AA4C2000FFF7FAFE11E001A83100C9B2EF
:1017B0000222514340183100C9B2615C02225143F8
:1017C00079180C310A7802704A784270761C300021
:1017D000C0B214280ADA3000C0B22018401E0078C7
:1017E0003100C9B2615C8842DFD3761E01A83100A6
:1017F000C9B202225143415C00291BD069460978D5
:101800000A00521C6B461A700BAA3300DBB2022787
:101810007B43C35CC9B25354694609780B005B1C17
:101820006F463B703300DBB202277B43C018407821
:10183000C9B250543000461EC0B20028D6D1684606
:1018400002780BA9287C2818060011363000FFF713
:10185000B5F8002210007C49087010007C4908701F
:101860001421200000F02EF90020FEF727FC684626
:101870000078297C41181131C9B22800FEF71FFEFB
:1018800015B0F0BD00090020F8B500220F00C0B26D
:1018900010281BD102F0E2F86E49401DFFF725FF2A
:1018A00006003000C0B2002820D000F039FF05004B
:1018B00002F0D6F8040002F0D1F83300DBB23E4962
:1018C0006A182100C9B202F04CF90FE03878C0B2B2
:1018D00040090100C907C90F002907D03878DF2166
:1018E000014039704021002000F09DFB3878BF2175
:1018F00001403970F1BDF8B500F012FF8321890075
:10190000441855480078052854D02078002851D034
:1019100082204000205A401C8221490060528220CF
:101920004000205A4C2845DB002630008221490027
:101930006052E01C0090FEF7BDFB484D2978491C21
:10194000297004222978042359434018411C009827
:10195000C71D3800FFF732F86078011F89B2009880
:1019600000F082F8010089B2090A009A6378D2185F
:10197000121F1170009962788918C91E087002F050
:101980006FF8070002F06AF86378009A3900C9B26C
:1019900002F0E7F82078401E2070C0B2002809D17C
:1019A0002878401C28702878032801DB2E7001E07D
:1019B00003202070F1BD00001C040000D4010020B1
:1019C000F8B505000E001700FEF774FBFF2110317B
:1019D000405C082835D102F041F8040000F0A0FE78
:1019E0001F4909684A79611D1E4BC4182000FEF783
:1019F000E5FF00F095FE1B494418642002F050FA00
:101A00003B00DBB22A0013492000FEF730FE050040
:101A100002F024F82B00DBB222003100C9B202F040
:101A2000A0F8F021012000F0FEFA0020FEF746FBAE
:101A300009480078052802D00A2002F075F8012034
:101A400000E00020F2BD0000B60C00203C0C00209D
:101A5000B70C0020C80B0020BF0C0020B80C0020E1
:101A6000D401002015030000F2B5144900221CE047
:101A70000378401C0F24124D1E00F6B20F00BFB2B7
:101A80007E40264002277E43AE5B89B20909714041
:101A9000DBB21B110E00B6B273401C4002235C4344
:101AA0002B5B89B209095940521C13006C462488EB
:101AB0009BB2A342DCD3080080B2F2BDFFFF00005E
:101AC000245800081206130A1A43130C1A4300BFC5
:101AD000094205D0830707D00270401C491EF9D186
:101AE000704700000022FFE71300103906D330B41E
:101AF0001400150010393CC0FCD230BC490700D39B
:101B00000CC000D504C0890002D30280801C0029CB
:101B100000D502707047F446002804D4494200F012
:101B200013F8404260474042002905D45FD000F0DE
:101B30000BF8404249426047494200F005F84942EB
:101B4000604703460B43E6D40022030A8B420BD2C4
:101B500003098B4219D243088B422ED2411A00D27C
:101B60000146524110467047FF2209023FD012063B
:101B70008B4205D3121209028B4201D312120902C1
:101B800003098B4219D300E0090AC3098B4201D330
:101B9000CB01C01A524183098B4201D38B01C01A79
:101BA000524143098B4201D34B01C01A52410309F0
:101BB0008B4201D30B01C01A5241C3088B4201D39F
:101BC000CB00C01A524183088B4201D38B00C01A4C
:101BD000524143088B4201D34B00C01A5241884204
:101BE00000D3401A5241CFD201461046704708B583
:101BF00002F082F908BD00B5F02202400121080080
:101C000010430200D2B21209D2B20300DBB25B0968
:101C1000DBB2D2180300DBB29B09DBB2D2180A4058
:101C2000002A02D00200082010430200D2B212099A
:101C3000D2B20300DBB25B09DBB2D2180300DBB225
:101C4000DB09DBB2D2180A40002A02D002000420CD
:101C500010430200D2B21209D2B20300DBB29B09D8
:101C6000DBB2D2180300DBB2DB09DBB2D2181140C1
:101C7000002902D0010002200843C0B200BD38B5DF
:101C8000040000202000C0B2FFF7B5FF05022001CC
:101C9000C0B2FFF7B0FF0543280080B232BD00B5E7
:101CA00001210200D2B21209D2B20300DBB25B09F9
:101CB000DBB2D2180300DBB29B09DBB2D2180300FF
:101CC000DBB2DB08DBB2D2180A40002A51D0020096
:101CD000D2B21209D2B20300DBB25B09DBB2D21876
:101CE0000300DBB2DB09DBB2D2180300DBB29B08D6
:101CF000DBB2D2180A40002A1DD00200D2B212096B
:101D0000D2B20300DBB29B09DBB2D2180300DBB214
:101D1000DB09DBB2D2180300DBB25B08DBB2D218FE
:101D20001140002903D00100102048406EE001005E
:101D3000202048406AE00200D2B21209D2B2030069
:101D4000DBB29B09DBB2D2180300DBB2DB09DBB2EA
:101D5000D2180300DBB25B08DBB2D21811400029B5
:101D600003D001004020484050E0010008204840D6
:101D70004CE00200D2B21209D2B20300DBB25B091E
:101D8000DBB2D2180300DBB2DB09DBB2D2180300EE
:101D9000DBB29B08DBB2D2180A40002A1DD0020039
:101DA000D2B21209D2B20300DBB29B09DBB2D21865
:101DB0000300DBB2DB09DBB2D2180300DBB25B0845
:101DC000DBB2D2181140002903D001008020484026
:101DD0001CE001000420484018E00200D2B21209C1
:101DE000D2B20300DBB29B09DBB2D2180300DBB234
:101DF000DB09DBB2D2180300DBB25B08DBB2D2181E
:101E00001140002902D0010002204840C0B200BDAC
:101E100038B50400200080B2000AC0B2FFF73FFFCF
:101E2000F02505402000C0B2FFF739FFC0B200091D
:101E30002843C0B232BDABCD124207D08B0706D0CB
:101E40000B78491C0370401C521EF7D8704783075B
:101E500006D00B78491C0370401C521EF9D1704704
:101E600070B4103A03D378C9103A78C0FBD2530744
:101E700001D318C918C001D508C908C0D20704D3B6
:101E80000B880380891C801C002A01D50B78037005
:101E900070BC704730B53E493E4A0A603E4A0A600F
:101EA0003E4900220A6001220B681340002BFAD140
:101EB0003B4B1C68022525431D603A4C00193A4CE7
:101EC00020601868402404431C6008681040002803
:101ED000FBD11868022188431860186880210143EB
:101EE000196030BD30B52F4A821801232B4C206871
:101EF00018400028F9D12A4805681D430560118063
:101F0000216819400029FBD1016801229143016039
:101F100030BD2449401800887047F8B504000E0011
:101F200017001B481B4901601B49016000251B4825
:101F3000056009E0280080B202214143715A200067
:101F4000FFF7D0FFA41C6D1C2800390080B289B2B5
:101F50008842EFD31248016880220A430260F1BD33
:101F6000F8B504000F001500002609E02000FFF777
:101F7000D0FF310089B202224A43B852A41C761C19
:101F80003000290080B289B28842EFD3F1BD000051
:101F90000420024023016745AB89EFCD0C200240AD
:101FA0001020024000C00008142002408649C0B240
:101FB00002225043081870478449C0B2022250439D
:101FC000081870478248704710B50400FFF7FAFF01
:101FD000C07804402000C0B210BD10B50C00C0B2E3
:101FE000022804D015D304280DD006D311E0FFF742
:101FF000E9FFC1784C40C4700BE0FFF7E3FFC17804
:102000000C43C47005E0FFF7DDFFC178A143C17048
:10201000FFE710BD10B50400FFF7D4FF00780440BF
:102020002000C0B210BD10B50C00C0B2002802D014
:10203000012804D009E0FFF7C5FF047005E0FFF7B1
:10204000C1FF0178A1430170FFE710BD10B5040086
:10205000FFF7B8FF807804402000C0B210BD10B573
:102060000C00C0B2052802D0062806D00BE0FFF70E
:10207000A9FF81780C43847005E0FFF7A3FF817806
:10208000A1438170FFE710BD10B50400FFF79AFF70
:10209000407804402000C0B210BD10B50C00C0B2A2
:1020A000072802D0082806D00BE0FFF78BFF417805
:1020B0000C43447005E0FFF785FF4178A143417070
:1020C000FFE710BDF8B501242000424800688021D8
:1020D0000840C0090100C9B2002927D03E490200CA
:1020E0000B78D2B29A420ED03C4A13885B1C138004
:1020F0001388152B05D300231C001480384A137055
:1021000008700020F2BD0120FFF7A0FF002809D0D1
:1021100034480188491C018000883349884201D332
:102120003248047000202D490880EAE72A4902005D
:102130000B78D2B29A420BD0284A13885B1C1380CA
:102140001388152BDDD30023138008700120D9E7F5
:10215000234800780028D4D1204D2888401C2880AE
:10216000288821498842CCD30120FFF76FFF00283F
:1021700021D01E48017800290BD0002101701021C8
:102180000520FFF76CFF16480470B548288003202F
:10219000B8E7FEF757FD861C042100273A00009699
:1021A0000098FFF78FFC009838007071B77110210C
:1021B0000520FFF754FF0A480470A9482880002032
:1021C0000849088002209DE7B0580008C058000860
:1021D000900C002010000048D8010020A20C002024
:1021E000B10C0020A40C002072020000B20C0020F0
:1021F000F0B585B005000C00280001F00FFC007858
:1022000007073F0F68461421FFF76CFCFFB23E0042
:10221000F607F60F0120FFF7D7FE864203D0102104
:102220000720FFF73AFF2600280001F0EDFB010030
:10223000300001F033FB00220021300001F035FBBB
:1022400002220121300001F030FB280001F0F8FBF0
:10225000112422006D4601002800FEF7AFFB002389
:1022600000220021300001F054FB050022006946E5
:102270002800C0B23418E41E2000FEF79FFB0122A4
:102280000A212800C0B2301801F083FB2C1801226B
:102290000B212000C0B2301801F07BFB2418012272
:1022A0000C212000C0B2301801F073FB2018C11FB0
:1022B000C9B2300001F02BFB05B0F0BD38B5050008
:1022C0000C00280001F0AAFB0078000605D42100CC
:1022D0002800FFF78DFF012000E0002032BDFEB591
:1022E00006000C0001A80021016000252F0002A8B3
:1022F00000210160A07940073CD5A5710120FFF7BE
:1023000063FE002805D06846007901210143684634
:1023100001710420FFF750FE022201A94C1C0100AC
:102320002000FEF74BFBFDF7C5FE411C300001F01D
:10233000B5FA02220121300001F0B7FA0022012192
:10234000300001F0B2FA0123032201A9300001F0AC
:10235000E0FA0A380100C9B2300001F0D8FA3000C2
:1023600001F074FA0400FF210820FFF796FE200018
:10237000C0B23CE0A079400638D528006946087014
:1023800000216846FEF782FC002801D001202EE0E3
:10239000A571FEF757FC042202A96B461B7807249F
:1023A0006343C018801CFEF739FC002805D1FF21CB
:1023B0000820FFF772FE012019E00120FFF764FEFC
:1023C000002807D00120FFF7FFFD002802D03800C9
:1023D00001270743FEF736FC00233A00D2B2310052
:1023E000FEF7B0FFFF210820FFF757FE0020FEBDDB
:1023F00010B5040000202000C0B2012811D1FFF761
:10240000E1FDFFF75FFEC0B2022809D10120611E85
:1024100088400100C9B20520FFF721FEFEF7D3FE78
:1024200010BDFDE780B58179490705D440790028C2
:1024300002D10120FFF7DCFF01BD00B5C0B20128C9
:102440000CD1C9B2002904D08020000205490860DF
:1024500003E08020000204490860FFE700BD00009F
:102460007102000018040048280400487CB50600EA
:102470000C0068460021002206C008382000C0B2C7
:10248000FFF702FE00280BD12000C0B2FEF7C1FA10
:10249000102181400800C0B2FFF7F6FD002843D0AC
:1024A0002000C0B2FEF7B5FA0100102528008840D0
:1024B000C0B2FFF7E9FD002805D0FEF793FA002827
:1024C00001D0012030712100C9B20220FFF785FD43
:1024D0002000C0B2FFF778FD694608702100C9B23C
:1024E0006846FEF784FF2000C0B2FEF792FA8540EE
:1024F0002900C9B20820FFF7D0FD0120707120002B
:10250000C0B2012810D1684601782000C0B2FFF7A0
:1025100094FFD024A4012000FFF7BCFC04226946EC
:102520002000FFF7FAFCFFE773BD80B5817949070A
:1025300002D40121FFF79AFF01BD10B504006079B4
:10254000002807D06079401C607160790D2801DB9C
:1025500000206071207900280FD02079401C207164
:1025600020797E2809DB00202071FEF73BFA002845
:1025700003D0A07904210143A17110BD10B504005E
:102580002000FFF74FFF2000FFF7CFFF10BDFEE751
:102590001CB50400684650490A78027020780D285E
:1025A0001BD1002020706178A01C01F023F90028C5
:1025B0000DD1A078682804D101210020FFF733FD58
:1025C00018E05348016820220A43026012E0504894
:1025D000016820220A4302600CE001F03CFC4D49F6
:1025E000884207D3002001F039FC4B4A012168469C
:1025F00000F057F813BD00B50A78002A0AD0082A5F
:1026000012D0092A14D00A2A23D00B2A2FD00C2A40
:1026100036D045E00200D2B2682A04D18870012089
:102620008873082008703BE0C8700920087037E004
:102630000200D2B2002A06D1002008710B200870D7
:102640000320487004E008710A20087003204870D5
:1026500026E04A788A1890704878401C487048787C
:102660000A79D21C904201DB0B20087018E04A78EE
:102670008A1890704878401C48700C2008700FE051
:102680004A788A1890704878401C48702048026840
:1026900020239A430260002088730D200870FFE712
:1026A00000BD38B514002278002A01D0012011E0C5
:1026B0006170C9B2E51C0A0001002800FEF77EF92E
:1026C0000020A070012020701148016880220A4378
:1026D0000260002032BD00000E59000800B5010064
:1026E00000200A78012A10D188780818C0788A78E2
:1026F000521C8A708A784B789A4206D302220A705A
:1027000006490A6880239A430A60C0B200BD0000EF
:1027100000440040E9030000800C00200044004019
:10272000BE487047F8B50024230000E05B1C1D0084
:10273000EDB2022D21DA01258326F600875D2E00F9
:102740009E403742F2D18326F600865D9D40354398
:102750008326F60085551D00EDB28326760075436D
:102760004519AB706A70D2B2EE1C3000FEF726F944
:10277000822040002C5202202870F1BDF0B587B0B5
:1027800007000E00380001F049F9040002A81421E6
:10279000FFF7A8F968460021002206C0083800208B
:1027A000FEF71CF90500380001F014F90422E91CB9
:1027B000FEF734FA002800D08DE0FEF711F913225D
:1027C0000100E01CFEF72AFA00282ED0FEF708F9D7
:1027D0001022E11C05002800FEF7F0F8FEF700F9D2
:1027E000032221001331050010352800FEF7E6F81A
:1027F000A57D2800C0B2002803D12800C0B2FF2860
:1028000002D0FEF7EDF8C574FEF7F9F80120FEF7E7
:10281000ECF8FFF785FF824901224254FEF78CF95C
:1028200001F079F90A2001F07FF903252A0021003F
:102830006C462000FEF7C2F801206946C870087196
:102840004D71380001F0E0F80100300001F026F889
:1028500000220021300001F028F80222012130007E
:1028600001F023F8380001F0EBF81124220002AD4A
:1028700001002800FEF7A2F8012306226946300075
:1028800001F047F80500300001F0C8F8220002A965
:10289000841D2000FEF792F801220A212800C0B210
:1028A000301801F076F82C1801220B212000C0B25C
:1028B000301801F06EF8241801220C212000C0B25B
:1028C000301801F066F82018C11FC9B2300001F0BD
:1028D0001EF8012000E0002007B0F0BD10B5002375
:1028E000180000E0401C0200D2B2022A13DA0200F3
:1028F000D2B28324640062438A181478002CF1D089
:1029000013708320C000085C0123927893409843A1
:102910008322D200885410BDFEB5060000252C008D
:102920009A48081801909A480818029000A8801C3C
:1029300000210180280001F091F8964909684A7940
:10294000411D029F3800FEF739F801212A00019D40
:102950002800FFF7B7F8300001F060F80222411CB0
:1029600000ADAD1C2800FEF729F80420FFF724FB7A
:102970000222010000A8801CFEF750F9002805D1B2
:1029800001993000FFF79AFC04000FE00020FFF7E8
:102990000DFB0222010000A8801CFEF73FF9002871
:1029A00004D101993000FFF7E9FE0400E4B2002CE5
:1029B00032D0019800F04AFF694608700020FFF706
:1029C000F5FA0400300001F029F802222100401C31
:1029D000FEF724F900280CD001236A4668460178E6
:1029E000019800F0CBF9002816D101F039F8040065
:1029F00000E00A2468460378019AA9490298FDF785
:102A000036FE6946087001F029F869460B78029A8B
:102A10002100C9B201F0A5F8F7BD0000DC010020DB
:102A200019040000F8B50F20FFF7F4FA060000279C
:102A30003C00FDF74BFB0500FDF73CFB0D30009023
:102A40003000C0B200283AD03000C0B2012808D10E
:102A5000C3480078002800D096E0C248FEF789F805
:102A600007E0F6B2022E04D100992800FEF743F9E0
:102A700004000F210120FFF7D6FA2000C0B2002881
:102A800008D0FDF717FB8821490047540A2001F0C0
:102A90004BF879E0FDF70EFB88214900405C0128E6
:102AA00002D10A2001F040F8FDF704FB882149001B
:102AB0003A004254AC48016820220A430260F020E8
:102AC000FFF7A8FA00285FD00020FFF76FFA060092
:102AD000280000F0A3FF02223100401CFEF79EF800
:102AE000002837D000F0BCFF010000980278C9B27E
:102AF0002800FEF765FF002846D1FDF773FF002888
:102B000012D0FDF76BFF0422C11C681CFEF786F88B
:102B100000280AD1FFF704FE944901224254FFF72E
:102B2000FFFD9349475200E001240023009A0098DA
:102B30000178280000F022F9002800D00124E4B236
:102B4000002C10D0F0210120FFF76DFA0A2000F0D0
:102B5000EBFF19E0009802780A212800FEF730FF09
:102B60000028ECD010E0280000F016F8F021012039
:102B7000FFF759FA0020FDF7A1FA7E4800780528F2
:102B800002D00A2000F0D0FFF1BD00001C040000BC
:102B90000F020000D401002010B504000521200020
:102BA00000F01AFF002818D10321200000F014FFC4
:102BB000002806D1FFF7B4FD01002000FFF7ACFEAE
:102BC0000BE00321200000F007FF012805D1FFF7EB
:102BD000A7FD01002000FFF781FE10BD10B5002108
:102BE0000A000A008323DB00C2540A000FE013002E
:102BF000DBB2832464006343C3180C009C700C0098
:102C00005C708224640019530C001C70521C130069
:102C1000DBB2022BEBDB10BD7CB504005648251857
:102C2000002069460870FDF751FA010001222E00CC
:102C30003000FDF7C3FEFFF7C5F901002800FFF7DC
:102C40004EFB6946087068460078002827D02000AF
:102C5000FFF7C4FF01236A4668460178280000F0A8
:102C60008DF800281BD1684601782800FDF7A4FDE7
:102C700069460870FDF72AFA0500684602782900BF
:102C80002000FFF74FFD00F0EBFE040000F0E6FE31
:102C900069460B782A002100C9B200F062FF73BDBB
:102CA000C80B0020F8B50C001500832189004618D8
:102CB0006A78E91CF71C3800FDF780FE68787070B0
:102CC000B470002082214900705203203070F1BDA1
:102CD000F8B528490978052941D000210C000700E2
:102CE00000E0641C2000C0B2022838DA2000C0B224
:102CF0008322520050433D1828780028F1D08220CA
:102D00004000285A401C82225200A85282204000D3
:102D1000285A4C28E5DB82204000295200F0A0FE12
:102D2000060000F09BFE6B78EA1C3100C9B200F08F
:102D300018FF2878401E2870C0B200280FD18320C9
:102D4000C000385C0121AA78914088438321C900E2
:102D500078542A002100C9B23800FFF7A3FFF1BD63
:102D6000800C0020720C0020004400401904000078
:102D70001A040000BF0C00201C040000F7B5050079
:102D80001F00280000F03CFE6946087010246846C9
:102D900000782100FEF7D5FE060068460078210085
:102DA000FEF7CFFE68460170002423E0724A20003F
:102DB000C0B2102148432818C11D2000C0B2102302
:102DC00058432818C01D00F0A3FC12E03800C0B220
:102DD0000028EBD0684A2000C0B2102148432818D0
:102DE000C11D2000C0B2102358432818C01D00F098
:102DF0001DFC641C20003100C0B2C9B28842E5D37A
:102E00006846047968460078002841D0FFB2002F58
:102E10002BD0002001000DE03200D2B210235A4323
:102E20006B461B78D2180B00DBB2D218AA1803002D
:102E3000D371491C0B00DBB210226F463F78D21BC6
:102E40009342E9DB4C4A3000C0B2102148432818B5
:102E5000C11DF6B210204643A819C01D00F0E6FBC4
:102E6000103468460078241A12E0434A3000C0B299
:102E7000102148432818C11DF6B210204643A81956
:102E8000C01D00F045FC684600782418103CFFE7A0
:102E90002000C0B2032801DA01201CE0029E2000BD
:102EA000C0B2C11E89B22800FEF7DEFD010089B262
:102EB000090A2200D2B2AA18D21E11702100C9B28A
:102EC0006918891E087053202100C9B26918491E6B
:102ED000087034700020FEBDF0B585B004002648AF
:102EE0000390010010310291010021310191343031
:102EF00004901025290000263200019F3800FEF7BB
:102F0000E1FD29003200039F3800FEF7DBFD1127A9
:102F100039003200029800900098FEF7D3FD009827
:102F200039003200049E3000FEF7CCFD2A00134920
:102F3000039E3000FDF742FD2A0011490298451C0E
:102F40002800FDF73BFD13220E49019D2800FDF7E7
:102F500035FD02980090049B039A0199200001F02E
:102F600012F90198007CE0700198407CE0710198B2
:102F7000807CE07205B0F0BDE00A002090580008A7
:102F8000A0580008B00B002010B502000023180064
:102F90001C001C000EE0CC0700D5504080241440DB
:102FA0005200E4B2002C02D014001B226240C9B2CD
:102FB00049085B1C1C00E4B2082CECDBC0B210BD5D
:102FC00010B403780C785C40147043784C785C4003
:102FD000547083788C785C409470C078C978414094
:102FE000D17010BC7047F4B507000E003178387806
:102FF000FFF7CAFF04007178F878FFF7C5FF0500F6
:10300000B178B878FFF7C0FF0100654069400C0057
:10301000F1787878FFF7B8FF2100484000990870F0
:1030200031787878FFF7B0FF040071783878FFF7CF
:10303000ABFF0500B178F878FFF7A6FF0100654007
:1030400069400C00F178B878FFF79EFF21004840F6
:10305000009948703178B878FFF796FF04007178CE
:103060007878FFF791FF0500B1783878FFF78CFF8B
:103070000100654069400C00F178F878FFF784FFA3
:1030800021004840009988703178F878FFF77CFF7C
:1030900004007178B878FFF777FF0500B178787889
:1030A000FFF772FF0100654069400C00F178387845
:1030B000FFF76AFF210048400099C870F1BD38B59C
:1030C0000100C9B2012903D10120C349087013E0EE
:1030D0000100C9B202290FDBBF4C02212170451E3D
:1030E00005E002212078FFF74FFF20706D1E2800B9
:1030F000C0B2401E0128F4DAB74832BDF0B5002353
:103100004DE01C00E4B2045D1500EDB210267543DD
:103110001E00F6B204277E43AD194D5D65401C00CC
:10312000E4B205551C00E4B2041924791500EDB28F
:10313000102675431E00F6B204277E43AD194D19C3
:103140006D7865401C00E4B2041925711C00E4B2DE
:103150000419247A1500EDB2102675431E00F6B24C
:1031600004277E43AD194D19AD7865401C00E4B2CB
:10317000041925721C00E4B20419247B1500EDB279
:10318000102675431E00F6B204277E43AD194D1973
:10319000ED7865401C00E4B2041925735B1C1C002B
:1031A000E4B2042CADDBF0BD7FB5050002A8B44944
:1031B0000A6802600026340011E00100C9B204224E
:1031C00051432200D2B289186A460300DBB2D25CB6
:1031D0006A54401C0100C9B20429EEDB641C2000C3
:1031E000C0B2042819DA30000CE00100C9B2042290
:1031F00051432200D2B28918695C01AA0300DBB2F4
:10320000D154401C0100C9B20429EEDB6A4601A971
:1032100002A8FFF7E8FE3000DCE77FBD7FB50500C0
:1032200002A898490A6802600026340011E00100F3
:10323000C9B2042251432200D2B289186A4603005F
:10324000DBB2D25C6A54401C0100C9B20429EEDB37
:10325000641C2000C0B2042819DA30000CE0010020
:10326000C9B2042251432200D2B28918695C01AA72
:103270000300DBB2D154401C0100C9B20429EEDBCB
:103280006A4601A902A8FFF7AEFE3000DCE77FBD69
:10329000F0B5012100E0491C0A00D2B2042A2CDA60
:1032A00000221DE00D00EDB2042675431E00F6B2AB
:1032B000AD1945196D1E0E00F6B204277E431F009E
:1032C000FFB2F619865D2E705B1C1D00EDB2042D59
:1032D000E8DB0B00DBB204256B43C318DC70521C27
:1032E00013000C00DBB2E4B2A342D4D20B00DBB279
:1032F00004246343C45C0123E7E7F0BDF0B501217A
:1033000000E0491C0A00D2B2042A2CDA00221CE098
:103310000D00EDB2042675431E00F6B2AD190E0085
:10332000F6B204277E431F00FFB2F6198619761EF7
:10333000367846555B1E1D00EDB2002DE8D10B001E
:10334000DBB204256B43C454521C13000C00DBB2E7
:10335000E4B2A342D5D20B00DBB204246343C3180A
:10336000DC780323E7E7F0BDF0B500210A002BE08D
:103370001400E4B204256C431D00EDB26419045D31
:103380002600F6B236091400E4B204256C431D0091
:10339000EDB26419045D2407240F1500EDB2042773
:1033A0007D431F00FFB2EF19374DAC46F6B2102532
:1033B0006E43E4B2341965462C5DC4555B1C1C0099
:1033C000E4B2042CD4DB521C1300DBB2042B01DA70
:1033D0000B00F4E7F0BD000000000020F0B5002174
:1033E0000A002BE01400E4B204256C431D00EDB28A
:1033F0006419045D2600F6B236091400E4B204250F
:103400006C431D00EDB26419045D2407240F150000
:10341000EDB204277D431F00FFB2EF191B4DAC46F0
:10342000F6B210256E43E4B2341965462C5DC455DE
:103430005B1C1C00E4B2042CD4DB521C1300DBB276
:10344000042B01DA0B00F4E7F0BD10B5002111E008
:103450000D4A0B00DBB2C35C1B11102463430C004C
:10346000E4B2045D2407240F1B19D25C0B00DBB20D
:10347000C254491C0A00D2B2042AE9DB10BD000084
:10348000EC580008F0580008F0530008F054000809
:1034900010B50178002207E01300DBB2C3185B7897
:1034A0001400E4B20355521C1300DBB2032BF3DB10
:1034B000C17010BDFEB50E002C216A4611700021AE
:1034C0002EE00A00D2B204235A43825C0B00DBB226
:1034D00004246343F2540A00D2B204235A438218EC
:1034E00052780B00DBB204246343F3185A700A00CD
:1034F000D2B204235A43821892780B00DBB2042420
:103500006343F3189A700A00D2B204235A43821814
:10351000D2780B00DBB204246343F318DA70491C41
:103520000A00D2B2042ACCDB04273C0077E03AE060
:1035300001AD2000C0B2042148433018001F0078BC
:1035400028702000C0B2042148433018C01E007803
:1035500068702000C0B2042148433018801E0078F3
:10356000A8702000C0B2042148433018401E0078E3
:10357000E8702000C0B23900FEF7E3FA0029D6D186
:1035800001A8FFF785FF01A8FFF75FFF2000C0B289
:103590003900FEF7D6FAC0B2FFF791FD01AA01008B
:1035A00001A8FFF70DFD2000C0B2042148433018E8
:1035B00010380078297841402000C0B204225043DE
:1035C00031542000C0B20421484330180F3801782C
:1035D000687848402100C9B20422514371184870EC
:1035E0002000C0B20421484330180E380178A87872
:1035F00048402100C9B2042251437118887020004C
:10360000C0B20421484330180D380078E9784140B1
:103610002000C0B2042250433018C170641C200046
:1036200069460978C0B2884282D3F7BDF1B586B049
:103630000D00002630001DE002AC0300DBB20427C1
:103640007B430F00FFB2DF1900970194069F030030
:10365000DBB29C460C00E4B204235C4363461B19B6
:10366000FB5C019C009FE355491C0B00DBB2042B63
:10367000E2DB401C0100C9B2042901DA3100F4E7A1
:1036800017000022390002A8FFF738FD01240FE0DF
:1036900002A8FFF769FE02A8FFF7FAFD02A8FFF7EC
:1036A00083FD2200D2B2390002A8FFF727FD641C77
:1036B0002000C0B20A28EBDB02A8FFF755FE02A8E3
:1036C000FFF7E6FD0A22390002A8FFF717FD3000D8
:1036D00016E00200D2B20B00DBB204246343D2181E
:1036E00002AB0400E4B204277C430F00FFB2E419EC
:1036F0001B5DAB54491C0A00D2B2042AE9DB401C12
:103700000100C9B2042901DA3100F4E707B0F0BDC5
:10371000F1B586B00D00002630001DE002AC0300BC
:10372000DBB204277B430F00FFB2DF19009701943F
:10373000069F0300DBB29C460C00E4B204235C430A
:1037400063461B19FB5C019C009FE355491C0B0061
:10375000DBB2042BE2DB401C0100C9B2042901DA10
:103760003100F4E717000A22390002A8FFF7C6FC6F
:1037700009240FE002A8FFF7C1FD02A8FFF72EFE03
:103780002200D2B2390002A8FFF7B8FC02A8FFF766
:1037900045FD641E2000C0B20028EBD102A8FFF74F
:1037A000ADFD02A8FFF71AFE0022390002A8FFF7BC
:1037B000A5FC300016E00200D2B20B00DBB20424FC
:1037C0006343D21802AB0400E4B204277C430F0029
:1037D000FFB2E4191B5DAB54491C0A00D2B2042AA3
:1037E000E9DB401C0100C9B2042901DA3100F4E729
:1037F00007B0F0BD38B504002078AC2804D020789C
:10380000682801D0012020E02078AC2801D1CD1E0D
:1038100000E08D1E2900C9B289B22000FEF724F90C
:10382000010089B2090A89B22A00D2B2A25C91428F
:1038300001D0012009E080B2C0B2EDB2611949782F
:10384000884201D0012000E0002032BD38B50400DC
:1038500000210800200000F01EF8200000F0D0F841
:103860000500ED1D2900C9B289B22000FEF7FCF861
:10387000010089B2090A2A00D2B2A1542900C9B2B2
:103880006118487053202900C9B261188870ED1C76
:103890002800C0B232BDAC210170704710B50422BF
:1038A000441C2000FDF78AF810BD00B5D2B2002AF2
:1038B00003D0022A1DD00FD328E00A00D2B2002A7A
:1038C00005D042794907490F1143417103E041791D
:1038D000F8220A40427119E0C9B2002904D04179A6
:1038E00040220A43427103E04179BF220A404271FB
:1038F0000CE0C9B2002904D0417980220A43427108
:1039000003E041794906490E4171FFE700BD81712D
:103910007047F2B582B015001E0000F073F8040085
:1039200002202070FDF75AF804273A00C11C601CE1
:1039300001900198FDF742F801982800C0B20028D4
:1039400021D06846002101606846C57020783900A2
:1039500001432170F6B2002E03D0207808210143E4
:103960002170029E3A006946671D3800FDF726F86F
:103970002A00D2B2310009342000FDF71FF81335B8
:103980002800C0B204E02078F321014021700F200C
:10399000FEBD00B5C9B20A2906D019D30C290FD033
:1039A00008D30D2913D013E00078012801D1062097
:1039B0000FE00DE00078022801D1122009E007E0B5
:1039C0000178032902D182700E2002E000E0FFE7B7
:1039D000002000BD401C704700B502000020C9B2A5
:1039E000C91E03D0491E012904D907E050794007B8
:1039F000400F03E0507980210840FFE7C0B200BDCE
:103A000080797047C01D704780B5FFF7FBFF401CF1
:103A100002BD80B5FFF7F6FF007A02BD80B5FFF763
:103A2000F1FF062102780A40D2B2042A01D1401DDA
:103A300005E002780A4201D0093000E0002002BD12
:103A400038B504002000FFF7DDFF05002000FFF778
:103A5000E0FFC0B22818093032BDFEE78448704745
:103A6000844800787047C0B28349088070470020BE
:103A700081490880704780480088C0B2704710B5FF
:103A8000002402E0641C00F042FC7B48008800280F
:103A900003D02000C0B20628F4DBFFF7E8FF10BD1A
:103AA00038B50400684600210160FCF799FF032245
:103AB000010010316D462800FCF780FF6846017850
:103AC0004278891880780D186C48FDF75DFD002D4F
:103AD0000ED16B480100C9B289080007000F4840A9
:103AE000207020780A2810D12078801C20700CE0EB
:103AF0002800C0B280082907090F414021702078B2
:103B00000A2802D12078801C20705E482178405C11
:103B1000C349087031BD80B55648FFF7C1FF00F0BA
:103B2000F6FBFFF7ACFF01BD80B580214900564A86
:103B3000116080218900554A11600100C9B24229F3
:103B400000DB4120DC214F4AC0B2105C00F0AFFC2A
:103B50000120B449087000F0BDFB00F0BFFB00205D
:103B600002BDF8B51C002300DBB2FC2B00DBFB24FC
:103B70000E003100C9B2422900DB41260092050047
:103B80002200D2B20099FF20801D2F183800FCF7C8
:103B900015FF2200D2B2FF20801D29180098FCF7E3
:103BA0008FFE0100091D6970AE7001242100E970CB
:103BB0006978AA784A40E978514029718021490002
:103BC000324A1160802189002F4A1160001D0200D5
:103BD000D2B2FF20801D29182A48F6B2805D00F07D
:103BE00082FC05208F4908708F482C5400F06EFB32
:103BF0000020F2BDF8B50E0011001D002A00D2B25F
:103C0000FC2A00DBFB253200D2B2422A00DB41262F
:103C100004002A00D2B2FF20801D27183800FCF7CC
:103C2000CDFE2800001D6070A6700120E070607855
:103C3000A1784140E078484020718020400013493D
:103C4000086080208000104908602D1D2A00D2B233
:103C5000FF20801D21180B48F6B2805D00F043FC68
:103C600005207049087000F031FB0020F2BD000013
:103C7000F8060020BE0C0020AA0C0020C80B002073
:103C8000FD020000205700082804004818040048DE
:103C900080B50521FFF7A0FE002804D110210020E7
:103CA000FEF7C1F903E020210020FEF7BCF901BDB9
:103CB000F8B504005D4F3888401C388038885C496E
:103CC000884223DB68465B490A88028000200100A5
:103CD000398059490A78022A08DB08700120FFF769
:103CE000C2FE8020C0015549086097E00878401C5A
:103CF00008704C480078052808D0FFF7B1FE010095
:103D000002236A46C9B22000FFF774FF454D2878A8
:103D1000032816D0042802D0062808D07EE002200E
:103D200000F0E7FC00F093F80120287076E0002412
:103D30002000287000F08BF83C800A20FFF7F4FE8A
:103D40006CE0002630002870012000F024FD00F017
:103D50007EF83E803A4800684179601DFCF70EFE0F
:103D6000C0B2012806D1002000F015FD0A20FFF79F
:103D7000DBFE53E0601DFCF740FD01252800601DBF
:103D8000FCF7C1FB0100C9B201290FD00100C9B283
:103D9000022904D102210020FEF745F93EE0C0B21D
:103DA00003281CD102210020FEF73DF925480078A8
:103DB000C0B280090540EDB2002D14D0002000F003
:103DC000EAFCFCF777F90400FCF774F98721490055
:103DD0006118FF221032805CFDF756FD1EE00A20BC
:103DE000FFF7A2FE1AE0FEF7EDF80400FCF72AFF49
:103DF000E11CFDF73EF9FCF75DF90400FCF766F9FC
:103E0000617BFFF7F7FC002804D1FCF75FF9FFF7AF
:103E10003FFF02E00A20FFF787FEFFE7F1BD000049
:103E20006D010020BF0C002005020000AC0C00203A
:103E3000993A0000361E0008C00C002018080048FF
:103E4000D40100200E0A002024480088704700207A
:103E5000224908807047224800687047204908605E
:103E6000704738B51F4820490860204C206804215D
:103E70000143216000201E4908606846FF2101704F
:103E800001252900417029008170684600F0B0FDCD
:103E9000206802210143216020680543256031BD6F
:103EA00000B50F4A116813685B1A8342FBD300BD4B
:103EB00000B50B480168491C016008490A88002ABE
:103EC00002D00A88521C0A8000684007400F002870
:103ED00002D101200749087000BD0000A60C002097
:103EE0009C0C002080BB000014E000E010E000E02B
:103EF00018E000E0B30C00207047FEE730B5002367
:103F000008E01C00E4B2045D1D00EDB24D5DAC4262
:103F100010D35B1C1C001500E4B2EDB2AC420BD216
:103F20001C00E4B20C5D1D00EDB2455DAC42E8D270
:103F3000012002E0022000E0002030BD10B5002288
:103F400000E0521C13000C00DBB2E4B2A34207D223
:103F50001300DBB2C35C002BF3D0881AC0B200E0C0
:103F6000002010BD10B50022110007E00B00DBB2ED
:103F7000C3185B780C00E4B20355491C0B00DBB29C
:103F8000102BF3DB027410BDF4B505000C0068467D
:103F9000027821002800FFF7B1FF022847D0002057
:103FA000010002006A46127820E0591A1300DBB2C1
:103FB000E3185B1E1B78CB1A012111E01600F6B244
:103FC000A619761E36781F00B6B2BFB2BE42ECD23A
:103FD000591A1300DBB2E3185B1E1B78CB1A0100E1
:103FE0001600F6B2AE19761E3370521E1300DBB205
:103FF000002BCCD01300DBB2EB185B1E1B781E002D
:104000001700FFB2E7197F1E3F78B6B2BFB2BE42BB
:10401000D4D10E00F6B2012E07D15B1E1600F6B207
:10402000A619761E36789B1BDAE70300D8E7F1BDA8
:10403000F8B507000E00112411213000FFF77EFFB4
:10404000251A1120421BD2B22800C0B23118380004
:10405000FFF79AFF00240CE01220421BD2B2280086
:10406000C0B23118491E2000C0B23818FFF78CFFCB
:10407000641C20002900C0B2C9B28842ECD3F1BD53
:1040800070B50024DBB2012B1ED1102314E01D00FB
:10409000EDB245196D1E2D780E00F6B27543E4B2EF
:1040A0002C191D00EDB2555D641925001E00F6B2F5
:1040B0009555A4B2240A5B1E1D00EDB2002DE6D179
:1040C00010780019107017E0102310E01D00EDB2F9
:1040D00045196D1E2D780E00F6B27543E4B22C1909
:1040E00025001E00F6B29555A4B2240A5B1E1D00E1
:1040F000EDB2002DEAD1147070BDFEB507000C00C2
:1041000015001E0010212000FFF718FF69460870F7
:104110006846007841426018103001900024200069
:1041200003E00100C9B26C54401C0100C9B211295E
:10413000F7DB14E001232A0001982100C9B2415C99
:104140003800FFF79DFF31002800FFF771FF2800BE
:10415000FFF708FF31002800FFF76AFF641C20000A
:10416000C0B269460978491E8842E3DB01232A0070
:104170000198E4B2015D3800FFF782FF31002800AA
:10418000FFF756FFF7BDF6B585B006000D001F001E
:10419000082410210698FFF7D1FE6946087068468A
:1041A0000078002800D188E0049501961022049937
:1041B000019D2800FCF702FC0698694609784A42EE
:1041C00080181030039003980178002002E0490025
:1041D000641E401C0200D2B2082A01DA0A06F6D593
:1041E0004D00601E694648700024029721E0344863
:1041F000344908600C9B029A01990198FFF77DFFF2
:10420000102632000298411C019F3800FCF7D6FBB3
:1042100028060CD50C9B029A01990498FFF76DFFB4
:1042200032000298411C019E3000FCF7C7FB6D0074
:10423000641C200069464978C0B28842D7D30398ED
:10424000401C039000202049087029E01C481D49AB
:1042500008600C9B029A01990198FFF74EFF102607
:1042600032000298411C019F3800FCF7A7FB28068A
:104270000CD50C9B029A01990498FFF73EFF32007F
:104280000298411C019E3000FCF798FB6D00641CF5
:104290002000C0B20828D9DB0B480178491C017006
:1042A0000948007869460978491E884205DA03986A
:1042B00005490978455C0024EAE707B0F0BD000035
:1042C000AAAA000000300040C10C00200020A24932
:1042D000087070470020A149087070470020A0496D
:1042E0000870704780B50120FFF7BDFB01BD10B518
:1042F000002400F0C2FB00F043F900E0641C200041
:1043000098490968098980B28842F7D310BD80B501
:10431000FFF7ADFBFFF7EBFF00F077F9924840881D
:104320009249884201D0FFF7DDFF8E48006800689F
:1043300000F034F9002801D0FFF7D4FF002200215B
:10434000002000F0AEF901BDF8B507000024200000
:1043500000220021002000F0A4F9834DA878000776
:1043600002D50420824908702879C00702D50120AF
:1043700080497854A878800727D57F4E3078312837
:1043800013DB75480078302148433818FF2142314B
:104390004118302000F0BEF96F480078401C6E498B
:1043A00008703078303830700FE0307800280CD04A
:1043B00069480078302148433818FF2142314118BC
:1043C000307800F0A7F920003070A878800608D572
:1043D0002000694908700620654908702000674977
:1043E0007854A878C0072DD55C480078002812D1F1
:1043F000791C042000F097F9002000F07AF92E785B
:10440000791D3000C0B200F08EF9554806700120C9
:104410005249087016E0002000F06BF928786946D0
:1044200008704F4E30783818411D6846007800F00B
:104430007AF9307869460978401830704748017831
:10444000491C0170A878C00630D54448007800287F
:104450000BD1791C042000F066F9002000F049F926
:10446000791D287800F05FF90EE03D4E3078002885
:104470000AD0002000F03DF930783818411D287826
:1044800000F051F92000307036487978091F026831
:104490005171B97800680171002000F053F9E87893
:1044A000387003203249087032483C54F1BD3EB5A3
:1044B00005000C00032000F013F900220021002069
:1044C00000F0EFF8022000F014F90820019003201A
:1044D00000900023E4B2220092B200212800C0B272
:1044E00000F0CAF837BD70B505000E0014000320B7
:1044F00000F0F6F800220021002000F0D2F80120A0
:1045000000F0F7F82000C0B23D280EDB20003C3858
:1045100019490870FFF7A2FA411C042000F0FAF8CC
:1045200031003C2000F0F6F80DE000201249087040
:10453000FFF794FA411C042000F0ECF83100200051
:10454000C0B200F0E7F82800E4B2220092B2802165
:10455000C0B200F07EF870BDBA0C0020BB0C002089
:10456000BC0C0020D4010020500C00203844000076
:10457000BF0C002006020000B90C0020050200005C
:1045800080B500F06DFA0420FFF78AFC00F06CFAA9
:104590000520FFF785FC00F043FB01BD38B50400A2
:1045A000207800282FD02078641C0100C9B211297E
:1045B00001D3042028E0002106E022785E4B0D00A4
:1045C000EDB25A55641C491C0A000300D2B2DBB29A
:1045D0009A42F2D3002300225749C0B200F02EFBCA
:1045E000FF2801D002200FE000F04CFA0028D7D1BC
:1045F00000220021002000F054F850488079000784
:10460000CED5042000E0002032BD10B54A4C012078
:104610002070230008222100012000F00FFB4748F2
:1046200021780170811C627812020A804288A37886
:104630001A430A80E1780171811D227912020A80F1
:10464000C28863791A430A80A1790172E1794172C3
:1046500010BD10B50B00384931240C7048708B70B8
:10466000100080B2000AC8700A7100204871887179
:10467000072000F07BFA10BDF8B5069D079E2E4C72
:10468000322727706070A170100080B2000AE070BD
:1046900022716371A571E6712100082000F066FAAD
:1046A000F1BD10B5244C202323706070A170E2701E
:1046B000230008222100042000F0C0FA1F482178BE
:1046C000017061784170A1788170E178C1702179C1
:1046D000017161794171A1798171E179C17110BD77
:1046E00080B5154934220A704870022000F03EFA65
:1046F00001BD10B5104C15212170607023000222FD
:104700002100022000F09AFA0D48217801706178AA
:10471000417010BD80B502000B00D2B200216620AE
:1047200000F059FA01BD80B502000B00D2B20021A1
:10473000772000F031FA01BD600C0020500C002001
:10474000500C002010B5104C222121706070230005
:1047500008222100022000F071FA0C482178017033
:1047600061784170A1788170E178C170217901711F
:1047700061794171811DA27912020A80C088E279B3
:104780001043088010BD0000600C0020500C002079
:104790007F48007870477E49087070477D480168FF
:1047A000802292020A4302600C20C0439021C90576
:1047B0000A6802400A600A68042313430B607649C2
:1047C0000A6802239A430A600A680A6073490A6801
:1047D00002400A600A680A6071490A68104008606D
:1047E0000868086002206F490860704769480168DE
:1047F000802212030A4302606B486C490A68024037
:104800000A600A6880235B0513430B6068490A68E5
:10481000684B13400B600A680A6067490A680240E7
:104820000A600A680A6065490A68104008600868FA
:1048300008608020C00162490860704755480168DF
:104840008022D2020A4302605E485F490A68024041
:104850000A600A688023DB0113430B605B490A6826
:1048600080239A430A600A680A6059490A6802402C
:104870000A600A680A6057490A68104008600868B8
:1048800008607047F0B48020C00242490A680243C1
:104890000A60514B4C4A14681C401460146880250F
:1048A0006D0225431560494C25684C4E2E4026600C
:1048B00025682560464D2E681E402E602E68C02754
:1048C000BF0237432F60434E37683B403360336845
:1048D00033600B6803430B60414913680B4013605E
:1048E00013681843106020683E4A02402260206826
:1048F00020602868084028602868286030680140E7
:10490000316030683060F0BC704722480168802216
:10491000D2020A4302602C480168890089080160BC
:1049200001688022D2050A430260284801682E4AA5
:104930000A40026001680160254801688900890811
:1049400001600168016023480168890089080160ED
:1049500001680160802000022449086070470D480A
:104960000168802292020A43026016489021C9051C
:104970000A6802400A600A680A6009490A68104029
:10498000086008688022D20102430A607047000074
:10499000C20C002014100240040000480800004827
:1049A0000C00004828000048FFFFFFCF0008004827
:1049B00004080048FFBFFFFF080800480C08004833
:1049C00028080048FF3FFFFF000400480404004897
:1049D000080400480C040048FFFFFCFFFFFEFFFF37
:1049E000FFFFF3FFFFFDFFFFFF7FFFFF18040048FD
:1049F00070B500218178002923D0164902789210E1
:104A000004235A438B580322FF24057815400826B7
:104A10007543AC40A3434478A401E4B205782A402E
:104A200008256A4394401C430278921004235A4399
:104A30008C5001210078C006C00E814006480160FC
:104A400006E001210078C006C00E814003480160E5
:104A500070BD00BF00E400E000E100E080E100E0A4
:104A600080200C490860704780200B49086070471F
:104A70008020000209490860704780200002084930
:104A8000086070470748006881090800C007C00F28
:104A90007047000018040048280400482800004817
:104AA000180000481004004880B5C0B200F0A0F91A
:104AB00001BD80B5FF2000F09BF902BD80B5C0B2FA
:104AC00000F0DCF901BD80B5C0B200F0C5F901BD50
:104AD00000B5BFF34F8F544854490860BFF34F8F60
:104AE000FEE7F8B507000E000024514D03E000BFBB
:104AF000FFF7C3FF6D1E280080B2002817D0FFF714
:104B0000B7FF4420FFF7D0FFFFF7D3FF04002000DA
:104B1000C0B2FF28EBD138000100C9B2002903D090
:104B20003100C0B2FFF7CFFF00BFFFF7A6FFADB265
:104B3000002D11D18020C0013E4908609620FFF76A
:104B4000AFF99620FFF7ACF99620FFF7A9F9962068
:104B5000FFF7A6F9FFF7BCFF2000C0B2FF2802D183
:104B60000120354908702000C0B2F2BD70B50500C3
:104B70000E0001E000F04EF82F4C20780028F9D00C
:104B8000FFF776FF31002800C0B2FFF797FFFFF76D
:104B900074FF0020207070BD70B5040015001E0069
:104BA000C9B2002902D105E000F034F822480078AB
:104BB0000028F9D0FFF75CFF2000C0B2FFF774FFB8
:104BC00031002800C0B2FFF77EFFFFF756FF00203C
:104BD0001949087070BD70B5040015001E00C9B2F7
:104BE000002902D105E000F015F8134800780028EC
:104BF000F9D0FFF73DFF2000C0B2FFF755FF3100AD
:104C00002800C0B2FFF75AFFFFF737FF00200A491C
:104C1000087070BD80B500210020FFF762FF02BD63
:104C200000200549087070470400FA050CED00E00B
:104C30003075000018080048BD0C002038B514007D
:104C40001D00C0B2FFF792FF29002000C0B2FFF79D
:104C500048FF32BDF8B56C480168802252010A4312
:104C600002606A480168802292020A430260802141
:104C7000C90202680A43026002680A4302600268CD
:104C8000114301609021C905086880008008086010
:104C90008020C0050A6802430A605D490A685D4BCE
:104CA00013400B600A680A605B490A689200920828
:104CB0000A600A681043086058480168890089083A
:104CC000016001680160564B18685649014019603F
:104CD00018681860C022D24353480168114001602F
:104CE000016880240C430460504909680824A143EA
:104CF0004E4C21604D4909684C4C21604C4C216858
:104D0000114021602168C0250D43256049490D6887
:104D10002A400A6040220D6815430D601D68464E0A
:104D20002E401E601D681D60444D06682E400660C2
:104D3000066880273F01374307603C4E36682027CE
:104D4000BE433A4F3E60394E3668384F3E60266863
:104D50002E4026602668C0273F01374327600C6835
:104D600025400D600C688025ED0025430D601C6812
:104D7000334D25401D601C681C60324C0368234085
:104D8000036080239B0005681D430560086804409C
:104D90000C60802040000C6804430C602A49002409
:104DA0000C600D680D600D6810262E430E600D68B6
:104DB00004262E430E600D680D600D680D60234DB6
:104DC0002C602C688026760126432E602C68E02615
:104DD000F60026432E600C6823430B600B681843D3
:104DE0000860086802430A60FF2000F001F8F1BD86
:104DF00000B5174A11688907FBD516490870106875
:104E0000C007FCD5087800BD1810024014100240FD
:104E100004000048FF7FFFFF080000480C00004826
:104E200020040048FF0FFFFF00040048040400486E
:104E3000080400480C040048FFFF0FFFFFF3FFFFCA
:104E4000FFFFF0FFFFFCFFFF003001400430014096
:104E5000083001400C30014070B505000C00002600
:104E600005E0FF20FFF7C4FF2070641C761C3000B3
:104E70002900C0B2C9B28842F3D370BD70B5050035
:104E80000C00002605E03000C0B2205CFFF7B0FF48
:104E9000761C30002900C0B2C9B28842F3D370BD7D
:104EA00010B5FFF775FC002818D0FFF771FC401C07
:104EB000C0B2FFF770FCFFF76BFC05210140012930
:104EC00004D18E48016802224A400260FFF760FC6C
:104ED000332826DB0020FFF75EFC22E0FDF720FCF4
:104EE0008749405C012819D1022086490860FDF7F6
:104EF00017FC8549415A491C834A81528249405ACC
:104F0000824988420DDB0024FDF70AFC7E4922001D
:104F10004252FDF705FC7A49445402E002207C49E4
:104F2000086010BD38B57B4DFEF7A5FD28807A4C92
:104F3000207801280FD17948006840060BD4FEF78D
:104F400083FF7E2814DBFEF782FFFEF7E4FD0A20D4
:104F5000FEF7EAFD0CE02078012809D0FEF774FF87
:104F60006F49884204DBFEF772FF0A20FEF7DCFD82
:104F70002888002819D02888401C28802888C0B29A
:104F8000FEF771FD2888BC21490088420DDBFEF741
:104F90006EFD8020C001634908603220FEF780FF6B
:104FA000FEF7B9FD0A20FEF7BFFDFEF757FD5E498B
:104FB000405C002814D0FEF751FD5B49415C491C60
:104FC000594A81545849405CFB2809DB0025FEF70B
:104FD00045FD55492A00425425700A20FEF7A4FDDC
:104FE000FEF73CFD5149405C002811D0FEF736FD2C
:104FF0004E49415C491C4D4A81544C49405C3F2814
:1050000006DBFEF72BFD49490022425406202070A2
:105010004749087802280AD1464A1078401C107087
:105020001078072803DB0020030013700870424843
:10503000817B00290BD0827B521C01000E310A704B
:10504000D2B20A2A03DB00220A700D2101703B480C
:105050000100CA310A78002A09D00A78521C0A7065
:10506000D2B20A2A03DB00220A700D210170FCF77C
:10507000A9FFFDF762FAFFF713FFFBF797FF31BDBA
:1050800010B500F063F802241E480460FBF713FD1E
:10509000FBF752FD1E480460FFF737FCFFF75FFC8B
:1050A000FEF739FD0A20FEF73FFDFBF7FFFC00F09D
:1050B00063F8234823490860234801780029FBD07E
:1050C00000210170FFF72EFFFEF7C8FCFEF7F0FD90
:1050D000FDF7A8FCFCF776FFFDF750FA0E480078C4
:1050E000052803D0FDF71CFBFDF796FDFDF718FB27
:1050F000FDF7EEFDFCF7FFFBDBE7000014000048C6
:1051000019040000180000481A0400004D1D00009A
:1051100028000048A80C0020BF0C00201004004804
:105120007202000028080048060200000502000084
:10513000800C0020B40C0020700C0020140A002009
:10514000AAAA000000300040B30C002080B500F097
:1051500035F872B6FFF722FBFEF783FEFFF746FB3A
:10516000FFF778FDFFF76AFBFFF78CFB00F052F8C2
:1051700000F0A0F862B601BD00B509480949016018
:10518000094901600021094A1160FA210901084A10
:105190001160084909680029FBD10749016000BD79
:1051A00000300040CCCC00005555000004300040D9
:1051B000083000400C300040AAAA000000B5124898
:1051C000016801600021114A11600168A022920368
:1051D0000A430260022102680A4302600268026018
:1051E000026802600A4802680123134303600268F0
:1051F0000A40002AFBD00168802252040A43026060
:1052000001688901FCD500BD041002402C10024049
:10521000001002401CB51D4801688022D2020A43DA
:1052200002601B481B490A6802400A600A680A605B
:1052300019490A6810400860086880225201024338
:105240000A60012015490A6802430A6014490A6885
:10525000144B13400B600A6880235B0013430B6000
:10526000402411490A6822430A6010490A680A600A
:10527000694607220A7002224A7088706846FFF762
:10528000B7FB0B4801680C43046013BD14100240C7
:10529000FFCFFFFF000400480C0400481810024034
:1052A0000C000140FFF0FFFF0C0401400804014026
:1052B00000040140F8B58020800241490A68024399
:1052C0000A6040490A68104308603F4B18683F492C
:1052D0000140196018688021490001431960302598
:1052E000ED439024E40520682840206020682021B8
:1052F000014321603648016804229143016004277C
:1053000001683943016033490A682A400A600A6823
:10531000102616430E60304A166835401560156831
:1053200010262E4316601D682C4E2E401E601D68F0
:10533000802676012E431E60C023DB4325681D4076
:105340002560256880262E43266004680825AC4326
:105350000460082405682543056008681840086053
:1053600040200D6805430D6011680B401360116803
:10537000084310601A4D002028601A490860286808
:1053800028600868086018481849086068461C21A9
:105390000170032141700126310081706846FFF7DA
:1053A00027FB2868202101432960286804432C60DA
:1053B000286807432F60286806432E60F1BD00006F
:1053C000141002401C10024020000048FFF0FFFFB4
:1053D00004000048080000480C000048FF0FFFFFD1
:1053E0000044004004440040E20400000C4400403B
:1053F000637C777BF26B6FC53001672BFED7AB7692
:10540000CA82C97DFA5947F0ADD4A2AF9CA472C03C
:10541000B7FD9326363FF7CC34A5E5F171D83115A9
:1054200004C723C31896059A071280E2EB27B275CA
:1054300009832C1A1B6E5AA0523BD6B329E32F8442
:1054400053D100ED20FCB15B6ACBBE394A4C58CF3A
:10545000D0EFAAFB434D338545F9027F503C9FA80E
:1054600051A3408F929D38F5BCB6DA2110FFF3D2DC
:10547000CD0C13EC5F974417C4A77E3D645D197390
:1054800060814FDC222A908846EEB814DE5E0BDB8A
:10549000E0323A0A4906245CC2D3AC629195E479C1
:1054A000E7C8376D8DD54EA96C56F4EA657AAE081B
:1054B000BA78252E1CA6B4C6E8DD741F4BBD8B8AB6
:1054C000703EB5664803F60E613557B986C11D9E1C
:1054D000E1F8981169D98E949B1E87E9CE5528DF93
:1054E0008CA1890DBFE6426841992D0FB054BB16BF
:1054F00052096AD53036A538BF40A39E81F3D7FB49
:105500007CE339829B2FFF87348E4344C4DEE9CB92
:10551000547B9432A6C2233DEE4C950B42FAC34E07
:10552000082EA16628D924B2765BA2496D8BD125BD
:1055300072F8F66486689816D4A45CCC5D65B69261
:105540006C704850FDEDB9DA5E154657A78D9D8405
:1055500090D8AB008CBCD30AF7E45805B8B3450625
:10556000D02C1E8FCA3F0F02C1AFBD0301138A6B3F
:105570003A9111414F67DCEA97F2CFCEF0B4E6736F
:1055800096AC7422E7AD3585E2F937E81C75DF6E1D
:1055900047F11A711D29C5896FB7620EAA18BE1B83
:1055A000FC563E4BC6D279209ADBC0FE78CD5AF429
:1055B0001FDDA8338807C731B11210592780EC5F6F
:1055C00060517FA919B54A0D2DE57A9F93C99CEFCB
:1055D000A0E03B4DAE2AF5B0C8EBBB3C83539961CC
:1055E000172B047EBA77D626E169146355210C7D0A
:1055F000704700B5FEE77047704780B51E480168E8
:10560000C90302D50068FEF753FC01BD704770471F
:1056100070477047704738B54024184D28682040BF
:10562000002806D0FEF71AFAFEF78EFE286804431B
:105630002C6031BD10B50820114C216801400029B3
:1056400003D010490A68104308602068800605D519
:105650000D490E480088C0B2FCF7CDFF2068400617
:1056600008D50B480068000604D50A48FDF736F84F
:105670000949088010BD000010E000E0140401405A
:105680001C44004020440040700C00202444004092
:1056900000440040800C0020284400407047FEE792
:1056A0001448016801220A43026013490A68134B37
:1056B00013400B600268124B134003600268114BE9
:1056C000134003600868104A02400A600F480168EE
:1056D0000F22914301600E4801680E4A0A400260A1
:1056E0000D48016801229143016000200B490860C8
:1056F0007047000000100240041002400CB8FF0880
:10570000FFFFF6FEFFFFFBFFFFFFC0FF2C10024074
:1057100030100240ECFEFFFF34100240081002403F
:105720001842002701280229032A042B052C062DE4
:10573000072E082F09300A310B320C330D340E3589
:105740000F36103711381239133A143B153C163DF9
:10575000173E193F1A401B411C431D441E451F465E
:105760002047000070B40123002413E00168001DED
:10577000194202D04D466D1E49190C60091D121FB9
:10578000042AFAD20D00960701D50C80AD1C1A40F0
:1057900000D02C700268001D002AE7D170BC704751
:1057A00030B501684118446862088A188368E407C4
:1057B0000DD54C461B190AE00C7864B2491C0D78D3
:1057C000491C1D705B1C002C05D5641CF9D191424D
:1057D000F2D10C3030BD641EF1D5F8E710B50749A1
:1057E00079441831064C7C44163404E0081D0A68DC
:1057F000891888470100A142F8D110BD08000000B7
:105800002400000061FFFFFFE80A0000DC01002027
:10581000000000008DFFFFFFF700000026030000DE
:1058200000000020000001CC01D8001401F0003C71
:10583000002801E401A0006C007801B40050019C34
:105840000188004400F00DF8002801D0FFF7C6FFE2
:1058500000BF00BF002000BF00BFFFF711FC00F039
:1058600002F80120704780B500F002F801BDFEE7A4
:105870000746384600F002F8FBE7FEE780B500BFB8
:1058800000BF024A11001820ABBEFBE72600020051
:105890000000000000000000000000000008339934
:1058A000A4D9B2E8347FBEF714FA7432A357C6AD58
:1058B0000F0F0F0E0F0D0F0C0F0B0F0A0F020F0122
:1058C00000010002000300040005000600070000BC
:1058D0000148804701480047A1560008E1580008E8
:1058E00000BF00BF00BF00BFFFF7ACFF0201010314
:1058F0000E090D0BFFFFFF00FEE7FEE7FEE7FEE7E8
:10590000FEE7FEE7FEE7FEE7FEE7FEE7FEE7AA00AA
:1059100002FD00200702010001C9C3800611000238
:105920000052000511000103200711010300033B91
:105930000108110204FB00090D11100900320A00D0
:105940000A12FC002A07111103000198F30B11122F
:105950000700040108FFFF00011011120C080A01E2
:10596000FF3030000106A200DC021011120C1422DC
:10597000F5000D1011120C20000001068200DC025F
:105980000AFD00040D1112092CF7007E1011200CE5
:10599000000300070C350009C9C38000050511206C
:1059A000010C760C1120081801000803800020204B
:1059B0000D11200922005E05761A057202000B11F6
:1059C00020072C0012815E01CDA00511200135E2D7
:1059D00007112003381115150511200140280D115C
:1059E000200942A403D60300CC0180FF0511200149
:1059F0004C01051120014E4005112001510A1011E2
:105A0000210C00A28126AF3FEEC8C73EDBF20208A0
:105A10001011210C0C070315FC0F00A28126AF3FCB
:105A2000EE1011210C18C8C7DBF20208070315FCA1
:105A30000F000811220400087F003D0B112307000E
:105A40002C0E0B040C73031011300CF300150C1109
:105A5000400800400AAAAA369D20FE1011500C00F2
:105A600010020404F8FF041011500C0CF4FF041091
:105A700011500C18F4FF041011500C24F4FF041002
:105A800011500C30F4FF040A1150063CFAFFFD00DF
:105A900010040000200040030000F00000C80100D6
:025AA0002001E3
:04000005080058E1B6
:00000001FF
