:020000040800F2
:1000000078150020856B0008496600084B660008DB
:1000100000000000000000000000000000000000E0
:100020000000000000000000000000004F66000813
:100030000000000000000000516600085366000840
:100040001310000800000000471E000817310008C8
:100050009B3400086B6600086D6600086F66000838
:100060000000000051670008AB5A0008935B0008CD
:100070008B5D000853670008236B00080000000038
:100080002F6B00086966000800000000B56B0008CF
:1000900065660008B76B000867660008B96B000862
:1000A000BB6B0008BD6B0008BF6B00088D660008C5
:1000B000CF66000800000000F8B58EB004000D0007
:1000C0001498002802D000201499086002A80CC0DF
:1000D00002A803C89EA20CCA02400B4001D1002A0C
:1000E00013D00020994922002B0000F0A1FD0CD074
:1000F000954900F09DFD0BD102A803C808004100FE
:100100004915491C04D1000302D100208F4937E36F
:1001100068004015401C0DD08DA003C82040294028
:1001200001D1002806D002A803C848004015401C91
:1001300000D0F1E069004915491C04D1280302D020
:10014000200029001CE302A803C80800410049154B
:10015000491C04D1000302D002A803C810E3012601
:1001600002A803C848004015401C00D184E002A842
:1001700003C80B0002185B4104D1002A02D102A877
:1001800003C817E0AB4F5A0DBA1A352A05DB0B002E
:1001900000208021090619400CE0202A03DD203AC6
:1001A000D140914000E001D1002003E0002A01DDB0
:1001B000D04090406A4603C202A803C8002907DA6B
:1001C000002280231B06121A8B4104A80CC001E0F8
:1001D00004AA03C2684603C8002906DA0022802365
:1001E0001B06121A8B411000190004AA0CCA8B427C
:1001F00001D1824200D00026684603C80B000218D5
:100200005B4104D1002A02D1684603C817E0844F3D
:100210005A0DBA1A352A05DB0B0000208021090689
:1002200019400CE0202A03DD203AD140914000E043
:1002300001D1002003E0002A01DDD0409040002ED3
:100240001AD06A460CCA002B06DA002680273F0621
:10025000B61A9F4132003B00002906DA00268027AB
:100260003F06361A8F41300039008B4203D182425B
:1002700001D1002600E0012669004915491C08D17A
:10028000280306D1EC0F02A803C814D1C80F41D02F
:1002900033E002A803C8080041004915491C13D1E6
:1002A000000311D12AA6C0CE2F40802149038F42DE
:1002B00016D2002218E0C80F02D1002E2AD026E064
:1002C000002E1AD0002008E0002E19D1002402A828
:1002D00003C8C80F18D1002C14D0802109064FE2A2
:1002E0003E0D50A003C8821902A803C8C80F02D14E
:1002F000002A0FDC06E0002A0BDD002000213FE28F
:10030000EC0FE4E700213BE2002C02D0002047493B
:1003100036E20020464933E202A803C80B00021867
:100320005B4104D1002A02D102A803C821E0414E5A
:100330005A0DB61A352E0FDB002280231B060B4008
:1003400004A80CC017E000BF0000F0BF0000F03FA1
:10035000FFFFFFFFFFFFFF7F202E03DD203EF14068
:10036000B14000E001D1002003E0002E01DDF040AB
:10037000B04004AA03C2E80F1FD002A803C8002996
:1003800005DA002280231B06121A8B4101E00200CD
:100390000B0004A803C8002906DA002680273F06C0
:1003A000361A8F41300039008B4201D1824204D08D
:1003B00000BF00BFBEA003C8E2E120002900BCA42A
:1003C00030CC0D40002280235B039D4203D200927B
:1003D00000244D400CE02C0DB74A0023DB431219DA
:1003E00000921A46B14B02400B40AF4D14001D4322
:1003F000E80F4AD06D006D0804A80CC819009018C9
:10040000494101D1002824D0054E480D361A352E19
:1004100012DB80210906194000220B0019E000BF01
:100420003404000002FCFFFFFFFFFFFF0000F0FFAD
:100430000000F07F33040000202E03DD203EF34057
:10044000B34000E001D1002203E0002E01DDF240C4
:10045000B24004A803C8002905DA002680273F0619
:10046000361A8F4101E006000F00002B06DA00204B
:1004700080210906801A994102000B009F4203D196
:10048000964201D1002000E001200490009801284C
:100490002AD120002900D1A20CCA00F0DBFB23D214
:1004A00000200190D24906AA03C269004A0D511CDE
:1004B000002A12D0002910DDC24A914207DB100544
:1004C0002900802212061140014300240AE0774AE5
:1004D0002A4008051043050023E029008022120667
:1004E000114000240D001CE00020A64922002B0032
:1004F00000F0C9FB00226C4B00F087FC00F060FDAF
:100500002038019000F096FD00229F4B00F0BBFBCD
:100510000022654B00F079FC06AA03C20198400155
:1005200001902000290006AA0CCA00F0D1FC0600A8
:100530000F0006A803C822002B0000F066FC020092
:100540000B003000390000F07FFD08AA03C208A8A4
:100550000CC808A803C800F096FB06000F00200096
:10056000290006AA0CCA00F0B3FC0AAA03C287A09D
:1005700003C832003B0000F086FB86A20CCA00F0E4
:1005800044FC32003B0000F07EFB84A20CCA00F069
:100590003CFC32003B0000F076FB82A20CCA00F06B
:1005A00034FC32003B0000F06EFB80A20CCA00F06D
:1005B0002CFC32003B0000F066FB7EA20CCA00F06F
:1005C00024FC32003B0000F05EFB7CA20CCA00F071
:1005D0001CFC0CAA03C20020854906AA0CCA00F024
:1005E00077FC4B005C0D631C002C12D0002B10DD3F
:1005F000744CA34206DB230508008021090608404D
:1006000018430AE0294C0C401A0522430400150047
:1006100005E00800802109060840002405000CA818
:1006200003C832003B0000F02EFB0AAA0CCA00F0FF
:100630004FFC22002B0000F0E8FB08AA0CCA00F0D7
:1006400022FB02000B0000BF71A0019945180AA807
:1006500003C800F0DAFB06AA03C2009800F0EAFC27
:100660000CCD083D00F0D1FB06000F0006A80CC819
:1006700055A003C800F007FB32003B0000F0C5FBAB
:1006800002AA0CCA00F0FFFA0022514B00F0E2FA75
:1006900073D301224F4B00F038FD65D9CA0F0DD03E
:1006A00000224D4B0BE000BF0000E03FFFFF0F803A
:1006B000FFFFFFFFFFFFFF7F02FCFFFF494B00F042
:1006C000A4FB00F07DFC040002A803C832003B003C
:1006D00000F0D9FA06000F00200000F0ABFC020089
:1006E0000B003000390000F0F3FB3FA20CCA00F011
:1006F000CAFA0090019106A80CC802A803C800F02D
:10070000C2FA06000F002800083003C82A00103281
:100710000CCA00F07AFB02000B0002A803C800F02C
:10072000B2FA31A20CCA00F0AEFA32003B0000F07F
:100730006CFB009A019B00F068FB149A002A01D020
:100740001460002400940022294B00F0F7FC29A239
:100750000CCA02400B4001D1002A0ED04B005B15A1
:100760005B1C03D10A0301D100202449049A002A0A
:1007700006D080221206514002E000200021F5E759
:100780000FB0F0BD000050400000903FF7DE29BFE1
:10079000D8F8C23FF4B3FECC1A99C33F62CB68D9F4
:1007A0006F46C73FC6C912DAC471CC3F4AE98A9482
:1007B0002449D23FF75F97999999D93FBC55555530
:1007C0005555E53FFF070000FE822B654715F73FB3
:1007D0000000E0C00000E0400000E0BFCD3B7F66CD
:1007E0009EA0E63F0000E03FEF39FAFE422EE63FD2
:1007F0000000F03FFFFFFFFFFFFFFF7F0000F07FE3
:100800001CB500240094FFF757FC1CBD000000003D
:10081000000000000000F0BF0000000000000080A9
:100820000000000000000080000000000000000048
:10083000000000C05294EEBF00000048204E51BEA0
:10084000000000F86467BCBC00000000000000006D
:10085000000000208133EDBF00000080B3DB14BE38
:10086000000000506706A3BC00000000000000006C
:10087000000000D0E9DCEBBF00000008C39259BEC5
:1008800000000080B0D3B8BC0000000000000000F1
:1008900000000070F98FEABF000000C0A51028BE5C
:1008A000000000E8BFC0B0BC000000000000000075
:1008B00000000070284CE9BF00000060134B42BEEE
:1008C000000000C03D20B8BC000000000000000097
:1008D00000000050FA10E8BF000000C05FF62BBE19
:1008E000000000905C71A7BC000000000000000048
:1008F00000000020FCDDE6BF000000C0F8F154BE9F
:1009000000000018E9F6B9BC00000000000000007B
:10091000000000D0C3B2E5BF00000070E43254BE56
:1009200000000050DB06B4BC000000000000000026
:1009300000000010EF8EE4BF00000020F36252BE02
:10094000000000C02A879ABC0000000000000000E0
:10095000000000B02272E3BF000000F0E8E056BEE5
:1009600000000028352DBDBC000000000000000084
:10097000000000000A5CE2BF000000B0FA8E41BE39
:1009800000000040AE6FBDBC000000000000000091
:1009900000000000564CE1BF000000F015CD5FBE26
:1009A00000000000141C90BC0000000000000000CB
:1009B00000000040BD42E0BF00000030F93457BEE7
:1009C000000000E06C1E93BC00000000000000006E
:1009D000000000E0F57DDEBF000000B08A535EBE7F
:1009E00000000080DA77AABC0000000000000000D0
:1009F000000000C09D81DCBF00000000FFA226BEF9
:100A00000000006057E2B0BC0000000000000000E1
:100A100000000060F98FDABF000000580A8151BE63
:100A2000000000F05F60B8BC0000000000000000A3
:100A30000000000098A8D8BF000000607A7F45BE83
:100A4000000000D05433A3BC0000000000000000F0
:100A5000000000600FCBD6BF000000D091CB40BE9D
:100A6000000000406D1BA0BC000000000000000062
:100A7000000000A0FBF6D4BF00000098C5CE52BE17
:100A8000000000003A397EBC0000000000000000B9
:100A9000000000E0FE2BD3BF0000004073872BBE98
:100AA00000000000926879BC000000000000000017
:100AB00000000040C069D1BF00000058F16353BE80
:100AC00000000080438D7CBC00000000000000009E
:100AD00000000080D85FCFBF000000181F8354BE05
:100AE000000000B03F42A2BC000000000000000077
:100AF0000000008067FCCBBF00000060FAFF53BE1F
:100B000000000050E00DB8BC000000000000000034
:100B10000000000098A8C8BF000000607A7F35BEC2
:100B2000000000C0543393BC00000000000000002F
:100B300000000000DC63C5BF00000058D6FF54BEB3
:100B400000000000396490BC0000000000000000BC
:100B5000000000C0AD2DC2BF00000080A45915BE2A
:100B6000000000E0484BABBC0000000000000000AB
:100B7000000000801A0BBEBF00000050BF3C5ABEF0
:100B8000000000A0B364B6BC00000000000000003C
:100B90000000008004D6B7BF00000040BBCF36BEC7
:100BA0000000008076CEA8BC00000000000000001D
:100BB0000000008032BBB1BF000000402A0043BEED
:100BC00000000028C60CBDBC0000000000000000B2
:100BD000000000009473A7BF000000182B3B59BE13
:100BE000000000C0E55DA5BC0000000000000000A2
:100BF00000000000EE4397BF000000A0E6C340BE27
:100C000000000020958DB5BC000000000000000031
:100C100000000000000000800000000000000080D4
:100C20000000000000000080000000000000000044
:100C300090420ED1A4460C001C430128644107D009
:100C4000994205D14C006415641C644000D30C0328
:100C50006446704730B4012464054D00EC420BD863
:100C60005D00EC4208D80C001C43640004431443AC
:100C700004D2994200D1904230BC7047FCD08B42E4
:100C8000FAD18242F8E7F0B50E005E400125ED078B
:100C90002E40B446AE0ADF184C18F44208D2F74290
:100CA0000ED2640D01D07F0D12D100206146F0BD3F
:100CB00005D1F74201D87F0D05D10020C143F0BD19
:100CC000FBD1640DF9D00020C143490549088FE0EC
:100CD000E419C902DB0229432B43DB0A460DC0029B
:100CE00031438E4630B487B295B27D432E0CADB2FF
:100CF000140C7C43A419260C240425439CB27C4389
:100D0000A419190C7943270CC919A4B20F043C4348
:100D1000090C000C97B247432E0CBE193543ADB2F7
:100D2000170C4743360CBF19A6B2BF193E04354312
:100D3000240C3E0C36199FB24743BF19BCB23E0C7F
:100D400089191F0C47437F183E043443390C704601
:100D500080B297B247432E0CBE193543ADB2170C83
:100D60004743360CBF19A6B2BF193E043543240CC5
:100D70003E0C36199FB24743BF19BCB23E0C8919CD
:100D80001F0C47437F183E043443390C77463F0C11
:100D900090B278432E0C80190604ADB22E43050C98
:100DA000A0B22D18120C7A435019020C80B2240CF8
:100DB000A4189AB27A43121914042043120C891809
:100DC0001B0C7B43C91830BCEF0A394203D1B6195A
:100DD00040414941641E6F12BF0DE41B0BDBFF193C
:100DE000BC4211DA240500274208AE417841614136
:100DF00066463143F0BD641C05D1401C6141CF0201
:100E000001D34908F4E750E75DE7F0B40125ED07A9
:100E10000F005F404FD48B4200D1824205D98446F7
:100E2000100062468C4619006346DF184C18640DAA
:100E30007F0D3AD0661C760537D0E61B352E34DCA4
:100E4000DB022B43DB0A0C0DC9022943C912202EF9
:100E50000DDB1700203E06D01F00F741F3405F4036
:100E60000026012A7741C01871410DD217E0170002
:100E7000F741F2405740F3415A40B340F3405A40E3
:100E80000026801859410AD3A21C52050FD0C20770
:100E9000012F724117004008CB0718434908641C12
:100EA00024054208AF4170416141F0BC7047641CA9
:100EB00021050020F9E76B4010E06B40ABE7F742FB
:100EC000F3D1E943F1E72442EFD100200021ECE720
:100ED000F0B40125ED070F005F40EED40C00871A37
:100EE0009C4105D2C01BA141D219634169406B40AE
:100EF000AE0ADF184C18F442E1D2640D7F0DE2D047
:100F0000E61B362ED1DCDB022B43DB0AA4460C0D9C
:100F1000C9022943C90A012E28DC04D1D607520888
:100F2000DF073A435B08EF0A76429041994114D0BB
:100F300039423BD1B61940414941761C394204D16E
:100F4000761C001849413942FAD0B9436746B74286
:100F500008D9A41B24052143A7E70042EAD1364261
:100F6000E8D1A2E7E40AE10700209EE7202E0BDD8E
:100F7000203E1F00F340F7415F40012A0022574105
:100F80007E42984191410BE01700F741F2405740F3
:100F9000F3415A40B340F3405A407E429041994158
:100FA0000A0303D2641EB619404149410027641E5A
:100FB00024054208AE4178416141F0BC7047ABCD99
:100FC000F4464A1805D200F00FF801D58017400802
:100FD000604700F009F80121C907884200D90800DC
:100FE000404260474A1812D2400DC902084301210D
:100FF000C9070843520D40210901521A521C06D458
:1010000052421F3201D4D0407047C01770470020B1
:101010007047FEE7010042221201D21E004207D0B3
:1010200002D4521E0018FCD5C10A400512058918C9
:10103000704700000100EED54042F446FFF7EBFF99
:101040000122D20711436047F0B40E005E40012533
:10105000ED072E40B446AE0ADF184C18F4423BD2DE
:10106000F74241D2640D43D07F0D38D0E41BC90252
:10107000DB0229432B43CF0ADB0A0600B61A9F4145
:1010800004D2641EB6197F41B6185F416812800D04
:1010900024180018844222DAE80C0021B6197F4196
:1010A000B61A9F4102D2B6185F413F1C40414941E8
:1010B000F4D3241C21DD2405B6197F41B61A9F41C3
:1010C00005D33743C60737430026012F70416141DE
:1010D00066463143F0BC7047FCD1F74205D2002090
:1010E000C14349054908F3E704D00020C143F1E7B3
:1010F0007F0DFAD000206146ECE72442FAD1401C73
:1011000061410F03F6D30020E2E730B40124640507
:101110004D00EC420BD85D00EC4208D80C001C439B
:1011200064000443144304D28B4200D1824230BC99
:101130007047FCD09942FAD19042F8E7F0B585B0FB
:1011400006000F0014001D0078004015401C1DD043
:101150008DA003C83040394001D1002816D0680066
:101160004015401C12D088A003C82040294001D15E
:1011700000280BD03000390000297BDA00228023C0
:101180001B06121A8B4168460CC075E079004915A0
:10119000491C02D1380300D079E169004915491C86
:1011A00001D1280340D178A003C82040294008D1AC
:1011B000002806D179004915491C35D1380333D1AF
:1011C0000BE069004915491C0CD128030AD17900AC
:1011D0004915491C28D1380326D100BF00BF6AA099
:1011E00003C856E168A003C8304039401FD1002829
:1011F0001DD169004A0D0A995118002A22D12900EF
:1012000080221206114000240D005FA003C8204078
:10121000294001D1002805D069004915491C03D196
:10122000280301D100BF00BF2000290031E179006F
:101230004915491C18D1380316D130003900FFF781
:1012400022FD26E10029DADDA94A914206DB1005DC
:1012500029008022120611400143D4E7A54A2A4002
:10126000080510430500D0E700202A008021090668
:101270000A403CE06A4603C20022894B002B04DA94
:1012800080210906901A99410B00684603C89942CB
:10129000104604DA2A00802109060A4027E0814925
:1012A000002906DA80231B06121A8B4168460CC0FF
:1012B00001E06A4603C232003B00002B06DA002040
:1012C00080210906801A994102000B00684603C874
:1012D00099420EDC01DB90420BD200BF00BF724985
:1012E00008002A00802109060A400243002011005C
:1012F000CFE06EA003C832003B00FFF7C4FC02AA97
:1013000003C27949080002A90CC900920193430065
:101310005B0802A803C80A008020000602401A43A6
:1013200000201100009A019BFFF76FFDFFF748FEB8
:101330000490FFF77FFE02AA03C202A80CC85DA0BA
:1013400003C8FFF7A0FC02000B0030003900FFF7D4
:10135000BFFD06000F0002A80CC858A003C8FFF785
:1013600092FC02000B0030003900FFF7B1FD0600CF
:101370000F00790049080022524BFFF76BFC07D29F
:101380002000290053E000BFFFFFFFFFFFFFFF7FAA
:1013900032003B003900FFF776FC6A4603C268461C
:1013A0000CC849A003C8FFF76EFC49A20CCAFFF79E
:1013B0002CFD6A460CCAFFF766FC02AA03C2684607
:1013C0000CC845A003C8FFF75EFC45A20CCAFFF796
:1013D0001CFD6A460CCAFFF756FC0022424BFFF781
:1013E00014FD32003B00FFF74EFC06000F0002A880
:1013F00003C832003B00FFF708FD00223B4BFFF71C
:1014000004FD0090019102A803C832003B00FFF7E1
:101410005FFD0022354BFFF7F8FC02000B0000983F
:101420000199FFF711FE22002B00FFF72CFC4B0067
:101430005C0D049BE3180A9D5B19002C12D0002B55
:1014400010DD2B4CA34206DB230508008021090692
:10145000084018430AE0274C0C401A0522430600B6
:10146000170005E008008021090608400026070053
:1014700009A003C83040394001D1002805D07900C7
:101480004915491C03D1380301D100BF00BF30000A
:10149000390005B0F0BD00BFFFFFFFFFFFFFFF7F7A
:1014A00000C89CC000C89C400000F07FFE822B65F5
:1014B0004715F73F000000F8422EE63FF2E4D5BCA6
:1014C000E7E84B3E0000903C112E5781A03F503F73
:1014D0005843128C8F71BC3F4BE8A541B752013F76
:1014E0000BBDF3DAE8708C3F0000E03F0000F03FF6
:1014F000FF070000FFFF0F8010B502000023180057
:101500001C001C000EE0CC0700D550408024144085
:101510005200E4B2002C02D014001B226240C9B277
:1015200049085B1C1C00E4B2082CECDBC0B210BD07
:1015300010B403780C785C40147043784C785C40AD
:10154000547083788C785C409470C078C97841403E
:10155000D17010BC7047F4B507000E0031783878B0
:10156000FFF7CAFF04007178F878FFF7C5FF0500A0
:10157000B178B878FFF7C0FF0100654069400C0002
:10158000F1787878FFF7B8FF21004840009908709B
:1015900031787878FFF7B0FF040071783878FFF77A
:1015A000ABFF0500B178F878FFF7A6FF01006540B2
:1015B00069400C00F178B878FFF79EFF21004840A1
:1015C000009948703178B878FFF796FF0400717879
:1015D0007878FFF791FF0500B1783878FFF78CFF36
:1015E0000100654069400C00F178F878FFF784FF4E
:1015F00021004840009988703178F878FFF77CFF27
:1016000004007178B878FFF777FF0500B178787833
:10161000FFF772FF0100654069400C00F1783878EF
:10162000FFF76AFF210048400099C870F1BD38B546
:101630000100C9B2012903D10120C349087013E098
:101640000100C9B202290FDBBF4C02212170451EE7
:1016500005E002212078FFF74FFF20706D1E280063
:10166000C0B2401E0128F4DAB74832BDF0B50023FD
:101670004DE01C00E4B2045D1500EDB21026754388
:101680001E00F6B204277E43AD194D5D65401C0077
:10169000E4B205551C00E4B2041924791500EDB23A
:1016A000102675431E00F6B204277E43AD194D196E
:1016B0006D7865401C00E4B2041925711C00E4B289
:1016C0000419247A1500EDB2102675431E00F6B2F7
:1016D00004277E43AD194D19AD7865401C00E4B276
:1016E000041925721C00E4B20419247B1500EDB224
:1016F000102675431E00F6B204277E43AD194D191E
:10170000ED7865401C00E4B2041925735B1C1C00D5
:10171000E4B2042CADDBF0BD7FB5050002A8B449EE
:101720000A6802600026340011E00100C9B20422F8
:1017300051432200D2B289186A460300DBB2D25C60
:101740006A54401C0100C9B20429EEDB641C20006D
:10175000C0B2042819DA30000CE00100C9B204223A
:1017600051432200D2B28918695C01AA0300DBB29E
:10177000D154401C0100C9B20429EEDB6A4601A91C
:1017800002A8FFF7E8FE3000DCE77FBD7FB505006B
:1017900002A898490A6802600026340011E001009E
:1017A000C9B2042251432200D2B289186A4603000A
:1017B000DBB2D25C6A54401C0100C9B20429EEDBE2
:1017C000641C2000C0B2042819DA30000CE00100CB
:1017D000C9B2042251432200D2B28918695C01AA1D
:1017E0000300DBB2D154401C0100C9B20429EEDB76
:1017F0006A4601A902A8FFF7AEFE3000DCE77FBD14
:10180000F0B5012100E0491C0A00D2B2042A2CDA0A
:1018100000221DE00D00EDB2042675431E00F6B255
:10182000AD1945196D1E0E00F6B204277E431F0048
:10183000FFB2F619865D2E705B1C1D00EDB2042D03
:10184000E8DB0B00DBB204256B43C318DC70521CD1
:1018500013000C00DBB2E4B2A342D4D20B00DBB223
:1018600004246343C45C0123E7E7F0BDF0B5012124
:1018700000E0491C0A00D2B2042A2CDA00221CE043
:101880000D00EDB2042675431E00F6B2AD190E0030
:10189000F6B204277E431F00FFB2F6198619761EA2
:1018A000367846555B1E1D00EDB2002DE8D10B00C9
:1018B000DBB204256B43C454521C13000C00DBB292
:1018C000E4B2A342D5D20B00DBB204246343C318B5
:1018D000DC780323E7E7F0BDF0B500210A002BE038
:1018E0001400E4B204256C431D00EDB26419045DDC
:1018F0002600F6B236091400E4B204256C431D003C
:10190000EDB26419045D2407240F1500EDB204271D
:101910007D431F00FFB2EF19374DAC46F6B21025DC
:101920006E43E4B2341965462C5DC4555B1C1C0043
:10193000E4B2042CD4DB521C1300DBB2042B01DA1A
:101940000B00F4E7F0BD000000000020F0B500211E
:101950000A002BE01400E4B204256C431D00EDB234
:101960006419045D2600F6B236091400E4B20425B9
:101970006C431D00EDB26419045D2407240F1500AB
:10198000EDB204277D431F00FFB2EF191B4DAC469B
:10199000F6B210256E43E4B2341965462C5DC45589
:1019A0005B1C1C00E4B2042CD4DB521C1300DBB221
:1019B000042B01DA0B00F4E7F0BD10B5002111E0B3
:1019C0000D4A0B00DBB2C35C1B11102463430C00F7
:1019D000E4B2045D2407240F1B19D25C0B00DBB2B8
:1019E000C254491C0A00D2B2042AE9DB10BD00002F
:1019F000A06B0008A46B0008546700085468000836
:101A000010B50178002207E01300DBB2C3185B7841
:101A10001400E4B20355521C1300DBB2032BF3DBBA
:101A2000C17010BDFEB50E002C216A461170002158
:101A30002EE00A00D2B204235A43825C0B00DBB2D0
:101A400004246343F2540A00D2B204235A43821896
:101A500052780B00DBB204246343F3185A700A0077
:101A6000D2B204235A43821892780B00DBB20424CA
:101A70006343F3189A700A00D2B204235A438218BF
:101A8000D2780B00DBB204246343F318DA70491CEC
:101A90000A00D2B2042ACCDB04273C0077E03AE00B
:101AA00001AD2000C0B2042148433018001F007867
:101AB00028702000C0B2042148433018C01E0078AE
:101AC00068702000C0B2042148433018801E00789E
:101AD000A8702000C0B2042148433018401E00788E
:101AE000E8702000C0B2390000F052F90029D6D1C8
:101AF00001A8FFF785FF01A8FFF75FFF2000C0B234
:101B0000390000F045F9C0B2FFF791FD01AA0100CC
:101B100001A8FFF70DFD2000C0B204214843301892
:101B200010380078297841402000C0B20422504388
:101B300031542000C0B20421484330180F380178D6
:101B4000687848402100C9B2042251437118487096
:101B50002000C0B20421484330180E380178A8781C
:101B600048402100C9B204225143711888702000F6
:101B7000C0B20421484330180D380078E97841405C
:101B80002000C0B2042250433018C170641C2000F1
:101B900069460978C0B2884282D3F7BDF1B586B0F4
:101BA0000D00002630001DE002AC0300DBB204276C
:101BB0007B430F00FFB2DF1900970194069F0300DB
:101BC000DBB29C460C00E4B204235C4363461B1961
:101BD000FB5C019C009FE355491C0B00DBB2042B0E
:101BE000E2DB401C0100C9B2042901DA3100F4E74C
:101BF00017000022390002A8FFF738FD01240FE08A
:101C000002A8FFF769FE02A8FFF7FAFD02A8FFF796
:101C100083FD2200D2B2390002A8FFF727FD641C21
:101C20002000C0B20A28EBDB02A8FFF755FE02A88D
:101C3000FFF7E6FD0A22390002A8FFF717FD300082
:101C400016E00200D2B20B00DBB204246343D218C8
:101C500002AB0400E4B204277C430F00FFB2E41996
:101C60001B5DAB54491C0A00D2B2042AE9DB401CBC
:101C70000100C9B2042901DA3100F4E707B0F0BD70
:101C8000F1B586B00D00002630001DE002AC030067
:101C9000DBB204277B430F00FFB2DF1900970194EA
:101CA000069F0300DBB29C460C00E4B204235C43B5
:101CB00063461B19FB5C019C009FE355491C0B000C
:101CC000DBB2042BE2DB401C0100C9B2042901DABB
:101CD0003100F4E717000A22390002A8FFF7C6FC1A
:101CE00009240FE002A8FFF7C1FD02A8FFF72EFEAE
:101CF0002200D2B2390002A8FFF7B8FC02A8FFF711
:101D000045FD641E2000C0B20028EBD102A8FFF7F9
:101D1000ADFD02A8FFF71AFE0022390002A8FFF766
:101D2000A5FC300016E00200D2B20B00DBB20424A6
:101D30006343D21802AB0400E4B204277C430F00D3
:101D4000FFB2E4191B5DAB54491C0A00D2B2042A4D
:101D5000E9DB401C0100C9B2042901DA3100F4E7D3
:101D600007B0F0BDF446002804D4494200F013F84F
:101D7000404260474042002905D45FD000F00BF894
:101D8000404249426047494200F005F849426047F5
:101D900003460B43E6D40022030A8B420BD203090D
:101DA0008B4219D243088B422ED2411A00D20146EF
:101DB000524110467047FF2209023FD012068B4263
:101DC00005D3121209028B4201D312120902030930
:101DD0008B4219D300E0090AC3098B4201D3CB011E
:101DE000C01A524183098B4201D38B01C01A524160
:101DF00043098B4201D34B01C01A524103098B4264
:101E000001D30B01C01A5241C3088B4201D3CB004E
:101E1000C01A524183088B4201D38B00C01A524131
:101E200043088B4201D34B00C01A5241884200D371
:101E3000401A5241CFD201461046704708B500F013
:101E400001F808BD7047FEE70E4870470E4800785D
:101E500070470D49087070470A4800787047094973
:101E60000870704709480078704700B5C0B2002874
:101E700003D001200549087002E0002003490870E2
:101E800000BD0000B00C00205E0D00205F0D0020A2
:101E900010B504000020C9B2002903D00F2000F0C3
:101EA00007FC02E00F2000F021FC0100C9B200296C
:101EB00006D1012009E0C0B240082178491C2170F8
:101EC0000100C9B2C907F6D5002010BD2230017843
:101ED000FE220A4002700178FD220A400270017859
:101EE000FB220A4002700178F7220A4002700020AB
:101EF000704710B504000A0000231178200000F09C
:101F000085FE002801D001200FE0200000F022FA19
:101F1000002801D0012008E000F086FB0400FFF754
:101F200093FFE11C00F0C3F9002010BDF3B581B0B0
:101F300000273E0038001CE038000DE03C00042281
:101F40000299280000F068FF002811D1E87900F01C
:101F50006DFB0028F0D001202100C9B2C0B281423F
:101F600006D0FFF771FF4178EA790A4342706C713D
:101F7000761C3000C0B200280ED1FFF765FF31009B
:101F8000C9B2082251434018851C68460079A979D6
:101F90000842D3D00124D2E7F7BDF7B506000C0004
:101FA000002528006946087001216846FFF770FF88
:101FB000002801D0012032E027006846007808217F
:101FC00048433018841C387820717878694609783D
:101FD00008225143711808720F2000F069FB69460E
:101FE000097808225143711848720F2000F060FBF5
:101FF000717808437070B878002801D00125FFE798
:10200000029965710422200000F01AFF00F00CFB19
:102010000400FFF719FFE11C00F049F90020FEBDA4
:1020200070B504000D0028002230297800290AD05C
:1020300001294CD0022963D0032900D189E0072966
:1020400000D190E0CCE021790A00D2B28123134084
:10205000812B0CD102780823134303700278FD23EF
:10206000134003700278FB231340037003E00278EF
:10207000F723134003700A00D2B2120704D5027886
:1020800001231343037003E00278FE23134003701F
:1020900001220378DBB2DB081340DBB2002B13D143
:1020A000C9B2C90608D5017804230B43037001782F
:1020B000FD230B40037007E00178FB230B40037006
:1020C000017802230B4303702A70012070BD007851
:1020D0000921014000290FD000F0C4FE0222611D39
:1020E000113000F099FE002803D02800FFF7EEFE23
:1020F000ECE702202870E8E72800FFF7E7FEE5E7B5
:102100000078C0B240080100C907C90F00291DD1DD
:1021100000F0AAFE00280CD000F0A2FE0422011D4F
:10212000E01D00F079FE002810D02800FFF7CEFE59
:10213000CCE700F095FE0422011DE01D00F06CFECE
:10214000002803D02800FFF7C1FEBFE70320287056
:10215000BBE7042221000B317D4C200000F070FE13
:1021600007202870B1E701210278D2B252080A4054
:10217000D2B2002A10D0607CA87104227449AE1C2F
:10218000300000F05DFEA07C28720F2000F090FA75
:1021900068720920287022E00278D2B292080A40C0
:1021A000D2B2002A0ED06A4A210011312800FFF76E
:1021B000F4FE002803D02800FFF788FE86E70A20F7
:1021C00028700CE00078C0B2C0080140C9B20029F4
:1021D00005D05F49A07CFFF7A9FE0A20287074E7AC
:1021E0002800FFF773FE71E77CB50F2000F060FA5E
:1021F0000600F02000F05CFA04003000C0B20028B5
:1022000037D0C94D2888401C28802888C749884273
:1022100012D228780521014001291FD1F6B2012EE2
:1022200005D1C348016802224A40026016E00F212E
:10223000062000F046FA11E028780007000F012878
:102240000CD1F6B2012E05D1B948016802224A40EC
:10225000026003E00F21062000F033FA2888B54918
:10226000884209DB002028800F21062000F029FA8F
:1022700002E00020AC490880E4B2002C16D0684689
:1022800000210160FF21062000F01BFADC49042236
:10229000684600F0C1FD002808D10020FFF7D9FDF5
:1022A00000F0DEFD0021817200F0EEFD73BD7FB510
:1022B00004000D00667868460C2100F013FF300022
:1022C000C0B2002843D0F00728D5A11C48790028C7
:1022D00007D080200002CB4A1060287806432E7079
:1022E00006E080200002C84A10602878B0432870B9
:1022F00008226846461C300000F0A2FD2878010044
:10230000C907C90F68460170D025AD01280000F04B
:1023100003FF05226946280000F041FFFFF796FD04
:1023200000280BD000F09CFD807A992809D000F09D
:1023300097FD9921817200F0A7FD02E00120FFF7CF
:1023400088FD002060700F21062000F0BAF97FBDE3
:10235000480D002038B505000321280001F05CF885
:10236000012805D10521280001F056F880280BD05E
:102370000321280001F050F8002812D1052128007F
:1023800001F04AF800280CD1280001F05DF80400A3
:10239000280001F063F821000078FFF7C7FD002056
:1023A00000E0012032BDF8B501F084F805000026F8
:1023B00030000F2000F07CF9002844D002242100D6
:1023C00098222F00380000F07DFE8820287100F050
:1023D0004BFD002809D000F045FD2200010011311D
:1023E0006C1D200000F02CFD05E0210032006C1D6A
:1023F000200000F067FE042421003200EF1D3800A9
:1024000000F060FE00F02CFD2200011D2C000B34BA
:10241000200000F015FD0F20E8732E7400F022FD5F
:10242000C07C68740F2000F043F9A87413212800C1
:1024300001F0EDF9040001F0FFFB2300DBB22A00FC
:102440000A2101F079FCF1BDFEB501F033F8050079
:102450000F2000F02DF969464870002630006946CB
:10246000087030006648029001216846FFF710FDB1
:10247000002858D10224210098273A00019501989C
:1024800000F020FE01982F7100F0EEFC002809D02A
:1024900000F0E8FC2200010011316C1D200000F06A
:1024A000CFFC05E0210032006C1D200000F00AFE88
:1024B00004242200029869460978082359434118E8
:1024C000EF1D380000F0BCFC00F0CAFC2200011D2A
:1024D0002C000B34200000F0B3FC0F20E8732E74A6
:1024E00000F0C0FCC07C687468464078A8746846F8
:1024F000407800F09BF8E8741421280001F087F977
:1025000004000120FFF7A5FC0F21062000F0D9F8F8
:1025100001F092FB2300DBB22A000A2101F00CFC3F
:10252000322001F081FDF7BD500D00207202000045
:1025300014000048A70E0000FEB506000C001500B0
:102540000027380038006946087000216846FFF708
:102550009FFC00283DD16846457025000196022465
:10256000210098222E00300000F0ACFD812028715F
:1025700021003A006C1D200000F0A4FD042422007C
:102580000199EE1D300000F05BFC00F069FC2200B8
:10259000011D2C000B34200000F052FC0F20E873CA
:1025A0002F7400F05FFCC07C687468464078A874A3
:1025B0001321280001F02BF9060001F03FFB040075
:1025C00001F03AFB3300DBB22A002100C9B201F06E
:1025D000B3FBF7BD38B505000C00FFF737FC00284A
:1025E0000DD02000C0B200F059FC08214843074933
:1025F0000818811C08226C1C200000F021FC31BD51
:10260000B20C00201804004828040048B00C002038
:102610008149C0B202225043081870477F49C0B2B6
:1026200002225043081870477D48704710B50400D7
:10263000FFF7FAFFC07804402000C0B210BD10B50B
:102640000C00C0B2022804D015D304280DD006D344
:1026500011E0FFF7E9FFC1784C40C4700BE0FFF7D1
:10266000E3FFC1780C43C47005E0FFF7DDFFC178DC
:10267000A143C170FFE710BD10B50400FFF7D4FF00
:10268000007804402000C0B210BD10B50C00C0B2EC
:10269000002802D0012804D009E0FFF7C5FF04702C
:1026A00005E0FFF7C1FF0178A1430170FFE710BD0E
:1026B00010B50400FFF7B8FF807804402000C0B2D6
:1026C00010BD10B50C00C0B2052802D0062806D0F7
:1026D0000BE0FFF7A9FF81780C43847005E0FFF75A
:1026E000A3FF8178A1438170FFE710BD10B50400FE
:1026F000FFF79AFF407804402000C0B210BD10B52B
:102700000C00C0B2072802D0082806D00BE0FFF763
:102710008BFF41780C43447005E0FFF785FF41785B
:10272000A1434170FFE710BD38B5012420003D48AA
:10273000006880210840C0090100C9B2002927D0E3
:10274000394902000B78D2B29A420ED0374A138828
:102750005B1C13801388152B05D300231C001480E9
:10276000CA4A13700870002032BD0120FFF7A0FF95
:10277000002809D0C6480188491C01800088C54945
:10278000884201D3C4480470002028490880EAE741
:10279000254902000B78D2B29A420BD0234A138803
:1027A0005B1C13801388152BDDD300231380087066
:1027B0000120D9E7B54908780028D4D11B48028800
:1027C000521C02800288B34B9A42CCD30C70C2498F
:1027D000018000242000AE4908800120FFF768FF37
:1027E000002817D0AC480178002905D004701021CA
:1027F0000520FFF766FF0BE0FFF726FB851C08218D
:102800002200280000F05EFC10210520FFF759FF90
:102810000320A9E70220A7E7646B0008746B000897
:10282000400D002010000048D8010020520D00206B
:10283000F0B585B005000C00280000F00FFE007810
:1028400007073F0F6846142100F04CFCFFB23E0022
:10285000F607F60F0120FFF7E9FE864203D01021AC
:102860000720FFF74CFF2600280000F0EDFD0100D7
:10287000300000F033FD00220021300000F035FD73
:1028800002220121300000F030FD280000F0F8FDA8
:10289000112422006D460100280000F0D1FA002327
:1028A00000220021300000F054FD0500220069469E
:1028B0002800C0B23418E41E200000F0C1FA012242
:1028C0000A212800C0B2301800F083FD2C18012224
:1028D0000B212000C0B2301800F07BFD241801222B
:1028E0000C212000C0B2301800F073FD2018C11F69
:1028F000C9B2300000F02BFD05B0F0BD38B50500C1
:102900000C00280000F0AAFD0078000605D4210084
:102910002800FFF78DFF012000E0002032BD7FB5C9
:10292000040001A8002202600020050002AA002382
:1029300013608A7952073CD588710120FFF776FE33
:10294000002805D0684600790121014368460171DD
:102950000420FFF763FE022201A94D1C010028009C
:1029600000F06EFA00F09AFD411C200000F0B6FC69
:1029700002220121200000F0B8FC002201212000E9
:1029800000F0B3FC0123032201A9200000F0E1FCC8
:102990000A380100C9B2200000F0D9FC200000F084
:1029A00075FC0400FF210820FFF7A9FE2000C0B23B
:1029B0003BE08A79520637D502006B461A7088715F
:1029C00000216846FFF764FA002801D001202CE0BE
:1029D000FFF73AFA69460978082251434018861CE5
:1029E000042202A9300000F017FA002805D1FF21C7
:1029F0000820FFF784FE012017E00120FFF776FE94
:102A0000002807D00120FFF711FE002802D028007F
:102A1000012505432A00D2B221003000FFF78CFDCA
:102A2000FF210820FFF76BFE002004B070BD3EB50B
:102A3000040000202000C0B2012826D1FFF774FE58
:102A400005002800C0B2022806D12100C9B2052025
:102A5000FFF737FEFFF7A7FCEDB2012D14D101A857
:102A60001E490A68026068461D490A68026001F052
:102A700007FB811D684601F014FB01F001FB0322F6
:102A800001A9801D01F0A5FB37BDFDE7620D002007
:102A9000540D002072020000630D002080B5817982
:102AA000490705D44079002802D10120FFF7BFFF74
:102AB00001BD00B5C0B201280CD1C9B2002904D0B3
:102AC000802000020749086003E0802000020649D8
:102AD0000860FFE700BD000071020000AC6B000859
:102AE000B06B000818040048280400487FB50600B1
:102AF0000C0068460C2100F0F5FA2000C0B2FFF788
:102B0000F5FD00280BD12000C0B200F0C7F910215C
:102B100081400800C0B2FFF7E9FD002843D0200043
:102B2000C0B200F0BBF90100102528008840C0B2F7
:102B3000FFF7DCFD002805D000F096F9002801D051
:102B4000012030712100C9B20220FFF778FD20007A
:102B5000C0B2FFF76BFD694608702100C9B2684634
:102B6000FFF738FD2000C0B200F098F98540290039
:102B7000C9B20820FFF7C3FD012070712000C0B268
:102B8000012810D1684601782000C0B2FFF791FFFC
:102B9000D024A401200000F0BFFA052269462000DD
:102BA00000F0FDFAFFE77FBD80B58179490702D4C7
:102BB0000121FFF79BFF01BD10B5040060790028DB
:102BC00007D06079401C607160790D2801DB00201E
:102BD0006071207900280FD02079401C2071207965
:102BE0007E2809DB0020207100F03EF9002803D088
:102BF000A07904210143A17110BD10B5040020008B
:102C0000FFF74CFF2000FFF7CFFF10BDF7B5050021
:102C10001F00280000F014FC694608701024684664
:102C200000782100FFF7B4F806006846007821001C
:102C3000FFF7AEF868460170002423E0724A2000D6
:102C4000C0B2102148432818C11D2000C0B2102373
:102C500058432818C01DFFF713F812E03800C0B21F
:102C60000028EBD0684A2000C0B210214843281841
:102C7000C11D2000C0B2102358432818C01DFEF704
:102C80008DFF641C20003100C0B2C9B28842E5D378
:102C90006846047968460078002841D0FFB2002FCA
:102CA0002BD0002001000DE03200D2B210235A4395
:102CB0006B461B78D2180B00DBB2D218AA1803009F
:102CC000D371491C0B00DBB210226F463F78D21B38
:102CD0009342E9DB4C4A3000C0B210214843281827
:102CE000C11DF6B210204643A819C01DFEF756FFBD
:102CF000103468460078241A12E0434A3000C0B20B
:102D0000102148432818C11DF6B210204643A819C7
:102D1000C01DFEF7B5FF684600782418103CFFE799
:102D20002000C0B2032801DA01201CE0029E20002E
:102D3000C0B2C11E89B2280001F084FA010089B234
:102D4000090A2200D2B2AA18D21E11702100C9B2FB
:102D50006918891E087053202100C9B26918491EDC
:102D6000087034700020FEBDF0B585B00400264820
:102D700003900100103102910100213101913430A2
:102D800004901025290000263200019F380000F031
:102D900099F929003200039F380000F093F91127B8
:102DA0003900320002980090009800F08BF90098EA
:102DB00039003200049E300000F084F92A001349E3
:102DC000039E300000F03CF82A0011490298451C8F
:102DD000280000F035F813220E49019D280000F06C
:102DE0002FF802980090049B039A0199200001F0AB
:102DF0009CFB0198007CE0700198407CE071019898
:102E0000807CE07205B0F0BD940B0020446B00089C
:102E1000546B0008640C002010B402E0401C491CF4
:102E2000521E002A09D00B7804789C42F6D002D2B8
:102E30000020C04302E0012000E0002010BC7047E9
:102E4000814202D25318984203D300B501F010FC1E
:102E500000BD521E03D38B5C8354521EFBD27047BD
:102E60008C4870478C4870478C48007870478B4975
:102E7000087070478A490870704780B50F228549ED
:102E8000002000F0AFF901BD80B5002000F044F94A
:102E90000F228049002000F082F901BD00B5010039
:102EA000002002E0C9B24908401C0A00D2B2D20791
:102EB000F8D5C0B200BD3EB5040068460C2100F054
:102EC00011F92000C0B201282ED105226946D02078
:102ED000800100F087F968460078204209D0802000
:102EE0000002704908602100C9B20320FFF7A7FB68
:102EF00004E02100C9B20420FFF7A1FBFEF7A6FF02
:102F0000002810D0FEF7A0FF05002000C0B2FFF798
:102F1000C5FF082148432818841C08226846411C24
:102F20002000FFF78DFF37BDFDE780B5FFF798FF65
:102F3000001D01F037F90120FFF7BDFF01BD38B5D5
:102F400000242500684658490A68026057480178FD
:102F5000022907D16D1C2900C9B2072902DB25000F
:102F600021000170524801F0B1FB01F0F1FEFFF7C2
:102F700084FFFFF775FF00786828E7D14D480168A6
:102F8000012291430160FFF76DFF03226946103073
:102F9000FFF742FF002808D00120FFF768FF01F08B
:102FA00057FD45490122425402E00020FFF75FFF30
:102FB000FFF756FFC078FFF75DFFFFF751FF807AFC
:102FC000992803D10120FEF744FF02E00020FEF71C
:102FD00040FF31BD38B5FFF745FF01001022374CE7
:102FE000250020352800FFF72BFFFFF73BFF0322CA
:102FF00001001031250030352800FFF721FF2000A7
:10300000FFF7B2FE2E492000FEF70CFD31BD1CB5C6
:1030100004006846002101606078202837D1FFF75E
:103020001FFF0A222100FFF7F7FE002824D000200E
:1030300000F072F805222100002000F0B0F8FFF740
:103040000FFF01000522002000F0CCF8FFF708FF79
:103050000A222100FFF7E0FE002806D10421CC223D
:103060006C46200000F02EF80CE00421AA226C46E9
:10307000200000F027F805E00421BB226C46200068
:1030800000F020F8094A0421684601F0A8FB13BDAE
:1030900000000000D40C0020DF0C0020600D002098
:1030A000610D002018040048A86B0008240D0020C2
:1030B000140D00200044004019040000440C0020BE
:1030C000940B00201206130A1A43130C1A4300BF74
:1030D000094205D0830707D00270401C491EF9D170
:1030E000704700000022FFE71300103906D330B408
:1030F0001400150010393CC0FCD230BC490700D385
:103100000CC000D504C0890002D30280801C0029B5
:1031100000D502707047FEE730B53E493E4A0A606E
:103120003E4A0A603E4900220A6001220B681340B1
:10313000002BFAD13B4B1C68022525431D603A4CFD
:1031400000193A4C20601868402404431C60086849
:1031500010400028FBD118680221884318601868C5
:1031600080210143196030BD30B52F4A82180123F8
:103170002B4C206818400028F9D12A4805681D43C7
:1031800005601180216819400029FBD101680122E6
:103190009143016030BD2449401800887047F8B55C
:1031A00004000E0017001B481B4901601B49016009
:1031B00000251B48056009E0280080B20221414338
:1031C000715A2000FFF7D0FFA41C6D1C28003900A5
:1031D00080B289B28842EFD31248016880220A4344
:1031E0000260F1BDF8B504000F001500002609E0EB
:1031F0002000FFF7D0FF310089B202224A43B852C3
:10320000A41C761C3000290080B289B28842EFD31A
:10321000F1BD00000420024023016745AB89EFCDDA
:103220000C2002401020024000C000081420024080
:1032300038B50400002210002078AC2804D0207893
:10324000682801D0012020E02078AC2801D1CD1ED3
:1032500000E08D1E2900C9B289B2200000F0F2FF03
:10326000010089B2090A89B22A00D2B2A25C914255
:1032700001D0012009E080B2C0B2EDB261194978F5
:10328000884201D0012000E0002032BD38B50400A2
:1032900000210800200000F01EF8200000F0D0F807
:1032A0000500ED1D2900C9B289B2200000F0CAFF57
:1032B000010089B2090A2A00D2B2A1542900C9B278
:1032C0006118487053202900C9B261188870ED1C3C
:1032D0002800C0B232BDAC210170704710B5042285
:1032E000441C2000FFF7ACFD10BD00B5D2B2002A8F
:1032F00003D0022A1DD00FD328E00A00D2B2002A40
:1033000005D042794907490F1143417103E04179E2
:10331000F8220A40427119E0C9B2002904D041796B
:1033200040220A43427103E04179BF220A404271C0
:103330000CE0C9B2002904D0417980220A434271CD
:1033400003E041794906490E4171FFE700BD8171F3
:103350007047F2B582B015001E0000F073F804004B
:1033600002202070FFF77CFD04273A00011D601C3D
:1033700001900198FFF764FD01982800C0B2002871
:1033800021D06846002101606846C5702078390068
:1033900001432170F6B2002E03D0207808210143AA
:1033A0002170029E3A006946671D3800FFF748FD0C
:1033B0002A00D2B2310009342000FFF741FD133555
:1033C0002800C0B204E02078F321014021700F20D2
:1033D000FEBD00B5C9B20A2906D019D30C290FD0F9
:1033E00008D30D2913D013E00078012801D106205D
:1033F0000FE00DE00078022801D1122009E007E07B
:103400000178032902D182700E2002E000E0FFE77C
:10341000002000BD401C704700B502000020C9B26A
:10342000C91E03D0491E012904D907E0507940077D
:10343000400F03E0507980210840FFE7C0B200BD93
:1034400080797047C01D704780B5FFF7FBFF401CB7
:1034500002BD80B5FFF7F6FF007A02BD80B5FFF729
:10346000F1FF062102780A40D2B2042A01D1401DA0
:1034700005E002780A4201D0093000E0002002BDD8
:1034800038B504002000FFF7DDFF05002000FFF73E
:10349000E0FFC0B22818093032BDFEE7004870478F
:1034A0000009002010B50400FFF7F8FFFF211031DC
:1034B000445410BD80B5FFF7F1FF0E3002BD80B55A
:1034C000FFF7ECFF007802BD10B50400FFF7E6FF40
:1034D000047010BDF8B505000E0004242200691D1B
:1034E0002F0009373800FFF7ABFC2200691C6F1D65
:1034F0003800FFF7A5FC220031000B316C1C2000C6
:10350000FFF79EFCF1BD70B504000E00872040005F
:1035100035183078002810D0012849D002285ED014
:10352000032800D191E0042800D1A9E0062800D1A9
:10353000EBE0072800D118E136E1207901210200F3
:10354000D2B20A40002A04D02A78102313432B70E9
:1035500003E02A78EF2313402B7002220300DBB232
:103560001340002B03D02B781A432A7003E02A78EB
:10357000FD2313402B700200D2B2520704D52A78E3
:10358000402313432B7003E02A78BF2313402B7092
:103590008022C0B21040002803D0287802432A704D
:1035A00003E028784006400E28703170012070BD7D
:1035B0002878C0B200090100C907C90F00290BD043
:1035C000FFF750FC022201001131601DFFF724FCBF
:1035D000002801D00520EAE702203070E6E72878CD
:1035E000C0B2C009C0B2002828D1FFF739FC0422BC
:1035F000011DE01DFFF710FC002804D128780121EF
:10360000014329701EE02878FE21014029702878A6
:1036100050210140102915D1FEF718FC002811D0C7
:10362000FEF712FC0422E11D801CFFF7F5FB0028C9
:1036300008D1022088214900705403E02878FE2137
:103640000140297003203070B0E72878C0B2C0096B
:10365000C0B2002811D128780100C907C90F00297C
:103660000BD0042221000B31701CFFF7D5FB002882
:1036700003D021003000FFF72DFF0420307095E7C4
:10368000E27B207C4A49D2B212090A7001222B78CF
:10369000DBB25B0814001C40E4B2002C06D00B78AF
:1036A0000400E4B2A34201D1072080E70B78032B8A
:1036B00029DA03000978DBB28B4224D3C0B2002898
:1036C00006D02878042101432970062030706DE768
:1036D0002878FB210140297028780240D2B2002AC4
:1036E0000AD1002088214900715C002902D00720FE
:1036F00030705BE7C0B25AE72878DF2101402970BB
:103700000720307052E7072051E7072030702878F3
:10371000C0B2C009C0B2002813D1FFF7A3FB2449EF
:1037200009786118897CC07C814204D128782021E5
:10373000014329703AE72878DF21014029700A20E7
:1037400035E7FFF78FFB1A4909786118497CC07C7F
:10375000814204D12878202101432970EAE72878A2
:10376000DF21014029700A2021E7A0781238217C4E
:10377000401A7073FFF79EFE0500727B2100123124
:103780002800FFF75DFB0A20307088204000305C85
:10379000012801D102200AE788204000305C02287D
:1037A00001D1032003E701E7092000E70000000042
:1037B000660D002038B504000D0000202078982800
:1037C00006D16078982803D10120FEF74EFB02E075
:1037D0000020FEF74AFB2900C9B289B2200000F0A0
:1037E00031FD010089B2090A89B22A00D2B2A25C75
:1037F000914201D0012009E080B2C0B2EDB261195E
:103800004978884201D0012000E0002032BD38B55F
:1038100004000D000020A5700420E0702900C9B24A
:1038200089B2200000F00EFD010089B2090A2A00C9
:10383000D2B2A1546D1C2900C9B260546D1C022182
:1038400096222800C0B224182000FFF73BFCAD1CD4
:103850002800C0B232BD70B506000124FFF71EFE7D
:10386000872149004518B1783000FFF7A3FF0028F1
:1038700045D1FEF7F7FA00281BD02000C0B201287E
:103880000ED1FEF7E1FA01003000FEF7C9FB04009B
:10389000FEF7E2FA092809D0FEF7DEFA0A28ECD191
:1038A0000020FEF7DCFA2000C0B252E0FEF7CCFDAB
:1038B000F6E72000C0B201280AD1FFF7EFFD0100B2
:1038C0003000FFF720FE0400FFF7F9FD0A28F0D1D1
:1038D0000020FFF7F9FD2000C0B2012806D020002B
:1038E000C0B2042802D02000C0B232E021262878DD
:1038F000304207D10120FFF7D5FD042029E0002048
:10390000C0B226E0052029780140C9B2052904D1BA
:103910000220FFF7C7FD00201BE029780840C0B255
:10392000012802D10420FFF7BDFD28780640F6B239
:10393000202E02D10820FFF7B5FD28784121014053
:10394000412904D11020FFF7ADFD012001E0200046
:10395000C0B270BD70B5040002252900692226009E
:103960003000FFF7AFFB81202071FFF77BFA2A00C0
:1039700001001131651D2800FFF762FAFFF78EFD87
:1039800004252A00411CE61D3000FFF759FAFFF715
:1039900067FA2A00011D25000B352800FFF750FAB1
:1039A0000F20E073E07BC0B20009207470BDFEB54B
:1039B000040017001E00207C69460870FFF76EFDAA
:1039C00087214900405CC0B2C009FFF767FDFF21B5
:1039D0001031405C04281BD1FFF760FD04252A004C
:1039E000411CE01D01900198FFF72AFA0198FFF7AA
:1039F00037FA2A00011D25000B352800FFF720FAB1
:103A00002079802101432171FFF72CFAC07C60747A
:103A100039003200D2B2684600782018050012350D
:103A20002800FFF70DFA6846007831181231C9B244
:103A30002000FFF7ECFEC0B2FEBD70B505000C0023
:103A4000FFF738FD060001F00DFB01003000FFF725
:103A500081FF2200D2B22900307C301805001235D7
:103A60002800FFF7EDF9307C21181231C9B230007F
:103A7000FFF7CDFEC0B270BDF0B5C1B007002E4853
:103A8000006840796946887001A880214900FFF7E5
:103A900029FBB878A1284BDA0525002468468078F0
:103AA000C01F0221FEF774F906001CE02800C0B216
:103AB000385C6946088068460088000269460880CC
:103AC000684600882900C9B27918497808436946D0
:103AD00008806846008801F0D6FB01A92200D2B216
:103AE0008854641CAD1C3000461EC0B20028DDD1D5
:103AF0006846817800227D1D2800FFF7E3FA220046
:103B0000D2B201A97D1D2800FFF79AF92000C01D3F
:103B10000949096848712000C01CB870022196222A
:103B2000E4B23819441D2000FFF7CCFA012000E070
:103B3000002041B0F0BD0000D4010020F3B5C1B0B9
:103B4000140041988078512851DA00273D00380050
:103B50006946088000A8801C0021018001A88021FE
:103B60004900FFF7BFFA05261DE041983100C9B2B0
:103B7000405C01F0BFFA6946088000A8801C6946D5
:103B8000098889B2090A017069460988417001A94A
:103B900002782B00DBB2CA5440782A00D2B28918CE
:103BA0004870AD1C761C3000C0B22100C9B2891E1D
:103BB0008842DADB429EE4B20220444321003A000C
:103BC000741D2000FFF77EFA2A00D2B201A9741DED
:103BD0002000FFF735F92C00E41CB4700221962276
:103BE0002000C0B23018851C2800FFF76BFA241D96
:103BF0002000C0B243B0F0BD00B50278692A02D1FE
:103C00004278692A07D00278982A02D14278982A05
:103C100001D001200FE00A00D2B28218921E127861
:103C2000962A05D1C9B24018401E0078962801D0C6
:103C3000012000E0002000BD8248704782480078E3
:103C40007047C0B281490880704700207F490880D2
:103C500070477E480088C0B2704710B5002402E06B
:103C6000641C01F044FB79480088002803D0200040
:103C7000C0B20628F4DBFFF7E8FF10BD38B504003A
:103C8000684600210160FFF7EDF8032201001031C2
:103C90006D462800FFF7D4F8684601784278891805
:103CA0008078081800280ED169480100C9B2890837
:103CB0000007000F4840207020780A2810D1207893
:103CC000801C20700CE00100C9B289080007000FB9
:103CD0004840207020780A2802D12078801C20706B
:103CE000AF482178405CAF49087031BD80B5564877
:103CF000FFF7C4FF01F0FBFAFFF7AFFF01BD80B58E
:103D000080214900A84A116080218900A74A1160DA
:103D10000100C9B2422900DB4120DC21A04AC0B227
:103D2000105C01F0B4FB0120A149087001F0C2FA57
:103D300001F0C4FA002002BDF8B51C002300DBB27C
:103D4000FC2B00DBFB240E003100C9B2422900DB52
:103D50004126009205002200D2B20099FF20801D6A
:103D60002F183800FFF76CF82200D2B2FF20801D18
:103D700029180098FFF7E2FE0100091D6970AE7076
:103D800001242100E9706978AA784A40E978514015
:103D9000297180214900854A116080218900824A69
:103DA0001160001D0200D2B2FF20801D29187C483E
:103DB000F6B2805D01F087FB05207D4908707D48E3
:103DC0002C5401F073FA0020F2BDF8B50E0011007A
:103DD0001D002A00D2B2FC2A00DBFB253200D2B241
:103DE000422A00DB412604002A00D2B2FF20801DB7
:103DF00027183800FFF724F82800001D6070A6700F
:103E00000120E0706078A1784140E078484020715E
:103E10008020400065490860802080006249086079
:103E20002D1D2A00D2B2FF20801D21185C48F6B259
:103E3000805D01F048FB05205D49087001F036FA0D
:103E40000020F2BDF80600206C0D00205A0D002065
:103E5000FD02000080B50521FFF7DEFA002804D13D
:103E600010210020FEF711FC03E020210020FEF7C6
:103E70000CFC01BDF8B504004F4F3888401C388059
:103E800038884E49884223DB68464D490A880280BB
:103E90000020010039804B490A78022A08DB0870AB
:103EA0000120FFF7CEFE8020C0014749086075E081
:103EB0000878401C08703E480078052808D0FFF7B5
:103EC000BDFE010002236A46C9B22000FFF77DFF54
:103ED000374D2878032816D0042802D0062808D0A9
:103EE0005CE0022001F0F5FB00F075F8012028707D
:103EF00054E000242000287000F06DF83C800A2077
:103F0000FFF7FDFE4AE0002630002870012001F096
:103F100032FC00F060F83E802C4800684179601D5A
:103F2000FFF76AFEC0B2012806D1002001F023FC91
:103F30000A20FFF7E4FE31E0601DFFF79DFD012040
:103F4000601DFFF788FC0100C9B201290FD00100F4
:103F5000C9B2022904D102210020FEF796FB1DE020
:103F6000C0B2032812D102210020FEF78EFBFFF71A
:103F700095FA0400FFF79EFA617BFFF759F90028D4
:103F800008D1FFF797FAFFF765FF06E00A20FFF771
:103F9000B6FE03E00A20FFF7B2FEFFE7F1BD000026
:103FA000D46900086D010020280400481804004866
:103FB0006D0D0020050200005C0D0020993A000004
:103FC000BE0F00086E0D002018080048D401002024
:103FD0002448008870470020224908807047224802
:103FE0000068704720490860704738B51F4820496D
:103FF0000860204C206804210143216000201E49F4
:1040000008606846FF2101700125290041702900E0
:104010008170684601F0DCFC2068022101432160C8
:1040200020680543256031BD00B50F4A116813684B
:104030005B1A8342FBD300BD00B50B480168491CE5
:10404000016008490A88002A02D00A88521C0A80A6
:1040500000684007400F002802D10120074908707E
:1040600000BD0000560D00204C0D002080BB00005C
:1040700014E000E010E000E018E000E0640D002033
:104080006C48704710B5002404E00A22002301F0B8
:10409000D7FC641C0029F8D10028F6D12000C0B25A
:1040A00010BDF2B588B0030000220292002000216A
:1040B00004000D0004000D0004AC03C4083C0422FD
:1040C00002AC19002000FEF7BBFE02980021FFF7AA
:1040D000D9FF04005AE00298FCF79CFF06000F008D
:1040E0002000C0B2401EFCF7A5FF02000B0000201C
:1040F0005149FCF785FB02000B0030003900FCF74A
:10410000A3FFFCF75DFF05002000C0B2401EFCF7D6
:1041100091FF02000B0000204549FCF771FB01F004
:10412000C5FC06AA03C2083A2000C0B2401EFCF734
:1041300081FF02000B0000203F49FCF761FB01F00A
:10414000B5FC06000F0004A803C8009001912800E8
:10415000C0B2002106AA0CCA01F0D2FC009A019B51
:104160008018594104AA03C2083A0298002100901D
:1041700001912800C0B2002132003B0001F0C0FCD8
:10418000009A019B121A8B410292641E2000C0B259
:104190000028A0D1089C062204A92000FEF750FEAA
:1041A00009B0F0BD1CB56946002200230CC10839D6
:1041B0006946FFF776FFFFF763FF040006226946B2
:1041C0002000FEF73DFE1D48016801220A430260FF
:1041D00013BD78B5AFB006000D0014006846BC21D1
:1041E000FEF780FF684601F0A4FC3100684601F04C
:1041F000A3FC684601F0A7FC1121684601F0A6FC6B
:104200002100C9B2684601F0A3FC2200D2B2290005
:10421000684601F09FFC684601F0A4FC084A0C3493
:104220002100C9B2684600F0D5FB30B070BD000077
:1042300000003040340D00200000244000380140D0
:10424000D40A0020F2B5144900221CE00378401C77
:104250000F24124D1E00F6B20F00BFB27E40264062
:1042600002277E43AE5B89B209097140DBB21B11A4
:104270000E00B6B273401C4002235C432B5B89B234
:1042800009095940521C13006C4624889BB2A34272
:10429000DCD3080080B2F2BDFFFF0000D86A00083E
:1042A00030B5002308E01C00E4B2045D1D00EDB24F
:1042B0004D5DAC4210D35B1C1C001500E4B2EDB2A6
:1042C000AC420BD21C00E4B20C5D1D00EDB2455DAA
:1042D000AC42E8D2012002E0022000E0002030BD24
:1042E00010B5002200E0521C13000C00DBB2E4B257
:1042F000A34207D21300DBB2C35C002BF3D0881AB1
:10430000C0B200E0002010BD10B50022110007E08F
:104310000B00DBB2C3185B780C00E4B20355491CF8
:104320000B00DBB2102BF3DB027410BDF4B50500FB
:104330000C006846027821002800FFF7B1FF022830
:1043400047D00020010002006A46127820E0591A86
:104350001300DBB2E3185B1E1B78CB1A012111E0BE
:104360001600F6B2A619761E36781F00B6B2BFB296
:10437000BE42ECD2591A1300DBB2E3185B1E1B7865
:10438000CB1A01001600F6B2AE19761E3370521E1B
:104390001300DBB2002BCCD01300DBB2EB185B1E9A
:1043A0001B781E001700FFB2E7197F1E3F78B6B2D8
:1043B000BFB2BE42D4D10E00F6B2012E07D15B1EB1
:1043C0001600F6B2A619761E36789B1BDAE70300B4
:1043D000D8E7F1BDF8B507000E0011241121300017
:1043E000FFF77EFF251A1120421BD2B22800C0B26F
:1043F00031183800FFF79AFF00240CE01220421B0E
:10440000D2B22800C0B23118491E2000C0B23818FC
:10441000FFF78CFF641C20002900C0B2C9B288429B
:10442000ECD3F1BD70B50024DBB2012B1ED11023FB
:1044300014E01D00EDB245196D1E2D780E00F6B288
:104440007543E4B22C191D00EDB2555D64192500C9
:104450001E00F6B29555A4B2240A5B1E1D00EDB2F3
:10446000002DE6D110780019107017E0102310E02D
:104470001D00EDB245196D1E2D780E00F6B2754384
:10448000E4B22C1925001E00F6B29555A4B2240AF8
:104490005B1E1D00EDB2002DEAD1147070BDFEB59B
:1044A00007000C0015001E0010212000FFF718FF68
:1044B00069460870684600784142601810300190E3
:1044C0000024200003E00100C9B26C54401C01002C
:1044D000C9B21129F7DB14E001232A000198210059
:1044E000C9B2415C3800FFF79DFF31002800FFF79B
:1044F00071FF2800FFF708FF31002800FFF76AFF6F
:10450000641C2000C0B269460978491E8842E3DB7A
:1045100001232A000198E4B2015D3800FFF782FF11
:1045200031002800FFF756FFF7BDF6B585B006004D
:104530000D001F00082410210698FFF7D1FE6946E0
:10454000087068460078002800D188E0049501963C
:1045500010220499019D2800FEF772FC0698694616
:1045600009784A428018103003900398017800209F
:1045700002E04900641E401C0200D2B2082A01DA9F
:104580000A06F6D54D00601E694648700024029761
:1045900021E03448344908600C9B029A0199019843
:1045A000FFF77DFF102632000298411C019F380062
:1045B000FEF746FC28060CD50C9B029A019904983C
:1045C000FFF76DFF32000298411C019E3000FEF79C
:1045D00037FC6D00641C200069464978C0B28842EF
:1045E000D7D30398401C039000202049087029E08D
:1045F0001C481D4908600C9B029A01990198FFF71D
:104600004EFF102632000298411C019F3800FEF731
:1046100017FC28060CD50C9B029A01990498FFF709
:104620003EFF32000298411C019E3000FEF708FC5C
:104630006D00641C2000C0B20828D9DB0B4801784B
:10464000491C01700948007869460978491E88426A
:1046500005DA039805490978455C0024EAE707B0C4
:10466000F0BD0000AAAA0000003000406F0D00203D
:10467000124207D08B0706D00B78491C0370401CF0
:10468000521EF7D87047830706D00B78491C037079
:10469000401C521EF9D1704770B4103A03D378C948
:1046A000103A78C0FBD2530701D318C918C001D5FE
:1046B00008C908C0D20704D30B880380891C801C5A
:1046C000002A01D50B78037070BC70471CB504003C
:1046D000684672490A78027020780D281BD10020A4
:1046E00020706178A01CFEF7A3FD00280DD1A078F2
:1046F000682804D101210020FDF7C7FF18E0B44865
:10470000016820220A43026012E0B14801682022B9
:104710000A4302600CE0FFF762FCBB49884207D302
:104720000020FFF75FFCB94A0121684600F057F806
:1047300013BD00B50A78002A0AD0082A12D0092A27
:1047400014D00A2A23D00B2A2FD00C2A36D045E0C9
:104750000200D2B2682A04D1887001208873082030
:1047600008703BE0C8700920087037E00200D2B240
:10477000002A06D1002008710B2008700320487021
:1047800004E008710A2008700320487026E04A7887
:104790008A1890704878401C487048780A79D21C72
:1047A000904201DB0B20087018E04A788A1890705C
:1047B0004878401C48700C2008700FE04A788A182E
:1047C00090704878401C48708148026820239A43C2
:1047D0000260002088730D200870FFE700BD38B527
:1047E00014002278002A01D0012011E06170C9B2C2
:1047F000E51C0A0001002800FEF722FB0020A07043
:10480000012020707248016880220A430260002063
:1048100032BD00B5010000200A78012A10D1887845
:104820000818C0788A78521C8A708A784B789A4225
:1048300006D302220A7082490A6880239A430A60DA
:10484000C0B200BD38B5040020780A2825D1002068
:104850007C49087061780C39C9B220000C30FEF731
:10486000E7FC002814D1FEF719FE62780C3A21000B
:104870000C3105000E352800FEF7E2FAFEF70EFEB9
:1048800061780C394173FEF715FEFFF7E3FA04E097
:104890006D48016820220A43026031BDC06B0008E8
:1048A00010B50A78002A0ED0022A31D023D3042A68
:1048B00036D031D3062A49D039D3082A64D04FD311
:1048C000092A6ED083E00200D2B2682A08D188702B
:1048D00001221300BE240B5513000B705B4B1A70A2
:1048E0000200D2B2FE2A05D188700120574A10700A
:1048F000082008706BE0554A1378CB189870107830
:10490000401C10701078072801DB022008705EE060
:104910004872032008705AE088720420087056E03C
:10492000C872052008700A20484908704FE0474ABD
:104930001378CB1898701078401C10701078CA7AD1
:104940000A32904201DB0620087040E03F4A1378AB
:10495000CB1898701078401C10700720087036E053
:104960003A4A1378CB1898701078401C1070107861
:1049700048700020BE2288540A200870324801681E
:1049800020229143016022E0304A1378CB189870BE
:104990001078401C10701078052801DB0920087081
:1049A00015E00200D2B2AA2A0CD1284A1378CB18FB
:1049B00098701078401C10700020BE2288540A2085
:1049C000087003E00020BE2288540870FFE710BD85
:1049D0000044004038B514002278002A01D001209C
:1049E00011E06170C9B2E51C0A0001002800FEF761
:1049F00027FA0020A070012020701348016880224F
:104A00000A430260002032BDE9030000240D0020AB
:104A100000B501000A78012A10D188780818C078FA
:104A20008A78521C8A708A784B789A4206D3002280
:104A30000A7005490A6880239A430A60C0B200BD23
:104A400000440040140A002000380140710D00208D
:104A5000BE487047F8B50024230000E05B1C1D0031
:104A6000EDB2022D21DA01258326F600875D2E00A6
:104A70009E403742F2D18326F600865D9D40354345
:104A80008326F60085551D00EDB28326760075431A
:104A90004519AB706A70D2B2EE1C3000FEF7D0F947
:104AA000822040002C5202202870F1BDF1B588B060
:104AB0000F000898FEF7D2FC040002A81421FEF7AC
:104AC00011FB68460021002206C00838002630008D
:104AD000FEF7C6F905000898FEF79CFC0422291D84
:104AE000FEF79AF9002800D08DE0FEF7BBF91422FA
:104AF0000100E01CFEF790F900282ED0FEF7B2F975
:104B00001022E11C05002800FEF79AF9FEF7AAF929
:104B1000032221001331050010352800FEF790F91B
:104B2000A57D2800C0B2002803D12800C0B2FF280C
:104B300002D0FEF797F9C574FEF7A6F90120FEF73B
:104B400096F9FFF785FFD44901224254FEF742FA55
:104B5000FFF7CCF80A20FFF7D2F8032221006C46B9
:104B60002000FEF76DF968460121C1700221017134
:104B700046710898FEF768FC01003800FEF7AEFBAE
:104B8000002200213800FEF7B0FB0222012138008C
:104B9000FEF7ABFB0898FEF773FC1124220002AD70
:104BA00001002800FEF74CF901230622694638006F
:104BB000FEF7CFFB05003800FEF750FC220002A9EB
:104BC000841D2000FEF73CF901220A212800C0B212
:104BD0003818FEF7FEFB2C1801220B212000C0B272
:104BE0003818FEF7F6FB241801220C212000C0B271
:104BF0003818FEF7EEFB2018C11FC9B23800FEF7C7
:104C0000A6FB012000E0002009B0F0BD10B5002394
:104C1000180000E0401C0200D2B2022A13DA02009F
:104C2000D2B28324640062438A181478002CF1D035
:104C300013708320C000085C01239278934098434E
:104C40008322D200885410BDFEB5060000252C003A
:104C500092480818019092480818029000A8801CF9
:104C6000002101802800FEF7E7FFD54909684A794D
:104C7000411D029F3800FEF7E3F801212A00019D43
:104C80002800FEF71FFA3000FEF7E8FB0222411C65
:104C900000ADAD1C2800FEF7D3F80420FDF7BEFCE4
:104CA0000222010000A8801CFEF7B6F8002805D1FA
:104CB00001993000FDF722FE04000FE00020FDF70F
:104CC000A7FC0222010000A8801CFEF7A5F800281E
:104CD00004D101993000FFF7E9FE0400E4B2002C92
:104CE00033D00198FEF7D2FA694608700020FDF72C
:104CF0008FFC04003000FEF7B1FB02222100401CB3
:104D0000FEF78AF800280BD001236A46684601782E
:104D10000198FDF77BFF002817D1FEF78FFF00E019
:104D20000A20FFF7ADF969460A7892B20199801D11
:104D3000FFF74FFA00F096F969460B78019A0100E7
:104D40000298FEF734FE69460870F7BDDC010020CA
:104D5000F8B50F20FDF790FC060000252C00FEF7AB
:104D6000A9FB0700FEF79AFB0D3000903000C0B29F
:104D700000283AD03000C0B2012808D1B2480078EB
:104D8000002800D087E0B148FEF741F907E0F6B20D
:104D9000022E04D100993800FDF7ABF804000F2172
:104DA0000120FDF772FC2000C0B2002808D0FEF7F9
:104DB00075FB8821490045540A20FEF7A0FF6AE0F0
:104DC000FEF76CFB88214900405C012802D10A20D3
:104DD000FEF795FFFEF762FB882149002A00425446
:104DE0009B48016820220A430260F020FDF744FC42
:104DF000002850D00020FDF70BFC06003800FEF71D
:104E00002DFB02223100401CFEF706F8002821D0BD
:104E1000FEF72AF8002812D0FEF722F80422011D1E
:104E2000781CFDF7F9FF00280AD1FFF711FE1A4997
:104E300001224254FFF70CFE8649455200E001244E
:104E40000023009A009801783800FDF7DFFE002863
:104E500000D00124E4B2002C07D0F0210120FDF79E
:104E600014FC0A20FEF74BFF15E0380000F01AF89A
:104E7000F0210120FDF709FC0020FEF713FB764826
:104E80000078052802D00A20FEF739FF7348016830
:104E900020220A430260F1BD190400001C04000036
:104EA0000F02000038B5040005212000FEF7B4FA17
:104EB000002821D1FFF7E4F805002000FEF7C4FA2E
:104EC000A91DFFF7EEF803212000FEF7A5FA002840
:104ED00006D1FFF7BDFD01002000FFF7B5FE0BE096
:104EE00003212000FEF798FA012805D1FFF7B0FD55
:104EF00001002000FFF78AFE31BD10B500210A0035
:104F00000A008323DB00C2540A000FE01300DBB267
:104F1000832464006343C3180C009C700C005C7015
:104F20008224640019530C001C70521C1300DBB265
:104F3000022BEBDB10BD7CB504004948251800208E
:104F400069460870FEF7B6FA010001222E00300013
:104F5000FDF776FFFDF768FB01002800FDF7DFFC99
:104F60006946087068460078002827D02000FFF7BF
:104F7000C4FF01236A46684601782800FDF746FE13
:104F800000281BD1684601782800FEF756FD6946C7
:104F90000870FEF78FFA05006846027829002000A5
:104FA000FFF758FDFEF74AFE0400FEF745FE69468E
:104FB0000B782A002100C9B2FEF7BEFE73BD0000C7
:104FC000D401002070B52449097805293BD000217F
:104FD0000A00050000E0521C1000C0B2022832DABC
:104FE0001000C0B283235B0058432C18207800289F
:104FF000F1D082204000205A401C82235B00E05206
:1050000082204000205A3328E5DB822040002152D4
:10501000FEF714FE0600FEF70FFE6378E21C310077
:10502000C9B2FEF789FE2078401E2070C0B2002869
:1050300009D18320C000285C0121A27891408843D7
:105040008321C900685470BD240D0020160D002076
:10505000004400401A0400006D0D0020003801409B
:105060001C040000004870477C0C002000B5F022B2
:1050700002400121080010430200D2B21209D2B24C
:105080000300DBB25B09DBB2D2180300DBB29B0981
:10509000DBB2D2180A40002A02D0020008201043D6
:1050A0000200D2B21209D2B20300DBB25B09DBB25A
:1050B000D2180300DBB2DB09DBB2D2180A40002AA7
:1050C00002D00200042010430200D2B21209D2B270
:1050D0000300DBB29B09DBB2D2180300DBB2DB09B1
:1050E000DBB2D2181140002902D00100022008438F
:1050F000C0B200BD38B5040000202000C0B2FFF7E8
:10510000B5FF05022001C0B2FFF7B0FF054328003C
:1051100080B232BD00B501210200D2B21209D2B272
:105120000300DBB25B09DBB2D2180300DBB29B09E0
:10513000DBB2D2180300DBB2DB08DBB2D2180A40C4
:10514000002A51D00200D2B21209D2B20300DBB25F
:105150005B09DBB2D2180300DBB2DB09DBB2D21889
:105160000300DBB29B08DBB2D2180A40002A1DD034
:105170000200D2B21209D2B20300DBB29B09DBB249
:10518000D2180300DBB2DB09DBB2D2180300DBB2BA
:105190005B08DBB2D2181140002903D001001020B7
:1051A00048406EE00100202048406AE00200D2B290
:1051B0001209D2B20300DBB29B09DBB2D2180300A2
:1051C000DBB2DB09DBB2D2180300DBB25B08DBB277
:1051D000D2181140002903D001004020484050E07F
:1051E0000100082048404CE00200D2B21209D2B2BD
:1051F0000300DBB25B09DBB2D2180300DBB2DB09D0
:10520000DBB2D2180300DBB29B08DBB2D2180A4033
:10521000002A1DD00200D2B21209D2B20300DBB2C2
:105220009B09DBB2D2180300DBB2DB09DBB2D21878
:105230000300DBB25B08DBB2D2181140002903D0B7
:105240000100802048401CE001000420484018E094
:105250000200D2B21209D2B20300DBB29B09DBB268
:10526000D2180300DBB2DB09DBB2D2180300DBB2D9
:105270005B08DBB2D2181140002902D001000220E5
:105280004840C0B200BD38B50400200080B2000A1A
:10529000C0B2FFF73FFFF02505402000C0B2FFF786
:1052A00039FFC0B200092843C0B232BD0020A24974
:1052B000087070470020A149087070470020A0497D
:1052C0000870704780B50120FEF7BBFC01BD10B52A
:1052D000002400F06CFC00F043F900E0641C2000A6
:1052E00098490968098980B28842F7D310BD80B512
:1052F000FEF7ABFCFFF7EBFF00F077F99248408830
:105300009249884201D0FFF7DDFF8E4800680068AF
:1053100000F034F9002801D0FFF7D4FF002200216B
:10532000002000F0AEF901BDF8B507000024200010
:1053300000220021002000F0A4F9834DA878000786
:1053400002D50420824908702879C00702D50120BF
:1053500080497854A878800727D57F4E3078312847
:1053600013DB75480078302148433818FF2142315B
:105370004118302000F0BEF96F480078401C6E499B
:1053800008703078303830700FE0307800280CD05A
:1053900069480078302148433818FF2142314118CC
:1053A000307800F0A7F920003070A878800608D582
:1053B0002000694908700620654908702000674987
:1053C0007854A878C0072DD55C480078002812D101
:1053D000791C042000F097F9002000F07AF92E786B
:1053E000791D3000C0B200F08EF9554806700120DA
:1053F0005249087016E0002000F06BF928786946E1
:1054000008704F4E30783818411D6846007800F01B
:105410007AF9307869460978401830704748017841
:10542000491C0170A878C00630D54448007800288F
:105430000BD1791C042000F066F9002000F049F936
:10544000791D287800F05FF90EE03D4E3078002895
:105450000AD0002000F03DF930783818411D287836
:1054600000F051F92000307036487978091F026841
:105470005171B97800680171002000F053F9E878A3
:10548000387003203249087032483C54F1BD3EB5B3
:1054900005000C00032000F013F900220021002079
:1054A00000F0EFF8022000F014F90820019003202A
:1054B00000900023E4B2220092B200212800C0B282
:1054C00000F0CAF837BD70B505000E0014000320C7
:1054D00000F0F6F800220021002000F0D2F80120B0
:1054E00000F0F7F82000C0B23D280EDB20003C3869
:1054F00019490870FEF7A0FB411C042000F0FAF8DF
:1055000031003C2000F0F6F80DE000201249087050
:10551000FEF792FB411C042000F0ECF83100200063
:10552000C0B200F0E7F82800E4B2220092B2802175
:10553000C0B200F07EF870BD680D0020690D00203B
:105540006A0D0020D4010020F40C00203844000033
:105550006D0D002006020000670D0020050200000E
:1055600080B500F017FB0420FEF75EFD00F016FB8F
:105570000520FEF759FD00F0EDFB01BD38B5040034
:10558000207800282FD02078641C0100C9B211298E
:1055900001D3042028E0002106E022785E4B0D00B4
:1055A000EDB25A55641C491C0A000300D2B2DBB2AA
:1055B0009A42F2D3002300225749C0B200F0D8FB30
:1055C000FF2801D002200FE000F0F6FA0028D7D122
:1055D00000220021002000F054F850488079000794
:1055E000CED5042000E0002032BD10B54A4C012089
:1055F0002070230008222100012000F0B9FB474859
:1056000021780170811C627812020A804288A37896
:105610001A430A80E1780171811D227912020A8001
:10562000C28863791A430A80A1790172E1794172D3
:1056300010BD10B50B00384931240C7048708B70C8
:10564000100080B2000AC8700A7100204871887189
:10565000072000F025FB10BDF8B5069D079E2E4CD7
:10566000322727706070A170100080B2000AE070CD
:1056700022716371A571E6712100082000F010FB12
:10568000F1BD10B5244C202323706070A170E2702E
:10569000230008222100042000F06AFB1F48217823
:1056A000017061784170A1788170E178C1702179D1
:1056B000017161794171A1798171E179C17110BD87
:1056C00080B5154934220A704870022000F0E8FACB
:1056D00001BD10B5104C152121706070230002220D
:1056E0002100022000F044FB0D4821780170617810
:1056F000417010BD80B502000B00D2B200216620BF
:1057000000F003FB01BD80B502000B00D2B2002106
:10571000772000F0DBFA01BD040D0020F40C00201E
:10572000F40C002010B5104C222121706070230071
:1057300008222100022000F01BFB0C482178017098
:1057400061784170A1788170E178C170217901712F
:1057500061794171811DA27912020A80C088E279C3
:105760001043088010BD0000040D0020F40C002040
:105770007F48007870477E49087070477D4801680F
:10578000802292020A4302600C20C0439021C90586
:105790000A6802400A600A68042313430B607649D2
:1057A0000A6802239A430A600A680A6073490A6811
:1057B00002400A600A680A6071490A68104008607D
:1057C0000868086002206F490860704769480168EE
:1057D000802212030A4302606B486C490A68024047
:1057E0000A600A6880235B0513430B6068490A68F6
:1057F000684B13400B600A680A6067490A680240F8
:105800000A600A680A6065490A681040086008680A
:1058100008608020C00162490860704755480168EF
:105820008022D2020A4302605E485F490A68024051
:105830000A600A688023DB0113430B605B490A6836
:1058400080239A430A600A680A6059490A6802403C
:105850000A600A680A6057490A68104008600868C8
:1058600008607047F0B48020C00242490A680243D1
:105870000A60514B4C4A14681C401460146880251F
:105880006D0225431560494C25684C4E2E4026601C
:1058900025682560464D2E681E402E602E68C02764
:1058A000BF0237432F60434E37683B403360336855
:1058B00033600B6803430B60414913680B4013606E
:1058C00013681843106020683E4A02402260206836
:1058D00020602868084028602868286030680140F7
:1058E000316030683060F0BC704722480168802227
:1058F000D2020A4302602C480168890089080160CD
:1059000001688022D2050A430260284801682E4AB5
:105910000A40026001680160254801688900890821
:1059200001600168016023480168890089080160FD
:1059300001680160802000022449086070470D481A
:105940000168802292020A43026016489021C9052C
:105950000A6802400A600A680A6009490A68104039
:10596000086008688022D20102430A607047000084
:10597000700D002014100240040000480800004888
:105980000C00004828000048FFFFFFCF0008004837
:1059900004080048FFBFFFFF080800480C08004843
:1059A00028080048FF3FFFFF0004004804040048A7
:1059B000080400480C040048FFFFFCFFFFFEFFFF47
:1059C000FFFFF3FFFFFDFFFFFF7FFFFF180400480D
:1059D00070B500218178002923D0164902789210F1
:1059E00004235A438B580322FF24057815400826C8
:1059F0007543AC40A3434478A401E4B205782A403F
:105A000008256A4394401C430278921004235A43A9
:105A10008C5001210078C006C00E8140064801600C
:105A200006E001210078C006C00E814003480160F5
:105A300070BD00BF00E400E000E100E080E100E0B4
:105A4000124224D0994228D970B500251B4202D0B9
:105A50000C00002109E00024012649186441944209
:105A600000D3A41A7641F8D33100012601E0764133
:105A700009D2001864416D41A41A9D41F7D2A418BF
:105A80005D41B619F5D3300022002B0070BD1B42DA
:105A9000D8D108B500F078F908BD01D19042D3D231
:105AA00002000B00002100207047FEE7491824D2B5
:105AB0004A0D40231B01D21A0123DB071E3A09DCE1
:105AC0005242202A19DA8902400D08431843002166
:105AD000D0407047524220320CD489021943430D02
