:020000040800F2
:1000000090150020DD740008A16F0008A36F0008A0
:1000100000000000000000000000000000000000E0
:10002000000000000000000000000000A76F0008B2
:100030000000000000000000A96F0008AB6F00087E
:1000400013100008000000005B590008C36400089A
:10005000AB700008C36F0008C56F0008C76F0008C9
:1000600000000000A97000087B7400088774000875
:1000700005750008077500080975000800000000F4
:100080000B750008C16F0008000000000D75000826
:10009000BD6F00080F750008BF6F000811750008DC
:1000A000137500081575000817750008E56F00083E
:1000B0002770000800000000F8B58EB004000D00A5
:1000C0001498002802D000201499086002A80CC0DF
:1000D00002A803C89EA20CCA02400B4001D1002A0C
:1000E00013D00020994922002B0000F0A1FD0CD074
:1000F000954900F09DFD0BD102A803C808004100FE
:100100004915491C04D1000302D100208F4937E36F
:1001100068004015401C0DD08DA003C82040294028
:1001200001D1002806D002A803C848004015401C91
:1001300000D0F1E069004915491C04D1280302D020
:10014000200029001CE302A803C80800410049154B
:10015000491C04D1000302D002A803C810E3012601
:1001600002A803C848004015401C00D184E002A842
:1001700003C80B0002185B4104D1002A02D102A877
:1001800003C817E0AB4F5A0DBA1A352A05DB0B002E
:1001900000208021090619400CE0202A03DD203AC6
:1001A000D140914000E001D1002003E0002A01DDB0
:1001B000D04090406A4603C202A803C8002907DA6B
:1001C000002280231B06121A8B4104A80CC001E0F8
:1001D00004AA03C2684603C8002906DA0022802365
:1001E0001B06121A8B411000190004AA0CCA8B427C
:1001F00001D1824200D00026684603C80B000218D5
:100200005B4104D1002A02D1684603C817E0844F3D
:100210005A0DBA1A352A05DB0B0000208021090689
:1002200019400CE0202A03DD203AD140914000E043
:1002300001D1002003E0002A01DDD0409040002ED3
:100240001AD06A460CCA002B06DA002680273F0621
:10025000B61A9F4132003B00002906DA00268027AB
:100260003F06361A8F41300039008B4203D182425B
:1002700001D1002600E0012669004915491C08D17A
:10028000280306D1EC0F02A803C814D1C80F41D02F
:1002900033E002A803C8080041004915491C13D1E6
:1002A000000311D12AA6C0CE2F40802149038F42DE
:1002B00016D2002218E0C80F02D1002E2AD026E064
:1002C000002E1AD0002008E0002E19D1002402A828
:1002D00003C8C80F18D1002C14D0802109064FE2A2
:1002E0003E0D50A003C8821902A803C8C80F02D14E
:1002F000002A0FDC06E0002A0BDD002000213FE28F
:10030000EC0FE4E700213BE2002C02D0002047493B
:1003100036E20020464933E202A803C80B00021867
:100320005B4104D1002A02D102A803C821E0414E5A
:100330005A0DB61A352E0FDB002280231B060B4008
:1003400004A80CC017E000BF0000F0BF0000F03FA1
:10035000FFFFFFFFFFFFFF7F202E03DD203EF14068
:10036000B14000E001D1002003E0002E01DDF040AB
:10037000B04004AA03C2E80F1FD002A803C8002996
:1003800005DA002280231B06121A8B4101E00200CD
:100390000B0004A803C8002906DA002680273F06C0
:1003A000361A8F41300039008B4201D1824204D08D
:1003B00000BF00BFBEA003C8E2E120002900BCA42A
:1003C00030CC0D40002280235B039D4203D200927B
:1003D00000244D400CE02C0DB74A0023DB431219DA
:1003E00000921A46B14B02400B40AF4D14001D4322
:1003F000E80F4AD06D006D0804A80CC819009018C9
:10040000494101D1002824D0054E480D361A352E19
:1004100012DB80210906194000220B0019E000BF01
:100420003404000002FCFFFFFFFFFFFF0000F0FFAD
:100430000000F07F33040000202E03DD203EF34057
:10044000B34000E001D1002203E0002E01DDF240C4
:10045000B24004A803C8002905DA002680273F0619
:10046000361A8F4101E006000F00002B06DA00204B
:1004700080210906801A994102000B009F4203D196
:10048000964201D1002000E001200490009801284C
:100490002AD120002900D1A20CCA00F0DBFB23D214
:1004A00000200190D24906AA03C269004A0D511CDE
:1004B000002A12D0002910DDC24A914207DB100544
:1004C0002900802212061140014300240AE0774AE5
:1004D0002A4008051043050023E029008022120667
:1004E000114000240D001CE00020A64922002B0032
:1004F00000F0C9FB00226C4B00F087FC00F060FDAF
:100500002038019000F096FD00229F4B00F0BBFBCD
:100510000022654B00F079FC06AA03C20198400155
:1005200001902000290006AA0CCA00F0D1FC0600A8
:100530000F0006A803C822002B0000F066FC020092
:100540000B003000390000F07FFD08AA03C208A8A4
:100550000CC808A803C800F096FB06000F00200096
:10056000290006AA0CCA00F0B3FC0AAA03C287A09D
:1005700003C832003B0000F086FB86A20CCA00F0E4
:1005800044FC32003B0000F07EFB84A20CCA00F069
:100590003CFC32003B0000F076FB82A20CCA00F06B
:1005A00034FC32003B0000F06EFB80A20CCA00F06D
:1005B0002CFC32003B0000F066FB7EA20CCA00F06F
:1005C00024FC32003B0000F05EFB7CA20CCA00F071
:1005D0001CFC0CAA03C20020854906AA0CCA00F024
:1005E00077FC4B005C0D631C002C12D0002B10DD3F
:1005F000744CA34206DB230508008021090608404D
:1006000018430AE0294C0C401A0522430400150047
:1006100005E00800802109060840002405000CA818
:1006200003C832003B0000F02EFB0AAA0CCA00F0FF
:100630004FFC22002B0000F0E8FB08AA0CCA00F0D7
:1006400022FB02000B0000BF71A0019945180AA807
:1006500003C800F0DAFB06AA03C2009800F0EAFC27
:100660000CCD083D00F0D1FB06000F0006A80CC819
:1006700055A003C800F007FB32003B0000F0C5FBAB
:1006800002AA0CCA00F0FFFA0022514B00F0E2FA75
:1006900073D301224F4B00F038FD65D9CA0F0DD03E
:1006A00000224D4B0BE000BF0000E03FFFFF0F803A
:1006B000FFFFFFFFFFFFFF7F02FCFFFF494B00F042
:1006C000A4FB00F07DFC040002A803C832003B003C
:1006D00000F0D9FA06000F00200000F0ABFC020089
:1006E0000B003000390000F0F3FB3FA20CCA00F011
:1006F000CAFA0090019106A80CC802A803C800F02D
:10070000C2FA06000F002800083003C82A00103281
:100710000CCA00F07AFB02000B0002A803C800F02C
:10072000B2FA31A20CCA00F0AEFA32003B0000F07F
:100730006CFB009A019B00F068FB149A002A01D020
:100740001460002400940022294B00F0F7FC29A239
:100750000CCA02400B4001D1002A0ED04B005B15A1
:100760005B1C03D10A0301D100202449049A002A0A
:1007700006D080221206514002E000200021F5E759
:100780000FB0F0BD000050400000903FF7DE29BFE1
:10079000D8F8C23FF4B3FECC1A99C33F62CB68D9F4
:1007A0006F46C73FC6C912DAC471CC3F4AE98A9482
:1007B0002449D23FF75F97999999D93FBC55555530
:1007C0005555E53FFF070000FE822B654715F73FB3
:1007D0000000E0C00000E0400000E0BFCD3B7F66CD
:1007E0009EA0E63F0000E03FEF39FAFE422EE63FD2
:1007F0000000F03FFFFFFFFFFFFFFF7F0000F07FE3
:100800001CB500240094FFF757FC1CBD000000003D
:10081000000000000000F0BF0000000000000080A9
:100820000000000000000080000000000000000048
:10083000000000C05294EEBF00000048204E51BEA0
:10084000000000F86467BCBC00000000000000006D
:10085000000000208133EDBF00000080B3DB14BE38
:10086000000000506706A3BC00000000000000006C
:10087000000000D0E9DCEBBF00000008C39259BEC5
:1008800000000080B0D3B8BC0000000000000000F1
:1008900000000070F98FEABF000000C0A51028BE5C
:1008A000000000E8BFC0B0BC000000000000000075
:1008B00000000070284CE9BF00000060134B42BEEE
:1008C000000000C03D20B8BC000000000000000097
:1008D00000000050FA10E8BF000000C05FF62BBE19
:1008E000000000905C71A7BC000000000000000048
:1008F00000000020FCDDE6BF000000C0F8F154BE9F
:1009000000000018E9F6B9BC00000000000000007B
:10091000000000D0C3B2E5BF00000070E43254BE56
:1009200000000050DB06B4BC000000000000000026
:1009300000000010EF8EE4BF00000020F36252BE02
:10094000000000C02A879ABC0000000000000000E0
:10095000000000B02272E3BF000000F0E8E056BEE5
:1009600000000028352DBDBC000000000000000084
:10097000000000000A5CE2BF000000B0FA8E41BE39
:1009800000000040AE6FBDBC000000000000000091
:1009900000000000564CE1BF000000F015CD5FBE26
:1009A00000000000141C90BC0000000000000000CB
:1009B00000000040BD42E0BF00000030F93457BEE7
:1009C000000000E06C1E93BC00000000000000006E
:1009D000000000E0F57DDEBF000000B08A535EBE7F
:1009E00000000080DA77AABC0000000000000000D0
:1009F000000000C09D81DCBF00000000FFA226BEF9
:100A00000000006057E2B0BC0000000000000000E1
:100A100000000060F98FDABF000000580A8151BE63
:100A2000000000F05F60B8BC0000000000000000A3
:100A30000000000098A8D8BF000000607A7F45BE83
:100A4000000000D05433A3BC0000000000000000F0
:100A5000000000600FCBD6BF000000D091CB40BE9D
:100A6000000000406D1BA0BC000000000000000062
:100A7000000000A0FBF6D4BF00000098C5CE52BE17
:100A8000000000003A397EBC0000000000000000B9
:100A9000000000E0FE2BD3BF0000004073872BBE98
:100AA00000000000926879BC000000000000000017
:100AB00000000040C069D1BF00000058F16353BE80
:100AC00000000080438D7CBC00000000000000009E
:100AD00000000080D85FCFBF000000181F8354BE05
:100AE000000000B03F42A2BC000000000000000077
:100AF0000000008067FCCBBF00000060FAFF53BE1F
:100B000000000050E00DB8BC000000000000000034
:100B10000000000098A8C8BF000000607A7F35BEC2
:100B2000000000C0543393BC00000000000000002F
:100B300000000000DC63C5BF00000058D6FF54BEB3
:100B400000000000396490BC0000000000000000BC
:100B5000000000C0AD2DC2BF00000080A45915BE2A
:100B6000000000E0484BABBC0000000000000000AB
:100B7000000000801A0BBEBF00000050BF3C5ABEF0
:100B8000000000A0B364B6BC00000000000000003C
:100B90000000008004D6B7BF00000040BBCF36BEC7
:100BA0000000008076CEA8BC00000000000000001D
:100BB0000000008032BBB1BF000000402A0043BEED
:100BC00000000028C60CBDBC0000000000000000B2
:100BD000000000009473A7BF000000182B3B59BE13
:100BE000000000C0E55DA5BC0000000000000000A2
:100BF00000000000EE4397BF000000A0E6C340BE27
:100C000000000020958DB5BC000000000000000031
:100C100000000000000000800000000000000080D4
:100C20000000000000000080000000000000000044
:100C300090420ED1A4460C001C430128644107D009
:100C4000994205D14C006415641C644000D30C0328
:100C50006446704730B4012464054D00EC420BD863
:100C60005D00EC4208D80C001C43640004431443AC
:100C700004D2994200D1904230BC7047FCD08B42E4
:100C8000FAD18242F8E7F0B50E005E400125ED078B
:100C90002E40B446AE0ADF184C18F44208D2F74290
:100CA0000ED2640D01D07F0D12D100206146F0BD3F
:100CB00005D1F74201D87F0D05D10020C143F0BD19
:100CC000FBD1640DF9D00020C143490549088FE0EC
:100CD000E419C902DB0229432B43DB0A460DC0029B
:100CE00031438E4630B487B295B27D432E0CADB2FF
:100CF000140C7C43A419260C240425439CB27C4389
:100D0000A419190C7943270CC919A4B20F043C4348
:100D1000090C000C97B247432E0CBE193543ADB2F7
:100D2000170C4743360CBF19A6B2BF193E04354312
:100D3000240C3E0C36199FB24743BF19BCB23E0C7F
:100D400089191F0C47437F183E043443390C704601
:100D500080B297B247432E0CBE193543ADB2170C83
:100D60004743360CBF19A6B2BF193E043543240CC5
:100D70003E0C36199FB24743BF19BCB23E0C8919CD
:100D80001F0C47437F183E043443390C77463F0C11
:100D900090B278432E0C80190604ADB22E43050C98
:100DA000A0B22D18120C7A435019020C80B2240CF8
:100DB000A4189AB27A43121914042043120C891809
:100DC0001B0C7B43C91830BCEF0A394203D1B6195A
:100DD00040414941641E6F12BF0DE41B0BDBFF193C
:100DE000BC4211DA240500274208AE417841614136
:100DF00066463143F0BD641C05D1401C6141CF0201
:100E000001D34908F4E750E75DE7F0B40125ED07A9
:100E10000F005F404FD48B4200D1824205D98446F7
:100E2000100062468C4619006346DF184C18640DAA
:100E30007F0D3AD0661C760537D0E61B352E34DCA4
:100E4000DB022B43DB0A0C0DC9022943C912202EF9
:100E50000DDB1700203E06D01F00F741F3405F4036
:100E60000026012A7741C01871410DD217E0170002
:100E7000F741F2405740F3415A40B340F3405A40E3
:100E80000026801859410AD3A21C52050FD0C20770
:100E9000012F724117004008CB0718434908641C12
:100EA00024054208AF4170416141F0BC7047641CA9
:100EB00021050020F9E76B4010E06B40ABE7F742FB
:100EC000F3D1E943F1E72442EFD100200021ECE720
:100ED000F0B40125ED070F005F40EED40C00871A37
:100EE0009C4105D2C01BA141D219634169406B40AE
:100EF000AE0ADF184C18F442E1D2640D7F0DE2D047
:100F0000E61B362ED1DCDB022B43DB0AA4460C0D9C
:100F1000C9022943C90A012E28DC04D1D607520888
:100F2000DF073A435B08EF0A76429041994114D0BB
:100F300039423BD1B61940414941761C394204D16E
:100F4000761C001849413942FAD0B9436746B74286
:100F500008D9A41B24052143A7E70042EAD1364261
:100F6000E8D1A2E7E40AE10700209EE7202E0BDD8E
:100F7000203E1F00F340F7415F40012A0022574105
:100F80007E42984191410BE01700F741F2405740F3
:100F9000F3415A40B340F3405A407E429041994158
:100FA0000A0303D2641EB619404149410027641E5A
:100FB00024054208AE4178416141F0BC7047ABCD99
:100FC000F4464A1805D200F00FF801D58017400802
:100FD000604700F009F80121C907884200D90800DC
:100FE000404260474A1812D2400DC902084301210D
:100FF000C9070843520D40210901521A521C06D458
:1010000052421F3201D4D0407047C01770470020B1
:101010007047FEE7010042221201D21E004207D0B3
:1010200002D4521E0018FCD5C10A400512058918C9
:10103000704700000100EED54042F446FFF7EBFF99
:101040000122D20711436047F0B40E005E40012533
:10105000ED072E40B446AE0ADF184C18F4423BD2DE
:10106000F74241D2640D43D07F0D38D0E41BC90252
:10107000DB0229432B43CF0ADB0A0600B61A9F4145
:1010800004D2641EB6197F41B6185F416812800D04
:1010900024180018844222DAE80C0021B6197F4196
:1010A000B61A9F4102D2B6185F413F1C40414941E8
:1010B000F4D3241C21DD2405B6197F41B61A9F41C3
:1010C00005D33743C60737430026012F70416141DE
:1010D00066463143F0BC7047FCD1F74205D2002090
:1010E000C14349054908F3E704D00020C143F1E7B3
:1010F0007F0DFAD000206146ECE72442FAD1401C73
:1011000061410F03F6D30020E2E730B40124640507
:101110004D00EC420BD85D00EC4208D80C001C439B
:1011200064000443144304D28B4200D1824230BC99
:101130007047FCD09942FAD19042F8E7F0B585B0FB
:1011400006000F0014001D0078004015401C1DD043
:101150008DA003C83040394001D1002816D0680066
:101160004015401C12D088A003C82040294001D15E
:1011700000280BD03000390000297BDA00228023C0
:101180001B06121A8B4168460CC075E079004915A0
:10119000491C02D1380300D079E169004915491C86
:1011A00001D1280340D178A003C82040294008D1AC
:1011B000002806D179004915491C35D1380333D1AF
:1011C0000BE069004915491C0CD128030AD17900AC
:1011D0004915491C28D1380326D100BF00BF6AA099
:1011E00003C856E168A003C8304039401FD1002829
:1011F0001DD169004A0D0A995118002A22D12900EF
:1012000080221206114000240D005FA003C8204078
:10121000294001D1002805D069004915491C03D196
:10122000280301D100BF00BF2000290031E179006F
:101230004915491C18D1380316D130003900FFF781
:1012400022FD26E10029DADDA94A914206DB1005DC
:1012500029008022120611400143D4E7A54A2A4002
:10126000080510430500D0E700202A008021090668
:101270000A403CE06A4603C20022894B002B04DA94
:1012800080210906901A99410B00684603C89942CB
:10129000104604DA2A00802109060A4027E0814925
:1012A000002906DA80231B06121A8B4168460CC0FF
:1012B00001E06A4603C232003B00002B06DA002040
:1012C00080210906801A994102000B00684603C874
:1012D00099420EDC01DB90420BD200BF00BF724985
:1012E00008002A00802109060A400243002011005C
:1012F000CFE06EA003C832003B00FFF7C4FC02AA97
:1013000003C27949080002A90CC900920193430065
:101310005B0802A803C80A008020000602401A43A6
:1013200000201100009A019BFFF76FFDFFF748FEB8
:101330000490FFF77FFE02AA03C202A80CC85DA0BA
:1013400003C8FFF7A0FC02000B0030003900FFF7D4
:10135000BFFD06000F0002A80CC858A003C8FFF785
:1013600092FC02000B0030003900FFF7B1FD0600CF
:101370000F00790049080022524BFFF76BFC07D29F
:101380002000290053E000BFFFFFFFFFFFFFFF7FAA
:1013900032003B003900FFF776FC6A4603C268461C
:1013A0000CC849A003C8FFF76EFC49A20CCAFFF79E
:1013B0002CFD6A460CCAFFF766FC02AA03C2684607
:1013C0000CC845A003C8FFF75EFC45A20CCAFFF796
:1013D0001CFD6A460CCAFFF756FC0022424BFFF781
:1013E00014FD32003B00FFF74EFC06000F0002A880
:1013F00003C832003B00FFF708FD00223B4BFFF71C
:1014000004FD0090019102A803C832003B00FFF7E1
:101410005FFD0022354BFFF7F8FC02000B0000983F
:101420000199FFF711FE22002B00FFF72CFC4B0067
:101430005C0D049BE3180A9D5B19002C12D0002B55
:1014400010DD2B4CA34206DB230508008021090692
:10145000084018430AE0274C0C401A0522430600B6
:10146000170005E008008021090608400026070053
:1014700009A003C83040394001D1002805D07900C7
:101480004915491C03D1380301D100BF00BF30000A
:10149000390005B0F0BD00BFFFFFFFFFFFFFFF7F7A
:1014A00000C89CC000C89C400000F07FFE822B65F5
:1014B0004715F73F000000F8422EE63FF2E4D5BCA6
:1014C000E7E84B3E0000903C112E5781A03F503F73
:1014D0005843128C8F71BC3F4BE8A541B752013F76
:1014E0000BBDF3DAE8708C3F0000E03F0000F03FF6
:1014F000FF070000FFFF0F80004870470009002031
:1015000010B50400FFF7F8FFFF211031445410BD5F
:1015100080B5FFF7F1FF0E3002BD80B5FFF7ECFF9D
:10152000007802BD10B50400FFF7E6FF047010BD9F
:10153000F8B505000E0004242200691D2F000937AC
:10154000380000F01FFC2200691C6F1D380000F0FD
:1015500019FC220031000B316C1C200000F012FC41
:10156000F1BDF8B505000E00872040003418307832
:10157000002810D0012849D002285ED0032800D1CD
:1015800098E0042800D1B0E0062800D105E1072842
:1015900000D132E150E1287901210200D2B20A40A3
:1015A000002A04D0227810231343237003E022780A
:1015B000EF231340237002220300DBB21340002B01
:1015C00003D023781A43227003E02278FD231340CE
:1015D00023700200D2B2520704D52278402313436D
:1015E000237003E02278BF23134023708022C0B20F
:1015F0001040002803D020780243227003E02078B6
:101600004006400E207031700120F2BD2078C0B23B
:1016100000090100C907C90F00290BD000F0C4FB65
:10162000022201001131681D00F0F4FC002801D0F5
:101630000520EAE702203070E6E72078C0B2C00952
:10164000C0B200282FD100F0ADFB0422011DE81D1F
:1016500000F0E0FC002804D1207801210143217032
:1016600025E02078FE2101402170207850210140A2
:1016700010291CD100F0E4FC002818D00421280017
:10168000123001F0E2F9012811D000F0D7FC042259
:10169000E91D801C00F0BEFC002808D10220882132
:1016A0004900705403E02078FE210140217003209E
:1016B0003070A9E72078C0B2C009C0B2002811D1AB
:1016C00020780100C907C90F00290BD00422290086
:1016D0000B31701C00F09EFC002803D02900300064
:1016E000FFF726FF042030708EE7E97B2A7C544800
:1016F000C9B20909017001212378DBB25B080F0030
:101700001F40FFB2002F06D003781700FFB2BB4284
:1017100001D1072079E70378032B3CDA130007781F
:10172000DBB2BB4237D31300DBB2002B0FD02178E2
:1017300004230B43237021780B00DBB2DB09D2B208
:101740000178280001F054FA062030705CE7237815
:10175000FB271F40277023781940C9B2002913D1F5
:10176000002121780B00DBB2DB09D2B2017828001E
:1017700001F03EFA88214900715C002902D007205F
:10178000307041E7C0B240E72078DF21014021708E
:101790000720307038E7072037E7072030702078BF
:1017A000C0B2C009C0B2002813D100F0FDFA24492C
:1017B00009786918897CC07C814204D12078202175
:1017C0000143217020E72078DF21014021700A20A9
:1017D0001BE700F0E9FA1A4909786918497CC07CCE
:1017E000814204D12078202101432170EAE720784A
:1017F000DF21014021700A2007E7A8781238297CF0
:10180000401A7073FFF784FE0400727B29001231C6
:10181000200000F0B7FA0A20307088204000305CC9
:10182000012801D10220F0E688204000305C022827
:1018300001D10320E9E6E7E60920E6E60000000022
:101840007D0D002038B504000D0000202078982878
:1018500006D16078982803D1012000F000FC02E056
:10186000002000F0FCFB2900C9B289B2200001F081
:1018700043FC010089B2090A89B22A00D2B2A25CF3
:10188000914201D0012009E080B2C0B2EDB26119ED
:101890004978884201D0012000E0002032BD38B5EF
:1018A00004000D000020A5700420E0702900C9B2DA
:1018B00089B2200001F020FC010089B2090A2A0047
:1018C000D2B2A1546D1C2900C9B260546D1C022112
:1018D00096222800C0B22418200001F03BFCAD1C69
:1018E0002800C0B232BD70B506000124FFF704FE27
:1018F000872149004518B1783000FFF7A3FF002881
:1019000045D100F0A9FB00281BD02000C0B201285F
:101910000ED100F093FB0100300000F074FC0400D5
:1019200000F094FB092809D000F090FB0A28ECD1C4
:10193000002000F08EFB2000C0B252E000F0A2FEBA
:10194000F6E72000C0B201280AD1FFF7D5FD01005B
:101950003000FFF706FE0400FFF7DFFD0A28F0D194
:101960000020FFF7DFFD2000C0B2012806D02000D4
:10197000C0B2042802D02000C0B232E0212628786C
:10198000304207D10120FFF7BBFD042029E00020F1
:10199000C0B226E0052029780140C9B2052904D14A
:1019A0000220FFF7ADFD00201BE029780840C0B2FF
:1019B000012802D10420FFF7A3FD28780640F6B2E3
:1019C000202E02D10820FFF79BFD287841210140FD
:1019D000412904D11020FFF793FD012001E02000F0
:1019E000C0B270BDF8B504000E00022529006922BE
:1019F0002700380001F0AEFB8120207100F0D4F9FF
:101A00002A0001001131651D280000F0BBF9FFF725
:101A100073FD04252A00411CE71D380000F0B2F9CF
:101A200000F0C0F92A00011D25000B35280000F048
:101A3000A9F93078E073E07BC0B200092074227C01
:101A4000521C711C1134200000F09CF9F1BDF6B558
:101A500083B005000E001F00287C69460870FFF760
:101A60004BFD87214900405CC0B2C00969468870BF
:101A7000E87B0400E4B22409E87B0007000F694614
:101A800048700196FFF738FDFF211031405C0428B3
:101A900039D1FFF731FD04263200411CE81D0290C8
:101AA000029800F06FF9029800F07CF93200011DF5
:101AB0002E000B36300000F065F9287980210143B3
:101AC0002971684600780001694649780143019808
:101AD000017068460278521C290011310198461C99
:101AE000300000F04FF9FFF707FD421C0198411C40
:101AF0000198007801F04CF901980078E87300F043
:101B000053F9C07C6874FFF7F7FCFF211031405C8B
:101B100008281FD168468078002807D068460078DA
:101B20002100C9B2884210D3641E0EE0200069462D
:101B30000978C0B2884201D2641C06E06846007889
:101B40002100C9B2884200D10024200169464978A9
:101B50000143E97304993A00D2B268460078281824
:101B600004001234200000F00DF96846007839189E
:101B70001231C9B22800FFF792FEC0B205B0F0BD25
:101B800070B505000C00FFF7C3FC060000F0DAFF9B
:101B900001F0A4F800F0D6FF01003000FFF722FFAB
:101BA0002200D2B22900307C3018050012352800FE
:101BB00000F0E8F8307C21181231C9B23000FFF78C
:101BC0006EFEC0B270BDF0B5C1B007002D48006810
:101BD00040796946887001A88021490001F0CAFA5D
:101BE000B878A1284BDA0525002468468078C01F04
:101BF000022101F0EEFA06001CE02800C0B2385CB9
:101C00006946088068460088000269460880684680
:101C100000882900C9B279184978084369460880C4
:101C20006846008801F03FFC01A92200D2B2885426
:101C3000641CAD1C3000461EC0B20028DDD16846D1
:101C4000817800227D1D280001F084FA2200D2B2A2
:101C500001A97D1D280000F095F82000C01D09494C
:101C6000096848712000C01CB87002219622E4B2B5
:101C70003819441D200001F06DFA012000E0002019
:101C800041B0F0BDD4010020F3B5C1B014004198BB
:101C90008078512851DA00273D00380069460880D5
:101CA00000A8801C0021018001A88021490001F0CA
:101CB00061FA05261DE041983100C9B2405C01F08F
:101CC00027FB6946088000A8801C6946098889B2FC
:101CD000090A017069460988417001A902782B0040
:101CE000DBB2CA5440782A00D2B289184870AD1CC1
:101CF000761C3000C0B22100C9B2891E8842DADBEE
:101D0000429EE4B20220444321003A00741D2000A8
:101D100001F020FA2A00D2B201A9741D200000F0BF
:101D200031F82C00E41CB470022196222000C0B2CD
:101D30003018851C280001F00DFA241D2000C0B2C7
:101D400043B0F0BD00B50278692A02D14278692A11
:101D500007D00278982A02D14278982A01D001202F
:101D60000FE00A00D2B28218921E1278962A05D18C
:101D7000C9B24018401E0078962801D0012000E02A
:101D8000002000BD814202D25318984203D300B50F
:101D900001F09EFB00BD521E03D38B5C8354521E88
:101DA000FBD270478F4870478F4870478F48007844
:101DB00070478E49087070478D48007870478C498D
:101DC0000870704780B510228649002001F014FC8D
:101DD00001BD80B5002001F0A9FB1022814900203F
:101DE00001F0E7FB01BD00B50100002002E0C9B22F
:101DF0004908401C0A00D2B2D207F8D5C0B200BDD3
:101E00003EB5040068460C2101F0B4F92000C0B2D0
:101E100001282ED105226946D020800101F0ECFB7B
:101E200068460078204209D080200002714908608D
:101E30002100C9B2032001F01CFC04E02100C9B25A
:101E4000042001F016FC00F0FBF8002810D000F090
:101E5000F5F805002000C0B2FFF7C5FF0821484390
:101E60002818841C08226846411C2000FFF78AFFBE
:101E700037BDFDE780B5FFF795FF001D01F094FF2A
:101E800001F000FF01F0D5FF0120FFF7B9FF01BD10
:101E900038B500242500684657490A68026057484B
:101EA0000178022907D16D1C2900C9B2072902DB7C
:101EB000250021000170524802F012F802F076FB72
:101EC000FFF780FFFFF76EFF00786828E7D14D48E5
:101ED0000168012291430160FFF766FF0322694612
:101EE000103000F097F8002808D00120FFF761FFBC
:101EF00002F0C6F944490122425402E00020FFF7F3
:101F000058FFFFF74FFFC078FFF759FFFFF74AFF71
:101F1000807A992803D1012000F095F802E0002092
:101F200000F091F831BD38B5FFF73EFF01001022F7
:101F3000364C250020352800FFF724FFFFF734FF3B
:101F4000032201001031250030352800FFF71AFF69
:101F5000200002F08AFD2E49200003F075F831BD03
:101F60001CB504006846002101606078202837D144
:101F7000FFF718FF0A22210000F04CF8002824D0B7
:101F8000002001F0D3FA05222100002001F011FB0E
:101F9000FFF708FF01000522002001F02DFBFFF7ED
:101FA00001FF0A22210000F035F8002806D10421A3
:101FB000CC226C46200001F0CDF80CE00421AA22CE
:101FC0006C46200001F0C6F805E00421BB226C46F7
:101FD000200001F0BFF8094A0421684602F009F820
:101FE00013BD0000D40C0020E00C0020780D002070
:101FF000790D00201804004800750008480D0020E5
:10200000380D00200044004019040000440C00205A
:10201000940B002010B402E0401C491C521E002A00
:1020200009D00B7804789C42F6D002D20020C0433D
:1020300002E0012000E0002010BC70470E4870470D
:102040000E48007870470D49087070470A480078BC
:10205000704709490870704709480078704700B513
:10206000C0B2002803D001200549087002E000201A
:102070000349087000BD0000B00C0020760D002060
:10208000770D002010B504000020C9B2002903D04C
:102090000F2001F029FB02E00F2001F043FB0100BB
:1020A000C9B2002906D1012009E0C0B24008217858
:1020B000491C21700100C9B2C907F6D5002010BD26
:1020C00022300178FE220A4002700178FD220A4087
:1020D00002700178FB220A4002700178F7220A4060
:1020E00002700020704710B504000A000023117828
:1020F000200002F00FFC200000F030FA002807D189
:1021000001F0ACFA0400FFF799FFE11C00F0CFF9F1
:1021100010BDF3B581B000273E0038001CE0380048
:102120000DE03C00042202992800FFF773FF00280D
:1021300011D1E87901F094FA0028F0D001202100B3
:10214000C9B2C0B2814206D0FFF778FF4178EA7980
:102150000A4342706C71761C3000C0B200280ED168
:10216000FFF76CFF3100C9B2082251434018851CAB
:1021700068460079A9790842D3D00124D2E7F7BD97
:10218000F7B506000C0000252800694608700121FB
:102190006846FFF777FF002801D0012032E02700D2
:1021A00068460078082148433018841C387820712C
:1021B00078786946097808225143711808720F200F
:1021C00001F092FA69460978082251437118487261
:1021D0000F2001F089FA717808437070B8780028F0
:1021E00001D00125FFE70299657104222000FFF765
:1021F000C9FD01F033FA0400FFF720FFE11C00F0F5
:1022000056F90020FEBD7CB504000D0028002230E8
:10221000297800290AD001294CD0022963D003294A
:1022200000D189E0072900D190E0D9E021790A00A6
:10223000D2B281231340812B0CD10278082313439F
:1022400003700278FD23134003700278FB231340D0
:10225000037003E00278F723134003700A00D2B240
:10226000120704D5027801231343037003E00278B8
:10227000FE231340037001220378DBB2DB08134016
:10228000DBB2002B13D1C9B2C90608D501780423EB
:102290000B4303700178FD230B40037007E00178C6
:1022A000FB230B400370017802230B4303702A7059
:1022B000012076BD00780921014000290FD0FFF7E9
:1022C00073FD0222611D1130FFF7A4FE002803D028
:1022D0002800FFF7F5FEECE702202870E8E7280069
:1022E000FFF7EEFEE5E70078C0B240080100C9073D
:1022F000C90F00291DD1FFF759FD00280CD0FFF7A9
:1023000051FD0422011DE01DFFF784FE002810D0BE
:102310002800FFF7D5FECCE7FFF744FD0422011D9E
:10232000E01DFFF777FE002803D02800FFF7C8FE66
:10233000BFE703202870BBE7042221000B31844C47
:102340002000FFF71FFD07202870B1E70121027868
:10235000D2B252080A40D2B2002A1DD000206946EB
:10236000087001216846FFF78DFE002803D0280081
:10237000FFF7A6FE9DE7607CA87104227449AE1C9D
:102380003000FFF7FFFCA07C28720F2001F0ACF9B1
:1023900068720920287022E00278D2B292080A40BE
:1023A000D2B2002A0ED06A4A210011312800FFF76C
:1023B000E7FE002803D02800FFF782FE79E70A2015
:1023C00028700CE00078C0B2C0080140C9B20029F2
:1023D00005D05F49A07CFFF79CFE0A20287067E7C4
:1023E0002800FFF76DFE64E77CB50F2001F07CF953
:1023F0000600F02001F078F904003000C0B2002897
:1024000037D0544D2888401C28802888524988425B
:1024100012D228780521014001291FD1F6B2012EE0
:1024200005D1D048016802224A40026016E00F211F
:10243000062001F062F911E028780007000F01285A
:102440000CD1F6B2012E05D1C648016802224A40DD
:10245000026003E00F21062001F04FF92888C249ED
:10246000884209DB002028800F21062001F045F971
:1024700002E0002037490880E4B2002C16D06846FC
:1024800000210160FF21062001F037F9B74904223D
:102490006846FFF7BFFD002808D10020FFF7D3FDF5
:1024A000FFF780FC00218172FFF793FC73BD7FB5BD
:1024B00004000D00667868460C2100F05BFE3000D9
:1024C000C0B2002843D0F00728D5A11C48790028C5
:1024D00007D080200002D84A1060287806432E706A
:1024E00006E080200002D54A10602878B0432870AA
:1024F00008226846461C3000FFF744FC287801009B
:10250000C907C90F68460170D025AD01280001F048
:102510000DF805226946280001F04BF8FFF790FD01
:1025200000280BD0FFF73EFC807A992809D0FFF7EE
:1025300039FC99218172FFF74CFC02E00120FFF782
:1025400082FD002060700F21062001F0D6F87FBDCB
:10255000600D0020680D00207202000038B50500F3
:102560000421280000F071FA012805D10721280074
:1025700000F06BFA80280BD00421280000F065FAE7
:1025800000282CD10721280000F05FFA002826D16E
:10259000FEF7B2FF88214900405C01280BD12800DA
:1025A00000F089FA0400280000F0A4FA2100007865
:1025B000FFF7AFFD11E0FEF79FFF88214900405C67
:1025C00002280AD1280000F03EFA0400280000F09A
:1025D00091FA21000078FFF79CFD002000E0012027
:1025E00032BDF8B5FEF794FF0500002630000F203D
:1025F00001F07AF8002844D00224210098222F000C
:10260000380000F0A7FD88202871FFF7CFFB0028D5
:1026100009D0FFF7C9FB2200010011316C1D200019
:10262000FFF7B0FB05E0210032006C1D200000F038
:1026300091FD042421003200EF1D380000F08AFDD6
:10264000FFF7B0FB2200011D2C000B342000FFF728
:1026500099FB0F20E8732E74FFF7A6FBC07C68740B
:102660000F2001F041F8A87413212800FFF717F993
:10267000040002F089FE2300DBB22A000A2102F0E6
:1026800007FFF1BDFEB5FEF743FF05000F2001F087
:102690002BF8694648700026300069460870300003
:1026A0003248029001216846FFF7ECFC002858D11F
:1026B0000224210098273A000195019800F04AFD74
:1026C00001982F71FFF772FB002809D0FFF76CFB10
:1026D0002200010011316C1D2000FFF753FB05E0C3
:1026E000210032006C1D200000F034FD0424220083
:1026F000029869460978082359434118EF1D3800AC
:10270000FFF740FBFFF74EFB2200011D2C000B34AE
:102710002000FFF737FB0F20E8732E74FFF744FB10
:10272000C07C687468464078A8746846407800F0B9
:1027300097FFE87414212800FFF7B1F80400012086
:10274000FFF781FC0F21062000F0D7FF02F01CFEEE
:102750002300DBB22A000A2102F09AFE322003F0A5
:1027600027F8F7BD14000048A70E0000B20C0020A7
:10277000FEB506000C001500002738003800694639
:10278000087000216846FFF77DFC00283DD16846AF
:102790004570250001960224210098222E00300069
:1027A00000F0D8FC8120287121003A006C1D200027
:1027B00000F0D0FC042422000199EE1D3000FFF748
:1027C000E1FAFFF7EFFA2200011D2C000B34200084
:1027D000FFF7D8FA0F20E8732F74FFF7E5FAC07CF3
:1027E000687468464078A87413212800FFF757F8EA
:1027F000060002F0CBFD040002F0C6FD3300DBB2A0
:102800002A002100C9B202F043FEF7BD38B5050029
:102810000C00FFF715FC00280DD02000C0B2FFF718
:10282000E2FA0821484306490818811C08226C1C5A
:102830002000FFF7A7FA31BD18040048280400481B
:10284000B00C002038B50400002210002078AC281D
:1028500004D02078682801D0012020E02078AC281E
:1028600001D1CD1E00E08D1E2900C9B289B2200021
:1028700000F042FC010089B2090A89B22A00D2B2F2
:10288000A25C914201D0012009E080B2C0B2EDB259
:1028900061194978884201D0012000E0002032BD52
:1028A00038B5040000210800200000F01EF82000C8
:1028B00000F0E4F80500ED1D2900C9B289B220003E
:1028C00000F01AFC010089B2090A2A00D2B2A15410
:1028D0002900C9B26118487053202900C9B2611893
:1028E0008870ED1C2800C0B232BDAC210170704769
:1028F00010B50422441C2000FFF744FA10BD00B5B7
:10290000D2B2002A05D0022A1FD011D3032A29D01F
:1029100035E00A00D2B2002A05D042794907490FB2
:102920001143417103E04179F8220A40427126E0E7
:10293000C9B2002904D0417920220A43427103E040
:102940004179DF220A40427119E0C9B2002904D05E
:10295000417940220A43427103E04179BF220A4093
:1029600042710CE0C9B2002904D0417980220A43A7
:10297000427103E041794906490E4171FFE700BD0C
:1029800081717047F2B582B015001E0000F078F832
:10299000040002202070FFF705FA04273A00011D09
:1029A000601C01900198FFF7EDF901982800C0B272
:1029B000002821D06846002101606846C570207853
:1029C000390001432170F6B2002E03D0207808218F
:1029D00001432170029E3A006946671D3800FFF7E7
:1029E000D1F92A00D2B2310009342000FFF7CAF928
:1029F00013352800C0B204E02078F3210140217093
:102A00000F20FEBD00B5C9B20C2906D019D30E297E
:102A10000FD008D30F2913D013E00078012801D17B
:102A200006200FE00DE00078022801D1122009E015
:102A300007E00178032902D182700E2002E000E055
:102A4000FFE7002000BD401C704700B502000020D9
:102A5000C9B2042904D0062906D0072908D00BE002
:102A600050794007400F07E050794021084003E0CB
:102A7000507980210840FFE7C0B200BD80797047DF
:102A8000C01D704780B5FFF7FBFF007806210A00E4
:102A90000240D2B2042A01D101200BE00A00024018
:102AA000D2B2022A01D1022004E0084201D0032060
:102AB00000E0002002BD80B5FFF7E2FF401C02BD30
:102AC00038B505002800FFF7DBFF04002800FFF7FA
:102AD000D9FF01000020C9B2012904D008D303297D
:102AE00004D002D304E0207902E001E0207AFFE77D
:102AF000C0B232BD38B505002800FFF7C1FF0400A1
:102B00002800FFF7BFFF01000020C9B2012904D04F
:102B10000AD3032905D002D306E0601D04E0601D3E
:102B200002E020000930FFE732BD38B50400200084
:102B3000FFF7A6FF05002000FFF7C2FFC0B228186C
:102B4000093032BD26487047F0B501231C0025002E
:102B5000EDB2022675434D192D7B002D1AD1214D62
:102B6000214E2F78F4552E78761C2E701F4E337020
:102B70002300DBB202267343CB181A73E4B202229D
:102B80005443091948732878142801DB0020287061
:102B9000F0BD641C2500EDB2142D1CDA2500EDB249
:102BA000022675434D192D7B002D14D015002600EB
:102BB000F6B202277E438E19367BEDB2B542E8D1DC
:102BC0002500EDB2022675434D196D7B0600F6B265
:102BD000B542C4D1DCE72500EDB2142DBFDBD7E749
:102BE0007C0C00207F0D0020F40C00207E0D0020C6
:102BF000F8B5040000273800DBB2002B21D1080013
:102C0000C0B2002868D00800D2B2C0B282420DD350
:102C1000C9B26018457CFFF795FF040002F0B4FBD1
:102C20002A00D2B221000078FFF78EFFFEF764FC85
:102C300088214900405C022801D101204DE00A2092
:102C40004BE03D000800D2B2C0B2824203D1607CAA
:102C50006946087004E0C9B26018807C6946087053
:102C6000FFF770FF060002F08FFB69460A7831001B
:102C70000078FFF769FFFEF73FFC01268721490036
:102C8000405CC0B280093040C0B2002813D1FFF7C9
:102C9000D7F900280FD00F2000F026FD00280AD118
:102CA000FFF7CCF9042221000B31801CFFF7B2F9A9
:102CB000002800D13500EDB2002D06D0FEF71CFC37
:102CC000882149004654012007E0FEF715FC8821C1
:102CD00049004754042000E00A20F2BD10B504006A
:102CE000FEF70AFC411C601C00F076F8207010BD55
:102CF000F0B500210A000A0001220B0001240B009C
:102D000023E02E00F6B2861976782F00FFB2C75D59
:102D1000BE420ED22C00E4B2041964782E00F6B242
:102D2000865D2F00FFB2C7197E702E00F6B2845563
:102D300001246D1C2F00FFB2BC4613271E00F6B203
:102D4000BE1B6746B742DCDB5B1C1D00EDB2132DDA
:102D500005DAE4B2002C02D00C000D00EAE70121F4
:102D600011E01300DBB2C3185B1E1B780C00E4B249
:102D7000045DA34206D00B00DBB2C35C1400E4B2D6
:102D80000355521C491C0B00DBB2142BE9DBF0BDD0
:102D90007FB504000D0016006846102100F0EAF926
:102DA0006846047029784170691C0A788270491C51
:102DB0000978C1700C2231006846041D2000FEF71E
:102DC000E1FF8024E400200000F0B0FB0822694607
:102DD000200000F0EEFB7FBDF8B584B004000D00CC
:102DE0006846102100F0C6F9082269468020C0001C
:102DF00000F002FC684606784178217081786170A5
:102E0000C078A070042422006846011D2F003800FD
:102E1000FEF7B8FF22006846010008312F1D380078
:102E2000FEF7B0FF2200684601000C312C00083488
:102E30002000FEF7A7FF3000C0B205B0F0BDF0B52E
:102E400095B004000F0001F01BFA8049451801F00D
:102E500017FA7F4909684A7921007C4BC418200081
:102E6000FEF790FF002069460870287C694688704C
:102E7000E87B0007000F694648700226310069228E
:102E80002C00200000F066F98120287104242879A4
:102E9000210001432971FEF787FF32000100113143
:102EA0006E1D3000FEF76EFFFEF726FB2200411C70
:102EB000EE1D3000FEF766FFFEF774FF2200011DD5
:102EC0002C000B342000FEF75DFF6846807800017F
:102ED000694649780143E9738148007800286DD03C
:102EE0000BA8282100F046F901A8282100F042F99A
:102EF000012630007B4C2000FFF7FAFE11E001A80C
:102F00003100C9B20222514340183100C9B2615C9C
:102F10000222514379180C310A7802704A784270C3
:102F2000761C3000C0B214280ADA3000C0B2201873
:102F3000401E00783100C9B2615C8842DFD3761E42
:102F400001A83100C9B202225143415C00291BD0C3
:102F5000694609780A00521C6B461A700BAA3300A6
:102F6000DBB202277B43C35CC9B25354694609787C
:102F70000B005B1C6F463B703300DBB202277B43C8
:102F8000C0184078C9B250543000461EC0B2002864
:102F9000D6D1684602780BA9287C2818060011367D
:102FA0003000FEF7EFFE002210004D4908701000BF
:102FB0004D4908701421200000F0CCF80020FEF7E5
:102FC0009FFA68460078297C41181131C9B228005F
:102FD000FEF765FC15B0F0BDF8B500220F00C0B2D9
:102FE00010281ED1FFF7AEFD040002F0CDF921003C
:102FF000401DFFF724FF06003000C0B2002820D09B
:1030000001F03EF9050002F0C1F9040002F0BCF93C
:103010003300DBB20D496A182100C9B202F038FA58
:103020000FE03878C0B240090100C907C90F002974
:1030300007D03878DF21014039704021002000F0AE
:103040003EFB3878BF2101403970F1BD1C040000FF
:10305000D4010020F8B505000E001700FEF74CFA69
:10306000FF211031405C082837D102F08DF90400AF
:1030700001F006F91E4909684A79611D1D4BC41803
:103080002000FEF77FFE01F0FBF81A494418642087
:1030900002F08EFBFFF756FD3B00DBB22A00010079
:1030A0002000FEF7D4FC050002F06EF92B00DBB225
:1030B00022003100C9B202F0EBF9F021012000F04A
:1030C000FEFA0020FEF71CFA08480078052802D016
:1030D0000A2002F0C0F9012000E00020F2BD00004B
:1030E0007E0D0020F40C00207F0D0020860D0020B6
:1030F000D401002015030000F2B5144900221CE0A1
:103100000378401C0F24124D1E00F6B20F00BFB210
:103110007E40264002277E43AE5B89B2090971409A
:10312000DBB21B110E00B6B273401C4002235C439D
:103130002B5B89B209095940521C13006C46248844
:103140009BB2A342DCD3080080B2F2BDFFFF0000B7
:10315000307400081206130A1A43130C1A4300BFF6
:10316000094205D0830707D00270401C491EF9D1DF
:10317000704700000022FFE71300103906D330B477
:103180001400150010393CC0FCD230BC490700D3F4
:103190000CC000D504C0890002D30280801C002925
:1031A00000D502707047F446002804D4494200F06C
:1031B00013F8404260474042002905D45FD000F038
:1031C0000BF8404249426047494200F005F8494245
:1031D000604703460B43E6D40022030A8B420BD21E
:1031E00003098B4219D243088B422ED2411A00D2D6
:1031F0000146524110467047FF2209023FD0120695
:103200008B4205D3121209028B4201D3121209021A
:1032100003098B4219D300E0090AC3098B4201D389
:10322000CB01C01A524183098B4201D38B01C01AD2
:10323000524143098B4201D34B01C01A5241030949
:103240008B4201D30B01C01A5241C3088B4201D3F8
:10325000CB00C01A524183088B4201D38B00C01AA5
:10326000524143088B4201D34B00C01A524188425D
:1032700000D3401A5241CFD201461046704708B5DC
:1032800002F0C2FA08BD00B50021F022024001217F
:10329000080010430200D2B21209D2B20300DBB21E
:1032A0005B09DBB2D2180300DBB29B09DBB2D21898
:1032B0000A40002A02D00200082010430200D2B2C5
:1032C0001209D2B20300DBB25B09DBB2D2180300F1
:1032D000DBB2DB09DBB2D2180A40002A02D00200BE
:1032E000042010430200D2B21209D2B20300DBB2B2
:1032F0009B09DBB2D2180300DBB2DB09DBB2D218C8
:103300001140002902D0010002200843C0B200BDD4
:1033100038B50400002108002000C0B2FFF7B3FF59
:1033200005022001C0B2FFF7AEFF0543280080B2BE
:1033300032BD00B5002101210200D2B21209D2B281
:103340000300DBB25B09DBB2D2180300DBB29B09DE
:10335000DBB2D2180300DBB2DB08DBB2D2180A40C2
:10336000002A51D00200D2B21209D2B20300DBB25D
:103370005B09DBB2D2180300DBB2DB09DBB2D21887
:103380000300DBB29B08DBB2D2180A40002A1DD032
:103390000200D2B21209D2B20300DBB29B09DBB247
:1033A000D2180300DBB2DB09DBB2D2180300DBB2B8
:1033B0005B08DBB2D2181140002903D001001020B5
:1033C00048406EE00100202048406AE00200D2B28E
:1033D0001209D2B20300DBB29B09DBB2D2180300A0
:1033E000DBB2DB09DBB2D2180300DBB25B08DBB275
:1033F000D2181140002903D001004020484050E07D
:103400000100082048404CE00200D2B21209D2B2BA
:103410000300DBB25B09DBB2D2180300DBB2DB09CD
:10342000DBB2D2180300DBB29B08DBB2D2180A4031
:10343000002A1DD00200D2B21209D2B20300DBB2C0
:103440009B09DBB2D2180300DBB2DB09DBB2D21876
:103450000300DBB25B08DBB2D2181140002903D0B5
:103460000100802048401CE001000420484018E092
:103470000200D2B21209D2B20300DBB29B09DBB266
:10348000D2180300DBB2DB09DBB2D2180300DBB2D7
:103490005B08DBB2D2181140002902D001000220E3
:1034A0004840C0B200BD38B504000021080020002B
:1034B00080B2000AC0B2FFF73CFFF02505402000B3
:1034C000C0B2FFF736FFC0B200092843C0B232BD18
:1034D000124207D08B0706D00B78491C0370401CA2
:1034E000521EF7D87047830706D00B78491C03702B
:1034F000401C521EF9D1704770B4103A03D378C9FA
:10350000103A78C0FBD2530701D318C918C001D5AF
:1035100008C908C0D20704D30B880380891C801C0B
:10352000002A01D50B78037070BC704730B53E4956
:103530003E4A0A603E4A0A603E4900220A60012271
:103540000B681340002BFAD13B4B1C680225254326
:103550001D603A4C00193A4C20601868402404431E
:103560001C60086810400028FBD1186802218843BD
:103570001860186880210143196030BD30B52F4AAA
:10358000821801232B4C206818400028F9D12A48C2
:1035900005681D4305601180216819400029FBD191
:1035A000016801229143016030BD24494018008820
:1035B0007047F8B504000E0017001B481B49016056
:1035C0001B49016000251B48056009E0280080B206
:1035D00002214143715A2000FFF7D0FFA41C6D1C4B
:1035E0002800390080B289B28842EFD312480168BE
:1035F00080220A430260F1BDF8B504000F001500F7
:10360000002609E02000FFF7D0FF310089B2022236
:103610004A43B852A41C761C3000290080B289B2FB
:103620008842EFD3F1BD000004200240230167452A
:10363000AB89EFCD0C2002401020024000C00008F2
:10364000142002408249C0B2022250430818704739
:103650008049C0B202225043081870477E48704724
:1036600010B50400FFF7FAFFC07804402000C0B294
:1036700010BD10B50C00C0B2022804D015D3042828
:103680000DD006D311E0FFF7E9FFC1784C40C470BC
:103690000BE0FFF7E3FFC1780C43C47005E0FFF7D0
:1036A000DDFFC178A143C170FFE710BD10B5040074
:1036B000FFF7D4FF007804402000C0B210BD10B561
:1036C0000C00C0B2002802D0012806D00BE0FFF7A2
:1036D000C5FF01780C43047005E0FFF7BFFF0178D8
:1036E000A1430170FFE710BD10B50400FFF7B6FF5E
:1036F000807804402000C0B210BD10B50C00C0B2EC
:10370000052802D0062806D00BE0FFF7A7FF817836
:103710000C43847005E0FFF7A1FF8178A14381701D
:10372000FFE710BD10B50400FFF798FF4078044094
:103730002000C0B210BD10B50C00C0B2072802D0E6
:10374000082806D00BE0FFF789FF41780C4344704E
:1037500005E0FFF783FF4178A1434170FFE710BD0B
:1037600038B5012420003D48006880210840C00988
:103770000100C9B2002927D0394902000B78D2B222
:103780009A420ED0374A13885B1C13801388152B7E
:1037900005D300231C001480334A137008700020E6
:1037A00032BD0120FFF7A0FF002809D02F48018873
:1037B000491C018000882E49884201D32D4804709D
:1037C000002028490880EAE7254902000B78D2B298
:1037D0009A420BD0234A13885B1C13801388152B45
:1037E000DDD30023138008700120D9E71E49087833
:1037F0000028D4D11B480288521C028002881C4B2E
:103800009A42CCD30C70D44901800024200017497F
:1038100008800120FFF768FF002817D015480178BD
:10382000002905D0047010210520FFF766FF0BE08A
:10383000FEF704FC851C082122002800FFF78AFC03
:1038400010210520FFF759FF0320A9E70220A7E771
:10385000BC740008CC740008580D0020100000480B
:10386000D80100206A0D00207A0D00206C0D002088
:10387000720200007B0D0020F0B589B007000D003A
:103880003800FFF737F9060030780007000F694667
:10389000087004A81421FFF76DFC0024FEF78CFAD1
:1038A000FF210822101A014130784006400E814263
:1038B00000DA01242E003800FFF7FDF80100300087
:1038C000FFF716F8002200213000FFF718F8032256
:1038D00001213000FFF713F83800FFF726F9112512
:1038E0002A0004AF01003800FEF74CFAE4B2002CC5
:1038F00029D068461021FFF73DFC0222012130004B
:10390000FEF7FDFF05213000FFF73AF8FEF74AFA0F
:103910000422011D6C462000FEF734FA082204A898
:10392000811D6846041D2000FEF72CFA052069461B
:1039300008733000FFF7A4F804000D226946200048
:10394000FEF720FA3AE0684600780400E407E40F46
:103950000120FFF785FE844203D010210720FFF7E6
:10396000EAFE0023002200213000FFF70BF80400DC
:103970002A0004A92000C0B23518ED1E2800FEF769
:1039800001FA01220C212000C0B23018FFF73AF8EA
:10399000241801220D212000C0B23018FFF732F8A0
:1039A000241801220E212000C0B23018FFF72AF897
:1039B0002018C11FC9B23000FEF7E2FF09B0F0BD08
:1039C00038B505000C002800FFF794F800780006D1
:1039D00005D421002800FFF74FFF012000E0002060
:1039E00032BD7FB5040001A800220260002005005E
:1039F00002AA002313608A7952073CD588710120FE
:103A0000FFF72EFE002805D068460079012101430A
:103A1000684601710420FFF71BFE022201A94D1C1C
:103A200001002800FEF7AEF9FDF766FD411C2000FD
:103A3000FEF75EFF032201212000FEF760FF002257
:103A400001212000FEF75BFF0123032201A92000D2
:103A5000FEF798FF0A380100C9B22000FEF790FF78
:103A60002000FEF71DFF0400FF210820FFF763FE82
:103A70002000C0B23BE08A79520637D502006B467F
:103A80001A70887100216846FEF7FCFA002801D000
:103A900001202CE0FEF7D2FA69460978082251434A
:103AA0004018861C042202A93000FEF7B3FA002851
:103AB00005D1FF210820FFF73EFE012017E001207D
:103AC000FFF730FE002807D00120FFF7C9FD0028CE
:103AD00002D02800012505432A00D2B2210030007F
:103AE000FEF746FEFF210820FFF725FE002004B068
:103AF00070BD10B5040000202000C0B201280CD118
:103B0000FFF72EFEC0B2022806D12100C9B205205F
:103B1000FFF7F3FDFEF765FD10BDFDE780B5817988
:103B2000490705D44079002802D10120FFF7E1FFC1
:103B300001BD00B5C0B201280CD1C9B2002904D022
:103B4000802000020549086003E08020000204494B
:103B50000860FFE700BD0000710200001804004883
:103B6000280400487FB506000C0068460C21FFF7CA
:103B700001FB2000C0B2FFF7D5FD00280BD12000CB
:103B8000C0B2FEF730F9102181400800C0B2FFF743
:103B9000C9FD002843D02000C0B2FEF724F901007F
:103BA000102528008840C0B2FFF7BCFD002805D0D2
:103BB000FEF7FCF8002801D0012030712100C9B2C5
:103BC0000220FFF756FD2000C0B2FFF749FD69460D
:103BD00008702100C9B26846FEF718FE2000C0B286
:103BE000FEF701F985402900C9B20820FFF7A3FDBF
:103BF000012070712000C0B2012810D16846017800
:103C00002000C0B2FFF795FFD024A4012000FFF7E9
:103C10008DFC052269462000FFF7CBFCFFE77FBD46
:103C200080B58179490702D40121FFF79BFF01BDCF
:103C300010B504006079002807D06079401C6071DD
:103C400060790D2801DB00206071207900280FD0F9
:103C50002079401C207120797E2809DB002020710A
:103C6000FEF7A4F8002803D0A07904210143A17134
:103C700010BD10B504002000FFF750FF2000FFF733
:103C8000CFFF10BD9248704710B5002404E00A220F
:103C9000002301F0BAFD641C0029F8D10028F6D1F8
:103CA0002000C0B210BDF2B588B00300002202921D
:103CB0000020002104000D0004000D0004AC03C42A
:103CC000083C042202AC19002000FEF75BF80298C1
:103CD0000021FFF7D9FF04005AE00298FDF79AF996
:103CE00006000F002000C0B2401EFDF7A3F902003D
:103CF0000B0000207749FCF783FD02000B00300029
:103D00003900FDF7A1F9FDF75BF905002000C0B20D
:103D1000401EFDF78FF902000B0000206849FCF7F8
:103D20006FFD01F0A7FD06AA03C2083A2000C0B249
:103D3000401EFDF77FF902000B0000206549FCF7EB
:103D40005FFD01F097FD06000F0004A803C8009076
:103D500001912800C0B2002106AA0CCA01F0B4FDEE
:103D6000009A019B8018594104AA03C2083A02989C
:103D70000021009001912800C0B2002132003B00D8
:103D800001F0A2FD009A019B121A8B410292641E5F
:103D90002000C0B20028A0D1089C062204A920005F
:103DA000FDF7F0FF09B0F0BD1CB569460022002305
:103DB0000CC108396946FFF776FFFFF763FF04007F
:103DC000062269462000FDF7DDFF43480168012215
:103DD0000A43026013BD78B5AFB006000D001400B1
:103DE0006846BC21FFF7C6F9684601F086FD310040
:103DF000684601F085FD684601F089FD112168469D
:103E000001F088FD2100C9B2684601F085FD22005D
:103E1000D2B22900684601F081FD684601F086FDB6
:103E20002E4A0C342100C9B2684600F0E1F930B0E6
:103E300070BD10B58AB004000020002108AA03C29A
:103E4000083A20A003C86A4603C2083A02A814210F
:103E5000FFF790F902A801F050FD210002A801F03F
:103E60004FFD02A801F053FD932102A801F052FD7D
:103E7000062102A801F050FD0622210008AC200016
:103E8000FDF780FF68460CC8083808A803C88018EA
:103E900059416A4603C2083A0622694602A801F05F
:103EA0003DFD02A801F042FD0848C079AA28FBD1D7
:103EB0000A4A122102A800F09BF90AB010BD0000C6
:103EC000000030403333333333330000140A002012
:103ED000080D00200000244000380140D40A0020D2
:103EE0001CB5040068465C490A78027020780D28E9
:103EF0001BD1002020706178A01CFEF7A3FC0028D5
:103F00000DD1A078682804D101210020FFF7D7FB4C
:103F100018E0B648016820220A43026012E0B34864
:103F2000016820220A4302600CE001F01CFCBD493C
:103F3000884207D3002001F019FCBB4A01216846E2
:103F400000F057F813BD00B50A78002A0AD0082AF5
:103F500012D0092A14D00A2A23D00B2A2FD00C2AD7
:103F600036D045E00200D2B2682A04D18870012020
:103F70008873082008703BE0C8700920087037E09B
:103F80000200D2B2002A06D1002008710B2008706E
:103F90000320487004E008710A200870032048706C
:103FA00026E04A788A1890704878401C4870487813
:103FB0000A79D21C904201DB0B20087018E04A7885
:103FC0008A1890704878401C48700C2008700FE0E8
:103FD0004A788A1890704878401C48708348026874
:103FE00020239A430260002088730D200870FFE7A9
:103FF00000BD38B514002278002A01D0012011E05C
:104000006170C9B2E51C0A0001002800FDF7BAFE84
:104010000020A070012020707448016880220A43AB
:104020000260002032BD00B5010000200A78012A9C
:1040300010D188780818C0788A78521C8A708A78DB
:104040004B789A4206D302220A708A490A68802372
:104050009A430A60C0B200BD1875000838B5040064
:1040600020780A2828D10020207061780C39C9B244
:1040700020000C30FEF7E6FB00281BD1012001F0E8
:1040800070FCFDF739FA62780C3A21000C3105001A
:104090000E352800FDF776FEFDF72EFA61780C3913
:1040A0004173FFF7EFFD01210173FDF731FA01F0D4
:1040B0007FFA01E000F0D2F831BD10B50A78002A8D
:1040C0000ED0022A31D023D3042A36D031D3062A87
:1040D00049D039D3082A64D04FD3092A6ED083E05F
:1040E0000200D2B2682A08D1887001221300BE24CF
:1040F0000B5513000B70604B1A700200D2B2FE2AEF
:1041000005D1887001205C4A1070082008706BE0AF
:10411000594A1378CB1898701078401C107010789A
:10412000072801DB022008705EE048720320087057
:104130005AE088720420087056E0C87205200870A2
:104140000A204D4908704FE04B4A1378CB189870FD
:104150001078401C10701078CA7A0A32904201DB45
:104160000620087040E0444A1378CB189870107805
:10417000401C10700720087036E03F4A1378CB18B7
:1041800098701078401C1070107848700020BE2283
:1041900088540A2008703948016820229143016040
:1041A00022E0354A1378CB1898701078401C1070B4
:1041B0001078052801DB0920087015E00200D2B252
:1041C000AA2A0CD12C4A1378CB1898701078401C6E
:1041D00010700020BE2288540A20087003E00020DE
:1041E000BE2288540870FFE710BD00000044004064
:1041F00038B514002278002A01D0012011E0617046
:10420000C9B2E51C0A0001002800FDF7BBFD002033
:10421000A070012020701948016880220A430260C2
:10422000002032BDE9030000480D002000B5010068
:104230000A78012A10D188780818C0788A78521C28
:104240008A708A784B789A4206D300220A700B490A
:104250000A6880239A430A60C0B200BD80B5FFF7A8
:1042600011FD002101730548016820220A43026004
:1042700001BD0000004400408A0D002000380140CC
:10428000C8487047F8B50024230000E05B1C1D00FF
:10429000EDB2022D21DA01258326F600875D2E007E
:1042A0009E403742F2D18326F600865D9D4035431D
:1042B0008326F60085551D00EDB2832676007543F2
:1042C0004519AB706A70D2B2EE1C3000FDF75AFD92
:1042D000822040002C5202202870F1BDF0B587B03A
:1042E00007000E003800FEF705FC040002A81421A8
:1042F000FEF740FF68460021002206C00838002073
:10430000FDF750FD05003800FEF79DFB0422291D36
:10431000FDF780FE002800D08EE0FDF745FD142259
:104320000100E01CFDF776FE00282ED0FDF73CFDD5
:104330001022E11C05002800FDF724FDFDF734FDE7
:10434000032221001331050010352800FDF71AFD66
:10435000A57D2800C0B2002803D12800C0B2FF28E4
:1043600002D0FDF721FDC574FDF733FD0120FDF7F7
:1043700020FDFFF785FF8C4901224254FDF7D3FD54
:1043800001F060F80A2001F066F8032221006C4673
:104390002000FDF7F7FC68460121C1700221017180
:1043A0001124210041713800FEF785FB0100300027
:1043B000FEF79EFA002200213000FEF7A0FA032249
:1043C00001213000FEF79BFA3800FEF7AEFB220019
:1043D00002AD01002800FDF7D5FC01230622694645
:1043E0003000FEF7CFFA05003000FEF783FB220015
:1043F00002A9841D2000FDF7C5FC01220C21280024
:10440000C0B23018FEF7FEFA2C1801220D21200050
:10441000C0B23018FEF7F6FA241801220E2120004F
:10442000C0B23018FEF7EEFA2018C11FC9B2300032
:10443000FEF7A6FA012000E0002007B0F0BD10B59D
:104440000023180000E0401C0200D2B2022A13DA56
:104450000200D2B28324640062438A181478002CCC
:10446000F1D013708320C000085C01239278934040
:1044700098438322D200885410BDFEB50600002563
:104480002C0099480818019098480818029000A834
:10449000801C00210180280000F076FF9449096803
:1044A0004A79411D029F3800FDF76CFC01212A006A
:1044B000019D2800FEF74EFE3000FEF71BFB022296
:1044C000411C00ADAD1C2800FDF75CFC0420FFF78B
:1044D000BFF80222010000A8801CFDF79BFD002808
:1044E00005D101993000FFF76BFA04000FE00020BE
:1044F000FFF7A8F80222010000A8801CFDF78AFD42
:10450000002804D101993000FFF7E8FE0400E4B26E
:10451000002C46D00198FEF7C3F969460870FFF7F2
:10452000B1FB007B002808D0FFF7ACFB69460A7896
:1045300092B20199801DFFF74EFC0020FFF782F830
:1045400004003000FEF7D6FA02222100401CFDF7DD
:1045500061FD002810D006213000FEF776FA002811
:1045600006D101236A4668460178019800F0D2F925
:1045700000F00CFF040000E00A24FEF7E3FA6946AD
:104580000B78019A01000298FDF761FA69460870FC
:1045900000F0FAFE69460B78029A2100C9B200F0D9
:1045A00077FFF7BDDC01002019040000F8B50F20EB
:1045B000FFF77CF806000024FCF7AAFF0500FCF7D3
:1045C0009BFF07000D373000C0B2002827D0300015
:1045D000C0B2012808D1C8480078002800D082E085
:1045E000C648FDF7BDFC06E0F6B2022E03D1390045
:1045F0002800FDF778FD0F210120FFF760F80A2061
:1046000000F029FFFCF778FF88214900002242547E
:10461000FFF724FEBA48016820220A430260F02016
:10462000FFF744F800285ED00020FFF70BF80600E3
:104630002800FEF75FFA02223100401CFDF7EAFC79
:10464000002835D000F0A2FE01003A78C9B2280057
:10465000FEF700FD002846D1FDF7A8FB002813D087
:10466000FDF7A0FB0422011D681CFDF7D3FC002808
:104670000BD1FFF705FEA34901224254FFF700FECC
:10468000A1490022425200E0012400233A00397877
:10469000280000F03FF9E4B2002C11D0F0210120F5
:1046A000FFF70DF80A2000F0D6FEFFF7D7FD1AE05D
:1046B0003A780A212800FEF7CDFC0028EBD012E062
:1046C000280000F017F8F0210120FEF7F8FF002085
:1046D000FCF716FF8D480078052802D00A2000F06C
:1046E000BAFEFFF7BBFDF1BD1C0400000F02000085
:1046F000D401002038B5040007212000FEF7A5F9F9
:10470000002826D104212000FEF79FF9002814D1AB
:10471000FFF7B8FA007B002808D0FFF7B3FA0500CE
:104720002000FEF7C8F9A91DFFF7BDFAFFF7A8FDA5
:1047300001002000FFF7A1FE0BE004212000FEF79E
:1047400084F9012805D1FFF79BFD01002000FFF748
:1047500076FE31BD10B500210A000A008323DB007C
:10476000C2540A000FE01300DBB2832464006343E9
:10477000C3180C009C700C005C70822464001953F8
:104780000C001C70521C1300DBB2022BEBDB10BDC3
:104790007CB504005E4825180022100069460870A8
:1047A000802149002E003000FEF7D4FCFEF756FFB2
:1047B00001002800FFF715F969460870684600787F
:1047C000002825D02000FFF7C5FF01236A46684670
:1047D0000178280000F09EF8684601782800FDF76F
:1047E000CFF969460870FCF793FE05006846027829
:1047F00029002000FFF746FD00F0C8FD040000F08E
:10480000C3FD69460B782A002100C9B200F040FEC2
:1048100073BDFEB53D49097805296BD000252900F7
:10482000060000E0491C0800C0B2022862DA080055
:10483000C0B2832252005043341820780028F1D0AF
:1048400082204000205A401C82225200A052822026
:104850004000205A3F28E5DB2800822149006052B1
:1048600000F094FD070000F08FFD6378E21C390032
:10487000C9B200F00DFE2078401E2070C0B20028A2
:1048800038D18320C000305C0121A2789140884358
:104890008321C90070546846057001A800210022D8
:1048A00006C0083800236A4660781238E17C401A56
:1048B000011FC9B22000153000F02CF8FFF7E2F913
:1048C000062201A9801DFDF7A5FB002808D1FFF7EE
:1048D000D9F90500FCF710FEA91D401CFFF7E3F90C
:1048E000FFF7D0F969460A7892B221001531801D90
:1048F000FFF771FAF7BD0000480D00203A0D0020C7
:1049000000440040190400001A040000860D002035
:104910001C040000F7B505001F002800FEF7AEF8E4
:10492000694608701024684600782100FEF751FCA3
:104930000600684600782100FEF74BFC68460170CF
:10494000002423E0714A2000C0B2102148432818F7
:10495000C11D2000C0B2102358432818C01D00F00C
:10496000A1FC12E03800C0B20028EBD0674A20005A
:10497000C0B2102148432818C11D2000C0B2102326
:1049800058432818C01D00F01BFC641C2000310097
:10499000C0B2C9B28842E5D3684604796846007857
:1049A000002841D0FFB2002F2BD0002001000DE0E5
:1049B0003200D2B210235A436B461B78D2180B0038
:1049C000DBB2D218AA180300D371491C0B00DBB26A
:1049D00010226F463F78D21B9342E9DB4B4A3000EE
:1049E000C0B2102148432818C11DF6B2102046431A
:1049F000A819C01D00F0E4FB103468460078241AA2
:104A000012E0424A3000C0B2102148432818C11DAC
:104A1000F6B210204643A819C01D00F043FC6846BA
:104A200000782418103CFFE72000C0B203281BDBED
:104A3000029E2000C0B2C11E89B22800FEF75CFBB6
:104A4000010089B2090A2200D2B2AA18D21E11703E
:104A50002100C9B26918891E087053202100C9B20B
:104A60006918491E08703470F7BDF0B585B00400B0
:104A7000264803900100103102910100213101917B
:104A8000343004901025290000263200019F3800A0
:104A9000FEF760FB29003200039F3800FEF75AFB47
:104AA000112739003200029800900098FEF752FB5F
:104AB000009839003200049E3000FEF74BFB2A00BC
:104AC0001349039E3000FDF75DF92A001149029851
:104AD000451C2800FDF756F913220F49019D2800B7
:104AE000FDF750F902980090049B039A0199200069
:104AF00001F0A9F90198007CE0700198407CE07118
:104B00000198807CE07205B0F0BD0000940B00209D
:104B10009C740008AC740008640C002010B50200FE
:104B2000002318001C001C000EE0CC0700D55040EC
:104B3000802414405200E4B2002C02D014001B2246
:104B40006240C9B249085B1C1C00E4B2082CECDBD3
:104B5000C0B210BD10B403780C785C401470437878
:104B60004C785C40547083788C785C409470C0784A
:104B7000C9784140D17010BC7047F4B507000E00F1
:104B800031783878FFF7CAFF04007178F878FFF7BA
:104B9000C5FF0500B178B878FFF7C0FF0100654098
:104BA00069400C00F1787878FFF7B8FF21004840A1
:104BB0000099087031787878FFF7B0FF04007178B9
:104BC0003878FFF7ABFF0500B178F878FFF7A6FF5C
:104BD0000100654069400C00F178B878FFF79EFF4E
:104BE00021004840009948703178B878FFF796FF67
:104BF000040071787878FFF791FF0500B178387874
:104C0000FFF78CFF0100654069400C00F178F878EF
:104C1000FFF784FF21004840009988703178F878C8
:104C2000FFF77CFF04007178B878FFF777FF050085
:104C3000B1787878FFF772FF0100654069400C0099
:104C4000F1783878FFF76AFF210048400099C87072
:104C5000F1BD38B50100C9B2012903D10120C34912
:104C6000087013E00100C9B202290FDBBF4C02211A
:104C70002170451E05E002212078FFF74FFF2070CC
:104C80006D1E2800C0B2401E0128F4DAB74832BDBC
:104C9000F0B500234DE01C00E4B2045D1500EDB258
:104CA000102675431E00F6B204277E43AD194D5DF4
:104CB00065401C00E4B205551C00E4B204192479D7
:104CC0001500EDB2102675431E00F6B204277E4390
:104CD000AD194D196D7865401C00E4B204192571B9
:104CE0001C00E4B20419247A1500EDB210267543B5
:104CF0001E00F6B204277E43AD194D19AD7865400C
:104D00001C00E4B2041925721C00E4B20419247BCF
:104D10001500EDB2102675431E00F6B204277E433F
:104D2000AD194D19ED7865401C00E4B204192573E6
:104D30005B1C1C00E4B2042CADDBF0BD7FB50500AC
:104D400002A8B4490A6802600026340011E001009C
:104D5000C9B2042251432200D2B289186A46030024
:104D6000DBB2D25C6A54401C0100C9B20429EEDBFC
:104D7000641C2000C0B2042819DA30000CE00100E5
:104D8000C9B2042251432200D2B28918695C01AA37
:104D90000300DBB2D154401C0100C9B20429EEDB90
:104DA0006A4601A902A8FFF7E8FE3000DCE77FBDF4
:104DB0007FB5050002A898490A6802600026340001
:104DC00011E00100C9B2042251432200D2B2891875
:104DD0006A460300DBB2D25C6A54401C0100C9B2CF
:104DE0000429EEDB641C2000C0B2042819DA30006C
:104DF0000CE00100C9B2042251432200D2B289184A
:104E0000695C01AA0300DBB2D154401C0100C9B2A5
:104E10000429EEDB6A4601A902A8FFF7AEFE3000C6
:104E2000DCE77FBDF0B5012100E0491C0A00D2B2E9
:104E3000042A2CDA00221DE00D00EDB20426754391
:104E40001E00F6B2AD1945196D1E0E00F6B204270C
:104E50007E431F00FFB2F619865D2E705B1C1D009D
:104E6000EDB2042DE8DB0B00DBB204256B43C31865
:104E7000DC70521C13000C00DBB2E4B2A342D4D2AB
:104E80000B00DBB204246343C45C0123E7E7F0BDFD
:104E9000F0B5012100E0491C0A00D2B2042A2CDA44
:104EA00000221CE00D00EDB2042675431E00F6B290
:104EB000AD190E00F6B204277E431F00FFB2F619AB
:104EC0008619761E367846555B1E1D00EDB2002D04
:104ED000E8D10B00DBB204256B43C454521C130011
:104EE0000C00DBB2E4B2A342D5D20B00DBB2042447
:104EF0006343C318DC780323E7E7F0BDF0B5002176
:104F00000A002BE01400E4B204256C431D00EDB24E
:104F10006419045D2600F6B236091400E4B20425D3
:104F20006C431D00EDB26419045D2407240F1500C5
:104F3000EDB204277D431F00FFB2EF19374DAC4699
:104F4000F6B210256E43E4B2341965462C5DC455A3
:104F50005B1C1C00E4B2042CD4DB521C1300DBB23B
:104F6000042B01DA0B00F4E7F0BD00000000002084
:104F7000F0B500210A002BE01400E4B204256C43D4
:104F80001D00EDB26419045D2600F6B23609140066
:104F9000E4B204256C431D00EDB26419045D2407DE
:104FA000240F1500EDB204277D431F00FFB2EF1957
:104FB0001B4DAC46F6B210256E43E4B2341965467B
:104FC0002C5DC4555B1C1C00E4B2042CD4DB521CC9
:104FD0001300DBB2042B01DA0B00F4E7F0BD10B5CF
:104FE000002111E00D4A0B00DBB2C35C1B11102441
:104FF00063430C00E4B2045D2407240F1B19D25C48
:105000000B00DBB2C254491C0A00D2B2042AE9DB0D
:1050100010BD0000F8740008FC740008AC700008B3
:10502000AC71000810B50178002207E01300DBB274
:10503000C3185B781400E4B20355521C1300DBB2B2
:10504000032BF3DBC17010BDFEB50E002C216A46A8
:10505000117000212EE00A00D2B204235A43825C70
:105060000B00DBB204246343F2540A00D2B20423DF
:105070005A43821852780B00DBB204246343F318BE
:105080005A700A00D2B204235A43821892780B0055
:10509000DBB204246343F3189A700A00D2B20423EB
:1050A0005A438218D2780B00DBB204246343F3180E
:1050B000DA70491C0A00D2B2042ACCDB04273C0077
:1050C00077E03AE001AD2000C0B204214843301837
:1050D000001F007828702000C0B204214843301817
:1050E000C01E007868702000C0B204214843301808
:1050F000801E0078A8702000C0B2042148433018F8
:10510000401E0078E8702000C0B23900FEF761F858
:105110000029D6D101A8FFF785FF01A8FFF75FFF9F
:105120002000C0B23900FEF754F8C0B2FFF791FD7D
:1051300001AA010001A8FFF70DFD2000C0B2042163
:105140004843301810380078297841402000C0B218
:105150000422504331542000C0B204214843301887
:105160000F380178687848402100C9B204225143C1
:10517000711848702000C0B20421484330180E381E
:105180000178A87848402100C9B20422514371181F
:1051900088702000C0B20421484330180D380078D0
:1051A000E97841402000C0B2042250433018C17059
:1051B000641C200069460978C0B2884282D3F7BDDA
:1051C000F1B586B00D00002630001DE002AC0300F2
:1051D000DBB204277B430F00FFB2DF190097019475
:1051E000069F0300DBB29C460C00E4B204235C4340
:1051F00063461B19FB5C019C009FE355491C0B0097
:10520000DBB2042BE2DB401C0100C9B2042901DA45
:105210003100F4E717000022390002A8FFF738FD3B
:1052200001240FE002A8FFF769FE02A8FFF7FAFDCC
:1052300002A8FFF783FD2200D2B2390002A8FFF7CF
:1052400027FD641C2000C0B20A28EBDB02A8FFF790
:1052500055FE02A8FFF7E6FD0A22390002A8FFF773
:1052600017FD300016E00200D2B20B00DBB20424BE
:105270006343D21802AB0400E4B204277C430F005E
:10528000FFB2E4191B5DAB54491C0A00D2B2042AD8
:10529000E9DB401C0100C9B2042901DA3100F4E75E
:1052A00007B0F0BDF1B586B00D00002630001DE05E
:1052B00002AC0300DBB204277B430F00FFB2DF190F
:1052C00000970194069F0300DBB29C460C00E4B2F9
:1052D00004235C4363461B19FB5C019C009FE35560
:1052E000491C0B00DBB2042BE2DB401C0100C9B2FD
:1052F000042901DA3100F4E717000A22390002A874
:10530000FFF7C6FC09240FE002A8FFF7C1FD02A8C1
:10531000FFF72EFE2200D2B2390002A8FFF7B8FC38
:1053200002A8FFF745FD641E2000C0B20028EBD1A3
:1053300002A8FFF7ADFD02A8FFF71AFE0022390010
:1053400002A8FFF7A5FC300016E00200D2B20B0065
:10535000DBB204246343D21802AB0400E4B2042796
:105360007C430F00FFB2E4191B5DAB54491C0A00DB
:10537000D2B2042AE9DB401C0100C9B2042901DAD7
:105380003100F4E707B0F0BD8448704784480078E6
:105390007047C0B283490880704700208149088067
:1053A000704780480088C0B2704710B5002402E002
:1053B000641C00F00CFE7B480088002803D020000D
:1053C000C0B20628F4DBFFF7E8FF10BD38B50400D3
:1053D000684600210160FCF7E7FC03220100103160
:1053E0006D462800FCF7CEFC6846017842788918A3
:1053F00080780D18FDF7A6FBFDF770FC002D0ED18F
:1054000069480100C9B289080007000F48402070B0
:1054100020780A2810D12078801C20700CE0280009
:10542000C0B280082907090F4140217020780A285E
:1054300002D12078801C20705C482178405CBB49F8
:10544000087031BD80B55648FFF7C0FF00F0BFFDC2
:10545000FFF7ABFF01BD80B580214900B44A116060
:1054600080218900B34A11600100C9B2422900DBE2
:105470004120DC214D4AC0B2105C00F078FE0120D2
:10548000AD49087000F086FD00F088FD002002BDE7
:10549000F8B51C002300DBB2FC2B00DBFB240E0064
:1054A0003100C9B2422900DB4126009205002200EA
:1054B000D2B20099FF20801D2F183800FCF762FC43
:1054C0002200D2B2FF20801D29180098FCF7DCFBD7
:1054D0000100091D6970AE7001242100E97069782E
:1054E000AA784A40E9785140297180214900914ABF
:1054F0001160802189008E4A1160001D0200D2B225
:10550000FF20801D29182948F6B2805D00F04BFE6F
:1055100005208949087089482C5400F037FD002087
:10552000F2BDF8B50E0011001D002A00D2B2FC2A0F
:1055300000DBFB253200D2B2422A00DB4126040008
:105540002A00D2B2FF20801D27183800FCF71AFC71
:105550002800001D6070A6700120E0706078A178BE
:105560004140E07848402071802040007149086047
:10557000802080006E4908602D1D2A00D2B2FF20D5
:10558000801D21180948F6B2805D00F00CFE052050
:105590006949087000F0FAFC0020F2BDF80600200E
:1055A000850D0020720D0020FD0200002C73000804
:1055B00080B50721FDF749FA002804D11021002009
:1055C000FEF77DF803E020210020FEF778F801BD0A
:1055D000F8B504005A4F3888401C3880388859493B
:1055E000884223DB684658490A880280002001006F
:1055F000398056490A78022A08DB08700120FFF733
:10560000C8FE8020C001524908608EE00878401C26
:10561000087049480078052808D0FFF7B7FE010058
:1056200002236A46C9B22000FFF77BFF424D28786B
:10563000032816D0042802D0062808D075E00220DE
:1056400000F0B7FE00F08BF8012028706DE0002418
:105650002000287000F083F83C800A20FFF7FBFE52
:1056600063E0002630002870012000F07AF900F095
:1056700076F83E80374800684179601DFCF762FB90
:10568000C0B2012806D1002000F06BF90A20FFF714
:10569000E2FE4AE0601DFCF796FA01252800601D35
:1056A000FCF721F90100C9B201290FD00100C9B2EC
:1056B000022902D0C0B2032804D102210020FDF744
:1056C000FEFF32E00A20FFF7C6FE2EE0FBF714FFD4
:1056D00087214900405CC0B280090540EDB2002D31
:1056E00010D0002000F03DF9FBF706FF0400FBF7A7
:1056F00003FF872149006118FF221032805CFDF70B
:105700006BFC12E0FBF7F8FE0400FBF701FF617B86
:10571000FDF798F8002804D1FBF7FAFEFFF748FFE1
:1057200002E00A20FFF797FEFFE7F1BD6D010020C0
:105730002804004818040048860D002005020000D7
:10574000740D0020993A0000BE0F0008870D00205C
:1057500018080048D4010020244800887047002021
:105760002249088070472248006870472049086035
:10577000704738B51F4820490860204C2068042134
:105780000143216000201E4908606846FF21017026
:1057900001252900417029008170684600F058FEFB
:1057A000206802210143216020680543256031BD46
:1057B00000B50F4A116813685B1A8342FBD300BD22
:1057C00000B50B480168491C016008490A88002A95
:1057D00002D00A88521C0A8000684007400F002847
:1057E00002D101200749087000BD00006E0D0020A5
:1057F000640D002080BB000014E000E010E000E039
:1058000018E000E07C0D00207047124224D099423D
:1058100028D970B500251B4202D00C00002109E0F8
:105820000024012649186441944200D3A41A764109
:10583000F8D33100012601E0764109D20018644115
:105840006D41A41A9D41F7D2A4185D41B619F5D354
:10585000300022002B0070BD1B42D8D108B500F0EB
:105860002FFE08BD01D19042D3D202000B000021CF
:1058700000207047491824D24A0D40231B01D21A38
:105880000123DB071E3A09DC5242202A19DA890279
:10589000400D084318430021D04070475242203247
:1058A0000CD489021943430D1943C002D0400B00A8
:1058B000D341D1404840584009427047D817D917C2
:1058C000704700200021704730B4434351435D18B6
:1058D000010C0C00130C5C432D1980B2434392B2AF
:1058E00051430024C918644124040B04090C09190C
:1058F0005043C018694130BC70476821017070473F
:1059000010B50622441C2000FCF73CFA10BD6821AB
:10591000C1717047017270474172704710B5D2B2C1
:1059200004000A342000FCF72DFA10BD10B5002247
:10593000110004E01300DBB2C35CC918521C130051
:10594000DBB2447A0A34A342F4DB427A82189172C1
:105950001621427A8018C17210BDFEE77F48007898
:1059600070477E49087070477D4801688022920226
:105970000A4302600C20C0439021C9050A68024016
:105980000A600A68042313430B6076490A680223FD
:105990009A430A600A680A6073490A6802400A600A
:1059A0000A680A6071490A6810400860086808605F
:1059B00002206F490860704769480168802212031D
:1059C0000A4302606B486C490A6802400A600A6830
:1059D00080235B0513430B6068490A68684B1340DA
:1059E0000B600A680A6067490A6802400A600A6830
:1059F0000A6065490A6810400860086808608020ED
:105A0000C001624908607047554801688022D2028F
:105A10000A4302605E485F490A6802400A600A68F9
:105A20008023DB0113430B605B490A6880239A43A0
:105A30000A600A680A6059490A6802400A600A68EE
:105A40000A6057490A681040086008680860704793
:105A5000F0B48020C00242490A6802430A60514BF8
:105A60004C4A14681C401460146880256D0225435C
:105A70001560494C25684C4E2E40266025682560EF
:105A8000464D2E681E402E602E68C027BF02374349
:105A90002F60434E37683B403360336833600B6898
:105AA00003430B60414913680B40136013681843AC
:105AB000106020683E4A024022602068206028680A
:105AC00008402860286828603068014031603068EC
:105AD0003060F0BC7047224801688022D2020A433D
