:020000040800F2
:10000000881800201D480008CD450008CF4500088D
:1000100000000000000000000000000000000000E0
:10002000000000000000000000000000D1450008B2
:100030000000000000000000D3450008D54500087E
:10004000DF46000800000000E3470008EF47000813
:1000500041480008FB450008FD4500082746000808
:1000600000000000DD46000843480008454800083D
:1000700047480008494800084B48000800000000B5
:100080004D480008F9450008000000004F480008EE
:10009000F545000851480008F74500085348000896
:1000A0005548000857480008594800087946000894
:1000B0004146000830B581B00500A14C1021200058
:1000C000213000F00BFE1021200000F007FE11216E
:1000D0002000103000F002FE11212000343000F02A
:1000E000FDFD102212A1200000F0FCFD102200BF37
:1000F00013A12000113000F0F5FD132291492000DA
:10010000213000F0EFFD2000103000902300343348
:10011000220021002131280000F0D8FF313420785E
:10012000E8706078E871A078E87201B030BD000036
:1001300000000000000000000000000000083399EB
:10014000A4D9B2E8347FBEF714FA7432A357C6AD0F
:1001500030B581B004000D001100607980220243A7
:10016000627108784870C878607006226019C01EF5
:1001700000F0B8FDED1CEDB22900200001F048F9B7
:10018000010A61556D1CEDB260556D1C5320EDB236
:1001900060556D1CE8B201B030BDF0B581B004000F
:1001A0000E0030780090AD4F082239001431D00194
:1001B00001F0A7F90025787D042803DB7D7501E0B7
:1001C0006D1CEDB2607885422BDAA80020180099EA
:1001D00002799142F4D10A46F11C401D01F0C8F9A0
:1001E0000028EDD16D1CEDB2002D1AD0012D40D0AC
:1001F000022D08D0032D0CD104222100083120004B
:100200000C3000F06FFD0422211D2000083000F0AA
:1002100069FD00982071009AF11C601D00F062FDDC
:100220001BE004222100083120000C3000F05AFDB0
:100230000422211D2000083000F054FD0098207198
:10024000009AF11C601D00F04DFD6078401C60704C
:10025000C0B2042801DB0320607072B68020C000A9
:1002600001F006F9082214373900D00101F024F911
:1002700062B601B0F0BDF0B581B006000F00140009
:100280000422A749401C01F073F9002824D1F51974
:10029000280009384178491E4170C9B2002907D0A9
:1002A000002C04D00278511A4018C07801E04018A0
:1002B00080787070F91E89B2300001F0A9F8ED1E47
:1002C000010A297068705320A8703B0032009548DD
:1002D0000178954801F08CFA01B0F0BD70B50C00C2
:1002E00092490978002903D0B2206070002015E0FF
:1002F0008F4E2022C11C300000F0F4FC6620342117
:10030000705480252D01280001F0B2F81B22310025
:10031000280001F0D1F8B1206070FF20E070682063
:1003200020700120A0700421200001F071F8010A62
:10033000217160717F4A0621200001F021FD70BD0E
:10034000540F002024100020F0B581B007000C00ED
:100350007878202837D1414D0D223900280001F04E
:1003600007F900281DD0002600207873B873F873B1
:100370003874787401F07CF809223900002001F00B
:100380009BF807222900002001F0BBF80D2239005C
:10039000280001F0EDF8002803D022206070E670FC
:1003A00003E021206070FF20E070682020700120B1
:1003B000A0700421200001F02BF8010A2171607166
:1003C0005C4A06213FE0302841D1244D0722290014
:1003D000002001F096F82878AC281ED068280DD1AE
:1003E0000B263100280001F013F8A919020A0B7836
:1003F0009A4203D1C0B24978884210D0222060705E
:100400000120A0700020E0700421200001F000F81D
:10041000010A21716071062112E00A26E1E731200C
:1004200060700820A0700822E91CE01C00F05AFC53
:100430000B21200000F0ECFF010AE17220730D2176
:10044000682020703B4A200001F09AFC04E0B028AC
:1004500002D13800FFF742FF01B0F0BD3C10002090
:1004600030B581B004002078AC2802D0682802D0D2
:1004700010E0CD1E00E08D1EEDB22900200000F03E
:10048000C7FF6119020A0B789A4203D1C0B24978BA
:10049000884201D0012000E0002001B030BD30B51D
:1004A00081B005000C00AC202870A879DF21014044
:1004B000A9712100280000F0ABFF010A2955641C36
:1004C000E4B22855641C5320E4B22855641CE0B201
:1004D00001B030BD30B581B00400AC2020700322E3
:1004E0009E492000093001F043F8002803D0A0798C
:1004F000DF210140A171E5790835EDB22900200026
:1005000000F086FF010A61556D1CEDB260556D1C4F
:100510005320EDB260556D1CE8B201B030BD000053
:100520004910002087100020980600208410002029
:1005300004100020140E002070B581B006B481B004
:1005400000250021A022D200835C01220226134252
:1005500017D18A401A43A023DB00C2548A005218E4
:1005600092018418A1706846007A60706846027A29
:100570000199E01C00F0B6FB9F2040002552267038
:1005800008E001213342E4D002215C07E1D50321D8
:100590001C07DED504B070BDFCB583B007000E00AB
:1005A000F879002109180905090E01910901401A7D
:1005B000C0B200900198012813DB3D0008350446C5
:1005C0006846007C0028AB4A04D02900280001F0CE
:1005D000D3FD03E02900280001F0A8FF1035641EB8
:1005E000EED10098002827D0019804016846007CCD
:1005F000002817D010200099401A012807DB10208E
:10060000411A009820183818083000F067FB381994
:10061000984A01000831083001F0AEFD103600980C
:10062000361A09E03819934A01000831083001F000
:100630007DFF00983618103EF6B2F11E89B23800E0
:1006400000F0E6FEB919C91E020A0A70487053206C
:10065000887003980670002005B0F0BDFCB585B029
:1006600007000E00F879002109180905090E01910B
:100670000901401AC0B200907879000609D5684691
:10068000007E002805D00622B919093902A800F019
:1006900029FB0198012813DB3D0008350446684614
:1006A000007E0028734A04D02900280001F064FD70
:1006B00003E02900280001F039FF1035641EEED157
:1006C0000098002828D0019804016846007E002880
:1006D00017D010200099401A012807DB1020411A7A
:1006E000009820183818083000F0F8FA3819614AD4
:1006F00001000831083001F03FFD10360098341A2F
:100700000BE038195B4A01000831083001F00EFF98
:1007100000983418103C0FE03400787900060BD5AF
:100720006846007E002807D0062202A9F87938180A
:10073000083000F0D7FAA41DE4B2E11E89B23800F7
:1007400000F066FE3919C91E020A0A70487053206B
:10075000887005980470002007B0F0BD3C48000880
:10076000F0B581B004000F00434D0822E91C0C30A5
:1007700000F0FEFE00287AD14048009004222900B3
:100780000D31601C00F0F4FE00280ED10322009908
:10079000A01C00F0EDFE002807D1102238492000EF
:1007A000143000F0E5FE00284ED00422611C280021
:1007B0000D3000F097FA0322A11C009800F092FA85
:1007C00066206874002000F053FE092229000020F2
:1007D00000F072FE01262B490E702B490E702B4D36
:1007E0001B222900F00200F08CFE1022210014319F
:1007F0002800203000F076FA0322009928003030DB
:1008000000F070FA662035216854F00200F030FEE6
:100810001B222900F00200F04FFE2800FFF74AFCDF
:100820001449280001F0E9FBBE48067060792021D8
:1008300001436171BC4D02F055F8287000F0ACFE28
:10084000287800F0A7FF03E060792021014361715F
:100850000620F8710422083421003800083000F026
:1008600041FA0220387315207873012000E000203F
:1008700001B0F0BD540F00203C1000209406002071
:1008800024100020621000205205002004100020D7
:10089000F0B581B005000E000F2734002078002845
:1008A00018D0207A384069793940884212D1042220
:1008B000691C201D00F05CFE00280BD10020207078
:1008C000A020C000301801780122A3789A409143FB
:1008D000017037E0A02040003418207800280CD0A8
:1008E000207A384069793940884206D10422691C4F
:1008F000201D00F03DFE0028E0D0A020800034182C
:10090000207800280CD0207A384069793940884214
:1009100006D10422691C201D00F02AFE0028CDD03B
:10092000B8013418207800280CD0207A3840697932
:100930000F40B84206D10422691C201D00F018FEA9
:100940000028BBD001B0F0BDF0B587B007000C00A7
:100950001500764826180096787900060AD50622F2
:10096000F8793918083103A800F0BCF903A97048D8
:10097000FFF713FC0322BD493800093000F0F8FDF1
:10098000002804D131003800FFF7EAFE20E00422FD
:10099000B749781C00F0ECFD002800D09EE003224F
:1009A000B4493800093000F0E3FD00280BD13800CD
:1009B000FFF790FD0100B04A380001F0F9F900207E
:1009C000AE4960548AE02A000099380002F004FB26
:1009D000002800D182E00422A5490098401C00F0C4
:1009E00081F9787900994871B8798021014300989C
:1009F00081710098FFF76EFD040000984079800631
:100A00005CD50098C079002109180905090E0291EA
:100A10000901401AC0B2019000984079000606D53D
:100A2000062200980119093905A800F05BF902981F
:100A300001280ADB009D08350646294A29002800BE
:100A400001F09AFB1035761EF7D1019800281AD0D4
:100A50000298050110200199401A012808DB102096
:100A6000411A0098019AAA188018083000F036F947
:100A7000009840191A4A01000831083001F07CFB47
:100A800010340198241A00984079000608D50622EF
:100A900005A90098C379C018083000F023F9A41DF7
:100AA000E4B2E11E89B2009800F0B2FC0099091985
:100AB000C91E020A0A7048705320887078790006AF
:100AC00005D503AA21000098FFF742FB040023008C
:100AD000009A154801786A4800F08AFE07B0F0BD18
:100AE000540F002030B581B0040015001A00A07921
:100AF00098210140102902D0182905D00FE02900C3
:100B00002000FFF721FF0AE004225949601C00F091
:100B10002FFD002803D129002000FFF7B9FE01B006
:100B200030BD000085100020871000200605000061
:100B300050100020F1B584B0524A8718921F8418D3
:100B40002078FF2800D18EE0380002F06FFA0028EC
:100B500000D088E06078401CC0B2102800DB002084
:100B6000607004224249781C00F0BCF860784006AE
:100B7000400E2021014379719820B8713800FFF7A9
:100B8000A9FC0600F879002109180905090E019150
:100B90000901401AC0B200907879000605D50622F6
:100BA000B919093902A800F09DF8019801280ADB5B
:100BB0003D0008350446344A2900280001F0DCFADB
:100BC0001035641EF7D10098002818D00198040150
:100BD00010200099401A012807DB1020411A0098C4
:100BE00020183818083000F079F83819264A010022
:100BF0000831083001F0C0FA10360098361A7879BA
:100C0000000607D5062202A9F8793818083000F046
:100C100069F8B61DF6B2F11E89B2380000F0F8FB93
:100C2000B919C91E020A0A70487053208870082238
:100C30001649D00100F065FC00201549497D0429C2
:100C400001DB134A5075124908754B208884320025
:100C500039000498FFF770FC33003A000D48017822
:100C6000074800F0C5FD05B0F0BD00003848000899
:100C7000491000203C480008940B00200D0500009E
:100C80009806002006050000540F00205010002098
:100C90003C10002087100020094205D0830705D0B2
:100CA0000270401C491EF9D170470000130030B497
:100CB00014001500103902D310393CC0FCD249078A
:100CC00000D30CC000D504C0890002D30280801C70
:100CD000002900D5027030BC704700000022DBE71D
:100CE0000022E3E712420FD0814202D25318984209
:100CF00003D310B502F00CFB08BD80185B1E1978F9
:100D0000401E0170521EF9D1704730B401210022FB
:100D10000368001D002B0BD00468001D0C4202D09C
:100D20004D466D1E64192260241D1B1FF0D0FAE78A
:100D300030BC704777B482B001926846007C009066
:100D40000021039A029B03E0491CC9B25B1C521CA0
:100D5000009CA14208DA1C781578A54204D3AC4265
:100D6000F2D205B070BC70470021019A6B461B7C23
:100D7000002BE5D0029B9B185B1E039CA418641EED
:100D80001E782578AE4206D1002902D0761E751B4A
:100D90000AE0002508E0B54203D2711A4D1B00217C
:100DA00002E0711A4D1B01211D70521ED2B2641E49
:100DB0005B1E002AC4D0E3E7F0B581B00500002433
:100DC0000878002816D10124481C0278002A11D185
:100DD000641C4278002A0DD1641C8278002A09D153
:100DE000641CC278002A05D1641C001DE4B2112CD9
:100DF000EBD31124E4B20E191120021BD2B2310040
:100E00002800FFF797FF012C0ADB771E12210E1B2B
:100E1000F2B239002800FFF78DFF6D1C641EF7D178
:100E200001B0F0BD70B4040000251020012B1CD1CE
:100E300013182618761E36784E4375191E78AD198C
:100E4000ADB21D70401E13182618761E36784E431C
:100E50002D0A75191E78AD19ADB21D702D0A401EF0
:100E6000E6D110784019107025E023185B1E1B781E
:100E70004B435D19ADB21554401E23185B1E1B7801
:100E80004B432D0A5B199BB21354401E25186D1E4F
:100E90002D784D431B0AEB189BB21354401E2518A6
:100EA0006D1E2D784D431B0AEB189BB213541D0A7F
:100EB000401EDAD1157070BC7047F9B585B01600C8
:100EC00000200A001378002B00D0FCE0401C53786F
:100ED000002B00D0F7E0401C9378002B00D0F2E00C
:100EE000401CD378002B00D0EDE0401C121DC0B296
:100EF0001028E7D30024E4B2081B1030049011211D
:100F00003000FFF7EBFE002069460871641E039471
:100F10000398012800DAACE0049802900298017866
:100F2000002310203218059C2418641E24784C439A
:100F3000E31814781B199BB21370401E3218059CDD
:100F40002418641E24784C431B0AE31814781B19D8
:100F50009BB213701B0A401EE4D13078C018307069
:100F6000002406980078002817D101240698401C18
:100F70000178002911D1641C417800290DD1641C2D
:100F80008178002909D1641CC178002905D1641C2D
:100F9000001DE4B2112CEBD31124E4B20698001921
:100FA00000901120021BD2B200993000FFF7C2FE60
:100FB000012C0BDB350012210F1BFAB20099491EE0
:100FC0002800FFF7B7FE6D1C641EF6D13000042127
:100FD0004278027082784270C27882700279C27060
:100FE000001D491EF4D100203074002406980078BA
:100FF000002817D101240698401C0178002911D13E
:10100000641C417800290DD1641C8178002909D124
:10101000641CC178002905D1641C001DE4B2112CA8
:10102000EBD31124E4B20698001900901120021BA2
:10103000D2B200993000FFF77DFE012C0BDB3500AA
:1010400012210F1BFAB20099491E2800FFF772FE09
:101050006D1C641EF6D168460079401C6946087113
:101060000298401C0290684600790399884200DA91
:1010700054E7049869460979415C0023102032182E
:10108000059C2418641E24784C43E31814781B191B
:101090009BB21370401E3218059C2418641E2478DD
:1010A0004C431B0AE31814781B199BB213701B0ADC
:1010B000401EE4D13078C018307006993000FFF738
:1010C0007BFE07B0F0BD1022141A14E7F3B587B009
:1010D00016001C000825002130000278002A15D1D6
:1010E000491C4278002A11D1491C8278002A0DD16E
:1010F000491CC278002A09D1491C001DC9B2102917
:10110000EBD30027FFB2002F03D173E11020471A61
:10111000F8E7102208990798FFF7E4FDF61B103650
:10112000307801061CD440000725010618D4400081
:101130000625010614D440000525010610D4400000
:10114000042501060CD440000325010608D4400004
:101150000225010604D440060125000E00D1002519
:101160004000694608706D1EEDB2002D23D0A548E1
:10117000A54908600E9B220007990846FFF79DFECF
:101180001022611C0798FFF7ADFD68460078000645
:101190000AD50E9B220007990898FFF78EFE1022B1
:1011A000611C0798FFF79EFD68460078400069467D
:1011B00008706D1EDBD1761C0596002093490870DF
:1011C0007F1E04970498012800DA13E105988F49DF
:1011D0000978405C694608700820039089488A496C
:1011E0000860002007990A78002A00D004E1401C1A
:1011F0004A78002A00D0FFE0401C8A78002A00D0FC
:10120000FAE0401CCA78002A00D0F5E0401C091D15
:10121000C0B21028E7D30025EDB20798401B10306C
:10122000029011212000FFF759FD00266D1E019547
:10123000019801283EDB029D2878002210216718C2
:10124000079B5B185B1E1B7843439A183B78D318A7
:101250009BB23B70491E6218079F7F187F1E3F7824
:1012600047431B0AFB181778DB199BB213701A0A45
:10127000491EE4D12078801820700E992000FFF7D5
:101280009BFD200004214278027082784270C2786F
:1012900082700279C270001D491EF4D100202074B2
:1012A0000E992000FFF788FD761C6D1CF6B20198A0
:1012B0008642C1DB012322000298815D0798FFF777
:1012C000B1FD0E992000FFF777FD1022611C0798F1
:1012D000FFF708FD68460078000677D500200799DB
:1012E0000A78002A00D08AE0401C4A78002A00D000
:1012F00085E0401C8A78002A00D080E0401CCA7833
:10130000002A7CD1401C091DC0B21028E8D300255A
:10131000EDB20798401B1030029011212000FFF71A
:10132000DDFC00266D1E0195019801283EDB029D23
:101330002878002210216718089B5B185B1E1B7819
:1013400043439A183B78D3189BB23B70491E6218EE
:10135000089F7F187F1E3F7847431B0AFB181778AA
:10136000DB199BB213701A0A491EE4D12078801849
:1013700020700E992000FFF71FFD20000421427805
:10138000027082784270C27882700279C270001D49
:10139000491EF4D1002020740E992000FFF70CFDA7
:1013A000761C6D1CF6B201988642C1DB0123220037
:1013B0000298815D0898FFF735FD0E992000FFF730
:1013C000FBFC1022611C0798FFF78CFC6846007834
:1013D0004000694608700398401E039000D0FDE667
:1013E0000A480078401C09490870C0B20499884234
:1013F00000DAEBE609B0F0BD10210D1A0CE7102160
:101400000D1A85E7AAAA00000030004063100020F2
:1014100002000E48002900D1704770B40F2300BFAE
:101420000BA41578521C06006E401E407600A65B89
:101430000011704080B22D0945401D406D00655B74
:1014400000096840491EECD170BC7047FFFF0000E6
:10145000000001CC01D8001401F0003C002801E498
:1014600001A0006C007801B40050019C0188004488
:1014700010B43B493B4A0A603B4A0A6000228A603A
:1014800001228B681340FCD1CB6802241C43CC6042
:10149000364BC0180861C86840230343CB60886896
:1014A0001040FCD1C86802229043C860C8688022FE
:1014B0000243CA6010BC7047F0B4294B294C1C6031
:1014C000294C1C6000249C60002A14D001240D8843
:1014D000264E86199F682740FCD1DF682743DF60CE
:1014E00035809D682540FCD1DD68A543DD60801C0A
:1014F000891C521EEBD1D86880210143D960F0BC11
:101500007047F0B40024002A28D09507AD0F174B80
:10151000002D07D0C65AA4B26700CE53801C641CAD
:101520006D1EF7D1920819D0C55AA4B266008D532A
:10153000801C641CC55AA4B266008D53801C641CB8
:10154000C55AA4B266008D53801C641CC55AA4B24F
:1015500066008D53801C641C521EE5D1F0BC7047A0
:101560000420024023016745AB89EFCD00C000088D
:1015700010B402E0401C491C521E002A09D00B780E
:1015800004789C42F6D002D20020C04302E0012041
:1015900000E0002010BC704710B5032401F0E6FE07
:1015A00001F0E0FF02F00AF903E0E4B2002C06D0FB
:1015B000641E02F09FFC0028F7D1240607D1012009
:1015C00087490870802087490860012010BD02F01B
:1015D00035FD002010BD000070B582B004006846E3
:1015E0000021002206C00023684602F03BF969464C
:1015F00088787B4D0979C90703D5022169700121DB
:10160000E980010705D504206870774802F0A4F945
:1016100045E0C10646D5287900280AD10421E01CFE
:1016200002F0A0FBE07804280DDBC11EC9B2E01D6A
:1016300007E06979002906D042001018000120183F
:10164000C01C02F08FFB684802F086F902F0C4FB70
:10165000664EFF20F178401AC10F0818C005000E31
:10166000792801DB782002E0282800DA2820607041
:1016700002F06EFA7078212805DB7078272807DBE6
:101680007078482804DA00BF30A07178405C207080
:10169000E078C01EA07020792070032068700020C0
:1016A000E88051E0C1071ED5287900280CD104211B
:1016B000E01C02F057FB2C21E01D02F053FBE07808
:1016C0002F38687101200CE0302142001018000111
:1016D0002018C01C02F046FB687930386871287900
:1016E000401C287130E081060AD53F4802F034F9E9
:1016F0000020A87006216970EE218900605423E063
:10170000800721D5A978312910DB3021E878420003
:10171000101800012018BF225200801802F0EAFAC7
:10172000E878401CE870A87830380CE000290BD02D
:10173000E8784200101800012018BF2252008018DB
:1017400002F0D8FA0020A87002B070BD02040608AA
:101750000A0C0E10121416181A1C1E2022242628F9
:101760002A2C2E3000323436383A3C3E40585858F5
:10177000585858030507090B0D0F11131517191B9E
:101780001D1F21232527292B2D2F313335370139D3
:101790003B3D3F4130B583B00500114C2078012816
:1017A0001BD0422D00DB4125022002F051FB02A894
:1017B00002F07CF9724802F0CFF80020019003207B
:1017C00000900023002200216E48405D02F04CFA98
:1017D0000120607000202071607103B030BD0000F6
:1017E0007810002018040048144800080000002069
:1017F000F3B585B01C00002001906946088062485E
:101800000078012800D1B9E0FC2C00DBFB246846FD
:10181000007E422801DB412008760020002C25D0E4
:10182000A3079B0F08D0155C059E3618A1277F00E3
:10183000F555401C5B1EF6D1A10817D0135C059D21
:101840002D18A1267600AB55401C135C059D2D1864
:10185000AB55401C135C059D2D18AB55401C135C0B
:10186000059D2D18AB55401C491EE7D10598FF2159
:101870004831405C000639D405984449401803902B
:101880000598A5214900401802902700F81E092854
:1018900015DB029D039E0B3F287802F093FD6946FD
:1018A0000880684600880988000A307071700198C5
:1018B000801CC0B20190B61C6D1C7F1EECD12100B3
:1018C0000298FFF70BFA019A03990298FFF70AFAB8
:1018D00001990398FFF702FA01990831C9B20598F6
:1018E000A12252008018FEF7DAFD0400059DED1CD0
:1018F000E01C28706846007E68700126AE7028786B
:101900006978414001204840E870012002F0A0FAC7
:101910000598A12149004718E4B23D2C09DB2000BD
:101920003C38194988700421280002F0E3F93C2171
:1019300007E00020144988700421280002F0DAF939
:101940002100380002F0D6F905200F4948700598AB
:10195000EE21890046540E4801F0FEFF00A8801CCD
:1019600002F0A4F8241DA2B2302106486B461B7E6B
:10197000C05C02F03DF900200349C87007B0F0BD1B
:101980000448000894190008781000207D02000027
:101990000C4800081842002701280229032A042BBA
:1019A000052C062D072E082F09300A310B320C3377
:1019B0000D340E350F36103711381239133A143BE7
:1019C000153C163D173E193F1A401B411C431D4450
:1019D0001E451F4620470000F0B581B080208002E0
:1019E000A1490A6802430A608A681043886090200F
:1019F000C005016A9D4A0A400262016A80225200C3
:101A00000A4302623021C94302680A400260026848
:101A1000202313430360426804239A43426004274F
:101A200042683A43426082680A40826010228368BA
:101A300013438360C3681940C160C1680A43C26030
:101A4000016A8B4A0A400262016ABA020A430262D0
:101A5000C021C94302680A40026002688023134320
:101A60000360426808239A43426008244268224384
:101A7000426082680A408260402283681343836028
:101A8000C3681940C160C1680A43C260BB4D0020F1
:101A9000286068602868286068686860D048E860E6
:101AA00068461C21017001264670867002F0DEFC3B
:101AB0002868202101432960286804432C60286895
:101AC00007432F60286806432E6001B0F0BD30B593
:101AD00081B065480168802292020A430260416831
:101AE0008022D2010A4342609020C005416AF02260
:101AF00091434162416A10220A434262B949026835
:101B00000A400260802212030368134303604368A3
:101B1000C04C1C4044604368436083680B40836052
:101B2000836854081C438460C3681940C160C1685D
:101B30000A43C260416A4D4A0A404262416A8022B9
:101B400052000A434262BF4902680A400260802292
:101B500092030368134303604368BB4C1C4044601A
:101B60004368436083680B408360836854081C4368
:101B70008460C3681940C160C1680A43C260B34C45
:101B80000020206060602068206060686060944889
:101B9000E06068461B21017001254570857002F0E8
:101BA00065FC206820210143216020680821014351
:101BB00021602068042101432160206805432560DD
:101BC00001B030BD0A780C2A4DD801A39B5C9F441C
:101BD0000C949494949494941E24486272006828FF
:101BE00041D188700120FF223E328854082039E01C
:101BF000C870092036E0002802D108710B2008E0E7
:101C0000212804DB0020FF223E3288542AE008719C
:101C10000A2008700320487070474A788A1890702C
:101C20004878401C4870C0B20A79D21C90421ADB36
:101C30000B2017E04A788A1890704878401C48704A
:101C40000C200FE04A788A1890704878401C487041
:101C50004A48026820239A4302600020FF223E3255
:101C600088540D200870704714100240FFF0FFFFE9
:101C7000FF0FFFFF0A78072A00D9704710B401A3AD
:101C80009B5C9F44061E3C4C5C7EA2C0AC2872D17B
:101C900088700120487000226D4B1A70FF233E337C
:101CA000C85467E04A788A1890704878401C487099
:101CB00067480278521C0270D2B2042A5BDB022011
:101CC00058E04A788A1890704878401C4870032081
:101CD00050E04A788A1890704878401C4870042078
:101CE00048E0F52842DA4A788A1890704A78521CFF
:101CF0004A700022564B1A70002801D1062039E0A4
:101D0000052037E04A788A1890704878401C48705F
:101D10004F480278521C02704B7AD2B29A422AD3B0
:101D200000220270062025E04A788A1890704878D0
:101D3000401C487046480278521C0270D2B2022AF7
:101D400019DB072016E0532810D1404A13682024DD
:101D5000A34313604A788A1890704878401C4870F2
:101D60000020FF223E3288540D2003E00020FF2295
:101D70003E328854087010BC704700000044004098
:101D800010B514002278002A01D0012010BD617026
:101D90000A000100E01CFEF7A5FF0020A070012052
:101DA00020702C48016880220A430260002010BD88
:101DB00010B514002278002A01D0012010BD6170F6
:101DC0000A000100E01CFEF78DFF0020A07001203A
:101DD00020701E48016880220A430260002010BD66
:101DE000E2040000FFFFF3FF01000A78012A0FD18F
:101DF0008A788818C078521C8A704B78D2B29A427E
:101E000006D302220A7013490A6880239A430A60A3
:101E1000C0B27047FFFDFFFF01000A78012A0FD111
:101E20008A788818C078521C8A704B78D2B29A424D
:101E300006D302220A7005490A6880239A430A6081
:101E4000C0B27047FFFFCFFFFFFBFFFF003801402C
:101E5000861000200044004050B4020000200823F7
:101E60001B24CE0701D55040C0B280261640520038
:101E7000002E00D0624049085B1EF2D150BC704772
:101E80001201891802780B785340037002794B785D
:101E900053400371027A8B7853400372027BCB78F4
:101EA0005340037342780B795340437042794B7926
:101EB00053404371427A8B7953404372427BCB79D2
:101EC0005340437382780B7A5340837082794B7A04
:101ED00053408371827A8B7A53408372827BCB7AB0
:101EE00053408373C2780B7B5340C370C2794B7BE2
:101EF0005340C371C27A8B7B5340C372C27BC97B90
:101F00005140C173704710B40121001D01E0012947
:101F10000ADB0A0003784478047084784470C4783B
:101F20008470C370521EF5D1491C001D0429EEDBDC
:101F300010BC704710B40121001D01E001290ADB2B
:101F40000A00C3788478C47044788470047844703C
:101F50000370521EF5D1491C001D0429EEDB10BC94
:101F6000704770B404210F22804B0F26047825009F
:101F7000B54314402C191C5D047044782500B5430A
:101F800014402C191C5D447084782500B54314401E
:101F90002C191C5D8470C4782500B54314402C199D
:101FA0001C5DC470001D491EE0D170BC704770B448
:101FB00004210F226E4B0F2604782500B5431440F0
:101FC0002C191C5D047044782500B54314402C196D
:101FD0001C5D447084782500B54314402C191C5DA9
:101FE0008470C4782500B54314402C191C5DC4705E
:101FF000001D491EE0D170BC7047F0B482B0027879
:102000000A7042784A7082788A70C278CA700279FF
:102010000A7142794A7182798A71C279CA71027AE7
:102020000A72427A4A72827A8A72C27ACA72027BCF
:102030000A73427B4A73827B8A73C07BC873042015
:1020400001901031081F0378C81E0678881E047896
:10205000481E057801984210920F101882100198BE
:102060009700C01B63D14148844630000F27B84316
:102070003607360F86196046805D6E46F0706646FC
:102080002000B8432407240F0019305C6C46A07070
:102090002C00BC432D072D0F6419305D6C46607019
:1020A00060461C00BC431B071B0FE318C05C6B465B
:1020B0001870D2B21000012A02D12E4A107025E009
:1020C000022A23DB02202B4C2070521ED2B2531E58
:1020D000012B1BDB0223274C24780025082603E074
:1020E000DF0701D56540EDB2802727406400002F4F
:1020F00002D027001B247C405B08761EF0D11D4BCC
:102100001D70521ED2B2531E012BE3DA6846C0780E
:10211000184A1378434068468078567846406846A7
:1021200040789478444068460078D5784540080067
:102130001038007843400B7008000F380078464094
:102140004E7008000E38007844408C7008000D383E
:1021500000784540CD700198401C0190091D2C2845
:1021600000DA6FE702B0F0BC704700002C240008D2
:10217000E42700084C000020F6B589B002A904222B
:1021800003780B7003794B70037A8B70037BCB70F1
:10219000091D401C521EF3D10A9902A8FFF770FED8
:1021A0000A98103001900920079002A804210478B1
:1021B0000F2200BF9DA325000F26B5432640AC1972
:1021C0001B5D0370447800BF98A325000F26B5431C
:1021D0002640AC191B5D4370847800BF93A3250093
:1021E0000F26B5432640AC191B5D8370C37800BF32
:1021F0008EA41D0095431A40AA18A25CC270001D4F
:10220000491ED4D102A8FFF77EFE02AE042006903C
:102210003078694608703079C870307A8870307BC1
:102220004870684601780220FFF716FE04006846F1
:10223000C1780320FFF710FE050068468178012071
:10224000FFF70AFE0100654069400C0068464178CE
:102250000120FFF701FE604008A908706846017878
:102260000120FFF7F9FD04006846C1780220FFF75E
:10227000F3FD0500684681780320FFF7EDFD0100BE
:10228000654069400C00684641780120FFF7E4FD95
:1022900060400700684601780120FFF7DDFD04007B
:1022A0006846C1780120FFF7D7FD050068468178B0
:1022B0000220FFF7D1FD0100654069400C0068462F
:1022C00041780320FFF7C8FD6040040068460178AC
:1022D0000320FFF7C1FD05006846C1780120FFF724
:1022E000BBFD69460870684681780120FFF7B4FDA0
:1022F00069460978694048400500684641780220EF
:10230000FFF7AAFD0100694008A800783070377116
:1023100034723173761C0698401E069000D077E721
:102320006846007A0199097841406846017202A81E
:10233000007901994978414002A80171007A019918
:102340008978414002A80172007B0199C978414017
:1023500002A80173407801990979414002A84170AF
:10236000407901994979414002A84171407A019927
:102370008979414002A84172407B0199C979414065
:1023800002A8417380780199097A414002A88170BE
:1023900080790199497A414002A88171807A019936
:1023A000897A414002A88172807B0199C97A4140B3
:1023B00002A88173C0780199097B414002A8C170CD
:1023C000C0790199497B414002A8C171C07A019945
:1023D000897B414002A8C172C07B0199C97B414001
:1023E00002A8C1730198103001900798401E079011
:1023F00000D0DAE602A8FFF7B4FD02A8FFF783FDDC
:102400000A220A9902A8FFF73BFD099802A90422B3
:102410000B7803704B7803718B780372CB7803735E
:10242000091D401C521EF3D10BB0F0BD637C777BBD
:10243000F26B6FC53001672BFED7AB76CA82C97DC0
:10244000FA5947F0ADD4A2AF9CA472C0B7FD932651
:10245000363FF7CC34A5E5F171D8311504C723C355
:102460001896059A071280E2EB27B27509832C1A99
:102470001B6E5AA0523BD6B329E32F8453D100EDF3
:1024800020FCB15B6ACBBE394A4C58CFD0EFAAFBD7
:10249000434D338545F9027F503C9FA851A3408F9F
:1024A000929D38F5BCB6DA2110FFF3D2CD0C13ECB7
:1024B0005F974417C4A77E3D645D197360814FDC4C
:1024C000222A908846EEB814DE5E0BDBE0323A0A30
:1024D0004906245CC2D3AC629195E479E7C8376DB4
:1024E0008DD54EA96C56F4EA657AAE08BA78252ED9
:1024F0001CA6B4C6E8DD741F4BBD8B8A703EB56662
:102500004803F60E613557B986C11D9EE1F8981152
:1025100069D98E949B1E87E9CE5528DF8CA1890D41
:10252000BFE6426841992D0FB054BB16F6B589B08D
:1025300002A9042203780B7003794B70037A8B7025
:10254000037BCB70091D401C521EF3D10A220A994D
:1025500002A8FFF795FC0A98903001900920079097
:1025600002A8FFF7E7FC02A8042104780F2200BFAD
:102570009CA325000F26B5432640AC191B5D0370B4
:10258000447800BF97A325000F26B5432640AC1919
:102590001B5D4370847800BF92A325000F26B543CE
:1025A0002640AC191B5D8370C37800BF8DA41D004D
:1025B00095431A40AA18A25CC270001D491ED4D1CE
:1025C0006846007A0199097841406846017202A87C
:1025D000007901994978414002A80171007A019976
:1025E0008978414002A80172007B0199C978414075
:1025F00002A80173407801990979414002A841700D
:10260000407901994979414002A84171407A019984
:102610008979414002A84172407B0199C9794140C2
:1026200002A8417380780199097A414002A881701B
:1026300080790199497A414002A88171807A019993
:10264000897A414002A88172807B0199C97A414010
:1026500002A88173C0780199097B414002A8C1702A
:10266000C0790199497B414002A8C171C07A0199A2
:10267000897B414002A8C172C07B0199C97B41405E
:1026800002A8C17302AE0420069030786946087033
:102690003079C870307A8870307B4870684601782D
:1026A0000E20FFF7D9FB04006846C1780B20FFF726
:1026B000D3FB0500684681780D20FFF7CDFB0100B4
:1026C000654069400C00684641780920FFF7C4FB6B
:1026D000604008A90870684601780920FFF7BCFB34
:1026E00004006846C1780E20FFF7B6FB0500684677
:1026F00081780B20FFF7B0FB0100654069400C00BA
:10270000684641780D20FFF7A7FB60400700684648
:1027100001780D20FFF7A0FB04006846C17809206E
:10272000FFF79AFB0500684681780E20FFF794FBBF
:102730000100654069400C00684641780B20FFF7B6
:102740008BFB60400400684601780B20FFF784FB98
:1027500005006846C1780D20FFF77EFB69460870CA
:10276000684681780920FFF777FB69460978694058
:1027700048400500684641780E20FFF76DFB0100D8
:10278000694008A800783070377134723173761C54
:102790000698401E069000D077E701981038019007
:1027A0000798401E079000D0DAE602A8FFF7C2FBA8
:1027B00002A8FFF7FCFB00220A9902A8FFF760FBC2
:1027C000099802A904220B7803704B7803718B7867
:1027D0000372CB780373091D401C521EF3D10BB05A
:1027E000F0BD000052096AD53036A538BF40A39E1F
:1027F00081F3D7FB7CE339829B2FFF87348E4344E0
:10280000C4DEE9CB547B9432A6C2233DEE4C950B3B
:1028100042FAC34E082EA16628D924B2765BA2499B
:102820006D8BD12572F8F66486689816D4A45CCCBA
:102830005D65B6926C704850FDEDB9DA5E1546578D
:10284000A78D9D8490D8AB008CBCD30AF7E45805C3
:10285000B8B34506D02C1E8FCA3F0F02C1AFBD03CF
:1028600001138A6B3A9111414F67DCEA97F2CFCEA0
:10287000F0B4E67396AC7422E7AD3585E2F937E83B
:102880001C75DF6E47F11A711D29C5896FB7620E7D
:10289000AA18BE1BFC563E4BC6D279209ADBC0FE5E
:1028A00078CD5AF41FDDA8338807C731B11210590B
:1028B0002780EC5F60517FA919B54A0D2DE57A9FFD
:1028C00093C99CEFA0E03B4DAE2AF5B0C8EBBB3CF2
:1028D00083539961172B047EBA77D626E169146376
:1028E00055210C7D8A48017842788918807808182B
:1028F00001D10A2001E0C006800E86490918864AE7
:102900000B781372497851727047F2B582B00700A4
:10291000FFF7E8FF7D49087080490A78022A0BD149
:1029200000220A707E4AD278521C7D4BDA70D2B2F5
:102930000B2A01DB01220A707A490A78062A02D0A2
:102940000A78042A04D100240C707549CC705AE02E
:102950000878032859D100240C707149CC70B978DB
:10296000F81DFDF77DFD00284BD10825B8780B3800
:10297000C10F0818C605360E19D07819C1796A46F4
:102980001180694609880902118069460988007A20
:10299000014368460180008801F059FDE4B239190D
:1029A000614A8854641CAD1CEDB2761EE5D1B9783D
:1029B00038000F30FEF792F95B483D18E4B2220070
:1029C000290038000F30FEF78DF921002800FEF7AE
:1029D00085F90B34BC70797B982008400121504A5E
:1029E000117010280AD0182801D1202006E0902864
:1029F00001D1402002E0982803D18020029908707C
:102A000003E042480078FEF7C5FE03B0F0BDF1B523
:102A100084B00E0030780F25284215D028400128B8
:102A200009D19148007800286CD104988F49411849
:102A30008F48FDF789FC3078F02101403170324831
:102A4000016820220A4302603078F021084259D000
:102A50008020884C217B01400291A1786118491E99
:102A6000097801916946627B1040087082480778B6
:102A7000002F0CD00322814920000930FEF778FD99
:102A8000002804D17E480121017000214180029874
:102A900000280CD001980028684605D00278A1785B
:102AA000E01DFDF7E8FB22E00078002815D10322A5
:102AB000954920001030FEF75BFD002811D0002F53
:102AC0000BD0207B602108420BD00023A21CA178F0
:102AD000E01DFDF7C3FD002803D0307805403570B8
:102AE0000CE03300049AA178E01DFDF7FBFF30787D
:102AF000054035700B480078052803D083480078DE
:102B0000FEF748FE05B0F0BD0044004087100020ED
:102B1000940600209419000814000020781000206A
:102B200080100020791000207D02000070B50400A4
:102B30000025774E308800280FD03088401C308028
:102B400080B21F2809DB734800F006FF3580724908
:102B50000D706E480078FEF71DFE8A480278002A44
:102B600007D0521CD2B22B2A03DB002206216A4B6B
:102B700019700270844841783B4A1378022B05D1C2
:102B8000491CC9B2072901DB0021157041707F493A
:102B9000FF223E328A181378002B08D013785B1C72
:102BA0001370DBB20A2B02DB15700D220A708178DC
:102BB000774A1378022B05D1491CC9B2072901DBDA
:102BC0000021157081707349FF223E328A181378F4
:102BD000002B08D013785B1C1370DBB20A2B02DBCE
:102BE00015700D220A70E178002905D0491CE170AA
:102BF000C9B2332900DBE5702179002905D0491CD1
:102C00002171C9B2332900DB25716179002905D012
:102C1000491C6171C9B2332900DB65710178002953
:102C20000ED0491CC9B24A07520F012A04D15A4A90
:102C30001468022666401660302913DB002111E07B
:102C40000F4B554A02241E78012E0AD154605A882F
:102C5000521C5A8092B28A4CA24203DB5D801D70E6
:102C600000E05461017070BD140E002006050000E4
:102C7000D60C002098060020621000204A10002088
:102C800052050020F0B581B07E4D7F4F7F4E3F4C06
:102C900020780D2812D1002020706178A01CFDF74B
:102CA000DFFB002806D1A078682803D101207849ED
:102CB000087003E030682021014331607449380016
:102CC000FFF7A5FE092229000020FEF71AFC0D21BE
:102CD0002800FDF7C5FB0028DAD1A87A0007000F0D
:102CE0006C490870687C662804D1012101206A4A79
:102CF000B95405E0002100206973A973E9732974B0
:102D00006649087001B0F0BD3848000887100020FF
:102D10007E100020144800087910002010B582B001
:102D2000012200A9891CD0208001FEF7EAFB684639
:102D30004088C00705D580205E49086000025E49D2
:102D4000086001226946E0208001FEF7DAFB0424D6
:102D500068460088800704D54020564908605648D8
:102D60000460012201A9F0208001FEF7CAFB684639
:102D70000088204204D0504821030160C908016046
:102D800002B010BD500A002080100020D40C00209A
:102D9000940B0020540A002014000048F0B581B0C4
:102DA00001F08EFB0227454E3760FFF76BFF3C4C6E
:102DB0001B222100B802FEF7A4FB012539490D7042
:102DC0003520205C66280ED10322210030313648A0
:102DD000FDF788FF2000FDF76DF934492000FFF76B
:102DE0000CF9334805703761FFF77CFD34490870F2
:102DF000FEF7D2FB32480078FEF7CCFCFFF78EFFDF
:102E000001F074FB2F4C224D00272F4E2F483049E4
:102E1000086030780028FCD037702800FFF786FE65
:102E200020780D2818D12770E079800607D5012376
:102E3000621C6178A01CFDF7AFFB00280CD1637801
:102E4000A21C1F4801782348FEF7D2FC22480068E4
:102E5000202101432048016029001E48FFF755FD4D
:102E600029000948FFF7D3FD280000F049FA1B4864
:102E700000780528CAD029000348FDF75BFEC5E7A6
:102E80004D1D00003C100020500000200044004078
:102E900064100020440000200205000062100020A1
:102EA000041000208410002094060020540F0020FD
:102EB0008510002018140048180400481800004825
:102EC00087100020540A002070100020AAAA0000D9
:102ED00000300040980600200038014079100020A2
:102EE00030B581B00C00017ACB0701D4002903D1A1
:102EF0009178CD07ED0F12E08B0707D5354909789A
:102F0000022918DB91788D07ED0F08E0490712D5EB
:102F10003049097803290EDB91784D07ED0F052123
:102F2000E17104220830010020000830FDF7DAFECC
:102F30002573012000E0002001B030BDF0B581B064
:102F40000B0000210024057B002D00D00121057A13
:102F5000EE0701D4802D09D19478E507ED0FA94241
:102F600003D054781025254355700124057AAD0708
:102F70000DD5184C2478022C27DB9478A507ED0F8B
:102F8000A94203D0547820252543557001240425F7
:102F9000077A2F420DD00F4C2478032C15DB947840
:102FA0006607F60FB14206D0517840240C435470A6
:102FB00001E0002C09D0DD71042208300100083343
:102FC0001800FDF78FFE012000E0002001B0F0BDE9
:102FD0000000000044000020F4B505000E000027AA
:102FE000002403222BA10930FEF7C2FA00280ED1DB
:102FF000287A0006009A04D531002800FFF79EFFCA
:1030000003E031002800FFF76BFF040009E0032212
:1030100005A109352800FEF7ABFA002801D1F771A8
:103020000124200001B0F0BD00000100F0B581B026
:1030300004000D00002700200026AA6804210A428F
:1030400025D08A43AA60AA786B461A706A4612781D
:10305000D20702D5012001260CE06A4612789207B9
:1030600002D50126022005E06A4613780B4201D002
:10307000012604200521E1712072032205A1200010
:103080000930FDF72FFE26736F70002000E001204D
:1030900001B0F0BD00002100042182680A4000D088
:1030A000704730B4904A9378C478002C1ED18F4C6E
:1030B00024682506EC0F09D05578AC4215D05B1C6E
:1030C000DBB2152B12D3002354700FE05478002C80
:1030D0000BD05B1CDBB2152B08D3002400235470EB
:1030E000447801252543457000E000239370137850
:1030F000022B49DB13790479002C1ED17B4C246808
:10310000A506EC0F09D0D578AC4215D05B1CDBB21C
:10311000152B12D30023D4700FE0D478002C0BD0E1
:103120005B1CDBB2152B08D300240023D470447839
:1031300002252543457000E0002313711378032B0B
:1031400022DB93794479002C1DD1694C2468A504B5
:10315000EC0F09D05079844214D05B1CDBB2152BE4
:1031600011D3002354710EE05479002C0AD05B1C5B
:10317000DBB2152B07D3002400235471447821437C
:10318000417000E00023937130BC7047F0B581B00E
:103190000400A0680425284200D0A2E06178112232
:1031A000114231D0E278002A2ED1CA0709D5514AFE
:1031B0001278002A02D02843A06002E0FE200840D6
:1031C00060706078EE21014061700126A0780122D4
:1031D0004240A270E67048486B0348498027D207F6
:1031E00002D50F60036001E00F610361D027BF01CA
:1031F0003800FEF73DF9A0780640684606800122B7
:1032000069463800FEF758F960782221084232D02A
:10321000217900292FD1022630420AD03549097878
:10322000002903D0A0682843A06002E0FD210140EE
:1032300061706078DD2101406170A0780222424017
:10324000A2700120207140232B482C49324202D029
:103250000B60056001E00B610561E027BF013800EC
:10326000FEF706F9A0780640684606800122694606
:103270003800FEF721F960784421084231D06179A5
:1032800000292ED128420AD01A490978002903D0F2
:10329000A0682843A06002E0FB21014061706078D3
:1032A000BB2101406170A07804214140A170012040
:1032B0006071C20283031048294202D00360026099
:1032C00001E003610261F026B6013000FEF7D0F89C
:1032D000A078054068460580012269463000FEF767
:1032E000EBF801B0F0BD00004400002010000048E1
:1032F0001008004862100020180400481814004804
:1033000010B50400FFF7C8FE2000FFF73FFF10BD17
:10331000124207D08B0706D00B78491C0370401C63
:10332000521EF7D87047830706D00B78491C0370EC
:10333000401C521EF9D1704770B4103A03D378C9BB
:10334000103A78C0FBD2530701D318C918C001D571
:1033500008C908C0D20704D30B880380891C801CCD
:10336000002A01D50B78037070BC704730B46149F6
:10337000880C4A6802434A600A68430113430B60A1
:1033800082010B6813430B600B6813430B600B68DF
:103390001A430A609021C9050A68920092080A60DF
:1033A00082040B6813430B604B68534C1C404C6009
:1033B0004B684B608B689B009B088B608B681A4343
:1033C0008A60CA6892009208CA60CA68CA604B499B
:1033D0000A6A4B4B13400B620A6A0A62C022D2434C
:1033E0000B6813400B600B6880241C430C604B6817
:1033F0000824A3434B604B684B608B6813408B6081
:103400008B68C0241C438C60CB681A40CA60CA68B1
:10341000CA600A6A3B4B13400B620A6A0A623A4A64
:103420000B6813400B600B6844081C430C604B682E
:103430002024A3434B604B684B608B6813408B6028
:103440008B68D4431C438C60CB681A40CA60CA683E
:10345000CA600A6A2D4B13400B620A6A0A622C4B3F
:103460000A681A400A60C2080C6814430C60CC68F1
:103470002340CB60CB68CB60264900230B600C68EF
:103480000C600C68102525430D600C68042525434D
:103490000D600C680C600C680C604B604B68184346
:1034A00048604868E023DB0003434B600868024340
:1034B0000A6008688A0D02430A60086840220243D5
:1034C0000A6002208A680240FCD0FF2008730120B5
:1034D0008A680240FCD0087B30BC704702210E4A4B
:1034E00013680B40FCD01071012011680140FCD022
:1034F0001079704714100240FF7FFFFF000400485E
:10350000FF0FFFFFFFFF0FFFFFF3FFFFFFFFF0FFC6
:10351000FFFCFFFF00300140083001409A4801687D
:10352000802292020A4302609020C005022181623B
:103530000C21C94302680A40026002680423134355
:103540000360426802239A43426042684260826894
:103550000A40826082688260C2681140C160C168AE
:10356000C1607047884801688022D2020A43026025
:10357000864887490A6802400A600A688023DB019E
:1035800013430B604A6880239A434A604A684A6042
:103590008A6802408A608A688A60CA681040C86087
:1035A000C868C860704730B48021C9037648026893
:1035B0000A430260754B774A14681C401460146813
:1035C0000D0A2543156054688025AC435460546847
:1035D000546094681C40946094689460D46823405C
:1035E000D360D368D3600368194301606A491368E4
:1035F0000B4013601368840C1C4314605368402410
:10360000A34353605368536093680B40936093687F
:103610009360D3681940D160D168D16001682203FA
:103620000A4302605D485A490A6802400A600A6813
:10363000A30513430B604A68594B13404B604A681B
:103640004A608A6802408A608A688A60CA68104054
:10365000C860C868C86030BC704730B48020C00201
:1036600049490A6802430A60494A13689B009B085B
:103670001360136804031C4314605368494C1C40D6
:1036800054605368536093689B009B0893609368F1
:103690009360D3689B009B08D360D368D3600B68AA
:1036A00003430B603023DB4314681C401460146830
:1036B00010252543156054680425AC4354605468B4
:1036C000546094681C40946094689460D46823406B
:1036D000D360D368D3600B68184308603248116820
:1036E0000140116011682B050B43136051682F4B8B
:1036F0000B4053605168516091680140916091683E
:103700009160D1680840D060D068D06030BC70470C
:1037100010B4802189021C4802680A4302601B4BD6
:103720009022D20514681C40146014681460D46898
:103730002340D360D368CC081C43D460036819438A
:1037400001601B4913680B40136013681360D36852
:103750001940D160D168030D0B43D360016880220A
:1037600012030A430260134813490A6802400A60C0
:103770000A680A60CA681040C860C8688022D2041B
:103780000243CA6010BC704714100240FF3FFFFFA5
:103790000004004800140048FFCFFFFFFFFFFFCFE9
:1037A000FFBFFFFFFF7FFFFFFFFF3FFFFFF7FFFFB1
:1037B000FFF3FFFFFFFFFFF300080048F0B581B003
:1037C000224801688022D2020A4302602049214A2D
:1037D00013680B40136013681360D3681940D160FD
:1037E000D168830C0B43D3600124416821434160BD
:1037F00019480168194A0A4002600168820D0A43AB
:103800000260174D4027E8683843E860A868A86060
:103810006E460720307002207070B470684600F069
:1038200025FE286807432F60062030700320707043
:10383000B470684600F01AFE082029680143296028
:1038400069680843686001B0F0BD000014100240D0
:10385000FFCFFFFF000400480C000140FFF0FFFF16
:1038600000040140FFB581B05648068A564C8025B9
:103870002D0225614420FFF731FE8A4F08E0B6B2E1
:10388000002E0CD0256025614420FFF727FEF61995
:10389000C020FFF723FEFF28F1D1360404D12560B4
:1038A00002207F49087000E0256025612020FFF795
:1038B00015FE6846007AFFF711FE6846007BFFF7A9
:1038C0000DFE6846007CFFF709FE25603D48068A2C
:1038D00025614420FFF702FE08E0B6B2002E0CD0AE
:1038E000256025614420FFF7F9FDF619C020FFF798
:1038F000F5FDFF28F1D1360403D125600220684987
:103900000870AA20FFF7EAFD01990870AA20FFF7C6
:10391000E5FD01994870AA20FFF7E0FD0199887044
:10392000AA20FFF7DBFD0199C870AA20FFF7D6FD9A
:1039300001990871AA20FFF7D1FD01994871AA20C9
:10394000FFF7CCFD01998871AA20FFF7C7FD019907
:10395000C871256005B0F0BDF1B500241948058A8D
:10396000194F802636023E614420FFF7B7FD08E07C
:10397000ADB2002D0CD03E603E614420FFF7AEFD9D
:103980006D1EC020FFF7AAFDFF28F1D12D0404D140
:103990003E6002204249087000E03E603E610098AF
:1039A0008078001D01280ADB0098005DFFF796FD76
:1039B000641CE4B200988078001D8442F4DB3E6011
:1039C00001B0F0BD0000002018000048F0B581B043
:1039D000354F3E8A5D4C80252D0225614420FFF73E
:1039E0007DFD08E0B6B2002E0CD025602561442094
:1039F000FFF774FD761EC020FFF770FDFF28F1D1A0
:103A0000360404D1256002202549087000E02560B5
:103A100025610120FFF762FD25603E8A2561442073
:103A2000FFF75CFD08E0B6B2002E0CD025602561E2
:103A30004420FFF753FD761EC020FFF74FFDFF28FF
:103A4000F1D1360403D12560022015490870AA205F
:103A5000FFF744FD3870AA20FFF740FD0002788090
:103A6000AA20FFF73BFD798801437980AA20FFF760
:103A700035FD3871AA20FFF731FD0002F880AA2039
:103A8000FFF72CFDF9880143F980AA20FFF726FDF6
:103A90003872AA20FFF722FD7872256001B0F0BDD0
:103AA00078100020FFFF000000000020F1B59048D2
:103AB000068A264C80252D0225614420FFF70EFD45
:103AC000684F08E0B6B2002E0CD025602561442076
:103AD000FFF704FDF619C020FFF700FDFF28F1D124
:103AE000360404D1256002204049087000E02560BA
:103AF00025612120FFF7F2FC25607D48068A2561BB
:103B00004420FFF7EBFC08E0B6B2002E0CD0256095
:103B100025614420FFF7E2FCF619C020FFF7DEFC28
:103B2000FF28F1D1360403D1256002202F49087007
:103B3000AA20FFF7D3FC00990870AA20FFF7CEFC5B
:103B400000994870256001B0F0BD000018000048E1
:103B5000F0B581B06648068A814C80252D0225612A
:103B60004420FFF7BBFC3F4F08E0B6B2002E0CD05C
:103B7000256025614420FFF7B1FCF619C020FFF74E
:103B8000ADFCFF28F1D1360404D12560022017498D
:103B9000087000E0256025613320FFF79FFC256059
:103BA0005348068A25614420FFF798FC08E0B6B226
:103BB000002E0CD0256025614420FFF78FFCF619FC
:103BC000C020FFF78BFCFF28F1D1360403D125601C
:103BD000022006490870AA20FFF780FC0600AA20F0
:103BE000FFF77CFC2560300001B0F0BD78100020AC
:103BF000F7B53F48048A5A4D802636022E6144208C
:103C0000FFF76CFC174F08E0A4B2002C0CD02E601C
:103C10002E614420FFF762FCE419C020FFF75EFC30
:103C2000FF28F1D1240404D12E60022068490870D5
:103C300000E02E602E613120FFF750FC68460078CE
:103C4000FFF74CFC68460079FFF748FC0020FFF7BF
:103C500045FC68460089C0B2FFF740FC2E6003B007
:103C6000F0BD0000FFFF0000FFB581B02048048ACE
:103C70003B4D802636022E614420FFF72FFC554F26
:103C800008E0A4B2002C0CD02E602E614420FFF777
:103C900025FCE419C020FFF721FCFF28F1D1240402
:103CA00004D12E6002204A49087000E02E602E6187
:103CB0003220FFF713FC68460079FFF70FFC6846D7
:103CC000007AFFF70BFC0020FFF708FC68468089AC
:103CD000C0B2FFF703FC6846007CFFF7FFFB0A98C1
:103CE000FFF7FCFB0B98FFF7F9FB2E6005B0F0BD6A
:103CF00000000020F2B504005448068A184F8025C1
:103D00002D023D614420FFF7E9FB08E0B6B2002E2A
:103D10000CD03D603D614420FFF7E0FB761EC020E3
:103D2000FFF7DCFBFF28F1D1360404D13D6002200F
:103D30002749087000E03D603D616620FFF7CEFB3B
:103D400068460078002807D0684606782078FFF794
:103D5000C5FB641C761EF9D13D6001B0F0BD0000CA
:103D600018000048F2B504003848068A604F8025E4
:103D70002D023D614420FFF7B1FB08E0B6B2002EF2
:103D80000CD03D603D614420FFF7A8FB761EC020AB
:103D9000FFF7A4FBFF28F1D1360404D13D600220D7
:103DA0000B49087000E03D603D617720FFF796FB0E
:103DB00068460078002808D068460678AA20FFF7F1
:103DC0008DFB2070641C761EF8D13D6001B0F0BD03
:103DD00078100020FFFF0000F0B581B01B4F3C8A37
:103DE000434D802636022E614420FFF777FB08E022
:103DF000A4B2002C0CD02E602E614420FFF76EFB85
:103E0000641EC020FFF76AFBFF28F1D1240404D10F
:103E10002E6002208549087000E02E602E6150203F
:103E2000FFF75CFBAA20FFF759FB3873AA20FFF7C6
:103E300055FB7873AA20FFF751FBB873AA20FFF750
:103E40004DFBF8732E6001B0F0BD000000000020B3
:103E5000F1B57748068A264C80252D02256144203D
:103E6000FFF73CFB734F08E0B6B2002E0CD0256084
:103E700025614420FFF732FBF619C020FFF72EFB27
:103E8000FF28F1D1360404D125600220674908706B
:103E900000E0256025611520FFF720FB68460078CB
:103EA000FFF71CFB25606248068A25614420FFF766
:103EB00015FB08E0B6B2002E0CD025602561442029
:103EC000FFF70CFBF619C020FFF708FBFF28F1D124
:103ED000360403D12560022054490870AA20FFF758
:103EE000FDFAAA20FFF7FAFA256001B0F0BD000044
:103EF00018000048F0B581B0802040014C4908828C
:103F0000B84C80252560022000F025FB25610A20A1
:103F100000F021FB484C2D0225610220FFF7DEFA5C
:103F20000120FFF7DBFA0020FFF7D8FA0120FFF7A6
:103F3000D5FAC920FFF7D2FAC320FFF7CFFA8020C5
:103F4000FFF7CCFA2560022000F005FB3848068A0E
:103F500025614420FFF7C2FA364F08E0B6B2002EC2
:103F60000CD0256025614420FFF7B8FAF619C0206F
:103F7000FFF7B4FAFF28F1D1360404D125600220FE
:103F80002A49087000E0256025612020FFF7A6FA85
:103F90000020FFF7A3FA0020FFF7A0FA0020FFF7A8
:103FA0009DFA25602248068A25614420FFF796FA8B
:103FB00008E0B6B2002E0CD0256025614420FFF742
:103FC0008DFAF619C020FFF789FAFF28F1D13604DF
:103FD00003D12560022015490870AA20FFF77EFA58
:103FE000AA20FFF77BFAAA20FFF778FAAA20FFF7AA
:103FF00075FAAA20FFF772FAAA20FFF76FFAAA2033
:10400000FFF76CFAAA20FFF769FA2560FFF7DEFCDC
:1040100020200749088248887349884201D001203E
:1040200000E0002001B0F0BD00000000781000208A
:1040300000000020FFFF000018000048F0B581B02C
:104040006EA0FFF789FC00BF6EA0FFF785FC00BFE4
:104050006EA0FFF781FC00BF6EA0FFF77DFC00BFE4
:104060006EA0FFF779FC00BF6FA0FFF775FC00BFE3
:104070006FA0FFF771FC00BF6FA0FFF76DFC00BFE2
:1040800071A0FFF769FC00BF78A0FFF765FC00BFD7
:104090007AA0FFF761FC00BF7CA0FFF75DFC00BFCA
:1040A0007CA0FFF759FC00BF7CA0FFF755FC00BFC8
:1040B0007CA0FFF751FC00BF7CA0FFF74DFC00BFC8
:1040C00063A0FFF749FC00BF7BA0FFF745FC00BFE2
:1040D0007BA0FFF741FC00BF7BA0FFF73DFC00BFCA
:1040E0007BA0FFF739FC00BF7CA0FFF735FC00BFC9
:1040F0007EA0FFF731FC00BF80A0FFF72DFC00BFC2
:1041000058A0FFF729FC00BF80A0FFF725FC00BFE7
:1041100051A0FFF721FC354C20001430FFF71CFCA8
:104120007DA0FFF719FC00BF7FA0FFF715FC00BFC3
:1041300081A0FFF711FC00BF83A0FFF70DFC00BFBB
:1041400085A0FFF709FC00BF86A0FFF705FC200053
:104150002430FFF701FC20002C30FFF7FDFB20008E
:104160003430FFF7F9FB20003C30FFF7F5FB00BFD0
:104170007EA0FFF7F1FB00BF7EA0FFF7EDFB248AD6
:104180001B4D802636022E614420FFF7A7F9194FF8
:1041900008E0A4B2002C0CD02E602E614420FFF762
:1041A0009DF9E419C020FFF799F9FF28F1D1240403
:1041B00004D12E6002201049087000E02E602E61AC
:1041C0001120FFF78BF91220FFF788F90120FFF784
:1041D00085F90020FFF782F98520FFF77FF92E602F
:1041E00001B0F0BD18040048384400000000002071
:1041F00018000048FFFF00007810002011000200A6
:104200005200000011000103200000001101020013
:1042100000000000110204000305000A111005004F
:104220005014002512000000111103000198F30042
:10423000111201068100000011200A000300070688
:104240001A8005C9C38000001120030A0006760009
:104250001120034C11003A00114008003D0EEEEE13
:10426000369D20FE112203017F001D0011200C1835
:10427000018008038000202000E8017711200C2431
:10428000015D8600AF02C2000432801D11200330A0
:1042900011EC800011200135E000000011200338EE
:1042A00011525200112004402A0CA422112005456D
:1042B0008300DE0200FF060011200250840A000085
:1042C00011200254030700001120015700000000D4
:1042D0001120055B420407782000000011210C002A
:1042E000CCA130A021D1B9C9EA05121111210C0CC1
:1042F0000A0415FC0300CCA130A021D111210C1817
:10430000B9C9EA0512110A0415FC030011230700BC
:104310002C0E0B040C73030011500C0C05FFFFFF57
:10432000FFFFFFFFFFFFFFFF11500C18FFFFFFFF14
:10433000FFFFFFFFFFFFFFFF11500C24FFFFFFFFF8
:10434000FFFFFFFFFFFFFFFF11500C30FFFFFFFFDC
:10435000FFFFFFFFFFFFFFFF1150063CFFFFFFFFC6
:10436000FFFF0000111203080A0100001112020BE6
:10437000303000001120014A3A0000000121F022F3
:1043800002400120104302094309D2188309D218C0
:104390000A4002D002000820104302094309D21843
:1043A000C309D2180A4002D00200042010430209B7
:1043B0008309D218C309D218114002D0010002208B
:1043C0000843704730B581B00500FFF7D7FF0402FE
:1043D0002801C0B2FFF7D2FF01002000084301B05E
:1043E00030BD30B4C2098109040963189B1845081F
:1043F0005B1945096419A21885085219012561182D
:10440000C4080919294011D02A4007D01D4002D004
:104410000100102018E00100202015E01D4002D00E
:104420000100402010E0010008200DE02A4007D0E4
:104430001D4002D00100802006E00100042003E0BE
:104440001D4002D001000220484030BC704730B50A
:1044500081B00400000AFFF7C4FFF0250540E0B278
:10446000FFF7BFFF0009284301B030BD70B4010061
:104470000C781F2201238878002815D00D4D2000CC
:104480000326B04328180568A407E40EFF26A640BB
:10449000B5434E78B607360EA6402E430660087820
:1044A00002409340044802E02240934003480360E6
:1044B00070BC704700E400E000E100E080E100E053
:1044C00000B581B000F05CF872B6FFF727F8FFF78F
:1044D0006AF8FFF7C2F8FFF71BF900F01FF8FDF7C5
:1044E0007BFAFDF7F4FA62B601B000BD074808494F
:1044F00001600849016000214160FA2109018160E1
:10450000C1680029FCD104490160704700300040B7
:10451000CCCC000055550000AAAA000030B581B0EF
:10452000144C15486060206804210143216000207C
:10453000A0606846FF21017003214170012585704C
:10454000FFF794FF206802210143216020680543A2
:10455000256001B030BD09494A684B689B1A834207
:10456000FBD3704705484168490701D1012101701B
:104570007047000010E000E080BB000070100020D9
:104580001148416841600021C1624168A022920344
:104590000A434260022142680A4342604268426024
:1045A00042684260026801231343036002680A40C4
:1045B000FCD00168802252040A43026080218904F1
:1045C00002680A40FCD07047001002407047FEE7C6
:1045D0007047704736480168C90300D4704700B57A
:1045E00081B0006833480168491C0160FFF7BAFFD9
:1045F00001B000BD704770477047704730B581B05B
:104600002D4C0825206928400BD0206928432061C3
:104610002068A84320602948FCF7DEFF2068054396
:10462000256001B030BD2648402142680A4006D0CE
:1046300002680823134303604268114341607047D6
:1046400010B5204C0820E169014002D0216A0843DE
:104650002062E069800604D51B49A08CC0B2FDF73A
:10466000B1FAE069400606D52068000603D5174870
:10467000FDF7BAFB208510BD10B5154C0820E16987
:10468000014002D0216A08432062E069800604D517
:104690001049A08CC0B2FDF7EDFAE069400606D5DE
:1046A0002068000603D50C48FDF7B6FB208510BD39
:1046B00010E000E07410002004040140980600207F
:1046C0001004014000440040D40C0020140E0020CF
:1046D00000380140540A0020940B00207047FEE788
:1046E0001148016801220A43026041680F4A0A40EA
:1046F000426001680E4A0A40026001680D4A0A40A1
:10470000026041680C4A0A404260C16A0F2291432C
:10471000C162016B094A0A400263416B0122914365
:104720004163002181607047001002400CB8FF080F
:10473000FFFFF6FEFFFFFBFFFFFFC0FFECFEFFFFEA
:1047400030B401210268001D002A0FD00368C3188D
:10475000446808300C4202D04D466D1E64191D6835
:1047600025601B1D241D121FECD0F8E730BC7047DC
:1047700010B5074979441831064C7C44163404E0DE
:10478000081D0A68891888470100A142F8D110BDA8
:10479000080000002800000073C5FFFF381000006B
:1047A000500000200000000099FFFFFF50000000B3
:1047B000AC000000000000200000000000F00BF83A
:1047C000002801D0FFF7D4FF0020C046C046FEF706
:1047D000E5FA00F002F80120704780B500F002F819
:1047E00001BDFEE70746384600F002F8FBE7FEE7AA
:1047F00080B5C046C046024A11001820ABBEFBE798
:10480000260002001101030003190100110102003A
:10481000012200001101030003000000014880474D
:1048200001480047E14600082D480008C046C04640
:10483000C046C046FFF7C2FFFFFFFF00FFFFFB00BF
:10484000FEE7FEE7FEE7FEE7FEE7FEE7FEE7FEE740
:10485000FEE7FEE7FEE7FEE7FEE7000000000000DF
:104860000000000000000000000000000000000048
:1048700011500C001804042B042BFFFFFFFFFFFF57
:104880001112040D000106A21112041101000222EE
:104890001112042100010682111204250100020AEE
:0C48A00001010001000100000200000006
:040000050800482D7A
:00000001FF
