:020000040800F2
:10000000B814002001460008B1430008B3430008BB
:1000100000000000000000000000000000000000E0
:10002000000000000000000000000000B5430008D0
:100030000000000000000000B7430008B9430008BA
:10004000C344000800000000C7450008D34500086D
:1000500025460008DF430008E14300080B44000880
:1000600000000000C1440008274600082946000897
:100070002B4600082D4600082F460008000000000F
:1000800031460008DD430008000000003346000848
:10009000D943000835460008DB430008374600080E
:1000A000394600083B4600083D4600085D4400080C
:1000B0002544000830B581B00500A14C1021200076
:1000C000213000F0E7FD1021200000F0E3FD1121B8
:1000D0002000103000F0DEFD11212000343000F04F
:1000E000D9FD102212A1200000F0D8FD102200BF7F
:1000F00013A12000113000F0D1FD132291492000FE
:10010000213000F0CBFD200010300090230034336C
:10011000220021002131280000F0B4FF3134207882
:10012000E8706078E871A078E87201B030BD000036
:1001300000000000000000000000000000083399EB
:10014000A4D9B2E8347FBEF714FA7432A357C6AD0F
:1001500030B581B004000D001100607980220243A7
:10016000627108784870C878607006226019C01EF5
:1001700000F094FDED1CEDB22900200001F024F9FF
:10018000010A61556D1CEDB260556D1C5320EDB236
:1001900060556D1CE8B201B030BDF0B581B004000F
:1001A0000E0030780090AD4F082239001431D00194
:1001B00001F083F90025787D042803DB7D7501E0DB
:1001C0006D1CEDB2607885422BDAA80020180099EA
:1001D00002799142F4D10A46F11C401D01F0A4F9C4
:1001E0000028EDD16D1CEDB2002D1AD0012D40D0AC
:1001F000022D08D0032D0CD104222100083120004B
:100200000C3000F04BFD0422211D2000083000F0CE
:1002100045FD00982071009AF11C601D00F03EFD24
:100220001BE004222100083120000C3000F036FDD4
:100230000422211D2000083000F030FD00982071BC
:10024000009AF11C601D00F029FD6078401C607070
:10025000C0B2042801DB0320607072B68020C000A9
:1002600001F0E2F8082214373900D00101F000F95A
:1002700062B601B0F0BDF0B581B006000F00140009
:1002800004227749401C01F04FF9002824D1F519C8
:10029000280009384178491E4170C9B2002907D0A9
:1002A000002C04D00278511A4018C07801E04018A0
:1002B00080787070F91E89B2300001F085F8ED1E6B
:1002C000010A297068705320A8703B00320065480D
:1002D0000178CC4801F066FA01B0F0BD70B50C00B1
:1002E000C9490978002903D0B2206070002015E0C8
:1002F000C64E2022C11C300000F0D0FC6620342104
:10030000705480252D01280001F08EF81B22310049
:10031000280001F0ADF8B1206070FF20E070682087
:1003200020700120A0700421200001F04DF8010A86
:1003300021716071B64A0621200001F0B1FC70BD48
:10034000840B0020540C0020F0B581B007000C0095
:100350007878202837D1414D0D223900280001F04E
:10036000E3F800281DD0002600207873B873F873D6
:100370003874787401F058F809223900002001F02F
:1003800077F807222900002001F097F80D223900A4
:10039000280001F0C9F8002803D022206070E67020
:1003A00003E021206070FF20E070682020700120B1
:1003B000A0700421200001F007F8010A217160718A
:1003C000934A06213FE0302841D1244D07222900DD
:1003D000002001F072F82878AC281ED068280DD1D2
:1003E0000B263100280000F0EFFFA919020A0B7854
:1003F0009A4203D1C0B24978884210D0222060705E
:100400000120A0700020E0700421200000F0DCFF3B
:10041000010A21716071062112E00A26E1E731200C
:1004200060700820A0700822E91CE01C00F036FC77
:100430000B21200000F0C8FF010AE17220730D219A
:1004400068202070724A200001F02AFC04E0B028E5
:1004500002D13800FFF742FF01B0F0BD6C0C002064
:10046000790C0020B70C002030B581B00400207852
:10047000AC2802D0682802D010E0CD1E00E08D1E0E
:10048000EDB22900200000F09FFF6119020A0B78ED
:100490009A4203D1C0B24978884201D0012000E0DD
:1004A000002001B030BD30B581B00500AC2028700F
:1004B000A879DF210140A971EC790834E4B2210068
:1004C000280000F081FF010A2955641CE4B2285578
:1004D000641C5320E4B22855641CE0B201B030BD66
:1004E00070B581B006B481B0002500218222D2000F
:1004F000835C01220226134217D18A401A438223C9
:10050000DB00C2548A01521892008418A170684618
:10051000007A60706846027A0199E01C00F0BEFB28
:10052000812040002552267008E001213342E4D0AA
:1005300002215C07E1D503211C07DED504B070BDA4
:10054000FCB583B007000E00F879002109180905F1
:10055000090E01910901401AC0B2009001980128CA
:1005600013DB3D00083504466846007C0028AF4A8E
:1005700004D02900280001F08FFD03E029002800A5
:1005800001F064FF1035641EEED10098002827D0DA
:10059000019804016846007C002817D010200099BB
:1005A000401A012807DB1020411A0098201838183B
:1005B000083000F06FFB38199C4A01000831083000
:1005C00001F06AFD10360098361A09E03819974A8A
:1005D00001000831083001F039FF00983618103E4C
:1005E000F6B2F11E89B2380000F0EEFEB919C91E4C
:1005F000020A0A7048705320887003980670002021
:1006000005B0F0BD6C050020B40C0020340C0020B7
:10061000800A0020FCB585B007000E00F8790021A3
:1006200009180905090E01910901401AC0B200908C
:100630007879000609D56846007E002805D0062294
:10064000B919093902A800F029FB0198012813DB28
:100650003D00083504466846007E0028734A04D0F1
:100660002900280001F018FD03E02900280001F00E
:10067000EDFE1035641EEED10098002828D00198B8
:1006800004016846007E002817D010200099401A07
:10069000012807DB1020411A00982018381808306C
:1006A00000F0F8FA3819614A01000831083001F009
:1006B000F3FC10360098341A0BE038195B4A01003D
:1006C0000831083001F0C2FE00983418103C0FE0E9
:1006D0003400787900060BD56846007E002807D0E4
:1006E000062202A9F8793818083000F0D7FAA41DBC
:1006F000E4B2E11E89B2380000F066FE3919C91E65
:10070000020A0A704870532088700598047000200F
:1007100007B0F0BDF0B581B004000F00444D0822D1
:10072000E91C0C3000F000FF00287AD1414800900D
:10073000042229000D31601C00F0F6FE00280ED1C5
:1007400003220099A01C00F0EFFE002807D1102220
:1007500039492000143000F0E7FE00284ED0042272
:10076000611C28000D3000F099FA0322A11C0098AA
:1007700000F094FA66206874002000F055FE09220B
:100780002900002000F074FE01262C490E702C492F
:100790000E702C4D1B222900F00200F08EFE10225C
:1007A000210014312800203000F078FA032200994B
:1007B0002800303000F072FA662035216854F002CB
:1007C00000F032FE1B222900F00200F051FE28004A
:1007D000FFF770FC1549280001F09FFBBF48067029
:1007E0006079202101436171BD4D02F00BF8287042
:1007F00000F0AEFE287800F0A9FF03E06079202128
:10080000014361710620F871042208342100380088
:10081000083000F043FA0220387314207873012066
:1008200000E0002001B0F0BD00000000840B0020BB
:100830006C0C002068050020540C0020920C002055
:1008400062040020340C0020F0B581B005000E00D9
:100850000F2734002078002818D0207A3840697992
:100860003940884212D10422691C201D00F05CFE30
:1008700000280BD1002020708220C00030180178A1
:100880000122A3789A409143017038E08220400011
:100890003418207800280CD0207A38406979394003
:1008A000884206D10422691C201D00F03DFE00286C
:1008B000E0D0822080003418207800280CD0207AE4
:1008C000384069793940884206D10422691C201DCC
:1008D00000F02AFE0028CDD0C320800034182078F4
:1008E00000280CD0207A384069790F40B84206D1F0
:1008F0000422691C201D00F017FE0028BAD001B0A8
:10090000F0BDF0B587B007000C001500754826183B
:100910000096787900060AD50622F8793918083148
:1009200003A800F0BBF903A96F48FFF736FC0322C8
:10093000BC493800093000F0F7FD002804D131002F
:100940003800FFF7E7FE1FE00422B749781C00F0EB
:10095000EBFD002800D09DE00322B44938000930A7
:1009600000F0E2FD00280AD1B14AF9790B31C9B291
:10097000380001F0ADF90020AE4960548AE02A0049
:100980000099380002F092FA002800D182E0042297
:10099000A5490098401C00F081F9787900994871C8
:1009A000B87980210143009881710098FFF77BFDA1
:1009B00004000098407980065CD50098C079002139
:1009C00009180905090E02910901401AC0B20190E7
:1009D00000984079000606D50622009801190939C9
:1009E00005A800F05BF9029801280ADB009D083594
:1009F0000646294A2900280001F04EFB1035761ED4
:100A0000F7D1019800281AD0029805011020019909
:100A1000401A012808DB1020411A0098019AAA18F0
:100A20008018083000F036F9009840191A4A010081
:100A30000831083001F030FB10340198241A009876
:100A40004079000608D5062205A90098C379C01888
:100A5000083000F023F9A41DE4B2E11E89B2009829
:100A600000F0B2FC00990919C91E020A0A70487008
:100A7000532088707879000605D503AA21000098D4
:100A8000FFF766FB04002300009A154801786A48C6
:100A900000F088FE07B0F0BD840B002030B581B0B7
:100AA000040015001A00A07998210140102902D0F5
:100AB000182905D00FE029002000FFF722FF0AE0E7
:100AC00004225949601C00F02FFD002803D12900A1
:100AD0002000FFF7B9FE01B030BD0000B50C0020CA
:100AE000B70C002016040000800C0020F1B584B083
:100AF000524A8718921F84182078FF2800D18EE070
:100B0000380002F0FDF9002800D088E06078401C31
:100B1000C0B2102800DB0020607004224249781C1B
:100B200000F0BCF860784006400E20210143797146
:100B30009820B8713800FFF7B6FC0600F87900215C
:100B400009180905090E01910901401AC0B2009067
:100B50007879000605D50622B919093902A800F0EE
:100B60009DF8019801280ADB3D0008350446344A07
:100B70002900280001F090FA1035641EF7D1009882
:100B8000002818D00198040110200099401A01286B
:100B900007DB1020411A009820183818083000F0A0
:100BA00079F83819264A01000831083001F074FA42
:100BB00010360098361A7879000607D5062202A961
:100BC000F8793818083000F069F8B61DF6B2F11E51
:100BD00089B2380000F0F8FBB919C91E020A0A7080
:100BE00048705320887008221649D00100F065FC37
:100BF00000201549497D042901DB134A507512492B
:100C000008754B208884320039000498FFF768FC8F
:100C100033003A000D480178074800F0C3FD05B0E5
:100C2000F0BD00001C460008790C0020204600089A
:100C3000780800201D0400006C0500201604000048
:100C4000840B0020800C00206C0C0020B70C0020CE
:100C5000094205D0830705D00270401C491EF9D116
:100C600070470000130030B414001500103902D38F
:100C700010393CC0FCD2490700D30CC000D504C0D9
:100C8000890002D30280801C002900D5027030BC8C
:100C9000704700000022DBE70022E3E712420FD09A
:100CA000814202D25318984203D310B502F09AFA47
:100CB00008BD80185B1E1978401E0170521EF9D1C4
:100CC000704730B4012100220368001D002B0BD0B7
:100CD0000468001D0C4202D04D466D1E641922604E
:100CE000241D1B1FF0D0FAE730BC704777B482B0E8
:100CF00001926846007C00900021039A029B03E069
:100D0000491CC9B25B1C521C009CA14208DA1C7829
:100D10001578A54204D3AC42F2D205B070BC70473E
:100D20000021019A6B461B7C002BE5D0029B9B188F
:100D30005B1E039CA418641E1E782578AE4206D163
:100D4000002902D0761E751B0AE0002508E0B54296
:100D500003D2711A4D1B002102E0711A4D1B0121B3
:100D60001D70521ED2B2641E5B1E002AC4D0E3E77F
:100D7000F0B581B0050000240878002816D10124C0
:100D8000481C0278002A11D1641C4278002A0DD137
:100D9000641C8278002A09D1641CC278002A05D11B
:100DA000641C001DE4B2112CEBD31124E4B20E1923
:100DB0001120021BD2B231002800FFF797FF012C4F
:100DC0000ADB771E12210E1BF2B239002800FFF752
:100DD0008DFF6D1C641EF7D101B0F0BD70B404002E
:100DE00000251020012B1CD113182618761E3678EA
:100DF0004E4375191E78AD19ADB21D70401E131803
:100E00002618761E36784E432D0A75191E78AD19B0
:100E1000ADB21D702D0A401EE6D110784019107039
:100E200025E023185B1E1B784B435D19ADB21554AA
:100E3000401E23185B1E1B784B432D0A5B199BB287
:100E40001354401E25186D1E2D784D431B0AEB18B8
:100E50009BB21354401E25186D1E2D784D431B0A5E
:100E6000EB189BB213541D0A401EDAD1157070BCEA
:100E70007047F9B585B0160000200A001378002BE2
:100E800000D0FCE0401C5378002B00D0F7E0401C61
:100E90009378002B00D0F2E0401CD378002B00D0D8
:100EA000EDE0401C121DC0B21028E7D30024E4B2CC
:100EB000081B1030049011213000FFF7EBFE0020DA
:100EC00069460871641E03940398012800DAACE0B7
:100ED0000498029002980178002310203218059C93
:100EE0002418641E24784C43E31814781B199BB211
:100EF0001370401E3218059C2418641E24784C433D
:100F00001B0AE31814781B199BB213701B0A401EAE
:100F1000E4D13078C018307000240698007800289A
:100F200017D101240698401C0178002911D1641CB6
:100F3000417800290DD1641C8178002909D1641CF5
:100F4000C178002905D1641C001DE4B2112CEBD33B
:100F50001124E4B20698001900901120021BD2B2AD
:100F600000993000FFF7C2FE012C0BDB3500122187
:100F70000F1BFAB20099491E2800FFF7B7FE6D1C3F
:100F8000641EF6D1300004214278027082784270EB
:100F9000C27882700279C270001D491EF4D100200F
:100FA0003074002406980078002817D10124069890
:100FB000401C0178002911D1641C417800290DD111
:100FC000641C8178002909D1641CC178002905D1ED
:100FD000641C001DE4B2112CEBD31124E4B206987A
:100FE000001900901120021BD2B200993000FFF7C7
:100FF0007DFE012C0BDB350012210F1BFAB200998C
:10100000491E2800FFF772FE6D1C641EF6D168466B
:101010000079401C694608710298401C029068469D
:1010200000790399884200DA54E7049869460979FF
:10103000415C002310203218059C2418641E24787B
:101040004C43E31814781B199BB21370401E3218DE
:10105000059C2418641E24784C431B0AE31814785A
:101060001B199BB213701B0A401EE4D13078C018C4
:10107000307006993000FFF77BFE07B0F0BD1022FC
:10108000141A14E7F3B587B016001C0008250021D8
:1010900030000278002A15D1491C4278002A11D16B
:1010A000491C8278002A0DD1491CC278002A09D136
:1010B000491C001DC9B21029EBD30027FFB2002F35
:1010C00003D173E11020471AF8E710220899079816
:1010D000FFF7E4FDF61B1036307801061CD4400003
:1010E0000725010618D440000625010614D4400047
:1010F0000525010610D44000042501060CD440004B
:101100000325010608D440000225010604D4400648
:101110000125000E00D100254000694608706D1EB3
:10112000EDB2002D23D0A548A54908600E9B2200F2
:1011300007990846FFF79DFE1022611C0798FFF7EC
:10114000ADFD6846007800060AD50E9B220007997F
:101150000898FFF78EFE1022611C0798FFF79EFD8E
:10116000684600784000694608706D1EDBD1761C29
:1011700005960020934908707F1E04970498012863
:1011800000DA13E105988F490978405C69460870D8
:101190000820039089488A490860002007990A7846
:1011A000002A00D004E1401C4A78002A00D0FFE069
:1011B000401C8A78002A00D0FAE0401CCA78002A35
:1011C00000D0F5E0401C091DC0B21028E7D300256F
:1011D000EDB20798401B1030029011212000FFF75C
:1011E00059FD00266D1E0195019801283EDB029DE8
:1011F0002878002210216718079B5B185B1E1B785C
:1012000043439A183B78D3189BB23B70491E62182F
:10121000079F7F187F1E3F7847431B0AFB181778EC
:10122000DB199BB213701A0A491EE4D1207880188A
:1012300020700E992000FFF79BFD200004214278CA
:10124000027082784270C27882700279C270001D8A
:10125000491EF4D1002020740E992000FFF788FD6C
:10126000761C6D1CF6B201988642C1DB0123220078
:101270000298815D0798FFF7B1FD0E992000FFF7F6
:1012800077FD1022611C0798FFF708FD684600787B
:10129000000677D5002007990A78002A00D08AE056
:1012A000401C4A78002A00D085E0401C8A78002A39
:1012B00000D080E0401CCA78002A7CD1401C091D67
:1012C000C0B21028E8D30025EDB20798401B1030BB
:1012D000029011212000FFF7DDFC00266D1E019514
:1012E000019801283EDB029D287800221021671812
:1012F000089B5B185B1E1B7843439A183B78D318F6
:101300009BB23B70491E6218089F7F187F1E3F7872
:1013100047431B0AFB181778DB199BB213701A0A94
:10132000491EE4D12078801820700E992000FFF724
:101330001FFD200004214278027082784270C2783A
:1013400082700279C270001D491EF4D10020207401
:101350000E992000FFF70CFD761C6D1CF6B201986B
:101360008642C1DB012322000298815D0898FFF7C5
:1013700035FD0E992000FFF7FBFC1022611C079839
:10138000FFF78CFC684600784000694608700398B7
:10139000401E039000D0FDE60A480078401C094931
:1013A0000870C0B20499884200DAEBE609B0F0BDDB
:1013B00010210D1A0CE710210D1A85E7AAAA0000CA
:1013C00000300040930C002002000E48002900D19C
:1013D000704770B40F2300BF0BA41578521C060091
:1013E0006E401E407600A65B0011704080B22D0951
:1013F00045401D406D00655B00096840491EECD109
:1014000070BC7047FFFF0000000001CC01D8001441
:1014100001F0003C002801E401A0006C007801B458
:101420000050019C0188004410B43B493B4A0A60CB
:101430003B4A0A6000228A6001228B681340FCD17B
:10144000CB6802241C43CC60364BC0180861C868C6
:1014500040230343CB6088681040FCD1C868022257
:101460009043C860C86880220243CA6010BC7047BD
:10147000F0B4294B294C1C60294C1C6000249C6052
:10148000002A14D001240D88264E86199F68274013
:10149000FCD1DF682743DF6035809D682540FCD1A3
:1014A000DD68A543DD60801C891C521EEBD1D86825
:1014B00080210143D960F0BC7047F0B40024002AB9
:1014C00028D09507AD0F174B002D07D0C65AA4B2F0
:1014D0006700CE53801C641C6D1EF7D1920819D092
:1014E000C55AA4B266008D53801C641CC55AA4B2B0
:1014F00066008D53801C641CC55AA4B266008D53CF
:10150000801C641CC55AA4B266008D53801C641CE8
:10151000521EE5D1F0BC704704200240230167450C
:10152000AB89EFCD00C0000810B402E0401C491C9C
:10153000521E002A09D00B7804789C42F6D002D2C1
:101540000020C04302E0012000E0002010BC7047F2
:1015500010B5032401F074FE01F06EFF02F098F85C
:1015600003E0E4B2002C06D0641E02F02DFC00283B
:10157000F7D1240607D101208749087080208749C8
:101580000860012010BD02F0C3FC002010BD000067
:1015900070B582B0040068460021002206C0002316
:1015A000684602F0C9F8694688787B4D0979C90711
:1015B00003D5022169700121E980010705D50420C6
:1015C0006870774802F032F945E0C10646D52879BF
:1015D00000280AD10421E01C02F02EFBE078042848
:1015E0000DDBC11EC9B2E01D07E06979002906D0F4
:1015F0004200101800012018C01C02F01DFB6848B2
:1016000002F014F902F052FBA44EFF20F178401AC8
:10161000C10F0818C005000E792801DB782002E010
:10162000282800DA2820607002F0FCF97078212860
:1016300005DB7078272807DB7078482804DA00BFBC
:1016400030A07178405C2070E078C01EA0702079D6
:101650002070032068700020E88050E0C1071ED58C
:10166000287900280CD10421E01C02F0E5FA2C2195
:10167000E01D02F0E1FAE0782F38687101200CE0FB
:1016800030214200101800012018C01C02F0D4FACA
:101690006879303868712879401C28712FE08106FC
:1016A00009D53F4802F0C2F80020A87006216970F1
:1016B0007B49605423E0800721D5A978312910DBCC
:1016C0003021E8784200101800012018A1225200B1
:1016D000801802F079FAE878401CE870A878303871
:1016E0000CE000290BD0E878420010180001201807
:1016F000A1225200801802F067FA0020A87002B000
:1017000070BD0000020406080A0C0E101214161810
:101710001A1C1E20222426282A2C2E300032343671
:10172000383A3C3E40585858585858030507090B5A
:101730000D0F11131517191B1D1F21232527292BE9
:101740002D2F3133353701393B3D3F4130B583B023
:101750000500114C207801281BD0422D00DB4125CB
:10176000022002F0DFFA02A802F00AF94D4802F066
:101770005DF800200190032000900023002200214A
:101780004948405D02F0DAF90120607000202071C4
:10179000607103B030BD0000A80C002018040048A0
:1017A000F8450008F2B582B004001D003F480078FB
:1017B000012871D0FC2D00DBFB25422902DB4120F2
:1017C00069460872E81CE0706846007AE11C4870BF
:1017D00001208870E0784978414001204840E11CB0
:1017E000C8700020002D22D00095A907890F07D0CE
:1017F000135C261883277F00F355401C491EF7D140
:101800000099890813D0135C261883277F00F355AD
:10181000401C135C2618F355401C135C2618F35526
:10182000401C135C2618F355401C491EEBD10120C7
:1018300002F078FA8320400026183D2D09DB2800AD
:101840003C381A4988700421E01C02F0BDF93C21A3
:1018500007E00020154988700421E01C02F0B4F96B
:101860002900300002F0B0F905201049487001202D
:101870000B4960540E4801F0D9FF01A802F080F82E
:101880002D1DAAB2302108486B461B7AC05C02F0BD
:1018900019F900200549C87003B0F0BD0000002010
:1018A00005020000E8450008B4180008A80C002054
:1018B000F04500081842002701280229032A042BBA
:1018C000052C062D072E082F09300A310B320C3358
:1018D0000D340E350F36103711381239133A143BC8
:1018E000153C163D173E193F1A401B411C431D4431
:1018F0001E451F4620470000F0B581B080208002C1
:10190000A1490A6802430A608A68104388609020EF
:10191000C005016A9D4A0A400262016A80225200A3
:101920000A4302623021C94302680A400260026829
:10193000202313430360426804239A434260042730
:1019400042683A43426082680A408260102283689B
:1019500013438360C3681940C160C1680A43C26011
:10196000016A8B4A0A400262016ABA020A430262B1
:10197000C021C94302680A40026002688023134301
:101980000360426808239A43426008244268224365
:10199000426082680A408260402283681343836009
:1019A000C3681940C160C1680A43C260BB4D0020D2
:1019B000286068602868286068686860D048E860C7
:1019C00068461C21017001264670867002F040FCBA
:1019D0002868202101432960286804432C60286876
:1019E00007432F60286806432E6001B0F0BD30B574
:1019F00081B065480168802292020A430260416812
:101A00008022D2010A4342609020C005416AF02240
:101A100091434162416A10220A434262B949026815
:101A20000A40026080221203036813430360436884
:101A3000C04C1C4044604368436083680B40836033
:101A4000836854081C438460C3681940C160C1683E
:101A50000A43C260416A4D4A0A404262416A80229A
:101A600052000A434262BF4902680A400260802273
:101A700092030368134303604368BB4C1C404460FB
:101A80004368436083680B408360836854081C4349
:101A90008460C3681940C160C1680A43C260B34C26
:101AA000002020606060206820606068606094486A
:101AB000E06068461B21017001254570857002F0C9
:101AC000C7FB2068202101432160206808210143D1
:101AD00021602068042101432160206805432560BE
:101AE00001B030BD0A780C2A4DD801A39B5C9F44FD
:101AF0000C949494949494941E24486272006828E0
:101B000041D188700120FF22921C8854082039E0BE
:101B1000C870092036E0002802D108710B2008E0C7
:101B2000212804DB0020FF22921C88542AE008713F
:101B30000A2008700320487070474A788A1890700D
:101B40004878401C4870C0B20A79D21C90421ADB17
:101B50000B2017E04A788A1890704878401C48702B
:101B60000C200FE04A788A1890704878401C487022
:101B70004A48026820239A4302600020FF22921CF8
:101B800088540D200870704714100240FFF0FFFFCA
:101B9000FF0FFFFF0A78072A00D9704710B401A38E
:101BA0009B5C9F44061E3C4C5C7EA2C0AC2872D15C
:101BB00088700120487000226D4B1A70FF239B1C17
:101BC000C85467E04A788A1890704878401C48707A
:101BD00067480278521C0270D2B2042A5BDB0220F2
:101BE00058E04A788A1890704878401C4870032062
:101BF00050E04A788A1890704878401C4870042059
:101C000048E0F52842DA4A788A1890704A78521CDF
:101C10004A700022564B1A70002801D1062039E084
:101C2000052037E04A788A1890704878401C487040
:101C30004F480278521C02704B7AD2B29A422AD391
:101C400000220270062025E04A788A1890704878B1
:101C5000401C487046480278521C0270D2B2022AD8
:101C600019DB072016E0532810D1404A13682024BE
:101C7000A34313604A788A1890704878401C4870D3
:101C80000020FF22921C88540D2003E00020FF2238
:101C9000921C8854087010BC70470000004400403B
:101CA00010B514002278002A01D0012010BD617007
:101CB0000A000100E01CFEF7F1FF0020A0700120E7
:101CC00020702C48016880220A430260002010BD69
:101CD00010B514002278002A01D0012010BD6170D7
:101CE0000A000100E01CFEF7D9FF0020A0700120CF
:101CF00020701E48016880220A430260002010BD47
:101D0000E2040000FFFFF3FF01000A78012A0FD16F
:101D10008A788818C078521C8A704B78D2B29A425E
:101D200006D302220A7013490A6880239A430A6084
:101D3000C0B27047FFFDFFFF01000A78012A0FD1F2
:101D40008A788818C078521C8A704B78D2B29A422E
:101D500006D302220A7005490A6880239A430A6062
:101D6000C0B27047FFFFCFFFFFFBFFFF003801400D
:101D7000B60C00200044004050B4020000200823AC
:101D80001B24CE0701D55040C0B280261640520019
:101D9000002E00D0624049085B1EF2D150BC704753
:101DA0001201891802780B785340037002794B783E
:101DB00053400371027A8B7853400372027BCB78D5
:101DC0005340037342780B795340437042794B7907
:101DD00053404371427A8B7953404372427BCB79B3
:101DE0005340437382780B7A5340837082794B7AE5
:101DF00053408371827A8B7A53408372827BCB7A91
:101E000053408373C2780B7B5340C370C2794B7BC2
:101E10005340C371C27A8B7B5340C372C27BC97B70
:101E20005140C173704710B40121001D01E0012928
:101E30000ADB0A0003784478047084784470C4781C
:101E40008470C370521EF5D1491C001D0429EEDBBD
:101E500010BC704710B40121001D01E001290ADB0C
:101E60000A00C3788478C47044788470047844701D
:101E70000370521EF5D1491C001D0429EEDB10BC75
:101E8000704770B404210F22804B0F260478250080
:101E9000B54314402C191C5D047044782500B543EB
:101EA00014402C191C5D447084782500B5431440FF
:101EB0002C191C5D8470C4782500B54314402C197E
:101EC0001C5DC470001D491EE0D170BC704770B429
:101ED00004210F226E4B0F2604782500B5431440D1
:101EE0002C191C5D047044782500B54314402C194E
:101EF0001C5D447084782500B54314402C191C5D8A
:101F00008470C4782500B54314402C191C5DC4703E
:101F1000001D491EE0D170BC7047F0B482B0027859
:101F20000A7042784A7082788A70C278CA700279E0
:101F30000A7142794A7182798A71C279CA71027AC8
:101F40000A72427A4A72827A8A72C27ACA72027BB0
:101F50000A73427B4A73827B8A73C07BC8730420F6
:101F600001901031081F0378C81E0678881E047877
:101F7000481E057801984210920F1018821001989F
:101F80009700C01B63D14148844630000F27B843F7
:101F90003607360F86196046805D6E46F0706646DD
:101FA0002000B8432407240F0019305C6C46A07051
:101FB0002C00BC432D072D0F6419305D6C466070FA
:101FC00060461C00BC431B071B0FE318C05C6B463C
:101FD0001870D2B21000012A02D12E4A107025E0EA
:101FE000022A23DB02202B4C2070521ED2B2531E39
:101FF000012B1BDB0223274C24780025082603E055
:10200000DF0701D56540EDB2802727406400002F2F
:1020100002D027001B247C405B08761EF0D11D4BAC
:102020001D70521ED2B2531E012BE3DA6846C078EF
:10203000184A137843406846807856784640684688
:1020400040789478444068460078D5784540080048
:102050001038007843400B7008000F380078464075
:102060004E7008000E38007844408C7008000D381F
:1020700000784540CD700198401C0190091D2C2826
:1020800000DA6FE702B0F0BC704700004C23000894
:10209000042700084C000020F6B589B002A90422EC
:1020A00003780B7003794B70037A8B70037BCB70D2
:1020B000091D401C521EF3D10A9902A8FFF770FEB9
:1020C0000A98103001900920079002A80421047892
:1020D0000F2200BF9DA325000F26B5432640AC1953
:1020E0001B5D0370447800BF98A325000F26B543FD
:1020F0002640AC191B5D4370847800BF93A3250074
:102100000F26B5432640AC191B5D8370C37800BF12
:102110008EA41D0095431A40AA18A25CC270001D2F
:10212000491ED4D102A8FFF77EFE02AE042006901D
:102130003078694608703079C870307A8870307BA2
:102140004870684601780220FFF716FE04006846D2
:10215000C1780320FFF710FE050068468178012052
:10216000FFF70AFE0100654069400C0068464178AF
:102170000120FFF701FE604008A908706846017859
:102180000120FFF7F9FD04006846C1780220FFF73F
:10219000F3FD0500684681780320FFF7EDFD01009F
:1021A000654069400C00684641780120FFF7E4FD76
:1021B00060400700684601780120FFF7DDFD04005C
:1021C0006846C1780120FFF7D7FD05006846817891
:1021D0000220FFF7D1FD0100654069400C00684610
:1021E00041780320FFF7C8FD60400400684601788D
:1021F0000320FFF7C1FD05006846C1780120FFF705
:10220000BBFD69460870684681780120FFF7B4FD80
:1022100069460978694048400500684641780220CF
:10222000FFF7AAFD0100694008A8007830703771F7
:1022300034723173761C0698401E069000D077E702
:102240006846007A0199097841406846017202A8FF
:10225000007901994978414002A80171007A0199F9
:102260008978414002A80172007B0199C9784140F8
:1022700002A80173407801990979414002A8417090
:10228000407901994979414002A84171407A019908
:102290008979414002A84172407B0199C979414046
:1022A00002A8417380780199097A414002A881709F
:1022B00080790199497A414002A88171807A019917
:1022C000897A414002A88172807B0199C97A414094
:1022D00002A88173C0780199097B414002A8C170AE
:1022E000C0790199497B414002A8C171C07A019926
:1022F000897B414002A8C172C07B0199C97B4140E2
:1023000002A8C1730198103001900798401E0790F1
:1023100000D0DAE602A8FFF7B4FD02A8FFF783FDBC
:102320000A220A9902A8FFF73BFD099802A9042294
:102330000B7803704B7803718B780372CB7803733F
:10234000091D401C521EF3D10BB0F0BD637C777B9E
:10235000F26B6FC53001672BFED7AB76CA82C97DA1
:10236000FA5947F0ADD4A2AF9CA472C0B7FD932632
:10237000363FF7CC34A5E5F171D8311504C723C336
:102380001896059A071280E2EB27B27509832C1A7A
:102390001B6E5AA0523BD6B329E32F8453D100EDD4
:1023A00020FCB15B6ACBBE394A4C58CFD0EFAAFBB8
:1023B000434D338545F9027F503C9FA851A3408F80
:1023C000929D38F5BCB6DA2110FFF3D2CD0C13EC98
:1023D0005F974417C4A77E3D645D197360814FDC2D
:1023E000222A908846EEB814DE5E0BDBE0323A0A11
:1023F0004906245CC2D3AC629195E479E7C8376D95
:102400008DD54EA96C56F4EA657AAE08BA78252EB9
:102410001CA6B4C6E8DD741F4BBD8B8A703EB56642
:102420004803F60E613557B986C11D9EE1F8981133
:1024300069D98E949B1E87E9CE5528DF8CA1890D22
:10244000BFE6426841992D0FB054BB16F6B589B06E
:1024500002A9042203780B7003794B70037A8B7006
:10246000037BCB70091D401C521EF3D10A220A992E
:1024700002A8FFF795FC0A98903001900920079078
:1024800002A8FFF7E7FC02A8042104780F2200BF8E
:102490009CA325000F26B5432640AC191B5D037095
:1024A000447800BF97A325000F26B5432640AC19FA
:1024B0001B5D4370847800BF92A325000F26B543AF
:1024C0002640AC191B5D8370C37800BF8DA41D002E
:1024D00095431A40AA18A25CC270001D491ED4D1AF
:1024E0006846007A0199097841406846017202A85D
:1024F000007901994978414002A80171007A019957
:102500008978414002A80172007B0199C978414055
:1025100002A80173407801990979414002A84170ED
:10252000407901994979414002A84171407A019965
:102530008979414002A84172407B0199C9794140A3
:1025400002A8417380780199097A414002A88170FC
:1025500080790199497A414002A88171807A019974
:10256000897A414002A88172807B0199C97A4140F1
:1025700002A88173C0780199097B414002A8C1700B
:10258000C0790199497B414002A8C171C07A019983
:10259000897B414002A8C172C07B0199C97B41403F
:1025A00002A8C17302AE0420069030786946087014
:1025B0003079C870307A8870307B4870684601780E
:1025C0000E20FFF7D9FB04006846C1780B20FFF707
:1025D000D3FB0500684681780D20FFF7CDFB010095
:1025E000654069400C00684641780920FFF7C4FB4C
:1025F000604008A90870684601780920FFF7BCFB15
:1026000004006846C1780E20FFF7B6FB0500684657
:1026100081780B20FFF7B0FB0100654069400C009A
:10262000684641780D20FFF7A7FB60400700684629
:1026300001780D20FFF7A0FB04006846C17809204F
:10264000FFF79AFB0500684681780E20FFF794FBA0
:102650000100654069400C00684641780B20FFF797
:102660008BFB60400400684601780B20FFF784FB79
:1026700005006846C1780D20FFF77EFB69460870AB
:10268000684681780920FFF777FB69460978694039
:1026900048400500684641780E20FFF76DFB0100B9
:1026A000694008A800783070377134723173761C35
:1026B0000698401E069000D077E7019810380190E8
:1026C0000798401E079000D0DAE602A8FFF7C2FB89
:1026D00002A8FFF7FCFB00220A9902A8FFF760FBA3
:1026E000099802A904220B7803704B7803718B7848
:1026F0000372CB780373091D401C521EF3D10BB03B
:10270000F0BD000052096AD53036A538BF40A39EFF
:1027100081F3D7FB7CE339829B2FFF87348E4344C0
:10272000C4DEE9CB547B9432A6C2233DEE4C950B1C
:1027300042FAC34E082EA16628D924B2765BA2497C
:102740006D8BD12572F8F66486689816D4A45CCC9B
:102750005D65B6926C704850FDEDB9DA5E1546576E
:10276000A78D9D8490D8AB008CBCD30AF7E45805A4
:10277000B8B34506D02C1E8FCA3F0F02C1AFBD03B0
:1027800001138A6B3A9111414F67DCEA97F2CFCE81
:10279000F0B4E67396AC7422E7AD3585E2F937E81C
:1027A0001C75DF6E47F11A711D29C5896FB7620E5E
:1027B000AA18BE1BFC563E4BC6D279209ADBC0FE3F
:1027C00078CD5AF41FDDA8338807C731B1121059EC
:1027D0002780EC5F60517FA919B54A0D2DE57A9FDE
:1027E00093C99CEFA0E03B4DAE2AF5B0C8EBBB3CD3
:1027F00083539961172B047EBA77D626E169146357
:1028000055210C7D6E480178427889188078081827
:1028100001D10A2001E0C006800E6A4909186A4AFF
:102820000B781372497851727047F0B581B004008B
:102830000E00FFF7E7FF614F387064490A78022AFB
:102840000AD100220A70B24DEA78521CEA70D2B264
:102850000B2A01DB01220A705D490A78062A02D0A0
:102860000A78042A04D100220A70A949CA7021E01A
:102870000878032820D100220A70A54DEA70A178BB
:10288000E01DFDF7F1FD002813D1617B9820084081
:102890000121297010280AD0182801D1202006E033
:1028A000902801D1402002E0982802D18020307089
:1028B00002E03878FEF74AFF01B0F0BDF1B584B010
:1028C0000E0030780F25284215D02840012809D164
:1028D0009048007800286CD104988F4941188F489F
:1028E000FDF732FD3078F021014031703248016847
:1028F00020220A4302603078F021084259D080201B
:10290000874C217B01400291A1786118491E09780A
:1029100001916946627B1040087082480778002F59
:102920000CD00322804920000930FEF7FDFD00286D
:1029300004D17E48012101700021418002980028C5
:102940000CD001980028684605D00278A178E01DD7
:10295000FDF791FC22E00078002815D1032295496B
:1029600020001030FEF7E0FD002811D0002F0BD022
:10297000207B602108420BD00023A21CA178E01D1F
:10298000FDF748FE002803D03078054035700CE094
:102990003300049AA178E01DFEF780F830780540F6
:1029A00035700B480078052803D083480078FEF77F
:1029B000CDFE05B0F0BD000000440040B70C002083
:1029C00068050020B418000814000020A80C00209E
:1029D000A90C002070B504000025784E308800282E
:1029E0000FD03088401C308080B21F2809DB74482B
:1029F00000F01CFF358073490D706F480078FEF7BA
:102A0000A5FE8B480278002A07D0521CD2B22B2A8E
:102A100003DB002206216B4B197002703C484178A1
:102A20003C4A1378022B05D1491CC9B2072901DBA6
:102A30000021157041707F49FF22921C8A1813787B
:102A4000002B08D013785B1C1370DBB20A2B02DB5F
:102A500015700D220A708178774A1378022B05D100
:102A6000491CC9B2072901DB002115708170734927
:102A7000FF22921C8A181378002B08D013785B1C55
:102A80001370DBB20A2B02DB15700D220A70E1789D
:102A9000002905D0491CE170C9B2332900DBE5707B
:102AA0002179002905D0491C2171C9B2332900DBE5
:102AB00025716179002905D0491C6171C9B233299A
:102AC00000DB6571017800290ED0491CC9B24A07A4
:102AD000520F012A04D15A4A146802266640166031
:102AE000302913DB002111E0104B554A02241E78D7
:102AF000012E0AD154605A88521C5A8092B29A4CC4
:102B0000A24203DB5D801D7000E05461017070BD66
:102B1000B00C0020800A0020160400007E0900206E
:102B20006C050020920C00207A0C0020620400202A
:102B3000F0B581B0434D444F444E3E4C20780D28B3
:102B400012D1002020706178A01CFDF78DFC0028B8
:102B500006D1A078682803D101208449087003E0D9
:102B6000306820210143316080493800FFF7A6FE1C
:102B7000092229000020FEF7A0FC0D212800FDF706
:102B800073FC0028DAD1A87A0007000F7849087092
:102B9000687C662804D101210120764AB95405E0F9
:102BA000002100206973A973E973297472490870C0
:102BB00001B0F0BD1C460008B70C0020AE0C002090
:102BC000F8450008A90C002010B582B0012200A928
:102BD000891CD0208001FEF770FC68464088C00741
:102BE00005D580206A49086000026A490860012210
:102BF0006946E0208001FEF760FC042468460088F6
:102C0000800704D5402062490860624804600122C0
:102C100001A9F0208001FEF750FC684600882042A0
:102C200004D05C4821030160C908016002B010BDF6
:102C3000710700207C09002078080020740700201C
:102C4000140000486C0C002050000020004400409C
:102C5000F0B581B001F026FB02264F4D2E60FFF744
:102C600067FF464C1B222100B002FEF726FC012024
:102C7000434908703520205C66280FD103222100CB
:102C800030314048FEF70AF82000FDF713FA3E49BC
:102C90002000FFF742F901203C4908702E61FFF740
:102CA000B1FD3E490870FEF753FC3C480078FEF742
:102CB0004DFDFFF789FF01F00BFB394D394C2B4ED1
:102CC000394F18E039480068202101433748016036
:102CD00031003748FFF7A9FD31003648FFF7EEFD18
:102CE000300000F077FA34480078052803D031002E
:102CF0003048FDF7FBFE314831490860387800283C
:102D0000FCD0002038703000FFF764FE20780D28DA
:102D100019D100202070E079800607D50123621CBC
:102D20006178A01CFDF70CFC00280CD16378A21C74
:102D30001A4801781E48FEF735FD22480068202118
:102D400001432048016028780D28C1D10020287057
:102D50006978A81CFDF788FB0028B3D1A8786828FB
:102D6000B0D101203070B3E74D1D0000940C00205D
:102D70004400002012040000920C0020340C0020BB
:102D8000B40C002068050020840B0020B50C002046
:102D9000181400481804004818000048B70C002018
:102DA0007C09002074070020A00C00200044004093
:102DB0006C05002050000020A90C0020AAAA0000E9
:102DC000003000400038014030B581B00C00017A7D
:102DD000CB0701D4002903D19178CD07ED0F12E084
:102DE0008B0707D530490978022918DB91788D07C0
:102DF000ED0F08E0490712D52B49097803290EDBAE
:102E000091784D07ED0F0521E17104220830010092
:102E100020000830FDF742FF2573012000E000206C
:102E200001B030BD30B581B00B000021047B002C17
:102E300000D00121047AE50701D4802C07D19478D1
:102E4000E507ED0FA9421FD0517810241AE0A5071D
:102E50000BD5154C2478022C21DB9478A507ED0FB7
:102E6000A94211D0517820240CE0640717D50E4CEC
:102E70002478032C13DB94786507ED0FA94203D067
:102E8000517840240C4354700421D9710422083035
:102E9000010008331800FDF701FF012000E00020C9
:102EA00001B030BD0000000044000020F4B5050072
:102EB0000E000027002403222BA10930FEF734FB6B
:102EC00000280ED1287A0006009A04D53100280087
:102ED000FFF7A8FF03E031002800FFF775FF0400AB
:102EE00009E0032205A109352800FEF71DFB002893
:102EF00001D1F7710124200001B0F0BD00000100F4
:102F0000F0B581B004000D00002700200026AA685B
:102F100004210A4225D08A43AA60AA786B461A7017
:102F20006A461278D20702D5012001260CE06A46D3
:102F30001278920702D50126022005E06A4613782E
:102F40000B4201D0012604200521E17120720322E9
:102F500005A120000930FDF7A1FE26736F70002047
:102F600000E0012001B0F0BD0000210004218268D2
:102F70000A4000D0704730B4904A9378C478002C4F
:102F80001ED18F4C24682506EC0F09D05578AC4231
:102F900015D05B1CDBB2152B12D3002354700FE04D
:102FA0005478002C0BD05B1CDBB2152B08D300240B
:102FB00000235470447801252543457000E0002328
:102FC00093701378022B49DB13790479002C1ED1FE
:102FD0007B4C2468A506EC0F09D0D578AC4215D0FF
:102FE0005B1CDBB2152B12D30023D4700FE0D47816
:102FF000002C0BD05B1CDBB2152B08D30024002364
:10300000D470447802252543457000E000231371F5
:103010001378032B22DB93794479002C1DD1694C62
:103020002468A504EC0F09D05079844214D05B1CAD
:10303000DBB2152B11D3002354710EE05479002C10
:103040000AD05B1CDBB2152B07D30024002354717C
:1030500044782143417000E00023937130BC7047F5
:10306000F0B581B00400A0680425284200D0A2E099
:1030700061781122114231D0E278002A2ED1CA079C
:1030800009D5514A1278002A02D02843A06002E0F4
:10309000FE20084060706078EE21014061700126DA
:1030A000A07801224240A270E67048486B0348496C
:1030B0008027D20702D50F60036001E00F61036132
:1030C000D027BF013800FEF7AFF9A0780640684668
:1030D0000680012269463800FEF7CAF9607822218D
:1030E000084232D0217900292FD1022630420AD05D
:1030F00035490978002903D0A0682843A06002E080
:10310000FD21014061706078DD2101406170A0788F
:1031100002224240A2700120207140232B482C49FA
:10312000324202D00B60056001E00B610561E027CF
:10313000BF013800FEF778F9A0780640684606809F
:10314000012269463800FEF793F96078442108426D
:1031500031D0617900292ED128420AD01A49097844
:10316000002903D0A0682843A06002E0FB210140B1
:1031700061706078BB2101406170A07804214140FA
:10318000A17001206071C20283031048294202D05D
:103190000360026001E003610261F026B6013000C5
:1031A000FEF742F9A078054068460580012269468D
:1031B0003000FEF75DF901B0F0BD000044000020D2
:1031C0001000004810080048920C00201804004825
:1031D0001814004810B50400FFF7C8FE2000FFF7E0
:1031E0003FFF10BD124207D08B0706D00B78491C59
:1031F0000370401C521EF7D87047830706D00B7827
:10320000491C0370401C521EF9D1704770B4103A2B
:1032100003D378C9103A78C0FBD2530701D318C939
:1032200018C001D508C908C0D20704D30B88038091
:10323000891C801C002A01D50B78037070BC704774
:1032400030B46149880C4A6802434A600A68430105
:1032500013430B6082010B6813430B600B6813432D
:103260000B600B681A430A609021C9050A68920036
:1032700092080A6082040B6813430B604B68534C3E
:103280001C404C604B684B608B689B009B088B60BC
:103290008B681A438A60CA6892009208CA60CA683A
:1032A000CA604B490A6A4B4B13400B620A6A0A62B6
:1032B000C022D2430B6813400B600B6880241C4370
:1032C0000C604B680824A3434B604B684B608B68D1
:1032D00013408B608B68C0241C438C60CB681A4001
:1032E000CA60CA68CA600A6A3B4B13400B620A6A2A
:1032F0000A623A4A0B6813400B600B6844081C438F
:103300000C604B682024A3434B604B684B608B6878
:1033100013408B608B68D4431C438C60CB681A408D
:10332000CA60CA68CA600A6A2D4B13400B620A6AF7
:103330000A622C4B0A681A400A60C2080C681443DF
:103340000C60CC682340CB60CB68CB60264900235F
:103350000B600C680C600C68102525430D600C6830
:10336000042525430D600C680C600C680C604B60F4
:103370004B68184348604868E023DB0003434B6018
:10338000086802430A6008688A0D02430A600868F8
:10339000402202430A6002208A680240FCD0FF20DB
:1033A000087301208A680240FCD0087B30BC70475B
:1033B00002210E4A13680B40FCD0107101201168E5
:1033C0000140FCD01079704714100240FF7FFFFFCE
:1033D00000040048FF0FFFFFFFFF0FFFFFF3FFFF99
:1033E000FFFFF0FFFFFCFFFF00300140083001400D
:1033F0009A480168802292020A4302609020C00528
:10340000022181620C21C94302680A4002600268FD
:10341000042313430360426802239A4342604268D4
:10342000426082680A40826082688260C26811409D
:10343000C160C168C1607047884801688022D202BB
:103440000A430260864887490A6802400A600A689F
:103450008023DB0113430B604A6880239A434A6050
:103460004A684A608A6802408A608A688A60CA68D4
:103470001040C860C868C860704730B48021C90374
:10348000764802680A430260754B774A14681C400C
:10349000146014680D0A2543156054688025AC43F8
:1034A00054605468546094681C40946094689460BC
:1034B000D4682340D360D368D360036819430160A4
:1034C0006A4913680B4013601368840C1C43146032
:1034D00053684024A34353605368536093680B4080
:1034E000936093689360D3681940D160D168D160CC
:1034F000016822030A4302605D485A490A68024093
:103500000A600A68A30513430B604A68594B1340CD
:103510004B604A684A608A6802408A608A688A60AA
:10352000CA681040C860C868C86030BC704730B412
:103530008020C00249490A6802430A60494A136868
:103540009B009B081360136804031C4314605368BA
:10355000494C1C4054605368536093689B009B081F
:10356000936093689360D3689B009B08D360D36893
:10357000D3600B6803430B603023DB4314681C40AB
:103580001460146810252543156054680425AC4365
:1035900054605468546094681C40946094689460CB
:1035A000D4682340D360D368D3600B6818430860A5
:1035B000324811680140116011682B050B431360FC
:1035C00051682F4B0B405360516851609168014026
:1035D000916091689160D1680840D060D068D060F7
:1035E00030BC704710B4802189021C4802680A432D
:1035F00002601B4B9022D20514681C4014601468B2
:103600001460D4682340D360D368CC081C43D460D2
:103610000368194301601B4913680B40136013686A
:103620001360D3681940D160D168030D0B43D36098
:103630000168802212030A430260134813490A6892
:1036400002400A600A680A60CA681040C860C86818
:103650008022D2040243CA6010BC7047141002409A
:10366000FF3FFFFF0004004800140048FFCFFFFFAA
:10367000FFFFFFCFFFBFFFFFFF7FFFFFFFFF3FFF0A
:10368000FFF7FFFFFFF3FFFFFFFFFFF30008004816
:10369000F0B581B0224801688022D2020A4302605C
:1036A0002049214A13680B40136013681360D368E4
:1036B0001940D160D168830C0B43D3600124416869
:1036C0002143416019480168194A0A4002600168B3
:1036D000820D0A430260174D4027E8683843E860CE
:1036E000A868A8606E460720307002207070B47021
:1036F000684600F0ADFD286807432F600620307053
:1037000003207070B470684600F0A2FD082029689C
:103710000143296069680843686001B0F0BD00009A
:1037200014100240FFCFFFFF000400480C000140CE
:10373000FFF0FFFF00040140FFB581B05648068A44
:10374000564C80252D0225614420FFF731FE8A4F1B
:1037500008E0B6B2002E0CD0256025614420FFF7AA
:1037600027FEF619C020FFF723FEFF28F1D136040B
:1037700004D1256002207F49087000E025602561A2
:103780002020FFF715FE6846007AFFF711FE684615
:10379000007BFFF70DFE6846007CFFF709FE256001
:1037A0003D48068A25614420FFF702FE08E0B6B2D4
:1037B000002E0CD0256025614420FFF7F9FDF61995
:1037C000C020FFF7F5FDFF28F1D1360403D12560B5
:1037D000022068490870AA20FFF7EAFD01990870E5
:1037E000AA20FFF7E5FD01994870AA20FFF7E0FD48
:1037F00001998870AA20FFF7DBFD0199C870AA2003
:10380000FFF7D6FD01990871AA20FFF7D1FD0199B4
:103810004871AA20FFF7CCFD01998871AA20FFF713
:10382000C7FD0199C871256005B0F0BDF1B5002450
:103830001948058A194F802636023E614420FFF759
:10384000B7FD08E0ADB2002D0CD03E603E614420D3
:10385000FFF7AEFD6D1EC020FFF7AAFDFF28F1D1D6
:103860002D0404D13E6002204249087000E03E6011
:103870003E6100988078001D01280ADB0098005DF9
:10388000FFF796FD641CE4B200988078001D844226
:10389000F4DB3E6001B0F0BD0000002018000048DD
:1038A000F0B581B0354F3E8A5D4C80252D022561F3
:1038B0004420FFF77DFD08E0B6B2002E0CD0256055
:1038C00025614420FFF774FD761EC020FFF770FDD0
:1038D000FF28F1D1360404D1256002202549087063
:1038E00000E0256025610120FFF762FD25603E8A2A
:1038F00025614420FFF75CFD08E0B6B2002E0CD035
:10390000256025614420FFF753FD761EC020FFF798
:103910004FFDFF28F1D1360403D12560022015495F
:103920000870AA20FFF744FD3870AA20FFF740FD79
:1039300000027880AA20FFF73BFD79880143798057
:10394000AA20FFF735FD3871AA20FFF731FD0002EC
:10395000F880AA20FFF72CFDF9880143F980AA20FE
:10396000FFF726FD3872AA20FFF722FD7872256046
:1039700001B0F0BDA80C0020FFFF000000000020F7
:10398000F1B59048068A264C80252D0225614420F9
:10399000FFF70EFD684F08E0B6B2002E0CD0256090
:1039A00025614420FFF704FDF619C020FFF700FD54
:1039B000FF28F1D1360404D1256002204049087067
:1039C00000E0256025612120FFF7F2FC25607D489D
:1039D000068A25614420FFF7EBFC08E0B6B2002E12
:1039E0000CD0256025614420FFF7E2FCF619C020C9
:1039F000FFF7DEFCFF28F1D1360403D12560022059
:103A00002F490870AA20FFF7D3FC00990870AA205C
:103A1000FFF7CEFC00994870256001B0F0BD0000B2
:103A200018000048F0B581B06648068A814C8025B0
:103A30002D0225614420FFF7BBFC3F4F08E0B6B2E2
:103A4000002E0CD0256025614420FFF7B1FCF6194B
:103A5000C020FFF7ADFCFF28F1D1360404D125606A
:103A600002201749087000E0256025613320FFF728
:103A70009FFC25605348068A25614420FFF798FC87
:103A800008E0B6B2002E0CD0256025614420FFF777
:103A90008FFCF619C020FFF78BFCFF28F1D136040C
:103AA00003D12560022006490870AA20FFF780FC98
:103AB0000600AA20FFF77CFC2560300001B0F0BDB5
:103AC000A80C0020F7B53F48048A5A4D80263602DC
:103AD0002E614420FFF76CFC174F08E0A4B2002CC5
:103AE0000CD02E602E614420FFF762FCE419C02048
:103AF000FFF75EFCFF28F1D1240404D12E600220E0
:103B00006849087000E02E602E613120FFF750FCFC
:103B100068460078FFF74CFC68460079FFF748FCE0
:103B20000020FFF745FC68460089C0B2FFF740FC63
:103B30002E6003B0F0BD0000FFFF0000FFB581B0B4
:103B40002048048A3B4D802636022E614420FFF730
:103B50002FFC554F08E0A4B2002C0CD02E602E6133
:103B60004420FFF725FCE419C020FFF721FCFF28C3
:103B7000F1D1240404D12E6002204A49087000E0EB
:103B80002E602E613220FFF713FC68460079FFF7A4
:103B90000FFC6846007AFFF70BFC0020FFF708FCDB
:103BA00068468089C0B2FFF703FC6846007CFFF7D7
:103BB000FFFB0A98FFF7FCFB0B98FFF7F9FB2E6061
:103BC00005B0F0BD00000020F2B504005448068A9C
:103BD000184F80252D023D614420FFF7E9FB08E0E6
:103BE000B6B2002E0CD03D603D614420FFF7E0FBF3
:103BF000761EC020FFF7DCFBFF28F1D1360404D18C
:103C00003D6002202749087000E03D603D6166206C
:103C1000FFF7CEFB68460078002807D06846067894
:103C20002078FFF7C5FB641C761EF9D13D6001B01A
:103C3000F0BD000018000048F2B504003848068ABC
:103C4000604F80252D023D614420FFF7B1FB08E065
:103C5000B6B2002E0CD03D603D614420FFF7A8FBBA
:103C6000761EC020FFF7A4FBFF28F1D1360404D153
:103C70003D6002200B49087000E03D603D61772007
:103C8000FFF796FB68460078002808D0684606785B
:103C9000AA20FFF78DFB2070641C761EF8D13D60D2
:103CA00001B0F0BDA80C0020FFFF0000F0B581B00E
:103CB0001B4F3C8A434D802636022E614420FFF77D
:103CC00077FB08E0A4B2002C0CD02E602E614420BB
:103CD000FFF76EFB641EC020FFF76AFBFF28F1D1DF
:103CE000240404D12E6002208549087000E02E6073
:103CF0002E615020FFF75CFBAA20FFF759FB3873B9
:103D0000AA20FFF755FB7873AA20FFF751FBB87381
:103D1000AA20FFF74DFBF8732E6001B0F0BD000044
:103D200000000020F1B57748068A264C80252D0238
:103D300025614420FFF73CFB734F08E0B6B2002E2C
:103D40000CD0256025614420FFF732FBF619C02016
:103D5000FFF72EFBFF28F1D1360404D125600220A5
:103D60006749087000E0256025611520FFF720FBFA
:103D700068460078FFF71CFB25606248068A2561CB
:103D80004420FFF715FB08E0B6B2002E0CD02560EA
:103D900025614420FFF70CFBF619C020FFF708FB54
:103DA000FF28F1D1360403D1256002205449087060
:103DB000AA20FFF7FDFAAA20FFF7FAFA256001B062
:103DC000F0BD000018000048F0B581B0802040012F
:103DD0004C490882B84C80252560022000F0ADFADD
:103DE00025610A2000F0A9FA484C2D022561022025
:103DF000FFF7DEFA0120FFF7DBFA0020FFF7D8FA21
:103E00000120FFF7D5FAC920FFF7D2FAC320FFF748
:103E1000CFFA8020FFF7CCFA2560022000F08DFA5F
:103E20003848068A25614420FFF7C2FA364F08E079
:103E3000B6B2002E0CD0256025614420FFF7B8FAF9
:103E4000F619C020FFF7B4FAFF28F1D1360404D1E7
:103E5000256002202A49087000E0256025612020A5
:103E6000FFF7A6FA0020FFF7A3FA0020FFF7A0FA59
:103E70000020FFF79DFA25602248068A256144202C
:103E8000FFF796FA08E0B6B2002E0CD02560256147
:103E90004420FFF78DFAF619C020FFF789FAFF28B2
:103EA000F1D1360403D12560022015490870AA20FB
:103EB000FFF77EFAAA20FFF77BFAAA20FFF778FA2D
:103EC000AA20FFF775FAAA20FFF772FAAA20FFF7D7
:103ED0006FFAAA20FFF76CFAAA20FFF769FA2560AB
:103EE000FFF7DEFC20200749088248887349884292
:103EF00001D0012000E0002001B0F0BD0000000072
:103F0000A80C002000000020FFFF0000180000485F
:103F1000F0B581B06EA0FFF789FC00BF6EA0FFF77F
:103F200085FC00BF6EA0FFF781FC00BF6EA0FFF70D
:103F30007DFC00BF6EA0FFF779FC00BF6FA0FFF70C
:103F400075FC00BF6FA0FFF771FC00BF6FA0FFF70B
:103F50006DFC00BF71A0FFF769FC00BF78A0FFF700
:103F600065FC00BF7AA0FFF761FC00BF7CA0FFF7F3
:103F70005DFC00BF7CA0FFF759FC00BF7CA0FFF7F1
:103F800055FC00BF7CA0FFF751FC00BF7CA0FFF7F1
:103F90004DFC00BF63A0FFF749FC00BF7BA0FFF70B
:103FA00045FC00BF7BA0FFF741FC00BF7BA0FFF7F3
:103FB0003DFC00BF7BA0FFF739FC00BF7CA0FFF7F2
:103FC00035FC00BF7EA0FFF731FC00BF80A0FFF7EB
:103FD0002DFC00BF58A0FFF729FC00BF80A0FFF711
:103FE00025FC00BF51A0FFF721FC354C2000143008
:103FF000FFF71CFC7DA0FFF719FC00BF7FA0FFF7B7
:1040000015FC00BF81A0FFF711FC00BF83A0FFF7E4
:104010000DFC00BF85A0FFF709FC00BF86A0FFF7DD
:1040200005FC20002430FFF701FC20002C30FFF7B6
:10403000FDFB20003430FFF7F9FB20003C30FFF798
:10404000F5FB00BF7EA0FFF7F1FB00BF7EA0FFF7EE
:10405000EDFB248A1B4D802636022E614420FFF79B
:10406000A7F9194F08E0A4B2002C0CD02E602E61E5
:104070004420FFF79DF9E419C020FFF799F9FF28C4
:10408000F1D1240404D12E6002201049087000E010
:104090002E602E611120FFF78BF91220FFF788F9AF
:1040A0000120FFF785F90020FFF782F98520FFF74F
:1040B0007FF92E6001B0F0BD1804004838440000BC
:1040C0000000002018000048FFFF0000A80C00209E
:1040D0001100020052000000110001032000000046
:1040E0001101020000000000110204000305000A93
:1040F00011100500500A00251200000011110300E4
:104100000198F300111201068100000011200A003D
:10411000030007061A8005C9C38000001120030AA6
:10412000000676001120034C11003A0011400800EF
:104130003D0EEEEE369D20FE112203017F001D0094
:1041400011200C18018008038000202000E801776E
:1041500011200C24015D8600AF02C2000432801DD4
:104160001120033011EC800011200135E000000027
:104170001120033811525200112004402A0CA422AD
:10418000112005458300DE0200FF060011200250C9
:10419000840A000011200254030700001120015777
:1041A000000000001120055B420407782000000099
:1041B00011210C00CCA130A021D1B9C9EA051211FE
:1041C00011210C0C0A0415FC0300CCA130A021D154
:1041D00011210C18B9C9EA0512110A0415FC0300D3
:1041E000112307002C0E0B040C73030011500C0C50
:1041F00005FFFFFFFFFFFFFFFFFFFFFF11500C1840
:10420000FFFFFFFFFFFFFFFFFFFFFFFF11500C2429
:10421000FFFFFFFFFFFFFFFFFFFFFFFF11500C300D
:10422000FFFFFFFFFFFFFFFFFFFFFFFF1150063CF7
:10423000FFFFFFFFFFFF0000111203080A0100004B
:104240001112020B303000001120014A3A00000028
:1042500070B401000C781F2201238878002815D043
:104260000D4D20000326B04328180568A407E40E6E
:10427000FF26A640B5434E78B607360EA6402E431D
:104280000660087802409340044802E022409340D0
:104290000348036070BC704700E400E000E100E008
:1042A00080E100E000B581B000F05CF872B6FFF785
:1042B0009FF8FFF7E2F8FFF73AF9FFF793F900F0FC
:1042C0001FF8FDF719FBFDF792FB62B601B000BDC8
:1042D0000748084901600849016000214160FA214E
:1042E00009018160C1680029FCD10449016070475F
:1042F00000300040CCCC000055550000AAAA0000B8
:1043000030B581B0144C1548606020680421014329
:1043100021600020A0606846FF21017003214170E8
:1043200001258570FFF794FF206802210143216079
:1043300020680543256001B030BD09494A684B68D3
:104340009B1A8342FBD3704705484168490701D156
:10435000012101707047000010E000E080BB000008
:10436000A00C00201148416841600021C1624168F1
:10437000A02292030A434260022142680A4342603B
:10438000426842604268426002680123134303604E
:1043900002680A40FCD00168802252040A4302608D
:1043A0008021890402680A40FCD070470010024056
:1043B0007047FEE77047704736480168C90300D46C
:1043C000704700B581B0006833480168491C01603E
:1043D000FFF7BAFF01B000BD7047704770477047E4
:1043E00030B581B02D4C0825206928400BD02069BC
:1043F000284320612068A84320602948FDF7C8F8B9
:1044000020680543256001B030BD26484021426840
:104410000A4006D002680823134303604268114330
:104420004160704710B5204C0820E169014002D07E
:10443000216A08432062E069800604D51B49A08CEC
:10444000C0B2FDF74FFBE069400606D520680006C4
:1044500003D51748FDF758FC208510BD10B5154C45
:104460000820E169014002D0216A08432062E06926
:10447000800604D51049A08CC0B2FDF78BFBE06923
:10448000400606D52068000603D50C48FDF754FC0D
:10449000208510BD10E000E0A40C002004040140C1
:1044A0006C05002010040140004400407C090020FD
:1044B000800A00200038014074070020780800209E
:1044C0007047FEE71148016801220A430260416813
:1044D0000F4A0A40426001680E4A0A4002600168C1
:1044E0000D4A0A40026041680C4A0A404260C16AB3
:1044F0000F229143C162016B094A0A400263416B7A
:104500000122914341630021816070470010024005
:104510000CB8FF08FFFFF6FEFFFFFBFFFFFFC0FF29
:10452000ECFEFFFF30B401210268001D002A0FD00D
:104530000368C318446808300C4202D04D466D1E13
:1045400064191D6825601B1D241D121FECD0F8E79F
:1045500030BC704710B5074979441831064C7C448B
:10456000163404E0081D0A68891888470100A14232
:10457000F8D110BD080000002800000047C7FFFF69
:10458000680C0000500000200000000099FFFFFFB1
:1045900050000000AC0000000000002000000000FF
:1045A00000F00BF8002801D0FFF7D4FF0020C04630
:1045B000C046FEF74DFB00F002F80120704780B5C1
:1045C00000F002F801BDFEE70746384600F002F8A9
:1045D000FBE7FEE780B5C046C046024A110018203E
:1045E000ABBEFBE726000200110103000319010026
:1045F000110102000122000011010300030000006C
:104600000148804701480047C5440008114600089A
:10461000C046C046C046C046FFF7C2FFFFFFFF00CE
:10462000FFFFFB00FEE7FEE7FEE7FEE7FEE7FEE733
:10463000FEE7FEE7FEE7FEE7FEE7FEE7FEE7000037
:10464000000000000000000000000000000000006A
:104650000000000011500C001804042B042BFFFF75
:10466000FFFFFFFF1112040D000106A21112041139
:1046700001000222111204210001068211120425F8
:104680000100020A01010001000100000200000017
:040000050800461198
:00000001FF
