:020000040800F2
:10000000381600206D460008FD430008FF43000835
:1000100000000000000000000000000000000000E0
:100020000000000000000000000000000144000883
:100030000000000000000000034400080544000820
:10004000F743000800000000FB4300082F450008AC
:10005000334600084544000847440008714400083E
:10006000000000002D4500083F46000891460008AA
:1000700093460008954600089746000800000000D7
:100080009946000843440008000000009B46000811
:100090003F4400089D460008414400089F46000870
:1000A000A1460008A3460008A5460008C34400086E
:1000B0008B440008FFB581B056488689564C802590
:1000C0002D022561442000F017FE8A4F08E0B6B2E9
:1000D000002E0CD025602561442000F00DFEF6199D
:1000E000C02000F009FEFF28F1D1360404D12560BC
:1000F00002207F49087000E025602561202000F083
:10010000FBFD6846007A00F0F7FD6846007B00F0D2
:10011000F3FD6846007C00F0EFFD25603D488689D0
:100120002561442000F0E8FD08E0B6B2002E0CD0B6
:1001300025602561442000F0DFFDF619C02000F0A5
:10014000DBFDFF28F1D1360403D125600220684988
:100150000870AA2000F0D0FD01990870AA2000F0D4
:10016000CBFD01994870AA2000F0C6FD0199887066
:10017000AA2000F0C1FD0199C870AA2000F0BCFDC2
:1001800001990871AA2000F0B7FD01994871AA20D1
:1001900000F0B2FD01998871AA2000F0ADFD01992F
:1001A000C871256005B0F0BDF1B5002419488589F6
:1001B000194F802636023E61442000F09DFD08E084
:1001C000ADB2002D0CD03E603E61442000F094FDA5
:1001D0006D1EC02000F090FDFF28F1D12D0404D148
:1001E0003E6002204249087000E03E603E61009897
:1001F0008078001D01280ADB0098005D00F07CFD7E
:10020000641CE4B200988078001D8442F4DB3E60F8
:1002100001B0F0BD8C00002018000048F0B581B09E
:10022000694FBE89694C80252D022561442000F06C
:1002300063FD08E0B6B2002E0CD025602561442095
:1002400000F05AFD761EC02000F056FDFF28F1D1C7
:10025000360404D1256002202549087000E025609D
:100260002561012000F048FD2560BE8925614420FC
:1002700000F042FD08E0B6B2002E0CD025602561EA
:10028000442000F039FD761EC02000F035FDFF2827
:10029000F1D1360403D12560022015490870AA2047
:1002A00000F02AFD3870AA2000F026FD00027880B8
:1002B000AA2000F021FD798801437980AA2000F06E
:1002C0001BFD3871AA2000F017FD0002F880AA205B
:1002D00000F012FDF9880143F980AA2000F00CFD1E
:1002E0003872AA2000F008FD7872256001B0F0BDD8
:1002F000140E0020FFFF0000F0B581B0324FBE8920
:10030000324C80252D022561442000F0F5FC08E0E8
:10031000B6B2002E0CD025602561442000F0ECFC24
:10032000761EC02000F0E8FCFF28F1D1360404D18D
:10033000256002204D49087000E0256025612220DB
:1003400000F0DAFC2560BE892561442000F0D4FC71
:1003500008E0B6B2002E0CD025602561442000F0E4
:10036000CBFC761EC02000F0C7FCFF28F1D136047C
:1003700003D1256002203D490870AA2000F0BCFC92
:100380003870AA2000F0B8FC7870AA2000F0B4FC05
:10039000B870AA2000F0B0FCF870AA2000F0ACFC05
:1003A0003871AA2000F0A8FC7871AA2000F0A4FC03
:1003B0000002F880AA2000F09FFCF9880143F98030
:1003C000256001B0F0BD00008C000020180000483E
:1003D000F0B581B066488689814C80252D02256163
:1003E000442000F089FC3F4F08E0B6B2002E0CD04C
:1003F00025602561442000F07FFCF619C02000F044
:100400007BFCFF28F1D1360404D125600220174976
:10041000087000E025602561332000F06DFC256048
:10042000534886892561442000F066FC08E0B6B296
:10043000002E0CD025602561442000F05DFCF619EB
:10044000C02000F059FCFF28F1D1360403D125600B
:10045000022006490870AA2000F04EFC0600AA20DF
:1004600000F04AFC2560300001B0F0BD140E002001
:10047000F7B53F4884895A4D802636022E614420C4
:1004800000F03AFC174F08E0A4B2002C0CD02E600C
:100490002E61442000F030FCE419C02000F02CFC58
:1004A000FF28F1D1240404D12E600220684908708D
:1004B00000E02E602E61312000F01EFC68460078BE
:1004C00000F01AFC6846007900F016FC002000F0ED
:1004D00013FC68460089C0B200F00EFC2E6003B029
:1004E000F0BD0000FFFF0000FFB581B02048848907
:1004F0003B4D802636022E61442000F0FDFB554F17
:1005000008E0A4B2002C0CD02E602E61442000F034
:10051000F3FBE419C02000F0EFFBFF28F1D1240425
:1005200004D12E6002204A49087000E02E602E613E
:10053000322000F0E1FB6846007900F0DDFB684600
:10054000007A00F0D9FB002000F0D6FB68468089D5
:10055000C0B200F0D1FB6846007C00F0CDFB0A98E9
:1005600000F0CAFB0B9800F0C7FB2E6005B0F0BD91
:100570008C000020F2B5040037488689184F80258A
:100580002D023D61442000F0B7FB08E0B6B2002E1A
:100590000CD03D603D61442000F0AEFB761EC020D3
:1005A00000F0AAFBFF28F1D1360404D13D600220FF
:1005B0002749087000E03D603D61662000F09CFB2B
:1005C00068460078002807D068460678207800F052
:1005D00093FB641C761EF9D13D6001B0F0BD0000B4
:1005E00018000048F2B504001B488689434F802557
:1005F0002D023D61442000F07FFB08E0B6B2002EE2
:100600000CD03D603D61442000F076FB761EC0209A
:1006100000F072FBFF28F1D1360404D13D600220C6
:100620000B49087000E03D603D61772000F064FBFD
:1006300068460078002808D068460678AA2000F0AE
:100640005BFB2070641C761EF8D13D6001B0F0BDEC
:10065000140E0020FFFF00008C000020F1B5774849
:100660008689264C80252D022561442000F044FB1C
:10067000734F08E0B6B2002E0CD0256025614420EF
:1006800000F03AFBF619C02000F036FBFF28F1D14C
:10069000360404D1256002206749087000E0256017
:1006A0002561152000F028FB6846007800F024FB47
:1006B0002560624886892561442000F01DFB08E022
:1006C000B6B2002E0CD025602561442000F014FB4A
:1006D000F619C02000F010FBFF28F1D1360403D139
:1006E0002560022054490870AA2000F005FBAA20CA
:1006F00000F002FB256001B0F0BD000018000048CA
:10070000F0B581B0802040014C498881B84C8025EB
:100710002560022000F02DFB25610A2000F029FB56
:10072000484C2D022561022000F0E6FA012000F07D
:10073000E3FA002000F0E0FA012000F0DDFAC92021
:1007400000F0DAFAC32000F0D7FA802000F0D4FAE3
:100750002560022000F00DFB384886892561442081
:1007600000F0CAFA364F08E0B6B2002E0CD0256071
:100770002561442000F0C0FAF619C02000F0BCFA50
:10078000FF28F1D1360404D1256002202A490870DF
:1007900000E025602561202000F0AEFA002000F086
:1007A000ABFA002000F0A8FA002000F0A5FA2560BE
:1007B000224886892561442000F09EFA08E0B6B2FE
:1007C000002E0CD025602561442000F095FAF61922
:1007D000C02000F091FAFF28F1D1360403D1256042
:1007E000022015490870AA2000F086FAAA2000F01D
:1007F00083FAAA2000F080FAAA2000F07DFAAA204D
:1008000000F07AFAAA2000F077FAAA2000F074FA31
:10081000AA2000F071FA2560FFF700FD20200749AB
:10082000888148887349884201D0012000E0002077
:1008300001B0F0BD00000000140E00208C0000206C
:10084000FFFF000018000048F0B581B06EA0FFF770
:10085000ABFC00BF6EA0FFF7A7FC00BF6EA0FFF7C8
:10086000A3FC00BF6EA0FFF79FFC00BF6EA0FFF7C8
:100870009BFC00BF6FA0FFF797FC00BF6FA0FFF7C6
:1008800093FC00BF6FA0FFF78FFC00BF71A0FFF7C4
:100890008BFC00BF78A0FFF787FC00BF7AA0FFF7B2
:1008A00083FC00BF7CA0FFF77FFC00BF7CA0FFF7AC
:1008B0007BFC00BF7CA0FFF777FC00BF7CA0FFF7AC
:1008C00073FC00BF7CA0FFF76FFC00BF63A0FFF7C5
:1008D0006BFC00BF7BA0FFF767FC00BF7BA0FFF7AE
:1008E00063FC00BF7BA0FFF75FFC00BF7BA0FFF7AE
:1008F0005BFC00BF7CA0FFF757FC00BF7EA0FFF7AA
:1009000053FC00BF80A0FFF74FFC00BF58A0FFF7CB
:100910004BFC00BF80A0FFF747FC00BF51A0FFF7D2
:1009200043FC354C20001030FFF73EFC7DA0FFF764
:100930003BFC00BF7FA0FFF737FC00BF81A0FFF7A3
:1009400033FC00BF83A0FFF72FFC00BF85A0FFF79B
:100950002BFC00BF86A0FFF727FC20002030FFF70C
:1009600023FC20002830FFF71FFC20003030FFF769
:100970001BFC20003830FFF717FC00BF7EA0FFF7FC
:1009800013FC00BF7EA0FFF70FFCA4891B4D80263F
:1009900036022E61442000F0AFF9194F08E0A4B2EE
:1009A000002C0CD02E602E61442000F0A5F9E41933
:1009B000C02000F0A1F9FF28F1D1240404D12E6059
:1009C00002201049087000E02E602E61112000F016
:1009D00093F9122000F090F9012000F08DF9002029
:1009E00000F08AF9852000F087F92E6001B0F0BD93
:1009F00018040048384400008C000020180000480B
:100A0000FFFF0000140E0020110002005200000041
:100A1000110001036000000011010200000000004D
:100A2000110204000305000A111005000A14000A4F
:100A300012000000111103000198F30011120106C9
:100A40008100000011200A00030007061A8005C972
:100A5000C38000001120030A000676001120034C19
:100A600031002000114008003D0EEEEE369D20FEC4
:100A7000112203017F001D0011200C1801800803C2
:100A80008000202000E8017711200C24015D860001
:100A9000AF02C2000432801D1120033011EC80002F
:100AA00011200135E00000001120033811525200DE
:100AB000112004402A0CA422112005458300DE02E7
:100AC00000FF060011200250840A00001120025489
:100AD0000307000011200157000000001120055BF2
:100AE000420407782000000011210C00CCA130A0A6
:100AF00021D1B9C9EA05121111210C0C0A0415FC07
:100B00000300CCA130A021D111210C18B9C9EA05EC
:100B100012110A0415FC0300112307002C0E0B040C
:100B20000C73030011500C0C052C062D072E082FFA
:100B300009300A3111500C180B320C330D340E35BC
:100B40000F36103711500C2411381239133A143B58
:100B5000153C163D11500C30173E193F1A401B41F1
:100B60001C431D441150063C1E451F4620470000F3
:100B7000111203080A0100001112020B30300000AC
:100B80001120014A3F00000030B46149880C4A68D6
:100B900002434A600A68430113430B6082010B68F9
:100BA00013430B600B6813430B600B681A430A6016
:100BB0009021C9050A68920092080A6082040B68B5
:100BC00013430B604B68534C1C404C604B684B60AC
:100BD0008B689B009B088B608B681A438A60CA688D
:100BE00092009208CA60CA68CA604B490A6A4B4BB5
:100BF00013400B620A6A0A62C022D2430B68134098
:100C00000B600B6880241C430C604B680824A343D2
:100C10004B604B684B608B6813408B608B68C024C3
:100C20001C438C60CB681A40CA60CA68CA600A6AF2
:100C30003B4B13400B620A6A0A623A4A0B68134044
:100C40000B600B6844081C430C604B682024A343D2
:100C50004B604B684B608B6813408B608B68D44350
:100C60001C438C60CB681A40CA60CA68CA600A6AB2
:100C70002D4B13400B620A6A0A622C4B0A681A4019
:100C80000A60C2080C6814430C60CC682340CB6037
:100C9000CB68CB60264900230B600C680C600C68A5
:100CA000102525430D600C68042525430D600C6854
:100CB0000C600C680C604B604B68184348604868D7
:100CC000E023DB0003434B60086802430A600868C6
:100CD0008A0D02430A600868402202430A6002202B
:100CE0008A680240FCD0FF20087301208A68024015
:100CF000FCD0087B30BC704702210E4A13680B40C1
:100D0000FCD01071012011680140FCD010797047AF
:100D100014100240FF7FFFFF00040048FF0FFFFF99
:100D2000FFFF0FFFFFF3FFFFFFFFF0FFFFFCFFFFE1
:100D3000003001400830014030B581B0144C1548F6
:100D4000606020680421014321600020A0606846A3
:100D5000FF210170032141700125857000F01EF80C
:100D6000206802210143216020680543256001B00D
:100D700030BD09494A684B689B1A8342FBD37047D0
:100D800005484168490701D1012101707047000001
:100D900010E000E080BB0000200E002070B40100D5
:100DA0000C781F2201238878002815D00D4D2000D3
:100DB0000326B04328180568A407E40EFF26A640C2
:100DC000B5434E78B607360EA6402E430660087827
:100DD00002409340044802E02240934003480360ED
:100DE00070BC704700E400E000E100E080E100E05A
:100DF00050B40200002008231B24CE0701D5504028
:100E0000C0B2802616405200002E00D06240490831
:100E10005B1EF2D150BC70471201891802780B7822
:100E20005340037002794B7853400371027A8B78F8
:100E300053400372027BCB785340037342780B79A3
:100E40005340437042794B7953404371427A8B79D6
:100E500053404372427BCB795340437382780B7A81
:100E60005340837082794B7A53408371827A8B7AB4
:100E700053408372827BCB7A53408373C2780B7B5F
:100E80005340C370C2794B7B5340C371C27A8B7B92
:100E90005340C372C27BC97B5140C173704710B4C9
:100EA0000121001D01E001290ADB0A0003784478D2
:100EB000047084784470C4788470C370521EF5D175
:100EC000491C001D0429EEDB10BC704710B4012141
:100ED000001D01E001290ADB0A00C3788478C47090
:100EE00044788470047844700370521EF5D1491C14
:100EF000001D0429EEDB10BC704770B404210F22E2
:100F0000804B0F2604782500B54314402C191C5D36
:100F1000047044782500B54314402C191C5D4470BE
:100F200084782500B54314402C191C5D8470C47866
:100F30002500B54314402C191C5DC470001D491ECA
:100F4000E0D170BC704770B404210F226E4B0F26A5
:100F500004782500B54314402C191C5D04704478B6
:100F60002500B54314402C191C5D4470847825007D
:100F7000B54314402C191C5D8470C4782500B5431A
:100F800014402C191C5DC470001D491EE0D170BCBA
:100F90007047F0B482B002780A7042784A70827862
:100FA0008A70C278CA7002790A7142794A7182796C
:100FB0008A71C279CA71027A0A72427A4A72827A54
:100FC0008A72C27ACA72027B0A73427B4A73827B3C
:100FD0008A73C07BC873042001901031081F037806
:100FE000C81E0678881E0478481E057801984210AD
:100FF000920F1018821001989700C01B63D14148CE
:10100000844630000F27B8433607360F86196046EE
:10101000805D6E46F07066462000B8432407240FBA
:101020000019305C6C46A0702C00BC432D072D0FBE
:101030006419305D6C46607060461C00BC431B0741
:101040001B0FE318C05C6B461870D2B21000012A67
:1010500002D12E4A107025E0022A23DB02202B4CFD
:101060002070521ED2B2531E012B1BDB0223274CD1
:1010700024780025082603E0DF0701D56540EDB29E
:10108000802727406400002F02D027001B247C40CB
:101090005B08761EF0D11D4B1D70521ED2B2531E3E
:1010A000012BE3DA6846C078184A13784340684653
:1010B0008078567846406846407894784440684640
:1010C0000078D578454008001038007843400B7010
:1010D00008000F38007846404E7008000E3800783F
:1010E00044408C7008000D3800784540CD70019860
:1010F000401C0190091D2C2800DA6FE702B0F0BCFB
:1011000070470000C41300087C170008D4000020BA
:10111000F6B589B002A9042203780B7003794B70ED
:10112000037A8B70037BCB70091D401C521EF3D1D8
:101130000A9902A8FFF770FE0A9810300190092062
:10114000079002A8042104780F2200BF9DA3250068
:101150000F26B5432640AC191B5D0370447800BFD1
:1011600098A325000F26B5432640AC191B5D43709C
:10117000847800BF93A325000F26B5432640AC1901
:101180001B5D8370C37800BF8EA41D0095431A4079
:10119000AA18A25CC270001D491ED4D102A8FFF794
:1011A0007EFE02AE042006903078694608703079E1
:1011B000C870307A8870307B4870684601780220A9
:1011C000FFF716FE04006846C1780320FFF710FE03
:1011D0000500684681780120FFF70AFE010065409E
:1011E00069400C00684641780120FFF701FE60402D
:1011F00008A90870684601780120FFF7F9FD04008E
:101200006846C1780220FFF7F3FD05006846817843
:101210000320FFF7EDFD0100654069400C006846C2
:1012200041780120FFF7E4FD60400700684601783F
:101230000120FFF7DDFD04006846C1780120FFF7BB
:10124000D7FD0500684681780220FFF7D1FD010037
:10125000654069400C00684641780320FFF7C8FDEF
:1012600060400400684601780320FFF7C1FD0500D7
:101270006846C1780120FFF7BBFD694608706846E3
:1012800081780120FFF7B4FD69460978694048403C
:101290000500684641780220FFF7AAFD0100694079
:1012A00008A800783070377134723173761C069854
:1012B000401E069000D077E76846007A01990978C9
:1012C00041406846017202A800790199497841407D
:1012D00002A80171007A01998978414002A801723F
:1012E000007B0199C978414002A8017340780199B7
:1012F0000979414002A841704079019949794140FA
:1013000002A84171407A01998979414002A841724D
:10131000407B0199C979414002A8417380780199C5
:10132000097A414002A8817080790199497A414047
:1013300002A88171807A0199897A414002A881725C
:10134000807B0199C97A414002A88173C0780199D4
:10135000097B414002A8C170C0790199497B414095
:1013600002A8C171C07A0199897B414002A8C1726B
:10137000C07B0199C97B414002A8C173019810301C
:1013800001900798401E079000D0DAE602A8FFF708
:10139000B4FD02A8FFF783FD0A220A9902A8FFF70D
:1013A0003BFD099802A904220B7803704B78037166
:1013B0008B780372CB780373091D401C521EF3D146
:1013C0000BB0F0BD637C777BF26B6FC53001672B90
:1013D000FED7AB76CA82C97DFA5947F0ADD4A2AF29
:1013E0009CA472C0B7FD9326363FF7CC34A5E5F137
:1013F00071D8311504C723C31896059A071280E2E5
:10140000EB27B27509832C1A1B6E5AA0523BD6B338
:1014100029E32F8453D100ED20FCB15B6ACBBE39A8
:101420004A4C58CFD0EFAAFB434D338545F9027F94
:10143000503C9FA851A3408F929D38F5BCB6DA214D
:1014400010FFF3D2CD0C13EC5F974417C4A77E3D79
:10145000645D197360814FDC222A908846EEB814CF
:10146000DE5E0BDBE0323A0A4906245CC2D3AC6292
:101470009195E479E7C8376D8DD54EA96C56F4EA9D
:10148000657AAE08BA78252E1CA6B4C6E8DD741FAE
:101490004BBD8B8A703EB5664803F60E613557B971
:1014A00086C11D9EE1F8981169D98E949B1E87E92B
:1014B000CE5528DF8CA1890DBFE6426841992D0FDA
:1014C000B054BB16F6B589B002A9042203780B709C
:1014D00003794B70037A8B70037BCB70091D401C22
:1014E000521EF3D10A220A9902A8FFF795FC0A9826
:1014F000903001900920079002A8FFF7E7FC02A8AE
:10150000042104780F2200BF9CA325000F26B543B9
:101510002640AC191B5D0370447800BF97A32500DB
:101520000F26B5432640AC191B5D4370847800BF7D
:1015300092A325000F26B5432640AC191B5D83708E
:10154000C37800BF8DA41D0095431A40AA18A25C61
:10155000C270001D491ED4D16846007A01990978ED
:1015600041406846017202A80079019949784140DA
:1015700002A80171007A01998978414002A801729C
:10158000007B0199C978414002A801734078019914
:101590000979414002A84170407901994979414057
:1015A00002A84171407A01998979414002A84172AB
:1015B000407B0199C979414002A841738078019923
:1015C000097A414002A8817080790199497A4140A5
:1015D00002A88171807A0199897A414002A88172BA
:1015E000807B0199C97A414002A88173C078019932
:1015F000097B414002A8C170C0790199497B4140F3
:1016000002A8C171C07A0199897B414002A8C172C8
:10161000C07B0199C97B414002A8C17302AE04207E
:1016200006903078694608703079C870307A8870D2
:10163000307B4870684601780E20FFF7D9FB040024
:101640006846C1780B20FFF7D3FB05006846817818
:101650000D20FFF7CDFB0100654069400C00684696
:1016600041780920FFF7C4FB604008A9087068466C
:1016700001780920FFF7BCFB04006846C1780E2002
:10168000FFF7B6FB0500684681780B20FFF7B0FB3B
:101690000100654069400C00684641780D20FFF765
:1016A000A7FB60400700684601780D20FFF7A0FB0C
:1016B00004006846C1780920FFF79AFB05006846D8
:1016C00081780E20FFF794FB0100654069400C0013
:1016D000684641780B20FFF78BFB604004006846AA
:1016E00001780B20FFF784FB05006846C1780D20C8
:1016F000FFF77EFB69460870684681780920FFF78E
:1017000077FB69460978694048400500684641789A
:101710000E20FFF76DFB0100694008A800783070CB
:10172000377134723173761C0698401E069000D0D3
:1017300077E70198103801900798401E079000D075
:10174000DAE602A8FFF7C2FB02A8FFF7FCFB0022C3
:101750000A9902A8FFF760FB099802A904220B78F6
:1017600003704B7803718B780372CB780373091D78
:10177000401C521EF3D10BB0F0BD000052096AD5D7
:101780003036A538BF40A39E81F3D7FB7CE3398276
:101790009B2FFF87348E4344C4DEE9CB547B9432C5
:1017A000A6C2233DEE4C950B42FAC34E082EA1660D
:1017B00028D924B2765BA2496D8BD12572F8F664E4
:1017C00086689816D4A45CCC5D65B6926C7048505F
:1017D000FDEDB9DA5E154657A78D9D8490D8AB0014
:1017E0008CBCD30AF7E45805B8B34506D02C1E8F3D
:1017F000CA3F0F02C1AFBD0301138A6B3A91114179
:101800004F67DCEA97F2CFCEF0B4E67396AC742261
:10181000E7AD3585E2F937E81C75DF6E47F11A71DF
:101820001D29C5896FB7620EAA18BE1BFC563E4B18
:10183000C6D279209ADBC0FE78CD5AF41FDDA833DA
:101840008807C731B11210592780EC5F60517FA91A
:1018500019B54A0D2DE57A9F93C99CEFA0E03B4D49
:10186000AE2AF5B0C8EBBB3C83539961172B047EBD
:10187000BA77D626E169146355210C7D30B581B065
:101880000500834C10212000213000F023FD1021A1
:10189000200000F01FFD11212000103000F01AFD83
:1018A00011212000343000F015FD102212A120007B
:1018B00000F014FD102200BF13A12000113000F031
:1018C0000DFD132273492000213000F007FD200098
:1018D00010300090230034332200210021312800F1
:1018E00000F0F0FE31342078E8706078E871A0787C
:1018F000E87201B030BD00000000000000000000F0
:101900000000000000083399A4D9B2E8347FBEF784
:1019100014FA7432A357C6AD70B50C005E4909784D
:10192000002903D0B2206070002015E05B4E202219
:10193000C11C300000F0D2FC662034217054802598
:101940002D01280001F060F81B223100280001F071
:101950007FF8B1206070FF20E070682020700120C7
:10196000A0700421200001F0CFF8010A21716071FC
:10197000B14A0621200001F0CBFA70BDF0B581B06C
:1019800007000C007878202837D1AC4D0D223900A3
:10199000280001F029FB00281DD0002600207873C4
:1019A000B873F8733874787401F02EF8092239008E
:1019B000002001F04DF807222900002001F06DF809
:1019C0000D223900280001F00FFB002803D022204F
:1019D0006070E67003E021206070FF20E0706820F6
:1019E00020700120A0700421200001F08DF8010A70
:1019F00021716071904A06213FE0302841D18F4D1E
:101A000007222900002001F048F82878AC281ED0D1
:101A100068280DD10B263100280001F075F8A919AE
:101A2000020A0B789A4203D1C0B24978884210D09A
:101A3000222060700120A0700020E07004212000AE
:101A400001F062F8010A21716071062112E00A2694
:101A5000E1E7312060700820A0700822E91CE01C3A
:101A600000F03CFC0B21200001F04EF8010AE1726D
:101A700020730D21682020706F4A200001F048FA81
:101A800004E0B02802D13800FFF746FF01B0F0BDF6
:101A90000C0D0020DC0D00202E0E0020BC0D0020BF
:101AA00030B581B004002078AC2802D0682802D07C
:101AB00010E0CD1E00E08D1EEDB22900200001F0E7
:101AC00023F86119020A0B789A4203D1C0B249780F
:101AD000884201D0012000E0002001B030BD30B5C7
:101AE00081B00500AC202870EC790834E4B2210004
:101AF000280001F009F8010A2955641CE4B22855B0
:101B0000641C5320E4B22855641CE0B201B030BD1F
:101B100070B581B006B481B0002500218222D200C8
:101B2000835C01220226134217D18A401A43822382
:101B3000DB00C2548A01521892008418A1706846D2
:101B4000007A60706846027A0199E01C00F0C6FBDA
:101B5000812040002552267008E001213342E4D064
:101B600002215C07E1D503211C07DED504B070BD5E
:101B7000FCB583B007000E00F879002109180905AB
:101B8000090E01910901401AC0B200900198012884
:101B900013DB3D00083504466846007C0028B34A44
:101BA00004D029002800FFF7B3FA03E02900280039
:101BB000FFF788FC1035641EEED10098002827D06E
:101BC000019804016846007C002817D01020009975
:101BD000401A012807DB1020411A009820183818F5
:101BE000083000F077FB3819A04A010008310830AE
:101BF000FFF78EFA10360098361A09E038199B4A1A
:101C0000010008310830FFF75DFC00983618103EDF
:101C1000F6B2F11E89B2380000F076FFB919C91E7C
:101C2000020A0A70487053208870039806700020DA
:101C300005B0F0BD00000000080C0020F40D0020ED
:101C4000FCB583B007000E00F879002109180905DA
:101C5000090E01910901401AC0B2009001980128B3
:101C600013DB3D00083504466846007C00287F4AA7
:101C700004D029002800FFF74BFA03E029002800D0
:101C8000FFF720FC1035641EEED10098002827D005
:101C9000019804016846007C002817D010200099A4
:101CA000401A012807DB1020411A00982018381824
:101CB000083000F00FFB38196C4A01000831083079
:101CC000FFF726FA10360098361A09E03819674AE5
:101CD000010008310830FFF7F5FB00983618103E78
:101CE000F6B2F11E89B2380000F00EFFB919C91E14
:101CF000020A0A704870532088700398067000200A
:101D000005B0F0BDF0B581B004000D00FFF7E7FEAF
:101D10000700CD4E022200BF10A120000C3001F0C0
:101D200063F9002810D132003900200001F008F9D1
:101D30006420FFF71EF832003900200001F000F99E
:101D40006420FFF716F804E032003900200001F0AB
:101D5000F7F80020E87101B0F0BD00000001F0B517
:101D600081B004000F00424D0822E91C0C3001F044
:101D70003BF9002877D1B5480090042229000D31A5
:101D8000601C01F031F900280ED103220099A01C3B
:101D900001F02AF9002807D11022AD4920001430A3
:101DA00001F022F900284BD00422611C28000D30DC
:101DB00000F094FA0322A11C009800F08FFA66202C
:101DC0006874002000F020FE09222900002000F0A5
:101DD0003FFE0126AF490E70AF490E70AF4D1B227A
:101DE0002900F00200F059FE1022210014312800D1
:101DF000203000F073FA032200992800303000F000
:101E00006DFA662035216854F00200F0FDFD1B22BA
:101E10002900F00200F01CFE2800FFF72FFD1349F7
:101E20002800FFF7B6F89E4806706079202101432C
:101E3000617101F0EDF89B49087001F0A5FC03E029
:101E400060792021014361710620F8710422083471
:101E500021003800083000F041FA022038731720C2
:101E60007873012000E0002001B0F0BD0C0D0020CF
:101E7000F40D0020F0B581B005000E000F273400EE
:101E80002078002818D0207A384069793940884273
:101E900012D10422691C201D01F0A6F800280BD1E4
:101EA000002020708220C000301801780122A37821
:101EB0009A409143017038E0822040003418207825
:101EC00000280CD0207A384069793940884206D100
:101ED0000422691C201D01F087F80028E0D0822030
:101EE00080003418207800280CD0207A3840697996
:101EF0003940884206D10422691C201D01F074F883
:101F00000028CDD0C32080003418207800280CD0C1
:101F1000207A384069790F40B84206D10422691C02
:101F2000201D01F061F80028BAD001B0F0BDF0B575
:101F300083B00400150099480E1837000322984911
:101F40002000093001F050F8002804D131002000B1
:101F5000FFF705FF18E004229249601C01F044F8E5
:101F600000286FD1032290492000093001F03CF88D
:101F7000002804D131002000FFF7C4FE04E02A004D
:101F80003900200001F08EFD00285BD00422854935
:101F9000781C00F0A3F960797871A0798021014361
:101FA000B9713800FFF79BFD06007879800640D5AF
:101FB000F879002109180905090E01910901401A53
:101FC000C0B20090019801280ADB3D0008350446A4
:101FD000354A29002800FFF79BF81035641EF7D119
:101FE0000098002818D00198040110200099401A88
:101FF000012807DB1020411A0098201838180830F3
:1020000000F068F93819284A010008310830FFF754
:102010007FF810360098361AF6B2F11E89B23800F1
:1020200000F072FDB919C91E020A0A7048705320E7
:10203000887033003A001B480178904801F0D8FBC3
:102040008F49087003B0F0BD000A0020F0050020A1
:10205000DC0D002030B581B0040015001A00A07915
:1020600098210140102902D0182905D00FE029003D
:102070002000FFF75CFF0AE004224A49601C00F0E0
:10208000B3FF002803D129002000FFF7F3FE01B0C1
:1020900030BD00002C0E0020EA040020BC0D002002
:1020A0002F0E0020310E00200C0D0020F1B582B063
:1020B0003A4A8718921F84182078FF286BD038007E
:1020C00001F01AFD002866D16078401CC0B21028CB
:1020D00000DB0020607004223249781C00F0FEF81A
:1020E00060784006400E2021014379719820B87134
:1020F0003800FFF7F4FC0600F879002109180905FB
:10210000090E01910901401AC0B2009001980128FE
:102110000ADB3D00083504465A4A29002800FEF72C
:10212000F7FF1035641EF7D10098002818D00198E9
:10213000040110200099401A012807DB1020411AE1
:10214000009820183818083000F0C4F838194D4AA3
:10215000010008310830FEF7DBFF10360098361A10
:10216000F6B2F11E89B2380000F0CEFCB919C91ED2
:10217000020A0A70487053208870320039000298B1
:10218000FFF7C6FC33003A003F4801783B4801F0B6
:102190002FFB3B49087003B0F0BD0000160400009F
:1021A00088460008010E00208C46000830B581B03A
:1021B00005003648007805285DD02C0020780028DE
:1021C00026D08120400020180188491C018089B256
:1021D000BC20400081421BDB00208121490060526D
:1021E0006378E21C28480178244801F001FB244967
:1021F00008702078401E207000063CD18220C0006C
:10220000281801780122A3789A409143017032E0A6
:10221000822040002C18207800280AD0812040001D
:1022200020180188491C018089B2BC2040008142ED
:10223000D2DA822080002C18207800280AD0812051
:10224000400020180188491C018089B2BC20400050
:102250008142C1DAC32080002C18207800280AD0DF
:102260008120400020180188491C018089B2BC20CF
:1022700040008142B0DA01B030BD0000F40500201A
:10228000140E00200C0D0020310E0020150E002031
:10229000094205D0830705D00270401C491EF9D1C0
:1022A00070470000130030B414001500103902D339
:1022B00010393CC0FCD2490700D30CC000D504C083
:1022C000890002D30280801C002900D5027030BC36
:1022D000704700000022DBE70022E3E712420FD044
:1022E000814202D25318984203D310B501F076FD13
:1022F00008BD80185B1E1978401E0170521EF9D16E
:10230000704730B4012100220368001D002B0BD060
:102310000468001D0C4202D04D466D1E64192260F7
:10232000241D1B1FF0D0FAE730BC704777B482B091
:1023300001926846007C00900021039A029B03E012
:10234000491CC9B25B1C521C009CA14208DA1C78D3
:102350001578A54204D3AC42F2D205B070BC7047E8
:102360000021019A6B461B7C002BE5D0029B9B1839
:102370005B1E039CA418641E1E782578AE4206D10D
:10238000002902D0761E751B0AE0002508E0B54240
:1023900003D2711A4D1B002102E0711A4D1B01215D
:1023A0001D70521ED2B2641E5B1E002AC4D0E3E729
:1023B000F0B581B0050000240878002816D101246A
:1023C000481C0278002A11D1641C4278002A0DD1E1
:1023D000641C8278002A09D1641CC278002A05D1C5
:1023E000641C001DE4B2112CEBD31124E4B20E19CD
:1023F0001120021BD2B231002800FFF797FF012CF9
:102400000ADB771E12210E1BF2B239002800FFF7FB
:102410008DFF6D1C641EF7D101B0F0BD70B40400D7
:1024200000251020012B1CD113182618761E367893
:102430004E4375191E78AD19ADB21D70401E1318AC
:102440002618761E36784E432D0A75191E78AD195A
:10245000ADB21D702D0A401EE6D1107840191070E3
:1024600025E023185B1E1B784B435D19ADB2155454
:10247000401E23185B1E1B784B432D0A5B199BB231
:102480001354401E25186D1E2D784D431B0AEB1862
:102490009BB21354401E25186D1E2D784D431B0A08
:1024A000EB189BB213541D0A401EDAD1157070BC94
:1024B0007047F9B585B0160000200A001378002B8C
:1024C00000D0FCE0401C5378002B00D0F7E0401C0B
:1024D0009378002B00D0F2E0401CD378002B00D082
:1024E000EDE0401C121DC0B21028E7D30024E4B276
:1024F000081B1030049011213000FFF7EBFE002084
:1025000069460871641E03940398012800DAACE060
:102510000498029002980178002310203218059C3C
:102520002418641E24784C43E31814781B199BB2BA
:102530001370401E3218059C2418641E24784C43E6
:102540001B0AE31814781B199BB213701B0A401E58
:10255000E4D13078C0183070002406980078002844
:1025600017D101240698401C0178002911D1641C60
:10257000417800290DD1641C8178002909D1641C9F
:10258000C178002905D1641C001DE4B2112CEBD3E5
:102590001124E4B20698001900901120021BD2B257
:1025A00000993000FFF7C2FE012C0BDB3500122131
:1025B0000F1BFAB20099491E2800FFF7B7FE6D1CE9
:1025C000641EF6D130000421427802708278427095
:1025D000C27882700279C270001D491EF4D10020B9
:1025E0003074002406980078002817D1012406983A
:1025F000401C0178002911D1641C417800290DD1BB
:10260000641C8178002909D1641CC178002905D196
:10261000641C001DE4B2112CEBD31124E4B2069823
:10262000001900901120021BD2B200993000FFF770
:102630007DFE012C0BDB350012210F1BFAB2009935
:10264000491E2800FFF772FE6D1C641EF6D1684615
:102650000079401C694608710298401C0290684647
:1026600000790399884200DA54E7049869460979A9
:10267000415C002310203218059C2418641E247825
:102680004C43E31814781B199BB21370401E321888
:10269000059C2418641E24784C431B0AE318147804
:1026A0001B199BB213701B0A401EE4D13078C0186E
:1026B000307006993000FFF77BFE07B0F0BD1022A6
:1026C000141A14E7F3B587B016001C000825002182
:1026D00030000278002A15D1491C4278002A11D115
:1026E000491C8278002A0DD1491CC278002A09D1E0
:1026F000491C001DC9B21029EBD30027FFB2002FDF
:1027000003D173E11020471AF8E7102208990798BF
:10271000FFF7E4FDF61B1036307801061CD44000AC
:102720000725010618D440000625010614D44000F0
:102730000525010610D44000042501060CD44000F4
:102740000325010608D440000225010604D44006F2
:102750000125000E00D100254000694608706D1E5D
:10276000EDB2002D23D0A548A54908600E9B22009C
:1027700007990846FFF79DFE1022611C0798FFF796
:10278000ADFD6846007800060AD50E9B2200079929
:102790000898FFF78EFE1022611C0798FFF79EFD38
:1027A000684600784000694608706D1EDBD1761CD3
:1027B00005960020934908707F1E0497049801280D
:1027C00000DA13E105988F490978405C6946087082
:1027D0000820039089488A490860002007990A78F0
:1027E000002A00D004E1401C4A78002A00D0FFE013
:1027F000401C8A78002A00D0FAE0401CCA78002ADF
:1028000000D0F5E0401C091DC0B21028E7D3002518
:10281000EDB20798401B1030029011212000FFF705
:1028200059FD00266D1E0195019801283EDB029D91
:102830002878002210216718079B5B185B1E1B7805
:1028400043439A183B78D3189BB23B70491E6218D9
:10285000079F7F187F1E3F7847431B0AFB18177896
:10286000DB199BB213701A0A491EE4D12078801834
:1028700020700E992000FFF79BFD20000421427874
:10288000027082784270C27882700279C270001D34
:10289000491EF4D1002020740E992000FFF788FD16
:1028A000761C6D1CF6B201988642C1DB0123220022
:1028B0000298815D0798FFF7B1FD0E992000FFF7A0
:1028C00077FD1022611C0798FFF708FD6846007825
:1028D000000677D5002007990A78002A00D08AE000
:1028E000401C4A78002A00D085E0401C8A78002AE3
:1028F00000D080E0401CCA78002A7CD1401C091D11
:10290000C0B21028E8D30025EDB20798401B103064
:10291000029011212000FFF7DDFC00266D1E0195BD
:10292000019801283EDB029D2878002210216718BB
:10293000089B5B185B1E1B7843439A183B78D3189F
:102940009BB23B70491E6218089F7F187F1E3F781C
:1029500047431B0AFB181778DB199BB213701A0A3E
:10296000491EE4D12078801820700E992000FFF7CE
:102970001FFD200004214278027082784270C278E4
:1029800082700279C270001D491EF4D100202074AB
:102990000E992000FFF70CFD761C6D1CF6B2019815
:1029A0008642C1DB012322000298815D0898FFF76F
:1029B00035FD0E992000FFF7FBFC1022611C0798E3
:1029C000FFF78CFC68460078400069460870039861
:1029D000401E039000D0FDE60A480078401C0949DB
:1029E0000870C0B20499884200DAEBE609B0F0BD85
:1029F00010210D1A0CE710210D1A85E7AAAA000074
:102A0000003000402D0E002010B43B493B4A0A60C4
:102A10003B4A0A6000228A6001228B681340FCD185
:102A2000CB6802241C43CC60364BC0180861C868D0
:102A300040230343CB6088681040FCD1C868022261
:102A40009043C860C86880220243CA6010BC7047C7
:102A5000F0B4294B294C1C60294C1C6000249C605C
:102A6000002A14D001240D88264E86199F6827401D
:102A7000FCD1DF682743DF6035809D682540FCD1AD
:102A8000DD68A543DD60801C891C521EEBD1D8682F
:102A900080210143D960F0BC7047F0B40024002AC3
:102AA00028D09507AD0F174B002D07D0C65AA4B2FA
:102AB0006700CE53801C641C6D1EF7D1920819D09C
:102AC000C55AA4B266008D53801C641CC55AA4B2BA
:102AD00066008D53801C641CC55AA4B266008D53D9
:102AE000801C641CC55AA4B266008D53801C641CF3
:102AF000521EE5D1F0BC7047042002402301674517
:102B0000AB89EFCD00C0000802000E48002900D1BB
:102B1000704770B40F2300BF0BA41578521C060039
:102B20006E401E407600A65B0011704080B22D09F9
:102B300045401D406D00655B00096840491EECD1B1
:102B400070BC7047FFFF0000000001CC01D80014EA
:102B500001F0003C002801E401A0006C007801B401
:102B60000050019C01880044F0B581B080208002B3
:102B7000A1490A6802430A608A681043886090206D
:102B8000C005016A9D4A0A400262016A8022520021
:102B90000A4302623021C94302680A4002600268A7
:102BA000202313430360426804239A4342600427AE
:102BB00042683A43426082680A4082601022836819
:102BC00013438360C3681940C160C1680A43C2608F
:102BD000016A8B4A0A400262016ABA020A4302622F
:102BE000C021C94302680A4002600268802313437F
:102BF0000360426808239A434260082442682243E3
:102C0000426082680A408260402283681343836086
:102C1000C3681940C160C1680A43C260BB4D00204F
:102C2000286068602868286068686860D048E86044
:102C300068461C210170012646708670FEF7AEF8CA
:102C40002868202101432960286804432C602868F3
:102C500007432F60286806432E6001B0F0BD30B5F1
:102C600081B065480168802292020A43026041688F
:102C70008022D2010A4342609020C005416AF022BE
:102C800091434162416A10220A434262B949026893
:102C90000A40026080221203036813430360436802
:102CA000C04C1C4044604368436083680B408360B1
:102CB000836854081C438460C3681940C160C168BC
:102CC0000A43C260416A4D4A0A404262416A802218
:102CD00052000A434262BF4902680A4002608022F1
:102CE00092030368134303604368BB4C1C40446079
:102CF0004368436083680B408360836854081C43C7
:102D00008460C3681940C160C1680A43C260B34CA3
:102D100000202060606020682060606860609448E7
:102D2000E06068461B210170012545708570FEF743
:102D300035F82068202101432160206808210143E3
:102D4000216020680421014321602068054325603B
:102D500001B030BD0A780C2A4DD801A39B5C9F447A
:102D60000C949494949494941E244862720068285D
:102D700041D188700120FF22921C8854082039E03C
:102D8000C870092036E0002802D108710B2008E045
:102D9000212804DB0020FF22921C88542AE00871BD
:102DA0000A2008700320487070474A788A1890708B
:102DB0004878401C4870C0B20A79D21C90421ADB95
:102DC0000B2017E04A788A1890704878401C4870A9
:102DD0000C200FE04A788A1890704878401C4870A0
:102DE0004A48026820239A4302600020FF22921C76
:102DF00088540D200870704714100240FFF0FFFF48
:102E0000FF0FFFFF0A78072A00D9704710B401A30B
:102E10009B5C9F44061E3C4C5C7EA2C0AC2872D1D9
:102E200088700120487000226D4B1A70FF239B1C94
:102E3000C85467E04A788A1890704878401C4870F7
:102E400067480278521C0270D2B2042A5BDB02206F
:102E500058E04A788A1890704878401C48700320DF
:102E600050E04A788A1890704878401C48700420D6
:102E700048E0F52842DA4A788A1890704A78521C5D
:102E80004A700022564B1A70002801D1062039E002
:102E9000052037E04A788A1890704878401C4870BE
:102EA0004F480278521C02704B7AD2B29A422AD30F
:102EB00000220270062025E04A788A18907048782F
:102EC000401C487046480278521C0270D2B2022A56
:102ED00019DB072016E0532810D1404A136820243C
:102EE000A34313604A788A1890704878401C487051
:102EF0000020FF22921C88540D2003E00020FF22B6
:102F0000921C8854087010BC7047000000440040B8
:102F100010B514002278002A01D0012010BD617084
:102F20000A000100E01CFFF7D9F90020A070012081
:102F300020702C48016880220A430260002010BDE6
:102F400010B514002278002A01D0012010BD617054
:102F50000A000100E01CFFF7C1F90020A070012069
:102F600020701E48016880220A430260002010BDC4
:102F7000E2040000FFFFF3FF01000A78012A0FD1ED
:102F80008A788818C078521C8A704B78D2B29A42DC
:102F900006D302220A7013490A6880239A430A6002
:102FA000C0B27047FFFDFFFF01000A78012A0FD170
:102FB0008A788818C078521C8A704B78D2B29A42AC
:102FC00006D302220A7005490A6880239A430A60E0
:102FD000C0B27047FFFFCFFFFFFBFFFF003801408B
:102FE000300E00200044004010B402E0401C491C98
:102FF000521E002A09D00B7804789C42F6D002D2E7
:103000000020C04302E0012000E0002010BC704717
:103010005D480178427889188078081801D10A2023
:103020007047C006800E704770B504000E0055480A
:10303000017802290AD100210170B14DE978491CBB
:10304000E970C9B20B2901DB012101704F4D0178F4
:10305000042906D10021297001704948007800F048
:1030600093FB2878062802D02878042808D100216C
:103070002970A348C1704248007800F085FB70BDFC
:1030800028780328FBD1002129709D4DE970A17893
:10309000E01DFEF705FD00280CD1617B982008405B
:1030A00001212970102801D1307070BD1828E2D19B
:1030B0002020F9E7A07B6528E1DBDCE7F1B50E0015
:1030C00030780F25284215D02840012809D18D4895
:1030D000007800284FD100988B4941188B48FEF7A3
:1030E0004DFC3078F02101403170244801682022E5
:1030F0000A4302603078F02108423CD084480778C7
:10310000844C002F0CD00322834920000930FFF7A4
:103110006BFF002804D1814801210170002141800A
:1031200003227F4920001030FFF75EFF002811D0F6
:10313000002F0BD0207B602108420BD00023A21C63
:10314000A178E01DFEF77CFD002803D03078054013
:1031500035700CE03300009AA178E01DFEF77AFF8D
:1031600030780540357009480078052803D090482C
:10317000007800F009FB01B0F0BD00000044004001
:10318000310E0020140E0020F0050020150E002046
:10319000F0B581B00400844F0025844E30780328B8
:1031A00012D1787800280ED0401C7870C0B2132855
:1031B0000ADB7D707F48FCF7F7FF35707C480078AC
:1031C00000F0E2FA00E035707B4E308800280FD026
:1031D0003088401C308080B2132809DB7548FCF72A
:1031E000E3FF358075490D707148007800F0CCFA26
:1031F0003978002907D0491CC9B2132903DB002103
:1032000006206E4A107039703D4841783D4A137867
:10321000022B05D1491CC9B2072901DB0021157019
:1032200041708149FF22921C8A181378002B08D024
:1032300013785B1C1370DBB20A2B02DB15700D22B6
:103240000A708178794A1378022B05D1491CC9B2DA
:10325000072901DB0021157081707549FF22921C3E
:103260008A181378002B08D013785B1C1370DBB21C
:103270000A2B02DB15700D220A70E178002905D0B7
:10328000491CE170C9B2332900DBE57021790029BE
:1032900005D0491C2171C9B2332900DB2571617940
:1032A000002905D0491C6171C9B2332900DB657161
:1032B000017800290ED0491CC9B24A07520F012AD1
:1032C00004D15C4A1468022666401660302913DB7C
:1032D000002111E0114B574A02241E78012E0AD119
:1032E00054605A88521C5A8092B2944CA24203DB1A
:1032F0005D801D7000E05461017001B0F0BD000000
:10330000280E0020080C002016040000060B0020E8
:103310002C0E0020F4050020020E0020EA040020FC
:1033200088460008F0B581B0854D864F864E3E4CEC
:1033300020780D2812D1002020706178A01CFEF7A3
:10334000AFFB002806D1A078682803D101207F496F
:10335000087003E030682021014331607B49380068
:10336000FFF7ACFE092229000020FFF796FB0D2194
:103370002800FEF795FB0028DAD1A87A0007000F95
:1033800073490870687C662804D101210120714AC4
:10339000B95405E0002100206973A973E973297409
:1033A0006D49087001B0F0BDF8080020140E00202F
:1033B000310E0020644600081A0E0020150E002071
:1033C00010B582B0012200A9891CD0208001FFF72E
:1033D00064FB68464088C00705D5802064490860C2
:1033E00000026449086001226946E0208001FFF77D
:1033F00054FB042468460088800704D540205C49BB
:1034000008605C480460012201A9F0208001FFF7F8
:1034100044FB68460088204204D0564821030160DE
:10342000C908016002B010BD040B0020000A002092
:10343000FC08002014000048F0B581B000F0FCFC4E
:103440004D4F02203860FFF76DFF444D1B222900CD
:1034500080200001FFF721FB012641490E70414CFD
:103460003520285C66280ED1032229003031200047
:10347000FEF734FF2800FEF701FA3B492800FDF76C
:1034800088FD3A480670022038612078617840183B
:10349000A178401801D10A2001E0C006800E37490A
:1034A000087000F07DF83548007800F06DF9FFF7FE
:1034B00087FF00F0D7FC324C244D324F00263248B3
:1034C0003249086038780028FCD03E702800FFF7A9
:1034D0005FFE20780D281AD12670E079800607D586
:1034E0000123621C6178A01CFEF742FB00280ED16C
:1034F0006378A21C21480178254800F079F9254914
:1035000008702548006820210143234801602900F4
:103510001F48FFF789FD29000A48FFF7CFFD280063
:1035200000F054FC1D480078052803D02900054808
:10353000FEF7BCFD0348FEF739FEC0E74D1D000055
:10354000F40D0020D800002000440040080E0020A8
:10355000CC000020120400002C0E0020BC0D002026
:103560002E0E0020F00500200C0D00202F0E002054
:10357000181400481804004818000048310E0020B4
:10358000FC080020200E0020AAAA00000030004005
:10359000F4050020140E002000380140150E002014
:1035A00010B50324FDF7F0FA00F098FC00F0C2FD1E
:1035B00003E0E4B2002C06D0641EFDF7A1F8002859
:1035C000F7D1240607D1012085490870802085495C
:1035D0000860012010BDFDF737F9002010BD000084
:1035E00070B582B0040068460021002206C00023A6
:1035F0006846FCF75FFD694688780A79784DD107FF
:1036000001D50121E98008210A4201D003222A7054
:10361000084205D0042068707348FCF7C5FD38E007
:10362000C10639D5287900280AD10421E01CFCF70D
:10363000D9FFE07804280DDBC11EC9B2E01D07E008
:103640006979002906D04200101800012018C01C1A
:10365000FCF7C8FFFCF7BCFEFCF74EFE634EF078AB
:1036600060706148FCF7A0FD7078212805DB707858
:10367000272807DB7078482804DA00BF30A071786B
:10368000405C2070E078C01EA0702079207003207C
:1036900068700020E88051E0C1071ED52879002815
:1036A0000CD10421E01CFCF79DFF2C21E01DFCF750
:1036B00099FFE0782F38687101200CE0302142003A
:1036C000101800012018C01CFCF78CFF68793038F6
:1036D00068712879401C287130E081060AD542487B
:1036E000FCF762FD0020A87006216970C1218900E5
:1036F000605423E0800721D5A978312910DB3021DF
:10370000E8784200101800012018A1225200801809
:10371000FCF730FFE878401CE870A87830380CE0FF
:1037200000290BD0E8784200101800012018A122CF
:1037300052008018FCF71EFF0020A87002B070BD78
:10374000020406080A0C0E10121416181A1C1E2069
:10375000222426282A2C2E3000323436383A3C3E99
:1037600040585858585858030507090B0D0F1113A6
:103770001517191B1D1F21232527292B2D2F313309
:10378000353701393B3D3F4130B585B0050002A8D2
:103790000021002206C0002302A8FCF78BFC104C7D
:1037A0002078012818D0422D00DB41250220FCF7AB
:1037B00055FF6848FCF7F8FC0820019003200090B2
:1037C0000023002200216448405DFCF78DFE0120AB
:1037D000607000202071607105B030BD00000000F5
:1037E000140E002018040048644600088C000020D5
:1037F000F2B584B0040016001D0001A800210022CB
:1038000006C0002301A8FCF755FC544800780128A5
:1038100000D19CE0FC2D00DBFB256846007C4228A3
:1038200002DB4120694608740020002D22D000955B
:10383000A907890F07D0325C231883277F00DA5548
:10384000401C491EF7D10099890813D0325C231817
:1038500083277F00DA55401C325C2318DA55401C60
:10386000325C2318DA55401C325C2318DA55401CB0
:10387000491EEBD10126C121890061184E706846AE
:10388000007CFFF781FF3548806800F0A7FC00F05E
:10389000B5FC1F2100F02EFD08000A30C0B2FDF774
:1038A00068FA2F482D49097803290BD10021C1223C
:1038B0009200A2185170FCF777FC0020274948704D
:1038C000042044E0E71CE91C39706946097C7970E2
:1038D000BE7039787A784A4001215140F970002150
:1038E000C1229200A2185170FCF75EFC0120FCF787
:1038F000B5FE3D2D09DB28003C38184988700421AD
:103900003800FCF737FE3C2107E00020134988709F
:1039100004213800FCF72EFE2900832040002018E7
:10392000FCF728FE05200D494870C1208000265470
:103930000C48FCF739FC2D1DAAB2302106486B4615
:103940001B7CC05CFCF794FD00200449C87005B0E6
:10395000F0BD00005446000868390008140E00202D
:10396000644600085C460008184200270128022926
:10397000032A042B052C062D072E082F09300A31A7
:103980000B320C330D340E350F3610371138123917
:10399000133A143B153C163D173E193F1A401B4184
:1039A0001C431D441E451F462047000030B581B012
:1039B0000C00017ACB0701D4002903D19178CD07FF
:1039C000ED0F12E08B0707D535490978022918DB7E
:1039D00091788D07ED0F08E0490712D53049097835
:1039E00003290EDB91784D07ED0F0521E1710422CB
:1039F0000830010020000830FEF770FC257301201C
:103A000000E0002001B030BDF0B581B00B00002116
:103A10000024057B002D00D00121057AEE0701D49A
:103A2000802D09D19478E507ED0FA94203D0547891
:103A30001025254355700124057AAD070DD5184C86
:103A40002478022C27DB9478A507ED0FA94203D038
:103A5000547820252543557001240425077A2F42E8
:103A60000DD00F4C2478032C15DB94786607F60FE5
:103A7000B14206D0517840240C43547001E0002C30
:103A800009D0DD7104220830010008331800FEF768
:103A900025FC012000E0002001B0F0BD0000000086
:103AA000CC000020F4B505000E00002700240322FE
:103AB0002BA10930FFF798FA00280ED1287A0006CA
:103AC000009A04D531002800FFF79EFF03E0310083
:103AD0002800FFF76BFF040009E0032205A1093568
:103AE0002800FFF781FA002801D1F7710124200096
:103AF00001B0F0BD00000100F0B581B004000D0080
:103B0000002700200026AA6804210A4225D08A4303
:103B1000AA60AA786B461A706A461278D20702D554
:103B2000012001260CE06A461278920702D5012690
:103B3000022005E06A4613780B4201D001260420DA
:103B40000521E1712072032205A120000930FEF752
:103B5000C5FB26736F70002000E0012001B0F0BDAE
:103B600000002100042182680A4000D0704730B470
:103B7000904A9378C478002C1ED18F4C2468250677
:103B8000EC0F09D05578AC4215D05B1CDBB2152B7D
:103B900012D3002354700FE05478002C0BD05B1C20
:103BA000DBB2152B08D30024002354704478012580
:103BB0002543457000E0002393701378022B49DB06
:103BC00013790479002C1ED17B4C2468A506EC0FD8
:103BD00009D0D578AC4215D05B1CDBB2152B12D3C3
:103BE0000023D4700FE0D478002C0BD05B1CDBB228
:103BF000152B08D300240023D470447802252543D4
:103C0000457000E0002313711378032B22DB9379B6
:103C10004479002C1DD1694C2468A504EC0F09D00F
:103C20005079844214D05B1CDBB2152B11D30023D6
:103C300054710EE05479002C0AD05B1CDBB2152BBA
:103C400007D300240023547144782143417000E0DD
:103C50000023937130BC7047F0B581B00400A068B8
:103C60000425284200D0A2E061781122114231D00F
:103C7000E278002A2ED1CA0709D5514A1278002AC3
:103C800002D02843A06002E0FE2008406070607807
:103C9000EE21014061700126A07801224240A2700D
:103CA000E67048486B0348498027D20702D50F6069
:103CB000036001E00F610361D027BF013800FEF708
:103CC000A3FEA078064068460680012269463800B7
:103CD000FEF7BEFE60782221084232D02179002909
:103CE0002FD1022630420AD035490978002903D065
:103CF000A0682843A06002E0FD2101406170607867
:103D0000DD2101406170A07802224240A2700120B2
:103D1000207140232B482C49324202D00B600560B1
:103D200001E00B610561E027BF013800FEF76CFE82
:103D3000A078064068460680012269463800FEF7F2
:103D400087FE60784421084231D0617900292ED164
:103D500028420AD01A490978002903D0A0682843CC
:103D6000A06002E0FB21014061706078BB2101404E
:103D70006170A07804214140A17001206071C202ED
:103D800083031048294202D00360026001E003610E
:103D90000261F026B6013000FEF736FEA07805403D
:103DA00068460580012269463000FEF751FE01B0E9
:103DB000F0BD0000CC0000201000004810080048B2
:103DC0002C0E0020180400481814004810B50400F8
:103DD000FFF7C8FE2000FFF73FFF10BD124207D0DB
:103DE0008B0706D00B78491C0370401C521EF7D875
:103DF0007047830706D00B78491C0370401C521E85
:103E0000F9D1704770B4103A03D378C9103A78C02A
:103E1000FBD2530701D318C918C001D508C908C07F
:103E2000D20704D30B880380891C801C002A01D58B
:103E30000B78037070BC704700B581B000F0B4FA25
:103E400072B600F027F800F06AF800F0C2F800F04F
:103E50001BF9FCF771FFFEF787FEFEF700FF62B665
:103E600001B000BD07480849016008490160002110
:103E70004160FA2109018160C1680029FCD104492F
:103E80000160704700300040CCCC00005555000068
:103E9000AAAA00009A480168802292020A4302609E
:103EA0009020C005022181620C21C94302680A40AA
:103EB00002600268042313430360426802239A43AA
:103EC00042604268426082680A4082608268826022
:103ED000C2681140C160C168C1607047884801680C
:103EE0008022D2020A430260864887490A6802405B
:103EF0000A600A688023DB0113430B604A68802351
:103F00009A434A604A684A608A6802408A608A68BE
:103F10008A60CA681040C860C868C860704730B41A
:103F20008021C903764802680A430260754B774ACC
:103F300014681C40146014680D0A25431560546809
:103F40008025AC4354605468546094681C4094606D
:103F500094689460D4682340D360D368D3600368C6
:103F6000194301606A4913680B4013601368840C9D
:103F70001C43146053684024A34353605368536048
:103F800093680B40936093689360D3681940D16045
:103F9000D168D160016822030A4302605D485A4932
:103FA0000A6802400A600A68A30513430B604A6866
:103FB000594B13404B604A684A608A6802408A60E5
:103FC0008A688A60CA681040C860C868C86030BC27
:103FD000704730B48020C00249490A6802430A6031
:103FE000494A13689B009B081360136804031C4331
:103FF00014605368494C1C40546053685360936884
:104000009B009B08936093689360D3689B009B0818
:10401000D360D368D3600B6803430B603023DB436A
:1040200014681C40146014681025254315605468FA
:104030000425AC4354605468546094681C409460F8
:1040400094689460D4682340D360D368D3600B68CD
:1040500018430860324811680140116011682B054F
:104060000B43136051682F4B0B40536051685160F4
:1040700091680140916091689160D1680840D0607A
:10408000D068D06030BC704710B4802189021C48D1
:1040900002680A4302601B4B9022D20514681C4040
:1040A000146014681460D4682340D360D368CC08CB
:1040B0001C43D4600368194301601B4913680B401B
:1040C000136013681360D3681940D160D168030D81
:1040D0000B43D3600168802212030A430260134835
:1040E00013490A6802400A600A680A60CA681040F8
:1040F000C860C8688022D2040243CA6010BC7047FE
:1041000014100240FF3FFFFF000400480014004865
:10411000FFCFFFFFFFFFFFCFFFBFFFFFFF7FFFFFCF
:10412000FFFF3FFFFFF7FFFFFFF3FFFFFFFFFFF37F
:1041300000080048F0B581B0224801688022D20210
:104140000A4302602049214A13680B401360136838
:104150001360D3681940D160D168830C0B43D360DE
:10416000012441682143416019480168194A0A4005
:1041700002600168820D0A430260174D4027E8681B
:104180003843E860A868A8606E46072030700220B7
:104190007070B4706846FCF701FE286807432F6012
:1041A0000620307003207070B4706846FCF7F6FD8E
:1041B000082029680143296069680843686001B0E4
:1041C000F0BD000014100240FFCFFFFF00040048C4
:1041D0000C000140FFF0FFFF0004014010B5040097
:1041E000044800F007F900210170034800F002F9CB
:1041F000046010BD0000002004000020F8B52F4E20
:10420000300000F0F7F80090301D00F0F3F80400E3
:104210003000083000F0EEF805000C36300000F0F9
:10422000E9F82749274A009B1B78002B36D12368E1
:1042300053435B18236053435B18236053435B185D
:10424000236053435B18236053435B18236053433D
:104250005B18236053435B18236053435B18236050
:1042600003000826276857437F1827601F602768C8
:1042700057437F1827605F60276857437F18276080
:104280009F60276857437F182760DF601033761ED2
:10429000E8D1C36F2B600123009E33702368534322
:1042A000591821602978C906490E4018016829600B
:1042B00021680160286880008008F2BD00000020AD
:1042C0005FF36E3C0D661900F446002804D44942A1
:1042D00000F013F8404260474042002905D45FD007
:1042E00000F00BF8404249426047494200F005F8AF
:1042F0004942604703460B43E6D40022030A8B423F
:104300000BD203098B4219D243088B422ED2411A99
:1043100000D20146524110467047FF2209023FD0A9
:1043200012068B4205D3121209028B4201D31212DC
:10433000090203098B4219D300E0090AC3098B4221
:1043400001D3CB01C01A524183098B4201D38B01A7
:10435000C01A524143098B4201D34B01C01A52414A
:1043600003098B4201D30B01C01A5241C3088B428F
:1043700001D3CB00C01A524183088B4201D38B007A
:10438000C01A524143088B4201D34B00C01A52411C
:10439000884200D3401A5241CFD20146104670479E
:1043A00008B500F029F808BD1148416841600021B6
:1043B000C1624168A02292030A434260022142681E
:1043C0000A434260426842604268426002680123D8
:1043D0001343036002680A40FCD001688022520443
:1043E0000A4302608021890402680A40FCD07047B9
:1043F000001002407047FEE77047FEE77047FEE797
:10440000704770473D480168C90300D4704710B534
:1044100000683B4C2068401C2060FCF7B1FC24681D
:104420002000FA218900FFF768FFFA21890048433C
:10443000201A03D133480168491C016010BD704740
:1044400070477047704730B581B02F4C0825206900
:1044500028400BD02069284320612068A8432060B1
:104460002A48FFF7BDF820680543256001B030BD3C
:104470002748402142680A4006D0026808231343B7
:104480000360426811434160704710B5214C082019
:10449000E169014002D0216A08432062E069800698
:1044A00004D51D49A08CC0B2FEF754FCE06940065B
:1044B00006D52068000603D51848FEF75DFD208567
:1044C00010BD10B5164C0820E169014002D0216AE8
:1044D00008432062E069800604D51249A08CC0B26E
:1044E000FEF790FCE069400606D52068000603D57B
:1044F0000D48FEF759FD208510BD000010E000E0DA
:10450000240E00201C0E002004040140F4050020AD
:104510001004014000440040040B0020080C00205F
:1045200000380140FC080020000A00207047FEE728
:104530001148016801220A43026041680F4A0A409B
:10454000426001680E4A0A40026001680D4A0A4052
:10455000026041680C4A0A404260C16A0F229143DE
:10456000C162016B094A0A400263416B0122914317
:104570004163002181607047001002400CB8FF08C1
:10458000FFFFF6FEFFFFFBFFFFFFC0FFECFEFFFF9C
:1045900030B401210268001D002A0FD00368C3183F
:1045A000446808300C4202D04D466D1E64191D68E7
:1045B00025601B1D241D121FECD0F8E730BC70478E
:1045C00010B5074979441831064C7C44163404E090
:1045D000081D0A68891888470100A142F8D110BD5A
:1045E00008000000280000001BDDFFFF5C0D00003C
:1045F000D80000200000000099FFFFFFD800000055
:10460000A8000000000000200000000000F00BF8EF
:10461000002801D0FFF7D4FF0020C046C046FEF7B7
:104620000BFF00F002F80120704780B500F002F89F
:1046300001BDFEE70746384600F002F8FBE7FEE75B
:1046400080B5C046C046024A11001820ABBEFBE749
:1046500026000200110103000319090011010200E4
:1046600001220000110103000300000001488047FF
:1046700001480047314500087D460008C046C04655
:10468000C046C046FFF7C2FFFFFFFF00FFFFFB0071
:10469000FEE7FEE7FEE7FEE7FEE7FEE7FEE7FEE7F2
:1046A000FEE7FEE7FEE7000000000000010000005A
:1046B00000000000000000000000000000000000FA
:1046C00000000000000000000000000000000000EA
:1046D00000000000000000000000000000000000DA
:1046E00000000000000000000000000000000000CA
:1046F00000000000000000000000000000000000BA
:1047000000000000000000000000000000000000A9
:104710000000000000000000000000000000000099
:104720000000000000000000000000000000000089
:104730000000000000000000000000000000000079
:104740000000000011500C0004400027012802293D
:10475000032A042B1112040D000106A211120411E8
:104760000100022211120421000106821112042507
:104770000100020A01010001000100000200000026
:040000050800467D2C
:00000001FF
