:020000040800F2
:10000000381600202D4D0008E1460008E3460008A0
:1000100000000000000000000000000000000000E0
:10002000000000000000000000000000E74600089B
:100030000000000000000000E9460008EB46000850
:1000400037330008000000000B340008C33C0008F0
:10005000DF460008294700082B47000861470008D1
:100060000000000065480008674800084B4C000885
:10007000574C0008494E00084B4E00080000000095
:100080004D4E000827470008000000004F4E0008B2
:1000900023470008514E000825470008534E00082A
:1000A000554E0008574E0008594E0008CB4700082F
:1000B00085470008F0B583B00500814E814F824C22
:1000C0008248019010210022200000F009FD10213B
:1000D0000022300000F004FD11210022380000F061
:1000E000FFFC1121002201980090009800F0F8FC1C
:1000F000009810227649300000F01CFD102275494E
:100100003800401C0090009800F014FD0098132265
:100110007149200000F00EFD0097019B3200210084
:10012000280000F047FE207CE870607CE871A07C2D
:10013000E872F7BD38B50C0068490978002904D089
:10014000B22060700020E07017E02022C01C644DD7
:100150000100280000F0EEFC662062490870802053
:10016000000100F0C1FE1B225D498020000100F06B
:1001700007FFB1206070FF20E07068202070012030
:10018000A0700421200000F041FF010089B2090A9B
:1001900021716071544A0621200001F024FA31BD1A
:1001A00038B505000C006878202845D10D222900BB
:1001B0004E4801F08FFA002827D0002068730020F5
:1001C000A8730020E87300202874002068740020C1
:1001D00000F08AFE09222900002000F0D1FE07224B
:1001E0004249002000F0EFFE0D2229003F4801F0B7
:1001F00071FA002804D121206070FF20E07008E02F
:10020000222060700020E07003E021206070FF2059
:10021000E070682020700120A0700421200000F010
:10022000F5FE010089B2090A217160712E4A06218A
:10023000200001F0D8F942E06878302838D1072250
:100240002A49002000F0BFFE0D21284800F050F898
:10025000002815D1312060700820A0700822B7490D
:100260002500ED1C280000F065FC0B21200000F0AB
:10027000CDFE010089B2090AE17220730D210FE061
:10028000222060700120A0700020E0700421200076
:1002900000F0BCFE010089B2090A217160710621DB
:1002A00068202070104AC9B2200001F09CF906E0D5
:1002B0006878B02803D121002800FFF73BFF31BD4B
:1002C000FC0C00200C0D00201D0D0020300D002026
:1002D0006C4C00087C4C0008CC0D00202B0E00203C
:1002E000AC0D0020E00D0020F80B0020E40D0020F4
:1002F00038B505002878AC2804D02878682801D0C3
:1003000001201FE02878AC2801D1CC1E00E08C1E13
:10031000E4B2210089B2280000F078FE010089B221
:10032000090AE4B22A5DC9B2914201D0012009E074
:1003300080B2C0B2E4B229194978884201D00120C4
:1003400000E0002032BD38B505000C00AC2028705C
:10035000A879DF210140A971E4B2210089B2280007
:1003600000F054FE010089B2090AE4B22955641C68
:10037000E4B22855641C5320E4B22855641C2000C4
:10038000C0B232BD38B50500AC202870EC79083415
:10039000E4B2210089B2280000F038FE010089B2E1
:1003A000090AE4B22955641CE4B22855641C5320A0
:1003B000E4B22855641C2000C0B232BD38B5002319
:1003C00000E05B1CDBB2042B23DA8224E400045D32
:1003D00001259D402C42F4D18224E400045D0125D6
:1003E0009D4025438224E4000555DBB2822464004D
:1003F0005C430419A3706270D2B22500ED1C280082
:1004000000F098FB002081214900605202202070FA
:10041000FFE731BDFEB506000D00F479E4B220001F
:10042000102101F081F9070068460090E4B2200035
:10043000102101F079F90098017000240DE09E4A26
:10044000E4B21020604331180831E4B21020604358
:100450003018083001F004FD641CE4B2FFB2BC4265
:1004600011D26846007A0028E9D0934AE4B21020FD
:10047000604331180831E4B210206043301808306E
:1004800001F091FCE8E76846007800283CD0684617
:10049000007A002826D000240BE0FFB21020784319
:1004A000694609784018E4B2001930180021017239
:1004B000641CE4B2102069460978401A8442ECDBDF
:1004C0007D4AFFB21020784331180831FFB2102066
:1004D0004743F019083001F066FC10356846007893
:1004E0002D1A11E0744AFFB21020784331180831F8
:1004F000FFB210204743F019083001F0B1FC684604
:1005000000782D18103DFFE7EDB2E91E89B23000EA
:1005100000F07CFD010089B2090AEDB27219D21E09
:100520001170EDB27119891E08705320EDB2711966
:10053000491E0870019805700020FEBDE70D0020DF
:10054000FEB506000D00F479E4B22000102101F0A0
:10055000EBF8070068460090E4B22000102101F09B
:10056000E3F80098017000240DE0534AE4B2102033
:10057000604331180831E4B210206043301808306D
:1005800001F06EFC641CE4B2FFB2BC4211D26846BA
:10059000007A0028E9D0484AE4B2102060433118BC
:1005A0000831E4B2102060433018083001F0FBFB42
:1005B000E8E76846007800283CD06846007A0028C2
:1005C00026D000240BE0FFB210207843694609785A
:1005D0004018E4B20019301800210172641CE4B222
:1005E000102069460978401A8442ECDB324AFFB297
:1005F0001020784331180831FFB210204743F0191A
:10060000083001F0D0FB1035684600782D1A11E053
:10061000294AFFB21020784331180831FFB2102068
:100620004743F019083001F01BFC684600782D188C
:10063000103DFFE7EDB2E91E89B2300000F0E6FCA4
:10064000010089B2090AEDB27219D21E1170EDB221
:100650007119891E08705320EDB27119491E087076
:10066000019805700020FEBDF8B506000D003000B1
:10067000FFF788FE07000222AB4930000C3001F082
:1006800029F800280ED10024E4B2022C10DAB74A6F
:100690003900C9B2300000F0C7FF642001F064FCEB
:1006A000641CF1E7B14A3900C9B2300000F0BCFF68
:1006B0000020E8710020F2BDFC0C002070B50400A1
:1006C0000E0000250822AA4920000C3001F002F893
:1006D000002873D10422A7492000401C00F0FAFF33
:1006E00000280FD10322A4492000801C00F0F2FF53
:1006F000002807D11022A1492000143000F0EAFFA1
:10070000002856D004222100491C9A4D280000F0F0
:1007100011FA03222100891C974D280000F00AFAE3
:10072000662097494874002000F0DEFB09229449B6
:10073000002000F025FC0120924908700120924918
:1007400008701B22B7498020000100F03CFC1022F9
:1007500021001431894D280000F0ECF9032286496C
:10076000B14D280000F0E6F96620B04908708020FD
:10077000000100F0B9FB1B22AA498020000100F013
:10078000FFFBA848FFF796FCA949A64801F061FACB
:100790000120A84908706079202101436171C74890
:1007A00001F04BFC02F095F8C448007802F08BF998
:1007B00003E060792021014361710125EDB2002D34
:1007C0000FD00620F07104220834210034000834D0
:1007D000200000F0AFF9022030731920707301205F
:1007E00000E0002070BDF8B507000E00002400E016
:1007F000641CE4B2042C25DAE4B282204000604399
:10080000351828780028F3D0287A0007000F797966
:100810000907090F8842EBD104223900491C28003E
:10082000001D00F057FF0028E2D100202870822030
:10083000C000305C0121AA78914088438221C90020
:100840007054FFE7F1BDF4B582B006000D0000243E
:100850009B482F1803229B493000093000F03AFFD3
:10086000002806D1964829183000FFF727FF04001A
:100870001CE004223F493000401C00F02BFF002800
:1008800014D1032290493000093000F023FF0028E2
:1008900006D18B4829183000FFF7E6FE040005E07A
:1008A000029A3900300002F0ADFB0400E4B2002CE3
:1008B00039D004222F493C00641C200000F03AF992
:1008C00070797871B07980210143B9713800FFF7F0
:1008D00059FD694608707879800608D501236A4673
:1008E000684601783800FFF72BFE00281BD1032251
:1008F00074490936300000F0EDFE002809D1684641
:1009000003783A000A21714802F024F9704908700E
:1009100009E0684603783A00684801786B4802F0BD
:1009200019F96B490870F7BD1A1F000838B50400A3
:1009300015001A00A17998200840C0B2102802D0F2
:10094000182805D011E029002000FFF77CFF0CE0FB
:10095000042260492000401C00F0BCFE002803D1A6
:1009600029002000FFF73FFFFFE731BDF00900201D
:10097000E70D0020F10D0020100E0020CC0D00200E
:10098000E40D0020220E0020DE04002070B582B0AD
:1009900005004B482C188220C000285CFF2840D05E
:1009A000200002F05FFB00283BD14B48285C401C34
:1009B000494968544848285C102802DB0020464911
:1009C0006854042243492600761C300000F0B2F837
:1009D0004148285C20210143617160794006400E46
:1009E00060719820A0712000FFF7CCFC6946087068
:1009F00001236A46684601782000FFF7A1FD002820
:100A00000FD16846027821002800FFF7D7FC68461E
:100A100003782200294801782C4802F09BF82C49E1
:100A2000087073BDAC0D0020DC0D0020E10D00202E
:100A3000FC0C00202C0E002038B50500274800785B
:100A4000052839D0002000E0401CC0B2042833DA69
:100A5000C0B28221490041436C1821780029F3D0AB
:100A600081214900615A491C81225200A1528121F1
:100A70004900615ABC2252009142E5DB00208121ED
:100A80004900605263782200D21C0C4801780F485C
:100A900002F060F80E4908702078401E2070C0B245
:100AA000002809D18220C000285C0121A278914051
:100AB00088438221C900685431BD00001E0E002009
:100AC00016040000384E0008404E0008E4050020DF
:100AD0002E0E0020F10D0020110400002F0E00202A
:100AE0001206130A1A43130C1A4300BF094205D019
:100AF000830705D00270401C491EF9D170470000E1
:100B0000130030B414001500103902D310393CC062
:100B1000FCD2490700D30CC000D504C0890002D321
:100B20000280801C002900D5027030BC7047000094
:100B30000022E5E712420FD0814202D253189842B8
:100B400003D310B502F0F8FB08BD80185B1E1978BE
:100B5000401E0170521EF9D1704730B401210022AD
:100B60000368001D002B0BD00468001D0C4202D04E
:100B70004D466D1E64192260241D1B1FF0D0FAE73C
:100B800030BC704730B5002300E05B1CDBB2D2B252
:100B900093420FD2DBB2CC5CDBB2C55CAC4201D27B
:100BA000012008E0DBB2C45CDBB2CD5CAC42ECD22D
:100BB000022000E0002030BD00B5002200E0521C01
:100BC000D2B2C9B28A4206D2D2B2835C002BF6D02E
:100BD000881AC0B200E0002000BD00B5002105E089
:100BE000C9B242185278C9B24254491CC9B210293C
:100BF000F6DB0021017400BD70B504000D00160085
:100C00003200D2B229002000FFF7BCFF02283AD000
:100C10000021002230000BE0511AC0B22A18521EE7
:100C200012788A1A0121C0B223185B1E1A70401E66
:100C3000C0B20028E4D0C0B22218521E1278C0B24E
:100C40002B185B1E1B7892B29BB29A420BD1C9B291
:100C5000012906D1521EC0B22B185B1E1B78D21A76
:100C6000E1E70022DFE7C0B22B185B1E1B789BB2C6
:100C700092B29342D0D2511AC0B22A18521E1278A0
:100C80008A1A0021CFE770BDF8B507000E001124C5
:100C900011213000FFF790FF251A1120421BD2B21C
:100CA000EDB271193800FFF7A7FF00240AE0122007
:100CB000421BD2B2EDB27119491EE4B23819FFF7E6
:100CC0009BFF641CE4B2EDB2AC42F0D3F1BD30B591
:100CD0000024DBB2012B19D1102310E0DBB2C518C0
:100CE0006D1E2D78C9B24D43E4B22C19DBB2D55C30
:100CF00064192500DBB2D554A4B2240A5B1EDBB212
:100D0000002BEBD110780019107013E010230DE0C8
:100D1000DBB2C5186D1E2D78C9B24D43E4B22C1953
:100D20002500DBB2D554A4B2240A5B1EDBB2002B33
:100D3000EED1147030BDF1B582B00C0016001F006A
:100D400010212000FFF738FF6946087068460078D8
:100D5000251A1035002403E00020E4B23055641C4D
:100D6000E4B2112CF8DB002412E001233200E4B2DB
:100D7000295D0298FFF7ABFF39003000FFF784FFD1
:100D80003000FFF72AFF39003000FFF77DFF641CB9
:100D9000E4B268460078401E8442E6DB012332005C
:100DA000E4B2295D0298FFF792FF39003000FFF7A7
:100DB0006BFFF7BDF3B583B014001D0008271021A9
:100DC0002000FFF7F9FE694608726846007A00289D
:100DD00000D180E010220499039E3000FFF7AAFEA4
:100DE0006846007A201A1030019001980478002695
:100DF00002E064007F1E761CF6B2082E01DA20069F
:100E0000F7D564007F1E002624E03448344908608A
:100E10000A9B2A0003990398FFF78DFF10222900EF
:100E2000491C039800900098FFF784FE0098200664
:100E30000ED50A9B2A0003990498FFF77CFF102225
:100E40002900491C039800900098FFF773FE009852
:100E50006400761CF6B2FFB2BE42D6D30198401CA5
:100E6000019000201F49087028E01C481C490860B8
:100E70000A9B2A0003990398FFF75DFF10222900BF
:100E8000491C039F3800FFF755FE20060CD50A9B2E
:100E90002A0003990498FFF74EFF10222900491CED
:100EA000039F3800FFF746FE6400761CF6B2082E5A
:100EB000DBDB0C480078401C0A49087009480078C0
:100EC0006946097A491E884205DA01980549097878
:100ED000445C0026EAE705B0F0BD0000AAAA0000C5
:100EE000003000402A0E002000B54149414A1160FF
:100EF0004149404A11600021404A11603F49096858
:100F0000C907FBD43E49096802220A433C490A60EA
:100F10003C4940183C490860394800684021014379
:100F20003748016035480068C007FBD43448006882
:100F3000022188433249086031480068802101431A
:100F40002F48016000BD00B52E4A80182B4A126858
:100F5000D207FBD42A4A126801231343284A13609C
:100F6000018026480068C007FBD42548006801219D
:100F700088432349086000BD224940180088704713
:100F8000F8B504000E00170019481A4908601A48FD
:100F900018490860002019490860002508E0ADB232
:100FA00002206843315A2000FFF7CDFFA41C6D1CBE
:100FB000ADB2BFB2BD42F2D31148006880210143F7
:100FC0000F480160F1BDF8B504000F0015000026C0
:100FD00008E02000FFF7D0FFB6B20221714378523B
:100FE000A41C761CB6B2ADB2AE42F2D3F1BD000085
:100FF0002301674504200240AB89EFCD0C2002405D
:101000001020024000C0000814200240F0B5134A2E
:1010100000231CE00478401C114DE4B292B216008B
:1010200066403607360F02277E43AD5B92B2120947
:101030006A400B4DE4B2241192B254402407240FAD
:10104000022674432C5B92B2120962405B1C9BB275
:1010500089B28B42DED3100080B2F0BDFFFF0000EA
:10106000044C000880B56348006880218902014370
:1010700060480160604800688021890201435E4841
:1010800001605E4800685E4901405C4801605B4861
:101090000068802149000143584801609020C00544
:1010A0000068302188439021C90508609020C00560
:1010B0000068202101439020C0050160B548006808
:1010C00004218843B3490860B24800680421014301
:1010D000B0480160B048006830218843AE490860DC
:1010E000AD48006810210143AB480160AB4800687F
:1010F00030218843A9490860A848006810210143AD
:10110000A64801603D480068A54901403B48016090
:101110003A48006880214901014338480160902025
:10112000C0050068C02188439021C905086090204F
:10113000C0050068802101439020C00501609548EA
:101140000068082188439349086092480068082194
:1011500001439048016090480068C02188438E494F
:1011600008608D480068402101438B4801608B482E
:101170000068C02188438949086088480068402188
:101180000143864801600020B84908600020B84942
:101190000860B6480068B5490860B5480068B449B9
:1011A0000860B448B44908601C20694608700120F2
:1011B00069464870012069468870684602F0EAF87E
:1011C000AA48006820210143A8480160A748006898
:1011D00008210143A5480160A44800680421014397
:1011E000A2480160A1480068012101439F480160B5
:1011F00001BD0000141002401C10024020000048F5
:10120000FFF0FFFF80B59D480068802189020143FF
:101210009A4801609A4800688021C90101439848B2
:10122000016098480068F021884396490860954815
:10123000006810210143934801609020C0050068B8
:10124000914901409020C00501609020C0050068D0
:101250008021090301439020C00501604D480068CA
:101260008A4901404B4801604A4800684949086082
:101270004948006884490140474801604648006881
:101280008021C902014344480160444800687E4906
:101290000140424801604148006880210903014340
:1012A0003E4801607748006879490140754801600F
:1012B0007448006880214900014372480160902011
:1012C000C0050068734901409020C005016090206E
:1012D000C00500688021890301439020C00501609A
:1012E0002C4800686C4901402A4801602948006880
:1012F000284908602848006866490140264801607E
:1013000025480068802149030143234801602348A0
:101310000068604901402148016020480068802140
:10132000890301431D4801600020BD490860002079
:10133000BC490860BA480068B9490860B948006803
:10134000B84908604B48C64908601B2069460870C8
:10135000012069464870012069468870684602F09D
:1013600019F8AF48006820210143AD480160AC483E
:10137000006808210143AA480160A94800680421C7
:101380000143A7480160A648006801210143A44821
:10139000016001BD04000048080000480C0000483E
:1013A000FF0FFFFF00B50A78002A0AD0082A13D0E1
:1013B000092A15D00A2A2DD00B2A39D00C2A40D060
:1013C00052E0C0B2682806D188700120FF22921C2A
:1013D00088540820087047E0C8700920087043E06E
:1013E000C0B2002806D1002008710B20087003202D
:1013F00048700EE0C0B2212806DB0020FF22921CBC
:1014000088540020087004E008710A200870032046
:10141000487029E04A788A1890704878401C4870D3
:1014200048780A79D21C904201DB0B2008701BE03F
:101430004A788A1890704878401C48700C200870D0
:1014400012E04A788A1890704878401C4870074823
:10145000006820229043054A10600020FF22921C61
:1014600088540D200870FFE700BD000000440040D4
:1014700004440040E20400000C4400401410024008
:101480001810024024000048FFFFF3FFFFFDFFFF9C
:10149000FFF0FFFFFFFFCFFFFFFBFFFF00B50A7864
:1014A000002A0BD0022A2BD018D3042A3AD030D3EA
:1014B000062A69D052D3072A78D093E0C0B2AC286C
:1014C0000BD188700120487000207F4A10700120E5
:1014D000FF22921C88540120087083E04A788A1801
:1014E00090704878401C487077480078401C764AD5
:1014F000107075480078042801DB0220087071E044
:101500004A788A1890704878401C48700320087008
:1015100068E04A788A1890704878401C4870042027
:1015200008705FE0C0B2F52806DB0020FF22921CA5
:1015300088540020087010E04A788A1890704A7821
:10154000521C4A700022604B1A70C0B2002802D1AF
:101550000620087001E00520087043E04A788A18E8
:1015600090704878401C487057480078401C564A94
:101570001070554800784A7A904204D30020524AAD
:101580001070062008702DE04A788A18907048780C
:10159000401C48704C480078401C4B4A10704A4828
:1015A0000078022801DB072008701BE0C0B2532836
:1015B00012D11B4A126820239A43194B1A604A78A9
:1015C0008A1890704878401C48700020FF22921CB6
:1015D00088540D20087005E00020FF22921C8854DA
:1015E0000020087000BD38B514002278002A01D010
:1015F000012013E06170C9B22500ED1C0A00010052
:101600002800FFF797FA0020A070012020702F48D3
:101610000068802101432D480160002032BD000098
:10162000003801400438014038B514002278002AFF
:1016300001D0012013E06170C9B22500ED1C0A0041
:1016400001002800FFF776FA0020A070012020702A
:101650001F480068802101431D480160002032BD01
:101660000C38014000B501000A78012A11D18878B0
:101670000818C0788A78521C8A708A784B789A4207
:1016800007D302220A7011490968802291430F4A48
:101690001160C0B200BD00B501000A78012A11D165
:1016A00088780818C0788A78521C8A708A784B78B3
:1016B0009A4207D300220A700549096880229143A3
:1016C000034A1160C0B200BD2D0E0020004400404E
:1016D0000038014010B402E0401C491C521E002A90
:1016E00009D00B7804789C42F6D002D20020C04387
:1016F00002E0012000E0002010BC7047F446002802
:1017000004D4494200F013F84042604740420029A7
:1017100005D45FD000F00BF840424942604749428F
:1017200000F005F84942604703460B43E6D4002227
:10173000030A8B420BD203098B4219D243088B4216
:101740002ED2411A00D20146524110467047FF2264
:1017500009023FD012068B4205D3121209028B42B6
:1017600001D31212090203098B4219D300E0090ABE
:10177000C3098B4201D3CB01C01A524183098B426A
:1017800001D38B01C01A524143098B4201D34B0153
:10179000C01A524103098B4201D30B01C01A5241B6
:1017A000C3088B4201D3CB00C01A524183088B423D
:1017B00001D38B00C01A524143088B4201D34B0026
:1017C000C01A5241884200D3401A5241CFD201463A
:1017D0001046704708B501F017FE08BD10B50200AD
:1017E00000200023002400230EE0CC0700D5504049
:1017F000802414405200E4B2002C02D014001B22BA
:101800006240C9B249085B1CDBB2082BEDDBC0B2F9
:1018100010BD10B403780C785C40147043784C7899
:101820005C40547083788C785C409470C078C97840
:101830004140D17010BC7047F4B507000E003178FC
:101840003878FFF7CBFF04007178F878FFF7C6FF10
:101850000500B178B878FFF7C1FF65406840040023
:10186000F1787878FFF7BAFF010020004140009836
:10187000017031787878FFF7B1FF0400717838781B
:10188000FFF7ACFF0500B178F878FFF7A7FF01007C
:10189000654069400C00F178B878FFF79FFF2100A0
:1018A0004840009948703178B878FFF797FF0400F6
:1018B00071787878FFF792FF0500B1783878FFF7F4
:1018C0008DFF0100654069400C00F178F878FFF762
:1018D00085FF21004840009988703178F878FFF73B
:1018E0007DFF04007178B878FFF778FF0500B178C4
:1018F0007878FFF773FF0100654069400C00F178CC
:101900003878FFF76BFF210048400099C870F1BD9F
:1019100010B50400E4B2012C03D10120C0490870C5
:1019200013E0E4B2022C10DB0220BD490870641EF3
:1019300007E00221BA480078FFF750FFB849087065
:10194000641EE4B2601E0128F3DAB54810BD70B51C
:1019500000233DE0DBB2C45CD2B210255543DBB2BC
:1019600004265E43AD194D5D6540DBB2C554DBB264
:10197000C4182479D2B210255543DBB204265E4345
:10198000AD194D196D786540DBB2C4182571DBB215
:10199000C418247AD2B210255543DBB204265E4324
:1019A000AD194D19AD786540DBB2C4182572DBB2B4
:1019B000C418247BD2B210255543DBB204265E4303
:1019C000AD194D19ED786540DBB2C41825735B1C69
:1019D000DBB2042BBEDB70BD3EB5050002A8914909
:1019E0000A68026000240DE0C0B204214143E4B261
:1019F00009196A46C0B2125C6A54401CC0B204287D
:101A0000F2DB641CE4B2042C15DA002009E0C0B259
:101A100004214143E4B20919695C01AAC0B211541E
:101A2000401CC0B20428F2DB6A4601A902A8FFF7F5
:101A300003FF0020E2E737BD3EB5050002A87A4962
:101A40000A68026000240DE0C0B204214143E4B200
:101A500009196A46C0B2125C6A54401CC0B204281C
:101A6000F2DB641CE4B2042C15DA002009E0C0B2F9
:101A700004214143E4B20919695C01AAC0B21154BE
:101A8000401CC0B20428F2DB6A4601A902A8FFF795
:101A9000D3FE0020E2E737BD70B5012100E0491C0C
:101AA000C9B2042923DA002217E0C9B204254D4344
:101AB000DBB2ED1845196D1EC9B204264E43DBB2E8
:101AC000F618865D2E705B1CDBB2042BEDDBC9B211
:101AD00004234B43C318DC70521CD2B2C9B28A42F1
:101AE000DDD2C9B204234B43C45C0123ECE770BDD3
:101AF00070B5012100E0491CC9B2042923DA002293
:101B000016E0C9B204254D43DBB2ED18C9B2042674
:101B10004E43DBB2F6188619761E367846555B1EA4
:101B2000DBB2002BEDD1C9B204234B43C454521C89
:101B3000D2B2C9B28A42DED2C9B204234B43C3181F
:101B4000DC780323ECE770BDF0B5002121E0C9B2D9
:101B500004234B43D2B29B18C35CDBB21B09C9B24E
:101B600004244C43D2B2A418045D2407240FC9B244
:101B700004254D43D2B2AE182C4DDBB210277B4367
:101B8000E4B21B19EB5C8355521CD2B2042ADEDB93
:101B9000491CC9B2042901DA0022F6E7F0BDF0B50C
:101BA000002121E0C9B204234B43D2B29B18C35C8D
:101BB000DBB21B09C9B204244C43D2B2A418045DA1
:101BC0002407240FC9B204254D43D2B2AE18184DD4
:101BD000DBB210277B43E4B21B19EB5C8355521C2C
:101BE000D2B2042ADEDB491CC9B2042901DA002280
:101BF000F6E7F0BD10B500210EE00C4AC9B2435C17
:101C00001B1110246343C9B2445C2407240F1B1921
:101C1000D25CC9B24254491CC9B20429EDDB10BDE3
:101C2000C4000020304E0008344E00086848000808
:101C30006849000800B50178002205E0D2B2831897
:101C40005B78D2B28354521CD2B2032AF6DBC17045
:101C500000BD70B582B00D002C26002426E0E4B251
:101C600004216143415CE4B204226243A954E4B21A
:101C70000421614341184978E4B204226243AA185E
:101C80005170E4B20421614341188978E4B204221E
:101C90006243AA189170E4B2042161434118C978E3
:101CA000E4B204226243AA18D170641CE4B2042C8A
:101CB000D5DB042437E0E4B2042060432818103850
:101CC0000078694609784140E4B204206043295411
:101CD000E4B20420604328180F3800786946497838
:101CE0004140E4B20420604328184170E4B204206B
:101CF000604328180E380078694689784140E4B27C
:101D00000420604328188170E4B20420604328183E
:101D10000D3800786946C9784140E4B20420604338
:101D20002818C170641CE4B2F6B2B4423AD2E4B2EC
:101D3000042060432818001F007869460870E4B248
:101D4000042060432818C01E007869464870E4B239
:101D5000042060432818801E007869468870E4B229
:101D6000042060432818401E00786946C870E4B219
:101D700020000421FFF7D8FC00299CD16846FFF71A
:101D800059FF6846FFF736FFE4B220000421FFF751
:101D9000CBFCC0B2FFF7BCFD6A4601006846FFF706
:101DA00038FD88E773BDF0B585B00E001400002142
:101DB00011E06B46C9B204254D43D2B2AD18C9B289
:101DC000D2B204275743CF19C75D5F55521CD2B218
:101DD000042AEEDB491CC9B2042901DA0022F6E725
:101DE000002221006846FFF7B2FD01250FE068469A
:101DF000FFF7AAFE6846FFF74FFE6846FFF7ECFDC7
:101E00002A00D2B221006846FFF7A1FD6D1CEDB299
:101E10000A2DECDB6846FFF797FE6846FFF73CFEAD
:101E20000A2221006846FFF792FD002111E0C9B2A5
:101E3000D2B20420504308186B46C9B204244C4364
:101E4000D2B2A4181B5D3354521CD2B2042AEEDB6A
:101E5000491CC9B2042901DA0022F6E705B0F0BD39
:101E6000F0B585B00E001400002111E06B46C9B238
:101E700004254D43D2B2AD18C9B2D2B2042757439C
:101E8000CF19C75D5F55521CD2B2042AEEDB491C44
:101E9000C9B2042901DA0022F6E70A2221006846C5
:101EA000FFF755FD09250FE06846FFF721FE68465C
:101EB000FFF775FE2A00D2B221006846FFF747FD02
:101EC0006846FFF7B9FD6D1EEDB2002DECD16846F6
:101ED000FFF70EFE6846FFF762FE0022210068460B
:101EE000FFF735FD002111E0C9B2D2B20420504302
:101EF00008186B46C9B204244C43D2B2A4181B5D27
:101F00003354521CD2B2042AEEDB491CC9B2042954
:101F100001DA0022F6E705B0F0BD000180B51C48EB
:101F20001C4908601C480068042101431A480160EC
:101F300000201A490860FF2069460870032069469E
:101F40004870012069468870684601F023FA1248FB
:101F5000006802210143104801600F480068012118
:101F600001430D48016001BD00B50D4909680C4AE7
:101F70001268521A8242FAD300BD00B508480068C0
:101F80004007400F002802D101200649087000BD1B
:101F900080BB000014E000E010E000E018E000E08A
:101FA000140E0020260E002038B504000D00207805
:101FB0000D281BD10020207061782000801CFEF7C6
:101FC00097F900280CD1A078682802D10120287048
:101FD0000CE0C748006820210143C548016005E0C6
:101FE000C348006820210143C148016031BD38B5B4
:101FF00004000D0020780D281ED100202070E0790B
:10200000800609D501232200521C61782000801C23
:10201000FEF700FA00280FD16378A41C2200B5480F
:102020000178280000F096FDB3490870B3480068B5
:1020300020210143B148016031BD00B5B0490978A4
:10204000AF4A52788918AE4A92788918002904D18B
:102050000A2101700A2141700FE0C906C90E49002A
:1020600001700178491C417001780A2905D1017875
:10207000891C01700178491C4170A2490278895C71
:10208000A14AD1719F494078085C9F49087200BD00
:10209000F2B582B004009848007802280ED10020E2
:1020A0009549087099480078401C984908709748ED
:1020B00000780B2802DB01208F4908708E480078D9
:1020C000042809D100209249087000208A4908702C
:1020D0008848007800F0F7FC8D48007806280AD17F
:1020E00000208B49087000208849087081480078DA
:1020F00000F0E9FCFAE086480078042809D10020C5
:1021000083490870002081490870022001F054FBC7
:10211000ECE07F480078032800D0E7E000207C490D
:102120000870002079490870A1782000C01DFEF7D2
:10213000DFF800285FD1A07B642843DA0827002558
:10214000A07809380221FFF7EFFA06001BE0FFB282
:10215000E019C0796946088068460088000269462F
:10216000088068460088FFB2E119097A0843694689
:1021700008806846008801F07FFDEDB26119A24A2F
:1021800088546D1CBF1C3000461EC0B20028DED132
:10219000A178002226000F363000FEF7A1FCEDB238
:1021A0002A009948211826000F363000FEF7C2FC9D
:1021B000EDB229000022944826183000FEF790FC6A
:1021C0000835A570617B9820084001218F4A117065
:1021D000C0B2102803D110200299087086E0C0B266
:1021E000182803D12020029908707FE04148007828
:1021F00000F069FC7AE0E079AC2873D1A07B652817
:1022000004DB3C48007800F05EFC6FE0A07B6428B3
:1022100043DA08270025A07809380221FFF784FA5D
:1022200006001BE0FFB2E019C079694608806846E5
:10223000008800026946088068460088FFB2E119FC
:10224000097A0843694608806846008801F014FD51
:10225000EDB261196C4A88546D1CBF1C3000461EDB
:10226000C0B20028DED1A178002226000F3630004F
:10227000FEF736FCEDB22A006348211826000F361F
:102280003000FEF757FCEDB2290000225E48261808
:102290003000FEF725FC0835A570A1782000C01D90
:1022A000FEF726F8002818D1617B9820084001210C
:1022B000564A1170C0B2102803D11020029908703C
:1022C00014E0C0B2182803D12020029908700DE054
:1022D0000848007800F0F7FB08E00648007800F0B6
:1022E000F2FB03E00348007800F0EDFBF7BD0000CF
:1022F000004400401E0E00202E0E00200038014039
:10230000100E0020444B00088C000020290E0020F5
:102310002F0E002070B506000D0028780407240F4A
:102320002878000715D0E4B2012C08D1384800788D
:10233000002867D1374831183748FDF731FF287832
:10234000F0210140297035480068202101433348BD
:1023500001602878F021084254D0314800780028E4
:102360000CD003222F493048FFF7B4F9002805D1DB
:1023700001202E49087000202D490880E4B2102C5D
:1023800004D12C480078052800D13BE0002403222A
:1023900029492A48FFF79EF9002814D020480078E0
:1023A000002801D101240EE09948007B60210842F9
:1023B00009D00023974A964881789748FEF7C0F8DD
:1023C000002800D00124E4B2002C08D028780007AF
:1023D000000F2870AC48007800F075FB12E02B006D
:1023E00032008B4881788C48FEF7A0FA28780007E5
:1023F000000F28700F480078052803D0A248007805
:1024000000F061FB70BD000005020000270E0020F7
:10241000F80B002016040000F60A002000440040DB
:10242000220E0020F20D0020ED050020DE04002029
:10243000E00400202F0E0020384E0008F405002094
:1024400010B5040091480078012807D19048006831
:10245000400603D48C48007800F035FB8D480078A6
:1024600003281AD18C480078002813D08A480078B5
:10247000401C894908708848007813280DDB00202B
:10248000854908700020834908707F48007800F073
:102490001AFB02E000207F4908709048008800285D
:1024A00011D08E480088401C8C49088080B21328C7
:1024B00009DB0020894908800020744908707248AF
:1024C000007800F000FB8648007800280ED0844891
:1024D0000078401C8249087081480078132805DB89
:1024E00000207F4908700620684908707D48007800
:1024F00002280ED17C480078401C7B4908707A483D
:102500000078072805DB002077490870002075490E
:1025100008707648007800280DD074480078401C78
:1025200072490870C0B20A2805DB00206F490870A4
:102530000D209C4908709C48007800280DD09A48CE
:102540000078401C98490870C0B20A2805DB0020BA
:10255000954908700D2095490870E078002807D04B
:10256000E078401CE070E078332801DB0020E07068
:102570002079002807D02079401C20712079332849
:1025800001DB002020716079002807D06079401CB1
:1025900060716079332801DB002060718448007825
:1025A000002818D082480078401C81490870804873
:1025B00000784007400F012805D17E4800680221BD
:1025C00041407C4801607A48007830281EDB0020BA
:1025D000774908701AE09A480078012813D1022040
:1025E0009849086098480088401C97490880964898
:1025F00000889649884209DB002093490880002022
:102600008F49087002E002209149086010BD000067
:10261000E4050020E6050020EB05002080B58D498B
:102620006048FFF7C1FC8B498B48FFF773FE092216
:102630008A490020FEF7C7FC0D218848FDF758FEA7
:102640000028ECD18548807A0007000F8449087083
:102650008248407C662806D101208249087001200A
:10266000774908700EE000207E49087000207B4901
:10267000487300207949887300207849C873002086
:102680007649087401BD00001E0E00202F0E0020A8
:10269000100400482E0E0020E908002010B51B226F
:1026A000714980200001FEF78EFC01206F490870FF
:1026B0006F48007866280FD103226E496E4C2000C7
:1026C000FEF738FA6848FDF7F5FC6C496648FFF7F5
:1026D000C0FA01206A49087010BD00001C0E0020DD
:1026E000E8080020F80B0020280E0020F50B002041
:1026F0001CB50400012200A9891CD0208001FEF72E
:1027000062FC68464088C0070BD580205D490860A0
:10271000802000025C490860A07801210143A1707B
:1027200003E0A078FE210140A1704D480078022806
:1027300037DB01226946E0208001FEF744FC684651
:10274000008880070AD540204E49086004204E4981
:102750000860A07802210143A17003E0A078FD2168
:102760000140A1703E48007803281ADB012201A92C
:10277000F0208001FEF727FC6846008840070CD552
:102780008020C00140490860802000013E49086067
:10279000A07804210143A17003E0A078FB2101404F
:1027A000A17013BDF40A0020ED090020EC08002000
:1027B000270E00201400004880B501F074FA0220B2
:1027C00020490860FFF72AFFFFF768FF0220204931
:1027D000086001F0FAFA01F0A9FB01F061FC2B4856
:1027E000FFF72BFC00F075F82848007800F06BF933
:1027F0001848FFF77DFF264800780028FBD000200E
:10280000234908701348FFF71BFE22492248FFF7AF
:10281000EEFB10491F48FFF73BFC0E490E48FFF73F
:1028200079FD0C4800F07EFD1C480078052803D097
:1028300008490948FEF7AAF80748FEF7FDF8DAE765
:10284000DE04002018000048E00400204D1D0000B8
:1028500028000048F80D0020CC000020E40D0020E6
:10286000C8000020220E0020AC0D00202B0E0020FE
:10287000E10D0020DC0D0020100E0020FC0C0020DB
:102880002C0E002018140048180400481E0E0020CA
:10289000260E0020E4050020EC0800202F0E00206A
:1028A000A2480068704738B504000D000020FFF70B
:1028B000F7FF01F085FC01F093FCEDB2E4B2291BB7
:1028C000491CFEF731FF0A31C9B20800FFF74CFB83
:1028D00031BD10B5032401F0E9FC01F043FA01F029
:1028E00045FE00E0641E00F099FF002802D0E4B22B
:1028F000002CF7D1E4B2002C07D101208C490870DC
:1029000080208C490860012002E000F0D1FF002007
:1029100010BD1CB5040068460021002206C008381E
:10292000002300220021684600F0A8FD6846807858
:1029300069460979C9B2CA0702D501227E4B1A80BD
:10294000C9B2090702D50321794A1170C0B2010743
:1029500006D5042079490870002077490880B1E045
:10296000C0B2C10643D57648007800280FD10421B3
:102970002000C01C00F000FFE078042815DBE078A0
:10298000C11EC9B22000C01D00F0F6FE0DE06D486A
:102990000078002809D06B48017869480078302217
:1029A00050432018C01C00F0E7FE00F0FDFD664813
:1029B000C078607064484078212807DB624840781E
:1029C000272808DB60484078482804DA5F485E49D9
:1029D0004978405C2070E078C01EA070207920709B
:1029E0000320564908700020534908806AE0C0B2AD
:1029F000C10729D552480078002811D104212000B0
:102A0000C01C00F0B9FE2C212000C01D00F0B4FE57
:102A1000E0782F384B49087001204949087051E08F
:102A2000302147480078302250432018C01C00F065
:102A3000A3FE444800783038424908704048007886
:102A4000401C3F4908703DE0C0B281060AD5002015
:102A5000BD4908700620394908700020C12189004D
:102A600060542FE0C0B280072CD5B74800783128D9
:102A700015DB302136480078302250432018A1223F
:102A80005200801800F059FE31480078401C30494F
:102A90000870AD4800783038AB49087012E0AA4899
:102AA000007800280ED0A848017829480078302204
:102AB00050432018A1225200801800F03EFE002052
:102AC000A149087013BD1FB5040002A8002100220F
:102AD00006C0083800230022002102A800F0CEFC26
:102AE00013480078012801D101201CE0E4B2422CF7
:102AF00000DB4124022000F05FFE0820019003204B
:102B000000900023002200219048E4B2005D00F014
:102B1000CFFD0120094908700020094908700020F4
:102B200008490870002004B010BD0000180E0020F5
:102B30002E0E0020180400481C0E00202F0E00202E
:102B4000320E0020330E0020040E0020FC4A000844
:102B5000310E0020F6B583B005001C0000270020D0
:102B60006946488068460021018001A800210022B2
:102B700006C0083876480078012801D10120DFE03E
:102B8000E4B2FC2C00DBFB246846007B422802DB1D
:102B90004120694608736846007BFFF794FF2821AF
:102BA0001420FFF780FE6A480078032807D1002030
:102BB000684968540020684908700420C0E0002675
:102BC00008E00498F6B2805DF6B2A919832252009B
:102BD0008854761CF6B2E4B2A642F2D301205D49D5
:102BE0006854FF200C30285C000654D4082620E0EE
:102BF000F6B2A81983214900405C00F079FF6946CC
:102C0000488068466946498889B2090A0170684661
:102C100040886946487068460078FFB2E9194F4A13
:102C2000885468464078FFB2E9194D4A8854BF1C61
:102C3000761CF6B2E4B2601E8642D9DBE4B2210013
:102C40000022872040002C182000FDF749FFFFB22A
:102C50003A0042482918872040002C182000FDF730
:102C600069FF86204000285CF82101408620400052
:102C70002954FFB23900002238482C182000FDF7F3
:102C80002FFF3C0008348320400028182100C9B2DF
:102C9000FDF759FB04002000C01CE8706846007B6B
:102CA000287101206871E8782979414068794840A5
:102CB000A871002027496854032000F0BFFC0023BE
:102CC0000022002101A800F0D9FB012000F074FDD2
:102CD000E4B23D2C0FDB20003C381B490870042176
:102CE0002800C01C00F029FD3C218320400028184A
:102CF00000F023FD0EE00020134908700421280095
:102D0000C01C00F01AFD2100C9B283204000281821
:102D100000F013FD0520104908700120C121890031
:102D20006854E4B2241D220092B2302107486B4659
:102D30001B7BC05C00F09AFC00200A490870002050
:102D400005B0F0BD00000000300E0020444B00082C
:102D50002E0E0020050300002F0E002005020000AB
:102D600006020000310E002000B5A4480068802152
:102D70000840C009C0B2002817D0A1490978C0B2E4
:102D800088420ED0B5490978491CB44A1170B3493C
:102D90000978152921D30021B04A1170984908708B
:102DA0001BE00020AD49087017E095490978C0B2D2
:102DB00088420FD0A9490978491CA84A1170A7492F
:102DC0000978152909D30021A44A11708C4908708B
:102DD000012003E00020A1490870002000BD00B5DB
:102DE00086480068202108404009C0B2002817D05A
:102DF0009B490978C0B288420ED0B9490978491C6C
:102E0000B74A1170B6490978152921D30021B44A6F
:102E10001170934908701BE00020B149087017E059
:102E20008F490978C0B288420FD0AD490978491C52
:102E3000AB4A1170AA490978152909D30021A84A7B
:102E4000117087490870012003E00020A449087030
:102E5000002000BD00B5A34800688021890108401A
:102E6000400BC0B2002817D0B7490978C0B28842D9
:102E70000ED0B6490978491CB44A1170B349097893
:102E8000152921D30021B14A1170AF4908701BE008
:102E90000020AE49087017E0AB490978C0B28842FB
:102EA0000FD0AA490978491CA84A1170A749097886
:102EB000152909D30021A54A1170A34908700120E2
:102EC00003E00020A1490870002000BD70B50C008F
:102ED0000021037ADB0702D4037A002B07D1917813
:102EE000C90701D5012500E00025012120E0037A72
:102EF0009B070DD596490978022901DA002028E0C0
:102F00009178890701D5012500E0002501210FE016
:102F1000037A5B070CD58E490978032901DA002072
:102F200017E09178490701D5012500E0002501212E
:102F3000C9B200290CD00521E1710422083001003A
:102F4000260008363000FDF7F5FD2573012000E06E
:102F5000002070BD38B500240023057B002D00D073
:102F60000124057AED0702D4057A802D0BD19378E0
:102F70001D00ED07ED0FE4B2AC4203D053781025ED
:102F80001D4355700123057AAD0711D5704B1B7891
:102F9000022B01DA002030E093781D00AD07ED0F21
:102FA000E4B2AC4203D0537820251D435570012371
:102FB000057A6D0711D5664B1B78032B01DA0020CB
:102FC0001BE093781D006D07ED0FE4B2AC4203D017
:102FD000537840241C4354700123DBB2002B0BD0E8
:102FE0000422CA710422083008310C0001002000BC
:102FF000FDF7A0FD012000E0002032BD10000048D8
:10300000C9000020F8B505000E00170000240322B7
:10301000BC4928000930FEF75DFB002810D1287A52
:10302000000606D53A0031002800FFF793FF0400A0
:1030300011E03A0031002800FFF748FF04000AE0E1
:103040000322B14909352800FEF744FB002802D1CC
:103050000020F07101242000C0B2F2BD230E002038
:10306000CA000020F8B504000D0000200026297ACF
:10307000490732D5A96804229143A9606978C90734
:1030800007D5A978C90700D501260100012008430A
:1030900014E06978890707D5A978890700D5012642
:1030A00001000220084309E06978490706D5A9789C
:1030B000490700D501260100042008430521E171DC
:1030C000207203228F49270009373800FDF732FDAF
:1030D000267300206870002000E00120F2BD00008F
:1030E000240E00201008004810B50400207A400784
:1030F00028D4E078002807D1FFF736FE002803D057
:10310000607801210143617080480078022819DB52
:103110002079002807D1FFF762FE002803D06078ED
:103120000221014361707948007803280ADB607945
:10313000002807D1FFF78EFE002803D06078042115
:103140000143617010BD0000CB000020250E00205F
:10315000C80000201CB50400207A400700D5D0E04C
:103160006078112108423ED0E07800283BD1607899
:10317000C0070CD566480078002804D0A068042158
:103180000143A16003E0A06804218843A060607847
:10319000EF2101406170A07801214140A170012020
:1031A000E070A078C00707D580205A4908608020C9
:1031B00000025949086006E08020584908608020D4
:1031C000000257490860D0208001FDF78DFEA078ED
:1031D0000100C907C90F68468180012201A9D020DA
:1031E0008001FDF7CDFE49480078022800DA88E02A
:1031F0006078222108423CD02079002839D16078BB
:1032000080070CD542480078002804D0A06804212B
:103210000143A16003E0A06804218843A0606078B6
:10322000DF2101406170A07802214140A17001209E
:103230002071A078800706D5402036490860042018
:103240003549086005E040203449086004203449CD
:103250000860E0208001FDF747FEA07802210140D0
:1032600068464180012200A9891CE0208001FDF709
:1032700087FE26480078032843DB60784421084213
:103280003FD0607900283CD1607840070CD52048B9
:103290000078002804D0A06804210143A16003E065
:1032A000A06804218843A0606078BF21014061705C
:1032B000A07804214140A17001206071A0784007EE
:1032C00008D58020C00114490860802000011249FF
:1032D000086007E08020C0011149086080200001DB
:1032E0000F490860F0208001FDF7FEFDA078042161
:1032F00001406846018001226946F0208001FDF707
:103300003FFE13BD444E00083C4E0008C80000209C
:10331000220E002018140048180400482814004801
:103320002804004810B504002000FFF7DDFE20004F
:10333000FFF710FF10BDFEE7124207D08B0706D043
:103340000B78491C0370401C521EF7D87047830746
:1033500006D00B78491C0370401C521EF9D17047EF
:1033600070B4103A03D378C9103A78C0FBD253072F
:1033700001D318C918C001D508C908C0D20704D3A1
:103380000B880380891C801C002A01D50B780370F0
:1033900070BC704710B500218178002926D01749EC
:1033A0000278921004235A438958FF2203789B071E
:1033B0009B0F082463439A4091430C004178890194
:1033C000C9B202789207920F08235A4391402143D1
:1033D0000A4A03789B1004246343D15001210078EA
:1033E000C006C00E81400648016006E00121007859
:1033F000C006C00E81400348016010BD00E400E03B
:1034000000E100E080E100E07047FEE780B580B2B7
:10341000FEF7AAFD01BD38B5040085480588802067
:10342000000284490860442001F069F80BE0802024
:1034300000028D490860802000027E490860442017
:1034400001F05DF86D1EC02001F059F8FF2802D090
:10345000ADB2002DEBD1ADB2002D07D1802000021E
:103460008149086002207449087006E0E4B2002C2B
:1034700003D1802000027C49086031BDF8B504000A
:103480000F0015001E000020FFF7C5FF802000027E
:1034900068490860202001F032F83800C0B201F01D
:1034A0002EF82800C0B201F02AF83000C0B201F0B6
:1034B00026F8802000026C4908600120FFF7ABFF6E
:1034C000002505E0AA2001F01AF8EDB260556D1C48
:1034D000EDB2082DF6DB8020000263490860F1BDE3
:1034E00038B5040000250020FFF795FF802000027A
:1034F00050490860002504E0EDB2605D00F0FFFF78
:103500006D1CEDB2A078001D8542F5DB8020000225
:103510005549086031BD80B50020FFF77CFF802051
:10352000000244490860012000F0E9FF8020000209
:103530004D4908600120FFF76EFFAA2000F0DFFF71
:103540008C490870AA2000F0DAFF000289494880FF
:10355000AA2000F0D4FF87494988C0B201438548BA
:103560004180AA2000F0CBFF82490871AA2000F018
:10357000C6FF00027F49C880AA2000F0C0FF7D4935
:10358000C988C0B201437B48C180AA2000F0B7FFC0
:1035900078490872AA2000F0B2FF7649487280206C
:1035A00000023149086001BD80B50020FFF733FFFC
:1035B000802000021F490860222000F0A0FF802028
:1035C0000002294908600120FFF725FFAA2000F02A
:1035D00096FF68490870AA2000F091FF654948707D
:1035E000AA2000F08CFF63498870AA2000F087FFB2
:1035F0006049C870AA2000F082FF5E490871AA20C5
:1036000000F07DFF5B494871AA2000F078FF0002BE
:103610005849C880AA2000F072FF5649C988C0B234
:1036200001435448C180802000020F49086001BD59
:10363000200E0020280000482E0E002010B50400A7
:103640000020FFF7E8FE802000025A49086034207D
:1036500000F055FF2000C0B200F051FF80200002B2
:103660000149086010BD00001800004870B5040052
:103670000D0016000020FFF7CEFE802000024D490D
:103680000860312000F03BFF2000C0B200F037FF9F
:103690002800C0B200F033FF002000F030FF3000FF
:1036A000C0B200F02CFF802000025B49086070BDB2
:1036B000F8B504000F0015001E000020FFF7ABFE58
:1036C000802000023B490860322000F018FF2000F3
:1036D000C0B200F014FF3800C0B200F010FF0020AC
:1036E00000F00DFF2800C0B200F009FF3000C0B2AA
:1036F00000F005FF069800F002FF079800F0FFFEBB
:103700008020000244490860F1BD38B50400002063
:10371000FFF781FE8020000226490860002504E0B2
:10372000EDB2605D00F0EBFE6D1CEDB2082DF7DB35
:10373000802000023849086031BD70B505000C00DA
:103740000020FFF768FE802000021A49086066200A
:1037500000F0D5FE002604E0F6B2A85D00F0CFFE32
:10376000761CF6B2E4B2A642F6D3802000022A49C3
:10377000086070BD040E002070B505000C0000202C
:10378000FFF749FE802000020A490860772000F018
:10379000B6FE002605E0AA2000F0B1FEF6B2A8555C
:1037A000761CF6B2E4B2A642F5D38020000280492E
:1037B000086070BD2800004810B582B0040068465B
:1037C000002101800020FFF726FE802000023749FB
:1037D0000860152000F093FE2000C0B200F08FFEBC
:1037E00080200002724908600120FFF714FE0024C7
:1037F0000AE0AA2000F083FE6946E4B20855684654
:10380000694649780170641CE4B2022CF1DB802027
:1038100000026749086013BD1800004800B583B076
:1038200080204001634908808020634908600220AD
:10383000FFF7ECFD8020614908600A20FFF7E6FDF4
:103840008020000219490860022000F058FE012083
:1038500000F055FE002000F052FE012000F04FFE67
:10386000C92000F04CFEC32000F049FE802000F08B
:1038700046FE802000024E4908600220FFF7C6FD88
:103880000023002200216846FFF7F8FDFFF743FE02
:10389000202048490880044840884949884201D08E
:1038A000012000E000200EBD040E0020280000488A
:1038B00080B54448FFF714FE4348FFF711FE434824
:1038C000FFF70EFE4248FFF70BFE4248FFF708FEE7
:1038D0004148FFF705FE4148FFF702FE4048FFF769
:1038E000FFFD4048FFF7FCFD3F48FFF7F9FD3F486B
:1038F000FFF7F6FD3E48FFF7F3FD3E48FFF7F0FD0A
:103900003D48FFF7EDFD3D48FFF7EAFD3C48FFF776
:10391000E7FD3C48FFF7E4FD3B48FFF7E1FD3B488E
:10392000FFF7DEFD3A48FFF7DBFD3A48FFF7D8FD29
:103930003948FFF7D5FD3948FFF7D2FD3848FFF782
:10394000CFFD3848FFF7CCFD3748FFF7C9FD3748B2
:10395000FFF7C6FD3648FFF7C3FD3648FFF7C0FD49
:103960003548FFF7BDFD3548FFF7BAFD3448FFF78E
:10397000B7FD3448FFF7B4FD3348FFF7B1FD3348D6
:10398000FFF7AEFD3248FFF7ABFD3248FFF7A8FD69
:103990003148FFF7A5FD3148FFF7A2FD3048FFF79A
:1039A0009FFD3048FFF79CFD2F48FFF7AEFE01BD9D
:1039B00018000048200E0020180400482804004881
:1039C00038440000904D0008984D0008A04D0008B4
:1039D000A84D00083C4D0008B04D0008B84D000847
:1039E0008C4C0008C04D00089C4C0008AC4C0008F2
:1039F000D84D0008E04D0008E84D0008F04D0008E3
:103A0000544D0008C84D0008F84D0008004E00084D
:103A1000084E0008604D0008BC4C0008CC4C000863
:103A2000DC4C0008D04D00086C4D0008484D0008E3
:103A30008C000020EC4C0008FC4C00080C4D0008E9
:103A40001C4D0008784D0008104E00089C00002016
:103A5000A4000020AC000020B4000020184E000894
:103A6000204E0008284E0008BC00002000B50100D0
:103A7000F02008400100012008430100C9B20909F3
:103A8000C9B20200D2B25209D2B289180200D2B22F
:103A90009209D2B28918C90702D50100082008434B
:103AA0000100C9B20909C9B20200D2B25209D2B2A8
:103AB00089180200D2B2D209D2B28918C90702D538
:103AC0000100042008430100C9B20909C9B202007B
:103AD000D2B29209D2B289180200D2B2D209D2B2BD
:103AE0008918C90702D5010002200843C0B200BDF1
:103AF00038B5050000202800C0B2FFF7B7FF00026C
:103B00002D0104002800C0B2FFF7B0FF0100200023
:103B1000084380B232BD00B50100C9B20909C9B27B
:103B20000200D2B25209D2B289180200D2B292096E
:103B3000D2B289180200D2B2D208D2B28918C9070B
:103B40004ED50100C9B20909C9B20200D2B2520968
:103B5000D2B289180200D2B2D209D2B289180200B8
:103B6000D2B29208D2B28918C9071CD50100C9B2D5
:103B70000909C9B20200D2B29209D2B28918020070
:103B8000D2B2D209D2B289180200D2B25208D2B24D
:103B90008918C90703D50100102048406AE00100D8
:103BA0002020484066E00100C9B20909C9B20200FC
:103BB000D2B29209D2B289180200D2B2D209D2B2DC
:103BC00089180200D2B25208D2B28918C90703D5A7
:103BD0000100402048404DE001000820484049E0F5
:103BE0000100C9B20909C9B20200D2B25209D2B267
:103BF00089180200D2B2D209D2B289180200D2B218
:103C00009208D2B28918C9071CD50100C9B20909A6
:103C1000C9B20200D2B29209D2B289180200D2B25D
:103C2000D209D2B289180200D2B25208D2B289188F
:103C3000C90703D50100802048401BE00100042093
:103C4000484017E00100C9B20909C9B20200D2B266
:103C50009209D2B289180200D2B2D209D2B289181E
:103C60000200D2B25208D2B28918C90702D50100A7
:103C700002204840C0B200BD10B50400210089B246
:103C8000090A0800C0B2FFF746FF0100F020084013
:103C9000210004000800C0B2FFF73DFFC0B20009D8
:103CA0002043C0B210BD80B500F0DEFC72B600F05B
:103CB00009F8FEF733F9FDF7D5F9FDF7A3FA62B677
:103CC00001BDFEE7914800688021890201438F48C9
:103CD00001609020C0050068032188439021C90538
:103CE00008609020C0050068032101439020C005B2
:103CF0000160864800688021890201438348016091
:103D00009020C00500680C2188439021C9050860F7
:103D10009020C0050068042101439020C005016087
:103D20007B48006802218843794908607848006828
:103D300077490860774800680C2188437549086016
:103D40007448006873490860734800680C21884310
:103D500071490860704800686F4908600220C849CE
:103D600008607047694800688021C90201436748BC
:103D700001606A4800686A49014068480160674814
:103D800000688021C90101436448016065480068FA
:103D9000802188436349086062480068614908607F
:103DA000614800685E4901405F4801605E48006804
:103DB0005D490860B348006859490140B148016055
:103DC000B0480068AF490860704700B54F480068C8
:103DD0008021C90301434D480160AB480068504948
:103DE0000140A9480160A84800688021C901014339
:103DF000A5480160A548006880218843A349086060
:103E0000A2480068A1490860A148006844490140EF
:103E10009F4801609E4800689D4908609D48006871
:103E20003F4901409B4801609A48006899490860F1
:103E300099480078022867DB344800688021C9036C
:103E400001433248016090480068944901408E481F
:103E500001608D4800688021490101438A48016062
:103E60008A4800684021884388490860874800687C
:103E70008649086086480068884901408448016096
:103E8000834800688249086082480068834901408D
:103E9000804801607F4800687E4908607E4800785D
:103EA000032831DB194800688021C9020143174803
:103EB00001601A480068B04901401848016017487D
:103EC00000688021490501431448016015480068D5
:103ED000AA4901401348016012480068114908606E
:103EE00011480068A44901400F4801600E4800686D
:103EF0000D490860A24800689F490140A048016040
:103F00009F4800689E49086000BD000014100240F0
:103F100004000048080000480C0000480004004865
:103F2000FF3FFFFF040400480804004800B595481F
:103F300000688021C90201439248016092480068EC
:103F400080008008904908608F4800688021C9057A
:103F500001438D4801608D4800688D4901408B48C0
:103F600001608A480068894908608A4800688000C2
:103F70008008884908608748006886490860414889
:103F80000068800080083F4908603E4800683D495D
:103F9000086080200002804908603F4800780228BD
:103FA0006DDB784800688021C902014375480160D3
:103FB000754800683021884373490860724800687A
:103FC0001021014370480160704800680421884353
:103FD0006E4908606D4800686C4908606D4800686B
:103FE000302188436B4908606A4800686949086065
:103FF000244800683021884322490860214800682D
:104000002049086004206449086023480078032898
:1040100035DB5C4800688021C902014359480160D2
:10402000594800685D49014057480160564800689A
:104030008021C9030143544801605448006858492D
:104040000140524801605148006850490860514899
:104050000068524901404F4801604E4800684D4990
:104060000860084800684D4901400648016005485D
:10407000006804490860802000014749086000BDCD
:10408000280000480C0400480014004804140048AC
:10409000081400480C140048C8000020FFCFFFFFA0
:1040A00000B5384800688021890201433548016025
:1040B0009020C00500683B4901409020C005016088
:1040C0009020C00500689021C90508603648006846
:1040D0003449014034480160334800688021C901F7
:1040E00001433148016031480078022843DB25480C
:1040F0000068802189020143224801609020C005A8
:1041000000682B4901409020C00501609020C00547
:1041100000689021C90508602348006824490140CF
:1041200021480160204800688021C90001431E48E1
:1041300001601E48007803281DDB124800688021BA
:10414000090301430F4801601A4800681A490140F9
:104150001848016017480068164908601748006849
:104160001549014015480160144800688021C904C0
:1041700001431248016000BDFFFFFFCFFFBFFFFFFB
:104180000C040048141002400004004804040048D5
:10419000FF7FFFFF0804004828040048FFFF3FFF9F
:1041A000FFF7FFFFFF3FFFFF0C000048C8000020A3
:1041B000FFF3FFFF00080048FFFFFFF30C08004873
:1041C00010B50400044800F089FA0021017003488A
:1041D00000F084FA046010BD0000002004000020FC
:1041E000F8B52F4E300000F079FA0090301D00F045
:1041F00075FA04003000083000F070FA05000C3643
:10420000300000F06BFA2749274A009B1B78002BEF
:1042100036D1236853435B18236053435B182360F4
:1042200053435B18236053435B18236053435B186D
:10423000236053435B18236053435B18236053434D
:104240005B18236003000826276857437F18276000
:104250001F60276857437F1827605F6027685743B0
:104260007F1827609F60276857437F182760DF60AB
:104270001033761EE8D1C36F2B600123009E33708C
:1042800023685343591821602978C906490E4018FC
:104290000168296021680160286880008008F2BDFB
:1042A000000000205FF36E3C0D66190080B59B484E
:1042B00000688021490101439848016098480068DE
:1042C0008021890201439648016095480068802159
:1042D000C902014392480160914800688021C902E7
:1042E00001438F4801608E4800688021C902014364
:1042F0008B4801609020C0050068800080089021F4
:10430000C90508609020C00500688021C9050143E7
:104310009020C005016083480068834901408148BE
:104320000160804800687F4908608048006880001C
:1043300080087E4908607D4800688021C9050143E6
:104340007A4801607A4800688000800878490860EF
:1043500077480068764908607648006876490140E9
:1043600074480160734800687249086073480068C7
:10437000C02188437149086070480068802101436A
:104380006E4801606E480068082188436C490860E7
:104390006B4800686A4908606A480068C021884321
:1043A0006849086067480068C021014365480160AA
:1043B00065480068C0218843634908606248006816
:1043C000614908605B4800686049014059480160E4
:1043D0005848006857490860584800685C490140DF
:1043E000564801605548006880210901014353483F
:1043F00001605348006820218843514908605048B3
:1044000000684F4908604F480068514901404D48D5
:1044100001604C480068C02109010143494801601E
:10442000494800684A4901404748016046480068D9
:10443000454908603F480068464901403D480160E1
:104440003C4800683B4908603C48006842490140DC
:104450003A480160394800688021890001433748A3
:104460000160394800683C490140374801603648DE
:1044700000683549086000203849086037480068FE
:10448000364908603548006810210143334801600F
:104490003248006804210143304801602F48006819
:1044A0002E4908602D4800682C49086000202C49DE
:1044B00008602B48006880214901014328480160B9
:1044C00027480068E021C9000143254801602348CE
:1044D0000068802189000143204801601F4800686E
:1044E0008021490001431D4801601C4800684021AB
:1044F00001431A480160FF2000F001F801BD00B53A
:10450000184909688907FBD51749087015480068DC
:10451000C007FBD51448007800BD00001810024009
:104520001410024004000048FF7FFFFF080000480D
:104530000C00004820040048FF0FFFFF0004004863
:1045400004040048080400480C040048FFFF0FFF63
:10455000FFF3FFFFFFFFF0FFFFFCFFFF0030014014
:1045600004300140083001400C30014080B5334830
:1045700000688021C902014330480160304800686A
:10458000304901402E4801602D4800682C490860E0
:104590002D4800682B4901402B4801602A480068DB
:1045A0008021490101432848016028480068012111
:1045B00001432648016026480068264901402448F6
:1045C00001602348006880214900014320480160C0
:1045D00021480068402101431F4801601F480068CE
:1045E0001E49086007206946087001206946487026
:1045F0000120694688706846FEF7CCFE18480068BE
:1046000040210143164801600620694608700120D8
:10461000694648700120694688706846FEF7BAFE10
:104620000F480068082101430D4801600D480068EB
:10463000082101430B48016001BD00001410024035
:1046400000040048FFCFFFFF0C0400481810024090
:104650000C000140FFF0FFFF0C0401400804014082
:10466000000401400404014000B5194800681849DD
:10467000086000201749086015480068A0218903D8
:1046800001431348016012480068022101431048A9
:1046900001600F4800680E4908600D4800680C4929
:1046A00008600D480068012101430B4801600A4879
:1046B00000688007FBD50848006880214904014351
:1046C00005480160044800688001FBD500BD00007A
:1046D000041002402C100240001002407047FEE718
:1046E000704700B5FEE77047704780B548480068DE
:1046F000C00315D54648006846480068401C454937
:104700000860FDF73AFC43480068FA218900FDF78C
:104710000EF8002904D140480068401C3E4908605A
:1047200001BD704770477047704780B53B480068CF
:10473000000714D539480068082101433748016053
:104740003748006808218843354908603548FEF736
:10475000E0F833480068082101433148016001BD99
:1047600000B52E48006840060BD52F480068082188
:1047700001432D4801602948006840210143274832
:10478000016000BD80B529480068000705D52848AC
:10479000006808210143264801602448006880061B
:1047A00005D5244924480088C0B2FCF7FBFD1F480A
:1047B0000068400608D521480068000604D5204856
:1047C000FCF750FF1F49088001BD80B51E480068F6
:1047D000000705D51D480068082101431B480160FA
:1047E00019480068800605D519491A480088C0B2E2
:1047F000FCF754FE14480068400608D516480068C7
:10480000000604D51548FCF746FF1549088001BD90
:1048100010E000E0140E0020180E002014040140E7
:1048200004040140E4050020100401401C44004041
:1048300020440040F40A002024440040004400408A
:10484000F80B0020284400401C380140203801406B
:10485000EC0800202438014000380140F009002015
:10486000283801407047FEE7637C777BF26B6FC5A9
:104870003001672BFED7AB76CA82C97DFA5947F063
:10488000ADD4A2AF9CA472C0B7FD9326363FF7CC3F
:1048900034A5E5F171D8311504C723C31896059ADC
:1048A000071280E2EB27B27509832C1A1B6E5AA0FF
:1048B000523BD6B329E32F8453D100ED20FCB15BEA
:1048C0006ACBBE394A4C58CFD0EFAAFB434D338553
:1048D00045F9027F503C9FA851A3408F929D38F527
:1048E000BCB6DA2110FFF3D2CD0C13EC5F9744175E
:1048F000C4A77E3D645D197360814FDC222A9088D5
:1049000046EEB814DE5E0BDBE0323A0A4906245C60
:10491000C2D3AC629195E479E7C8376D8DD54EA9C5
:104920006C56F4EA657AAE08BA78252E1CA6B4C691
:10493000E8DD741F4BBD8B8A703EB5664803F60EEA
:10494000613557B986C11D9EE1F8981169D98E94D9
:104950009B1E87E9CE5528DF8CA1890DBFE64268F2
:1049600041992D0FB054BB1652096AD53036A5387F
:10497000BF40A39E81F3D7FB7CE339829B2FFF8747
:10498000348E4344C4DEE9CB547B9432A6C2233D2B
:10499000EE4C950B42FAC34E082EA16628D924B2DC
:1049A000765BA2496D8BD12572F8F66486689816FD
:1049B000D4A45CCC5D65B6926C704850FDEDB9DA5C
:1049C0005E154657A78D9D8490D8AB008CBCD30A4A
:1049D000F7E45805B8B34506D02C1E8FCA3F0F0226
:1049E000C1AFBD0301138A6B3A9111414F67DCEAF5
:1049F00097F2CFCEF0B4E67396AC7422E7AD35856E
:104A0000E2F937E81C75DF6E47F11A711D29C58977
:104A10006FB7620EAA18BE1BFC563E4BC6D2792059
:104A20009ADBC0FE78CD5AF41FDDA8338807C73162
:104A3000B11210592780EC5F60517FA919B54A0D5A
:104A40002DE57A9F93C99CEFA0E03B4DAE2AF5B0CF
:104A5000C8EBBB3C83539961172B047EBA77D626EB
:104A6000E169146355210C7D194800680121014357
:104A70001748016017480068174901401548016050
:104A8000134800681549014011480160104800684A
:104A9000134901400E4801600E4800681149014069
:104AA0000C480160104800680F2188430E490860D7
:104AB0000E4800680E4901400C4801600D4800682E
:104AC000012188430B49086000200B4908607047AA
:104AD00000100240041002400CB8FF08FFFFF6FE71
:104AE000FFFFFBFFFFFFC0FF2C1002403010024011
:104AF000ECFEFFFF341002400810024002040608DA
:104B00000A0C0E10121416181A1C1E202224262815
:104B10002A2C2E3000323436383A3C3E4058585811
:104B2000585858030507090B0D0F11131517191BBA
:104B30001D1F21232527292B2D2F313335370139EF
:104B40003B3D3F411842002701280229032A042B3C
:104B5000052C062D072E082F09300A310B320C3395
:104B60000D340E350F36103711381239133A143B05
:104B7000153C163D173E193F1A401B411C431D446E
:104B80001E451F462047000030B401210268001D69
:104B9000002A0FD00368C318446808300C4202D0C2
:104BA0004D466D1E64191D6825601B1D241D121FB6
:104BB000ECD0F8E730BC704710B50749794418319C
:104BC000064C7C44163404E0081D0A68891888479E
:104BD0000100A142F8D110BD08000000280000002B
:104BE0007BBFFFFF680D0000CC000020000000002C
:104BF00099FFFFFFCC0000006402000000000020CD
:104C000000000000000001CC01D8001401F0003CBD
:104C1000002801E401A0006C007801B40050019C60
:104C20000188004400F00BF8002801D0FFF7C4FF12
:104C30000020C046C046FDF7BFFD00F002F801208D
:104C4000704780B500F002F801BDFEE70746384620
:104C500000F002F8FBE7FEE780B5C046C046024A16
:104C600011001820ABBEFBE7260002000000000088
:104C7000000000000000000000083399A4D9B2E849
:104C8000347FBEF714FA7432A357C6AD11200C005E
:104C90000300070C350009C9C380000511200C185A
:104CA000010008038000202000E8005E11200C2491
:104CB00005761A05720200000012815E11210C00B7
:104CC000A28126AF3FEEC8C7DBF2020811210C0C0F
:104CD000070315FC0F00A28126AF3FEE11210C182F
:104CE000C8C7DBF20208070315FC0F0011500C0CBB
:104CF000FFFFFFFFFFFFFFFFFFFFFFFF11500C183B
:104D0000FFFFFFFFFFFFFFFFFFFFFFFF11500C241E
:104D1000FFFFFFFFFFFFFFFFFFFFFFFF11500C3002
:104D2000FFFFFFFFFFFFFFFFFFFFFFFF014880477F
:104D300001480047694A0008854D00081110050028
:104D4000640A000A1200000011400800400AAAAAE2
:104D5000369D20FE112005450300DE010000000005
:104D60001120055B40040678200000001123070095
:104D70002C0E0B040C7303001150063CFFFFFFFFC9
:104D8000FFFF0000C046C046C046C046FFF74AFFCE
:104D90001100020052000000110001036000000039
:104DA00011010300033B0900110204000305000A7E
:104DB000111103000198F300111201068100000097
:104DC0001120030A000676001120034C3100200058
:104DD000112203017F001D001120033001CDA0002E
:104DE00011200135E00000001120033811151500D5
:104DF000112004402A0CA42211200250840A000031
:104E00001120025403070000112001570000000088
:104E1000111203080A0100001112020B30300000C9
:104E20001120014A3F00000011120100040000009F
:104E3000020101030E090D0BFFFFFF00000001003E
:104E4000FFFFFB0000002100FEE7FEE7FEE7FEE7B4
:104E5000FEE7FEE7FEE7FEE7FEE7000000000000D9
:104E60000100000000000000000000000000000041
:104E70000000000000000000000000000000000032
:104E80000000000000000000000000000000000022
:104E90000000000000000000000000000000000012
:104EA0000000000000000000000000000000000002
:104EB00000000000000000000000000000000000F2
:104EC00000000000000000000000000000000000E2
:104ED00000000000000000000000000000000000D2
:104EE000000000000000000011500C00100304043A
:104EF00004FFFFFFFFFFFFFF1112040D000106A2D8
:104F00001112041101000222111204210001068273
:104F1000111204250100020A130021000000000004
:084F2000020000000101010183
:0400000508004D851D
:00000001FF
