:020000040800F2
:10000000901500207D6200083D5C00083F5C000800
:1000100000000000000000000000000000000000E0
:10002000000000000000000000000000435C000829
:100030000000000000000000455C0008475C00086C
:100040008F100008000000003F2500081B2F00084B
:10005000734000085F5C0008615C0008635C000896
:1000600000000000555D00084B4500081F4A0008CD
:10007000DF4D0008575D00084B62000800000000DB
:10008000576200085D5C000800000000A9620008DB
:10009000595C0008AB6200085B5C0008AD620008B8
:1000A000AF620008B1620008B3620008815C00081A
:1000B000D35C000800000000F8B58EB004000D000D
:1000C0001498002802D000201499086002A80CC0DF
:1000D00002A803C89EA20CCA02400B4001D1002A0C
:1000E00013D00020994922002B0000F0A1FD0CD074
:1000F000954900F09DFD0BD102A803C808004100FE
:100100004915491C04D1000302D100208F4937E36F
:1001100068004015401C0DD08DA003C82040294028
:1001200001D1002806D002A803C848004015401C91
:1001300000D0F1E069004915491C04D1280302D020
:10014000200029001CE302A803C80800410049154B
:10015000491C04D1000302D002A803C810E3012601
:1001600002A803C848004015401C00D184E002A842
:1001700003C80B0002185B4104D1002A02D102A877
:1001800003C817E0AB4F5A0DBA1A352A05DB0B002E
:1001900000208021090619400CE0202A03DD203AC6
:1001A000D140914000E001D1002003E0002A01DDB0
:1001B000D04090406A4603C202A803C8002907DA6B
:1001C000002280231B06121A8B4104A80CC001E0F8
:1001D00004AA03C2684603C8002906DA0022802365
:1001E0001B06121A8B411000190004AA0CCA8B427C
:1001F00001D1824200D00026684603C80B000218D5
:100200005B4104D1002A02D1684603C817E0844F3D
:100210005A0DBA1A352A05DB0B0000208021090689
:1002200019400CE0202A03DD203AD140914000E043
:1002300001D1002003E0002A01DDD0409040002ED3
:100240001AD06A460CCA002B06DA002680273F0621
:10025000B61A9F4132003B00002906DA00268027AB
:100260003F06361A8F41300039008B4203D182425B
:1002700001D1002600E0012669004915491C08D17A
:10028000280306D1EC0F02A803C814D1C80F41D02F
:1002900033E002A803C8080041004915491C13D1E6
:1002A000000311D12AA6C0CE2F40802149038F42DE
:1002B00016D2002218E0C80F02D1002E2AD026E064
:1002C000002E1AD0002008E0002E19D1002402A828
:1002D00003C8C80F18D1002C14D0802109064FE2A2
:1002E0003E0D50A003C8821902A803C8C80F02D14E
:1002F000002A0FDC06E0002A0BDD002000213FE28F
:10030000EC0FE4E700213BE2002C02D0002047493B
:1003100036E20020464933E202A803C80B00021867
:100320005B4104D1002A02D102A803C821E0414E5A
:100330005A0DB61A352E0FDB002280231B060B4008
:1003400004A80CC017E000BF0000F0BF0000F03FA1
:10035000FFFFFFFFFFFFFF7F202E03DD203EF14068
:10036000B14000E001D1002003E0002E01DDF040AB
:10037000B04004AA03C2E80F1FD002A803C8002996
:1003800005DA002280231B06121A8B4101E00200CD
:100390000B0004A803C8002906DA002680273F06C0
:1003A000361A8F41300039008B4201D1824204D08D
:1003B00000BF00BFBEA003C8E2E120002900BCA42A
:1003C00030CC0D40002280235B039D4203D200927B
:1003D00000244D400CE02C0DB74A0023DB431219DA
:1003E00000921A46B14B02400B40AF4D14001D4322
:1003F000E80F4AD06D006D0804A80CC819009018C9
:10040000494101D1002824D0054E480D361A352E19
:1004100012DB80210906194000220B0019E000BF01
:100420003404000002FCFFFFFFFFFFFF0000F0FFAD
:100430000000F07F33040000202E03DD203EF34057
:10044000B34000E001D1002203E0002E01DDF240C4
:10045000B24004A803C8002905DA002680273F0619
:10046000361A8F4101E006000F00002B06DA00204B
:1004700080210906801A994102000B009F4203D196
:10048000964201D1002000E001200490009801284C
:100490002AD120002900D1A20CCA00F0DBFB23D214
:1004A00000200190D24906AA03C269004A0D511CDE
:1004B000002A12D0002910DDC24A914207DB100544
:1004C0002900802212061140014300240AE0774AE5
:1004D0002A4008051043050023E029008022120667
:1004E000114000240D001CE00020A64922002B0032
:1004F00000F0C9FB00226C4B00F087FC00F09EFD71
:100500002038019000F0D4FD00229F4B00F0BBFB8F
:100510000022654B00F079FC06AA03C20198400155
:1005200001902000290006AA0CCA00F0D1FC0600A8
:100530000F0006A803C822002B0000F066FC020092
:100540000B003000390000F0BDFD08AA03C208A866
:100550000CC808A803C800F096FB06000F00200096
:10056000290006AA0CCA00F0B3FC0AAA03C287A09D
:1005700003C832003B0000F086FB86A20CCA00F0E4
:1005800044FC32003B0000F07EFB84A20CCA00F069
:100590003CFC32003B0000F076FB82A20CCA00F06B
:1005A00034FC32003B0000F06EFB80A20CCA00F06D
:1005B0002CFC32003B0000F066FB7EA20CCA00F06F
:1005C00024FC32003B0000F05EFB7CA20CCA00F071
:1005D0001CFC0CAA03C20020854906AA0CCA00F024
:1005E00077FC4B005C0D631C002C12D0002B10DD3F
:1005F000744CA34206DB230508008021090608404D
:1006000018430AE0294C0C401A0522430400150047
:1006100005E00800802109060840002405000CA818
:1006200003C832003B0000F02EFB0AAA0CCA00F0FF
:100630004FFC22002B0000F0E8FB08AA0CCA00F0D7
:1006400022FB02000B0000BF71A0019945180AA807
:1006500003C800F0DAFB06AA03C2009800F028FDE8
:100660000CCD083D00F0D1FB06000F0006A80CC819
:1006700055A003C800F007FB32003B0000F0C5FBAB
:1006800002AA0CCA00F0FFFA0022514B00F0E2FA75
:1006900073D301224F4B00F076FD65D9CA0F0DD000
:1006A00000224D4B0BE000BF0000E03FFFFF0F803A
:1006B000FFFFFFFFFFFFFF7F02FCFFFF494B00F042
:1006C000A4FB00F0BBFC040002A803C832003B00FE
:1006D00000F0D9FA06000F00200000F0E9FC02004B
:1006E0000B003000390000F0F3FB3FA20CCA00F011
:1006F000CAFA0090019106A80CC802A803C800F02D
:10070000C2FA06000F002800083003C82A00103281
:100710000CCA00F07AFB02000B0002A803C800F02C
:10072000B2FA31A20CCA00F0AEFA32003B0000F07F
:100730006CFB009A019B00F068FB149A002A01D020
:100740001460002400940022294B00F035FD29A2FA
:100750000CCA02400B4001D1002A0ED04B005B15A1
:100760005B1C03D10A0301D100202449049A002A0A
:1007700006D080221206514002E000200021F5E759
:100780000FB0F0BD000050400000903FF7DE29BFE1
:10079000D8F8C23FF4B3FECC1A99C33F62CB68D9F4
:1007A0006F46C73FC6C912DAC471CC3F4AE98A9482
:1007B0002449D23FF75F97999999D93FBC55555530
:1007C0005555E53FFF070000FE822B654715F73FB3
:1007D0000000E0C00000E0400000E0BFCD3B7F66CD
:1007E0009EA0E63F0000E03FEF39FAFE422EE63FD2
:1007F0000000F03FFFFFFFFFFFFFFF7F0000F07FE3
:100800001CB500240094FFF757FC1CBD000000003D
:10081000000000000000F0BF0000000000000080A9
:100820000000000000000080000000000000000048
:10083000000000C05294EEBF00000048204E51BEA0
:10084000000000F86467BCBC00000000000000006D
:10085000000000208133EDBF00000080B3DB14BE38
:10086000000000506706A3BC00000000000000006C
:10087000000000D0E9DCEBBF00000008C39259BEC5
:1008800000000080B0D3B8BC0000000000000000F1
:1008900000000070F98FEABF000000C0A51028BE5C
:1008A000000000E8BFC0B0BC000000000000000075
:1008B00000000070284CE9BF00000060134B42BEEE
:1008C000000000C03D20B8BC000000000000000097
:1008D00000000050FA10E8BF000000C05FF62BBE19
:1008E000000000905C71A7BC000000000000000048
:1008F00000000020FCDDE6BF000000C0F8F154BE9F
:1009000000000018E9F6B9BC00000000000000007B
:10091000000000D0C3B2E5BF00000070E43254BE56
:1009200000000050DB06B4BC000000000000000026
:1009300000000010EF8EE4BF00000020F36252BE02
:10094000000000C02A879ABC0000000000000000E0
:10095000000000B02272E3BF000000F0E8E056BEE5
:1009600000000028352DBDBC000000000000000084
:10097000000000000A5CE2BF000000B0FA8E41BE39
:1009800000000040AE6FBDBC000000000000000091
:1009900000000000564CE1BF000000F015CD5FBE26
:1009A00000000000141C90BC0000000000000000CB
:1009B00000000040BD42E0BF00000030F93457BEE7
:1009C000000000E06C1E93BC00000000000000006E
:1009D000000000E0F57DDEBF000000B08A535EBE7F
:1009E00000000080DA77AABC0000000000000000D0
:1009F000000000C09D81DCBF00000000FFA226BEF9
:100A00000000006057E2B0BC0000000000000000E1
:100A100000000060F98FDABF000000580A8151BE63
:100A2000000000F05F60B8BC0000000000000000A3
:100A30000000000098A8D8BF000000607A7F45BE83
:100A4000000000D05433A3BC0000000000000000F0
:100A5000000000600FCBD6BF000000D091CB40BE9D
:100A6000000000406D1BA0BC000000000000000062
:100A7000000000A0FBF6D4BF00000098C5CE52BE17
:100A8000000000003A397EBC0000000000000000B9
:100A9000000000E0FE2BD3BF0000004073872BBE98
:100AA00000000000926879BC000000000000000017
:100AB00000000040C069D1BF00000058F16353BE80
:100AC00000000080438D7CBC00000000000000009E
:100AD00000000080D85FCFBF000000181F8354BE05
:100AE000000000B03F42A2BC000000000000000077
:100AF0000000008067FCCBBF00000060FAFF53BE1F
:100B000000000050E00DB8BC000000000000000034
:100B10000000000098A8C8BF000000607A7F35BEC2
:100B2000000000C0543393BC00000000000000002F
:100B300000000000DC63C5BF00000058D6FF54BEB3
:100B400000000000396490BC0000000000000000BC
:100B5000000000C0AD2DC2BF00000080A45915BE2A
:100B6000000000E0484BABBC0000000000000000AB
:100B7000000000801A0BBEBF00000050BF3C5ABEF0
:100B8000000000A0B364B6BC00000000000000003C
:100B90000000008004D6B7BF00000040BBCF36BEC7
:100BA0000000008076CEA8BC00000000000000001D
:100BB0000000008032BBB1BF000000402A0043BEED
:100BC00000000028C60CBDBC0000000000000000B2
:100BD000000000009473A7BF000000182B3B59BE13
:100BE000000000C0E55DA5BC0000000000000000A2
:100BF00000000000EE4397BF000000A0E6C340BE27
:100C000000000020958DB5BC000000000000000031
:100C100000000000000000800000000000000080D4
:100C20000000000000000080000000000000000044
:100C300090420ED1A4460C001C430128644107D009
:100C4000994205D14C006415641C644000D30C0328
:100C50006446704730B4012464054D00EC420BD863
:100C60005D00EC4208D80C001C43640004431443AC
:100C700004D2994200D1904230BC7047FCD08B42E4
:100C8000FAD18242F8E7F0B50E005E400125ED078B
:100C90002E40B446AE0ADF184C18F44208D2F74290
:100CA0000ED2640D01D07F0D12D100206146F0BD3F
:100CB00005D1F74201D87F0D05D10020C143F0BD19
:100CC000FBD1640DF9D00020C143490549088FE0EC
:100CD000E419C902DB0229432B43DB0A460DC0029B
:100CE00031438E4630B487B295B27D432E0CADB2FF
:100CF000140C7C43A419260C240425439CB27C4389
:100D0000A419190C7943270CC919A4B20F043C4348
:100D1000090C000C97B247432E0CBE193543ADB2F7
:100D2000170C4743360CBF19A6B2BF193E04354312
:100D3000240C3E0C36199FB24743BF19BCB23E0C7F
:100D400089191F0C47437F183E043443390C704601
:100D500080B297B247432E0CBE193543ADB2170C83
:100D60004743360CBF19A6B2BF193E043543240CC5
:100D70003E0C36199FB24743BF19BCB23E0C8919CD
:100D80001F0C47437F183E043443390C77463F0C11
:100D900090B278432E0C80190604ADB22E43050C98
:100DA000A0B22D18120C7A435019020C80B2240CF8
:100DB000A4189AB27A43121914042043120C891809
:100DC0001B0C7B43C91830BCEF0A394203D1B6195A
:100DD00040414941641E6F12BF0DE41B0BDBFF193C
:100DE000BC4211DA240500274208AE417841614136
:100DF00066463143F0BD641C05D1401C6141CF0201
:100E000001D34908F4E750E75DE7F0B40125ED07A9
:100E10000F005F404FD48B4200D1824205D98446F7
:100E2000100062468C4619006346DF184C18640DAA
:100E30007F0D3AD0661C760537D0E61B352E34DCA4
:100E4000DB022B43DB0A0C0DC9022943C912202EF9
:100E50000DDB1700203E06D01F00F741F3405F4036
:100E60000026012A7741C01871410DD217E0170002
:100E7000F741F2405740F3415A40B340F3405A40E3
:100E80000026801859410AD3A21C52050FD0C20770
:100E9000012F724117004008CB0718434908641C12
:100EA00024054208AF4170416141F0BC7047641CA9
:100EB00021050020F9E76B4010E06B40ABE7F742FB
:100EC000F3D1E943F1E72442EFD100200021ECE720
:100ED000F0B40125ED070F005F40EED40C00871A37
:100EE0009C4105D2C01BA141D219634169406B40AE
:100EF000AE0ADF184C18F442E1D2640D7F0DE2D047
:100F0000E61B362ED1DCDB022B43DB0AA4460C0D9C
:100F1000C9022943C90A012E28DC04D1D607520888
:100F2000DF073A435B08EF0A76429041994114D0BB
:100F300039423BD1B61940414941761C394204D16E
:100F4000761C001849413942FAD0B9436746B74286
:100F500008D9A41B24052143A7E70042EAD1364261
:100F6000E8D1A2E7E40AE10700209EE7202E0BDD8E
:100F7000203E1F00F340F7415F40012A0022574105
:100F80007E42984191410BE01700F741F2405740F3
:100F9000F3415A40B340F3405A407E429041994158
:100FA0000A0303D2641EB619404149410027641E5A
:100FB00024054208AE4178416141F0BC7047F1B46C
:100FC0000168421841684808131800988068C907EA
:100FD0001ED5494640181BE01778521C0770401C6C
:100FE000761EF9D1002C13D01678521C89080D40BA
:100FF000032D01D11578521C290271184D42411957
:10100000A41C05D00D78491C0570401C641EF9D144
:101010009A420FD01178521C032503260E4002D1AC
:101020001678F61C521C0C090F2CD9D114780F34E9
:10103000521CD5E700980C30F2BC7047F4464A18B1
:1010400005D200F00FF801D580174008604700F086
:1010500009F80121C907884200D9080040426047C9
:101060004A1812D2400DC90208430121C90708439A
:10107000520D40210901521A521C06D452421F320D
:1010800001D4D0407047C017704700207047FEE77A
:10109000010042221201D21E004207D002D4521E89
:1010A0000018FCD5C10A40051205891870470000D8
:1010B0000100EED54042F446FFF7EBFF0122D207D4
:1010C00011436047F0B40E005E400125ED072E404D
:1010D000B446AE0ADF184C18F4423BD2F74241D274
:1010E000640D43D07F0D38D0E41BC902DB022943D5
:1010F0002B43CF0ADB0A0600B61A9F4104D2641EB6
:10110000B6197F41B6185F416812800D2418001887
:10111000844222DAE80C0021B6197F41B61A9F41B9
:1011200002D2B6185F413F1C40414941F4D3241C10
:1011300021DD2405B6197F41B61A9F4105D33743F7
:10114000C60737430026012F70416141664631438F
:10115000F0BC7047FCD1F74205D20020C1434905DD
:101160004908F3E704D00020C143F1E77F0DFAD02E
:1011700000206146ECE72442FAD1401C61410F0394
:10118000F6D30020E2E730B4012464054D00EC42C0
:101190000BD85D00EC4208D80C001C4364000443EB
:1011A000144304D28B4200D1824230BC7047FCD041
:1011B0009942FAD19042F8E7F0B585B006000F00E9
:1011C00014001D0078004015401C1DD08DA003C8E0
:1011D0003040394001D1002816D068004015401C2D
:1011E00012D088A003C82040294001D100280BD08C
:1011F0003000390000297BDA002280231B06121AF6
:101200008B4168460CC075E079004915491C02D134
:10121000380300D079E169004915491C01D1280340
:1012200040D178A003C82040294008D1002806D129
:1012300079004915491C35D1380333D10BE06900D9
:101240004915491C0CD128030AD179004915491CBC
:1012500028D1380326D100BF00BF6AA003C856E1D9
:1012600068A003C8304039401FD100281DD1690053
:101270004A0D0A995118002A22D12900802212060B
:10128000114000240D005FA003C82040294001D177
:10129000002805D069004915491C03D1280301D154
:1012A00000BF00BF2000290031E179004915491C29
:1012B00018D1380316D130003900FFF7E4FC26E1DD
:1012C0000029DADDA94A914206DB100529008022B7
:1012D000120611400143D4E7A54A2A4008051043ED
:1012E0000500D0E700202A00802109060A403CE0E2
:1012F0006A4603C20022894B002B04DA80210906CA
:10130000901A99410B00684603C89942104604DAC6
:101310002A00802109060A4027E08149002906DACF
:1013200080231B06121A8B4168460CC001E06A46F6
:1013300003C232003B00002B06DA002080210906A0
:10134000801A994102000B00684603C899420EDCDE
:1013500001DB90420BD200BF00BF724908002A0097
:10136000802109060A40024300201100CFE06EA050
:1013700003C832003B00FFF786FC02AA03C279498A
:10138000080002A90CC90092019343005B0802A85F
:1013900003C80A008020000602401A430020110002
:1013A000009A019BFFF731FDFFF748FE0490FFF71D
:1013B0007FFE02AA03C202A80CC85DA003C8FFF703
:1013C00062FC02000B0030003900FFF781FD0600CF
:1013D0000F0002A80CC858A003C8FFF754FC020075
:1013E0000B0030003900FFF773FD06000F00790095
:1013F00049080022524BFFF72DFC07D2200029009C
:1014000053E000BFFFFFFFFFFFFFFF7F32003B0005
:101410003900FFF738FC6A4603C268460CC849A089
:1014200003C8FFF730FC49A20CCAFFF7EEFC6A467E
:101430000CCAFFF728FC02AA03C268460CC845A0E4
:1014400003C8FFF720FC45A20CCAFFF7DEFC6A4682
:101450000CCAFFF718FC0022424BFFF7D6FC320003
:101460003B00FFF710FC06000F0002A803C8320083
:101470003B00FFF7CAFC00223B4BFFF7C6FC009085
:10148000019102A803C832003B00FFF721FD0022B2
:10149000354BFFF7BAFC02000B0000980199FFF7EB
:1014A00011FE22002B00FFF7EEFB4B005C0D049BAE
:1014B000E3180A9D5B19002C12D0002B10DD2B4C79
:1014C000A34206DB230508008021090608401843D3
:1014D0000AE0274C0C401A0522430600170005E0DD
:1014E00008008021090608400026070009A003C85B
:1014F0003040394001D1002805D079004915491CF8
:1015000003D1380301D100BF00BF3000390005B05E
:10151000F0BD00BFFFFFFFFFFFFFFF7F00C89CC0C3
:1015200000C89C400000F07FFE822B654715F73F06
:10153000000000F8422EE63FF2E4D5BCE7E84B3E5F
:101540000000903C112E5781A03F503F5843128C11
:101550008F71BC3F4BE8A541B752013F0BBDF3DA99
:10156000E8708C3F0000E03F0000F03FFF07000004
:10157000FFFF0F808A49C0B202225043081870470B
:101580008848704710B50400FFF7FAFFC0780440A0
:101590002000C0B210BD10B50C00C0B2022804D0AB
:1015A00015D304280DD006D311E0FFF7E9FFC17869
:1015B0004C40C4700BE0FFF7E3FFC1780C43C470EC
:1015C00005E0FFF7DDFFC178A143C170FFE710BD63
:1015D00010B50C00C0B2002802D0012806D00BE0E4
:1015E000FFF7CEFF01780C43047005E0FFF7C8FF5A
:1015F0000178A1430170FFE710BD10B50400FFF7AB
:10160000BFFF807804402000C0B210BD10B50C00B0
:10161000C0B2052802D0062806D00BE0FFF7B0FFC5
:1016200081780C43847005E0FFF7AAFF8178A1431D
:101630008170FFE710BD10B50400FFF7A1FF4078EF
:1016400004402000C0B210BD10B50C00C0B2072885
:1016500002D0082806D00BE0FFF792FF41780C4338
:10166000447005E0FFF78CFF4178A1434170FFE72C
:1016700010BD10B50C00C0B2092802D00A2806D04F
:101680000BE0FFF77DFF017A0C43047205E0FFF7E2
:1016900077FF017AA1430172FFE710BD10B5040086
:1016A000FFF76EFF007A04402000C0B210BD38B5CD
:1016B000012420003C48006880210840C009010046
:1016C000C9B2002927D0394902000B78D2B29A4218
:1016D0000ED0374A13885B1C13801388152B05D353
:1016E00000231C001480334A13700870002032BDA0
:1016F0000120FFF782FF002809D02F480188491CEC
:10170000018000882D49884201D32D4804700020B3
:1017100027490880EAE7254902000B78D2B29A42AD
:101720000BD0234A13885B1C13801388152BDDD341
:101730000023138008700120D9E71E49087800288B
:10174000D4D11B480288521C028002881B4B9A424B
:10175000CCD30C701B49018000242000164908805E
:101760000120FFF74AFF002817D01548017800290B
:1017700005D0047010210520FFF748FF0BE000F0B2
:10178000D9FA851C08212200280000F0AFFE1021A4
:101790000520FFF73BFF0320A9E70220A7E7000091
:1017A0006C620008540D0020100000480C0200205C
:1017B0006A0D00207A0D00206C0D002072020000DE
:1017C0007B0D002071020000F8B505000E0004201A
:1017D000FFF7D0FE022422006F1C0100380000F049
:1017E000AFFE1120FFF727FF002803D02878012142
:1017F000014329700120FFF7C5FE002803D030788F
:1018000001210143317000F0B2FE022810DB2220DA
:10181000FFF711FF002803D0287821000143297029
:101820000220FFF7AFFE002802D030780443347066
:1018300000F09DFE032811DB4420FFF7FCFE00288A
:1018400003D028780421014329700420FFF79AFE71
:10185000002803D03078042101433170F1BD7FB5F9
:10186000050001A8002101600026340002A8002123
:1018700001600120FFF712FF01282FD101A8C11C30
:1018800001A8FFF7A1FF00F0E7FE411C280001F0CE
:1018900089FA03220121280001F08BFA002201219C
:1018A000280001F086FA0123042201A9280001F092
:1018B000C3FA01000A39C9B2280001F0BBFA2800B6
:1018C00001F048FA0400FF210820FFF7BDFEFF21C8
:1018D0000A20FFF7CEFE2000C0B263E02020FFF711
:1018E000DDFE20285DD168460670FF210A20FFF743
:1018F000C0FE0021684600F041FA002801D0012016
:1019000050E000F017FA6946097808225143401860
:10191000861C042202A9300001F0EBFA002805D150
:10192000FF210820FFF790FE01203BE00120FFF798
:1019300082FE002808D00120FFF724FE002826D0D0
:1019400020000124044322E000F011FE02280DDBF8
:101950000220FFF770FE002808D00220FFF712FED9
:10196000002814D020000224044310E000F0FFFD02
:1019700003280CDB0420FFF75EFE002807D00420BC
:10198000FFF700FE002802D02000042404432200B8
:10199000D2B22900300000F043FDFF210820FFF7FC
:1019A00053FE002004B070BD3EB5050000202800A5
:1019B000C0B2012826D1FFF77AFE04002000C0B291
:1019C000012814D101A89E490A68026068469D4911
:1019D0000A68026001F0A2FA811D684601F0AFFAC0
:1019E00001F09CFA032201A9801D01F040FBE4B242
:1019F000022C06D12900C9B20520FFF707FE00F02E
:101A000045FC37BDFDE710B504000120FFF746FE99
:101A1000002813D1E088002810D10120FFF7C4FF6F
:101A200000F0A5FD022809DB0220FFF7BDFF00F052
:101A30009EFD032802DB0420FFF7B6FF10BD00B5B2
:101A4000C0B201280CD1C9B2002904D08020000204
:101A50007D49086003E0802000027C490860FFE7C0
:101A600000BD3EB505000C0068460C2100F04EFD9F
:101A70002000C0B2FFF7DFFD00280BD12000C0B26C
:101A800000F088FD102181400800C0B2FFF7D3FDAF
:101A9000002871D02000C0B200F07CFD10218140F0
:101AA0000800C0B2FFF7C7FD002805D000F05CFDBC
:101AB000002801D0012028712100C9B20220FFF7BF
:101AC0006AFD2000C0B2FFF75DFD69460870210085
:101AD000C9B2684600F0F2FC0120E8802000C0B2E4
:101AE000012804D0022819D004282ED044E06846EA
:101AF00001782000C0B2FFF7A2FF01F06DFB0100EA
:101B0000D024A40120000968884701F065FB030088
:101B10000A22694620005B6898472DE068460178F4
:101B20002000C0B2FFF78BFF01F056FB0100E0245C
:101B3000A40120000968884701F04EFB03000A2237
:101B4000694620005B68984716E0684601782000E7
:101B5000C0B2FFF774FF01F03FFB0100F024A401C5
:101B600020000968884701F037FB03000A22694614
:101B700020005B689847FFE737BD10B504000120DF
:101B8000FFF78CFD002813D101212000FFF769FF2A
:101B900000F0EDFC02280BDB02212000FFF761FFC3
:101BA00000F0E5FC032803DB04212000FFF759FFC8
:101BB00010BD80B5C188002907D0C188491CC180EB
:101BC000C1880D2901DB0021C180017900290FD0D6
:101BD0000179491C017101797E2909DB002101711C
:101BE00000F0C2FC002803D001210920FFF741FDCD
:101BF00001BD10B504002000FFF705FF2000FFF72E
:101C0000BCFF10BD38B5040080252D020E480560CC
:101C1000200001F015FB0D480560200001F010FBCD
:101C200031BD10B58024240207480460322001F041
:101C300007FB06480460322001F002FB10BD0000E3
:101C4000A0620008A46200081804004828040048A4
:101C500070B504000D0016002000441EC0B200281C
:101C60000FD03000C0B2002803D02800FFF7CAFF11
:101C700001E0FFF7D6FF2000C0B20028ECD1012020
:101C800000E0012070BD80B5002264210420FFF730
:101C9000DFFF0028FFD101BD80B5002264210220B2
:101CA000FFF7D6FF0028FFD101BD38B50122FA2188
:101CB00089000C001500C0B2022101F017FC2A00B7
:101CC0002100C0B2FFF7C4FF0028FFD131BD70B5BD
:101CD00000242000042500E06D1E2900C9B200295F
:101CE00027D0072609E007E00820FFF7DEFFFA20EB
:101CF000800001F0A5FA2000761E3100C9B200294B
:101D0000EAD00100C9B2002903D00229ECD008D3DF
:101D1000E9E7FFF7B8FFFA20800101F091FA01200E
:101D2000EAE7FFF7B9FFFA20800001F089FA022004
:101D3000E2E770BD0E4870470E48007870470D49C5
:101D4000087070470A480078704709490870704762
:101D500009480078704700B5C0B2002803D00120C0
:101D60000549087002E000200349087000BD00002A
:101D7000AC0C0020760D0020770D002010B504007B
:101D80000020C9B2002903D00F20FFF736FC02E083
:101D90000F20FFF750FC0100C9B2002906D1012035
:101DA00009E0C0B240082178491C21700100C9B285
:101DB000C907F6D5002010BD22300178FE220A4066
:101DC00002700178FD220A4002700178FB220A406D
:101DD00002700178F7220A40027000207047F7B5C0
:101DE00000273E00380024E0380015E00098C57850
:101DF00004220199200001F07CF8002818D10098F5
:101E00000078A1790140A079814211D1E079FFF7F2
:101E1000B9FB0028E8D001202900C9B2C0B2814234
:101E200006D0FFF787FF4178E2790A434270657177
:101E3000761C3000C0B200282FD1FFF77BFF3100A5
:101E4000C9B2082251434018841C6846007A002811
:101E5000CCD000980078A179084201D0012500E09B
:101E60003D0004220199200001F043F80028DFD151
:101E7000E079FFF787FB002801D0012000E038005F
:101E80002900C9B2C0B28142D2D0FFF753FF4178D6
:101E9000E2790A4342706571CAE7F7BDF7B50600FB
:101EA0000C00002528006946087001216846FFF7EC
:101EB00065FF002801D0012032E027006846007845
:101EC000082148433018841C387820717878694696
:101ED000097808225143711808720F20FFF78DFB13
:101EE0006946097808225143711848720F20FFF79C
:101EF00084FB717808437070B878002801D0012500
:101F0000FFE7029965710422200000F019FBFFF73A
:101F100037FB0400FFF70EFFE11C00F058F900202A
:101F2000FEBD7CB504000D00280022302978002970
:101F30000AD001294CD0022963D0032900D189E0BD
:101F4000072900D190E0DBE021790A00D2B2812399
:101F50001340812B0CD102780823134303700278BD
:101F6000FD23134003700278FB231340037003E04A
:101F70000278F723134003700A00D2B2120704D587
:101F8000027801231343037003E00278FE23134019
:101F9000037001220378DBB2DB081340DBB2002BB5
:101FA00013D1C9B2C90608D5017804230B430370C5
:101FB0000178FD230B40037007E00178FB230B4001
:101FC0000370017802230B4303702A70012076BD51
:101FD00000780921014000290FD000F0C3FA022245
:101FE000611D113000F085FF002803D02800FFF7A5
:101FF000E3FEECE702202870E8E72800FFF7DCFEAC
:10200000E5E70078C0B240080100C907C90F002900
:102010001DD100F0A9FA00280CD000F0A1FA04228A
:10202000011DE01D00F065FF002810D02800FFF71B
:10203000C3FECCE700F094FA0422011DE01D00F07D
:1020400058FF002803D02800FFF7B6FEBFE70320A3
:102050002870BBE7042221000B31884C200000F0DF
:102060006FFA07202870B1E701210278D2B2520836
:102070000A40D2B2002A1DD0002069460870012112
:102080006846FFF77BFE002803D02800FFF794FE88
:102090009DE7607CA87104227849AE1C300000F0F6
:1020A0004FFAA07C28720F20FFF7A7FA6872092068
:1020B000287024E00278D2B292080A40D2B2002AF4
:1020C0000ED06E4A210011312800FFF7E7FE0028EC
:1020D00003D02800FFF770FE79E70A2028700EE091
:1020E0000078C0B2C0080140C9B2002907D001225F
:1020F000624920001230FFF772FE0A20287065E75F
:102100002800FFF759FE62E77CB50F20FFF775FA4C
:102110000600F020FFF771FA04003000C0B200287A
:1021200037D0574D2888401C288028885549884238
:1021300012D228780521014001291FD1F6B2012EC3
:1021400005D15148016802224A40026016E00F2181
:102150000620FFF75BFA11E028780007000F01283E
:102160000CD1F6B2012E05D14748016802224A403F
:10217000026003E00F210620FFF748FA2888A449EF
:10218000884209DB002028800F210620FFF73EFA55
:1021900002E000203A490880E4B2002C16D06846DC
:1021A00000210160FF210620FFF730FA994904223F
:1021B000684600F09EFE002808D10020FFF7BFFD12
:1021C00000F0CEF90021817200F0D4F973BD7FB523
:1021D00004000D00667868460C2100F097F9300085
:1021E000C0B2002849D0F0072ED5A11C487900289C
:1021F00007D080200002884A1060287806432E709D
:1022000006E080200002854A10602878B0432870DC
:1022100008226846461C300000F092F92878010038
:10222000C907C90F6846017000F0D6FF0100D0252C
:10223000AD0128000968884700F0CEFF03000A229C
:10224000694628005B689847FFF776FD00280BD0A9
:1022500000F086F9807A992809D000F081F9992157
:10226000817200F087F902E00120FFF768FD00208D
:1022700060700F210620FFF7C9F97FBD600D0020B7
:10228000680D00207202000014000048F8B500F04C
:10229000EFF90500002630000F20FFF7AEF9002807
:1022A00044D00224210098222F00380000F01EF9AB
:1022B0008820287100F058F9002809D000F052F960
:1022C0002200010011316C1D200000F039F905E0F9
:1022D000210032006C1D200000F008F904242100C8
:1022E0003200EF1D380000F001F900F039F922004A
:1022F000011D2C000B34200000F022F90F20E873A0
:102300002E7400F02FF9C07C68740F20FFF775F968
:10231000A8741321280000F072FB040001F040F9BA
:102320002300DBB22A000A2101F0ADF9F1BDFEB5B0
:1023300000F09EF905000F20FFF75FF9694648702D
:1023400000263000694608703000324802900121B2
:102350006846FFF713FD002858D102242100982772
:102360003A000195019800F0C1F801982F7100F032
:10237000FBF8002809D000F0F5F822000100113127
:102380006C1D200000F0DCF805E0210032006C1D1F
:10239000200000F0ABF80424220002986946097876
:1023A000082359434118EF1D380000F0C9F800F028
:1023B000D7F82200011D2C000B34200000F0C0F8DB
:1023C0000F20E8732E7400F0CDF8C07C6874684666
:1023D0004078A87468464078FFF7D4F8E874142170
:1023E000280000F00CFB04000120FFF7A8FC0F21DF
:1023F0000620FFF70BF901F0D3F82300DBB22A0027
:102400000A2101F040F9322000F01AFFF7BD000068
:10241000A70E0000AE0C0020180400482804004855
:10242000FEB506000C00150000273800380069468C
:10243000087000216846FFF7A1FC00283DD16846DE
:102440004570250001960224210098222E003000BC
:1024500000F04CF88120287121003A006C1D20000A
:1024600000F044F8042422000199EE1D300000F031
:1024700067F800F075F82200011D2C000B342000D5
:1024800000F05EF80F20E8732F7400F06BF8C07C4A
:10249000687468464078A8741321280000F0AFFAE9
:1024A000060001F07FF8040001F07AF83300DBB297
:1024B0002A002100C9B201F0E6F8F7BD38B50500E1
:1024C0000C00FFF739FC00280DD02000C0B200F04E
:1024D00061F80821484304490818811C08226C1C33
:1024E000200000F02DF831BDAC0C00201206130ABC
:1024F0001A43130C1A4300BF094205D0830707D0C3
:102500000270401C491EF9D1704700000022FFE70D
:102510001300103906D330B41400150010393CC034
:10252000FCD230BC490700D30CC000D504C08900E0
:1025300002D30280801C002900D502707047FEE79C
:10254000814202D25318984203D300B501F050F9EA
:1025500000BD521E03D38B5C8354521EFBD27047C6
:1025600038487047384870473848007870473848CE
:102570000078704780B500F02FFE01000020096848
:10258000884700F029FE030020222E4900205B68C6
:10259000984701BD00B50100002002E0C9B249081A
:1025A000401C0A00D2B2D207F8D5C0B200BD3EB579
:1025B000040068460C21FFF7A9FF2000C0B20128E3
:1025C00031D100F009FE03000A226946D0208001C3
:1025D0009B68984768460078204209D08020000216
:1025E0001C4908602100C9B20320FEF7D4FF04E0B3
:1025F0002100C9B20420FEF7CEFFFFF79DFB0028A3
:1026000010D0FFF797FB05002000C0B2FFF7C2FF14
:10261000082148432818841C08226846411C2000D1
:10262000FFF78EFF37BDFDE780B5FFF799FF001D6F
:1026300000F006FD00F072FC00F04DFD0120FFF7F8
:10264000B6FF01BDD00C0020DC0C0020780D00206E
:10265000790D002018040048004870473409002014
:1026600010B50400FFF7F8FFFF211031445410BDEE
:1026700080B5FFF7F1FF0E3002BD80B5FFF7ECFF2C
:10268000007802BD10B50400FFF7E6FF047010BD2E
:10269000F8B505000E0004242200691D2F0009373B
:1026A0003800FFF74DFF2200691C6F1D3800FFF74F
:1026B00047FF220031000B316C1C2000FFF740FF68
:1026C000F1BDF8B505000E008720400034183078C1
:1026D000002810D0012849D002285ED0032800D15C
:1026E00098E0042800D1B0E0062800D105E10728D1
:1026F00000D132E150E1287901210200D2B20A4032
:10270000002A04D0227810231343237003E0227898
:10271000EF231340237002220300DBB21340002B8F
:1027200003D023781A43227003E02278FD2313405C
:1027300023700200D2B2520704D5227840231343FB
:10274000237003E02278BF23134023708022C0B29D
:102750001040002803D020780243227003E0207844
:102760004006400E207031700120F2BD2078C0B2CA
:1027700000090100C907C90F00290BD0FFF7F2FEBD
:10278000022201001131681D00F0B3FB002801D0C6
:102790000520EAE702203070E6E72078C0B2C009E1
:1027A000C0B200282FD1FFF7DBFE0422011DE81D77
:1027B00000F09FFB002804D1207801210143217003
:1027C00025E02078FE210140217020785021014031
:1027D00010291CD1FFF7B0FA002818D004212800D6
:1027E000123000F069FB012811D0FFF7A3FA042290
:1027F000E91D801C00F07DFB002808D10220882103
:102800004900705403E02078FE210140217003202C
:102810003070A9E72078C0B2C009C0B2002811D139
:1028200020780100C907C90F00290BD00422290014
:102830000B31701C00F05DFB002803D02900300034
:10284000FFF726FF042030708EE7E97B2A7C54488E
:10285000C9B20909017001212378DBB25B080F00BE
:102860001F40FFB2002F06D003781700FFB2BB4213
:1028700001D1072079E70378032B3CDA13000778AE
:10288000DBB2BB4237D31300DBB2002B0FD0217871
:1028900004230B43237021780B00DBB2DB09D2B297
:1028A0000178280001F028F8062030705CE72378D2
:1028B000FB271F40277023781940C9B2002913D184
:1028C000002121780B00DBB2DB09D2B201782800AD
:1028D00001F012F888214900715C002902D007201C
:1028E000307041E7C0B240E72078DF21014021701D
:1028F0000720307038E7072037E70720307020784E
:10290000C0B2C009C0B2002813D1FFF72BFE244982
:1029100009786918897CC07C814204D12078202103
:102920000143217020E72078DF21014021700A2037
:102930001BE7FFF717FE1A4909786918497CC07C24
:10294000814204D12078202101432170EAE72078D8
:10295000DF21014021700A2007E7A8781238297C7E
:10296000401A7073FFF784FE0400727B2900123155
:102970002000FFF7E5FD0A20307088204000305C21
:10298000012801D10220F0E688204000305C0228B6
:1029900001D10320E9E6E7E60920E6E600000000B1
:1029A0007D0D002038B504000D0000202078982807
:1029B00006D16078982803D10120FFF7CCF902E016
:1029C0000020FFF7C8F92900C9B289B2200001F040
:1029D000ABF9010089B2090A89B22A00D2B2A25C1D
:1029E000914201D0012009E080B2C0B2EDB261197C
:1029F0004978884201D0012000E0002032BD38B57E
:102A000004000D000020A5700420E0702900C9B268
:102A100089B2200001F088F9010089B2090A2A0070
:102A2000D2B2A1546D1C2900C9B260546D1C0221A0
:102A300096222800C0B224182000FFF757FDAD1CD5
:102A40002800C0B232BD70B506000124FFF704FEB5
:102A5000872149004518B1783000FFF7A3FF00280F
:102A600045D1FFF775F900281BD02000C0B201281E
:102A70000ED1FFF75FF901003000FFF752FA0400B2
:102A8000FFF760F9092809D0FFF75CF90A28ECD1B3
:102A90000020FFF75AF92000C0B252E0FFF747FCD0
:102AA000F6E72000C0B201280AD1FFF7D5FD0100EA
:102AB0003000FFF706FE0400FFF7DFFD0A28F0D123
:102AC0000020FFF7DFFD2000C0B2012806D0200063
:102AD000C0B2042802D02000C0B232E021262878FB
:102AE000304207D10120FFF7BBFD042029E0002080
:102AF000C0B226E0052029780140C9B2052904D1D9
:102B00000220FFF7ADFD00201BE029780840C0B28D
:102B1000012802D10420FFF7A3FD28780640F6B271
:102B2000202E02D10820FFF79BFD2878412101408B
:102B3000412904D11020FFF793FD012001E020007E
:102B4000C0B270BDF8B504000E000225290069224C
:102B500027003800FFF7CAFC81202071FFF702FD33
:102B60002A0001001131651D2800FFF7E9FCFFF77D
:102B700073FD04252A00411CE71D3800FFF7E0FC27
:102B8000FFF7EEFC2A00011D25000B352800FFF79A
:102B9000D7FC3078E073E07BC0B200092074227C5F
:102BA000521C711C11342000FFF7CAFCF1BD70B536
:102BB00005000E00FFF75CFD040000F047FE00F08A
:102BC00011FF00F043FE01002000FFF7BBFF327849
:102BD0002900207C2018050012352800FFF7B0FCE2
:102BE0003078217C41181231C9B22000FFF707FF6D
:102BF000307070BDF0B5C1B007002E480068407954
:102C00006946887001A880214900FFF77FFCB878E9
:102C1000A1284BDA0525002468468078C01F0221D0
:102C200000F064FC06001CE02800C0B2385C694675
:102C30000880684600880002694608806846008867
:102C40002900C9B27918497808436946088068465E
:102C5000008801F051F901A92200D2B28854641C05
:102C6000AD1C3000461EC0B20028DDD16846817818
:102C700000227D1D2800FFF739FC2200D2B201A9F5
:102C80007D1D2800FFF75CFC2000C01D0949096874
:102C900048712000C01CB87002219622E4B2381995
:102CA000441D2000FFF722FC012000E0002041B07D
:102CB000F0BD0000D001002000B50278692A02D1E1
:102CC0004278692A07D00278982A02D14278982A55
:102CD00001D001200FE00A00D2B28218921E1278B1
:102CE000962A05D1C9B24018401E0078962801D016
:102CF000012000E0002000BD38B5040000221000D3
:102D00002078AC2804D02078682801D0012020E069
:102D10002078AC2801D1CD1E00E08D1E2900C9B25B
:102D200089B2200001F000F8010089B2090A89B2D5
:102D30002A00D2B2A25C914201D0012009E080B207
:102D4000C0B2EDB261194978884201D0012000E09B
:102D5000002032BD38B5040000210800200000F03A
:102D60001EF8200000F0C1F80500ED1D2900C9B2D1
:102D700089B2200000F0D8FF010089B2090A2A00B8
:102D8000D2B2A1542900C9B2611848705320290059
:102D9000C9B261188870ED1C2800C0B232BDAC21E8
:102DA0000170704710B50422441C2000FFF7C8FBD7
:102DB00010BD00B5D2B2002A05D0022A1FD011D30F
:102DC000032A29D035E00A00D2B2002A05D0427980
:102DD0004907490F1143417103E04179F8220A4044
:102DE000427126E0C9B2002904D0417920220A4369
:102DF000427103E04179DF220A40427119E0C9B211
:102E0000002904D0417940220A43427103E041790C
:102E1000BF220A4042710CE0C9B2002904D04179B6
:102E200080220A43427103E041794906490E41710B
:102E3000FFE700BD81717047F2B582B015001E003A
:102E400000F055F8040002202070FFF789FB0427EA
:102E50003A00011D601C01900198FFF771FB019879
:102E60002800C0B2002821D06846002101606846D1
:102E7000C5702078390001432170F6B2002E03D0CE
:102E80002078082101432170029E3A006946671D9F
:102E90003800FFF755FB2A00D2B231000934200078
:102EA000FFF74EFB13352800C0B204E02078F32171
:102EB000014021700F20FEBD00B502000020C9B204
:102EC000042904D0062906D0072908D00BE0507940
:102ED0004007400F07E050794021084003E0507957
:102EE00080210840FFE7C0B200BD80797047C01D57
:102EF000704710B402E0401C491C521E002A09D041
:102F00000B7804789C42F6D002D20020C04302E045
:102F1000012000E0002010BC7047FEE79548704794
:102F200010B5002404E00A22002300F0FAFF641C1C
:102F30000029F8D10028F6D12000C0B210BDF2B5AA
:102F400088B00300002202920020002104000D003E
:102F500004000D0004AC03C4083C042202AC1900B8
:102F60002000FFF7EDFA02980021FFF7D9FF0400D7
:102F70005AE00298FEF78CF806000F002000C0B25D
:102F8000401EFEF795F802000B0000207A49FDF77D
:102F900037FC02000B0030003900FEF793F8FEF713
:102FA0004DF805002000C0B2401EFEF781F8020077
:102FB0000B0000206E49FDF723FC00F0E7FF06AA96
:102FC00003C2083A2000C0B2401EFEF771F80200AA
:102FD0000B0000206849FDF713FC00F0D7FF060046
:102FE0000F0004A803C8009001912800C0B200217E
:102FF00006AA0CCA00F0F4FF009A019B8018594100
:1030000004AA03C2083A0298002100900191280006
:10301000C0B2002132003B0000F0E2FF009A019BA9
:10302000121A8B410292641E2000C0B20028A0D167
:10303000089C062204A92000FFF782FA09B0F0BD1F
:103040001CB56946002200230CC108396946FFF708
:1030500076FFFFF763FF0400062269462000FFF7B2
:103060006FFA4648016801220A43026013BD78B531
:10307000AFB006000D0014006846BC21FFF746FA09
:10308000684600F0C6FF3100684600F0C5FF68469C
:1030900000F0C9FF1121684600F0C8FF2100C9B245
:1030A000684600F0C5FF2200D2B22900684600F051
:1030B000C1FF684600F0C6FF00F0DEFF050000F02B
:1030C0008BF803000C34220092B2694628009B6AF8
:1030D000984730B070BD10B58AB0040000200021C0
:1030E00008AA03C2083A26A003C86A4603C2083ADF
:1030F00002A81421FFF70AFA02A800F08AFF2100B3
:1031000002A800F089FF02A800F08DFF932102A819
:1031100000F08CFF062102A800F08AFF06222100A1
:1031200008AC2000FFF70CFA68460CC8083808A85D
:1031300003C8801859416A4603C2083A0622694604
:1031400002A800F077FF02A800F07CFF00F092FFD9
:10315000C079AA28FAD100F08FFF040000F03CF8F3
:103160000300122202A920009B6A98470AB010BDF2
:1031700000003040040D00200000244000380140D1
:10318000333333333333000038B504000D0092B2CB
:103190001000022100F0AAF9020092B229002000DA
:1031A00001F08BF931BD38B504000D0092B210006A
:1031B000022100F09BF9020092B22900200001F0E8
:1031C000ADF931BD80B5D2B201F0F2F801BD80B5E4
:1031D000D2B200F0E1FF01BD00487047D4010020E9
:1031E0000120A34908807047A1480088704700204B
:1031F0009F49088070479F48006870479D49086054
:10320000704738B59C489D4908609D4C2068042152
:103210000143216000209B4908606846FF2101703E
:1032200001252900417029008170684601F08EF95E
:10323000206802210143216020680543256031BDDB
:1032400000B58C4A116813685B1A8342FBD300BD3A
:1032500000B588480168491C016085490A88002A30
:1032600002D00A88521C0A8000684007400F0028DC
:1032700002D101208449087000BD10B5FF20FEF77F
:10328000BCF900283FD101F099F9002818D001F0CD
:1032900095F9401CC0B201F094F901F08FF90521B5
:1032A0000140012904D17948016802224A400260A4
:1032B00001F084F93F2826DB002001F082F922E0AA
:1032C00001F0ACFA7249405C012819D10220714921
:1032D000086001F0A3FA7049415A491C6E4A8152B4
:1032E0006D49405A6D4988420DDB002401F096FA81
:1032F00069492200425201F091FA6549445402E0C2
:1033000002206749086010BD38B5664D00F055F9D8
:103310002880654C2078012811D164480068400657
:103320000DD4FFF761FFBC214900884214DBFFF791
:103330005EFF00F093F90A2000F099F90CE0207884
:10334000012809D0FFF750FF5949884204DBFFF7F5
:103350004EFF0A2000F08BF92888002819D0288811
:10336000401C28802888C0B200F01FF92888BC21A2
:10337000490088420DDB00F01CF98020C0014D4956
:1033800008603220FFF75CFF00F068F90A2000F0C7
:103390006EF900F005F94849405C002814D000F0AF
:1033A000FFF84549415C491C434A81544249405C0D
:1033B000FB2809DB002500F0F3F83F492A004254BE
:1033C00025700A2000F053F900F0EAF83B49405C10
:1033D000002811D000F0E4F83849415C491C374A14
:1033E00081543649405C3F2806DB00F0D9F8334968
:1033F000002242540620207000F040FE807B00280E
:103400000FD000F03BFE817B491C8173C9B21F299C
:1034100007DB002400F032FE2100817300F02EFE55
:10342000047000F027FEBE21405C002812D000F09E
:1034300021FEBE21415C491CBE228154C9B21F2914
:1034400008DB002400F016FEBE212200425400F0EA
:1034500011FE0470FEF794F8FEF7ABFBFFF70DFFCB
:10346000FEF752FE01F0DAF901F061FA31BD000019
:103470006E0D0020640D002080BB000014E000E011
:1034800010E000E018E000E07C0D0020140000488F
:1034900019040000180000481A0400004D1D000027
:1034A00028000048700D0020860D00201004004800
:1034B0007202000028080048060200000502000011
:1034C000F446002804D4494200F013F84042604713
:1034D0004042002905D45FD000F00BF84042494239
:1034E0006047494200F005F84942604703460B43F4
:1034F000E6D40022030A8B420BD203098B4219D275
:1035000043088B422ED2411A00D201465241104646
:103510007047FF2209023FD012068B4205D31212D8
:1035200009028B4201D31212090203098B4219D3FB
:1035300000E0090AC3098B4201D3CB01C01A5241F2
:1035400083098B4201D38B01C01A524143098B423C
:1035500001D34B01C01A524103098B4201D30B0125
:10356000C01A5241C3088B4201D3CB00C01A52414A
:1035700083088B4201D38B00C01A524143088B420F
:1035800001D34B00C01A5241884200D3401A524125
:10359000CFD201461046704708B501F03FFA08BD8A
:1035A00089487047894800787047C0B288490880C8
:1035B0007047002086490880704785480088C0B25F
:1035C000704710B5002402E0641C01F04AFA8048FC
:1035D0000088002803D02000C0B20628F4DBFFF7E3
:1035E000E8FF10BD38B50400684600210160FEF711
:1035F000B9FF0322010010316D462800FEF7A0FF3D
:10360000684601784278891880780D1800F01EF914
:1036100000F0E8F9002D0ED16E480100C9B289080A
:103620000007000F4840207020780A2810D1207829
:10363000801C20700CE02800C0B280082907090F08
:103640004140217020780A2802D12078801C207007
:1036500061482178405C6149087031BD80B55B48A4
:10366000FFF7C0FF01F0FDF9FFF7ABFF01BD80B52B
:10367000FFF7B6FD01205A49087001F0D5F901F0B5
:10368000D7F9002002BD80B50521554A11700121EE
:10369000544A815401F0C4F9002002BD80B50721CD
:1036A000FFF70AFC002804D110210020FDF790FF4D
:1036B00003E020210020FDF78BFF01BD70B5040061
:1036C000474D2878032817D0042802D0062808D0B0
:1036D00077E0022001F032FBFFF789FD012028701E
:1036E0006FE0002420002870FFF781FD3E48048031
:1036F0000A20FFF7BCFF64E000263000287001209C
:1037000000F05FFFFFF773FD374806803748006819
:103710004179601DFFF7D0FAC0B2012806D1002020
:1037200000F04FFF0A20FFF7A2FF4AE0601DFFF7FD
:1037300061FA01252800601DFFF785F90100C9B273
:1037400001290FD00100C9B2022902D0C0B203285A
:1037500004D102210020FDF73BFF32E00A20FFF7F1
:1037600086FF2EE0FEF778FF87214900405CC0B25B
:1037700080090540EDB2002D10D0002000F021FF9F
:10378000FEF76AFF0400FEF767FF87214900611812
:10379000FF221032805C00F082FA12E0FEF75CFF3C
:1037A0000400FEF765FF617BFFF7A6FA002804D14D
:1037B000FEF75EFFFFF772FF02E00A20FFF757FFF8
:1037C000FFE770BD000000002C070020850D0020E1
:1037D000720D0020FD020000D06000086901002089
:1037E000860D002005020000740D0020D00100208D
:1037F000124207D08B0706D00B78491C0370401C7F
:10380000521EF7D87047830706D00B78491C037007
:10381000401C521EF9D1704770B4103A03D378C9D6
:10382000103A78C0FBD2530701D318C918C001D58C
:1038300008C908C0D20704D30B880380891C801CE8
:10384000002A01D50B78037070BC7047264870477A
:10385000F0B501231C002500EDB2022675434D1979
:103860002D7B002D1AD1214D214E2F78F4552E7825
:10387000761C2E701F4E33702300DBB2022673437A
:10388000CB181A73E4B202225443091948732878FA
:10389000142801DB00202870F0BD641C2500EDB267
:1038A000142D1CDA2500EDB2022675434D192D7B2F
:1038B000002D14D015002600F6B202277E438E1983
:1038C000367BEDB2B542E8D12500EDB20226754354
:1038D0004D196D7B0600F6B2B542C4D1DCE7250078
:1038E000EDB2142DBFDBD7E7780C00207F0D002050
:1038F000F00C00207E0D0020F8B5040000273800F1
:10390000DBB2002B21D10800C0B2002868D008002B
:10391000D2B2C0B282420DD3C9B26018457CFFF763
:1039200095FF0400FFF73CFE2A00D2B22100007888
:10393000FFF78EFFFEF790FE88214900405C0228C9
:1039400001D101204DE00A204BE03D000800D2B239
:10395000C0B2824203D1607C6946087004E0C9B2FB
:103960006018807C69460870FFF770FF0600FFF75B
:1039700017FE69460A7831000078FFF769FFFEF705
:103980006BFE012687214900405CC0B280093040AF
:10399000C0B2002813D1FEF7CFF900280FD00F20B6
:1039A000FDF72BFE00280AD1FEF7C4F904222100FE
:1039B0000B31801CFFF79DFA002800D13500EDB2D5
:1039C000002D06D0FEF748FE88214900465401200C
:1039D00007E0FEF741FE882149004754042000E03B
:1039E0000A20F2BD10B50400FEF736FE411C601C33
:1039F00000F052F8207010BDF0B500210A000A0056
:103A000001220B0001240B0023E02E00F6B28619E0
:103A100076782F00FFB2C75DBE420ED22C00E4B212
:103A2000041964782E00F6B2865D2F00FFB2C71924
:103A30007E702E00F6B2845501246D1C2F00FFB25B
:103A4000BC4613271E00F6B2BE1B6746B742DCDB3E
:103A50005B1C1D00EDB2132D05DAE4B2002C02D080
:103A60000C000D00EAE7012111E01300DBB2C318DE
:103A70005B1E1B780C00E4B2045DA34206D00B0071
:103A8000DBB2C35C1400E4B20355521C491C0B00AA
:103A9000DBB2142BE9DBF0BDF8B584B004000D00F7
:103AA00068461021FEF732FDFFF796FB0300102257
:103AB00069468020C0009B68984768460678417830
:103AC000217081786170C078A0700424220068465B
:103AD000011D2F003800FEF733FD2200684601006B
:103AE00008312F1D3800FEF72BFD2200684601002B
:103AF0000C312C0008342000FEF722FD3000C0B24B
:103B000005B0F0BDF0B595B004000F0000F086FEE2
:103B10008049451800F082FE7F4909684A792100F2
:103B20007C4BC4182000FEF70BFD0020694608708E
:103B3000287C69468870E87B0007000F694648705A
:103B40000226310069222C002000FEF7CFFC8120E4
:103B5000287104242879210001432971FEF702FD10
:103B60003200010011316E1D3000FEF7E9FCFEF756
:103B700073FD2200411CEE1D3000FEF7E1FCFEF754
:103B8000EFFC2200011D2C000B342000FEF7D8FCB6
:103B9000684680780001694649780143E9735F48C7
:103BA000007800286DD00BA82821FEF7AFFC01A8F3
:103BB0002821FEF7ABFC01263000594C2000FFF70E
:103BC0001BFF11E001A83100C9B202225143401885
:103BD0003100C9B2615C0222514379180C310A7874
:103BE00002704A784270761C3000C0B214280ADA9B
:103BF0003000C0B22018401E00783100C9B2615CAC
:103C00008842DFD3761E01A83100C9B20222514397
:103C1000415C00291BD0694609780A00521C6B469A
:103C20001A700BAA3300DBB202277B43C35CC9B214
:103C30005354694609780B005B1C6F463B70330098
:103C4000DBB202277B43C0184078C9B25054300021
:103C5000461EC0B20028D6D1684602780BA9287C3F
:103C60002818060011363000FEF76AFC002210000A
:103C70002A49087010002B49087014212000FEF713
:103C800035FC0020FEF7ECFC68460078297C4118E2
:103C90001131C9B22800FEF7B2FE15B0F0BDF8B57B
:103CA00000220F00C0B210281ED1FFF7CFFD040084
:103CB000FFF776FC2100401DFFF724FF06003000CF
:103CC000C0B2002820D000F0A9FD0500FFF76AFC73
:103CD0000400FFF765FC3300DBB20E496A182100CF
:103CE000C9B2FFF7D0FC0FE03878C0B2400901003C
:103CF000C907C90F002907D03878DF210140397082
:103D000040210020FDF764FC3878BF210140397064
:103D1000F1BD00001C040000D00100207E0D002039
:103D2000F00C00207F0D0020F2B5144900221CE0A9
:103D30000378401C0F24124D1E00F6B20F00BFB2D4
:103D40007E40264002277E43AE5B89B2090971405E
:103D5000DBB21B110E00B6B273401C4002235C4361
:103D60002B5B89B209095940521C13006C46248808
:103D70009BB2A342DCD3080080B2F2BDFFFF00007B
:103D80000062000800B5002101210200D2B2120930
:103D9000D2B20300DBB25B09DBB2D2180300DBB2A4
:103DA0009B09DBB2D2180300DBB2DB08DBB2D2180E
:103DB0000A40002A51D00200D2B21209D2B2030046
:103DC000DBB25B09DBB2D2180300DBB2DB09DBB28A
:103DD000D2180300DBB29B08DBB2D2180A40002ADB
:103DE0001DD00200D2B21209D2B20300DBB29B098D
:103DF000DBB2D2180300DBB2DB09DBB2D21803005E
:103E0000DBB25B08DBB2D2181140002903D00100FD
:103E1000102048406EE00100202048406AE0020087
:103E2000D2B21209D2B20300DBB29B09DBB2D218C4
:103E30000300DBB2DB09DBB2D2180300DBB25B08A4
:103E4000DBB2D2181140002903D0010040204840C5
:103E500050E00100082048404CE00200D2B21209B4
:103E6000D2B20300DBB25B09DBB2D2180300DBB2D3
:103E7000DB09DBB2D2180300DBB29B08DBB2D2183D
:103E80000A40002A1DD00200D2B21209D2B20300A9
:103E9000DBB29B09DBB2D2180300DBB2DB09DBB279
:103EA000D2180300DBB25B08DBB2D2181140002944
:103EB00003D00100802048401CE00100042048405D
:103EC00018E00200D2B21209D2B20300DBB29B09A1
:103ED000DBB2D2180300DBB2DB09DBB2D21803007D
:103EE000DBB25B08DBB2D2181140002902D001001E
:103EF00002204840C0B200BD38B5040000210800CF
:103F0000200080B2000AC0B2FFF73CFFF025054058
:103F10002000C0B2FFF736FFC0B200092843C0B28C
:103F200032BD124224D0994228D970B500251B42D7
:103F300002D00C00002109E0002401264918644148
:103F4000944200D3A41A7641F8D33100012601E04F
:103F5000764109D2001864416D41A41A9D41F7D2FF
:103F6000A4185D41B619F5D3300022002B0070BDB6
:103F70001B42D8D108B500F031FF08BD01D19042F5
:103F8000D3D202000B00002100207047491824D230
:103F90004A0D40231B01D21A0123DB071E3A09DC1C
:103FA0005242202A19DA8902400D084318430021A1
:103FB000D0407047524220320CD489021943430D3D
:103FC0001943C002D0400B00D341D1404840584073
:103FD00009427047D817D917704700200021704751
:103FE00030B4434351435D18010C0C00130C5C4387
:103FF0002D1980B2434392B251430024C918644141
:1040000024040B04090C09195043C018694130BC41
:10401000704768210170704710B50622441C2000CB
:10402000FEF78EFA10BD6821C171704701727047AA
:104030004172704710B5D2B204000A342000FEF776
:104040007FFA10BD10B50022110004E01300DBB2AE
:10405000C35CC918521C1300DBB2447A0A34A34271
:10406000F4DB427A821891721621427A8018C1726A
:1040700010BDFEE75F4870475F4870475F48704774
:104080005F4870471CB5040068465E490A780270B4
:1040900020780D281BD1002020706178A01CFEF72D
:1040A0002BFE00280DD1A078682804D10121002022
:1040B000FDF78EFA19E0BD48016820220A4302602C
:1040C00013E0BA48016820220A4302600DE0FFF7BE
:1040D00092F8C249884208D30020FFF78FF8FFF713
:1040E000CFFF0122694600F057F813BD00B50A78EA
:1040F000002A0AD0082A12D0092A14D00A2A23D06A
:104100000B2A2FD00C2A36D045E00200D2B2682A02
:1041100004D1887001208873082008703BE0C870C3
:104120000920087037E00200D2B2002A06D1002030
:1041300008710B2008700320487004E008710A2001
:1041400008700320487026E04A788A1890704878F2
:10415000401C487048780A79D21C904201DB0B2041
:10416000087018E04A788A1890704878401C4870A7
:104170000C2008700FE04A788A1890704878401C2C
:1041800048708A48026820239A430260002088739E
:104190000D200870FFE700BD38B504002078002826
:1041A0000ED16270D2B2E51C2800FEF7C9F90020DA
:1041B000A070012020707D48016880220A430260BF
:1041C00031BD00B5010000200A78012A10D188789D
:1041D0000818C0788A78521C8A708A784B789A427C
:1041E00006D302220A7090490A6880239A430A6023
:1041F000C0B200BD480A0020080B0020340D00208A
:10420000440D0020B462000838B5040020780B2863
:1042100028D10020207061780C39C9B220000C3000
:10422000FEF76AFD00281BD1012000F0CAF9FEF755
:1042300013FA62780C3A21000C3105000E35280083
:10424000FEF77EF9FEF708FA61780C394173FEF744
:1042500065FE01210173FEF70BFAFFF71FFA01E07B
:1042600000F0D7F820780A2807D100202070FEF748
:1042700055FEFEF730FF00F0CCF831BD10B50A78DE
:10428000002A0ED0022A31D023D3042A36D031D3CB
:10429000062A49D039D3082A64D04FD3092A6ED0D0
:1042A00083E00200D2B2682A08D18870012213008C
:1042B000BE240B5513000B705C4B1A700200D2B277
:1042C000FE2A05D188700120584A10700820087015
:1042D0006BE0564A1378CB1898701078401C107019
:1042E0001078072801DB022008705EE04872032086
:1042F00008705AE088720420087056E0C8720520E1
:1043000008700A20494908704FE0484A1378CB18D2
:1043100098701078401C10701078CA7A0A32904257
:1043200001DB0620087040E0404A1378CB189870F3
:104330001078401C10700720087036E03B4A137854
:10434000CB1898701078401C1070107848700020BE
:10435000BE2288540B200870354801682022914302
:10436000016022E0314A1378CB1898701078401C15
:1043700010701078052801DB0920087015E0020094
:10438000D2B2AA2A0CD1294A1378CB189870107887
:10439000401C10700020BE2288540A20087003E0E0
:1043A0000020BE2288540870FFE710BD0044004082
:1043B00038B50400207800280ED16270D2B2E51C16
:1043C0002800FEF7BDF80020A070012020701848DA
:1043D000016880220A43026031BD0000E903000049
:1043E00010B50100002210000B78012B0FD1887846
:1043F0000818C0788B785B1C8B708B784C78A34244
:1044000005D30A700A490A6880239A430A60C0B239
:1044100010BD80B5FEF782FD0021017304480168DC
:1044200020220A43026001BD00440040880D0020A4
:104430000038014030B53249324A0A60324A0A60D7
:10444000324900220A6001220B681340002BFAD186
:104450002F4B1C68022525431D602E4C00192E4C45
:1044600020601868402404431C600868104000283D
:10447000FBD1186802218843186018688021014325
:10448000196030BD30B5234A821801231F4C2068C3
:1044900018400028F9D11E4805681D4305601180A9
:1044A000216819400029FBD1016801229143016074
:1044B00030BD1849401800887047F8B504000E0058
:1044C00017000F480F4901600F49016000250F4890
:1044D000056009E0280080B202214143715A2000A2
:1044E000FFF7D0FFA41C6D1C2800390080B289B2F0
:1044F0008842EFD30648016880220A430260F1BD7A
:104500000420024023016745AB89EFCD0C20024017
:104510001020024000C0000814200240F8B504003A
:104520000F001500002609E02000FFF7C2FF310050
:1045300089B202224A43B852A41C761C30002900DA
:1045400080B289B28842EFD3F1BDFEE770B5002199
:104550008178002923D016490278921004235A4307
:104560008B580322FF240578154008267543AC407C
:10457000A3434478A401E4B205782A4008256A439D
:1045800094401C430278921004235A438C5001211A
:104590000078C006C00E81400648016006E0012197
:1045A0000078C006C00E81400348016070BD00BFA6
:1045B00000E400E000E100E080E100E07F480078F6
:1045C00070477E49087070477D48016880229202DA
:1045D0000A4302600C20C0439021C9050A680240CA
:1045E0000A600A68042313430B6076490A680223B1
:1045F0009A430A600A680A6073490A6802400A60BE
:104600000A680A6071490A68104008600868086012
:1046100002206F49086070476948016880221203D0
:104620000A4302606B486C490A6802400A600A68E3
:1046300080235B0513430B6068490A68684B13408D
:104640000B600A680A6067490A6802400A600A68E3
:104650000A6065490A6810400860086808608020A0
:10466000C001624908607047554801688022D20243
:104670000A4302605E485F490A6802400A600A68AD
:104680008023DB0113430B605B490A6880239A4354
:104690000A600A680A6059490A6802400A600A68A2
:1046A0000A6057490A681040086008680860704747
:1046B000F0B48020C00242490A6802430A60514BAC
:1046C0004C4A14681C401460146880256D02254310
:1046D0001560494C25684C4E2E40266025682560A3
:1046E000464D2E681E402E602E68C027BF023743FD
:1046F0002F60434E37683B403360336833600B684C
:1047000003430B60414913680B401360136818435F
:10471000106020683E4A02402260206820602868BD
:10472000084028602868286030680140316030689F
:104730003060F0BC7047224801688022D2020A43F0
:1047400002602C48016889008908016001688022A4
:10475000D2050A430260284801682E4A0A400260D6
:1047600001680160254801688900890801600168C5
:1047700001602348016889008908016001680160BF
:10478000802000022449086070470D48016880229B
:1047900092020A43026016489021C9050A68024045
:1047A0000A600A680A6009490A68104008600868D7
:1047B0008022D20102430A6070470000870D00206A
:1047C0001410024004000048080000480C00004893
:1047D00028000048FFFFFFCF0008004804080048F9
:1047E000FFBFFFFF080800480C08004828080048E1
:1047F000FF3FFFFF0004004804040048080400488D
:104800000C040048FFFFFCFFFFFEFFFFFFFFF3FF6C
:10481000FFFDFFFFFF7FFFFF1804004816487047A9
:10482000F8B50024230000E05B1C1D00EDB2022D52
:1048300021DA01258326F600875D2E009E4037424F
:10484000F2D18326F600865D9D4035438326F6002F
:1048500085551D00EDB28326760075434519AB7072
:104860006A70D2B2EE1C3000FDF76AFE8220400072
:104870002C5202202870F1BD1002002010B500213A
:104880000A000A008323DB00C2540A000FE0130071
:10489000DBB2832464006343C3180C009C700C00DB
:1048A0005C708224640019530C001C70521C1300AD
:1048B000DBB2022BEBDB10BD7CB5050056482C1893
:1048C000002210006946087080214900260030004F
:1048D000FDF70CFE2000FCF7C2FF69460870684631
:1048E0000078002822D02800FFF7C8FF01236A467D
:1048F00068460178200000F073FA69462000FEF750
:1049000056F9FDF7B5FE040068460278210028003C
:10491000FFF786FFFEF746FE0500FEF741FE6946FB
:104920000B7822002900C9B2FEF7ADFE73BDFEB5BB
:104930003849097805296BD000252900060000E0D8
:10494000491C0800C0B2022862DA0800C0B2832203
:1049500052005043341820780028F1D082204000C3
:10496000205A401C82225200A05282204000205A2D
:104970003F28E5DB2800822149006052FEF712FE45
:104980000700FEF70DFE6378E21C3900C9B2FEF79E
:104990007AFE2078401E2070C0B2002838D18320D3
:1049A000C000305C0121A278914088438321C90076
:1049B00070546846057001A80021002206C008381E
:1049C00000236A4660781238E17C401A011FC9B2A0
:1049D0002000153000F004FAFEF7A0FA062201A923
:1049E000801DFEF786FA002808D1FEF797FA050029
:1049F000FDF732FEA91D401CFEF7A1FAFEF78EFA64
:104A000069460A7892B221001531801DFEF72FFB0E
:104A1000F7BD0000860D00201C0400007047FEE773
:104A20000020784908707047002077490870704767
:104A3000002076490870704780B50120FEF7B5FD6B
:104A400001BD10B5002400F086FA00F0EFF800E098
:104A5000641C20006E490968098980B28842F7D336
:104A600010BD80B5FEF7A5FDFFF7EBFF00F023F9C1
:104A7000684840886849884201D0FFF7DDFF6448F4
:104A80000068006800F0E0F8002801D0FFF7D4FFCC
:104A900000220021002000F032F901BDF8B5070026
:104AA0000024200000220021002000F028F9594DA8
:104AB000A878000702D50420584908702879C00753
:104AC00002D5012056497854A878800727D5554E3D
:104AD0003078312813DB4B480078302148433818B0
:104AE000FF2142314118302000F039F94548007863
:104AF000401C444908703078303830700FE030780E
:104B000000280CD03F480078302148433818FF2156
:104B100042314118307800F022F920003070A87836
:104B2000800608D520003F49087006203B490870E0
:104B300020003D497854A878C0072DD53248007828
:104B4000002812D1791C042000F012F9002000F096
:104B5000F5F82E78791D3000C0B200F009F92B4825
:104B6000067001202849087016E0002000F0E6F8E1
:104B7000287869460870254E30783818411D6846F7
:104B8000007800F0F5F83078694609784018307000
:104B90001D480178491C0170A878C00630D51A4814
:104BA000007800280BD1791C042000F0E1F80020E7
:104BB00000F0C4F8791D287800F0DAF80EE0134E02
:104BC000307800280AD0002000F0B8F83078381883
:104BD000411D287800F0CCF8200030700C4879781E
:104BE000091F02685171B97800680171002000F056
:104BF000CFF8E878387003200849087008483C541A
:104C0000F1BD0000810D0020820D0020830D0020E9
:104C1000D0010020140D002038440000860D002033
:104C200006020000800D00200502000080B500F0A3
:104C300085F90420FEF704FB00F084F90520FEF757
:104C4000FFFA00F064FA01BD38B5040020780028AE
:104C50002FD02078641C0100C9B2112901D304208F
:104C600028E0002106E02278464B0D00EDB25A55AF
:104C7000641C491C0A000300D2B2DBB29A42F2D390
:104C8000002300223F49C0B200F050FAFF2801D0B3
:104C900002200FE000F064F90028D7D100220021A3
:104CA000002000F02CF8384880790007CED5042089
:104CB00000E0002032BD10B5324C012020702300EE
:104CC00008222100012000F031FA2F4821780170DC
:104CD000811C627812020A804288A3781A430A80F3
:104CE000E1780171811D227912020A80C2886379FC
:104CF0001A430A80A1790172E179417210BD10B5A1
:104D0000204C202323706070A170E27023000822E1
:104D10002100042000F00AFA1B4821780170617814
:104D20004170A1788170E178C17021790171617958
:104D30004171A1798171E179C17110BD10B5114C3A
:104D4000152121706070230002222100022000F052
:104D5000EDF90E48217801706178417010BD80B581
:104D600002000B00D2B20021662000F0ABF901BDB9
:104D700080B502000B00D2B20021772000F083F949
:104D800001BD0000240D0020140D0020140D002092
:104D900010B5104C222121706070230008222100E0
:104DA000022000F0C3F90C4821780170617841704D
:104DB000A1788170E178C1702179017161794171C7
:104DC000811DA27912020A80C088E279104308800E
:104DD00010BD0000240D0020140D00207047FEE7D8
:104DE000F7B505001F002800FEF77FF86946087038
:104DF0001024684600782100FEF778FB060068461C
:104E000000782100FEF772FB68460170002423E061
:104E1000494A2000C0B2102148432818C11D200073
:104E2000C0B2102358432818C01D00F033FC12E014
:104E30003800C0B20028EBD03F4A2000C0B2102199
:104E400048432818C11D2000C0B210235843281819
:104E5000C01D00F0ADFB641C20003100C0B2C9B21F
:104E60008842E5D36846047968460078002841D036
:104E7000FFB2002F2BD0002001000DE03200D2B293
:104E800010235A436B461B78D2180B00DBB2D218A2
:104E9000AA180300D371491C0B00DBB210226F4625
:104EA0003F78D21B9342E9DB234A3000C0B2102185
:104EB00048432818C11DF6B210204643A819C01D4A
:104EC00000F076FB103468460078241A12E01A4A83
:104ED0003000C0B2102148432818C11DF6B210207E
:104EE0004643A819C01D00F0D5FB68460078241879
:104EF000103CFFE72000C0B203281BDB029E20000D
:104F0000C0B2C11E89B22800FEF70EFF010089B2AF
:104F1000090A2200D2B2AA18D21E11702100C9B209
:104F20006918891E087053202100C9B26918491EEA
:104F300008703470F7BD0000C80B002080200C49B9
:104F40000860704780200B4908607047802000028D
:104F500009490860704780200002084908607047CE
:104F60000748006881090800C007C00F70470000AB
:104F70001804004828040048280000481800004889
:104F80001004004880B5C0B200F0C4FC01BD80B57B
:104F9000FF2000F0BFFC02BD80B5C0B200F000FDF4
:104FA00001BD80B5C0B200F0E9FC01BD00B5BFF3A2
:104FB0004F8F594859490860BFF34F8FFEE7F8B546
:104FC00007000E000024564D03E000BFFFF7C3FFAB
:104FD0006D1E280080B2002817D0FFF7B7FF4420CD
:104FE000FFF7D0FFFFF7D3FF04002000C0B2FF2877
:104FF000EBD138000100C9B2002903D03100C0B2A2
:10500000FFF7CFFF00BFFFF7A6FFADB2002D1AD10B
:105010008020C001434908609620FEF711F99620D0
:10502000FEF70EF99620FEF70BF99620FEF708F929
:105030009620FEF705F99620FEF702F99620FEF776
:10504000FFF8FFF7B3FF2000C0B2FF2802D1012014
:10505000354908702000C0B2F2BD70B505000E00E1
:1050600001E000F04EF8304C20780028F9D0FFF72E
:105070006DFF31002800C0B2FFF78EFFFFF76BFF16
:105080000020207070BD70B5040015001E00C9B26C
:10509000002902D105E000F034F823480078002808
:1050A000F9D0FFF753FF2000C0B2FFF76BFF3100CC
:1050B0002800C0B2FFF775FFFFF74DFF00201A4927
:1050C000087070BD70B5040015001E00C9B200293B
:1050D00002D105E000F015F8134800780028F9D057
:1050E000FFF734FF2000C0B2FFF74CFF310028006B
:1050F000C0B2FFF751FFFFF72EFF00200A490870EA
:1051000070BD80B500210020FFF759FF02BD0020CF
:1051100005490870704700000400FA050CED00E036
:105120003075000018080048840D002038B51400C0
:105130001D00C0B2FFF791FF29002000C0B2FFF7A9
:105140003EFF32BD10B50200002318001C001C00F9
:105150000EE0CC0700D55040802414405200E4B249
:10516000002C02D014001B226240C9B249085B1C0B
:105170001C00E4B2082CECDBC0B210BDF4B5070093
:105180000E0031783878FFF7DDFF04007178F87889
:10519000FFF7D8FF0500B178B878FFF7D3FF01001B
:1051A000654069400C00F1787878FFF7CBFF21006B
:1051B00048400099087031787878FFF7C3FF040001
:1051C00071783878FFF7BEFF0500B178F878FFF7FF
:1051D000B9FF0100654069400C00F178B878FFF72D
:1051E000B1FF21004840009948703178B878FFF746
:1051F000A9FF040071787878FFF7A4FF0500B17863
:105200003878FFF79FFF0100654069400C00F17896
:10521000F878FFF797FF21004840009988703178AF
:10522000F878FFF78FFF04007178B878FFF78AFFEE
:105230000500B1787878FFF785FF01006540694087
:105240000C00F1783878FFF77DFF21004840009985
:10525000C870F1BDF0B500234DE01C00E4B2045D60
:105260001500EDB2102675431E00F6B204277E43EA
:10527000AD194D5D65401C00E4B205551C00E4B25B
:10528000041924791500EDB2102675431E00F6B2FC
:1052900004277E43AD194D196D7865401C00E4B2BA
:1052A000041925711C00E4B20419247A1500EDB22A
:1052B000102675431E00F6B204277E43AD194D1922
:1052C000AD7865401C00E4B2041925721C00E4B2FC
:1052D0000419247B1500EDB2102675431E00F6B2AA
:1052E00004277E43AD194D19ED7865401C00E4B2EA
:1052F000041925735B1C1C00E4B2042CADDBF0BD6B
:105300007FB5050002A8A6490A680260002634009D
:1053100011E00100C9B2042251432200D2B289181F
:105320006A460300DBB2D25C6A54401C0100C9B279
:105330000429EEDB641C2000C0B2042819DA300016
:105340000CE00100C9B2042251432200D2B28918F4
:10535000695C01AA0300DBB2D154401C0100C9B250
:105360000429EEDB6A4601A902A8FFF707FF300017
:10537000DCE77FBD7FB5050002A88A490A680260A4
:105380000026340011E00100C9B20422514322007A
:10539000D2B289186A460300DBB2D25C6A54401C60
:1053A0000100C9B20429EEDB641C2000C0B204284D
:1053B00019DA30000CE00100C9B204225143220086
:1053C000D2B28918695C01AA0300DBB2D154401C37
:1053D0000100C9B20429EEDB6A4601A902A8FFF761
:1053E000CDFE3000DCE77FBDF0B5012100E0491CB7
:1053F0000A00D2B2042A2CDA00221DE00D00EDB220
:10540000042675431E00F6B2AD1945196D1E0E0037
:10541000F6B204277E431F00FFB2F619865D2E7098
:105420005B1C1D00EDB2042DE8DB0B00DBB2042594
:105430006B43C318DC70521C13000C00DBB2E4B2E7
:10544000A342D4D20B00DBB204246343C45C012327
:10545000E7E7F0BDF0B5012100E0491C0A00D2B237
:10546000042A2CDA00221CE00D00EDB2042675435C
:105470001E00F6B2AD190E00F6B204277E431F00DF
:10548000FFB2F6198619761E367846555B1E1D004A
:10549000EDB2002DE8D10B00DBB204256B43C45400
:1054A000521C13000C00DBB2E4B2A342D5D20B00B5
:1054B000DBB204246343C318DC780323E7E7F0BDC1
:1054C000F0B500210A002BE01400E4B204256C437F
:1054D0001D00EDB26419045D2600F6B23609140011
:1054E000E4B204256C431D00EDB26419045D240789
:1054F000240F1500EDB204277D431F00FFB2EF1902
:10550000294DAC46F6B210256E43E4B23419654617
:105510002C5DC4555B1C1C00E4B2042CD4DB521C73
:105520001300DBB2042B01DA0B00F4E7F0BD00003E
:10553000F0B500210A002BE01400E4B204256C430E
:105540001D00EDB26419045D2600F6B236091400A0
:10555000E4B204256C431D00EDB26419045D240718
:10556000240F1500EDB204277D431F00FFB2EF1991
:105570000E4DAC46F6B210256E43E4B234196546C2
:105580002C5DC4555B1C1C00E4B2042CD4DB521C03
:105590001300DBB2042B01DA0B00F4E7F0BD0000CE
:1055A000986200089C620008585D0008585E000878
:1055B000F1B586B00D00002630001DE002AC0300FE
:1055C000DBB204277B430F00FFB2DF190097019481
:1055D000069F0300DBB29C460C00E4B204235C434C
:1055E00063461B19FB5C019C009FE355491C0B00A3
:1055F000DBB2042BE2DB401C0100C9B2042901DA52
:105600003100F4E717000022390002A8FFF722FE5C
:1056100001240FE002A8FFF753FF02A8FFF7E4FE02
:1056200002A8FFF76DFE2200D2B2390002A8FFF7F0
:1056300011FE641C2000C0B20A28EBDB02A8FFF7B1
:105640003FFF02A8FFF7D0FE0A22390002A8FFF7A9
:1056500001FE300016E00200D2B20B00DBB20424DF
:105660006343D21802AB0400E4B204277C430F006A
:10567000FFB2E4191B5DAB54491C0A00D2B2042AE4
:10568000E9DB401C0100C9B2042901DA3100F4E76A
:1056900007B0F0BDF1B586B00D00002630001DE06A
:1056A00002AC0300DBB204277B430F00FFB2DF191B
:1056B00000970194069F0300DBB29C460C00E4B205
:1056C00004235C4363461B19FB5C019C009FE3556C
:1056D000491C0B00DBB2042BE2DB401C0100C9B209
:1056E000042901DA3100F4E717000A22390002A880
:1056F000FFF7B0FD09240FE002A8FFF7ABFE02A8F8
:10570000FFF716FF2200D2B2390002A8FFF7A2FD70
:1057100002A8FFF72FFE641E2000C0B20028EBD1C4
:1057200002A8FFF797FE02A8FFF702FF0022390048
:1057300002A8FFF78FFD300016E00200D2B20B0086
:10574000DBB204246343D21802AB0400E4B20427A2
:105750007C430F00FFB2E4191B5DAB54491C0A00E7
:10576000D2B2042AE9DB401C0100C9B2042901DAE3
:105770003100F4E707B0F0BDF8B56C48016880224D
:1057800052010A4302606A480168802292020A4379
:1057900002608021C90202680A43026002680A436B
:1057A00002600268114301609021C9050868800009
:1057B000800808608020C0050A6802430A605D49CD
:1057C0000A685D4B13400B600A680A605B490A680F
:1057D000920092080A600A681043086058480168FD
:1057E00089008908016001680160564B18685649B4
:1057F0000140196018681860C022D24353480168FC
:1058000011400160016880240C430460504909681C
:105810000824A1434E4C21604D4909684C4C21603D
:105820004C4C2168114021602168C0250D43256042
:1058300049490D682A400A6040220D6815430D60F1
:105840001D68464E2E401E601D681D60444D066852
:105850002E400660066880273F01374307603C4EB4
:1058600036682027BE433A4F3E60394E3668384F7F
:105870003E6026682E4026602668C0273F013743D9
:1058800027600C6825400D600C688025ED002543DD
:105890000D601C68334D25401D601C681C60324C37
:1058A00003682340036080239B0005681D43056057
:1058B000086804400C60802040000C6804430C60C1
:1058C0002A4900240C600D680D600D6810262E43D7
:1058D0000E600D6804262E430E600D680D600D6885
:1058E0000D60234D2C602C688026760126432E60A7
:1058F0002C68E026F60026432E600C6823430B60DC
:105900000B6818430860086802430A60FF2000F033
:1059100001F8F1BD00B5174A11688907FBD5164992
:1059200008701068C007FCD5087800BD1810024048
:105930001410024004000048FF7FFFFF08000048E9
:105940000C00004820040048FF0FFFFF000400483F
:1059500004040048080400480C040048FFFF0FFF3F
:10596000FFF3FFFFFFFFF0FFFFFCFFFF00300140F0
:1059700004300140083001400C30014070B5050092
:105980000C00002605E0FF20FFF7C4FF2070641C18
:10599000761C30002900C0B2C9B28842F3D370BD72
:1059A00070B505000C00002605E03000C0B2205C98
:1059B000FFF7B0FF761C30002900C0B2C9B28842A0
:1059C000F3D370BDF8B58020800286490A6802438F
:1059D0000A6085490A6810430860844B1868844946
:1059E0000140196018688021490001431960302581
:1059F000ED439024E40520682840206020682021A1
:105A0000014321607B48016804229143016004271F
:105A100001683943016078490A682A400A600A68C7
:105A2000102616430E60754A1668354015601568D5
:105A300010262E4316601D68714E2E401E601D6894
:105A4000802676012E431E60C023DB4325681D405F
:105A50002560256880262E43266004680825AC430F
:105A6000046008240568254305600868184008603C
:105A700040200D6805430D6011680B4013601168EC
:105A8000084310605F4D002028605F490860286867
:105A90002860086808605D485D49086068461C2108
:105AA0000170022141700126310081706846FEF7C5
:105AB0004DFD2868202101432960286804432C609B
:105AC000286807432F60286806432E60F1BDF8B5AB
:105AD00044480168802292020A4302604D480168EE
